S01E000030312D455350383236365F41544D4547415F323536302E7372656380
S113000092C00000B1C00000AFC00000ADC000004D
S1130010ABC00000A9C00000A7C00000A5C000003C
S1130020A3C00000A1C000009FC000009DC000004C
S11300309BC0000099C0000097C0000095C000005C
S113004093C0000091C000008FC000008DC000006C
S11300508BC000000C941C1487C0000085C00000F5
S113006083C000000C944A147FC000007DC00000CF
S11300707BC0000079C0000077C0000075C000009C
S113008073C0000071C000006FC000006DC00000AC
S11300900C94CD1369C0000067C0000065C0000067
S11300A063C0000061C000005FC000005DC00000CC
S11300B05BC0000059C0000057C0000055C00000DC
S11300C053C0000051C000004FC000004DC00000EC
S11300D04BC0000049C0000047C0000045C00000FC
S11300E043C00000510DB20D020BB20DDB0CEE0C3F
S11300F0510DFE0C510D1F0D510DBB0BB20D510DC9
S1130100610D510D510DB20D3D0B510D510DA20C50
S1130110BF0C740D950D510DB20DB20DB20DB20D93
S1130120510D510D510D11241FBECFEFD1E2DEBF91
S1130130CDBF00E00CBF1AE0A0E0B2E0E8EEF5E3CA
S113014000E00BBF02C007900D92A039B107D9F7A8
S113015027E1A0E9BAE001C01D92A63AB207E1F78F
S11301600E9492140C94F21A4BCFCF93DF93EC01BC
S113017082E1FE0111928A95E9F7CB01A0E0B0E09B
S113018088839983AA83BB835D874C878AE08F87A2
S1130190452B81F4CB010E9448169D878C87892BBF
S11301A031F4188219821A821B8281E007C08E857D
S11301B082608E878E8581608E8780E0DF91CF910B
S11301C00895CF92DF92EF92FF920F931F93FC0159
S11301D0892BB9F10481158126813781C084D184AA
S11301E0E284F3840C151D052E053F0529F4408196
S11301F051816281738122C00C151D052E053F05B6
S113020038F4B701A601401B510B620B730B03C0FA
S113021040E050E0BA01C016D106E206F30670F4DD
S113022080819181A281B381B701A601480F591F32
S11302306A1F7B1F401B510B620B730BCA01019792
S113024002C080E090E01F910F91FF90EF90DF904B
S1130250CF9008954F925F926F927F928F929F9268
S1130260AF92BF92CF92DF92EF92FF920F931F93C0
S1130270CF93DF93EC017B018A01892B09F475C0CC
S1130280452B09F475C088809980AA80BB808C8135
S11302909D81AE81BF8188159905AA05BB0520F013
S11302A01C821D821E821F82CE018BDFAC0160E0A6
S11302B070E02801612C712C4415550566057705FD
S11302C030F4452B462B472B09F455C08C018C8107
S11302D09D81AE81BF81B501A401481B590B6A0BF6
S11302E07B0B4801A12CB12C481559056A057B05E7
S11302F010F44A015B012C853D85820F931FA401F4
S1130300B7010E9485178C819D81AE81BF81880DC4
S1130310991DAA1DBB1D8C839D83AE83BF83680179
S1130320C818D90871F0B701680D791DA6018C852C
S11303309D850E948517E12CF12CCC82DD82EE8212
S1130340FF824C815D816E817F8188819981AA8140
S1130350BB81481759076A077B0720F01C821D825E
S11303601E821F82802F912F08C080E090E005C07C
S113037080E090E002C080E090E0DF91CF911F9197
S11303800F91FF90EF90DF90CF90BF90AF909F9030
S11303908F907F906F905F904F900895CF92DF92EF
S11303A0EF92FF920F931F93FC01892B61F1C4809C
S11303B0D580E680F78000851185228533850C156C
S11303C01D052E053F0538F4B701A601401B510B4E
S11303D0620B730B03C040E050E0BA01C016D106B3
S11303E0E206F30670F480819181A281B381B701A2
S11303F0A601480F591F6A1F7B1F401B510B620B3C
S1130400730BCA0102C080E090E01F910F91FF902E
S1130410EF90DF90CF9008954F925F926F927F920A
S11304208F929F92AF92BF92CF92DF92EF92FF9200
S11304300F931F93CF93DF93EC017B018A01892BE8
S113044009F476C0452B09F476C088809980AA8087
S1130450BB8088859985AA85BB8588159905AA05D9
S1130460BB0520F0188619861A861B86CE0196DFF6
S1130470AC0160E070E02801612C712C4415550535
S11304806605770530F4452B462B472B09F456C0F7
S11304908C01488559856A857B85D501C401841BF7
S11304A0950BA60BB70B4801A12CB12C8815990507
S11304B0AA05BB0510F44C015D018C859D85BC012A
S11304C0640F751FA401C7010E948517888599854B
S11304D0AA85BB85880D991DAA1DBB1D8887998790
S11304E0AA87BB876801C818D90871F0C701880DAD
S11304F0991D6C857D85A6010E948517E12CF12C40
S1130500C886D986EA86FB86488559856A857B85AF
S113051088819981AA81BB81481759076A077B079B
S113052020F0188619861A861B86802F912F08C002
S113053080E090E005C080E090E002C080E090E0C0
S1130540DF91CF911F910F91FF90EF90DF90CF90AB
S1130550BF90AF909F908F907F906F905F904F90DF
S11305600895009749F0FC011482158216821782BF
S1130570108611861286138608958F929F92AF92E9
S1130580BF92CF92DF92EF92FF92CF93DF930097C7
S113059081F1C62F7C0102DFBC01F7012085318582
S11305A0892B51F180809180A280B380A485B58588
S11305B040E050E0D0E080E06901E12CF12CC81467
S11305C0D904EA04FB0410F02D2F382FFD01E20FAB
S11305D0F31F90819C1303C0842F952F0FC02F5FAE
S11305E03F4F4F5F5F4F6417750731F78FEF9FEFF2
S11305F005C08FEF9FEF02C08FEF9FEFDF91CF9188
S1130600FF90EF90DF90CF90BF90AF909F908F902E
S113061008952F923F924F925F926F927F928F92A2
S11306209F92AF92BF92CF92DF92EF92FF920F937D
S11306301F93CF93DF9300D01F92CDB7DEB70097FF
S113064009F47CC08A01B72EA62E4C01A7DEFC015A
S11306508017910708F475C0D40118962D913C9128
S11306601997892B09F470C0CD90DD90ED90FC9022
S113067013971C964D915C911D97A982BA82A9810A
S1130680BA819D90BA83A983812C80E090E0212CCB
S1130690312CA22CB32C2901612C712C4C145D0437
S11306A06E047F0410F0222D332DDA01A20FB31F44
S11306B06C91691509F44BC02F5F3F4F3197019638
S11306C08820B1F10230110560F169807A8061E01F
S11306D070E0D301FC83EB832901612C712C4C1451
S11306E05D046E047F0410F02A2D3B2D7D902A01B9
S11306F0420E531EF2016080671431F0EB81FC81DD
S11307000197860F971F0FC02F5F3F4FEB81FC812E
S11307103197FC83EB836F5F7F4F60177107E1F6BE
S113072005C061E070E06017710711F4019716C00D
S1130730309709F0B0CF8FEF9FEF10C08FEF9FEF8E
S11307400DC08FEF9FEF0AC08FEF9FEF07C02F5FA1
S11307503F4F3197019688248394B4CF0F900F9024
S11307600F900F90DF91CF911F910F91FF90EF9019
S1130770DF90CF90BF90AF909F908F907F906F90BD
S11307805F904F903F902F900895FB0101900020BF
S1130790E9F73197AF01461B570B5CCD08958F9253
S11307A09F92AF92BF92CF92DF92EF92FF920F93FC
S11307B01F93CF93DF931F92CDB7DEB7009709F451
S11307C043C04A015B017C01FCDC892B09F43FC076
S11307D0F7016785C701D1DE99232CF4C701DEDD5B
S11307E088159905B8F1F1E08F1A9108D9F06501DF
S11307F000E010E041E050E0BE016F5F7F4FC701B1
S11308000BDE8981F60181936F01F70197858917C2
S113081029F00F5F1F4F0815190560F38016910624
S113082051F402C000E010E0F501E00FF11F108266
S1130830802F912F11C00F5F1F4FF501E00FF11FA3
S11308401082802F912F08C080E090E005C080E0E6
S113085090E002C080E090E00F90DF91CF911F9173
S11308600F91FF90EF90DF90CF90BF90AF909F904B
S11308708F900895CF92DF92EF92FF920F931F9380
S1130880FC01DB0180818D3219F4319691E001C0C5
S113089090E0008180ED800F8A3048F53196892FF1
S11308A040E050E0BA01440F551F661F771F6A01EC
S11308B07B01CC0CDD1CEE1CFF1CCC0CDD1CEE1CE7
S11308C0FF1C4C0D5D1D6E1D7F1D10E000531109B2
S11308D0012E000C220B330B400F511F621F731F9C
S11308E08F5F019120ED200F2A30E8F204C0892F98
S11308F040E050E0BA01109709F08C93992351F02D
S11309008A019B0166277727CB01601B710B820B41
S1130910930B02C0CB01BA011F910F91FF90EF908E
S1130920DF90CF900895EF92FF920F931F93CF9390
S1130930DF931F92CDB7DEB78C018CE58983F80174
S113094090819923D9F001C087019C3221F0923221
S113095011F09C3531F461E070E0CE0101960E9403
S1130960B1137801FFEFEF1AFF0A61E070E0C801EC
S11309700E94B113F80191819111E6CF0F90DF919C
S1130980CF911F910F91FF90EF9008957F936F93F4
S11309905F934F9324E132E03F932F939F938F9380
S11309A00E9429188DB79EB708960FB6F8949EBF7B
S11309B00FBE8DBF0895AF92BF92CF92DF92EF9298
S11309C0FF921F93CF93DF93CDB7DEB761970FB636
S11309D0F894DEBF0FBECDBFFC016B015A019FE04E
S11309E0DE01129601900D929A95E1F7198A68E159
S11309F072E0CE0102960E9475170097E9F410E0A8
S1130A0015C0BE016F5F7F4F35DFF70161937F0132
S1130A108981180FEC15FD0549F01F5F68E172E04C
S1130A2080E090E00E947517009759F7A114B10473
S1130A3079F0F50110830CC0BE016F5F7F4F1ADFA0
S1130A40F60161937F011981F4E0CF0ED11CE5CF4B
S1130A5061960FB6F894DEBF0FBECDBFDF91CF9184
S1130A601F91FF90EF90DF90CF90BF90AF900895CB
S1130A700F931F93CF93DF93EC018B014EE050E073
S1130A808AE192E00E949717892B09F46FC043E131
S1130A9050E0B80189E292E00E949717892B09F48B
S1130AA079C043E150E0B8018DE392E00E949717CA
S1130AB0892B09F482C04AE050E0B80181E592E054
S1130AC00E949717892B09F453C04FE050E0B801F6
S1130AD08CE592E00E949717892B09F45DC04FE0E2
S1130AE050E0B8018CE692E00E949717892B09F434
S1130AF066C04DE050E0B8018CE792E00E94971781
S1130B00892B09F46DC042E150E0B8018AE892E013
S1130B100E949717892B09F476C042E150E0B8018E
S1130B208DE992E00E949717892B09F47FC049E070
S1130B3050E0B80180EB92E00E949717892B09F4EA
S1130B4051C04EE050E0B8018AEB92E00E94971742
S1130B50892B09F45AC04EE050E0B80189EC92E0C8
S1130B600E949717892B09F463C072C02EE001C05C
S1130B702AE0BE016D527F4F30E0C901029640E089
S1130B8050E0800F911F17DFC35DDE4F88818160C5
S1130B9088835EC083E101C08FE0BE0165527F4F50
S1130BA090E0029640E050E0800F911F04DFC35DA7
S1130BB0DE4F8881826088834BC083E101C08FE06F
S1130BC0BE0169527F4F90E0029640E050E0800FF2
S1130BD0911FF1DEC35DDE4F88818460888338C055
S1130BE08DE001C089E0BE016B517F4F90E0029619
S1130BF040E050E0800F911FDEDEC35DDE4F888150
S1130C008061888325C082E101C08EE0BE0163510A
S1130C107F4F90E0029640E050E0800F911FCBDEC2
S1130C20C35DDE4F88818062888312C082E101C087
S1130C308EE0BE0167517F4F90E0029640E050E0A5
S1130C40800F911FB8DEC35DDE4F88818064888386
S1130C50DF91CF911F910F9108958F929F92AF9240
S1130C60BF92CF92DF92EF92FF920F931F93CF9395
S1130C70DF938B017A016DE873E00E94751700978A
S1130C80E1F1E8010A5F1F4FD12C812C912CA12C9A
S1130C90B12CC12C282FE82FF92F882D992DAA2D9E
S1130CA0BB2D0DC0375507C04FEB430F463010F432
S1130CB0375301C03C2D830F911DA11DB11D5E2F23
S1130CC0521B319140ED430F4A3078F14FE9430F05
S1130CD04630E8F14FEB430F4630B0F08993D50E20
S1130CE0C017D10759F0D3946DE873E080E090E029
S1130CF00E947517009771F601C0D12CE114F1041C
S1130D00E1F1F701D08239C0880F991FAA1FBB1FD8
S1130D10880F991FAA1FBB1F880F991FAA1FBB1FEB
S1130D20880F991FAA1FBB1FBFCF880F991FAA1F27
S1130D30BB1F880F991FAA1FBB1F880F991FAA1FCB
S1130D40BB1F880F991FAA1FBB1F342FB4CF880F56
S1130D50991FAA1FBB1F880F991FAA1FBB1F880FAB
S1130D60991FAA1FBB1F880F991FAA1FBB1F4FE9FA
S1130D70430F463008F098CF95CFDF91CF911F9164
S1130D800F91FF90EF90DF90CF90BF90AF909F9026
S1130D908F900895CF93DF93EC011E8A1F8A188EDB
S1130DA0198E46E454E160E072E088E596E1DDD90D
S1130DB0882329F0CF5CDE4F85E0888311C046E4A8
S1130DC050E160E074E086E496E1CFD9882329F00D
S1130DD0CF5CDE4F85E0888303C0279A2F98FFCF2E
S1130DE085E0DF91CF9108950F931F93FC01068551
S1130DF0178520893189400F511F621F731F468751
S1130E005787608B718B1F910F910895AB01BC01C3
S1130E1086E496E11FCA089508950895089580E030
S1130E2090E0089508954F925F926F927F92AF92EF
S1130E30BF92CF92DF92EF92FF920F931F93CF93C3
S1130E40DF936C01EC016A967C0183E3E80EF11CEC
S1130E508601045E1F4F5601A5EDAA0EB11C6C2F2E
S1130E607D2F9881992329F19701F70180818823A7
S1130E7001F1D8018C91811109C0F601448055809B
S1130E806680778045284628472899F4F90110821E
S1130E908C91882341F052964D915C915397C601F1
S1130EA00E94A91506C052964D915C915397C601B4
S1130EB0B5DFA596F5E2EF0EF11C0B5D1F4F0A1589
S1130EC01B0569F6DF91CF911F910F91FF90EF9071
S1130ED0DF90CF90BF90AF907F906F905F904F90D6
S1130EE008952F923F924F925F926F927F928F92CA
S1130EF09F92AF92BF92CF92DF92EF92FF920F93A5
S1130F001F93CF93DF931F921F92CDB7DEB78C014F
S1130F106B01542E4901FC0186859785A089B1890E
S1130F20828B938BA48BB58B2230310549F4DB0182
S1130F308C918D3029F411968C918A3009F495C6E0
S1130F40F80184819581A681B781892B8A2B8B2B0B
S1130F5009F446C0552009F443C06DED72E0C601A2
S1130F600E948E17892BE1F168ED72E0C6010E94A0
S1130F708E17892BA9F162EE72E0C6010E948E17CA
S1130F80892B71F16AEE72E0C6010E948E17892BDB
S1130F9071F162EF72E0C6010E948E17892B51F144
S1130FA045E050E06EEF72E0C6010E949717892B6E
S1130FB009F1D80118966D917C911997FB01019064
S1130FC00020E9F73197AF01461B570BC6010E9479
S1130FD09717892B79F0B60188E596E1D6DB45C6EB
S1130FE06AEE72E0C6010E948E17892B19F4C801BB
S1130FF00E94EA1464E073E0C6010E948E17892BF4
S113100019F4C8010E94EE14C8010DDF60E173E019
S1131010C6010E948E17892B51F4F801E35DFE4F3F
S1131020818184608183C8010E94F6143AC061E220
S113103073E0C6010E948E17892BC1F4F801E35DA9
S1131040FE4F81818B7F877F818389E1B597DF01A3
S11310501D928A95E9F789EBEE5EF109DF011D9295
S11310608A95E9F7C8010E94F2141BC063E373E098
S1131070C6010E948E17892B51F4F801E35DFE4FDF
S1131080818188608183C8010E940A150AC061E4D5
S113109073E0C6010E948E17892B19F4C8010E94BF
S11310A0401568ED72E0C6010E94A517892B09F46A
S11310B0C9C5F80114821582168217827801FDE2EF
S11310C0EF0EF11C58012AE1A20EB11C380186EE84
S11310D0680E711CD7018C91882371F01C92F70162
S11310E071978081882329F0B501C8010E94A51554
S11310F003C0B501C80196DEB5E2EB0EF11CE5E2D2
S1131100AE0EB11CE614F70429F79CC5A12CB12C32
S11311107301EA0CFB1CEC0CFD1C4AE050E06EE48D
S113112073E0C7010E947817892B21F4E114F104BC
S113113041F434C0FFEFAF1ABF0AA814B90441F751
S11311402DC0D7018E9190E0C09725E2289FF00131
S1131150299FF00D1124BF01665E7F4F600F711F40
S1131160E00FF11F81E0828F8C918053838F848DF7
S1131170882389F0F80184819581A681B7810A9733
S1131180A105B10521F41482158216821782C801C3
S11311900E944415E0C0C8013FDEDDC069E573E08C
S11311A0C6010E94A517892B09F0D5C0BAE08B1699
S11311B0910408F48EC03401E9E06E1A71088114B8
S11311C0910409F4C8C0A12CB12C7301EA0CFB1CD6
S11311D0EC0CFD1C49E050E06DE673E0C7010E9491
S11311E07817892B21F4C701892B41F472C0FFEFD2
S11311F0AF1ABF0AA814B90441F76BC0CE14DF04B8
S113120009F467C096012F5F3F4FE216F30609F019
S113121056C0D6018C9190E0C09725E2289FF0013A
S1131220299FF00D1124E00FF11F348D428D128E91
S11312308C9190E0C097289FF001299FF00D112414
S1131240E00FF11F148E8C9190E0C097289FF0015D
S1131250299FF00D1124E00FF11F15AE8C9190E041
S1131260C097289FF001299FF00D1124E00FF11F72
S113127014AE442309F46FC0332381F08C9190E0C1
S1131280C097289FB001299F700D1124665E7F4F7F
S1131290600F711FC8010E94EE155DC0F6018081C8
S11312A090E0C09725E2289FB001299F700D11247A
S11312B0665E7F4F600F711FC801AFDD4CC0B70180
S11312C0615071094AE050E088E596E10E942A01E4
S11312D042C0F1E18F169104F0F167E773E0C401B5
S11312E00F978C0D9D1D0E94A5170097A1F1DC019D
S11312F08E9190E0C09725E2289FF001299FF00D80
S11313001124E00FF11F128E148E15AE14AE2C9121
S11313102053238F20E02223F1F0D80114964D911D
S11313205D916D917C9117974A3051056105710566
S113133029F4F801148215821682178225E2289F67
S1131340B001299F700D1124665E7F4F600F711FDD
S1131350C8010E945F1545E050E06EEF72E0C601DF
S11313600E949717892B09F03CC181E0F801EF5FD7
S1131370FE4F808336965082D60115968C91805309
S113138031978083E82EF12C5801B5E28B9FA00C95
S1131390B11C112422E93AE0F50137A726A7838F6F
S11313A0BE016F5F7F4FC601079664DAD50194963C
S11313B06D937D938D939C93979798968D919D9122
S11313C00D90BC91A02D892B8A2B8B2B61F485E287
S11313D08E9DF0018F9DF00D1124E00FF11F14AECE
S11313E081E085AF09C085E28E9DF0018F9DF00DEF
S11313F01124E00FF11F15AE85E28E9DB0018F9D83
S1131400700D11245801A60EB71EF50144A055A075
S113141066A077A080A591A5A2A5B3A5840D951D6E
S1131420A61DB71D80A791A7A2A7B3A7F801ED5DDC
S1131430FE4F80819181A281B381840D951DA61DEB
S1131440B71D80839183A283B383898190E0019641
S1131450092E000CAA0BBB0B2C013D01E7E04E0E3C
S1131460511C611C711C615E7F4F600F711FC601AE
S1131470840D951DAE014F5F5F4F9DDA898190E029
S11314800196092E000CAA0BBB0B840D951DA61DFD
S1131490B71D8C0D9D1DBE016F5F7F4FEBD9D5012C
S11314A05E967C936E935D97F60180818A33D1F0CA
S11314B0A40160E070E04115510561057105B1F0CA
S11314C03196412C512C32012FEF421A520A620AF2
S11314D0720A81918A3369F04416550666067706C6
S11314E098F307C0412C512C320103C0412C512CDC
S11314F032018FEF481A580A680A780A85E28E9DED
S1131500F0018F9DF00D1124E00FF11F44A155A1AE
S113151066A177A1C401A0E0B0E084199509A609E9
S1131520B709481759076A077B0718F44201840E64
S1131530951E5401A418B50885E28E9D10018F9D57
S1131540300C1124200E311EA501B601640D751D49
S1131550D1019E968D919C919F970E948517F101D0
S113156044A155A166A177A1C401A0E0B0E084190B
S11315709509A609B709481759076A077B0738F47C
S1131580F10186A597A5FC01E40FF51F1082F8016F
S1131590EC5FFE4FB182A0823297B182A08285E2D5
S11315A08E9DF0018F9DF00D1124E00FF11F84A199
S11315B095A1A6A1B7A1481659066A067B0688F02C
S11315C0F801EF5FFE4F108285E28E9DF0018F9D42
S11315D0F00D1124E00FF11F51AA40AA81E082AB63
S11315E083ABF80184819581A681B781FC01319791
S11315F0E132F10508F0B6C28827EE58FF4F8F4F4D
S11316000C94401647E050E067E873E0C6010E947E
S11316109717892B91F4F801A085B18587E0E0E85C
S1131620F3E001900D928A95E1F7F801EF5DFE4F2A
S1131630D60117968C91805380836DED72E0C601BC
S11316400E948E17892B09F0DBC2F80114821582DF
S11316501682178260E873E0C6010E948E17892BF8
S113166009F080C2D80114961D921D921D921C92FD
S11316701797C8010E94FA1475C24BE050E06FE856
S113168073E0C6010E949717892B09F066C06BE9C5
S113169073E0C6010E94A517892B09F45EC0F60108
S11316A08081882309F459C0823209F4B1C2319689
S11316B0DF018191882309F450C08232C9F7A9C29D
S11316C061E0690FAF01D801A90FB11DA85FBE4F3A
S11316D08C9381912F5F3F4F882381F0962FAF0128
S11316E041505109823261F760816C3249F7D90166
S11316F06C91623229F7692F01C060E0F801E60FAE
S1131700F11DE85FFE4F10827A01B3E0EB0EF11C8D
S1131710AE014E5F5F4FB801685E7E4FC7019DDA30
S11317202A8130E02E5F3F4FE20EF31EBE016E5F52
S11317307F4FC7019FD8F801E25EFE4F60838A8124
S113174090E00196BE016E5F7F4F8E0D9F1D92D873
S1131750F801E15EFE4F718360836DED72E0C601B6
S11317600E948E17892B09F01CC2F801148215827D
S113177016821782F7C146E050E06DE376E0C601B9
S11317800E949717892B09F0CDC0D6018C9188232C
S113179059F08A3359F0119602C08A3341F0FD01A1
S11317A08D918111FACF03C0F60101C0F601309783
S11317B009F4B8C0D801A750BF4F0D90BC91A02D1B
S11317C01C928181823229F05F01BFEFAB1ABB0A00
S11317D004C05F0122E0A20EB11CD5018C918823C4
S11317E049F11196A5014E5F5F4F90E0B801675033
S11317F07F4F11C0FF24F394F90E5D01FB0120819A
S11318003181290F311DF90180838D914F5F5F4F25
S1131810882389F09F2D5D01F1E0AF1AB10882326F
S113182049F72C912C3231F7FA012081223211F739
S1131830F92E01C0F12CD801A750BF4F0D90BC91D7
S1131840A02DAF0DB11D1C9295012D5F3F4FD50109
S113185013968C918823F9F0F501349690E0B80141
S113186065507F4F0EC041E0490F9F01DB01ED90B1
S1131870FC90D701A90FB11D8C938191882361F04D
S1131880942F9F0121503109823269F740814C32F3
S113189051F7492F01C040E0F801E550FF4F019096
S11318A0F081E02DE40FF11D10827901B2E0EB0E1E
S11318B0F11CBE016E5F7F4FC7010E943A04F8011C
S11318C0E250FF4F60834A8150E04F5F5F4F570102
S11318D0A40EB51EBE016E5F7F4FC5010E943A047F
S11318E0F801E350FF4F6083EA80F12CEFEFEE1A2A
S11318F0FE0AEA0CFB1CBE016E5F7F4FC7010E940B
S11319003A04F801E150FF4F60838A8190E0019628
S1131910BE016E5F7F4F8E0D9F1D0E943A04F80139
S1131920F39560836DED72E0C6010E948E17892BDA
S113193009F037C1D80114961D921D921D921C9274
S1131940179710C147E050E063EA73E0C6010E94B4
S11319509717892B19F4B601C8018AD86DED72E086
S1131960C6010E948E17892B09F01BC1F80114824D
S1131970158216821782C8010E942015F3C046E022
S113198050E06BEA73E0C6010E949717892B19F4A3
S1131990B601C8016DD86DED72E0C6010E948E17C4
S11319A0892B09F0FEC0D80114961D921D921D9238
S11319B01C921797D7C06DED72E0C6010E948E1776
S11319C0892B09F0EEC0F801148215821682178261
S11319D0E950FF4F808131968083C4C06DED72E081
S11319E0C6010E948E17892B09F0DBC0D80114961A
S11319F01D921D921D921C921797B4C06DED72E05A
S1131A00C6010E948E17892B09F0CBC08DE190E0AE
S1131A10A0E0B0E0F80184839583A683B783E35DF7
S1131A20FE4F818181608183F801A085B18588E0C2
S1131A30E2EBF3E001900D928A95E1F793C06DED2E
S1131A4072E0C6010E948E17892B09F005C1D801E6
S1131A5014961D921D921D921C92179762EE72E0CD
S1131A60C6010E948E17892B09F0E3C0F801148285
S1131A70158216821782EE5DFE4F8081F5E28F0299
S1131A80C0011124F801E80FF91F128E148E15AE4F
S1131A9014AE4A96B801680F791FC8010E945F15F9
S1131AA061C06DED72E0C6010E948E17892B09F0AA
S1131AB078C0D80114961D921D921D921C921797FE
S1131AC051C06AEE72E0C6010E948E17892B09F09C
S1131AD049C0F8011482158216821782E35DFE4F15
S1131AE08181826081833EC04AE050E06AEB73E00A
S1131AF0C6010E949717892B41F440E050E0B801D9
S1131B0061527F4FC6010C96A8D86DED72E0C601F4
S1131B100E948E17892B09F044C0D80114961D9297
S1131B201D921D921C9217971DC049E050E065EC70
S1131B3073E0C6010E949717892B41F440E050E0FE
S1131B40B8016F507F4FC6010B9687D86DED72E0D8
S1131B50C6010E948E17892B21F5F8011482158283
S1131B60168217826DED72E0C6010E948E17892BD2
S1131B70C1F4F801E35DFE4F818182608183F80145
S1131B8084819581A681B78188309105A105B1052D
S1131B9041F04D97A105B10521F0148215821682FA
S1131BA0178262EE72E0C6010E948E17892B39F00B
S1131BB062EF72E0C6010E948E17892B59F4F80176
S1131BC0E35DFE4F81818D7F8183F801148215824C
S1131BD01682178268ED72E0C6010E948E17892B67
S1131BE009F043C0D80114961D921D921D921C92B7
S1131BF01797F801E35DFE4F81818E7F818335C0A5
S1131C0060E873E0C6010E948E17892B51F62ACD35
S1131C10D601AD014F5F5F4F11968C9111978823C8
S1131C2009F46BCDFD0132969D012D5F3F4F90E08D
S1131C3056CD6DED72E0C6010E948E17892B09F412
S1131C4098CFB6CF3401BAE06B1A7108EBE08E1668
S1131C50910408F05BCAA2CA62EE72E0C6010E9457
S1131C608E17892B09F0A4CF01CF0F900F90DF912D
S1131C70CF911F910F91FF90EF90DF90CF90BF9085
S1131C80AF909F908F907F906F905F904F903F9018
S1131C902F9008952F923F924F925F927F928F924E
S1131CA09F92AF92BF92CF92DF92EF92FF920F93E7
S1131CB01F93CF93DF93CDB7DEB7C358D1090FB6C7
S1131CC0F894DEBF0FBECDBF8C01FC0186899789D5
S1131CD0A08DB18D892B8A2B8B2B41F480E395E762
S1131CE0A0E0B0E0868B978BA08FB18FF80186853A
S1131CF09785A089B1894285538564857585841B40
S1131D00950BA60BB70B46895789608D718D4817C3
S1131D1059076A077B07E0F48481148215821682CE
S1131D2017828A3009F038C2EE5DFE4F8081B5E239
S1131D308B02C0011124F801E80FF91F128E148ED2
S1131D4015AE14AE4A96B801680F791FC80168D75A
S1131D50F801E25DFE4F808180FF85C042E050E0E3
S1131D606FEC73E086E496E10E940903992364F022
S1131D70892B09F542E050E0BE016E577F4F86E49F
S1131D8096E10E940C0217C040E050E06FEC73E053
S1131D9088E596E10E940903009751F442E050E07F
S1131DA0BE016E577F4F88E596E10E940C0203C086
S1131DB099230CF458C0F801E55DFE4FC080D18032
S1131DC0329681818E7F81838DE190E0A0E0B0E046
S1131DD0F80184839583A683B783D60112968C91E8
S1131DE01297882351F054964D915C91559724EBAA
S1131DF035E0B601C80171D608C0F6014489558999
S1131E0024EB35E0B601C8010AD8E82EF92EF5EB2B
S1131E10EF16F5E0FF0630F00F2EF4EBEF2EF5E0B1
S1131E20FF2EF02DE114F104B1F0B701D601549660
S1131E308D919C91559795D4F801E95DFE4F808171
S1131E409181A281B3818E0D9F1DA11DB11D80833F
S1131E509183A283B38362E070E082ED93E081D446
S1131E6081E0F601838BF80184819581A681B78195
S1131E704197A105B10501F5EF5FFE4F8081811106
S1131E807AC044E050E06DED72E086E496E10E9491
S1131E90090399238CF086E496E10E94B102D801EB
S1131EA014961D921D921D921C921797F801E35DE2
S1131EB0FE4F818182608183F801EF5FFE4F808154
S1131EC08823E9F051C09C0141E0BE016F5F7F4F60
S1131ED0C80107D8F70180818823A9F045C0F8011B
S1131EE0EF5FFE4F8081811146C0F80184819581A6
S1131EF0A681B781892B8A2B8B2B39F154C17801A8
S1131F00F1E0EF0EFF1E40E850E0BE016F5F7F4F2F
S1131F1086E496E10E94CF030097A9F6E0CF9C01E6
S1131F2040E0BE016F5F7F4FC8010E947107D70177
S1131F308C91811120C0F80184819581A681B7819B
S1131F40892B8A2B8B2B29F02EC17801F1E0EF0E1F
S1131F50FF1E40E850E0BE016F5F7F4F88E596E1C9
S1131F600E94CF030097D9F6F801EF5FFE4F8081FE
S1131F70882309F418C1F801E95FFE4F80818111BB
S1131F8007C00F2EF8E5AF2EF6E1BF2EF02D06C0E8
S1131F900F2EF6E4AF2EF6E1BF2EF02D78012EEFD2
S1131FA0E21AF20A68013AEFC31A3EEFD30A0F2E7F
S1131FB0F5E27F2EF02D48018CEF881A8EEF980AF7
S1131FC070C041E050E0BE016F577F4FC5010E94D1
S1131FD00C02CF57DF4F2881C158D040D6018C91D5
S1131FE0F801789EE00DF11D112406A4F7A5E02D5B
S1131FF0D7018D919C911197E80FF91F20838D9142
S11320009C91119701968D939C93F40120813181C9
S11320102F5F3F4F31832083843BF5E09F0708F413
S113202040C0D601EC91AC0160E070E02E2F30E0AE
S1132030D8017E9EA00DB11D1124FD0124A035A060
S113204046A057A0421553056405750551F1FD01DD
S113205091AB80AB12AA848D882379F0729EB00173
S1132060739E700D1124FD0146A557A5665E7F4F32
S1132070600F711FC8016DD511C0729EB001739EAF
S1132080700D1124F801E60FF71F46A557A5665EEB
S11320907F4F600F711FC8010E940E07F701118264
S11320A01082D7018D919C91A0E0B0E0F6012081CF
S11320B0F801729EE00DF11D112444A155A166A101
S11320C077A184179507A607B70730F4C5010E94C6
S11320D0CE01892B09F075CFF801EA5FFE4F20810C
S11320E0329780819181A0E0B0E0E22EF12CF801DA
S11320F035E2239FE00DF11D112444A155A166A1F1
S113210077A184179507A607B70708F44CC0F80110
S1132110EF5FFE4F108285E28E9DF0018F9DF00DE2
S11321201124E00FF11FD801AE5FBE4F8D919C9139
S113213091AB80AB81E082AB85AD882301F185E270
S11321408E9DF0018F9DF00D1124E00FF11F65EDC0
S113215073E086A597A5F9D6009789F060E070E052
S113216040960E943A0425E22E9DF0012F9DF00D29
S11321701124E00FF11F64AB75AB86AB97ABF8018C
S1132180EA5FFE4F8081F80195E2899FE00DF11D21
S1132190112481E083AB07C0F801E25DFE4F80812A
S11321A080FF8ACEDBCDC8010E941307F801EF5CE3
S11321B0FE4F108280E0CD57DF4F0FB6F894DEBF9C
S11321C00FBECDBFDF91CF911F910F91FF90EF9084
S11321D0DF90CF90BF90AF909F908F907F905F9053
S11321E04F903F902F900895CF92DF92EF92FF92FD
S11321F01F93CF93DF93EC01162F6A0179018C8131
S11322009D81AE81BF81892B8A2B8B2B39F0CE0126
S113221041DDCF5CDE4F87E0888329C0613121F442
S113222086E496E10E94B102C114D10451F0F60192
S113223001900020E9F73197BF016C197D09C601AF
S113224090D2812F90E0A0E0B0E08C839D83AE8398
S1132250BF83F986E8868E859F85A889B9898A8790
S11322609B87AC87BD87CF5CDE4F188280E0DF910F
S1132270CF911F91FF90EF90DF90CF90089522E0CF
S113228034E04BE054E061E0AFCF08952FE833E051
S113229046E154E063E1A8CF0895CF93DF93EC01C6
S11322A026E234E042E354E066E19EDFFE01EF5CA7
S11322B0FE4F8081811106C0C35DDE4F98819C7FF3
S11322C09B7F9883DF91CF9108950F931F93CF93B2
S11322D0DF93EC018C01025D1E4FF801808180FFC9
S11322E011C042E050E06FEC73E086E496E10E9496
S11322F0090399233CF0FE01E35DFE4F81818E7F4B
S113230081830AC0CE01C6DC8C819D81AE81BF81F0
S1132310892B8A2B8B2B09F7CF5CDE4F188280E048
S1132320DF91CF911F910F910895EF92FF920F9338
S11323301F93CF93DF93CDB7DEB763970FB6F894AF
S1132340DEBF0FBECDBF8C017F936F9386E994E00F
S11323509F938F93CE0101967C019F938F9379D69F
S11323602AEA34E0A70166E0C8013EDFF82E0F90A8
S11323700F900F900F900F900F90882329F0F80181
S1132380EF5CFE4FF08012C0C8019FDFF801E25DF0
S1132390FE4F808181FD06C0339681E08083FF2457
S11323A0F39404C0F801EF5CFE4F10828F2D639606
S11323B00FB6F894DEBF0FBECDBFDF91CF911F9152
S11323C00F91FF90EF900895CF93DF93EC012DE3ED
S11323D036E047ED54E06CE007DF882321F0CF5C62
S11323E0DE4F888102C0CE0170DFDF91CF91089566
S11323F0FF920F931F93CF93DF931F92CDB7DEB756
S11324008C01F62E6983FC0184819581A681B781B4
S1132410892B8A2B8B2B41F0C8013CDCF801EF5C43
S1132420FE4F87E0808332C080E3860F89836EE0AD
S113243070E088E295E095D161E070E0CE0101960C
S113244090D162E070E082E699E08BD127E335E039
S113245040E050E065E0C801C7DE882329F0F801B8
S1132460EF5CFE4F808112C0F801E950FF4FF0820B
S1132470C8012BDFF801E850FF4F80818F1521F050
S1132480F99681E0808302C0C8019EDF0F90DF913E
S1132490CF911F910F91FF9008950F931F93CF93A6
S11324A0DF93EC018B018C819D81AE81BF81892BEF
S11324B08A2B8B2B39F0CE01EDDBCF5CDE4F87E02E
S11324C0888333C0FB018181805D81836DE070E08E
S11324D081E495E046D161E070E0C801019641D104
S11324E067E070E08FE495E03CD1F801818180538E
S11324F0818327E535E040E050E068E0CE0174DEFA
S1132500882321F0CF5CDE4F88810FC081E0F80181
S1132510828BFE01E35DFE4F81818160818332976E
S113252011830083CF5CDE4F8881DF91CF911F91AF
S11325300F910895CF92DF92EF92FF920F931F9322
S1132540CF93DF93EC016B017A010C811D812E8105
S11325503F81012B022B032B31F09CDBCF5CDE4F40
S113256087E088831CC06EE070E087EA95E0F9D0CC
S1132570C6010E94930463E070E08DE796E0F1D019
S1132580C7010E94930463E070E086EB95E0E9D014
S113259027E833E040E050E063E0CE0125DEDF9140
S11325A0CF911F910F91FF90EF90DF90CF900895FE
S11325B06F927F928F929F92AF92BF92CF92DF924F
S11325C0EF92FF920F931F93CF93DF93CDB7DEB7B4
S11325D027970FB6F894DEBF0FBECDBF7C015B0119
S11325E06A018FEF8983F70184819581A681B78180
S11325F0892B8A2B8B2B41F0C7014CDBF701EF5C55
S1132600FE4F87E0808398C0F701E25DFE4F808132
S113261082FF05C0F701828D811107C089C0F701CF
S1132620EF5CFE4F86E0808387C0F701FF96772436
S113263073948081811106C0672C7982FFEF7F1229
S113264007C070C07394B59685E07812F2CF6AC063
S1132650A90160E070E04E01E2E08E0E911CC4011D
S11326600E94C6048981805D89836CE070E082E603
S113267096E077D061E070E0CE01019672D068E018
S113268070E08FE696E06DD0F60101900020E9F746
S11326903197BF016C197D09C60163D062E070E017
S11326A088E396E05ED0F40101900020E9F73197C9
S11326B0BF0168197909C40154D062E070E082E670
S11326C099E04FD020E030E040E050E06AE0C701FC
S11326D08BDD882329F0F701EF5CFE4F80812CC04D
S11326E099819053F70125E2729EE00DF11D1124AA
S11326F021E0228F248F13A210A611A612A613A6DE
S1132700938F22E93AE037A726A7D701AE5DBE4FE3
S11327106C92B1AEA0AE13AF02AFF701EF5CFE4F07
S113272010820AC0F701EF5CFE4F81E0808304C091
S11327301982712C612C8CCF27960FB6F894DEBFCA
S11327400FBECDBFDF91CF911F910F91FF90EF90FE
S1132750DF90CF90BF90AF909F908F907F906F90BD
S11327600895CF93DF939C01E8ECF0E0908195FF0E
S1132770FDCFD901620F731FCEECD0E0E8ECF0E09E
S113278005C09D919883908195FFFDCFA617B7074B
S1132790C1F780E0DF91CF9108951F920F920FB699
S11327A00F9211240BB60F922F933F934F935F9385
S11327B06F937F938F939F93AF93BF93EF93FF9305
S11327C0CF93DF931F92CDB7DEB78091CE0089837C
S11327D061E070E0CE0101960E9406070F90DF9140
S11327E0CF91FF91EF91BF91AF919F918F917F9185
S11327F06F915F914F913F912F910F900BBE0F906E
S11328000FBE0F901F9018958093C600E0ECF0E087
S1132810808185FFFDCF80E090E0089584B58260DB
S113282084BD85B5836085BD89EF87BDEEE6F0E0A4
S113283080818260808308951F920F920FB60F9259
S113284011240BB60F922F933F934F935F936F9383
S11328507F938F939F93AF93BF93EF93FF9341E045
S113286050E060E070E08AE696E10E94F406FF9191
S1132870EF91BF91AF919F918F917F916F915F91F4
S11328804F913F912F910F900BBE0F900FBE0F9061
S11328901F9018951F920F920FB60F9211240BB62A
S11328A00F928F93EF93FF93E6ECF0E080818083A7
S11328B0E0ECF0E0808185FFFDCFFF91EF918F91F7
S11328C00F900BBE0F900FBE0F901F9018959B0199
S11328D0AC0160E079E08DE390E0B0D1DA01C901A8
S11328E00197A109B109AC01BD017695679557958A
S11328F04795852F99278093C5004093C400E0EC49
S1132900F0E0808182608083E2ECF0E08081866088
S11329108083E1ECF0E0808188618083808180683D
S11329208083089586E092E09093A3178093A21782
S113293060E072EC81E090E0CADF70DF789480E9B7
S113294096E057D303C084EC96E053D340E052ECB6
S113295061E070E08AE696E10E94CA068111F3CF35
S113296063E08AE696E144DD8111FACF60E570E028
S11329708AE696E1DADC8111F9CF8FEE96E039D35D
S11329808AE696E17CDC8AE696E19FDC49E057E042
S113299067E177E08AE696E1CDDD8AE696E195DCAB
S11329A08AE696E173DC26982E9A8AE696E172D935
S11329B01E99FBCF1E9BFECF00E010E020E530E027
S11329C041E257E067E377E08AE696E1F1DD8111C1
S11329D0F3CFEBCF84E497E00CC3089585E597E04B
S11329E008C308958FE697E004C3089586E897E046
S11329F000C30895FC01EF5DFE4F80811F928F9309
S1132A008AE997E09F938F93E1D20F900F900F90F4
S1132A100F900895CF93DF93EC018DEC97E0E9D20A
S1132A20CE013BDC1F928F9385EE97E09F938F93AB
S1132A30CDD20F900F900F900F90DF91CF9108950A
S1132A40FC01EA52FF4F20811F922F93319720817E
S1132A501F922F93319720811F922F93319780815A
S1132A601F928F938EEF97E09F938F93AFD28DB782
S1132A709EB70A960FB6F8949EBF0FBE8DBF0895F9
S1132A8086E298E0B6C208950F931F93CF93DF9325
S1132A908C01EB018F8D8F938E8D8F9321E638E01F
S1132AA03F932F9393D2BE01C801F7DC0F900F9090
S1132AB00F900F90DF91CF911F910F910895FB011B
S1132AC081811F928F9385E998E09F938F937ED2A3
S1132AD00F900F900F900F900895CF93DF9381E1A3
S1132AE0E2EDF8E0DA0101900D928A95E1F7DA015E
S1132AF00D900020E9F711978EE1E3EEF8E00190E4
S1132B000D928A95E1F7DA010D900020E9F711970B
S1132B1084E1E1E0F9E001900D928A95E1F7FA0190
S1132B2001900020E9F731978DE09AE0A0E08083DE
S1132B309183A283FA0101900020E9F7CF01019764
S1132B40841B950BDF91CF91089585E199E051C2E3
S1132B500895CF93DF93EB018D8D8F938C8D8F939D
S1132B608B8D8F938A8D8F9389898F9388898F9387
S1132B708F858F938E858F938D858F938C858F937F
S1132B808B858F938A858F938F8D8F938E8D8F9363
S1132B9085E699E09F938F9319D28DB79EB740969F
S1132BA00FB6F8949EBF0FBE8DBF8BA1882399F0FA
S1132BB08D8D8F938C8D8F938B8D8F938A8D8F9327
S1132BC08EEB99E09F938F9301D20F900F900F900B
S1132BD00F900F900F90DF91CF910895FB01858D99
S1132BE08F93848D8F93838D8F93828D8F9381891F
S1132BF08F9380898F9387858F9386858F93818127
S1132C001F928F9389E09AE09F938F93DFD18DB7C2
S1132C109EB70C960FB6F8949EBF0FBE8DBF089555
S1132C20FB0181811F928F938BE69AE09F938F9390
S1132C30CDD10F900F900F900F900895A1E21A2E0E
S1132C40AA1BBB1BFD010DC0AA1FBB1FEE1FFF1F4C
S1132C50A217B307E407F50720F0A21BB30BE40B9C
S1132C60F50B661F771F881F991F1A9469F76095E3
S1132C707095809590959B01AC01BD01CF0108959D
S1132C80EE0FFF1F881F8BBF0790F691E02D19945C
S1132C90CF93DF938230910510F482E090E0E091CD
S1132CA09E17F0919F1720E030E0C0E0D0E030970D
S1132CB011F14081518148175907C0F0481759074D
S1132CC061F482819381209719F09B838A832BC0BE
S1132CD090939F1780939E1726C02115310519F0F4
S1132CE04217530718F49A01BE01DF01EF01028075
S1132CF0F381E02DDCCF2115310509F1281B390BB7
S1132D002430310590F412968D919C91139761159E
S1132D10710521F0FB019383828304C090939F1774
S1132D2080939E17FD01329644C0FD01E20FF31F0C
S1132D3081939193225031092D933C933AC0209171
S1132D409C1730919D17232B41F42091020230915E
S1132D50030230939D1720939C1720910002309119
S1132D6001022115310541F42DB73EB7409104020B
S1132D7050910502241B350BE0919C17F0919D178F
S1132D80E217F307A0F42E1B3F0B2817390778F03E
S1132D90AC014E5F5F4F2417350748F04E0F5F1F9D
S1132DA050939D1740939C178193919302C0E0E048
S1132DB0F0E0CF01DF91CF9108950F931F93CF934C
S1132DC0DF93009709F48CC0FC01329713821282BE
S1132DD000919E1710919F170115110581F4208110
S1132DE03181820F931F20919C1730919D172817D2
S1132DF0390779F5F0939D17E0939C1771C0D801BA
S1132E0040E050E0AE17BF0750F412962D913C916C
S1132E101397AD012115310509F1D901F3CF9D01B6
S1132E20DA013383228360817181860F971F8217B1
S1132E30930769F4EC0128813981260F371F2E5F2F
S1132E403F4F318320838A819B8193838283452BE7
S1132E5029F4F0939F17E0939E1742C01396FC93B6
S1132E60EE931297ED01499159919E01240F351F5C
S1132E70E217F30771F480819181840F951F029604
S1132E8011969C938E938281938113969C938E9337
S1132E901297E0E0F0E0D80112968D919C9113977F
S1132EA0009719F0F8018C01F6CF8D919C9198014F
S1132EB02E5F3F4F820F931F20919C1730919D17D7
S1132EC02817390769F4309729F410929F17109244
S1132ED09E1702C01382128210939D1700939C17B1
S1132EE0DF91CF911F910F91089540E95AE047C0B7
S1132EF0FB01DC0104C08D910190801921F4415043
S1132F005040C8F7881B990B0895FB01DC0102C0EF
S1132F1001900D9241505040D8F70895FB01DC0117
S1132F208D91019080190110D9F3990B0895FB013B
S1132F30DC014150504030F08D910190801919F41A
S1132F400020B9F7881B990B0895FB015191552373
S1132F50A9F0BF01DC014D9145174111E1F759F486
S1132F60CD010190002049F04D9140154111C9F364
S1132F70FB014111EFCF81E090E001970895FA0140
S1132F80A191B081009719F41097E1F0CD01DC0113
S1132F90CD010D90002011F4C00113C0FB0121915B
S1132FA0222319F02015D9F7F3CFFB012191201525
S1132FB019F41E92119606C02223C1F70D90002029
S1132FC0A1F7D001FA01A193B0830895CF93DF93C1
S1132FD0CDB7DEB7AE014A5F5F4FFA0161917191DF
S1132FE0AF018091A2179091A31762D0DF91CF9186
S1132FF008950F931F93CF93DF93E091A217F0915D
S1133000A317238121FF1BC08C01D0E0C0E0F8018D
S113301081918F016091A2177091A317DB0118961B
S1133020ED91FC911997882331F01995892B79F347
S1133030DFEFCFEFECCF8AE01995892B19F08FEFF2
S11330409FEF02C08D2F9C2FDF91CF911F910F9185
S113305008950F931F93CF93DF93CDB7DEB72E97C9
S11330600FB6F894DEBF0FBECDBF0E891F8986E070
S11330708C831A8309838FEF9FE79E838D83AE0130
S1133080465E5F4F688D798DCE01019611D02F81F8
S11330903885F801E20FF31F10822E960FB6F894CC
S11330A0DEBF0FBECDBFDF91CF911F910F91089569
S11330B02F923F924F925F926F927F928F929F9244
S11330C0AF92BF92CF92DF92EF92FF920F931F9332
S11330D0CF93DF93CDB7DEB72C970FB6F894DEBF4E
S11330E00FBECDBF7C016B018A01FC0117821682E1
S11330F0838181FFB0C1CE0101964C01F701938118
S1133100F60193FD859193FF81916F01882309F462
S11331109EC1853239F493FD859193FF81916F01AE
S1133120853221F4B70190E0C7D1E8CF512C312C7E
S113313020E02032A0F48B3269F030F4803259F070
S1133140833269F420612CC08D3239F0803339F434
S1133150216026C02260246023C0286021C027FD8E
S113316027C030ED380F3A3078F426FF06C0FAE075
S11331705F9E300D1124532E13C08AE0389E300D0B
S11331801124332E20620CC08E3221F426FD5FC13F
S1133190206406C08C3611F4206802C0883641F4DD
S11331A0F60193FD859193FF81916F018111C1CF48
S11331B0982F9F7D9554933028F40C5F1F4FFFE3A5
S11331C0F9830DC0833631F0833771F0833509F00C
S11331D057C021C0F801808189830E5F1F4F4424AA
S11331E04394512C540114C03801F2E06F0E711C49
S11331F0F801A080B18026FF03C0652D70E002C0F5
S11332006FEF7FEFC5012C874CD12C0183012C85F6
S11332102F77222E16C03801F2E06F0E711CF801D0
S1133220A080B18026FF03C0652D70E002C06FEF5F
S11332307FEFC5012C872AD12C012C852068222EF2
S1133240830123FC19C0832D90E048165906A0F48D
S1133250B70180E290E030D13A94F5CFF50127FC34
S1133260859127FE81915F01B70190E025D131104E
S11332703A94F1E04F1A51084114510479F7DEC031
S1133280843611F0893631F5F80127FF07C06081D3
S11332907181828193810C5F1F4F08C060817181AD
S11332A0072E000C880B990B0E5F1F4F2F76722E82
S11332B097FF09C090958095709561957F4F8F4FCA
S11332C09F4F2068722E2AE030E0A4012DD1A82E51
S11332D0A81843C0853729F42F7EB22E2AE030E0A7
S11332E025C0F22FF97FBF2E8F36C1F018F4883530
S11332F079F0ADC0803719F0883721F0A8C02F2F9E
S11333002061B22EB4FE0DC08B2D8460B82E09C08E
S113331024FF0AC09F2F9660B92E06C028E030E033
S113332005C020E130E002C020E132E0F801B7FE40
S113333007C060817181828193810C5F1F4F06C039
S11333406081718180E090E00E5F1F4FA401ECD09A
S1133350A82EA818FB2DFF777F2E76FE0BC0372DE5
S11333603E7FA51450F474FE0AC072FC08C0372DC9
S11333703E7E05C0BA2C372D03C0BA2C01C0B52C33
S113338034FF0DC0FE01EA0DF11D8081803311F47C
S1133390397E09C032FF06C0B394B39404C0832FAE
S11333A0867809F0B39433FD12C030FF06C05A2C5E
S11333B0B31418F4530C5B18B32CB31460F4B701B2
S11333C080E290E03C8778D0B3943C85F6CFB31488
S11333D010F43B1801C0312C34FF11C0B70180E355
S11333E090E03C8769D03C8532FF16C031FD03C0B4
S11333F088E790E002C088E590E0B7010CC0832F15
S1133400867851F031FF02C08BE201C080E237FDC3
S11334108DE2B70190E050D0A51430F4B70180E3F9
S113342090E04AD05A94F8CFAA94F401EA0DF11D21
S11334308081B70190E040D0A110F6CF332009F489
S11334405DCEB70180E290E037D03A94F7CFF70130
S11334508681978102C08FEF9FEF2C960FB6F89468
S1133460DEBF0FBECDBFDF91CF911F910F91FF90B3
S1133470EF90DF90CF90BF90AF909F908F907F9010
S11334806F905F904F903F902F900895FC010590AE
S1133490615070400110D8F7809590958E0F9F1F52
S11334A00895FC016150704001900110D8F7809597
S11334B090958E0F9F1F08950F931F93CF93DF93C3
S11334C0FB01238121FD03C08FEF9FEF28C022FF62
S11334D016C046815781248135814217530744F42D
S11334E0A081B1819D012F5F3F4F318320838C9355
S11334F0268137812F5F3F4F3783268310C0EB012E
S1133500092F182F0084F185E02D1995892BE1F6F8
S11335108E819F8101969F838E83812F902FDF91CF
S1133520CF911F910F910895FA01AA27283051F1E4
S1133530203181F1E8946F936E7F6E5F7F4F8F4FE0
S11335409F4FAF4FB1E03ED0B4E03CD0670F781F3F
S1133550891F9A1FA11D680F791F8A1F911DA11D24
S11335606A0F711D811D911DA11D20D009F468945D
S11335703F912AE0269F11243019305D3193DEF605
S1133580CF010895462F4770405D4193B3E00FD0BB
S1133590C9F7F6CF462F4F70405D4A3318F0495DA6
S11335A031FD4052419302D0A9F7EACFB4E0A69589
S11335B09795879577956795BA95C9F700976105AB
S11335C0710508959B01AC010A2E06945795479501
S11335D037952795BA95C9F7620F731F841F951FF6
S10B35E0A01D0895F894FFCF2B
S11335E80000A617200000000002000000000414D8
S11335F800000000256C64002E002B4349505354EE
S1133608415F4355523A6970002B43495053544122
S11336185F4355523A6E65746D61736B002B434971
S1133628505354415F4355523A67617465776179E1
S1133638002B4349505354413A6970002B43495075
S11336485354413A6E65746D61736B002B43495052
S11336585354413A67617465776179002B43495043
S113366841505F4355523A6970002B4349504150C9
S11336785F4355523A6E65746D61736B002B434911
S11336885041505F4355523A6761746577617900D8
S11336982B43495041503A6970002B4349504150DB
S11336A83A6E65746D61736B002B43495041503A0F
S11336B8676174657761790053454E44204F4B0D1B
S11336C80A004552524F520D0A0072656164790D21
S11336D80A006275737920702E2E2E0D0A002B496C
S11336E850442C007764742072657365740D0A0065
S11336F85749464920434F4E4E45435445440D0AC5
S1133708005749464920444953434F4E4E45435474
S11337180D0A005749464920474F542049500D0A7D
S113372800444843502054494D454F5554002C43B8
S11337384F4E4E4543540D0A00414C52454144599D
S113374820434F4E4E45435445440D0A002C434CE8
S11337584F5345440D0A002C434F4E4E45435420C5
S11337684641494C0D0A002B43574A41503A002B15
S113377843574A41505F4355523A002B43574A41F5
S1133788505F002B434950535441002B4349504147
S1133798500053454E44204F4B002B43495053543B
S11337A8414D4143002B43495041504D4143003E54
S11337B820005C3000436F6E74656E742D4C656E2A
S11337C86774683A200041542B434950434C4F5383
S11337D8450041542B434950434C4F53453D350D07
S11337E80A0041542B43575141500041542B43572D
S11337F85141500D0A0041542B43574A41505F43ED
S113380855523F0D0A002B4349505354415F4355C9
S1133818520041542B4349505354415F4355523F3E
S11338280D0A002B43495041505F435552004154FF
S11338382B43495041505F4355523F0D0A004154B0
S11338482B4349505354414D41433F0D0A004154C1
S11338582B43495041504D41433F0D0A0041542BDD
S1133868524553544F52450D0A0041542B52465069
S11338784F5745523D0041542B43495053455256E6
S113388845523D312C25640D0A0041542B434950BF
S11338985345525645520041542B434950534552BF
S11338A85645523D300D0A0041542B434950535458
S11338B84F3D25640D0A0041542B43575341503F53
S11338C80D0A002C382C312C302C300D0A004154B0
S11338D82B554152540041542B554152545F435582
S11338E8520041542B554152545F444546004154BB
S11338F82B534C4545503D002B534C4545500041F6
S1133908542B47534C503D0041542B43574D4F447F
S1133918455F4355523D0041542B43574D4F444551
S11339280041542B43495053454E4445583D002CBF
S1133938323034380D0A0041542B43495053454E14
S11339484445580041542B434950434C4F53453D3B
S11339580041542B4349504D55583D25640D0A00E8
S113396841542B4349504D55580041542B43495019
S113397844494E464F3D25640D0A0041542B4349A2
S11339885044494E464F0041542B43574A41505FD7
S11339984355523D2200220D0A0041542B43574AF5
S11339A841505F4445463D2200253032783A25305F
S11339B832783A253032783A253032783A2530321E
S11339C8783A253032780041542B434950535441B6
S11339D84D41435F4355520041542B43495053547E
S11339E8414D41435F4445460041542B43495041AE
S11339F8504D41435F4355520041542B4349504174
S1133A08504D41435F4445460041542B435753416D
S1133A18505F4355523D2200222C0041542B4357FA
S1133A285341500041542B43575341505F4445463A
S1133A383D220041542B43574155544F434F4E4E5A
S1133A483D0041542B43495053544152543D002C9A
S1133A5822544350222C22002C2253534C222C2231
S1133A680041542B43495053534C53495A453D0044
S1133A7850726F6772616D2073746172746564212A
S1133A882041544D4547412032353630206F6E2051
S1133A9841726475696E6F204D45474120626F61BC
S1133AA872640D004572726F7220747279696E6760
S1133AB820746F20696E697469616C697A65204540
S1133AC8535038323636206D6F64756C650D004975
S1133AD86E697469616C697A6174696F6E2066696C
S1133AE86E6973686564210D00594F555220504121
S1133AF85353574F524400594F5552205353494436
S1133B080073746D333266342D646973636F76653C
S1133B1872792E636F6D0073746D33326634646921
S1133B2873636F0044657669636520697320726501
S1133B386164790D005761746368646F6720726506
S1133B48736574206465746563746564210D005736
S1133B5869666920697320646973636F6E6E65634F
S1133B68746564210D005769666920697320636F61
S1133B786E6E6563746564210D00436F6E6E6563D4
S1133B8874696F6E20746F2077696669206E657436
S1133B98776F726B20686173206661696C65642E47
S1133BA820526561736F6E2025640D0A005769669B
S1133BB86920676F7420616E2049502061646472C3
S1133BC86573730D004772616262696E67204950BC
S1133BD8207374617475733A2025640D0A0057655F
S1133BE820686176652076616C696420495020619B
S1133BF86464726573733A2025642E25642E2564E3
S1133C082E25640D0A00444843502074696D656F7D
S1133C187574210D005765206861766520646574A4
S1133C28656374656420256420415020737461744D
S1133C38696F6E730D0A002532643A2025730D0AE4
S1133C4800436C69656E7420636F6E6E656374659A
S1133C586420746F207365727665722120436F6ED9
S1133C686E656374696F6E206E756D6265723A2055
S1133C7825730D0A00416E206572726F72206F639E
S1133C88637572726564207768656E2074727969E9
S1133C986E6720746F20636F6E6E656374206F6E39
S1133CA820636F6E6E656374696F6E3A2025640DC8
S1133CB80A00474554202F20485454502F312E31A0
S1133CC80D0A00486F73743A2073746D3332663486
S1133CD82D646973636F766572792E636F6D0D0A4F
S1133CE800436F6E6E656374696F6E3A20636C6F20
S1133CF873650D0A004461746120737563636573A9
S1133D087366756C6C792073656E742061732063B7
S1133D186C69656E74210D004572726F7220776844
S1133D28696C652073656E64696E6720646174618B
S1133D38206F6E20636F6E6E656374696F6E2025E5
S1133D4864210D0A004461746120726563656976B3
S1133D5865642066726F6D20736572766572206F74
S1133D686E20636F6E6E656374696F6E3A20257397
S1133D783B204E756D626572206F662062797465AA
S1133D88732072656365697665643A20256C753BB2
S1133D9820256C75202F20256C753B0D0A0054686E
S1133DA86973206973206669727374207061636B28
S1133DB865742072656365697665642E20436F6E49
S1133DC874656E74206C656E677468206F6E2074F9
S1133DD868697320636F6E6E656374696F6E2069BA
S1133DE8733A20256C750D0A00436C69656E74205E
S1133DF8636F6E6E656374696F6E20636C6F736551
S1133E08642C20636F6E6E656374696F6E3A202547
S1133E18643B20546F74616C2062797465732072FA
S1133E28656365697665643A20256C753B20436F44
S1133E386E74656E742D4C656E6774682068656170
S1133E486465723A20256C750D0A0054696D656FB6
S1133E5875742072656163686564206F6E20636F92
S1133E686E6E656374696F6E3A2025640D0A0000EE
S9030000FC
