:1000000093C00000B2C00000B0C00000AEC000004D
:10001000ACC00000AAC00000A8C00000A6C000003C
:10002000A4C00000A2C00000A0C000009EC000004C
:100030009CC000009AC0000098C0000096C000005C
:1000400094C0000092C0000090C000008EC000006C
:100050008CC000000C94641788C0000086C00000AB
:1000600084C000000C94921780C000007EC0000085
:100070007CC000007AC0000078C0000076C000009C
:1000800074C0000072C0000070C000006EC00000AC
:100090000C9415176AC0000068C0000066C000001C
:1000A00064C0000062C0000060C000005EC00000CC
:1000B0005CC000005AC0000058C0000056C00000DC
:1000C00054C0000052C0000050C000004EC00000EC
:1000D0004CC000004AC0000048C0000046C00000FC
:1000E00044C00000DC09B50AEC09CF0DAD0CC30C0F
:1000F0002A0DD10C2A0DF10C2A0DA00B810E2A0D10
:100100003A0D2A0D2A0D4D0D260A2A0D2A0D720CC4
:10011000920C8D0DAD0D2A0D290EED0A010B150B5C
:100120002A0B3E0B530B680B11241FBECFEFD1E2FD
:10013000DEBFCDBF00E00CBF1BE0A0E0B2E0E4E317
:10014000FDE300E00BBF02C007900D92A236B1079D
:10015000D9F72BE1A2E6BBE001C01D92AE36B20793
:10016000E1F70E94DA170C94981E4ACFCF93DF93E1
:10017000EC018CE0FE0111928A95E9F7798368839E
:100180005F834E838AE08987452B71F4CB010E94FF
:10019000D8199F838E83892B21F41982188281E0DC
:1001A00007C088858260888788858160888780E02D
:1001B000DF91CF9108951F93CF93DF93FC01892B9B
:1001C000E1F122813381808191812817390710F074
:1001D00013821282162F460F571FA62FB72F26C045
:1001E0002281338164817581EB0121972C173D07B2
:1001F00011F1672B39F46081718161507109261703
:100200003707C9F066817781C9010196938382839C
:100210008D91EB01C20FD31F8883228133818081AE
:1002200091812817390710F0138212828A2F811BBF
:10023000A417B507A9F690E002C080E090E0DF9136
:10024000CF911F910895CF93DF93FC01892B89F102
:1002500024813581808191812817390710F015821A
:100260001482A62FB72F20E030E01DC08481958135
:100270006281738186179707F9F066817781EC01B7
:100280002196D583C483EB01C80FD91F88818D9334
:100290002F5F3F4F64817581808191816817790755
:1002A00010F0158214822417350701F7842F952F3B
:1002B00005C080E090E002C0822F932FDF91CF91A4
:1002C00008950F931F93FC01892B99F102811381EB
:1002D00020E030E04481558160E070E004171507AC
:1002E0002607370721F440815181CA0120C0041735
:1002F00015072607370738F4DB01CA01801B910B6D
:10030000A20BB30B03C080E090E0DC014017510763
:100310006207730760F480819181480F591F611D46
:10032000711DDB01CA01801B910BA20BB30B01975E
:1003300002C080E090E01F910F9108950F931F93EA
:10034000FC01892B49F14281538160E070E0048116
:10035000158120E030E0041715072607370738F429
:10036000DB01CA01801B910BA20BB30B03C080E021
:1003700090E0DC01401751076207730778F4808131
:100380009181480F591F611D711DDB01CA01801B3E
:10039000910BA20BB30B02C080E090E01F910F9174
:1003A0000895009729F0FC011382128215821482AD
:1003B0000895EF92FF920F931F93CF93009749F107
:1003C000C62F7C01BBDFBC01F70124813581892B5D
:1003D00019F100811181A681B78140E050E0F12C34
:1003E00080E02017310710F02F2D382FFD01E20F8C
:1003F000F31F90819C1303C0842F952F0FC02F5F94
:100400003F4F4F5F5F4F6417750759F78FEF9FEFAF
:1004100005C08FEF9FEF02C08FEF9FEFCF911F912D
:100420000F91FF90EF9008952F923F924F925F921D
:100430006F927F928F929F92AF92BF92CF92DF92F4
:10044000EF92FF920F931F93CF93DF93009709F4DE
:1004500060C08A01B72EA62EEC0170DFFC01801768
:10046000910708F459C02C813D81892B09F457C0AC
:10047000E880F9804E815F81CA2CDB2CD6019D90EB
:100480006D01812C80E090E0712C512C3324339449
:1004900066246394412CA72CB52C2E153F0510F033
:1004A000272D352DDA01A20FB31F6C916915D1F1FB
:1004B0002F5F3F4F31970196882031F102301105AF
:1004C000E0F0D601662D742D2E153F0510F02A2D73
:1004D0003B2D2D90EA01C20FD31FC881C21521F018
:1004E0000197860F971F0BC02F5F3F4F31976F5FAC
:1004F0007F4F6017710741F705C0662D742D601797
:10050000710711F4019714C0309739F68FEF9FEF00
:100510000FC08FEF9FEF0CC08FEF9FEF09C08FEFE1
:100520009FEF06C02F5F3F4F31970196832CC6CFB8
:10053000DF91CF911F910F91FF90EF90DF90CF90BF
:10054000BF90AF909F908F907F906F905F904F90F3
:100550003F902F900895FB0101900020E9F731971B
:10056000AF01461B570B27CE08958F929F92AF92F3
:10057000BF92CF92DF92EF92FF920F931F93CF9390
:10058000DF931F92CDB7DEB7009709F443C04A014D
:100590005B017C0196DE892B09F43FC0F701618580
:1005A000C70107DF99232CF4C701C8DE8815990518
:1005B000B8F1F1E08F1A9108D9F0650100E010E080
:1005C00041E050E0BE016F5F7F4FC7013CDE898193
:1005D000F60181936F01F7019185891729F00F5F6B
:1005E0001F4F0815190560F38016910651F402C0DB
:1005F00000E010E0F501E00FF11F1082802F912F35
:1006000011C00F5F1F4FF501E00FF11F1082802F07
:10061000912F08C080E090E005C080E090E002C02B
:1006200080E090E00F90DF91CF911F910F91FF90AC
:10063000EF90DF90CF90BF90AF909F908F900895F4
:10064000CF92DF92EF92FF920F931F93FC01DB0199
:1006500080818D3219F4319691E001C090E00081E3
:1006600080ED800F8A3048F53196892F40E050E0C8
:10067000BA01440F551F661F771F6A017B01CC0C1E
:10068000DD1CEE1CFF1CCC0CDD1CEE1CFF1C4C0DFD
:100690005D1D6E1D7F1D10E000531109012E000C21
:1006A000220B330B400F511F621F731F8F5F01918D
:1006B00020ED200F2A30E8F204C0892F40E050E0FE
:1006C000BA01109709F08C93992351F08A019B018C
:1006D00066277727CB01601B710B820B930B02C03F
:1006E000CB01BA011F910F91FF90EF90DF90CF9057
:1006F0000895CF93DF93FC0190819923B1F0C4E674
:10070000DBE02FE29C3221F0923211F09C3521F493
:10071000DE011196288301C0DE01ED012196819151
:100720008C9390819111EECF02C0C4E6DBE0188279
:1007300084E69BE0DF91CF910895AF92BF92CF9274
:10074000DF92EF92FF921F93CF93DF93CDB7DEB787
:1007500061970FB6F894DEBF0FBECDBFFC016B01F1
:100760005A019FE0DE01129601900D929A95E1F7F1
:10077000198A64E172E0CE0102960E94051B00977F
:10078000E9F410E015C0BE016F5F7F4F59DFF7013C
:1007900061937F018981180FEC15FD0549F01F5FFA
:1007A00064E172E080E090E00E94051B009759F739
:1007B000A114B10479F0F50110830CC0BE016F5F84
:1007C0007F4F3EDFF60161937F011981F4E0CF0E88
:1007D000D11CE5CF61960FB6F894DEBF0FBECDBF3A
:1007E000DF91CF911F91FF90EF90DF90CF90BF905E
:1007F000AF9008950F931F93CF93DF93EC018B017C
:100800004EE050E086E192E00E942E1B892B09F415
:100810006FC043E150E0B80185E292E00E942E1BD8
:10082000892B09F479C043E150E0B80189E392E0F3
:100830000E942E1B892B09F482C04AE050E0B801C7
:100840008DE492E00E942E1B892B09F453C04FE0E7
:1008500050E0B80188E592E00E942E1B892B09F434
:100860005DC04FE050E0B80188E692E00E942E1B88
:10087000892B09F466C04DE050E0B80188E792E0AA
:100880000E942E1B892B09F46DC042E150E0B80193
:1008900086E892E00E942E1B892B09F476C042E183
:1008A00050E0B80189E992E00E942E1B892B09F4DF
:1008B0007FC049E050E0B8018CEA92E00E942E1B14
:1008C000892B09F451C04EE050E0B80186EB92E06C
:1008D0000E942E1B892B09F45AC04EE050E0B8014B
:1008E00085EC92E00E942E1B892B09F463C072C034
:1008F0002EE001C02AE0BE016E557E4F30E0C901F6
:10090000029640E050E0800F911F17DFCA53DD4F81
:100910008881816088835EC083E101C08FE0BE0171
:1009200066557E4F90E0029640E050E0800F911FA8
:1009300004DFCA53DD4F8881826088834BC083E126
:1009400001C08FE0BE016A557E4F90E0029640E004
:1009500050E0800F911FF1DECA53DD4F8881846023
:10096000888338C08DE001C089E0BE016C547E4FA1
:1009700090E0029640E050E0800F911FDEDECA5307
:10098000DD4F88818061888325C082E101C08EE0CF
:10099000BE0164547E4F90E0029640E050E0800F2C
:1009A000911FCBDECA53DD4F88818062888312C0DD
:1009B00082E101C08EE0BE0168547E4F90E0029655
:1009C00040E050E0800F911FB8DECA53DD4F8881B0
:1009D00080648883DF91CF911F910F9108958F924A
:1009E0009F92AF92BF92CF92DF92EF92FF920F93BE
:1009F0001F93CF93DF938B017A016EEF72E00E9419
:100A0000051B0097E1F1E8010A5F1F4FD12C812CF3
:100A1000912CA12CB12CC12C282FE82FF92F882D37
:100A2000992DAA2DBB2D0DC0375507C04FEB430F95
:100A3000463010F4375301C03C2D830F911DA11D8A
:100A4000B11D5E2F521B319140ED430F4A3078F1BA
:100A50004FE9430F4630E8F14FEB430F4630B0F01B
:100A60008993D50EC017D10759F0D3946EEF72E079
:100A700080E090E00E94051B009771F601C0D12C28
:100A8000E114F104E1F1F701D08239C0880F991F18
:100A9000AA1FBB1F880F991FAA1FBB1F880F991F72
:100AA000AA1FBB1F880F991FAA1FBB1FBFCF880F8C
:100AB000991FAA1FBB1F880F991FAA1FBB1F880F52
:100AC000991FAA1FBB1F880F991FAA1FBB1F342F76
:100AD000B4CF880F991FAA1FBB1F880F991FAA1F89
:100AE000BB1F880F991FAA1FBB1F880F991FAA1F22
:100AF000BB1F4FE9430F463008F098CF95CFDF91E9
:100B0000CF911F910F91FF90EF90DF90CF90BF900A
:100B1000AF909F908F9008950F931F93FC01E45B1B
:100B2000FF4F0081118122813381400F511F621FCD
:100B3000731F40835183628373831F910F910895C4
:100B4000AB01BC0181E898E136CB08950895089582
:100B5000089580E090E008950895CF92DF92EF929B
:100B6000FF920F931F93CF93DF937C01EC01C85A40
:100B7000DF4F8C0100591F4F6C018EE5C81A8EEFB4
:100B8000D80AF70184819581A681B781892B8A2BA8
:100B90008B2BB9F4BE018881882399F0F8018081FC
:100BA000882379F0108276978081882331F04B89F1
:100BB0005C89C7010E94361904C04B895C89C70152
:100BC000C7DFCE5BDF4F0E5B1F4FCC15DD05C9F6CF
:100BD000DF91CF911F910F91FF90EF90DF90CF9019
:100BE000089508950895089508950895AF92BF92C5
:100BF000CF92DF92EF92FF920F931F93CF93DF93E9
:100C000061157105A1F069017A018B01EC01080FF2
:100C1000191FA601B701CE010E94081B892B51F0B4
:100C20002196C017D107A9F780E090E005C080E0C9
:100C300090E002C08C2F9D2FDF91CF911F910F91DB
:100C4000FF90EF90DF90CF90BF90AF9008952F92DC
:100C50003F924F925F926F927F928F929F92AF924C
:100C6000BF92CF92DF92EF92FF920F931F93CF9399
:100C7000DF931F921F92CDB7DEB7FC01E05BFF4F01
:100C8000DC01A45BBF4FCD90DD90ED90FC90C08265
:100C9000D182E282F3822230310551F4DB015C9192
:100CA0005D3031F411965C915A3011F40C94EB0ED6
:100CB0003901542E7B018C01FC0184819581A68130
:100CC000B781892B8A2B8B2B09F445C0F1E04F1398
:100CD00042C069ED72E0C7010E941E1B892BD9F149
:100CE00064ED72E0C7010E941E1B892BA1F16EED1D
:100CF00072E0C7010E941E1B892B69F166EE72E04B
:100D0000C7010E941E1B892B69F16EEE72E0C701BC
:100D10000E941E1B892B49F144E050E06AEF72E00B
:100D2000C7010E942E1B892B01F1B801685F7F4F1C
:100D3000FB0101900020E9F73197AF01461B570BEB
:100D4000C7010E942E1B892B81F0B7018DE898E125
:100D500002DC0C94EB0E66EE72E0C7010E941E1BD3
:100D6000892B19F4C8010E94351860E073E0C701AF
:100D70000E941E1B892B19F4C8010E943918C80152
:100D8000ECDE6CE073E0C7010E941E1B892B51F45E
:100D9000F801EA53FD4F818184608183C8010E947C
:100DA000411833C06DE173E0C7010E941E1B892BFF
:100DB000E1F4F801EA53FD4F81818B7F877F8183C6
:100DC00089E1EA58F109DF011D928A95E9F78AE481
:100DD00091E0E45EF140DF019C011D922150304022
:100DE000E1F7C8010E943D1810C06FE273E0C7012F
:100DF0000E941E1B892B49F4F801EA53FD4F8181A3
:100E000088608183C8010E94551864ED72E0C701B3
:100E10000E944B1B892B79F1D80114961D921D92CB
:100E20001D921C9217976801BAE6CB0ED11C58018F
:100E3000E8E5AE0EB11C4801FCE48F1AFEEF9F0AF4
:100E4000D6018C91882371F01C92F60170978081F5
:100E5000882329F0B501C8010E94321903C0B501E9
:100E6000C8017ADEB2E4CB0ED11CE2E4AE0EB11CB6
:100E7000C814D90429F744E050E06DE373E0C701DA
:100E80000E942E1B892B09F06AC181E0F801E05114
:100E9000FE4F808336965082D70115968C918053F1
:100EA0005801BBE0AB1ABEEFBB0AF50180830F2EE1
:100EB000F2E49F2EF02D6801989EC00CD11C1124E5
:100EC000F601E559FF4F2CE83BE031832083729710
:100ED0008083BE016F5F7F4FC7010796B1DBF601CC
:100EE000EF59FF4F6083718382839383D5018C9187
:100EF000282F30E0F801989EE00DF11D1124EB59E8
:100F0000FF4F80819181A281B381892B8A2B8B2B0A
:100F100081F442E4429FC001439F900D1124800F51
:100F2000911FFC01E956FF4F1082319681E08083CA
:100F30000BC082E4829FF001839FF00D1124E00F2B
:100F4000F11FE856FF4F10826801BBE0CB1ABEEFDD
:100F5000DB0AF60120810F2EF2E4BF2EF02DB29EA7
:100F600090011124F801E20FF31FDF01AB59BF4FCD
:100F7000EF59FF4F20803180428053804D915D9129
:100F80006D917C911397420D531D641D751D4D93FA
:100F90005D936D937C931397D801A454BD4F20802B
:100FA0003180428053804D915D916D917C9113977A
:100FB000420D531D641D751D4D935D936D937C9380
:100FC0001397898190E00196092E000CAA0BBB0BA8
:100FD0001C012D01F7E02F0E311C411C511CB901E1
:100FE000635A7F4F600F711FC701820D931DAE01C1
:100FF0004F5F5F4FA2DBD601CC90D12C898190E06E
:101000000196092E000CAA0BBB0B820D931DA41D8B
:10101000B51D8E0D9F1DBE016F5F7F4F11DBBC9C08
:10102000F001BD9CF00D1124E00FF11FE55AFF4FB8
:1010300071836083F70180818A3359F0319680E0B3
:1010400090E0DC010196A11DB11D21912A33D1F759
:1010500003C080E090E0DC011C012D01FFEF2F1A9E
:101060003F0A4F0A5F0A6301C218D30858012BE0F8
:10107000A21A2EEFB20AD5018C910F2EF2E49F2E08
:10108000F02DF801989EE00DF11D1124E559FF4F58
:10109000B701620D731DA601808191810E94151B0D
:1010A000F5018081282F30E0F801989EE00DF11DB8
:1010B0001124EF59FF4F4081518162817381C30137
:1010C000A0E0B0E082199309A409B50948175907AF
:1010D0006A077B0788F4E2E4E29FC001E39F900D7A
:1010E0001124800F911FFC01E559FF4F80819181F0
:1010F000FC01E40FF51F1082F801ED50FE4FD18284
:10110000C0823297D182C08234968081282F30E00D
:10111000F80142E4849FE00DF11D1124EF59FF4FC7
:1011200080819181A281B381281639064A065B0627
:10113000B0F0F801E051FE4F108242E4429FC0013E
:10114000439F900D1124800F911FFC01E359FF4F25
:1011500031822082329621E02083319620832AE05A
:1011600030E042E453E0B301C70140DD0097A1F154
:10117000FC01429150E04053510982E4849F900168
:10118000859F300D1124B901685A7F4F600F711F80
:10119000200F311FD901A85ABF4F81E08C931196BF
:1011A000808180538C93F901E65AFF4F8081882318
:1011B00089F0F80184819581A681B7810A97A105FC
:1011C000B10521F41482158216821782C8010E948B
:1011D000D01802C0C801BADC6DE473E0C7010E94F8
:1011E0004B1B892BA1F0F801EA5AFD4F8081282F73
:1011F000082E000C330B3F938F9381E693E09F936F
:101200008F930E948C1B0F900F900F900F9029E0EE
:1012100030E044E853E0B301C701E8DC009709F48B
:1012200076C0E816F90609F472C097012F5F3F4FA8
:101230008217930709F062C0F701808190E0C097A0
:1012400032E4389FF001399FF00D1124E00FF11FB7
:10125000DF01A65ABF4F2C91E85AFF4F4081108200
:10126000D7018C9190E0C097389FF001399FF00D25
:101270001124E00FF11FE65AFF4F10828C9190E08D
:10128000C097389FF001399FF00D1124E00FF11F36
:10129000E856FF4F10828C9190E0C097389FF00184
:1012A000399FF00D1124E00FF11FE956FF4F108216
:1012B000442369F1222389F08C9190E0C09722E4C5
:1012C000289FB001299F700D1124685A7F4F600F2D
:1012D000711FC8010E947E191AC0F701808190E039
:1012E000C09722E4289FB001299F700D1124685AED
:1012F0007F4F600F711FC8012ADC09C0BC0161501B
:1013000071094AE050E08DE898E10E94DB006EE848
:1013100073E0C7010E944B1B0097E9F1DC012E919D
:1013200030E0A9014053510982E4849F9001859FD8
:10133000300D1124200F311FF901E85AFF4F1082A0
:10134000B901665A7F4FFB011082FE9610823197D9
:101350001082FE978C9180538083DB018C918823CF
:10136000D1F0F80184819581A681B7810A97A10502
:10137000B10521F4148215821682178282E4849FBB
:10138000B001859F700D1124685A7F4F600F711F47
:10139000C8010E94EC18F80184819581A681B7816B
:1013A000FC013197EB31F10508F0ABC48827EE580A
:1013B000FF4F8F4F0C94D01969ED72E0C7010E9466
:1013C0001E1B892B09F0B7C4D80114961D921D92DB
:1013D0001D921C92179795C447E050E06EE973E0A8
:1013E000C7010E942E1B892B89F487E0E7E9F3E00F
:1013F000D801189601900D928A95E1F7F801EB5A01
:10140000FD4FD70117968C918053808369ED72E070
:10141000C7010E941E1B892B09F0BBC4F80114826E
:1014200015821682178267E973E0C7010E941E1BAE
:10143000892B09F066C4D80114961D921D921D9245
:101440001C921797C8010E9445185BC44BE050E0FE
:1014500066EA73E0C7010E942E1B892B09F075C054
:1014600062EB73E0C7010E944B1B892B09F46DC02E
:10147000F7018081882351F0823251F03196DF01EB
:101480008191882331F08232D1F703C0D70101C0A6
:10149000D701BD016F5F7F4F11968C911197882303
:1014A00021F1AD014E5F5F4F139690E010C021E037
:1014B000290FBA01F801E90FF11DE45CFD4F8083AB
:1014C000FA018191AF011196882381F0922FBA0120
:1014D00061507109823259F7FA0120812C3239F7B3
:1014E0002C91223221F7292F01C020E0F801E20FD0
:1014F000F11DE45CFD4F10826B01F3E0CF0ED11CB7
:10150000AE014E5F5F4FB801645B7D4FC60167DA85
:101510002A8130E02E5F3F4FC20ED31EBE016E5FA8
:101520007F4FC6018DD8F801EE5AFD4F60838A8146
:1015300090E00196BE016E5F7F4F8C0D9D1D80D89F
:10154000F801ED5AFD4F7183608369ED72E0C701C8
:101550000E941E1B892B09F0EEC3D80114961D9220
:101560001D921D921C921797CCC347E050E06AEB86
:1015700073E0C7010E942E1B892B09F0CEC0809119
:101580008012853008F0C9C0F7018781883211F4D4
:1015900088E001C087E062EC73E09701280F311DFD
:1015A000C9010E94051B9C01892B09F4B1C080E090
:1015B0000F2EF0E88F2EF2E19F2EF02DDD24D39434
:1015C000D80E90E08730910508F096C0FC0188277E
:1015D000E357FF4F8F4F0C94D019D401AC90B12C2E
:1015E00060E070E0C9012CD8F501EE0FFF1FE29515
:1015F000F295F07FFE27E07FFE27E05CFE4E6083E1
:101600007BC0B9016F5F7F4FFB0101900020E9F7BC
:1016100032971082F4018081F0E28F9FC001112483
:101620008F5B9E4E0E94271B67C0D401AC90B12CEB
:1016300060E070E0C90104D8F501EE0FFF1FE295EC
:10164000F295F07FFE27E07FFE27E05CFE4E768B72
:10165000658B52C0C9010196FC0101900020E9F799
:1016600032971082F4016081F0E26F9FB001112483
:10167000695A7E4E40E050E0B2D93EC0D401AC90F1
:10168000B12C60E070E0C9010E942003F501EE0F6B
:10169000FF1FE295F295F07FFE27E07FFE27E05CDA
:1016A000FE4E658F29C0F401A080B12C60E070E08F
:1016B000C9010E942003F501EE0FFF1FE295F2958C
:1016C000F07FFE27E07FFE27E05CFE4E668F14C0B1
:1016D000D401AC90B12C60E070E0C9010E942003FD
:1016E000F501EE0FFF1FE295F295F07FFE27E07FF8
:1016F000FE27E05CFE4E678F62EC73E080E090E0D6
:101700000E94051B9C018D2D2115310509F056CF36
:10171000E0E8F2E180818F5F808369ED72E0C701CC
:101720000E941E1B892B09F006C3F8011482158242
:101730001682178260E471E1C8010E948B18E1C231
:1017400046E050E06DE076E0C7010E942E1B892B39
:1017500009F0BAC0D7018C91882359F08A3359F027
:10176000119602C08A3341F0FD018D918111FACFAB
:1017700003C0F70101C0F701309709F4A5C0D801F3
:10178000A853BE4F1C928181823229F06F01BFEFB6
:10179000CB1ADB0A04C06F0122E0C20ED11CD601B5
:1017A0008C91882329F11196B6016E5F7F4F90E0EE
:1017B00010C041E0490F6D019801290F311D2853D8
:1017C0003E4FF90180838D916F5F7F4F882389F0B1
:1017D000942F6D01F1E0CF1AD108823251F72C918C
:1017E0002C3239F7FB012081223219F7492F01C031
:1017F00040E0D801A40FB11DA853BE4F1C92A60112
:101800004D5F5F4FD60113968C918823D9F0F60176
:10181000349690E00DC021E0290FAF01D801A90F47
:10182000B11DA452BE4F8C938191882361F0922FF9
:10183000AF0141505109823271F720812C3259F7A2
:10184000292F01C020E0F801E20FF11DE452FE4F04
:1018500010826A01B2E0CB0ED11CBE016E5F7F4FD9
:10186000C6010E942003F801E351FE4F60834A81C4
:1018700050E04F5F5F4FC40ED51EBE016E5F7F4FBD
:10188000C6010E942003F801E451FE4F60838A8163
:1018900090E00196C80ED91EBE016E5F7F4FC60153
:1018A0000E942003F801E251FE4F60838A8190E09C
:1018B0000196BE016E5F7F4F8C0D9D1D0E9420031F
:1018C000F801E151FE4F608369ED72E0C7010E94AB
:1018D0001E1B892B09F02FC2F80114821582168273
:1018E00017820FC247E050E064EC73E0C7010E942A
:1018F0002E1B892B21F4B701C8010E94FA0369ED60
:1019000072E0C7010E941E1B892B09F014C2D80186
:1019100014961D921D921D921C921797C8010E9449
:101920006B18EFC146E050E06CEC73E0C7010E9419
:101930002E1B892B21F4B701C8010E94FA0369ED1F
:1019400072E0C7010E941E1B892B09F0F4C1F80147
:101950001482158216821782D4C169ED72E0C70124
:101960000E941E1B892B09F0E6C1D80114961D9216
:101970001D921D921C921797F801EA53FE4F808129
:1019800031968083BEC169ED72E0C7010E941E1BC3
:10199000892B09F0D0C1F8011482158216821782B2
:1019A000B0C169ED72E0C7010E941E1B892B09F0CE
:1019B000C2C18DE190E0A0E0B0E0F801848395839E
:1019C000A683B783EA53FD4F81818160818388E0DC
:1019D000E3EDF3E0D801189601900D928A95E1F7B6
:1019E00090C169ED72E0C7010E941E1B892B09F0AE
:1019F000E9C1D80114961D921D921D921C92179751
:101A00006EED72E0C7010E941E1B892B09F0D1C147
:101A1000F8011482158216821782EA5AFD4F8081DE
:101A2000F2E48F02C00111249801280F391FF90137
:101A3000E85AFF4F108232961082FE96108231973C
:101A40001082BC01685A7F4F600F711FC8010E944D
:101A5000EC1857C169ED72E0C7010E941E1B892B6B
:101A600009F069C1D80114961D921D921D921C9215
:101A7000179747C166EE72E0C7010E941E1B892BB3
:101A800009F03FC1F8011482158216821782EA53C9
:101A9000FD4F81818260818334C1D7018C918B326B
:101AA00069F460E070E0C70101960E942003F8012C
:101AB000E95CFD4F608371838283938369ED72E0FB
:101AC000C7010E941E1B892B79F4F801148215822C
:101AD0001682178281E0E55CFD4F8083B801695072
:101AE0007E4FC8017ED80DC16EED72E0C7010E9425
:101AF0001E1B892B09F01FC1D80114961D921D923F
:101B00001D921C921797F801E55CFD4F1082B801F9
:101B100069507E4FC80165D8F4C04AE050E06BEDD3
:101B200073E0C7010E942E1B892B49F440E050E06E
:101B3000B80162557E4FC7010C960E94EF0469ED13
:101B400072E0C7010E941E1B892B09F0F4C0F80146
:101B50001482158216821782D4C049E050E066EEE6
:101B600073E0C7010E942E1B892B49F440E050E02E
:101B7000B80160547E4FC7010B960E94EF0469EDD7
:101B800072E0C7010E941E1B892B09F0D4C0D80146
:101B900014961D921D921D921C921797B2C04BE095
:101BA00050E060EF73E0C7010E942E1B892B91F477
:101BB000F70163856053643059F480EE93E9A4E043
:101BC000B0E0F801EC5AFF4F80839183A283B38386
:101BD000C80108D869ED72E0C7010E941E1B892B5D
:101BE00041F066EE72E0C7010E941E1B892B09F0CE
:101BF000D8C0D80114961D921D921D921C92179761
:101C000080E395E7A0E0B0E0F801EC5AFF4F808355
:101C10009183A283B383C8010E94F3056EED72E045
:101C2000C7010E941E1B892B09F0C3C0F801148252
:101C300015821682178280E395E7A0E0B0E0EC5AA7
:101C4000FF4F80839183A283B383C8010E94F40570
:101C500058C0D7018C9180538A3008F040C0F801F9
:101C6000E554FD4F80818A30D0F590E0BC01660FCD
:101C7000771F880F991F880F991F880F991F680F6A
:101C8000791F695A7D4F600F711FAE014E5F5F4F24
:101C9000C7010E949D036801B5E4CB1ABDEFDB0AC2
:101CA000F601808190E0BC01660F771F880F991FB5
:101CB000880F991F880F991F680F791F655A7D4FEC
:101CC000600F711F8A8190E0019640E050E08E0D18
:101CD0009F1D0E94EF04D6018C918F5F8C9369ED5C
:101CE00072E0C7010E941E1B892B29F5F80114829E
:101CF000158216821782B801695A7D4FC8010E9469
:101D0000F50569ED72E0C7010E941E1B892B99F44D
:101D1000F801EA53FD4F818182608183F80184815B
:101D20009581A681B7810897A105B10521F014829C
:101D30001582168217826EED72E0C7010E941E1B8B
:101D4000892B39F06EEE72E0C7010E941E1B892BB1
:101D500059F4F801EA53FD4F81818D7F8183F801A9
:101D6000148215821682178264ED72E0C7010E9408
:101D70001E1B892B81F5D80114961D921D921D9270
:101D80001C921797F801EA53FD4F81818E7F818362
:101D900022C067E973E0C7010E941E1B892B59F618
:101DA0004ACB6EED72E0C7010E941E1B892B51F6D3
:101DB0003DCF69ED72E0C7010E941E1B892B09F41B
:101DC000A7CFC0CF6EED72E0C7010E941E1B892B0A
:101DD00009F0B8CF1DCE0F900F90DF91CF911F91DA
:101DE0000F91FF90EF90DF90CF90BF90AF909F90BA
:101DF0008F907F906F905F904F903F902F900895BD
:101E00002F923F924F925F927F928F929F92AF92CA
:101E1000BF92CF92DF92EF92FF920F931F93CF93D7
:101E2000DF93CDB7DEB7C358D1090FB6F894DEBF44
:101E30000FBECDBF8C01FC01EC5AFF4F8081918118
:101E4000A281B381892B8A2B8B2B41F480E395E708
:101E5000A0E0B0E080839183A283B383F801E45BC8
:101E6000FF4F80819181A281B3813497408151815C
:101E700062817381841B950BA60BB70B3C96408146
:101E8000518162817381481759076A077B0738F5CA
:101E9000D80114968C91F80114821582168217824B
:101EA0008A3009F066C2EA5AFD4F8081F2E48F025F
:101EB000C00111249801280F391FF901E85AFF4F7A
:101EC000108232961082FE96108231971082BC01E9
:101ED000685A7F4F600F711FC8010E94A019F80156
:101EE000E953FD4F808180FF84C042E050E06CEFF9
:101EF00073E081E898E10E941402992364F0892B31
:101F000009F542E050E0BE016E577F4F81E898E14D
:101F10000E94230117C040E050E06CEF73E08DE8B1
:101F200098E10E941402009751F442E050E0BE0193
:101F30006E577F4F8DE898E10E94230103C09923DB
:101F40000CF457C0F801EC53FD4FC080D18032969D
:101F500081818E7F81838DE190E0A0E0B0E0F80187
:101F600084839583A683B783D60112968C911297AA
:101F7000882359F053964D915C91549724EB35E0AA
:101F8000B601C8010E94FA1809C0F60143895489B4
:101F900024EB35E0B601C8010E94A905E82EF92E10
:101FA000F5EBEF16F5E0FF0630F00F2EF4EBEF2E19
:101FB000F5E0FF2EF02DE114F104B1F0B701D601E8
:101FC00053968D919C91549714D7F801E054FD4F8E
:101FD00080819181A281B3818E0D9F1DA11DB11DB4
:101FE00080839183A283B38362E070E08FEF93E0FC
:101FF00000D7F80184819581A681B7814197A10519
:10200000B10501F5E051FE4F808181117DC043E0B3
:1020100050E062E074E081E898E10E9414029923A4
:102020008CF081E898E10E94D101D80114961D92AC
:102030001D921D921C921797F801EA53FD4F818162
:1020400082608183F801E051FE4F80818823F1F0A6
:1020500054C09C0141E0BE016F5F7F4FC8010E94E8
:102060002706F70180818823B1F047C0F801E051CD
:10207000FE4F8081811148C0F80184819581A6813D
:10208000B781892B8A2B8B2B41F17AC17801F0E142
:10209000EF1AFEEFFF0A40E850E0BE016F5F7F4F8E
:1020A00081E898E10E94B502009799F6DFCF9C0184
:1020B00040E0BE016F5F7F4FC8010E942706D70135
:1020C0008C91811121C0F80184819581A681B7810D
:1020D000892B8A2B8B2B31F053C17801F0E1EF1A59
:1020E000FEEFFF0A40E850E0BE016F5F7F4F8DE8D2
:1020F00098E10E94B5020097D1F6F801E051FE4F39
:102100008081882309F43CC1F801EA50FE4F8081A8
:10211000811107C00F2EFDE8AF2EF8E1BF2EF02D84
:1021200006C00F2EF1E8AF2EF8E1BF2EF02D78019A
:102130002FE0E21A2EEFF20A68013BE0C31A3EEFED
:10214000D30A0F2EF2E47F2EF02D48018DE0881A7D
:102150008EEF980A83C041E050E0BE016F577F4F79
:10216000C5010E942301CF57DF4F2881C158D040BD
:10217000D6018C91F801789EE00DF11D1124E559EE
:10218000FF4F0190F081E02DD7018D919C91119727
:10219000E80FF91F20838D919C91119701968D93E3
:1021A0009C93F401208131812F5F3F4F3183208345
:1021B000843BF5E09F0708F451C0D6012C911C0127
:1021C000412C512CA22FB0E0F801729EE00DF11DC0
:1021D0001124EF59FF4F4081518162817381241690
:1021E000350646065706D1F17A9E90017B9E300D4A
:1021F0001124200F311FF901E359FF4F9183808390
:102200003296108275978081882391F07A9EB00172
:102210007B9E700D1124F901E559FF4F40815181DA
:10222000685A7F4F600F711FC8010E94361913C092
:102230007A9EB0017B9E700D1124F801E60FF71F06
:10224000E559FF4F40815181685A7F4F600F711FE0
:10225000C8010E94A805F70111821082D7018D9153
:102260009C91A0E0B0E0F6012081F801729EE00DA3
:10227000F11D1124EF59FF4F40815181628173811B
:1022800084179507A607B70730F4C5010E949E0181
:10229000892B09F060CFF801EB50FE4F2081329777
:1022A00080819181A0E0B0E0E22EF12CF80132E4CF
:1022B000239FE00DF11D1124EF59FF4F4081518103
:1022C0006281738184179507A607B70708F458C081
:1022D000F801E051FE4F108222E42E9DC0012F9D97
:1022E000900D1124800F911FFC01E359FF4FD8017D
:1022F000AF50BE4F2D913C9131832083329621E027
:102300002083B9968081882329F182E48E9DF00193
:102310008F9DF00D1124E00FF11FE559FF4F66E08E
:1023200074E0808191810E944B1B009799F060E0DE
:1023300070E040960E94200322E42E9DF0012F9D24
:10234000F00D1124E00FF11FEF58FF4F60837183F0
:1023500082839383F801EB50FE4F8081F80192E471
:10236000899FE00DF11D1124E059FF4F81E080832A
:1023700007C0F801E953FD4F808180FF63CEB5CDE2
:10238000C8010E94AD05F801E653FD4F108280E0C0
:10239000CD57DF4F0FB6F894DEBF0FBECDBFDF9134
:1023A000CF911F910F91FF90EF90DF90CF90BF9052
:1023B000AF909F908F907F905F904F903F902F9025
:1023C0000895CF92DF92FF920F931F93CF93DF93E5
:1023D000EC01F62E6A0189018C819D81AE81BF815D
:1023E000892B8A2B8B2B39F0CE010ADDC653DD4FAA
:1023F00087E0888332C081E1681304C081E898E1F6
:102400000E94D101F60101900020E9F73197BF0148
:102410006C197D09C601EDD48F2D90E0A0E0B0E0ED
:102420008C839D83AE83BF831886B801CE01089646
:102430000E94271BFE01E85BFF4FDE01A45BBF4F3C
:102440008D919D910D90BC91A02D80839183A2834D
:10245000B383C653DD4F188280E0DF91CF911F9187
:102460000F91FF90DF90CF90089522E534E04BE587
:1024700054E061E0A6CF0895CF92DF92EF92FF92F1
:102480000F931F93CF93DF93CDB7DEB7C859D10910
:102490000FB6F894DEBF0FBECDBF6C01CB017A0141
:1024A0000E9479038E010F5A1F4FBC01C8010E9480
:1024B000271BC7010E9479037E0129E7E20EF11C68
:1024C000BC01C7010E94271BFF92EF921F930F933D
:1024D00026E634E03F932F93005511091F930F9385
:1024E0000E94CF1B2EE933E0A80163E0C60169DF3B
:1024F0000FB6F894DEBF0FBECDBFC856DF4F0FB684
:10250000F894DEBF0FBECDBFDF91CF911F910F9129
:10251000FF90EF90DF90CF90089526EA33E048E9EE
:1025200054E063E14ECF0895CF93DF93EC0128EAA6
:1025300034E044EB54E066E144DFFE01E653FD4F36
:102540008081811106C0CA53DD4F98819C7F9B7F9B
:102550009883DF91CF910895CF93DF93EC0125EC21
:1025600034E040ED54E067E12CDFFE01E653FD4F1F
:102570008081811106C0CA53DD4F98819F7C9F7B6B
:102580009883DF91CF910895CF93DF93EC012BEDEA
:1025900033E040EE54E068E114DFFE01E653FD4F06
:1025A0008081811105C0CA53DD4F9881977F988340
:1025B000DF91CF910895CF93DF93EC0126EE33E0C6
:1025C00040EF54E069E1FDDEFE01E653FD4F8081FE
:1025D000811105C0CA53DD4F98819F779883DF91A1
:1025E000CF910895109280122FEF34E046E055E02D
:1025F00062E0E7CE08950F931F93CF93DF93EC0132
:102600008C0109531D4FF801808180FF11C042E009
:1026100050E06CEF73E081E898E10E941402992386
:102620003CF0FE01EA53FD4F81818E7F81830AC019
:10263000CE01E6DB8C819D81AE81BF81892B8A2B07
:102640008B2B09F7C653DD4F188280E0DF91CF91C5
:102650001F910F910895EF92FF920F931F93CF93C5
:10266000DF93CDB7DEB72E970FB6F894DEBF0FBE5F
:10267000CDBF8C011F926F938CE295E09F938F9357
:10268000CE0101967C019F938F930E94CF1B2BE379
:1026900035E0A7016BE0C80194DEF82E0F900F9093
:1026A0000F900F900F900F90882329F0F801E653B8
:1026B000FD4FF08012C0C8019EDFF801E953FD4FC5
:1026C000808181FD06C0339681E08083FF24F394EE
:1026D00004C0F801E653FD4F10828F2D2E960FB6E1
:1026E000F894DEBF0FBECDBFDF91CF911F910F9148
:1026F000FF90EF900895EF92FF920F931F93CF9367
:10270000DF93CDB7DEB760970FB6F894DEBF0FBE8C
:10271000CDBF8C011F926F9385E495E09F938F93BB
:10272000CE0101967C019F938F930E94CF1B26E5DB
:1027300035E0A70167E0C80144DEF82E0F900F9046
:102740000F900F900F900F90882329F0F801E65317
:10275000FD4FF08012C0C8014EDFF801E953FD4F74
:10276000808181FD06C0339681E08083FF24F3944D
:1027700004C0F801E653FD4F10828F2D60960FB60E
:10278000F894DEBF0FBECDBFDF91CF911F910F91A7
:10279000FF90EF9008958F929F92AF92BF92CF9249
:1027A000DF92EF92FF921F93CF93DF93EC016A01C8
:1027B0007B01FC01EC5AFF4F1082118212821382BE
:1027C00041E856E160E072E08DE898E10E94B600D1
:1027D000882329F0C653DD4F85E08883D1C041E8C6
:1027E00052E160E074E081E898E10E94B60088233D
:1027F00029F0C653DD4F85E08883C2C0279A2F9801
:1028000024E630E08FE99FE00197F1F700C0000077
:1028100021503109B9F72F9A24E630E0EFE9FFE0C3
:102820003197F1F700C0000021503109B9F7C88293
:10283000D982EA82FB82C701B60187D288EE93E093
:10284000A0E0B0E0FE01EC5AFF4F80839183A283A9
:10285000B38326EE32E042E655E06FE0CE01B1DD13
:10286000CE01C9DEFE01E953FD4F808181FD48C0E4
:1028700010E06E01F4E5CF0ED11C0F2EF8EE8F2E76
:10288000F3E09F2EA12CB12CF02D7E0189E3E81AF4
:102890008DEFF80A688179818A819B8156D2F60191
:1028A00080829182A282B38226EE32E042E655E037
:1028B0006FE0CE0186DDCE019EDEF701808181FFD3
:1028C00017C0E12FF0E0EE0FFF1FEE0FFF1FEC5BD4
:1028D000F84F80819181A281B38188839983AA83F3
:1028E000BB83FE01E953FD4F808181FF04C008C016
:1028F0001F5F143079F6C653DD4F82E0888340C0F5
:1029000080E395E7A0E0B0E0FE01EC5AFF4F808342
:102910009183A283B38329ED32E04BE655E06EE06C
:10292000CE014FDDCE0167DEFE01E953FD4F808110
:1029300081FD05C0C653DD4F82E0888321C020E7BA
:1029400035E045E755E06DE0CE013BDDCE0153DEDD
:1029500061E0CE0180DE8111FBCF61E0CE01CBDEF4
:102960008111FBCFCE0110DE8111FCCFCE0123DE21
:102970008111FCCFCE01F0DD8111FCCFCE013BDE19
:10298000DF91CF911F91FF90EF90DF90CF90BF909C
:10299000AF909F908F900895EF92FF920F931F93A7
:1029A000CF93DF93CDB7DEB763970FB6F894DEBF52
:1029B0000FBECDBF8C017F936F938CE795E09F9303
:1029C0008F93CE0101967C019F938F93E8D620E9E7
:1029D00035E0A70166E0C801F4DCF82E0F900F90F7
:1029E0000F900F900F900F90882329F0F801E65375
:1029F000FD4FF08012C0C801FEDDF801E953FD4F24
:102A0000808181FD06C0339681E08083FF24F394AA
:102A100004C0F801E653FD4F10828F2D63960FB668
:102A2000F894DEBF0FBECDBFDF91CF911F910F9104
:102A3000FF90EF900895CF93DF93EC012DE036E007
:102A40004DEB55E06CE0BDDC882321F0C653DD4F33
:102A5000888102C0CE01CFDDDF91CF910895DF9252
:102A6000EF92FF920F931F93CF93DF93CDB7DEB713
:102A700061970FB6F894DEBF0FBECDBF8C01D62E86
:102A80001F926F9389EC95E09F938F93CE010196EF
:102A90007C019F938F9383D62CED35E0A70165E0F1
:102AA000C8018FDC0F900F900F900F900F900F9038
:102AB000882329F0F801E653FD4F808113C0F80107
:102AC000EA53FE4FD082C80196DDF801E953FE4F6C
:102AD00080818D1529F0ED5FFE4F81E0808302C07B
:102AE000C801A9DF61960FB6F894DEBF0FBECDBF57
:102AF000DF91CF911F910F91FF90EF90DF9008959C
:102B0000CF92DF92EF92FF920F931F93CF93DF93B9
:102B1000CDB7DEB766970FB6F894DEBF0FBECDBF58
:102B20008C017B01FC0184819581A681B781892B71
:102B30008A2B8B2B41F0C80163D9F801E653FD4F76
:102B400087E080832FC0FB0181811F928F9386E6EF
:102B500096E09F938F93CE0101966C019F938F9384
:102B60001ED62DE736E0A60168E0C8012ADC0F90EA
:102B70000F900F900F900F900F90882329F0F8017D
:102B8000E653FD4F80810EC081E0F701818BF80193
:102B9000EA53FD4F8181816081833297F182E08227
:102BA0003696808166960FB6F894DEBF0FBECDBF15
:102BB000DF91CF911F910F91FF90EF90DF90CF9019
:102BC00008957F928F929F92AF92BF92CF92DF92A1
:102BD000EF92FF920F931F93CF93DF93CDB7DEB7A2
:102BE000C456D1090FB6F894DEBF0FBECDBF7C012D
:102BF0005B016801FC0184819581A681B781892BE5
:102C00008A2B8B2B49F0C701FBD8F701E653FD4F08
:102C100087E0808317E083C0F701E953FD4F80818F
:102C200082FF06C0EF56F2408081811108C018C0B3
:102C3000F701E653FD4F86E0808316E070C0F70190
:102C4000E656FF4F01E08081811104C0702E0F3FD6
:102C500049F45FC00F5FEE5BFF4F0530A1F759C02D
:102C600000E0712C3F932F935F934F93872D072C98
:102C7000000C990B9F937F9284E197E09F938F9331
:102C8000CE0101964C019F938F9389D520E030E0CF
:102C9000A4016AE0C70195DB182F0FB6F894DEBFD8
:102CA0000FBECDBF882329F0F701E653FD4F1081F9
:102CB00036C0F2E40F9FC00111244701880E991E0F
:102CC000F401E85AFF4F21E02083329620833B969F
:102CD00010821182128213823C97008372962CE834
:102CE0003BE031832083F701EA5AFD4F70828B5815
:102CF0009F4F40E250E0B5018E0D9F1DBDD4F40101
:102D0000EB56FF4FD182C082F701E653FD4F108290
:102D100006C0F701E653FD4F81E0808311E0812F6B
:102D2000CC59DF4F0FB6F894DEBF0FBECDBFDF9199
:102D3000CF911F910F91FF90EF90DF90CF90BF90B8
:102D4000AF909F908F907F900895CF92DF92EF92F7
:102D5000FF926B017C016115714E81059105A1F017
:102D600060E079E08DE390E0A7019601F7D2DA0107
:102D7000C9010197A109B109B695A79597958795BE
:102D8000811520E1920790F01092C00060E874E88D
:102D90008EE190E0A7019601E1D2DA01C901019725
:102DA000A109B109B695A795979587959093CD0000
:102DB0008093CC00E8ECF0E0808182608083EAECD4
:102DC000F0E0808186608083E9ECF0E080818861BA
:102DD000808380818068808378948FE39CE9019769
:102DE000F1F700C0000080E0FF90EF90DF90CF90FF
:102DF0000895CF93DF939C01E8ECF0E0908195FF7C
:102E0000FDCFD901620F731FCEECD0E0E8ECF0E00B
:102E100005C09D919883908195FFFDCFA617B707B8
:102E2000C1F780E0DF91CF9108951F920F920FB606
:102E30000F9211240BB60F922F933F934F935F93F2
:102E40006F937F938F939F93AF93BF93EF93FF9372
:102E5000CF93DF931F92CDB7DEB78091CE008983E9
:102E600061E070E0CE0101960E94A0050F90DF9115
:102E7000CF91FF91EF91BF91AF919F918F917F91F2
:102E80006F915F914F913F912F910F900BBE0F90DB
:102E90000FBE0F901F9018958093C600E0ECF0E0F5
:102EA000808185FFFDCF80E090E0089584B5826049
:102EB00084BD85B5836085BD89EF87BDEEE6F0E012
:102EC00080818260808308951F920F920FB60F92C7
:102ED00011240BB60F922F933F934F935F936F93F1
:102EE0007F938F939F93AF93BF93EF93FF9341E0B3
:102EF00050E060E070E089E998E10E948C05FF9164
:102F0000EF91BF91AF919F918F917F916F915F9161
:102F10004F913F912F910F900BBE0F900FBE0F90CE
:102F20001F9018951F920F920FB60F9211240BB697
:102F30000F928F93EF93FF93E6ECF0E08081808314
:102F4000E0ECF0E0808185FFFDCFFF91EF918F9164
:102F50000F900BBE0F900FBE0F901F9018959B0106
:102F6000AC0160E079E08DE390E0F8D1DA01C901CD
:102F70000197A109B109AC01BD01769567955795F7
:102F80004795852F99278093C5004093C400E0ECB6
:102F9000F0E0808182608083E2ECF0E080818660F6
:102FA0008083E1ECF0E080818861808380818068AB
:102FB0008083089586E092E090936B1B80936A1B58
:102FC00060E072EC81E090E0CADF70DF789484E525
:102FD00097E0B5D303C088E897E0B1D340E052EC66
:102FE00061E070E089E998E1D6DB8111F4CF63E01C
:102FF00089E998E134DD8111FACF60E570E089E973
:1030000098E1CADC8111F9CF83EB97E098D389E985
:1030100098E12BDA89E998E1E5DA89E998E1EBDAD8
:103020004DEC57E066EE77E089E998E125DA89E929
:1030300098E1E1DA89E998E170DA26982E9A89E92F
:1030400098E10E94000F1E99FACF1E9BFECF00E070
:1030500010E020E530E043EF57E069E078E089E9EF
:1030600098E1AFDD8111F3CFEACF86E198E067C345
:10307000089587E298E063C3089581E498E05FC310
:10308000089588E598E05BC30895FC01EB5AFD4F75
:1030900080811F928F938CE698E09F938F933CD30F
:1030A0000F900F900F900F900895CF93DF93EC0146
:1030B0008FE998E044D3CE0137DA1F928F9387EBE4
:1030C00098E09F938F9328D30F900F900F900F90BD
:1030D000DF91CF910895FC01EB55FE4F20811F92A7
:1030E0002F93319720811F922F93319720811F9228
:1030F0002F93319780811F928F9380ED98E09F935B
:103100008F930AD38DB79EB70A960FB6F8949EBFD9
:103110000FBE8DBF0895CF92DF92EF92FF920F9373
:103120001F93CF93DF937B01EB01C05CDE4F88815F
:103130001F928F9387E099E09F938F93EDD20F902A
:103140000F900F900F908881882309F1C0E009E269
:1031500019E0670120ECC21A2EEFD20AC701E0E2A3
:10316000CE9F800D911D112401969F938F931F92E6
:10317000CF931F930F93D0D2CF5F0F900F900F90EC
:103180000F900F900F90F6018081C81738F3DF91F0
:10319000CF911F910F91FF90EF90DF90CF90089506
:1031A0000F931F93CF93DF938C01EB019B01235E61
:1031B0003F4F3F932F9323E339E03F932F93ACD2BC
:1031C000BE01C8019DDC0F900F900F900F90DF9112
:1031D000CF911F910F910895FB0181811F928F93D1
:1031E00087E699E09F938F9397D20F900F900F905F
:1031F0000F900895CF93DF9381E1E4EAF9E0DA01DB
:1032000001900D928A95E1F7DA010D900020E9F71F
:1032100011978EE1E5EBF9E001900D928A95E1F7C7
:10322000DA010D900020E9F7119784E1E3EDF9E070
:1032300001900D928A95E1F7FA0101900020E9F7DB
:1032400031978DE09AE0A0E080839183A283FA0118
:1032500001900020E9F7CF010197841B950BDF91C6
:10326000CF91089587EE99E06AC20895CF93DF93D6
:10327000EB018C8D8F938B8D8F938A8D8F93898D9E
:103280008F9388898F938F858F938E858F938D856C
:103290008F938C858F938B858F938A858F93898568
:1032A0008F93CB014D969F938F9387E39AE09F93E3
:1032B0008F9332D2FE01E05CFF4F8DB79EB74096F0
:1032C0000FB6F8949EBF0FBE8DBF8081882399F002
:1032D0008C8D8F938B8D8F938A8D8F93898D8F9308
:1032E00080E99AE09F938F9317D20F900F900F90E1
:1032F0000F900F900F90DF91CF910895FB01848D77
:103300008F93838D8F93828D8F93818D8F938089FF
:103310008F9387858F9386858F9385858F93818102
:103320001F928F938BED9AE09F938F93F5D18DB77A
:103330009EB70C960FB6F8949EBF0FBE8DBF089532
:10334000FB0181811F928F938DE39BE09F938F936D
:10335000E3D10F900F900F900F900895A1E21A2ED5
:10336000AA1BBB1BFD010DC0AA1FBB1FEE1FFF1F29
:10337000A217B307E407F50720F0A21BB30BE40B79
:10338000F50B661F771F881F991F1A9469F76095C0
:103390007095809590959B01AC01BD01CF0108957A
:1033A000EE0FFF1F881F8BBF0790F691E02D199439
:1033B000CF93DF938230910510F482E090E0E091AA
:1033C000661BF091671B20E030E0C0E0D0E0309752
:1033D00011F14081518148175907C0F0481759072A
:1033E00061F482819381209719F09B838A832BC09B
:1033F0009093671B8093661B26C02115310519F039
:103400004217530718F49A01BE01DF01EF01028051
:10341000F381E02DDCCF2115310509F1281B390B93
:103420002430310590F412968D919C91139761157B
:10343000710521F0FB019383828304C09093671B85
:103440008093661BFD01329644C0FD01E20FF31F1D
:1034500081939193225031092D933C933AC020914E
:10346000641B3091651B232B41F4209102023091A3
:1034700003023093651B2093641B2091000230915E
:1034800001022115310541F42DB73EB740910402E8
:1034900050910502241B350BE091641BF091651BD4
:1034A000E217F307A0F42E1B3F0B2817390778F01B
:1034B000AC014E5F5F4F2417350748F04E0F5F1F7A
:1034C0005093651B4093641B8193919302C0E0E08D
:1034D000F0E0CF01DF91CF9108950F931F93CF9329
:1034E000DF93009709F48CC0FC013297138212829B
:1034F0000091661B1091671B0115110581F4208155
:103500003181820F931F2091641B3091651B281716
:10351000390779F5F093651BE093641B71C0D801FE
:1035200040E050E0AE17BF0750F412962D913C9149
:103530001397AD012115310509F1D901F3CF9D0193
:10354000DA013383228360817181860F971F82178E
:10355000930769F4EC0128813981260F371F2E5F0C
:103560003F4F318320838A819B8193838283452BC4
:1035700029F4F093671BE093661B42C01396FC93FB
:10358000EE931297ED01499159919E01240F351F39
:10359000E217F30771F480819181840F951F0296E1
:1035A00011969C938E938281938113969C938E9314
:1035B0001297E0E0F0E0D80112968D919C9113975C
:1035C000009719F0F8018C01F6CF8D919C9198012C
:1035D0002E5F3F4F820F931F2091641B3091651B1C
:1035E0002817390769F4309729F41092671B109255
:1035F000661B02C0138212821093651B0093641B2A
:10360000DF91CF911F910F91089542E65BE05DC07D
:10361000FB01DC0104C08D910190801921F441501F
:103620005040C8F7881B990B0895FB01DC0102C0CC
:1036300001900D9241505040D8F70895FB01DC01F4
:103640008D91019080190110D9F3990B0895FB0118
:10365000DC0101900D920020E1F70895FB01DC01EF
:103660004150504030F08D910190801919F40020A4
:10367000B9F7881B990B0895FB01DC0141505040BC
:1036800048F001900D920020C9F701C01D924150F1
:103690005040E0F70895FB0151915523A9F0BF0177
:1036A000DC014D9145174111E1F759F4CD0101902D
:1036B000002049F04D9140154111C9F3FB01411122
:1036C000EFCF81E090E001970895FA01A191B081D8
:1036D000009719F41097E1F0CD01DC01CD010D90B8
:1036E000002011F4C00113C0FB012191222319F025
:1036F0002015D9F7F3CFFB012191201519F41E9263
:10370000119606C02223C1F70D900020A1F7D00129
:10371000FA01A193B0830895CF93DF93CDB7DEB7BD
:10372000AE014A5F5F4FFA0161917191AF018091E3
:103730006A1B90916B1B62D0DF91CF9108950F931C
:103740001F93CF93DF93E0916A1BF0916B1B238152
:1037500021FF1BC08C01D0E0C0E0F80181918F01F6
:1037600060916A1B70916B1BDB011896ED91FC91C7
:103770001997882331F01995892B79F3DFEFCFEF73
:10378000ECCF8AE01995892B19F08FEF9FEF02C0DB
:103790008D2F9C2FDF91CF911F910F9108950F9343
:1037A0001F93CF93DF93CDB7DEB72E970FB6F89464
:1037B000DEBF0FBECDBF0E891F8986E08C831A83C2
:1037C00009838FEF9FE79E838D83AE01465E5F4F37
:1037D000688D798DCE01019611D02F813885F80141
:1037E000E20FF31F10822E960FB6F894DEBF0FBEC5
:1037F000CDBFDF91CF911F910F9108952F923F92EE
:103800004F925F926F927F928F929F92AF92BF92F0
:10381000CF92DF92EF92FF920F931F93CF93DF939C
:10382000CDB7DEB72C970FB6F894DEBF0FBECDBF75
:103830007C016B018A01FC0117821682838181FF62
:10384000B0C1CE0101964C01F7019381F60193FDC1
:10385000859193FF81916F01882309F49EC1853280
:1038600039F493FD859193FF81916F01853221F4A5
:10387000B70190E0C7D1E8CF512C312C20E02032A5
:10388000A0F48B3269F030F4803259F0833269F45D
:1038900020612CC08D3239F0803339F4216026C08C
:1038A0002260246023C0286021C027FD27C030ED9E
:1038B000380F3A3078F426FF06C0FAE05F9E300DEC
:1038C0001124532E13C08AE0389E300D1124332E5C
:1038D00020620CC08E3221F426FD5FC1206406C038
:1038E0008C3611F4206802C0883641F4F60193FD4D
:1038F000859193FF81916F018111C1CF982F9F7D99
:103900009554933028F40C5F1F4FFFE3F9830DC0EB
:10391000833631F0833771F0833509F057C021C009
:10392000F801808189830E5F1F4F44244394512CFA
:10393000540114C03801F2E06F0E711CF801A08030
:10394000B18026FF03C0652D70E002C06FEF7FEFEE
:10395000C5012C874CD12C0183012C852F77222E79
:1039600016C03801F2E06F0E711CF801A080B18022
:1039700026FF03C0652D70E002C06FEF7FEFC50129
:103980002C872AD12C012C852068222E830123FC30
:1039900019C0832D90E048165906A0F4B70180E2C3
:1039A00090E030D13A94F5CFF50127FC859127FEC0
:1039B00081915F01B70190E025D131103A94F1E097
:1039C0004F1A51084114510479F7DEC0843611F0C2
:1039D000893631F5F80127FF07C060817181828146
:1039E00093810C5F1F4F08C060817181072E000C0E
:1039F000880B990B0E5F1F4F2F76722E97FF09C011
:103A000090958095709561957F4F8F4F9F4F20685F
:103A1000722E2AE030E0A4012DD1A82EA81843C0B0
:103A2000853729F42F7EB22E2AE030E025C0F22F10
:103A3000F97FBF2E8F36C1F018F4883579F0ADC00C
:103A4000803719F0883721F0A8C02F2F2061B22EBF
:103A5000B4FE0DC08B2D8460B82E09C024FF0AC0AF
:103A60009F2F9660B92E06C028E030E005C020E107
:103A700030E002C020E132E0F801B7FE07C060810B
:103A80007181828193810C5F1F4F06C060817181BB
:103A900080E090E00E5F1F4FA401ECD0A82EA81884
:103AA000FB2DFF777F2E76FE0BC0372D3E7FA514B2
:103AB00050F474FE0AC072FC08C0372D3E7E05C06B
:103AC000BA2C372D03C0BA2C01C0B52C34FF0DC061
:103AD000FE01EA0DF11D8081803311F4397E09C0A9
:103AE00032FF06C0B394B39404C0832F867809F0E4
:103AF000B39433FD12C030FF06C05A2CB31418F42F
:103B0000530C5B18B32CB31460F4B70180E290E05F
:103B10003C8778D0B3943C85F6CFB31410F43B18AF
:103B200001C0312C34FF11C0B70180E390E03C8725
:103B300069D03C8532FF16C031FD03C088E790E0B4
:103B400002C088E590E0B7010CC0832F867851F061
:103B500031FF02C08BE201C080E237FD8DE2B70188
:103B600090E050D0A51430F4B70180E390E04AD043
:103B70005A94F8CFAA94F401EA0DF11D8081B7019F
:103B800090E040D0A110F6CF332009F45DCEB7010C
:103B900080E290E037D03A94F7CFF70186819781A1
:103BA00002C08FEF9FEF2C960FB6F894DEBF0FBECA
:103BB000CDBFDF91CF911F910F91FF90EF90DF90DC
:103BC000CF90BF90AF909F908F907F906F905F90BD
:103BD0004F903F902F900895FC01059061507040E8
:103BE0000110D8F7809590958E0F9F1F0895FC01C6
:103BF0006150704001900110D8F7809590958E0F1C
:103C00009F1F08950F931F93CF93DF93FB01238191
:103C100021FD03C08FEF9FEF28C022FF16C0468111
:103C20005781248135814217530744F4A081B18123
:103C30009D012F5F3F4F318320838C9326813781F5
:103C40002F5F3F4F3783268310C0EB01092F182FBA
:103C50000084F185E02D1995892BE1F68E819F81F5
:103C600001969F838E83812F902FDF91CF911F919B
:103C70000F910895FA01AA27283051F1203181F1DE
:103C8000E8946F936E7F6E5F7F4F8F4F9F4FAF4F64
:103C9000B1E03ED0B4E03CD0670F781F891F9A1F77
:103CA000A11D680F791F8A1F911DA11D6A0F711D2B
:103CB000811D911DA11D20D009F468943F912AE037
:103CC000269F11243019305D3193DEF6CF0108951F
:103CD000462F4770405D4193B3E00FD0C9F7F6CF50
:103CE000462F4F70405D4A3318F0495D31FD405218
:103CF000419302D0A9F7EACFB4E0A69597958795AE
:103D000077956795BA95C9F700976105710508958C
:103D10009B01AC010A2E0694579547953795279538
:103D2000BA95C9F7620F731F841F951FA01D0895D0
:043D3000F894FFCF35
:103D340000006E1B200000000002000000004C1771
:103D4400000000002E002B4349505354415F43555B
:103D5400523A6970002B4349505354415F435552C2
:103D64003A6E65746D61736B002B43495053544133
:103D74005F4355523A67617465776179002B434913
:103D8400505354413A6970002B4349505354413ABB
:103D94006E65746D61736B002B4349505354413A03
:103DA40067617465776179002B43495041505F43E3
:103DB40055523A6970002B43495041505F43555264
:103DC4003A6E65746D61736B002B43495041505FCB
:103DD4004355523A67617465776179002B434950C2
:103DE40041503A6970002B43495041503A6E657412
:103DF4006D61736B002B43495041503A67617465A0
:103E04007761790053454E44204F4B0D0A004552CB
:103E1400524F520D0A0072656164790D0A00627591
:103E2400737920702E2E2E0D0A002B4950443A002F
:103E34007764742072657365740D0A0057494649A6
:103E440020434F4E4E45435445440D0A00574946BE
:103E54004920444953434F4E4E4543540D0A00579D
:103E640049464920474F542049500D0A002B4950D8
:103E740044002C434F4E4E4543540D0A00414C52CE
:103E84004541445920434F4E4E45435445440D0A41
:103E940000436F6E6E656374696F6E2025642061E4
:103EA4006C726561647920636F6E6E6563746564BA
:103EB400210D0A002C434C4F5345440D0A002C435A
:103EC4004F4E4E454354204641494C0D0A002B4366
:103ED400574A41503A002B43574A41505F43555289
:103EE4003A002B43574A41505F002B43574C4150F3
:103EF4003A002C002B434950535441002B43495062
:103F040041500053454E44204F4B002B43495053DE
:103F140054414D4143002B43495041504D414300CE
:103F24002B4349505550444154453A003E20005CCF
:103F340030004F4B0D00436F6E74656E742D4C65ED
:103F44006E6774683A200041542B434955504441EC
:103F540054450D0A0041542B434950434C4F53459B
:103F64003D25640D0A0041542B434950434C4F53A3
:103F7400450041542B434950434C4F53453D350D67
:103F84000A0041542B43575141500041542B43578D
:103F94005141500D0A0041542B43574A41505F434D
:103FA40055523D222573222C222573220D0A0041ED
:103FB400542B43574A41505F4445463D22257322C2
:103FC4002C222573220D0A0041542B43574A415099
:103FD4005F4355523F0D0A002B4349505354415FF0
:103FE4004355520041542B4349505354415F435568
:103FF400523F0D0A002B43495041505F4355520034
:1040040041542B43495041505F4355523F0D0A00E0
:1040140041542B4349505354414D41433F0D0A00F1
:1040240041542B43495041504D41433F0D0A002B0D
:1040340043574C41500041542B43574C41500D0AB7
:104044000025640041542B43574C49460D0A004156
:10405400542B524553544F52450D0A0041542B439F
:1040640049504D55583D25640D0A0041542B434990
:10407400504D55580041542B43495044494E464FE6
:104084003D25640D0A0041542B43495044494E4692
:104094004F0041542B5253540D0A0041540D0A0051
:1040A4004154453100415445310D0A0041542B43DC
:1040B40049505345525645523D312C25640D0A0052
:1040C40041542B4349505345525645520041542BB9
:1040D4004349505345525645523D300D0A00415410
:1040E4002B43495053544F3D25640D0A0041542B32
:1040F40043575341503F0D0A0041542B43574D4FF2
:1041040044455F4355523D25640D0A0041542B43F9
:10411400574D4F44450041542B43575341505F443E
:1041240045463D222573222C222573222C25642CFE
:1041340025642C25642C25640D0A0041542B435717
:104144005341500025733D25752C382C312C302CCF
:10415400300D0A0041542B554152540041542B5503
:104164004152545F4355520041542B554152545FC0
:104174004445460041542B534C4545503D25640D60
:104184000A002B534C4545500041542B47534C5087
:104194003D25750D0A0041542B43495053454E4467
:1041A40045583D25642C323034380D0A0041542BD7
:1041B40043495053454E4445580025733D2225300C
:1041C40032783A253032783A253032783A2530320E
:1041D400783A253032783A25303278220041542B0F
:1041E4004349505354414D41435F43555200415458
:1041F4002B4349505354414D41435F44454600418C
:10420400542B43495041504D41435F435552004163
:10421400542B43495041504D41435F44454600416E
:10422400542B43575341505F4355523D222573222B
:104234002C222573222C25642C25642C25642C2502
:10424400640D0A0041542B43495053544152543D88
:1042540025642C22544350222C222573222C2564BD
:104264000D0A0041542B50494E473D222573220D1F
:104274000A002B008025000000E1000000C20100BC
:1042840000100E0050726F6772616D20737461725A
:10429400746564212041544D454741203235363000
:1042A400206F6E2041726475696E6F204D454741E1
:1042B40020626F6172640D004572726F72207472B5
:1042C40079696E6720746F20696E697469616C69BD
:1042D4007A652045535038323636206D6F64756CDC
:1042E400650D00496E697469616C697A6174696FFE
:1042F4006E2066696E6973686564210D006D616A7C
:1043040065726C655F696E7465726E65745F7072F8
:104314006976617465004D616A65726C65204C4113
:104324004E320073746D333266342D646973636F77
:10433400766572792E636F6D0073746D33326634F3
:10434400646973636F0044657669636520697320EB
:1043540072656164790D005761746368646F6720E6
:104364007265736574206465746563746564210D96
:10437400005769666920697320646973636F6E6EA0
:104384006563746564210D0057696669206973204B
:10439400636F6E6E6563746564210D00436F6E6EAA
:1043A400656374696F6E20746F2077696669206E27
:1043B4006574776F726B20686173206661696C65E0
:1043C400642E20526561736F6E2025640D0A0057B8
:1043D40069666920676F7420616E204950206164AA
:1043E40064726573730D004772616262696E67205F
:1043F4004950207374617475733A2025640D0A0062
:10440400576520686176652076616C69642049503F
:1044140020616464726573733A2025642E25642ECA
:1044240025642E25640D0A00444843502074696DA8
:10443400656F7574210D0057652068617665206489
:104444006574656374656420256420415020737429
:104454006174696F6E730D0A002532643A20257306
:104464000D0A00436C69656E7420636F6E6E65633C
:1044740074656420746F20736572766572212043BD
:104484006F6E6E656374696F6E206E756D626572B2
:104494003A2025730D0A00416E206572726F7220F6
:1044A4006F63637572726564207768656E207472D9
:1044B40079696E6720746F20636F6E6E6563742014
:1044C4006F6E20636F6E6E656374696F6E3A20253C
:1044D400640D0A00474554202F20485454502F316E
:1044E4002E310D0A00486F73743A2073746D3332A1
:1044F40066342D646973636F766572792E636F6DAC
:104504000D0A00436F6E6E656374696F6E3A2063C3
:104514006C6F73650D0A0044617461207375636385
:1045240065737366756C6C792073656E7420617342
:1045340020636C69656E74210D004572726F722080
:104544007768696C652073656E64696E6720646161
:104554007461206F6E20636F6E6E656374696F6E35
:10456400202564210D0A004461746120726563652D
:10457400697665642066726F6D2073657276657204
:10458400206F6E20636F6E6E656374696F6E3A2080
:1045940025733B204E756D626572206F66206279CB
:1045A4007465732072656365697665643A20256C69
:1045B400753B20256C75202F20256C753B0D0A005A
:1045C400546869732069732066697273742070611A
:1045D400636B65742072656365697665642E204338
:1045E4006F6E74656E74206C656E677468206F6E90
:1045F400207468697320636F6E6E656374696F6E8F
:104604002069733A20256C750D0A00436C69656E48
:104614007420636F6E6E656374696F6E20636C6F74
:104624007365642C20636F6E6E656374696F6E3A94
:104634002025643B20546F74616C20627974657327
:104644002072656365697665643A20256C753B2044
:10465400436F6E74656E742D4C656E677468206864
:1046640065616465723A20256C750D0A0054696DA4
:10467400656F75742072656163686564206F6E2070
:10468400636F6E6E656374696F6E3A2025640D0AFC
:02469400000024
:00000001FF
