S01E000030312D455350383236365F41544D4547415F323536302E7372656380
S113000092C00000B1C00000AFC00000ADC000004D
S1130010ABC00000A9C00000A7C00000A5C000003C
S1130020A3C00000A1C000009FC000009DC000004C
S11300309BC0000099C0000097C0000095C000005C
S113004093C0000091C000008FC000008DC000006C
S11300508BC000000C94CA1387C0000085C0000048
S113006083C000000C94F8137FC000007DC0000022
S11300707BC0000079C0000077C0000075C000009C
S113008073C0000071C000006FC000006DC00000AC
S11300900C947B1369C0000067C0000065C00000B9
S11300A063C0000061C000005FC000005DC00000CC
S11300B05BC0000059C0000057C0000055C00000DC
S11300C053C0000051C000004FC000004DC00000EC
S11300D04BC0000049C0000047C0000045C00000FC
S11300E043C000009E0CFF0C5D0AFF0C210C370C72
S11300F09E0C450C9E0C650C9E0C150BFF0C9E0C67
S1130100AE0C9E0C9E0CFF0C970A9E0C9E0CE70BEB
S1130110060CC10CE20C9E0CFF0CFF0CFF0CFF0C38
S11301209E0C9E0C9E0C11241FBECFEFD1E2DEBFAD
S1130130CDBF00E00CBF1AE0A0E0B2E0E8E7F5E3D1
S113014000E00BBF02C007900D92A23BB107D9F7A4
S113015028E1A2EBBAE001C01D92A03BB207E1F78F
S11301600E9440140C94BA1A4BCFCF93DF93EC0146
S11301708CE0FE0111928A95E9F7798368835F83A5
S11301804E838AE08987452B71F4CB010E94FA15CE
S11301909F838E83892B21F41982188281E007C002
S11301A088858260888788858160888780E0DF9180
S11301B0CF9108951F93CF93DF93FC01892BE1F135
S11301C022813381808191812817390710F01382AD
S11301D01282162F460F571FA62FB72F26C0228133
S11301E0338164817581EB0121972C173D0711F14F
S11301F0672B39F4608171816150710926173707C3
S1130200C9F066817781C9010196938382838D91B8
S1130210EB01C20FD31F88832281338180819181B6
S11302202817390710F0138212828A2F811BA41712
S1130230B507A9F690E002C080E090E0DF91CF918D
S11302401F910895CF93DF93FC01892B89F12481B9
S11302503581808191812817390710F01582148225
S1130260A62FB72F20E030E01DC0848195816281E4
S1130270738186179707F9F066817781EC012196DF
S1130280D583C483EB01C80FD91F88818D932F5F59
S11302903F4F64817581808191816817790710F0DF
S11302A0158214822417350701F7842F952F05C072
S11302B080E090E002C0822F932FDF91CF910895C8
S11302C00F931F93FC01892B99F10281138120E084
S11302D030E04481558160E070E00417150726077B
S11302E0370721F440815181CA0120C00417150742
S11302F02607370738F4DB01CA01801B910BA20BD8
S1130300B30B03C080E090E0DC01401751076207A3
S1130310730760F480819181480F591F611D711D1D
S1130320DB01CA01801B910BA20BB30B019702C026
S113033080E090E01F910F9108950F931F93FC01AB
S1130340892B49F14281538160E070E00481158179
S113035020E030E0041715072607370738F4DB01DF
S1130360CA01801B910BA20BB30B03C080E090E089
S1130370DC01401751076207730778F4808191818B
S1130380480F591F611D711DDB01CA01801B910BB0
S1130390A20BB30B02C080E090E01F910F9108956F
S11303A0009729F0FC0113821282158214820895A9
S11303B0EF92FF920F931F93CF93009749F1C62FAB
S11303C07C01BBDFBC01F70124813581892B19F144
S11303D000811181A681B78140E050E0F12C80E0DA
S11303E02017310710F02F2D382FFD01E20FF31FD6
S11303F090819C1303C0842F952F0FC02F5F3F4F14
S11304004F5F5F4F6417750759F78FEF9FEF05C074
S11304108FEF9FEF02C08FEF9FEFCF911F910F914E
S1130420FF90EF9008952F923F924F925F926F92B8
S11304307F928F929F92AF92BF92CF92DF92EF9270
S1130440FF920F931F93CF93DF93009709F460C03B
S11304508A01B72EA62EEC0170DFFC0180179107EC
S113046008F459C02C813D81892B09F457C0E880D8
S1130470F9804E815F81CA2CDB2CD6019D906D01E1
S1130480812C80E090E0712C512C33243394662429
S11304906394412CA72CB52C2E153F0510F0272D65
S11304A0352DDA01A20FB31F6C916915D1F12F5FBD
S11304B03F4F31970196882031F102301105E0F069
S11304C0D601662D742D2E153F0510F02A2D3B2DD7
S11304D02D90EA01C20FD31FC881C21521F00197E4
S11304E0860F971F0BC02F5F3F4F31976F5F7F4F72
S11304F06017710741F705C0662D742D60177107E9
S113050011F4019714C0309739F68FEF9FEF0FC0A5
S11305108FEF9FEF0CC08FEF9FEF09C08FEF9FEF1E
S113052006C02F5F3F4F31970196832CC6CFDF91D2
S1130530CF911F910F91FF90EF90DF90CF90BF90DC
S1130540AF909F908F907F906F905F904F903F906F
S11305502F900895FB0101900020E9F73197AF0136
S1130560461B570B27CE08958F929F92AF92BF924E
S1130570CF92DF92EF92FF920F931F93CF93DF936B
S11305801F92CDB7DEB7009709F443C04A015B015F
S11305907C0196DE892B09F43FC0F7016185C70110
S11305A007DF99232CF4C701C8DE88159905B8F133
S11305B0F1E08F1A9108D9F0650100E010E041E004
S11305C050E0BE016F5F7F4FC7013CDE8981F601B9
S11305D081936F01F7019185891729F00F5F1F4FF0
S11305E00815190560F38016910651F402C000E065
S11305F010E0F501E00FF11F1082802F912F11C040
S11306000F5F1F4FF501E00FF11F1082802F912F14
S113061008C080E090E005C080E090E002C080E087
S113062090E00F90DF91CF911F910F91FF90EF9089
S1130630DF90CF90BF90AF909F908F900895CF920E
S1130640DF92EF92FF920F931F93FC01DB018081F5
S11306508D3219F4319691E001C090E0008180ED73
S1130660800F8A3048F53196892F40E050E0BA0176
S1130670440F551F661F771F6A017B01CC0CDD1CDC
S1130680EE1CFF1CCC0CDD1CEE1CFF1C4C0D5D1D78
S11306906E1D7F1D10E000531109012E000C220B6A
S11306A0330B400F511F621F731F8F5F019120EDA9
S11306B0200F2A30E8F204C0892F40E050E0BA014C
S11306C0109709F08C93992351F08A019B016627B6
S11306D07727CB01601B710B820B930B02C0CB01FC
S11306E0BA011F910F91FF90EF90DF90CF90089582
S11306F0EF92FF920F931F93CF93DF931F92CDB787
S1130700DEB78C018CE58983F80190819923D9F0B7
S113071001C087019C3221F0923211F09C3531F4F2
S113072061E070E0CE0101960E945F137801FFEF53
S1130730EF1AFF0A61E070E0C8010E945F13F8013C
S113074091819111E6CF0F90DF91CF911F910F917D
S1130750FF90EF900895AF92BF92CF92DF92EF9205
S1130760FF921F93CF93DF93CDB7DEB761970FB698
S1130770F894DEBF0FBECDBFFC016B015A019FE0B0
S1130780DE01129601900D929A95E1F7198A64E1BF
S113079072E0CE0102960E9427170097E9F410E058
S11307A015C0BE016F5F7F4F4ADFF70161937F0180
S11307B08981180FEC15FD0549F01F5F64E172E0B3
S11307C080E090E00E942717009759F7A114B10424
S11307D079F0F50110830CC0BE016F5F7F4F2FDFEE
S11307E0F60161937F011981F4E0CF0ED11CE5CFAE
S11307F061960FB6F894DEBF0FBECDBFDF91CF91E7
S11308001F91FF90EF90DF90CF90BF90AF9008952D
S11308100F931F93CF93DF93EC018B014EE050E0D5
S113082086E192E00E945017892B09F46FC043E1DE
S113083050E0B80185E292E00E945017892B09F438
S113084079C043E150E0B80189E392E00E94501777
S1130850892B09F482C04AE050E0B8018DE492E0AB
S11308600E945017892B09F453C04FE050E0B8019F
S113087088E592E00E945017892B09F45DC04FE08F
S113088050E0B80188E692E00E945017892B09F4E1
S113089066C04DE050E0B80188E792E00E9450172E
S11308A0892B09F46DC042E150E0B80186E892E07A
S11308B00E945017892B09F476C042E150E0B80138
S11308C089E992E00E945017892B09F47FC049E01E
S11308D050E0B8018CEA92E00E945017892B09F489
S11308E051C04EE050E0B80186EB92E00E945017F0
S11308F0892B09F45AC04EE050E0B80185EC92E02F
S11309000E945017892B09F463C072C02EE001C005
S11309102AE0BE0169557E4F30E0C901029640E0ED
S113092050E0800F911F17DFCF5DDD4F888181601C
S113093088835EC083E101C08FE0BE0161557E4FB4
S113094090E0029640E050E0800F911F04DFCF5DFD
S1130950DD4F8881826088834BC083E101C08FE0D2
S1130960BE0165557E4F90E0029640E050E0800F56
S1130970911FF1DECF5DDD4F88818460888338C0AC
S11309808DE001C089E0BE0167547E4F90E002967D
S113099040E050E0800F911FDEDECF5DDD4F8881A7
S11309A08061888325C082E101C08EE0BE016F535F
S11309B07E4F90E0029640E050E0800F911FCBDE26
S11309C0CF5DDD4F88818062888312C082E101C0DF
S11309D08EE0BE0163547E4F90E0029640E050E00A
S11309E0800F911FB8DECF5DDD4F888180648883DE
S11309F0DF91CF911F910F9108958F929F92AF92A3
S1130A00BF92CF92DF92EF92FF920F931F93CF93F7
S1130A10DF938B017A0169E873E00E94271700973E
S1130A20E1F1E8010A5F1F4FD12C812C912CA12CFC
S1130A30B12CC12C282FE82FF92F882D992DAA2D00
S1130A40BB2D0DC0375507C04FEB430F463010F494
S1130A50375301C03C2D830F911DA11DB11D5E2F85
S1130A60521B319140ED430F4A3078F14FE9430F67
S1130A704630E8F14FEB430F4630B0F08993D50E82
S1130A80C017D10759F0D39469E873E080E090E08F
S1130A900E942717009771F601C0D12CE114F104CC
S1130AA0E1F1F701D08239C0880F991FAA1FBB1F3B
S1130AB0880F991FAA1FBB1F880F991FAA1FBB1F4E
S1130AC0880F991FAA1FBB1FBFCF880F991FAA1F8A
S1130AD0BB1F880F991FAA1FBB1F880F991FAA1F2E
S1130AE0BB1F880F991FAA1FBB1F342FB4CF880FB9
S1130AF0991FAA1FBB1F880F991FAA1FBB1F880F0E
S1130B00991FAA1FBB1F880F991FAA1FBB1F4FE95C
S1130B10430F463008F098CF95CFDF91CF911F91C6
S1130B200F91FF90EF90DF90CF90BF90AF909F9088
S1130B308F900895CF93DF93EC01FC01EC5AFF4FA3
S1130B40108211821282138248E654E160E072E05E
S1130B5084E796E10ADB882329F0CB5DDD4F85E04D
S1130B60888311C048E650E160E074E088E696E1CD
S1130B70FCDA882329F0CB5DDD4F85E0888303C050
S1130B80279A2F98FFCF85E0DF91CF9108950F9397
S1130B901F93FC01E45BFF4F0081118122813381AB
S1130BA0400F511F621F731F4083518362837383FD
S1130BB01F910F910895AB01BC0188E696E1FACA32
S1130BC0089508950895089580E090E008950895A3
S1130BD04F925F926F927F92AF92BF92CF92DF92C9
S1130BE0EF92FF920F931F93CF93DF936C01EC016D
S1130BF0C85ADF4F7C0181E7E80EF11C8601065AD2
S1130C001F4F5601A7E5AA1AAEEFBA0A6C2F7D2F23
S1130C109881992329F19701F7018081882301F1B3
S1130C20D8018C91811109C0F601448055806680F9
S1130C30778045284628472899F4F90110828C9139
S1130C40882341F052964D915C915397C6010E94BE
S1130C50581506C052964D915C915397C601B3DF67
S1130C60CD5BDF4FF3E4EF0EF11C0D5B1F4F0A1554
S1130C701B0561F6DF91CF911F910F91FF90EF90CB
S1130C80DF90CF90BF90AF907F906F905F904F9028
S1130C9008952F923F924F925F926F927F928F921C
S1130CA09F92AF92BF92CF92DF92EF92FF920F93F7
S1130CB01F93CF93DF931F921F92CDB7DEB78C01A2
S1130CC06B01542E4901FC01E05BFF4FDC01A45B86
S1130CD0BF4F8D919D910D90BC91A02D80839183E8
S1130CE0A283B38322E08216910449F4DB018C9140
S1130CF08D3029F411968C918A3009F403C7F801D8
S1130D0084819581A681B781892B8A2B8B2B09F449
S1130D1044C0552009F441C069ED72E0C6010E9447
S1130D204017892BD1F164ED72E0C6010E9440178F
S1130D30892B99F16EED72E0C6010E944017892B50
S1130D4061F166EE72E0C6010E944017892B61F1E1
S1130D506EEE72E0C6010E944017892B41F145E016
S1130D6050E06AEF72E0C6010E945017892BF9F037
S1130D70B801685F7F4FFB0101900020E9F73197CC
S1130D80AF01461B570BC6010E945017892B79F0FF
S1130D90B60184E796E1DEDBB5C666EE72E0C60115
S1130DA00E944017892B19F4C8010E94981460E02E
S1130DB073E0C6010E944017892B19F4C8010E94F0
S1130DC09C14C80105DF6CE073E0C6010E94401763
S1130DD0892B51F4F801EF5DFD4F8181846081839B
S1130DE0C8010E94A4143DC06DE173E0C6010E94D5
S1130DF04017892BD9F4F801EF5DFD4F81818B7F7A
S1130E00877F818389E1B597DF011D928A95E9F790
S1130E108FE491E0E45AF140DF019C011D922150DE
S1130E203040E1F7C8010E94A0141BC06FE273E0D8
S1130E30C6010E944017892B51F4F801EF5DFD4F64
S1130E40818188608183C8010E94B8140AC06DE35F
S1130E5073E0C6010E944017892B19F4C8010E944F
S1130E60EE1464ED72E0C6010E946D17892B09F43B
S1130E7036C6D80114961D921D921D921C92179786
S1130E807801BBE6EB0EF11C5801E8E5AE0EB11C8F
S1130E903801F6E46F1AFEEF7F0AD7018C9188239C
S1130EA071F01C92F70171978081882329F0B501B4
S1130EB0C8010E94541503C0B501C80188DEB3E41B
S1130EC0EB0EF11CE3E4AE0EB11CE614F70429F7B3
S1130ED006C6A12CB12C7301EA0CFB1CEC0CFD1C06
S1130EE04AE050E06AE473E0C7010E942A17892BA4
S1130EF021F4E114F10441F43CC0FFEFAF1ABF0A3E
S1130F00A814B90441F735C0F701229130E0205309
S1130F10310943E4429FC001439F900D1124BC0159
S1130F20685A7F4F600F711F800F911FDC01A85A10
S1130F30BF4F21E02C931196208120532C93FC0168
S1130F40E65AFF4F8081882389F0F80184819581D6
S1130F50A681B7810A97A105B10521F414821582EF
S1130F6016821782C8010E94F214F5C0C80129DE56
S1130F70F2C065E573E0C6010E946D17892B09F084
S1130F80EAC0BAE08B16910408F49AC03401E9E08F
S1130F906E1A71088114910409F4DDC0A12CB12CDE
S1130FA07301EA0CFB1CEC0CFD1C49E050E069E603
S1130FB073E0C7010E942A17892B21F4C701892BEA
S1130FC041F47EC0FFEFAF1ABF0AA814B90441F779
S1130FD077C0CE14DF0409F473C096012F5F3F4F2E
S1130FE0E216F30609F063C0D6018C9190E0C09735
S1130FF023E4289FF001299FF00D1124E00FF11F35
S1131000DF01A65ABF4F3C91E85AFF4F408110823E
S1131010F601808190E0C097289FF001299FF00D90
S11310201124E00FF11FE65AFF4F1082D6018C9174
S113103090E0C097289FF001299FF00D1124E00F44
S1131040F11FE756FF4F10828C9190E0C097289FC4
S1131050F001299FF00D1124E00FF11FE856FF4F16
S11310601082442309F477C0332381F08C9190E0FB
S1131070C097289FB001299F700D1124685A7F4F93
S1131080600F711FC8010E94A01565C0F601808120
S113109090E0C09723E4289FB001299F700D11248C
S11310A0685A7F4F600F711FC8018CDD54C0B701AF
S11310B0615071094AE050E084E796E17BD84BC067
S11310C0F1E18F16910408F446C063E773E0C401AC
S11310D00F978C0D9D1D0E946D170097E1F1DC01A7
S11310E08E9190E0C09743E4489F9001499F300D52
S11310F01124200F311FF901E85AFF4F1082A90172
S1131100465A5F4FFA011082FF961082319710827F
S1131110FF972C9120532083DA012C912223D9F0BC
S1131120F80144815581668177814A305105610512
S1131130710521F4148215821682178223E4289FF4
S1131140B001299F700D1124685A7F4F600F711FE1
S1131150C8010E940E1545E050E06AEF72E0C60136
S11311600E945017892B09F097C181E0F801EB50D8
S1131170FE4F808336965082F60185818053780134
S1131180F6E0EF1AFEEFFF0AD7018C930F2EF3E47B
S11311907F2EF02D5801789EA00CB11C1124F5016E
S11311A0E459FF4F24EB3AE0318320837397808323
S11311B0BE016F5F7F4FC601079641DAF501EE5914
S11311C0FF4F6083718382839383F7018081282F8B
S11311D030E0F801789EE00DF11D1124EA59FF4F2B
S11311E080819181A281B381892B8A2B8B2B81F4FD
S11311F043E4429FC001439F900D1124800F911F2F
S1131200FC01E856FF4F1082319681E080830BC0C9
S113121083E4829FF001839FF00D1124E00FF11FFE
S1131220E756FF4F10827801F6E0EF1AFEEFFF0A4F
S1131230D7012C910F2EF3E4BF2EF02DB29E900116
S11312401124F801E20FF31FDF01AA59BF4FEE5931
S1131250FF4F40805180628073804D915D916D910C
S11312607C911397440D551D661D771D4D935D9319
S11312706D937C931397D801A95EBD4F4080518034
S1131280628073804D915D916D917C911397440DB3
S1131290551D661D771D4D935D936D937C93139738
S11312A0898190E00196092E000CAA0BBB0B2C013E
S11312B03D01E7E04E0E511C611C711CB901635ADB
S11312C07F4F600F711FC601840D951DAE014F5FE6
S11312D05F4F41DAD701EC90F12C898190E00196BF
S11312E0092E000CAA0BBB0B840D951DA61DB71D62
S11312F08C0D9D1DBE016F5F7F4FA1D9BE9CF00177
S1131300BF9CF00D1124E00FF11FE55AFF4F7183CC
S11313106083F60180818A33C1F0A40160E070E04B
S11313204115510561057105A1F0319680E090E009
S1131330DC010196A11DB11D21912A3369F08417A6
S11313409507A607B707A8F307C080E090E0DC0183
S113135003C080E090E0DC012C013D01FFEF4F1A57
S11313605F0A6F0A7F0AF801E650FE4F2081222EA1
S1131370312CF80133E4239FE00DF11D1124EE59C3
S1131380FF4F80819181A281B381A40160E070E06C
S1131390441955096609770984179507A607B707FD
S11313A018F44201880E991E7401E418F5080F2EF2
S11313B0F3E4BF2EF02DB29CF001B39CF00D112488
S11313C0E00FF11FE459FF4FA701B601640D751D2D
S11313D0808191810E943717F801E650FE4F2081E9
S11313E0822F90E0F801B29EE00DF11D1124EE5918
S11313F0FF4F4081518162817381A12CB12C8418EB
S11314009508A608B708481559056A057B0588F4A8
S1131410E3E4E89F9001E99F300D1124200F311F70
S1131420F901E459FF4F80819181FC01E40FF51F1C
S11314301082F801E850FE4FF182E0823297F18287
S1131440E08234968081282F30E0F80143E4849FC1
S1131450E00DF11D1124EE59FF4F80819181A2818D
S1131460B381481659066A067B06B0F0F801EB50C2
S1131470FE4F108243E4429FC001439F900D11240C
S1131480800F911FFC01E259FF4F51824082329636
S113149021E0208331962083F80184819581A681FF
S11314A0B781FC013197E132F10508F0A8C2882721
S11314B0EE58FF4F8F4F0C94F21547E050E063E86D
S11314C073E0C6010E945017892B89F487E0ECE78A
S11314D0F3E0D801189601900D928A95E1F7F8018E
S11314E0EB5EFD4FD60117968C918053808369ED96
S11314F072E0C6010E944017892B09F0CEC2F801A0
S113150014821582168217826CE773E0C6010E946A
S11315104017892B09F073C2D80114961D921D92AD
S11315201D921C921797C8010E94A81468C24BE030
S113153050E06BE873E0C6010E945017892B09F054
S113154066C067E973E0C6010E946D17892B09F430
S11315505EC0F6018081882309F459C0823209F4FF
S1131560A4C23196DF018191882309F450C08232EC
S1131570C9F79CC261E0690FAF01D801A90FB11D81
S1131580A450BE4F8C9381912F5F3F4F882381F0ED
S1131590962FAF0141505109823261F760816C325C
S11315A049F7D9016C91623229F7692F01C060E0D3
S11315B0F801E60FF11DE450FE4F10827A01B3E00A
S11315C0EB0EF11CAE014E5F5F4FB801645F7D4FBF
S11315D0C70113DA2A8130E02E5F3F4FE20EF31E7B
S11315E0BE016E5F7F4FC7012AD8F801EE5EFD4F42
S11315F060838A8190E00196BE016E5F7F4F8E0DFD
S11316009F1D1DD8F801ED5EFD4F7183608369ED68
S113161072E0C6010E944017892B09F00FC2F8013D
S11316201482158216821782EAC146E050E067E20E
S113163075E0C6010E945017892B09F0BAC0D60183
S11316408C91882359F08A3359F0119602C08A3359
S113165041F0FD018D918111FACF03C0F60101C063
S1131660F601309709F4A5C0D801A353BE4F1C92CC
S11316708181823229F07F01BFEFEB1AFB0A04C09B
S11316807F0122E0E20EF11CD7018C91882329F11D
S11316901196A7014E5F5F4F90E010C061E0690FA3
S11316A07D019801290F311D23533E4FF901808399
S11316B08D914F5F5F4F882389F0962F7D01F1E074
S11316C0EF1AF108823251F72C912C3239F7FA01D2
S11316D02081223219F7692F01C060E0D801A60FDA
S11316E0B11DA353BE4F1C9297012D5F3F4FD701ED
S11316F013968C918823D9F0F701349690E00DC0AD
S113170041E0490F9F01D801A90FB11DAF51BE4F50
S11317108C938191882361F0942F9F01215031098A
S1131720823271F740814C3259F7492F01C040E0B1
S1131730F801E40FF11DEF51FE4F10827901B2E080
S1131740EB0EF11CBE016E5F7F4FC7010E941F03A9
S1131750F801EE50FE4F60832A8130E02F5F3F4F47
S1131760E20EF31EBE016E5F7F4FC7010E941F038E
S1131770F801EF50FE4F60838A8190E00196E80EF5
S1131780F91EBE016E5F7F4FC7010E941F03F8015F
S1131790ED50FE4F60838A8190E00196BE016E5F3A
S11317A07F4F8E0D9F1D0E941F03F801EC50FE4FCA
S11317B0608369ED72E0C6010E944017892B09F02D
S11317C03DC1F801148215821682178218C147E0C0
S11317D050E06FE973E0C6010E945017892B19F499
S11317E0B601C80115D869ED72E0C6010E94401720
S11317F0892B09F023C1D80114961D921D921D92C4
S11318001C921797C8010E94CE14F9C046E050E01C
S113181067EA73E0C6010E945017892B21F4B601D0
S1131820C8010E94080469ED72E0C6010E944017D5
S1131830892B09F003C1F8011482158216821782DC
S1131840DEC069ED72E0C6010E944017892B09F0E1
S1131850F5C0D80114961D921D921D921C921797E3
S1131860F801E553FE4F808131968083C8C069ED4D
S113187072E0C6010E944017892B09F0DFC0F8010D
S11318801482158216821782BAC069ED72E0C6010D
S11318900E944017892B09F0D1C08DE190E0A0E0AF
S11318A0B0E0F80184839583A683B783EF5DFD4F91
S11318B081818160818388E0EEEAF3E0D8011896A3
S11318C001900D928A95E1F79AC069ED72E0C60124
S11318D00E944017892B09F00CC1D80114961D925F
S11318E01D921D921C9217976EED72E0C6010E9424
S11318F04017892B09F0EAC0F80114821582168278
S11319001782EA5EFD4F8081F3E48F02C001112447
S11319109801280F391FF901E85AFF4F10823296B7
S11319201082FF96108231971082BC01685A7F4F53
S1131930600F711FC8010E940E1561C069ED72E04D
S1131940C6010E944017892B09F078C0D80114966B
S11319501D921D921D921C92179751C066EE72E063
S1131960C6010E944017892B09F049C0F80114826E
S1131970158216821782EF5DFD4F8181826081831B
S11319803EC04AE050E066EB73E0C6010E94501787
S1131990892B41F440E050E0B8016D547E4FC601FC
S11319A00C962BD869ED72E0C6010E944017892B72
S11319B009F044C0D80114961D921D921D921C92E8
S11319C017971DC049E050E061EC73E0C6010E9426
S11319D05017892B41F440E050E0B8016B537E4F1F
S11319E0C6010B960AD869ED72E0C6010E94401741
S11319F0892B21F5F801148215821682178269ED6C
S1131A0072E0C6010E944017892BC1F4F801EF5D12
S1131A10FD4F818182608183F80184819581A68153
S1131A20B78188309105A105B10541F04D97A10515
S1131A30B10521F014821582168217826EED72E0D0
S1131A40C6010E944017892B39F06EEE72E0C60180
S1131A500E944017892B59F4F801EF5DFD4F8181F5
S1131A608D7F8183F801148215821682178264EDBA
S1131A7072E0C6010E944017892B09F043C0D801C7
S1131A8014961D921D921D921C921797F801EF5DFA
S1131A90FD4F81818E7F818335C06CE773E0C60181
S1131AA00E944017892B51F637CDD601AD014F5F07
S1131AB05F4F11968C911197882309F478CDFD011D
S1131AC032969D012D5F3F4F90E063CD69ED72E04A
S1131AD0C6010E944017892B09F498CFB6CF340170
S1131AE0BAE06B1A7108EBE08E16910408F0F1C9A4
S1131AF040CA6EED72E0C6010E944017892B09F0BE
S1131B00A4CFFACE0F900F90DF91CF911F910F9138
S1131B10FF90EF90DF90CF90BF90AF909F908F9009
S1131B207F906F905F904F903F902F9008952F92E9
S1131B303F924F925F927F928F929F92AF92BF9209
S1131B40CF92DF92EF92FF920F931F93CF93DF9385
S1131B50CDB7DEB7C358D1090FB6F894DEBF0FBEB8
S1131B60CDBF8C01FC01EC5AFF4F80819181A28191
S1131B70B381892B8A2B8B2B41F480E395E7A0E07A
S1131B80B0E080839183A283B383F801E45BFF4FC9
S1131B9080819181A281B381349740815181628196
S1131BA07381841B950BA60BB70B3C964081518126
S1131BB062817381481759076A077B0730F5D8019A
S1131BC014968C91F80114821582168217828A3039
S1131BD009F065C2EA5EFD4F8081F3E48F02C00123
S1131BE011249801280F391FF901E85AFF4F108278
S1131BF032961082FF96108231971082BC01685A87
S1131C007F4F600F711FC801BDD7F801EE5DFD4F16
S1131C10808180FF86C042E050E06BEC73E088E690
S1131C2096E10E941302992364F0892B09F542E09E
S1131C3050E0BE016E577F4F88E696E10E94220174
S1131C4017C040E050E06BEC73E084E796E10E943B
S1131C501302009751F442E050E0BE016E577F4FEB
S1131C6084E796E10E94220103C099230CF459C031
S1131C70F801E15EFD4FC080D180329681818E7F74
S1131C8081838DE190E0A0E0B0E0F8018483958346
S1131C90A683B783D60112968C911297882351F0AC
S1131CA054964D915C91559724EB35E0B601C801EB
S1131CB0C3D609C0F6014489558924EB35E0B60141
S1131CC0C8010E94E405E82EF92EF5EBEF16F5E0C5
S1131CD0FF0630F00F2EF4EBEF2EF5E0FF2EF02D83
S1131CE0E114F104B1F0B701D60154968D919C91A1
S1131CF05597E5D4F801E55EFD4F80819181A2817D
S1131D00B3818E0D9F1DA11DB11D80839183A2837C
S1131D10B38362E070E08EEC93E0D1D481E0F6010D
S1131D20838BF80184819581A681B7814197A105B0
S1131D30B10501F5EB50FE4F808181117DC044E077
S1131D4050E069ED72E088E696E10E94130299235F
S1131D508CF088E696E10E94D001D80114961D9279
S1131D601D921D921C921797F801EF5DFD4F818122
S1131D7082608183F801EB50FE4F80818823F1F06B
S1131D8054C09C0141E0BE016F5F7F4FC8010E94B7
S1131D904906F70180818823B1F047C0F801EB5070
S1131DA0FE4F8081811148C0F80184819581A6810C
S1131DB0B781892B8A2B8B2B41F178C17801FBE009
S1131DC0EF1AFEEFFF0A40E850E0BE016F5F7F4F5D
S1131DD088E696E10E94B402009799F6DFCF9C0151
S1131DE040E0BE016F5F7F4FC8010E944906D701E2
S1131DF08C91811121C0F80184819581A681B781DC
S1131E00892B8A2B8B2B31F051C17801FBE0EF1A1F
S1131E10FEEFFF0A40E850E0BE016F5F7F4F84E7AA
S1131E2096E10E94B4020097D1F6F801EB50FE4F00
S1131E308081882309F43AC1F801E550FE4F80817E
S1131E40811107C00F2EF4E7AF2EF6E1BF2EF02D5F
S1131E5006C00F2EF8E6AF2EF6E1BF2EF02D780166
S1131E602AE0E21A2EEFF20A680136E0C31A3EEFC6
S1131E70D30A0F2EF3E47F2EF02D480188E0881A50
S1131E808EEF980A82C041E050E0BE016F577F4F49
S1131E90C5010E942201CF57DF4F2881C158D0408D
S1131EA0D6018C91F801789EE00DF11D1124E459BE
S1131EB0FF4F0190F081E02DD7018D919C911197F6
S1131EC0E80FF91F20838D919C91119701968D93B2
S1131ED09C93F401208131812F5F3F4F3183208314
S1131EE0843BF5E09F0708F450C0D6012C911C01F7
S1131EF0412C512CA22FB0E0F801729EE00DF11D8F
S1131F001124EE59FF4F408151816281738124165F
S1131F10350646065706C9F17A9E90017B9E300D20
S1131F201124200F311FF901E259FF4F918380835F
S1131F303296108276978081882389F07A9EB00148
S1131F407B9E700D1124F901E459FF4F40815181AA
S1131F50685A7F4F600F711FC801AAD513C07A9EBB
S1131F60B0017B9E700D1124F801E60FF71FE459B0
S1131F70FF4F40815181685A7F4F600F711FC80124
S1131F800E94E305F70111821082D7018D919C9183
S1131F90A0E0B0E0F6012081F801729EE00DF11D91
S1131FA01124EE59FF4F408151816281738184175E
S1131FB09507A607B70730F4C5010E949D01892B38
S1131FC009F061CFF801E650FE4F208132978081FD
S1131FD09181A0E0B0E0E22EF12CF80133E4239FDC
S1131FE0E00DF11D1124EE59FF4F408151816281B2
S1131FF0738184179507A607B70708F457C0F8013B
S1132000EB50FE4F108223E42E9DC0012F9D900DB6
S11320101124800F911FFC01E259FF4FD801AA50EF
S1132020BE4F2D913C9131832083329621E0208351
S1132030B9968081882321F183E48E9DF0018F9DE0
S1132040F00D1124E00FF11FE459FF4F61ED73E02F
S11320508081918142D7009799F060E070E04096CA
S11320600E941F0323E42E9DF0012F9DF00D1124E7
S1132070E00FF11FEE58FF4F6083718382839383D7
S1132080F801E650FE4F8081F80193E4899FE00D4A
S1132090F11D1124EF58FF4F81E0808307C0F80140
S11320A0EE5DFD4F808180FF65CEB5CDC8010E94F5
S11320B0E805F801EB5DFD4F108280E0CD57DF4F5E
S11320C00FB6F894DEBF0FBECDBFDF91CF911F9145
S11320D00F91FF90EF90DF90CF90BF90AF909F90C3
S11320E08F907F905F904F903F902F900895CF9264
S11320F0DF92EF92FF921F93CF93DF93EC01162FA1
S11321006A0179018C819D81AE81BF81892B8A2BE3
S11321108B2B39F0CE010BDDCB5DDD4F87E088835F
S113212033C0613121F488E696E10E94D001C114E4
S1132130D10451F0F60101900020E9F73197BF0175
S11321406C197D09C601BBD2812F90E0A0E0B0E0FC
S11321508C839D83AE83BF831886B701CE01089616
S113216098D6FE01E85BFF4FDE01A45BBF4F8D9163
S11321709D910D90BC91A02D80839183A283B38304
S1132180CB5DDD4F188280E0DF91CF911F91FF90EE
S1132190EF90DF90CF9008952EEF33E047E054E0C6
S11321A061E0A5CF08952BE833E042E154E063E118
S11321B09ECF0895CF93DF93EC0122E234E04EE208
S11321C054E066E194DFFE01EB5DFD4F80818111F7
S11321D006C0CF5DDD4F98819C7F9B7F9883DF9104
S11321E0CF9108950F931F93CF93DF93EC018C014C
S11321F00E5D1D4FF801808180FF11C042E050E068
S11322006BEC73E088E696E10E94130299233CF09C
S1132210FE01EF5DFD4F81818E7F81830AC0CE0177
S113222086DC8C819D81AE81BF81892B8A2B8B2B8F
S113223009F7CB5DDD4F188280E0DF91CF911F91CC
S11322400F910895EF92FF920F931F93CF93DF9313
S1132250CDB7DEB763970FB6F894DEBF0FBECDBF20
S11322608C017F936F9386E994E09F938F93CE01C3
S113227001967C019F938F93B4D62AEA34E0A70198
S113228066E0C80134DFF82E0F900F900F900F9086
S11322900F900F90882329F0F801EB5DFD4FF0803B
S11322A012C0C8019FDFF801EE5DFD4F808181FD02
S11322B006C0339681E08083FF24F39404C0F801C0
S11322C0EB5DFD4F10828F2D63960FB6F894DEBF41
S11322D00FBECDBFDF91CF911F910F91FF90EF9073
S11322E00895CF93DF93EC0127E235E047ED54E006
S11322F06CE0FDDE882321F0CB5DDD4F888102C0D8
S1132300CE0170DFDF91CF910895DF92EF92FF92BB
S11323100F931F93CF93DF93CDB7DEB761970FB6BB
S1132320F894DEBF0FBECDBF8C01D62E1F926F93E3
S113233083EE94E09F938F93CE0101967C019F934B
S11323408F934FD626EF34E0A70165E0C801CFDEB6
S11323500F900F900F900F900F900F90882329F0FB
S1132360F801EB5DFD4F808113C0F801E553FE4F8A
S1132370D082C80137DFF801E453FE4F80818D1508
S113238029F0E75AFF4F81E0808302C0C801A9DF2A
S113239061960FB6F894DEBF0FBECDBFDF91CF912B
S11323A01F910F91FF90EF90DF9008950F931F936B
S11323B0CF93DF93EC018B018C819D81AE81BF8132
S11323C0892B8A2B8B2B39F0CE01B1DBCB5DDD4F12
S11323D087E0888333C0FB018181805D81836DE068
S11323E070E088E795E06BD161E070E0C801019688
S11323F066D167E070E086E895E061D1F8018181FB
S1132400805381832EE835E040E050E068E0CE015F
S11324106EDE882321F0CB5DDD4F88810FC081E023
S1132420F801828BFE01EF5DFD4F81818160818324
S1132430329711830083CB5DDD4F8881DF91CF918B
S11324401F910F910895CF92DF92EF92FF920F9315
S11324501F93CF93DF93EC016B017A010C811D81F3
S11324602E813F81012B022B032B31F060DBCB5DEE
S1132470DD4F87E088831CC06EE070E08EED95E050
S11324801ED1C6010E94780363E070E08FE996E0F4
S113249016D1C7010E94780363E070E08DEE95E0E9
S11324A00ED123E833E040E050E063E0CE011FDECC
S11324B0DF91CF911F910F91FF90EF90DF90CF901C
S11324C008954F925F926F927F928F929F92AF92F4
S11324D0BF92CF92EF92FF920F931F93CF93DF930C
S11324E0CDB7DEB727970FB6F894DEBF0FBECDBFCA
S11324F07C014B015A0138018FEF8983F7018481F4
S11325009581A681B781892B8A2B8B2B49F0C70132
S11325100EDBF701EB5DFD4F87E0808317E0B8C069
S1132520F701EE5DFD4F808182FF06C0EA5CF14059
S11325308081811108C0A8C0F701EB5DFD4F86E0E2
S1132540808316E0A5C0F701E556FF4F01E08081C6
S1132550811105C0C02E09830F3F39F48EC00F5F6F
S1132560ED5BFF4F053099F788C0C9011F921F9298
S11325709F932F9386E894E09F938F932E01F2E02C
S11325804F0E511C5F924F922CD58981805D8983B7
S11325906CE070E084E896E092D061E070E0CE01F7
S11325A001968DD068E070E081E996E088D0F5016D
S11325B001900020E9F73197BF016A197B09C50131
S11325C07ED062E070E082E796E079D0F20101907B
S11325D00020E9F73197BF0164197509C2016FD072
S11325E062E070E084E899E06AD020E030E040E006
S11325F050E06AE0C7017BDD182F0FB6F894DEBF08
S11326000FBECDBF112329F0F701EB5DFD4F108103
S11326103FC029812053E3E40E9FC00111245701D8
S1132620A80EB91EF501E85AFF4F31E03083329607
S1132630308337961082359610821182128213826B
S11326403D972083739624EB3AE031832083F7018E
S1132650EA5EFD4FC0828A589F4F40E250E0B401C9
S11326608E0D9F1D2BD4F501EA56FF4F71826082B7
S1132670F701EB5DFD4F10820BC0F701EB5DFD4FE1
S113268081E0808311E004C0198200E0C12C6DCF89
S1132690812F27960FB6F894DEBF0FBECDBFDF9112
S11326A0CF911F910F91FF90EF90CF90BF90AF907B
S11326B09F908F907F906F905F904F900895CF93ED
S11326C0DF939C01E8ECF0E0908195FFFDCFD90108
S11326D0620F731FCEECD0E0E8ECF0E005C09D91F2
S11326E09883908195FFFDCFA617B707C1F780E0C7
S11326F0DF91CF9108951F920F920FB60F9211247C
S11327000BB60F922F933F934F935F936F937F93E7
S11327108F939F93AF93BF93EF93FF93CF93DF93E5
S11327201F92CDB7DEB78091CE00898361E070E05F
S1132730CE0101960E94DB050F90DF91CF91FF91AE
S1132740EF91BF91AF919F918F917F916F915F9125
S11327504F913F912F910F900BBE0F900FBE0F9092
S11327601F9018958093C600E0ECF0E0808185FF0F
S1132770FDCF80E090E0089584B5826084BD85B586
S1132780836085BD89EF87BDEEE6F0E080818260DD
S1132790808308951F920F920FB60F9211240BB6E7
S11327A00F922F933F934F935F936F937F938F93E6
S11327B09F93AF93BF93EF93FF9341E050E060E0AA
S11327C070E080E896E10E94C705FF91EF91BF9108
S11327D0AF919F918F917F916F915F914F913F91B5
S11327E02F910F900BBE0F900FBE0F901F90189556
S11327F01F920F920FB60F9211240BB60F928F9364
S1132800EF93FF93E6ECF0E080818083E0ECF0E06E
S1132810808185FFFDCFFF91EF918F910F900BBECB
S11328200F900FBE0F901F9018959B01AC0160E0B4
S113283079E08DE390E0B4D1DA01C9010197A109EF
S1132840B109AC01BD017695679557954795852FDC
S113285099278093C5004093C400E0ECF0E08081A8
S113286082608083E2ECF0E0808186608083E1EC2A
S1132870F0E080818861808380818068808308950E
S113288086E092E09093AD188093AC1860E072EC0F
S113289081E090E0CADF70DF789482EB96E071D338
S11328A003C086EE96E06DD340E052EC61E070E048
S11328B080E896E10E949A058111F3CF63E080E8F5
S11328C096E123DD8111FACF60E570E080E896E1BE
S11328D0B9DC8111F9CF81E197E053D380E896E127
S11328E05BDC80E896E17EDC4BE257E069E377E06D
S11328F080E896E1A8DD80E896E174DC80E896E162
S113290052DC26982E9A80E896E111D91E99FBCFC5
S11329101E9BFECF00E010E020E530E043E457E0EA
S113292069E577E080E896E1CCDD8111F3CFEBCF68
S113293086E697E026C3089587E797E022C30895C3
S113294081E997E01EC3089588EA97E01AC30895C1
S1132950FC01EB5EFD4F80811F928F938CEB97E01F
S11329609F938F93FBD20F900F900F900F90089529
S1132970CF93DF93EC018FEE97E003D3CE011ADC03
S11329801F928F9387E098E09F938F93E7D20F90E5
S11329900F900F900F90DF91CF910895FC01E655B1
S11329A0FE4F20811F922F93319720811F922F93E6
S11329B0319720811F922F93319780811F928F939B
S11329C080E298E09F938F93C9D28DB79EB70A9601
S11329D00FB6F8949EBF0FBE8DBF089588E498E0AB
S11329E0D0C208950F931F93CF93DF938C01EB0113
S11329F09B01225E3F4F3F932F9323E838E03F93A0
S1132A002F93ACD2BE01C801D1DC0F900F900F9070
S1132A100F90DF91CF911F910F910895FB01818158
S1132A201F928F9387EB98E09F938F9397D20F9089
S1132A300F900F900F900895CF93DF9381E1E4EF0F
S1132A40F8E0DA0101900D928A95E1F7DA010D9030
S1132A500020E9F711978EE1E5E0F9E001900D928D
S1132A608A95E1F7DA010D900020E9F7119784E1E6
S1132A70E3E2F9E001900D928A95E1F7FA01019001
S1132A800020E9F731978DE09AE0A0E080839183FC
S1132A90A283FA0101900020E9F7CF010197841B7A
S1132AA0950BDF91CF91089587E399E06AC2089569
S1132AB0CF93DF93EB018D8D8F938C8D8F938B8DC3
S1132AC08F938A8D8F9389898F9388898F938F852C
S1132AD08F938E858F938D858F938C858F938B8524
S1132AE08F938A858F93CB014E969F938F9387E81C
S1132AF099E09F938F9332D2FE01EF5BFF4F8DB726
S1132B009EB740960FB6F8949EBF0FBE8DBF8081CE
S1132B10882399F08D8D8F938C8D8F938B8D8F93CC
S1132B208A8D8F9380EE99E09F938F9317D20F90A5
S1132B300F900F900F900F900F90DF91CF91089509
S1132B40FB01858D8F93848D8F93838D8F93828DDD
S1132B508F9381898F9380898F9387858F938685BF
S1132B608F9381811F928F938BE29AE09F938F932F
S1132B70F5D18DB79EB70C960FB6F8949EBF0FBED5
S1132B808DBF0895FB0181811F928F938DE89AE098
S1132B909F938F93E3D10F900F900F900F90089510
S1132BA0A1E21A2EAA1BBB1BFD010DC0AA1FBB1F4D
S1132BB0EE1FFF1FA217B307E407F50720F0A21BBF
S1132BC0B30BE40BF50B661F771F881F991F1A942C
S1132BD069F760957095809590959B01AC01BD0156
S1132BE0CF010895EE0FFF1F881F8BBF0790F6914A
S1132BF0E02D1994CF93DF938230910510F482E095
S1132C0090E0E091A818F091A91820E030E0C0E02D
S1132C10D0E0309711F14081518148175907C0F035
S1132C204817590761F482819381209719F09B8397
S1132C308A832BC09093A9188093A81826C02115C5
S1132C40310519F04217530718F49A01BE01DF0148
S1132C50EF010280F381E02DDCCF2115310509F16C
S1132C60281B390B2430310590F412968D919C91D8
S1132C7013976115710521F0FB019383828304C0CE
S1132C809093A9188093A818FD01329644C0FD01C1
S1132C90E20FF31F81939193225031092D933C93BA
S1132CA03AC02091A6183091A718232B41F4209103
S1132CB00202309103023093A7182093A6182091A2
S1132CC00002309101022115310541F42DB73EB7C0
S1132CD04091040250910502241B350BE091A61883
S1132CE0F091A718E217F307A0F42E1B3F0B281747
S1132CF0390778F0AC014E5F5F4F2417350748F071
S1132D004E0F5F1F5093A7184093A6188193919379
S1132D1002C0E0E0F0E0CF01DF91CF9108950F937E
S1132D201F93CF93DF93009709F48CC0FC01329773
S1132D30138212820091A8181091A9180115110587
S1132D4081F420813181820F931F2091A618309144
S1132D50A7182817390779F5F093A718E093A61850
S1132D6071C0D80140E050E0AE17BF0750F412968E
S1132D702D913C911397AD012115310509F1D9012C
S1132D80F3CF9D01DA013383228360817181860F41
S1132D90971F8217930769F4EC0128813981260F64
S1132DA0371F2E5F3F4F318320838A819B8193831A
S1132DB08283452B29F4F093A918E093A81842C004
S1132DC01396FC93EE931297ED01499159919E014C
S1132DD0240F351FE217F30771F480819181840F6A
S1132DE0951F029611969C938E93828193811396DC
S1132DF09C938E931297E0E0F0E0D80112968D91A7
S1132E009C911397009719F0F8018C01F6CF8D91DE
S1132E109C9198012E5F3F4F820F931F2091A6181B
S1132E203091A7182817390769F4309729F41092BC
S1132E30A9181092A81802C0138212821093A7181E
S1132E400093A618DF91CF911F910F91089542EB43
S1132E505AE05DC0FB01DC0104C08D910190801932
S1132E6021F441505040C8F7881B990B0895FB0189
S1132E70DC0102C001900D9241505040D8F70895F2
S1132E80FB01DC018D91019080190110D9F3990B9C
S1132E900895FB01DC0101900D920020E1F70895F3
S1132EA0FB01DC014150504030F08D9101908019BC
S1132EB019F40020B9F7881B990B0895FB01DC0174
S1132EC04150504048F001900D920020C9F701C0D4
S1132ED01D9241505040E0F70895FB015191552354
S1132EE0A9F0BF01DC014D9145174111E1F759F4F7
S1132EF0CD010190002049F04D9140154111C9F3D5
S1132F00FB014111EFCF81E090E001970895FA01B0
S1132F10A191B081009719F41097E1F0CD01DC0183
S1132F20CD010D90002011F4C00113C0FB012191CB
S1132F30222319F02015D9F7F3CFFB012191201595
S1132F4019F41E92119606C02223C1F70D90002099
S1132F50A1F7D001FA01A193B0830895CF93DF9331
S1132F60CDB7DEB7AE014A5F5F4FFA01619171914F
S1132F70AF018091AC189091AD1862D0DF91CF91E0
S1132F8008950F931F93CF93DF93E091AC18F091C2
S1132F90AD18238121FF1BC08C01D0E0C0E0F801F3
S1132FA081918F016091AC187091AD18DB01189676
S1132FB0ED91FC911997882331F01995892B79F3B8
S1132FC0DFEFCFEFECCF8AE01995892B19F08FEF63
S1132FD09FEF02C08D2F9C2FDF91CF911F910F91F6
S1132FE008950F931F93CF93DF93CDB7DEB72E973A
S1132FF00FB6F894DEBF0FBECDBF0E891F8986E0E1
S11330008C831A8309838FEF9FE79E838D83AE01A0
S1133010465E5F4F688D798DCE01019611D02F8168
S11330203885F801E20FF31F10822E960FB6F8943C
S1133030DEBF0FBECDBFDF91CF911F910F910895D9
S11330402F923F924F925F926F927F928F929F92B4
S1133050AF92BF92CF92DF92EF92FF920F931F93A2
S1133060CF93DF93CDB7DEB72C970FB6F894DEBFBE
S11330700FBECDBF7C016B018A01FC011782168251
S1133080838181FFB0C1CE0101964C01F701938188
S1133090F60193FD859193FF81916F01882309F4D3
S11330A09EC1853239F493FD859193FF81916F011F
S11330B0853221F4B70190E0C7D1E8CF512C312CEF
S11330C020E02032A0F48B3269F030F4803259F0E1
S11330D0833269F420612CC08D3239F0803339F4A5
S11330E0216026C02260246023C0286021C027FDFF
S11330F027C030ED380F3A3078F426FF06C0FAE0E6
S11331005F9E300D1124532E13C08AE0389E300D7B
S11331101124332E20620CC08E3221F426FD5FC1AF
S1133120206406C08C3611F4206802C0883641F44D
S1133130F60193FD859193FF81916F018111C1CFB8
S1133140982F9F7D9554933028F40C5F1F4FFFE315
S1133150F9830DC0833631F0833771F0833509F07C
S113316057C021C0F801808189830E5F1F4F44241A
S11331704394512C540114C03801F2E06F0E711CB9
S1133180F801A080B18026FF03C0652D70E002C065
S11331906FEF7FEFC5012C874CD12C0183012C8567
S11331A02F77222E16C03801F2E06F0E711CF80141
S11331B0A080B18026FF03C0652D70E002C06FEFD0
S11331C07FEFC5012C872AD12C012C852068222E63
S11331D0830123FC19C0832D90E048165906A0F4FE
S11331E0B70180E290E030D13A94F5CFF50127FCA5
S11331F0859127FE81915F01B70190E025D13110BF
S11332003A94F1E04F1A51084114510479F7DEC0A1
S1133210843611F0893631F5F80127FF07C0608143
S11332207181828193810C5F1F4F08C0608171811D
S1133230072E000C880B990B0E5F1F4F2F76722EF2
S113324097FF09C090958095709561957F4F8F4F3A
S11332509F4F2068722E2AE030E0A4012DD1A82EC1
S1133260A81843C0853729F42F7EB22E2AE030E017
S113327025C0F22FF97FBF2E8F36C1F018F48835A0
S113328079F0ADC0803719F0883721F0A8C02F2F0E
S11332902061B22EB4FE0DC08B2D8460B82E09C0FF
S11332A024FF0AC09F2F9660B92E06C028E030E0A4
S11332B005C020E130E002C020E132E0F801B7FEB1
S11332C007C060817181828193810C5F1F4F06C0AA
S11332D06081718180E090E00E5F1F4FA401ECD00B
S11332E0A82EA818FB2DFF777F2E76FE0BC0372D56
S11332F03E7FA51450F474FE0AC072FC08C0372D3A
S11333003E7E05C0BA2C372D03C0BA2C01C0B52CA3
S113331034FF0DC0FE01EA0DF11D8081803311F4EC
S1133320397E09C032FF06C0B394B39404C0832F1E
S1133330867809F0B39433FD12C030FF06C05A2CCE
S1133340B31418F4530C5B18B32CB31460F4B70122
S113335080E290E03C8778D0B3943C85F6CFB314F8
S113336010F43B1801C0312C34FF11C0B70180E3C5
S113337090E03C8769D03C8532FF16C031FD03C024
S113338088E790E002C088E590E0B7010CC0832F85
S1133390867851F031FF02C08BE201C080E237FD34
S11333A08DE2B70190E050D0A51430F4B70180E36A
S11333B090E04AD05A94F8CFAA94F401EA0DF11D92
S11333C08081B70190E040D0A110F6CF332009F4FA
S11333D05DCEB70180E290E037D03A94F7CFF701A1
S11333E08681978102C08FEF9FEF2C960FB6F894D9
S11333F0DEBF0FBECDBFDF91CF911F910F91FF9024
S1133400EF90DF90CF90BF90AF909F908F907F9080
S11334106F905F904F903F902F900895FC0105901E
S1133420615070400110D8F7809590958E0F9F1FC2
S11334300895FC016150704001900110D8F7809507
S113344090958E0F9F1F08950F931F93CF93DF9333
S1133450FB01238121FD03C08FEF9FEF28C022FFD2
S113346016C046815781248135814217530744F49D
S1133470A081B1819D012F5F3F4F318320838C93C5
S1133480268137812F5F3F4F3783268310C0EB019E
S1133490092F182F0084F185E02D1995892BE1F669
S11334A08E819F8101969F838E83812F902FDF9140
S11334B0CF911F910F910895FA01AA27283051F155
S11334C0203181F1E8946F936E7F6E5F7F4F8F4F51
S11334D09F4FAF4FB1E03ED0B4E03CD0670F781FB0
S11334E0891F9A1FA11D680F791F8A1F911DA11D95
S11334F06A0F711D811D911DA11D20D009F46894CE
S11335003F912AE0269F11243019305D3193DEF675
S1133510CF010895462F4770405D4193B3E00FD02B
S1133520C9F7F6CF462F4F70405D4A3318F0495D16
S113353031FD4052419302D0A9F7EACFB4E0A695F9
S11335409795879577956795BA95C9F7009761051B
S1133550710508959B01AC010A2E06945795479571
S113356037952795BA95C9F7620F731F841F951F66
S10B3570A01D0895F894FFCF9B
S11335780000B01820000000000200000000B21390
S1133588000000002E002B4349505354415F43551B
S1133598523A6970002B4349505354415F43555282
S11335A83A6E65746D61736B002B434950535441F3
S11335B85F4355523A67617465776179002B4349D3
S11335C8505354413A6970002B4349505354413A7B
S11335D86E65746D61736B002B4349505354413AC3
S11335E867617465776179002B43495041505F43A3
S11335F855523A6970002B43495041505F43555224
S11336083A6E65746D61736B002B43495041505F8A
S11336184355523A67617465776179002B43495081
S113362841503A6970002B43495041503A6E6574D1
S11336386D61736B002B43495041503A676174655F
S11336487761790053454E44204F4B0D0A0045528B
S1133658524F520D0A0072656164790D0A00627551
S1133668737920702E2E2E0D0A002B4950442C00FD
S11336787764742072657365740D0A005749464966
S113368820434F4E4E45435445440D0A005749467E
S11336984920444953434F4E4E4543540D0A00575D
S11336A849464920474F542049500D0A004448438D
S11336B8502054494D454F5554002C434F4E4E45C8
S11336C843540D0A00414C524541445920434F4E3E
S11336D84E45435445440D0A002C434C4F5345442E
S11336E80D0A002C434F4E4E454354204641494C45
S11336F80D0A002B43574A41503A002B43574A417D
S1133708505F4355523A002B43574A41505F002BB0
S1133718434950535441002B4349504150005345A9
S11337284E44204F4B002B4349505354414D414381
S1133738002B43495041504D4143003E20005C302A
S113374800436F6E74656E742D4C656E6774683AC9
S1133758200041542B434950434C4F534500415496
S11337682B434950434C4F53453D350D0A004154B2
S11337782B43575141500041542B43575141500D4D
S11337880A0041542B43574A41505F4355523F0D59
S11337980A002B4349505354415F43555200415446
S11337A82B4349505354415F4355523F0D0A002B54
S11337B843495041505F4355520041542B434950AB
S11337C841505F4355523F0D0A0041542B43495021
S11337D85354414D41433F0D0A0041542B43495032
S11337E841504D41433F0D0A0041542B5245535417
S11337F84F52450D0A00256C640041542B52465023
S11338084F5745523D0041542B4349505345525656
S113381845523D312C25640D0A0041542B4349502F
S11338285345525645520041542B4349505345522F
S11338385645523D300D0A0041542B4349505354C8
S11338484F3D25640D0A0041542B43575341503FC3
S11338580D0A0041542B43574D4F44455F4355527D
S11338683D25640D0A0041542B43574D4F444500F0
S113387841542B43575341505F4445463D222573D9
S1133888222C222573222C25642C25642C25642CB7
S113389825640D0A0041542B4357534150002573A6
S11338A83D25752C382C312C302C300D0A00415410
S11338B82B554152540041542B554152545F4355A2
S11338C8520041542B554152545F444546004154DB
S11338D82B534C4545503D002B534C454550004116
S11338E8542B47534C503D0041542B4349505345A6
S11338F84E4445583D002C323034380D0A004154AA
S11339082B43495053454E4445580041542B434991
S113391850434C4F53453D0041542B4349504D555A
S1133928583D25640D0A0041542B4349504D5558C0
S11339380041542B43495044494E464F3D25640D9C
S11339480A0041542B43495044494E464F004154C0
S11339582B43574A41505F4355523D2200220D0ADA
S11339680041542B43574A41505F4445463D220089
S11339783D22253032783A253032783A253032786B
S11339883A253032783A253032783A25303278225E
S11339980041542B4349505354414D41435F4355CF
S11339A8520041542B4349505354414D41435F44C1
S11339B845460041542B43495041504D41435F43D0
S11339C855520041542B43495041504D41435F44A3
S11339D845460041542B43575341505F4355523D8C
S11339E82200222C0041542B43574155544F434F36
S11339F84E4E3D0041542B43495053544152543D7B
S1133A08002C22544350222C22002C2253534C22A3
S1133A182C220041542B43495053534C53495A4583
S1133A283D0050726F6772616D20737461727465C2
S1133A3864212041544D4547412032353630206FAA
S1133A486E2041726475696E6F204D45474120624E
S1133A586F6172640D004572726F722074727969B5
S1133A686E6720746F20696E697469616C697A6520
S1133A782045535038323636206D6F64756C650DA9
S1133A8800496E697469616C697A6174696F6E2042
S1133A9866696E6973686564210D00594F55522033
S1133AA850415353574F524400594F555220535382
S1133AB849440073746D333266342D646973636FDB
S1133AC8766572792E636F6D0073746D3332663464
S1133AD8646973636F00446576696365206973205C
S1133AE872656164790D005761746368646F672057
S1133AF87265736574206465746563746564210D07
S1133B08005769666920697320646973636F6E6E10
S1133B186563746564210D005769666920697320BB
S1133B28636F6E6E6563746564210D00436F6E6E1A
S1133B38656374696F6E20746F2077696669206E97
S1133B486574776F726B20686173206661696C6550
S1133B58642E20526561736F6E2025640D0A005728
S1133B6869666920676F7420616E2049502061641A
S1133B7864726573730D004772616262696E6720CF
S1133B884950207374617475733A2025640D0A00D2
S1133B98576520686176652076616C6964204950B0
S1133BA820616464726573733A2025642E25642E3B
S1133BB825642E25640D0A00444843502074696D19
S1133BC8656F7574210D00576520686176652064FA
S1133BD8657465637465642025642041502073749A
S1133BE86174696F6E730D0A002532643A20257377
S1133BF80D0A00436C69656E7420636F6E6E6563AD
S1133C0874656420746F207365727665722120432D
S1133C186F6E6E656374696F6E206E756D62657222
S1133C283A2025730D0A00416E206572726F722066
S1133C386F63637572726564207768656E20747249
S1133C4879696E6720746F20636F6E6E6563742084
S1133C586F6E20636F6E6E656374696F6E3A2025AC
S1133C68640D0A00474554202F20485454502F31DE
S1133C782E310D0A00486F73743A2073746D333211
S1133C8866342D646973636F766572792E636F6D1C
S1133C980D0A00436F6E6E656374696F6E3A206334
S1133CA86C6F73650D0A00446174612073756363F6
S1133CB865737366756C6C792073656E74206173B3
S1133CC820636C69656E74210D004572726F7220F1
S1133CD87768696C652073656E64696E67206461D2
S1133CE87461206F6E20636F6E6E656374696F6EA6
S1133CF8202564210D0A004461746120726563659E
S1133D08697665642066726F6D2073657276657274
S1133D18206F6E20636F6E6E656374696F6E3A20F0
S1133D2825733B204E756D626572206F662062793B
S1133D387465732072656365697665643A20256CD9
S1133D48753B20256C75202F20256C753B0D0A00CA
S1133D58546869732069732066697273742070618A
S1133D68636B65742072656365697665642E2043A8
S1133D786F6E74656E74206C656E677468206F6E00
S1133D88207468697320636F6E6E656374696F6EFF
S1133D982069733A20256C750D0A00436C69656EB9
S1133DA87420636F6E6E656374696F6E20636C6FE5
S1133DB87365642C20636F6E6E656374696F6E3A05
S1133DC82025643B20546F74616C20627974657398
S1133DD82072656365697665643A20256C753B20B5
S1133DE8436F6E74656E742D4C656E6774682068D5
S1133DF865616465723A20256C750D0A0054696D15
S1133E08656F75742072656163686564206F6E20E0
S1133E18636F6E6E656374696F6E3A2025640D0A6C
S1053E28000094
S9030000FC
