S01E000030312D455350383236365F41544D4547415F323536302E7372656380
S113000093C00000B2C00000B0C00000AEC0000049
S1130010ACC00000AAC00000A8C00000A6C0000038
S1130020A4C00000A2C00000A0C000009EC0000048
S11300309CC000009AC0000098C0000096C0000058
S113004094C0000092C0000090C000008EC0000068
S11300508CC000000C94011D88C0000086C0000004
S113006084C000000C942F1D80C000007EC00000DE
S11300707CC000007AC0000078C0000076C0000098
S113008074C0000072C0000070C000006EC00000A8
S11300900C94B21C6AC0000068C0000066C0000076
S11300A064C0000062C0000060C000005EC00000C8
S11300B05CC000005AC0000058C0000056C00000D8
S11300C054C0000052C0000050C000004EC00000E8
S11300D04CC000004AC0000048C0000046C00000F8
S11300E044C00000500EB20EE80BB20E9D0DB00DD0
S11300F0500EC00D500EDE0D500EA40CB20E500E5C
S11301005E0E500E500EB20E230C500E500E620DA9
S1130110810D740E930E500EB20EB20EB20EB20ECC
S1130120500E500E500E120E11241FBECFEFD1E20E
S1130130DEBFCDBF00E00CBF1AE0A0E0B2E0EAEC05
S1130140F7E400E00BBF02C007900D92A239B1079B
S1130150D9F727E1A2E9BAE001C01D92AC3CB2078D
S1130160E1F70E94771D0C94E3234ACFCF93DF93EA
S1130170EC01892B21F182E1FE0111928A95E9F7C4
S1130180488359836A837B833D872C878AE08F87E2
S1130190232B81F4CA010E943C1F9D878C87892BE5
S11301A031F4188219821A821B8281E009C08E857B
S11301B082608E878E8581608E8780E001C081E0B9
S11301C0DF91CF910895CF92DF92EF92FF920F9338
S11301D01F93FC01892BC9F1048115812681378184
S11301E0C084D184E284F3840C151D052E053F05DB
S11301F029F480819181A281B38120C00C151D0551
S11302002E053F0538F4D701C601801B910BA20BC4
S1130210B30B03C080E090E0DC01C016D106E20617
S1130220F30660F480819181A281B3818C0D9D1DC0
S1130230AE1DBF1D801B910BA20BB30BBC01CD01E6
S1130240615071098109910903C060E070E0CB013C
S11302501F910F91FF90EF90DF90CF9008954F92F0
S11302605F926F927F928F929F92AF92BF92CF9242
S1130270DF92EF92FF920F931F93CF93DF93EC01E2
S11302808B0169017A01892B09F475C0232B242B76
S1130290252B09F475C088809980AA80BB808C8145
S11302A09D81AE81BF8188159905AA05BB0520F003
S11302B01C821D821E821F82CE0185DF6C157D0586
S11302C08E059F0540F4611571058105910509F4BA
S11302D05CC06B017C018C819D81AE81BF81B501C5
S11302E0A401481B590B6A0B7B0B460157014C15A3
S11302F05D056E057F0510F44A015B012C853D8583
S1130300820F931FA401B8010E9476208C819D81E5
S1130310AE81BF81880D991DAA1DBB1D8C839D8351
S1130320AE83BF8326013701481859086A087B0841
S113033061F0B801680D791DA2018C859D850E942C
S113034076204C825D826E827F824C815D816E81DB
S11303507F8188819981AA81BB81481759076A07DF
S11303607B0720F01C821D821E821F826C2D7D2D36
S11303708E2D9F2D0EC060E070E080E090E009C0FB
S113038060E070E080E090E004C060E070E080E055
S113039090E0DF91CF911F910F91FF90EF90DF904C
S11303A0CF90BF90AF909F908F907F906F905F9011
S11303B04F9008958F929F92AF92BF92CF92DF9207
S11303C0EF92FF920F931F93CF93DF93EC018B0176
S11303D069017A01892B09F469C0232B242B252B6D
S11303E009F469C088819981AA81BB814C815D81AE
S11303F06E817F81481759076A077B0720F01C82AA
S11304001D821E821F82488559856A857B8548170F
S113041059076A077B0720F0188619861A861B86F7
S1130420CE01D1DE6C157D058E059F0508F04DC00B
S1130430611571058105910509F442C06B017C01C8
S113044044C088859985AA85BB850097A105B10517
S113045061F488819981AA81BB810197A109B109BD
S113046088879987AA87BB8707C00197A109B10923
S113047088879987AA87BB87FB012291BF01EC85F6
S1130480FD8588859985E80FF91F2083F1E08F1A8F
S11304909108A108B1088FEF88169806A806B80637
S11304A081F66C2D7D2D8E2D9F2D1AC060E070E09D
S11304B080E090E015C060E070E080E090E010C063
S11304C060E070E080E090E00BC046015701E1E09D
S11304D08E1A9108A108B108B8016C0D7D1DB1CF29
S11304E0DF91CF911F910F91FF90EF90DF90CF900C
S11304F0BF90AF909F908F900895CF92DF92EF922C
S1130500FF920F931F93FC01892B59F1C480D5806E
S1130510E680F78000851185228533850C151D053D
S11305202E053F0538F4D701C601801B910BA20BA1
S1130530B30B03C080E090E0DC01C016D106E206F4
S1130540F30698F480819181A281B3818C0D9D1D65
S1130550AE1DBF1DBC01CD01601B710B820B930B43
S113056006C060E070E0CB0102C0BC01CD011F9168
S11305700F91FF90EF90DF90CF9008954F925F928C
S11305806F927F928F929F92AF92BF92CF92DF929F
S1130590EF92FF920F931F93CF93DF93EC018B01A4
S11305A069017A01892B09F476C0232B242B252B8E
S11305B009F476C088809980AA80BB808885998553
S11305C0AA85BB8588159905AA05BB0520F0188660
S11305D019861A861B86CE0190DF6C157D058E0563
S11305E09F0540F4611571058105910509F45DC00D
S11305F06B017C01488559856A857B85D501C401D9
S1130600841B950BA60BB70B460157018C159D0552
S1130610AE05BF0510F44C015D018C859D85BC01C0
S1130620640F751FA401C8010E94762088859985EE
S1130630AA85BB85880D991DAA1DBB1D888799872E
S1130640AA87BB8726013701481859086A087B081E
S113065061F0C801880D991D6C857D85A2010E94F9
S11306607620488659866A867B86488559856A85B8
S11306707B8588819981AA81BB81481759076A07BC
S11306807B0720F0188619861A861B866C2D7D2D13
S11306908E2D9F2D0EC060E070E080E090E009C0D8
S11306A060E070E080E090E004C060E070E080E032
S11306B090E0DF91CF911F910F91FF90EF90DF9029
S11306C0CF90BF90AF909F908F907F906F905F90EE
S11306D04F900895009749F0FC0114821582168208
S11306E01782108611861286138608956F927F9260
S11306F08F929F92AF92BF92CF92DF92EF92FF922E
S11307000F931F93CF93DF93009709F442C0C62F32
S11307108C01F3DE6B017C01F80140855185628513
S11307207385C114D104E104F104C1F18080918086
S1130730A280B380A485B58500E010E09801612C07
S1130740712CD0E090E0481559056A057B0520F02E
S1130750462D572D6D2F792FFD01E40FF51F808154
S11307608C1305C0602F712F822F932F1BC04F5FF6
S11307705F4F6F4F7F4F0F5F1F4F2F4F3F4FC0167D
S1130780D106E206F306F9F66FEF7FEF8FEF9FEFE6
S113079009C06FEF7FEF8FEF9FEF04C06FEF7FEF24
S11307A08FEF9FEFDF91CF911F910F91FF90EF900B
S11307B0DF90CF90BF90AF909F908F907F906F907D
S11307C008952F923F924F925F926F927F928F92F1
S11307D09F92AF92BF92CF92DF92EF92FF920F93CC
S11307E01F93CF93DF93CDB7DEB72D970FB6F89451
S11307F0DEBF0FBECDBF009709F4D7C069017A01EF
S1130800B72EA62E4C0179DE8B019C016C157D055B
S11308108E059F0508F4CDC0D40118964D915D91C5
S11308206D917C911B97011511052105310509F482
S1130830C4C04D905D906D907C9013971C968D91E3
S11308409C911D97A886B986E885F985A191F987B9
S1130850E887AE831F821A821B821C821D82E0E01D
S1130860312C212C19829C878B87EA8744155505E6
S11308706605770520F040E050E060E070E0EB852D
S1130880FC85E40FF51FE081BE81EB1709F499C0E4
S11308904F5F5F4F6F4F7F4F01501109210931099D
S11308A08A819B81AC81BD810196A11DB11D8A8382
S11308B09B83AC83BD839F81992309F46CC0A2E020
S11308C0CA16D104E104F10408F452C0011511055B
S11308D02105310509F48BC0E885F98588248394C2
S11308E0912CA12CB12C8B859C85BA85BD87441590
S11308F055056605770520F04D85532D622D7981C8
S1130900A191AA87DC01A40FB51FAC91BA85AB17DE
S1130910A1F09C878B87ED85EA878A819B81AC81D6
S1130920BD810197A109B109880D991DAA1DBB1D9F
S11309308A839B83AC83BD8320C04F5F5F4F6F4F1F
S11309407F4F0150110921093109AFEF8A1A9A0A20
S1130950AA0ABA0A8C149D04AE04BF0499F00115C6
S113096011052105310519F66FEF7FEFCB0147C063
S113097088248394912CA12CB12C8C149D04AE0456
S1130980BF0449F46A817B818C819D816150710926
S11309908109910934C0011511052105310509F0BA
S11309A065CF6FEF7FEFCB012AC06FEF7FEFCB01F5
S11309B026C06FEF7FEFCB0122C06FEF7FEFCB013B
S11309C01EC04F5F5F4F6F4F7F4F015011092109C8
S11309D031098A819B81AC81BD810196A11DB11D24
S11309E08A839B83AC83BD8391E09F8368CFCA9441
S11309F0CD28CE28CF2831F26FEF7FEFCB012D9693
S1130A000FB6F894DEBF0FBECDBFDF91CF911F911B
S1130A100F91FF90EF90DF90CF90BF90AF909F9099
S1130A208F907F906F905F904F903F902F9008959C
S1130A30FB0101900020E9F731979F01261B370B3A
S1130A4040E050E00CCC08952F923F924F925F9279
S1130A506F927F928F929F92AF92BF92CF92DF92CA
S1130A60EF92FF920F931F93CF93DF931F92CDB713
S1130A70DEB7009709F467C069017A011B018C0194
S1130A80A2DB2B013C01C80138DD4B015C01672B63
S1130A90682B692B09F45CC0F8016785C80126DE60
S1130AA0992354F445284628472831F08C149D0492
S1130AB0AE04BF0408F451C026013701F1E04F1A17
S1130AC051086108710829F17101812C912C54019C
S1130AD021E030E040E050E0BE016F5F7F4FC8018D
S1130AE04DDD8981F70181937F01F801978589178D
S1130AF051F0FFEF8F1A9F0AAF0ABF0A84149504BE
S1130B00A604B70428F3481459046A047B0469F45E
S1130B1003C0812C912C5401F101E80DF91D1082C0
S1130B20682D792D8A2D9B2D1CC08FEF881A980A69
S1130B30A80AB80AF101E80DF91D1082682D792D73
S1130B408A2D9B2D0EC060E070E080E090E009C02B
S1130B5060E070E080E090E004C060E070E080E07D
S1130B6090E00F90DF91CF911F910F91FF90EF9044
S1130B70DF90CF90BF90AF909F908F907F906F90B9
S1130B805F904F903F902F900895CF92DF92EF9215
S1130B90FF920F931F93FC01DB0180818D3219F4C6
S1130BA0319691E001C090E0008180ED800F8A30A1
S1130BB048F53196892F40E050E0BA01440F551FA3
S1130BC0661F771F6A017B01CC0CDD1CEE1CFF1C29
S1130BD0CC0CDD1CEE1CFF1C4C0D5D1D6E1D7F1D21
S1130BE010E000531109012E000C220B330B400FAF
S1130BF0511F621F731F8F5F019120ED200F2A3058
S1130C00E8F204C0892F40E050E0BA01109709F0DF
S1130C108C93992351F08A019B0166277727CB0196
S1130C20601B710B820B930B02C0CB01BA011F91A5
S1130C300F91FF90EF90DF90CF900895EF92FF9285
S1130C400F931F93CF93DF931F92CDB7DEB78C0121
S1130C508CE58983F80190819923D9F001C087013B
S1130C609C3221F0923211F09C3531F461E070E055
S1130C70CE0101960E94961C7801FFEFEF1AFF0A3D
S1130C8061E070E0C8010E94961CF8019181911105
S1130C90E6CF0F90DF91CF911F910F91FF90EF90CE
S1130CA00895AF92BF92CF92DF92EF92FF921F937B
S1130CB0CF93DF93CDB7DEB763970FB6F894DEBF5B
S1130CC00FBECDBFFC016B015A019FE0DE011496FB
S1130CD001900D929A95E1F71B8AAE014F5F5F4F29
S1130CE064E172E0CE0104960E94B020009701F501
S1130CF010E018C0BE016D5F7F4F47DFF7016193BD
S1130D007F018B81180FEC15FD0561F01F5FAE01AB
S1130D104F5F5F4F64E172E080E090E00E94B0209A
S1130D20009741F7A114B10479F0F50110830CC0C8
S1130D30BE016D5F7F4F29DFF60161937F011B8147
S1130D40F4E0CF0ED11CE2CF63960FB6F894DEBF69
S1130D500FBECDBFDF91CF911F91FF90EF90DF9039
S1130D60CF90BF90AF9008950F931F93CF93DF93CD
S1130D70EC018B014EE050E086E192E00E94882075
S1130D80892B09F46FC043E150E0B80185E292E099
S1130D900E948820892B09F479C043E150E0B8010E
S1130DA089E392E00E948820892B09F482C04AE0FA
S1130DB050E0B8018DE492E00E948820892B09F468
S1130DC053C04FE050E0B80188E592E00E948820CB
S1130DD0892B09F45DC04FE050E0B80188E692E049
S1130DE00E948820892B09F466C04DE050E0B801C8
S1130DF088E792E00E948820892B09F46DC042E1C3
S1130E0050E0B80186E892E00E948820892B09F41A
S1130E1076C042E150E0B80189E992E00E9488205E
S1130E20892B09F47FC049E050E0B8018CEA92E0D4
S1130E300E948820892B09F451C04EE050E0B8018B
S1130E4086EB92E00E948820892B09F45AC04EE078
S1130E5050E0B80185EC92E00E948820892B09F4C7
S1130E6063C072C02EE001C02AE0BE0167537F4F09
S1130E7030E0C901029640E050E0800F911F11DF7D
S1130E80C25BDE4F8881816088835EC083E101C0DC
S1130E908FE0BE016F527F4F90E0029640E050E039
S1130EA0800F911FFEDEC25BDE4F888182608883E3
S1130EB04BC083E101C08FE0BE0163537F4F90E0DC
S1130EC0029640E050E0800F911FEBDEC25BDE4FE4
S1130ED088818460888338C08DE001C089E0BE01C8
S1130EE065527F4F90E0029640E050E0800F911FE2
S1130EF0D8DEC25BDE4F88818061888325C082E1B1
S1130F0001C08EE0BE016D517F4F90E0029640E03B
S1130F1050E0800F911FC5DEC25BDE4F8881806286
S1130F20888312C082E101C08EE0BE0161527F4F0E
S1130F3090E0029640E050E0800F911FB2DEC25B69
S1130F40DE4F888180648883DF91CF911F910F9158
S1130F5008956F927F928F929F92AF92BF92CF9299
S1130F60DF92EF92FF920F931F93CF93DF931F9221
S1130F701F92CDB7DEB77B016A01AE014F5F5F4FB1
S1130F8067ED73E00E94B020009709F441C0870127
S1130F9026E0E20EF11CA12C612C712C812C912CE9
S1130FA0B12C382FE82FF92F862D972DA82DB92D88
S1130FB00FC029EA240F08C02FEB240F263018F4A1
S1130FC029EC240F01C02B2D820F911DA11DB11DF1
S1130FD05E2F531B419120ED240F2A3000F1242F62
S1130FE02F7D2154263060F1F80181938F01A50EE5
S1130FF0EE15FF0571F0A394AE014F5F5F4F67EDEF
S113100073E080E090E00E94B020009751F601C0A8
S1131010A12CC114D10451F1F601A08227C0880F7C
S1131020991FAA1FBB1F880F991FAA1FBB1F880FD8
S1131030991FAA1FBB1F880F991FAA1FBB1FC4CFCC
S1131040880F991FAA1FBB1F880F991FAA1FBB1FB8
S1131050880F991FAA1FBB1F880F991FAA1FBB1FA8
S11310602FE9240F263008F0A7CFA3CF0F900F90BD
S1131070DF91CF911F910F91FF90EF90DF90CF9070
S1131080BF90AF909F908F907F906F9008957F93C3
S11310906F935F934F9324ED32E03F932F939F938D
S11310A08F930E941A218DB79EB708960FB6F894B5
S11310B09EBF0FBE8DBF08954F925F926F927F9235
S11310C08F929F92AF92BF92CF92DF92EF92FF9254
S11310D00F931F93CF93DF931F921F92CDB7DEB769
S11310E0FC0186859785A089B189828B938BA48B1B
S11310F0B58B4230510549F4DB018C918D3029F4D4
S113110011968C918A3009F46CC6B22E6A017B0167
S11311108F0184819581A681B781892B8A2B8B2BA2
S113112009F459C0222309F456C06DED72E0C701D9
S11311300E947F20892B09F44EC068ED72E0C7013C
S11311400E947F20892B09F446C062EE72E0C70139
S11311500E947F20892B09F43EC06EEE72E0C70125
S113116001960E947F20892BB1F169EF72E0C701DB
S11311700E947F20892B79F161E073E0C7010E940E
S11311807F20892B79F169E073E0C7010E947F20F9
S1131190892B79F145E050E065E173E0C7010E94D5
S11311A08820892B31F1F80160857185FB0101905C
S11311B00020E9F73197AF01461B570BC7010E9486
S11311C08820892BB1F0B70186EA90E131DC60E038
S11311D070E0CB014FC661E073E0C7010E947F203D
S11311E0892B39F4F801E25BFE4F818180628183AF
S11311F0ECC06BE173E0C7010E947F20892B39F4B6
S1131200F801E25BFE4F818180648183DEC067E286
S113121073E0C7010E947F20892B41F4F801E25B4F
S1131220FE4F8181846080688183CFC068E373E06E
S1131230C7010E947F20892B09F5F801E25BFE4F6C
S113124081818B7F877F818382818160828389E131
S1131250BC97DF011D928A95E9F7F80117AA16AA2F
S1131260E75AFF4F11821082B39611821082B3960F
S113127011821082B39611821082A7C06AE473E0CF
S1131280C7010E947F20892B51F4F801E25BFE4FD5
S113129081818860818382818460828396C068E5CD
S11312A073E0C7010E947F20892B39F4F801E25BC7
S11312B0FE4F82818061828388C068ED72E0C7013D
S11312C00E949620892BF1F1D80114961D921D924B
S11312D01D921C92179780E090E033E2389FF00152
S11312E0399FF00D1124E00FF11F26A922FF22C01F
S11312F0389FF001399FF00D1124E00FF11F2B7F6F
S113130026AB21FF0CC0389FF001399FF00D11244A
S1131310E00FF11FF6962181216021830BC0389FD5
S1131320F001399FF00D1124E00FF11FF696218191
S11313302062218301968530910581F660E070E09A
S1131340CB0198C562EE72E0C7010E949620892BFA
S1131350E1F1F801148215821682178280E090E090
S113136023E2289FF001299FF00D1124E00FF11FC3
S113137036A932FF22C0289FF001299FF00D1124C5
S1131380E00FF11F3B7F36AB31FF0CC0289FF0010B
S1131390299FF00D1124E00FF11FF6963181326080
S11313A031830BC0289FF001299FF00D1124E00F19
S11313B0F11FF696318130643183019685309105B1
S11313C081F660E070E0CB0155C545E050E065E191
S11313D073E0C7010E948820892B09F0DEC081E0F8
S11313E0F801E55EFE4F80833696B082D7011596EC
S11313F08C91805331978083A82EB12C4801B3E29D
S11314008B9F800C911C112428EB30E1F40133A74D
S113141022A7828FBE016F5F7F4FC7010796B5DB9E
S1131420D40192966D937D938D939C939597969604
S11314308D919D910D90BC91A02D892B8A2B8B2B86
S113144069F483E28A9DF0018B9DF00D1124E00F75
S1131450F11F86A98F7E806286AB0BC083E28A9DD2
S1131460F0018B9DF00D1124E00FF11F86A98F7DF3
S113147086AB83E28A9DB0018B9D700D11245801C7
S1131480A60EB71EF50142A053A064A075A086A1C4
S113149097A1A0A5B1A5840D951DA61DB71D86A372
S11314A097A3A0A7B1A7F801E35CFE4F80819181C7
S11314B0A281B381840D951DA61DB71D80839183E0
S11314C0A283B3834980512CBFEF4B1A5B0A052CCE
S11314D0000C6608770843013201E7E06E0E711CC8
S11314E0811C911C635E7F4F600F711FC701860DC5
S11314F0971DAE014F5F5F4FD4DB4980512CFFEF46
S11315004F1A5F0AC201550CAA0BBB0B230134010D
S1131510480E591E6A1E7B1E4701840C951CBE0191
S11315206F5F7F4FC40131DBD5015C967C936E9372
S11315305B97F40180818A33E9F0A60160E070E0F2
S11315404416550666067706A8F4D301C20101962F
S1131550A11DB11DF701E80FF91F8FEF481A580AB2
S1131560680A780A81918A3329F04416550666067A
S1131570770698F3F801E25EFE4F118210823297EB
S1131580118210829FEF491A590A690A790AB60131
S11315906419750980E090E06DC4ABE0CA16D1040B
S11315A008F445C0F6013A975701AE0EBF1E4AE053
S11315B050E06EEE72E0C5010E946920892BB9F5F6
S11315C0A114B104A1F1F501229130E020533109B5
S11315D043E2429FC001439F900D1124D801A80FFC
S11315E0B91FD6964C91D6974160D6964C93D69710
S11315F0408140535A964C935A97F801EB5BFE4F47
S11316004A96800F911F91838083D6968C91D697AA
S113161081FDCDC0FD01D69611968C9111978068FD
S113162011968C9388EB90E193A782A7C0C065E6DE
S113163073E0C7010E949620892B09F0B8C0BAE074
S1131640CB16D10408F46EC0B60169507109570174
S1131650A60EB71E49E050E069E773E0C5010E9499
S11316606920892B09F05EC0A114B10409F45AC0A1
S1131670EA14FB0409F456C0F501319780819701FF
S11316802F5F3F4FA216B30609F040C090E0C09709
S113169023E2289FF001299FF00D1124E00FF11F90
S11316A026A921FB332730F917AA16AA20FF7FC0E9
S11316B023E2289FF001299FF00D1124E00FF11F70
S11316C026A926FF07C0F801E25BFE4F81818260F4
S11316D081836DC0332369F023E2289FF001299FA1
S11316E0F00D1124E00FF11FF6968181846081834F
S11316F05EC023E2289FF001299FF00D1124E00F22
S1131700F11FF69682818160828351C0B5016150D8
S113171071092AE030E040E050E086EA90E10E945E
S11317202F0145C0E1E1CE16D10408F440C0C60142
S11317300F9763E873E08E0D9F1D0E94962000971B
S1131740B1F1FC01829190E0C09723E2289FD0017F
S1131750299FB00D1124A00FB11FD7961C921E9281
S1131760D697208120535A962C935A97D6962C912B
S113177021FF1DC0D80114964D915D916D917C910E
S113178017974A3051056105710529F4F80114824F
S113179015821682178223E2289FF001299FF00DFB
S11317A01124E00FF11FF696818180618183F80195
S11317B084819581A681B781FC013197E232F105DC
S11317C008F0D0C28827EE58FF4F8F4F0C94341F77
S11317D047E050E063E973E0C7010E948820892B49
S11317E079F487EE92E0D80119969C938E9318971A
S11317F0F801E55CFE4FD70117968C9180538083E6
S11318006DED72E0C7010E947F20892B09F0F1C2BF
S1131810F801148215821682178267EE72E0C701FE
S11318200E947F20892B09F09DC2D80114961D9235
S11318301D921D921C921797F801E25BFE4F828164
S1131840826082838FC24BE050E06BE973E0C70192
S11318500E948820892B09F067C067EA73E0C701FA
S11318600E949620892B09F45FC0F70180818823A8
S113187009F45AC0823209F4C5C23196DF0181915C
S1131880882309F451C08232C9F7BDC221E0290F6F
S1131890BA01F801E90FF11DEE5DFE4F8083FA01F4
S11318A08191AF011196882381F0922FBA01615082
S11318B07109823259F7FA0120812C3239F72C91BF
S11318C0223221F7292F01C020E0F801E20FF11D97
S11318D0EE5DFE4F10826B01F3E0CF0ED11CAE0122
S11318E04E5F5F4FB8016E5C7E4FC60132DB2A81CA
S11318F030E02E5F3F4FC20ED31EBE016E5F7F4F9E
S1131900C60143D9F801E85CFE4F60838A8190E008
S11319100196BE016E5F7F4F8C0D9D1D36D9F80177
S1131920E75CFE4F718360836DED72E0C7010E9436
S11319307F20892B09F038C2D80114961D921D927C
S11319401D921C9217970EC246E050E06FEA73E0B6
S1131950C7010E948820892B09F0A4C0F701808167
S1131960882309F49FC08A3309F45CC2D701119615
S113197003C08A3309F457C2FD018D918111F9CF57
S113198091C09F012E5F3F4FD9018C91882321F193
S1131990F9013196B9016E5F7F4F90E00FC041E0CD
S11319A0490F9F01D801A90FB11DA151BF4F8C93BD
S11319B081916F5F7F4F882381F0942F9F01215085
S11319C03109823261F740814C3249F7DB014C9195
S11319D0423229F7492F01C040E0F801E40FF11D1C
S11319E0E151FF4F1082A9014D5F5F4FF9018381DF
S11319F08823D1F0349690E00DC021E0290FAF0187
S1131A00D801A90FB11DAD5FBE4F8C93819188237E
S1131A1061F0922FAF0141505109823271F7208158
S1131A202C3259F7292F01C020E0F801E20FF11DF3
S1131A30ED5FFE4F10826A01F2E0CF0ED11CBE01B1
S1131A406E5F7F4FC601A1D8F801E85EFE4F608348
S1131A504A8150E04F5F5F4FC40ED51EBE016E5FDA
S1131A607F4FC60192D8F801E95EFE4F60838A81F8
S1131A7090E00196C80ED91EBE016E5F7F4FC6016D
S1131A8084D8F801E75EFE4F60838A8190E0019676
S1131A90BE016E5F7F4F8C0D9D1D77D8F801E65E09
S1131AA0FE4F60836DED72E0C7010E947F20892B99
S1131AB009F07AC1D80114961D921D921D921C92B0
S1131AC0179750C147E050E066EB73E0C7010E94EE
S1131AD08820892B19F4B701C80146D96DED72E04D
S1131AE0C7010E947F20892B09F05EC1F80114828E
S1131AF0158216821782E25BFE4F828188608283A0
S1131B0031C146E050E06EEB73E0C7010E948820CB
S1131B10892B19F4B701C80127D96DED72E0C7010B
S1131B200E947F20892B09F03FC1D80114961D9291
S1131B301D921D921C92179715C16DED72E0C7019D
S1131B400E947F20892B09F02FC1F801148215828D
S1131B5016821782E351FF4F80813196808302C140
S1131B606DED72E0C7010E947F20892B09F01CC132
S1131B70D80114961D921D921D921C921797F2C0C3
S1131B806DED72E0C7010E947F20892B09F00CC122
S1131B908DE190E0A0E0B0E0F80184839583A68312
S1131BA0B783E25BFE4F81818160818385EC93E0A2
S1131BB0D80119969C938E931897D4C06DED72E05A
S1131BC0C7010E947F20892B09F042C1F8011482C9
S1131BD0158216821782EB5BFE4F0190F081E02D97
S1131BE0858D8860858F69EF72E0C7010E947F2030
S1131BF0892B09F024C1D80114961D921D921D92BF
S1131C001C921797F801EB5BFE4FA081B1815D96A2
S1131C101C921E925C970190F081E02D858D80616D
S1131C20858FA0C04BE050E06DEC73E0C7010E94CB
S1131C308820892B41F440E050E0B801675B7E4F77
S1131C40C7010B962ED86DED72E0C7010E947F206C
S1131C50892B09F006C1F8011482158216821782B5
S1131C6081E0E35BFE4F80833196828180628283D0
S1131C7069EF72E0C7010E947F20892B09F0DFC061
S1131C80D80114961D921D921D921C921797F8016B
S1131C90E35BFE4F1082319682818062828362C050
S1131CA06DED72E0C7010E947F20892B09F07CC092
S1131CB0F801148215821682178254C061E073E021
S1131CC0C7010E947F20892B09F04CC0D8011496CB
S1131CD01D921D921D921C921797F801E25BFE4F14
S1131CE08181826081833EC04AE050E069ED73E007
S1131CF0C7010E948820892B41F440E050E0B801DC
S1131D006B527F4FC7010C9624D96DED72E0C70169
S1131D100E947F20892B09F047C0F80114821582A4
S1131D20168217821FC049E050E064EE73E0C701D9
S1131D300E948820892B41F440E050E0B8016951A9
S1131D407F4FC7010B9605D96DED72E0C7010E9464
S1131D507F20892B49F5D80114961D921D921D925E
S1131D601C9217976DED72E0C7010E947F20892BAA
S1131D70D9F4F801E25BFE4F818182608183F8012E
S1131D8084819581A681B7810897A105B10561F089
S1131D9084819581A681B7814D97A105B10521F074
S1131DA0148215821682178269EF72E0C7010E94BD
S1131DB07F20892B39F069E073E0C7010E947F20FE
S1131DC0892B99F4F801E25BFE4F81818D7F818339
S1131DD0F801148215821682178260E070E0CB014C
S1131DE049C060E070E0CB0145C060E070E0CB0129
S1131DF041C067EE72E0C7010E947F20892B09F47D
S1131E0014CDD2CFD701BD016F5F7F4F11968C9156
S1131E101197882309F458CDAD014E5F5F4F139697
S1131E2090E044CDF701D801A151BF4F1C928181AC
S1131E30823209F4A6CD9F012F5F3F4FA5CD6DEDF2
S1131E4072E0C7010E947F20892B09F492CFB3CF9F
S1131E5069EF72E0C7010E947F20892B09F4CBCE81
S1131E60AACF69EF72E0C7010E947F20892B09F491
S1131E7007CFA1CF0F900F90DF91CF911F910F91BA
S1131E80FF90EF90DF90CF90BF90AF909F908F9096
S1131E907F906F905F904F9008950F931F93FC0174
S1131EA00685178520893189400F511F621F731FD2
S1131EB046875787608B718B1F910F9108959B0103
S1131EC040E050E0BC0184E990E10E942F01CB0185
S1131ED0089508950895089580E090E00895089580
S1131EE0089508952F923F924F925F927F928F921E
S1131EF09F92AF92BF92CF92DF92EF92FF920F9395
S1131F001F93CF93DF93CDB7DEB7C358D1090FB674
S1131F10F894DEBF0FBECDBFFC01DC01A15BBE4F58
S1131F208C9184FF25C006851785208931894685D3
S1131F3057856089718913968D919C91A0E0B0E0DA
S1131F40401B510B620B730B84179507A607B70749
S1131F5008F49CC54685578560897189401B510BDF
S1131F60620B730B84179507A607B70798F790C5FC
S1131F70DF01A25BBE4F11968C911197806111967F
S1131F808C9386899789A08DB18D892B8A2B8B2B75
S1131F9041F480E395E7A0E0B0E0868B978BA08FB7
S1131FA0B18F8F0186859785A089B1894285538534
S1131FB064857585841B950BA60BB70B46895789D9
S1131FC0608D718D481759076A077B0718F584815E
S1131FD09581A681B78114821582168217828A3070
S1131FE0C9F4E45CFE4F8081F3E28F02C001112446
S1131FF0F801E80FF91F17AA16AA4A96B801680F44
S1132000791FC8010E94041FF801E25BFE4F818121
S11320108D7F8183F801E55EFE4F8081811150C080
S1132020A4E9B0E11C96ED91FC911D9718968D9151
S11320309C911997E80FF91F80818B3209F040C0F9
S113204025E030E040E050E065E173E0CD010E941E
S1132050E103672B682B692B99F521E030E040E020
S113206050E067ED73E084E990E10E94E1036B01C5
S11320707C0121E0C21AD108E108F10832E2C3165A
S1132080D104E104F104E0F49B01AC012F5F3F4F64
S11320904F4F5F4FBE016E5F7F4F84E990E10E9416
S11320A0BE02E2E0F0E0EC0FFD1FE60FF71F108226
S11320B021E0AB01BE016E5F7F4FC8010E945C0846
S11320C0F80184819581A681B7814D97A105B10559
S11320D009F0A0C0E15BFE4F808180FF9BC022E03D
S11320E030E040E050E06EEE73E084E990E10E945D
S11320F0E103772374F0672B41F522E030E040E000
S113210050E0BE016E577F4F84E990E10E94BE0209
S11321101CC022E030E040E050E06EEE73E086EA5E
S113212090E10E94E1036115710561F422E030E061
S113213040E050E0BE016E577F4F86EA90E10E9476
S1132140BE0203C077230CF465C0F801EB5BFE4FBD
S1132150E080F180399681818E7F81838DE190E0EA
S1132160A0E0B0E0F80184839583A683B783D70108
S11321705C968C915C9786FF0AC05F96AD90BC908C
S1132180909791968C91919792969C9113C0F70198
S1132190A088B18881FF08C024EB35E0A501B70110
S11321A0C8010E94521E06C024EB35E0A501B70108
S11321B0C80192DEC82ED92EF5EBCF16F5E0DF0666
S11321C030F00F2EF4EBCF2EF5E0DF2EF02DC114FE
S11321D0D10499F0B601C5010E94961CF801EF5B89
S11321E0FE4F80819181A281B3818C0D9D1DA11D23
S11321F0B11D80839183A283B38362E070E081EF99
S113220093E00E94961CD7015C968C915C97846045
S11322105C968C93F80184819581A681B78141975E
S1132220A105B10511F5E55EFE4F808181111DC048
S113223024E030E040E050E06DED72E084E990E1AC
S11322400E94E10399238CF084E990E10E946A03DF
S1132250D80114961D921D921D921C921797F80195
S1132260E25BFE4F8181826081837801B5EEEB1AD7
S1132270BEEFFB0A5E01E2E0AE0EB11C8A2C9B2C81
S113228017C021E0AB01682D792DC8010E945C08BC
S1132290FB01EF2B69F09B01AC0144275527C61ABB
S11322A0D70AB5016C0D7D1D84E990E10E94DA0125
S11322B0D7018C91882361F06801B5EECB1ABEEF8B
S11322C0DB0A5E01E2E0AE0EB11C8A2C9B2C26C018
S11322D020E830E040E050E0682D792D84E990E179
S11322E00E9424056B016115710559F6E5CF20E0C4
S11322F0AB01682D792DC8010E945C08FB01EF2B0E
S113230069F09B01AC0144275527E61AF70AB50189
S11323106E0D7F1D86EA90E10E94DA01D6018C9150
S113232081111FC0F80184819581A681B781892B11
S11323308A2B8B2B09F053C120E830E040E050E0B9
S1132340682D792D86EA90E10E9424057B016115B0
S1132350710569F6F801E55EFE4F8081882309F472
S11323603EC1F801EF5DFE4F8081811107C00F2E41
S1132370F6EA8F2EF0E19F2EF02D06C00F2EF4E921
S11323808F2EF0E19F2EF02D6801F0EECF1AFEEFB4
S1132390DF0A580122EEA21A2EEFB20A0F2EF3E240
S11323A07F2EF02D780134EEE31A3EEFF30A89C054
S11323B021E030E040E050E0BE016F5F7F4FC40198
S11323C00E94BE022981D6018C91F801789EE00D0D
S11323D0F11D112402A4F3A5E02DD7018D919C9148
S11323E01197E80FF91F20838D919C911197019605
S11323F08D939C93F501208131812F5F3F4F318371
S11324002083843BF5E09F0708F45BC0D601EC9180
S1132410AC0160E070E0D8017E9EA00DB11D1124D6
S1132420FD0122A033A044A055A042155305640524
S1132430750509F446C0FD0195A784A722A533A517
S1132440F901E80FF91F1082F6018081282F30E08E
S1132450F801789EE00DF11D112486A9877F86ABD3
S113246081FF12C0729EB001739E700D1124F80199
S1132470E60FF71F42A553A5665E7F4F600F711FDD
S1132480C8010E949C1E10C0729EB001739E700D04
S11324901124F801E60FF71F42A553A5665E7F4F8E
S11324A0600F711FC80117DDD7011D921C92F60140
S11324B08081F801789EE00DF11D112486A98F7D9D
S11324C086ABD6012C91F50180819181A0E0B0E02A
S11324D0F801729EE00DF11D112442A153A164A1E3
S11324E075A184179507A607B70708F0D3C2C401DE
S11324F00E947D02672B682B692B09F059CFF801E4
S1132500E05EFE4F2081329780819181A0E0B0E0AF
S1132510E22EF12CF80133E2239FE00DF11D11248A
S113252042A153A164A175A184179507A607B70713
S113253008F455C0F801E55EFE4F108283E28E9DDB
S1132540F0018F9DF00D1124E00FF11FD801A45E5E
S1132550BE4F8D919C9195A784A786A9886086AB70
S113256085FF30C083E28E9DF0018F9DF00D112414
S1132570E00FF11FC2A4D3A464EF73E0C6010E946C
S11325809620009739F464E074E0C6010E94962016
S11325900097C1F0DC011F962C91203211F00F96A8
S11325A001C0409660E070E00E94C50523E22E9DC4
S11325B0F0012F9DF00D1124E00FF11F66A777A7FE
S11325C080AB91ABF801E05EFE4F8081F801B3E28D
S11325D08B9FE00DF11D112486A9806886ABF8015C
S11325E0E25BFE4F81818F7E818385FF11C0F801FC
S11325F084819581A681B781892B8A2B8B2B41F409
S1132600E25BFE4F81818F7D8183C8010E94CF1DD3
S1132610F801E15BFE4F808186FF11C0F8018481DF
S11326209581A681B781892B8A2B8B2B41F4E25BA0
S1132630FE4F81818F7B8183C8010E94D31DF801E5
S1132640E15BFE4F808188238CF4F80184819581BD
S1132650A681B781892B8A2B8B2B41F4E25BFE4F39
S113266081818F778183C8010E94DB1DF801E05BC3
S1132670FE4F808180FF11C0F80184819581A6817D
S1132680B781892B8A2B8B2B41F4E25BFE4F82812D
S11326908E7F8283C8010E94D71DF801E05BFE4F44
S11326A0808182FF11C0F80184819581A681B78160
S11326B0892B8A2B8B2B41F4E25BFE4F82818B7F2B
S11326C08283C8010E94EF1DF801E05BFE4F808108
S11326D084FF11C0F80184819581A681B781892B7B
S11326E08A2B8B2B41F4E25BFE4F82818F7E8283A7
S11326F0C8010E94251EF801E05BFE4F808181FF26
S113270011C0F80184819581A681B781892B8A2B18
S11327108B2B41F4E25BFE4F82818D7F8283C80163
S11327200E94DF1DF801E05BFE4F808183FF11C032
S1132730F80184819581A681B781892B8A2B8B2B03
S113274041F4E25BFE4F8281877F8283C8010E944D
S1132750051EF801E05BFE4F808185FF9EC1F801F4
S113276084819581A681B781892B8A2B8B2B09F0D3
S113277094C1E25BFE4F82818F7D8283B801695BE5
S11327807E4FC801AEDB89C16501FA9CF001FB9C58
S1132790F00D1124E00FF11F86A980FF38C08823B3
S11327A0B4F581FD0AC0F80184819581A681B781C1
S11327B0892B8A2B8B2B09F058C1FC9CF001FD9CC2
S11327C0F00D1124E00FF11F86A98F7786ABD40199
S11327D050962D913C91519752968D919C9153977F
S11327E0D901A80FB91F1C9286A981FF08C0F40162
S11327F040895189B401C8010E949C1E08C0D401BB
S113280050964D915C915197B401C80164DBFC9CD6
S1132810F001FD9CF00D1124E00FF11F87A980FF4A
S113282018C0F80184819581A681B781892B8A2BF0
S11328308B2B79F4FC9CF001FD9CF00D1124E00F2E
S1132840F11FF69681818E7F8183B401C8010E94B5
S11328508A1EFC9CF001FD9CF00D1124E00FF11F79
S113286087A981FF18C0F80184819581A681B78169
S1132870892B8A2B8B2B79F4FC9CF001FD9CF00DA9
S11328801124E00FF11FF69681818D7F8183B401BD
S1132890C8010E948E1EFC9CF001FD9CF00D1124C9
S11328A0E00FF11F87A982FF18C0F8018481958188
S11328B0A681B781892B8A2B8B2B79F4FC9CF001A0
S11328C0FD9CF00D1124E00FF11FF69681818B7FA2
S11328D08183B401C8010E94E21EFC9CF001FD9CAE
S11328E0F00D1124E00FF11F87A983FF18C0F80130
S11328F084819581A681B781892B8A2B8B2B79F4CE
S1132900FC9CF001FD9CF00D1124E00FF11FF696E4
S11329108181877F8183B401C8010E94291EFC9CA8
S1132920F001FD9CF00D1124E00FF11F87A984FF35
S113293018C0F80184819581A681B781892B8A2BDF
S11329408B2B79F4FC9CF001FD9CF00D1124E00F1D
S1132950F11FF69681818F7E8183B401C8010E94A4
S1132960441EFC9CF001FD9CF00D1124E00FF11FAE
S113297087A985FF17C0F80184819581A681B78155
S1132980892B8A2B8B2B71F4FC9CF001FD9CF00DA0
S11329901124E00FF11FF69681818F7D8183B401AC
S11329A0C8019DDAFC9CF001FD9CF00D1124E00FA0
S11329B0F11F87A986FF17C0F80184819581A6813C
S11329C0B781892B8A2B8B2B71F4FC9CF001FD9C25
S11329D0F00D1124E00FF11FF69681818F7B818326
S11329E0B401C8017DDAFC9CF001FD9CF00D1124BA
S11329F0E00FF11F87A98823BCF4F8018481958135
S1132A00A681B781892B8A2B8B2B71F4FC9CF00156
S1132A10FD9CF00D1124E00FF11FF69681818F7754
S1132A208183B401C80155DAFC9CF001FD9CF00DD2
S1132A301124E00FF11F80AD80FF17C0F8018481DD
S1132A409581A681B781892B8A2B8B2B71F4FC9CF1
S1132A50F001FD9CF00D1124E00FF11FF696828128
S1132A608E7F8283B401C80135DAFFEFAF1ABF0A43
S1132A7023E2820E911C35E0A316B10409F084CE42
S1132A80F801EC5AFE4F108280E012C086E010C0BC
S1132A9086E00EC0E22EF12C4DCD48018AE1880E6D
S1132AA0911CA12CB12C0F2EF3E2FF2EF02D6CCE35
S1132AB0CD57DF4F0FB6F894DEBF0FBECDBFDF9109
S1132AC0CF911F910F91FF90EF90DF90CF90BF9027
S1132AD0AF909F908F907F905F904F903F902F90FA
S1132AE008958F929F92AF92BF92EF92FF920F93AD
S1132AF01F93CF93DF93EC017A01C9010C811D81EF
S1132B002E813F81012B022B032B69F08C809D8049
S1132B10AE80BF80062F10E020E030E080169106E2
S1132B20A206B30631F4FE01E55EFE4F20812223A6
S1132B3039F0CE01D7D9CC5ADE4F86E0888329C03C
S1132B40062F10E020E030E00C831D832E833F83AA
S1132B5099878887613121F484E990E10E946A03AE
S1132B60E114F10451F0F70101900020E9F73197E5
S1132B70BF016E197F09C701D9D68E859F85A889A3
S1132B80B9898A879B87AC87BD87CC5ADE4F188268
S1132B9080E0DF91CF911F910F91FF90EF90BF9054
S1132BA0AF909F908F900895CF93DF93EC01CE0167
S1132BB099D98C819D81AE81BF81892B8A2B8B2BE6
S1132BC0B1F7CC5ADE4F188280E0DF91CF9108959F
S1132BD0CF93DF93EC018C819D81AE81BF81892BE2
S1132BE08A2B8B2B31F4FE01E55EFE4F8081882316
S1132BF039F0CE0177D9CC5ADE4F86E0888307C0FE
S1132C0024E134E04DE154E061E0CE016ADFDF917C
S1132C10CF910895CF92DF92EF92FF920F931F937B
S1132C20CF93DF93EC016B017A010C811D812E811E
S1132C303F81012B022B032B31F4FC01E55EFE4F97
S1132C408081882339F0CE014DD9CC5ADE4F86E0FD
S1132C50888324C083E090E0A0E0B0E08C839D836F
S1132C60AE83BF836EE070E088E294E05FD6C60175
S1132C700E941E0663E070E087E394E057D6C70124
S1132C800E941E0663E070E08BE394E04FD623E9D4
S1132C9033E040E050E063E0CE0123DFDF91CF91E9
S1132CA01F910F91FF90EF90DF90CF900895CF93F5
S1132CB0DF93EC018C819D81AE81BF81892B8A2BAE
S1132CC08B2B31F4FE01E55EFE4F8081882339F0C1
S1132CD0CE0108D9CC5ADE4F86E0888307C02BE9A1
S1132CE033E04EE454E063E1CE01FBDEDF91CF91AB
S1132CF00895EF92FF920F931F93CF93DF931F9248
S1132D00CDB7DEB78C017B01FC0184819581A6815E
S1132D10B781892B8A2B8B2B29F4E55EFE4F8081AA
S1132D20882341F0C801DED8F801EC5AFE4F86E052
S1132D30808331C088E090E0A0E0B0E0F8018483B3
S1132D409583A683B783FB018081805D89836DE0D1
S1132D5070E08CEB94E0EAD561E070E0CE0101967E
S1132D60E5D567E070E08AEC94E0E0D520E030E05F
S1132D7040E050E068E0C801B4DE882329F0F8019F
S1132D80EC5AFE4F808107C0F801EB5BFE4FF182E5
S1132D90E0823F9680810F90DF91CF911F910F9138
S1132DA0FF90EF900895EF92FF920F931F93CF93AC
S1132DB0DF93CDB7DEB727970FB6F894DEBF0FBE0B
S1132DC0CDBF8C01FC0184819581A681B781892BBB
S1132DD08A2B8B2B29F4E55EFE4F8081882361F0DA
S1132DE0C80180D8F801EC5AFE4F86E080830F2E8C
S1132DF0F6E0FF2EF02D46C086E090E0A0E0B0E0C3
S1132E00F80184839583A683B783AB0160E070E007
S1132E10CE0101967C010E9447086FE070E08FEEBE
S1132E2094E084D5F70101900020E9F73197BF01C0
S1132E306E197F09C7017AD562E070E084E699E0F3
S1132E4075D520E030E040E050E066E0C80149DE9E
S1132E50F82E882329F0F801EC5AFE4FF08012C0B6
S1132E60C801A2DEF801E15BFE4F808181FD06C04E
S1132E70359681E08083FF24F39404C0F801EC5A72
S1132E80FE4F10828F2D27960FB6F894DEBF0FBE2B
S1132E90CDBFDF91CF911F910F91FF90EF900895D7
S1132EA0CF93DF93EC018C819D81AE81BF81892B0F
S1132EB08A2B8B2B31F4FE01E55EFE4F8081882343
S1132EC039F0CE010FD8CC5ADE4F86E0888313C088
S1132ED02BE135E047E255E066E1CE0102DEFE017A
S1132EE0EC5AFE4F8081811106C0C25BDE4F98818F
S1132EF09C7F9B7F9883DF91CF910895CF93DF933D
S1132F00EC018C819D81AE81BF81892B8A2B8B2B17
S1132F1031F4FE01E55EFE4F8081882341F0CE014D
S1132F200E94720FCC5ADE4F86E0888313C028E3D8
S1132F3035E043E455E067E1CE01D3DDFE01EC5A10
S1132F40FE4F8081811106C0C25BDE4F98819F7C59
S1132F509F7B9883DF91CF910895CF93DF93EC010A
S1132F608C819D81AE81BF81892B8A2B8B2B31F47F
S1132F70FE01E55EFE4F8081882341F0CE010E9470
S1132F80720FCC5ADE4F86E0888312C029ED33E0FD
S1132F9043E555E068E1CE01A4DDFE01EC5AFE4FA5
S1132FA08081811105C0C25BDE4F9881977F988331
S1132FB0DF91CF910895CF93DF93EC018C819D81B4
S1132FC0AE81BF81892B8A2B8B2B31F4FE01E55E08
S1132FD0FE4F8081882341F0CE010E94720FCC5AAB
S1132FE0DE4F86E0888312C024EE33E04AE855E0E1
S1132FF069E1CE0176DDFE01EC5AFE4F808181113C
S113300005C0C25BDE4F98819F779883DF91CF9193
S11330100895CF93DF93EC018C819D81AE81BF81B4
S1133020892B8A2B8B2B31F4FE01E55EFE4F8081C8
S1133030882341F0CE010E94720FCC5ADE4F86E005
S113304088830FC02FEA33E049EB55E06CE0CE01F2
S113305048DD882321F0CC5ADE4F888102C0CE019E
S1133060A3DDDF91CF910895FF920F931F93CF9328
S1133070DF931F92CDB7DEB78C01F62E6983FC0176
S113308084819581A681B781892B8A2B8B2B29F486
S1133090E55EFE4F8081882349F0C8010E94720FCB
S11330A0F801EC5AFE4F86E080833CC085E090E056
S11330B0A0E0B0E0F80184839583A683B78380E31E
S11330C0860F89836EE070E085EC95E02FD461E093
S11330D070E0CE0101962AD462E070E084E699E0C3
S11330E025D424ED35E040E050E065E0C801F9DC8A
S11330F0882329F0F801EC5AFE4F808113C0F801AF
S1133100E351FF4FF082C8014FDDF801E251FF4F58
S113311080818F1529F0EA59FF4F81E0808302C036
S1133120C80177DF0F90DF91CF911F910F91FF902E
S113313008952F923F924F925F926F927F928F9257
S11331409F92AF92BF92CF92DF92EF92FF920F9332
S11331501F93CF93DF93CDB7DEB729970FB6F894BB
S1133160DEBF0FBECDBF8C016A017B01FC01168A54
S1133170178A108E118E23E93EE041E052E060E0B0
S113318070E086EA90E10E94B600882331F0F801ED
S1133190EC5AFE4F84E08083AFC122E93AE041E07B
S11331A054E060E070E084E990E10E94B600882376
S11331B031F0F801EC5AFE4F84E080839DC188EE23
S11331C093E0F801EE5AFE4F91838083279A2F985B
S11331D0F80186859785A089B1898D839E83AF8305
S11331E0B887F80186859785A089B1894D815E816C
S11331F06F817885841B950BA60BB70B84369105DC
S1133200A105B10570F32F9A86859785A089B189A8
S113321089839A83AB83BC83F80186859785A089CB
S1133220B18949815A816B817C81841B950BA60BE2
S1133230B70B84369105A105B10570F3C082D18224
S1133240E282F382C701B6011DD388EB9BE0A0E0C4
S1133250B0E0F801868B978BA08FB18F21E033E02B
S11332604EED55E06FE0C8013CDCC8019DDCF8017F
S1133270E15BFE4F808181FD38C00F2EF2E8EF2E16
S1133280F6E0FF2EF02D0F2EF2E92F2EF6E03F2E62
S1133290F02D0F2EF4E64F2E512C612C712CF02DB5
S11332A06F01F70181909190A190B1907F01C501C8
S11332B0B401E8D2F801468A578A608E718E21E003
S11332C033E04EED55E06FE0C8010BDCC8016CDC67
S11332D0F601808181FF06C0F80180829182A2827A
S11332E0B38203C0E214F304E1F680E395E7A0E0BF
S11332F0B0E0F801868B978BA08FB18FE15BFE4F16
S1133300808181FD04C0359682E08083F5C02DED77
S113331032E047EE55E06EE0C801E3DBC80144DC6F
S1133320F801E15BFE4F808181FD04C0359682E0A7
S11333308083E2C02CEE35E041EF55E06DE0C8013A
S1133340D0DBC80131DC0F2EF1E3DF2EF02D780144
S1133350FCEAEF1AFEEFFF0A0F2EF6E0CF2EF02D57
S1133360580185EEA81A8EEFB80A0F2EFBE02F2E17
S1133370312C412C512CF02D4801E1EB8E1AEEEF4B
S11333809E0A77247394D986F80184819581A68155
S1133390B781892B8A2B8B2B21F4F501808188231B
S11333A031F0C8010E94720FF701C082ECCFF8011E
S11333B024823582468257826AE070E088EF95E085
S11333C0B5D261E070E0CE010996B0D262E070E05F
S11333D084E699E0ABD220E030E040E050E06BE0DE
S11333E0C8017FDB882329F0F70180818111CBCFCD
S11333F00DC0C801D9DBF401808181FD03C0F70150
S11334007082C1CFF801EC5AFE4F10820F2EF1E307
S1133410DF2EF02D7801FCEAEF1AFEEFFF0A0F2EE3
S1133420F6E0CF2EF02D580185EEA81A8EEFB80ADB
S11334300F2EF7E02F2E312C412C512CF02D48016A
S1133440E1EB8E1AEEEF9E0A77247394D986F80185
S113345084819581A681B781892B8A2B8B2B21F4BA
S1133460F5018081882331F0C8010E94720FF701B1
S1133470C082ECCFF80124823582468257826CE008
S113348070E083E096E052D261E070E0CE010996EC
S11334904DD262E070E084E699E048D220E030E06A
S11334A040E050E067E0C8011CDB882329F0F70105
S11334B080818111CBCF0DC0C80176DBF4018081FE
S11334C081FD03C0F7017082C1CFF801EC5AFE4FB1
S11334D0108263E0C801C8DD8111FBCFC8013DDD66
S11334E08111FCCFC80167DD8111FCCFC80106DD65
S11334F08111FCCFC80158DB29960FB6F894DEBFC2
S11335000FBECDBFDF91CF911F910F91FF90EF9030
S1133510DF90CF90BF90AF909F908F907F906F90EF
S11335205F904F903F902F9008952F923F924F922B
S11335305F926F927F928F929F92AF92BF92CF923F
S1133540DF92EF92FF920F931F93CF93DF93CDB748
S1133550DEB72A970FB6F894DEBF0FBECDBF3C018D
S113356079876887342E29018FEF8983F301848159
S11335709581A681B781892B8A2B8B2B29F4E55E53
S1133580FE4F8081882369F0C3010E94720FF3010A
S1133590EC5AFE4F86E080830F2EF6E0FF2EF02DCE
S11335A034C1F301E15BFE4F808182FD08C0359692
S11335B085E080830F2EF5E0FF2EF02D26C1F2E08A
S11335C04F131CC1D301919680E090E033E2389F01
S11335D0F001399FF00D1124E60DF71D26A920FFF7
S11335E00BC02C91223041F4F301EC5AFE4F81E0E0
S11335F08083FF24F39409C1019693968530910545
S113360031F7FCC081E090E033E2282E389FF001CE
S1133610399FF00D1124E60DF71D26A920FD05C0E4
S11336208A878FEF281206C0E1C001968530910584
S113363061F7DCC08AE090E0A0E0B0E0F3018483AD
S11336409583A683B7838A85805D89836CE070E067
S113365080E496E06BD161E070E0CE01019666D122
S113366062E070E088E394E061D1F201019000200F
S1133670E9F73197BF0164197509C20157D163E0B5
S113368070E087E394E052D1F70101900020E9F75C
S11336903197BF016E197F09C70148D162E070E01C
S11336A08FE196E043D1A60160E070E07E01F2E094
S11336B0EF0EF11CC7010E944708F701019000209A
S11336C0E9F73197BF016E197F09C7012FD181E056
S11336D0381218C0A114B104A9F0A50160E070E08B
S11336E0C7010E94470861E070E080E296E01ED1C5
S11336F0F70101900020E9F73197BF016E197F09A6
S1133700C70114D162E070E084E699E00FD120E0B3
S113371030E040E050E06AE0C301E3D9F82E8823AA
S113372029F0F301EC5AFE4FF0806FC08981805379
S11337308983222D30E0F30193E2299EE00DF11DEF
S1133740112496A99160926096AB41E098A19111E1
S113375001C040E096A940FB96F996AB93E2929F94
S1133760F001939FF00D1124E60DF71D31A216A26E
S113377017A210A611A6828F88EB90E193A782A7C7
S1133780D301A45CBE4F8A858C9313AB02AB95AA7C
S113379084AAE885F985309759F043E2429FC00135
S11337A0439F900D11244A96860D971D9183808323
S11337B083E2829FF001839FF00D1124E60DF71D33
S11337C086A986FF0EC0C301EFD9F301E15BFE4F6A
S11337D0808181FD06C0359681E08083FF24F394C7
S11337E014C0F301EC5AFE4F10820FC0F301EC5ADF
S11337F0FE4F81E08083FF24F39407C0F30186A980
S113380080FD00CF212C1A8615CF8F2D2A960FB656
S1133810F894DEBF0FBECDBFDF91CF911F910F9102
S1133820FF90EF90DF90CF90BF90AF909F908F90DC
S11338307F906F905F904F903F902F9008958F925C
S11338409F92AF92BF92CF92DF92EF92FF920F932B
S11338501F931F924801A12CB12C69017A018B019D
S11338602DE436E040E060E070E05FDE0F901F91F1
S11338700F91FF90EF90DF90CF90BF90AF909F900B
S11338808F900895CF92DF92EF92FF926B017C01AB
S11338906115714E81059105A1F060E079E08DE339
S11338A090E0A7019601BED2DA01C9010197A109EE
S11338B0B109B695A79597958795811520E192074B
S11338C090F01092C00060E874E88EE190E0A701E7
S11338D09601A8D2DA01C9010197A109B109B695E7
S11338E0A795979587959093CD008093CC00E8ECAD
S11338F0F0E0808182608083EAECF0E08081866081
S11339008083E9ECF0E08081886180838081806835
S1133910808378948FE39CE90197F1F700C000005D
S113392080E0FF90EF90DF90CF900895CF93DF93E6
S11339309C01E8ECF0E0908195FFFDCFD901620F86
S1133940731FCEECD0E0E8ECF0E005C09D919883C5
S1133950908195FFFDCFA617B707C1F780E0DF91EF
S1133960CF9108951F920F920FB60F9211240BB6A8
S11339700F922F933F934F935F936F937F938F9304
S11339809F93AF93BF93EF93FF93CF93DF931F92D4
S1133990CDB7DEB78091CE00898361E070E0CE01BF
S11339A001960E945F0F0F90DF91CF91FF91EF91ED
S11339B0BF91AF919F918F917F916F915F914F9143
S11339C03F912F910F900BBE0F900FBE0F901F9041
S11339D018958093C600E0ECF0E0808185FFFDCF70
S11339E080E090E0089584B5826084BD85B58360ED
S11339F085BD89EF87BDEEE6F0E08081826080833B
S1133A0008951F920F920FB60F9211240BB60F92C6
S1133A102F933F934F935F936F937F938F939F93D2
S1133A20AF93BF93EF93FF9341E050E060E070E009
S1133A308DE696E10E944D0FFF91EF91BF91AF91FA
S1133A409F918F917F916F915F914F913F912F91B2
S1133A500F900BBE0F900FBE0F901F9018951F92E2
S1133A600F920FB60F9211240BB60F928F93EF9310
S1133A70FF93E6ECF0E080818083E0ECF0E080816D
S1133A8085FFFDCFFF91EF918F910F900BBE0F90AB
S1133A900FBE0F901F9018959B01AC0160E079E078
S1133AA08DE390E0BFD1DA01C9010197A109B10901
S1133AB0AC01BD017695679557954795852F992754
S1133AC08093C5004093C400E0ECF0E08081826004
S1133AD08083E2ECF0E0808186608083E1ECF0E0BA
S1133AE0808188618083808180688083089586E0F6
S1133AF092E09093C9178093C81760E072EC81E05C
S1133B0090E0CADF70DF789482E996E063D303C063
S1133B1086EC96E05FD340E052EC61E070E08DE625
S1133B2096E107DB8111F4CF63E08DE696E19CDA40
S1133B308111FACF60E570E08DE696E134D9811108
S1133B40F9CF81EF96E046D38DE696E141D88DE634
S1133B5096E12AD84BE057E069E177E08DE696E1FB
S1133B6059D88DE696E120D88DE696E1A0D826981E
S1133B702E9A8DE696E10E94720F1E99FACF1E9B33
S1133B80FECF00E010E020E530E043E257E069E3D7
S1133B9077E08DE696E153DE8111F3CFEACF86E438
S1133BA097E018C3089587E597E014C3089581E763
S1133BB097E010C3089588E897E00CC30895FC01CA
S1133BC0E55CFE4F80811F928F938CE997E09F9371
S1133BD08F93EDD20F900F900F900F900895CF9385
S1133BE0DF93EC018FEC97E0F5D2CE0159D91F9207
S1133BF08F9387EE97E09F938F93D9D20F900F9076
S1133C000F900F90DF91CF910895FC01E453FF4F83
S1133C1020811F922F93319720811F922F933197E8
S1133C2020811F922F93319780811F928F9380E080
S1133C3098E09F938F93BBD28DB79EB70A960FB629
S1133C40F8949EBF0FBE8DBF089588E298E0C2C26B
S1133C5008950F931F93CF93DF938C01EB01898D0C
S1133C608F93888D8F9323E638E03F932F939FD2D1
S1133C70BE01C8013ED80F900F900F900F90DF91B6
S1133C80CF911F910F910895FB0180811F928F9313
S1133C9087E998E09F938F938AD20F900F900F90AB
S1133CA00F900895CF93DF9381E1E4EDF8E0DA011A
S1133CB001900D928A95E1F7DA010D900020E9F761
S1133CC011978EE1E5EEF8E001900D928A95E1F707
S1133CD0DA010D900020E9F7119784E1E3E0F9E0BF
S1133CE001900D928A95E1F7FA0101900020E9F71D
S1133CF031978DE09AE0A0E080839183A283FA015A
S1133D0001900020E9F7CF010197841B950BDF9107
S1133D10CF91089587E199E05DC20895FB01808108
S1133D201F928F938AE399E09F938F9340D20F90D1
S1133D300F900F900F900895CF93DF93EB018F892D
S1133D408F938E898F938D898F938C898F938F8591
S1133D508F938E858F938D858F938C858F938B8591
S1133D608F938A858F9389858F9388858F93898D87
S1133D708F93888D8F9387E699E09F938F9317D2C3
S1133D808C8D2DB73EB7205F3F4F0FB6F8943EBFE2
S1133D900FBE2DBF85FF13C08F898F938E898F939C
S1133DA08D898F938C898F9380EC99E09F938F9367
S1133DB0FED10F900F900F900F900F900F90DF9106
S1133DC0CF910895FB0187898F9386898F93858985
S1133DD08F9384898F9387858F9386858F93858529
S1133DE08F9384858F9380811F928F938BE09AE0C9
S1133DF09F938F93DCD18DB79EB70C960FB6F89432
S1133E009EBF0FBE8DBF0895FB0180811F928F93CB
S1133E108DE69AE09F938F93CAD10F900F900F90E5
S1133E200F900895A1E21A2EAA1BBB1BFD010DC021
S1133E30AA1FBB1FEE1FFF1FA217B307E407F50756
S1133E4020F0A21BB30BE40BF50B661F771F881F32
S1133E50991F1A9469F760957095809590959B01C8
S1133E60AC01BD01CF010895EE0FFF1F881F8BBF6A
S1133E700790F691E02D1994CF93DF93823091054A
S1133E8010F482E090E0E091C417F091C51720E0AF
S1133E9030E0C0E0D0E0309711F140815181481703
S1133EA05907C0F04817590761F48281938120971C
S1133EB019F09B838A832BC09093C5178093C417F2
S1133EC026C02115310519F04217530718F49A0139
S1133ED0BE01DF01EF010280F381E02DDCCF21156B
S1133EE0310509F1281B390B2430310590F4129661
S1133EF08D919C9113976115710521F0FB019383BA
S1133F00828304C09093C5178093C417FD01329631
S1133F1044C0FD01E20FF31F8193919322503109B4
S1133F202D933C933AC02091C2173091C317232B91
S1133F3041F420910202309103023093C31720937D
S1133F40C21720910002309101022115310541F47C
S1133F502DB73EB74091040250910502241B350B46
S1133F60E091C217F091C317E217F307A0F42E1BD8
S1133F703F0B2817390778F0AC014E5F5F4F2417C9
S1133F80350748F04E0F5F1F5093C3174093C21775
S1133F908193919302C0E0E0F0E0CF01DF91CF91F3
S1133FA008950F931F93CF93DF93009709F48CC068
S1133FB0FC013297138212820091C4171091C51725
S1133FC00115110581F420813181820F931F209105
S1133FD0C2173091C3172817390779F5F093C3171F
S1133FE0E093C21771C0D80140E050E0AE17BF079C
S1133FF050F412962D913C911397AD012115310582
S113400009F1D901F3CF9D01DA0133832283608161
S11340107181860F971F8217930769F4EC01288139
S11340203981260F371F2E5F3F4F318320838A81CA
S11340309B8193838283452B29F4F093C517E093E6
S1134040C41742C01396FC93EE931297ED01499165
S113405059919E01240F351FE217F30771F48081F3
S11340609181840F951F029611969C938E93828161
S1134070938113969C938E931297E0E0F0E0D8011D
S113408012968D919C911397009719F0F8018C0169
S1134090F6CF8D919C9198012E5F3F4F820F931F15
S11340A02091C2173091C3172817390769F4309744
S11340B029F41092C5171092C41702C013821282F9
S11340C01093C3170093C217DF91CF911F910F91E3
S11340D00895FB01DC0104C08D910190801921F445
S11340E041505040C8F7881B990B0895FB01DC012F
S11340F002C001900D9241505040D8F70895FB0141
S1134100DC018D91019080190110D9F3990B089568
S1134110FB01DC014150504030F08D910190801939
S113412019F40020B9F7881B990B0895FB015191EC
S11341305523A9F0BF01DC014D9145174111E1F769
S113414059F4CD010190002049F04D9140154111E1
S1134150C9F3FB014111EFCF81E090E0019708958D
S1134160FA01A191B081009719F41097E1F0CD0103
S1134170DC01CD010D90002011F4C00113C0FB013E
S11341802191222319F02015D9F7F3CFFB012191B6
S1134190201519F41E92119606C02223C1F70D9022
S11341A00020A1F7D001FA01A193B0830895CF9321
S11341B0DF93CDB7DEB7AE014A5F5F4FFA0161917D
S11341C07191AF018091C8179091C91762D0DF91A6
S11341D0CF9108950F931F93CF93DF93E091C81766
S11341E0F091C917238121FF1BC08C01D0E0C0E0EE
S11341F0F80181918F016091C8177091C917DB0193
S11342001896ED91FC911997882331F01995892B13
S113421079F3DFEFCFEFECCF8AE01995892B19F012
S11342208FEF9FEF02C08D2F9C2FDF91CF911F91B5
S11342300F9108950F931F93CF93DF93CDB7DEB7FC
S11342402E970FB6F894DEBF0FBECDBF0E891F891F
S113425086E08C831A8309838FEF9FE79E838D8387
S1134260AE01465E5F4F688D798DCE01019611D007
S11342702F813885F801E20FF31F10822E960FB6B6
S1134280F894DEBF0FBECDBFDF91CF911F910F9188
S113429008952F923F924F925F926F927F928F92E6
S11342A09F92AF92BF92CF92DF92EF92FF920F93C1
S11342B01F93CF93DF93CDB7DEB72C970FB6F89447
S11342C0DEBF0FBECDBF7C016B018A01FC011782EA
S11342D01682838181FFB0C1CE0101964C01F701A2
S11342E09381F60193FD859193FF81916F0188235A
S11342F009F49EC1853239F493FD859193FF819130
S11343006F01853221F4B70190E0C7D1E8CF512C79
S1134310312C20E02032A0F48B3269F030F480326A
S113432059F0833269F420612CC08D3239F0803326
S113433039F4216026C02260246023C0286021C093
S113434027FD27C030ED380F3A3078F426FF06C039
S1134350FAE05F9E300D1124532E13C08AE0389E7C
S1134360300D1124332E20620CC08E3221F426FD30
S11343705FC1206406C08C3611F4206802C0883600
S113438041F4F60193FD859193FF81916F018111B1
S1134390C1CF982F9F7D9554933028F40C5F1F4F05
S11343A0FFE3F9830DC0833631F0833771F0833531
S11343B009F057C021C0F801808189830E5F1F4F27
S11343C044244394512C540114C03801F2E06F0E7C
S11343D0711CF801A080B18026FF03C0652D70E038
S11343E002C06FEF7FEFC5012C874CD12C018301F4
S11343F02C852F77222E16C03801F2E06F0E711C27
S1134400F801A080B18026FF03C0652D70E002C0D2
S11344106FEF7FEFC5012C872AD12C012C852068F2
S1134420222E830123FC19C0832D90E048165906DF
S1134430A0F4B70180E290E030D13A94F5CFF501D1
S113444027FC859127FE81915F01B70190E025D17A
S113445031103A94F1E04F1A51084114510479F79C
S1134460DEC0843611F0893631F5F80127FF07C024
S113447060817181828193810C5F1F4F08C06081CC
S11344807181072E000C880B990B0E5F1F4F2F763E
S1134490722E97FF09C090958095709561957F4F16
S11344A08F4F9F4F2068722E2AE030E0A4012DD157
S11344B0A82EA81843C0853729F42F7EB22E2AE0EF
S11344C030E025C0F22FF97FBF2E8F36C1F018F4EB
S11344D0883579F0ADC0803719F0883721F0A8C04D
S11344E02F2F2061B22EB4FE0DC08B2D8460B82E08
S11344F009C024FF0AC09F2F9660B92E06C028E089
S113450030E005C020E130E002C020E132E0F801F3
S1134510B7FE07C060817181828193810C5F1F4F58
S113452006C06081718180E090E00E5F1F4FA4019E
S1134530ECD0A82EA818FB2DFF777F2E76FE0BC09B
S1134540372D3E7FA51450F474FE0AC072FC08C0D7
S1134550372D3E7E05C0BA2C372D03C0BA2C01C0BE
S1134560B52C34FF0DC0FE01EA0DF11D80818033AE
S113457011F4397E09C032FF06C0B394B39404C069
S1134580832F867809F0B39433FD12C030FF06C040
S11345905A2CB31418F4530C5B18B32CB31460F4F2
S11345A0B70180E290E03C8778D0B3943C85F6CFA5
S11345B0B31410F43B1801C0312C34FF11C0B701FF
S11345C080E390E03C8769D03C8532FF16C031FD22
S11345D003C088E790E002C088E590E0B7010CC012
S11345E0832F867851F031FF02C08BE201C080E254
S11345F037FD8DE2B70190E050D0A51430F4B70137
S113460080E390E04AD05A94F8CFAA94F401EA0DDA
S1134610F11D8081B70190E040D0A110F6CF332086
S113462009F45DCEB70180E290E037D03A94F7CF39
S1134630F7018681978102C08FEF9FEF2C960FB60A
S1134640F894DEBF0FBECDBFDF91CF911F910F91C4
S1134650FF90EF90DF90CF90BF90AF909F908F909E
S11346607F906F905F904F903F902F900895FC0142
S11346700590615070400110D8F7809590958E0F89
S11346809F1F0895FC016150704001900110D8F7FC
S1134690809590958E0F9F1F08950F931F93CF932E
S11346A0DF93FB01238121FD03C08FEF9FEF28C01F
S11346B022FF16C046815781248135814217530752
S11346C044F4A081B1819D012F5F3F4F318320834A
S11346D08C93268137812F5F3F4F3783268310C009
S11346E0EB01092F182F0084F185E02D1995892BF2
S11346F0E1F68E819F8101969F838E83812F902F77
S1134700DF91CF911F910F910895FA01AA272830C4
S113471051F1203181F1E8946F936E7F6E5F7F4F8A
S11347208F4F9F4FAF4FB1E03ED0B4E03CD0670F06
S1134730781F891F9A1FA11D680F791F8A1F911D59
S1134740A11D6A0F711D811D911DA11D20D009F4A9
S113475068943F912AE0269F11243019305D3193EB
S1134760DEF6CF010895462F4770405D4193B3E0D4
S11347700FD0C9F7F6CF462F4F70405D4A3318F07B
S1134780495D31FD4052419302D0A9F7EACFB4E02C
S1134790A6959795879577956795BA95C9F70097E4
S11347A06105710508959B01AC010A2E0694579585
S11347B0479537952795BA95C9F7620F731F841FDC
S10D47C0951FA01D0895F894FFCF83
S11347CA0000CC1720000000000200000000E91CD1
S11347DA000000002E002B4349505354415F4355B7
S11347EA523A6970002B4349505354415F4355521E
S11347FA3A6E65746D61736B002B4349505354418F
S113480A5F4355523A67617465776179002B43496E
S113481A505354413A6970002B4349505354413A16
S113482A6E65746D61736B002B4349505354413A5E
S113483A67617465776179002B43495041505F433E
S113484A55523A6970002B43495041505F435552BF
S113485A3A6E65746D61736B002B43495041505F26
S113486A4355523A67617465776179002B4349501D
S113487A41503A6970002B43495041503A6E65746D
S113488A6D61736B002B43495041503A67617465FB
S113489A77617900256C640053454E44204F4B0DD3
S11348AA0A0053454E44204641494C0D0A002C4304
S11348BA4F4E4E4543540D0A004552524F520D0A6B
S11348CA0072656164790D0A006275737920702E2D
S11348DA2E2E0D0A002B4950442C00776474207242
S11348EA657365740D0A005749464920434F4E4E75
S11348FA45435445440D0A005749464920444953FF
S113490A434F4E4E4543540D0A00574946492047E2
S113491A4F542049500D0A00444843502054494DED
S113492A454F555400414C524541445920434F4E3A
S113493A4E45435445440D0A002C434C4F534544B9
S113494A0D0A002C434F4E4E454354204641494CD0
S113495A0D0A002B43574A41503A002B43574A4108
S113496A505F4355523A002B43574A41505F002B3C
S113497A4357534150002B434950535441002B434E
S113498A495041500053454E44204F4B002B434954
S113499A50444F4D41494E3A002B434950535441D8
S11349AA4D4143002B43495041504D4143003E2061
S11349BA005C3000436F6E74656E742D4C656E67CF
S11349CA74683A00636F6E74656E742D6C656E67F5
S11349DA74683A0041542B43575141500041542BB7
S11349EA43575141500D0A0041542B43574A4150F1
S11349FA5F4355523D2200222C2200220D0A004117
S1134A0A542B43574A41505F4445463D2200415482
S1134A1A2B43574A41505F4355523F0D0A004154B4
S1134A2A2B524553544F52450D0A0041542B5246BA
S1134A3A504F5745523D002C382C312C302C300D18
S1134A4A0A0041542B554152540041542B554152AA
S1134A5A545F4355520041542B554152545F4445C7
S1134A6A460041542B534C4545503D002B534C456D
S1134A7A45500041542B47534C503D0041542B435D
S1134A8A495053454E4445583D002C323034380D74
S1134A9A0A0041542B434950434C4F53453D00416E
S1134AAA542B434950434C4F53453D350D0A00415D
S1134ABA542B4349505345525645523D312C0041DB
S1134ACA542B4349505345525645523D300D0A0022
S1134ADA41542B43495053544F3D002B434950539F
S1134AEA54415F4355520041542B43495053544156
S1134AFA5F4355523F0D0A002B43495041505F43CF
S1134B0A55520041542B43495041505F4355523F3B
S1134B1A0D0A0041542B4349505354414D41433FDC
S1134B2A0D0A00253032780041542B43495053541E
S1134B3A414D41435F4355520041542B434950531D
S1134B4A54414D41435F4445460041542B43495027
S1134B5A41504D41433F0D0A0041542B43495041B2
S1134B6A504D41435F4355520041542B43495041F0
S1134B7A504D41435F4445460041542B43575341EA
S1134B8A503F0D0A0041542B43574D4F44455F4350
S1134B9A55523D0041542B43574D4F44450041540F
S1134BAA2B5253540D0A0041540D0A004154453105
S1134BBA00415445310D0A0041542B4349504D5587
S1134BCA583D0041542B43495044494E464F3D00F9
S1134BDA41542B43575341505F4355523D220022BF
S1134BEA2C0041542B43575341505F4445463D22C0
S1134BFA0041542B43574155544F434F4E4E3D00A9
S1134C0A41542B43495053544152543D0054435048
S1134C1A005544500053534C0041542B43495053BC
S1134C2A534C53495A453D0041542B434950444F30
S1134C3A4D41494E3D22002B434950444F4D414971
S1134C4A4E008025000000E1000000C201000010AF
S1134C5A0E0050726F6772616D20737461727465AD
S1134C6A64212041544D4547412032353630206F66
S1134C7A6E2041726475696E6F204D45474120620A
S1134C8A6F6172640D004572726F72207472796971
S1134C9A6E6720746F20696E697469616C697A65DC
S1134CAA2045535038323636206D6F64756C650D65
S1134CBA00496E697469616C697A6174696F6E20FE
S1134CCA66696E6973686564210D00594F555220EF
S1134CDA50415353574F524400594F55522053533E
S1134CEA49440073746D333266342D646973636F97
S1134CFA766572792E636F6D0073746D3332663420
S1134D0A646973636F004465766963652069732017
S1134D1A72656164790D005761746368646F672012
S1134D2A7265736574206465746563746564210DC2
S1134D3A005769666920697320646973636F6E6ECC
S1134D4A6563746564210D00576966692069732077
S1134D5A636F6E6E6563746564210D00436F6E6ED6
S1134D6A656374696F6E20746F2077696669206E53
S1134D7A6574776F726B20686173206661696C650C
S1134D8A642E20526561736F6E2025640D0A0057E4
S1134D9A69666920676F7420616E204950206164D6
S1134DAA64726573730D004772616262696E67208B
S1134DBA4950207374617475733A2025640D0A008E
S1134DCA576520686176652076616C69642049506C
S1134DDA20616464726573733A2025642E25642EF7
S1134DEA25642E25640D0A00444843502074696DD5
S1134DFA656F7574210D00576520686176652064B6
S1134E0A6574656374656420256420415020737455
S1134E1A6174696F6E730D0A002532643A20257332
S1134E2A0D0A00436C69656E7420636F6E6E656368
S1134E3A74656420746F20736572766572212043E9
S1134E4A6F6E6E656374696F6E206E756D626572DE
S1134E5A3A2025730D0A00416E206572726F722022
S1134E6A6F63637572726564207768656E20747205
S1134E7A79696E6720746F20636F6E6E6563742040
S1134E8A6F6E20636F6E6E656374696F6E3A202568
S1134E9A640D0A00474554202F20485454502F319A
S1134EAA2E310D0A00486F73743A2073746D3332CD
S1134EBA66342D646973636F766572792E636F6DD8
S1134ECA0D0A00436F6E6E656374696F6E3A2063F0
S1134EDA6C6F73650D0A00446174612073756363B2
S1134EEA65737366756C6C792073656E742061736F
S1134EFA20636C69656E74210D004572726F7220AD
S1134F0A7768696C652073656E64696E672064618D
S1134F1A7461206F6E20636F6E6E656374696F6E61
S1134F2A202564210D0A0044617461207265636559
S1134F3A697665642066726F6D2073657276657230
S1134F4A206F6E20636F6E6E656374696F6E3A20AC
S1134F5A25733B204E756D626572206F66206279F7
S1134F6A7465732072656365697665643A20256C95
S1134F7A753B20256C75202F20256C753B0D0A0086
S1134F8A5468697320697320666972737420706146
S1134F9A636B65742072656365697665642E204364
S1134FAA6F6E74656E74206C656E677468206F6EBC
S1134FBA207468697320636F6E6E656374696F6EBB
S1134FCA2069733A20256C750D0A00436C69656E75
S1134FDA7420636F6E6E656374696F6E20636C6FA1
S1134FEA7365642C20636F6E6E656374696F6E3AC1
S1134FFA2025643B20546F74616C20627974657354
S113500A2072656365697665643A20256C753B2070
S113501A436F6E74656E742D4C656E677468206890
S113502A65616465723A20256C750D0A0054696DD0
S113503A656F75742072656163686564206F6E209C
S113504A636F6E6E656374696F6E3A2025640D0A28
S105505A000050
S9030000FC
