S01E000030312D455350383236365F41544D4547415F323536302E7372656380
S113000091C00000B0C00000AEC00000ACC0000051
S1130010AAC00000A8C00000A6C00000A4C0000040
S1130020A2C00000A0C000009EC000009CC0000050
S11300309AC0000098C0000096C0000094C0000060
S113004092C0000090C000008EC000008CC0000070
S11300508AC000000C94641386C0000084C00000B1
S113006082C000000C9492137EC000007CC000008B
S11300707AC0000078C0000076C0000074C00000A0
S113008072C0000070C000006EC000006CC00000B0
S11300900C94151368C0000066C0000064C0000022
S11300A062C0000060C000005EC000005CC00000D0
S11300B05AC0000058C0000056C0000054C00000E0
S11300C052C0000050C000004EC000004CC00000F0
S11300D04AC0000048C0000046C0000044C0000000
S11300E042C00000500CB10C100AB10CD30BE90B48
S11300F0500CF70B500C170C500CC80AB10C500CD8
S1130100600C500C500CB10C4A0A500C500C9A0B59
S1130110B90B730C940C500CB10CB10CB10CB10CA8
S1130120500C500C11241FBECFEFD1E2DEBFCDBF67
S113013000E00CBF1AE0A0E0B2E0E4EAF4E300E07F
S11301400BBF02C007900D92AA38B107D9F728E176
S1130150AAE8BAE001C01D92A838B207E1F70E94EC
S1130160DA130C94501A4CCFCF93DF93EC018CE04C
S1130170FE0111928A95E9F7798368835F834E8340
S11301808AE08987452B71F4CB010E9490159F83E7
S11301908E83892B21F41982188281E007C0888517
S11301A08260888788858160888780E0DF91CF912D
S11301B008951F93CF93DF93FC01892BE1F12281F2
S11301C03381808191812817390710F013821282BC
S11301D0162F460F571FA62FB72F26C02281338113
S11301E064817581EB0121972C173D0711F1672B71
S11301F039F4608171816150710926173707C9F09C
S113020066817781C9010196938382838D91EB0185
S1130210C20FD31F88832281338180819181281763
S1130220390710F0138212828A2F811BA417B50795
S1130230A9F690E002C080E090E0DF91CF911F9199
S11302400895CF93DF93FC01892B89F124813581B3
S1130250808191812817390710F015821482A62F06
S1130260B72F20E030E01DC08481958162817381C5
S113027086179707F9F066817781EC012196D5837B
S1130280C483EB01C80FD91F88818D932F5F3F4F23
S113029064817581808191816817790710F01582D6
S11302A014822417350701F7842F952F05C080E0A9
S11302B090E002C0822F932FDF91CF9108950F9386
S11302C01F93FC01892B99F10281138120E030E016
S11302D04481558160E070E004171507260737074D
S11302E021F440815181CA0120C004171507260753
S11302F0370738F4DB01CA01801B910BA20BB30B47
S113030003C080E090E0DC014017510762077307E7
S113031060F480819181480F591F611D711DDB01BB
S1130320CA01801B910BA20BB30B019702C080E0A2
S113033090E01F910F9108950F931F93FC01892B57
S113034049F14281538160E070E00481158120E02D
S113035030E0041715072607370738F4DB01CA0114
S1130360801B910BA20BB30B03C080E090E0DC0177
S1130370401751076207730778F480819181480F11
S1130380591F611D711DDB01CA01801B910BA20B5A
S1130390B30B02C080E090E01F910F910895009785
S11303A029F0FC0113821282158214820895EF92BF
S11303B0FF920F931F93CF93009749F1C62F7C01AF
S11303C0BBDFBC01F70124813581892B19F1008140
S11303D01181A681B78140E050E0F12C80E0201724
S11303E0310710F02F2D382FFD01E20FF31F9081FC
S11303F09C1303C0842F952F0FC02F5F3F4F4F5F77
S11304005F4F6417750759F78FEF9FEF05C08FEFA4
S11304109FEF02C08FEF9FEFCF911F910F91FF903D
S1130420EF9008952F923F924F925F926F927F9236
S11304308F929F92AF92BF92CF92DF92EF92FF92F0
S11304400F931F93CF93DF93009709F460C08A0141
S1130450B72EA62EEC0170DFFC018017910708F47B
S113046059C02C813D81892B09F457C0E880F9805B
S11304704E815F81CA2CDB2CD6019D906D01812CAD
S113048080E090E0712C512C3324339466246394DF
S1130490412CA72CB52C2E153F0510F0272D352DFA
S11304A0DA01A20FB31F6C916915D1F12F5F3F4F91
S11304B031970196882031F102301105E0F0D60120
S11304C0662D742D2E153F0510F02A2D3B2D2D90F1
S11304D0EA01C20FD31FC881C21521F00197860F0C
S11304E0971F0BC02F5F3F4F31976F5F7F4F601790
S11304F0710741F705C0662D742D6017710711F45B
S1130500019714C0309739F68FEF9FEF0FC08FEF2C
S11305109FEF0CC08FEF9FEF09C08FEF9FEF06C0D6
S11305202F5F3F4F31970196832CC6CFDF91CF9138
S11305301F910F91FF90EF90DF90CF90BF90AF90FD
S11305409F908F907F906F905F904F903F902F90EF
S11305500895FB0101900020E9F73197AF01461B94
S1130560570B27CE08958F929F92AF92BF92CF924E
S1130570DF92EF92FF920F931F93CF93DF931F921B
S1130580CDB7DEB7009709F443C04A015B017C0193
S113059096DE892B09F43FC0F7016185C70107DFA7
S11305A099232CF4C701C8DE88159905B8F1F1E048
S11305B08F1A9108D9F0650100E010E041E050E0A5
S11305C0BE016F5F7F4FC7013CDE8981F6018193D5
S11305D06F01F7019185891729F00F5F1F4F0815E7
S11305E0190560F38016910651F402C000E010E092
S11305F0F501E00FF11F1082802F912F11C00F5FC2
S11306001F4FF501E00FF11F1082802F912F08C0BA
S113061080E090E005C080E090E002C080E090E0DF
S11306200F90DF91CF911F910F91FF90EF90DF908A
S1130630CF90BF90AF909F908F900895CF92DF920C
S1130640EF92FF920F931F93FC01DB0180818D32A7
S113065019F4319691E001C090E0008180ED800FA3
S11306608A3048F53196892F40E050E0BA01440FB2
S1130670551F661F771F6A017B01CC0CDD1CEE1C25
S1130680FF1CCC0CDD1CEE1CFF1C4C0D5D1D6E1DF7
S11306907F1D10E000531109012E000C220B330BB7
S11306A0400F511F621F731F8F5F019120ED200FB8
S11306B02A30E8F204C0892F40E050E0BA011097D4
S11306C009F08C93992351F08A019B0166277727BF
S11306D0CB01601B710B820B930B02C0CB01BA01DF
S11306E01F910F91FF90EF90DF90CF900895EF92BC
S11306F0FF920F931F93CF93DF931F92CDB7DEB773
S11307008C018CE58983F80190819923D9F001C08B
S113071087019C3221F0923211F09C3531F461E072
S113072070E0CE0101960E94F9127801FFEFEF1AF2
S1130730FF0A61E070E0C8010E94F912F80191819A
S11307409111E6CF0F90DF91CF911F910F91FF9000
S1130750EF900895AF92BF92CF92DF92EF92FF9203
S11307601F93CF93DF93CDB7DEB761970FB6F8949D
S1130770DEBF0FBECDBFFC016B015A019FE0DE015D
S1130780129601900D929A95E1F7198A64E172E04C
S1130790CE0102960E94BD160097E9F410E015C040
S11307A0BE016F5F7F4F4ADFF70161937F0189814B
S11307B0180FEC15FD0549F01F5F64E172E080E05D
S11307C090E00E94BD16009759F7A114B10479F086
S11307D0F50110830CC0BE016F5F7F4F2FDFF60160
S11307E061937F011981F4E0CF0ED11CE5CF6196AE
S11307F00FB6F894DEBF0FBECDBFDF91CF911F912E
S1130800FF90EF90DF90CF90BF90AF9008950F933B
S11308101F93CF93DF93EC018B014EE050E086E110
S113082092E00E94E616892B09F46FC043E150E080
S1130830B80185E292E00E94E616892B09F479C09A
S113084043E150E0B80189E392E00E94E616892B67
S113085009F482C04AE050E0B8018DE492E00E94BD
S1130860E616892B09F453C04FE050E0B80188E53F
S113087092E00E94E616892B09F45DC04FE050E037
S1130880B80188E692E00E94E616892B09F466C056
S11308904DE050E0B80188E792E00E94E616892B0B
S11308A009F46DC042E150E0B80186E892E00E948C
S11308B0E616892B09F476C042E150E0B80189E9D3
S11308C092E00E94E616892B09F47FC049E050E0CB
S11308D0B8018CEA92E00E94E616892B09F451C013
S11308E04EE050E0B80186EB92E00E94E616892BB8
S11308F009F45AC04EE050E0B80185EC92E00E9441
S1130900E616892B09F463C072C02EE001C02AE008
S1130910BE0169557E4F30E0C901029640E050E0C7
S1130920800F911F17DFCF5DDD4F88818160888341
S11309305EC083E101C08FE0BE0161557E4F90E04F
S1130940029640E050E0800F911F04DFCF5DDD4F41
S11309508881826088834BC083E101C08FE0BE013F
S113096065557E4F90E0029640E050E0800F911F65
S1130970F1DECF5DDD4F88818460888338C08DE0EF
S113098001C089E0BE0167547E4F90E0029640E0CA
S113099050E0800F911FDEDECF5DDD4F88818061E6
S11309A0888325C082E101C08EE0BE016F537E4F73
S11309B090E0029640E050E0800F911FCBDECF5DC7
S11309C0DD4F88818062888312C082E101C08EE09D
S11309D0BE0163547E4F90E0029640E050E0800FE9
S11309E0911FB8DECF5DDD4F888180648883DF91FD
S11309F0CF911F910F9108958F929F92AF92BF92C2
S1130A00CF92DF92EF92FF920F931F93CF93DF93D6
S1130A108B017A016EEF72E00E94BD160097E1F13E
S1130A20E8010A5F1F4FD12C812C912CA12CB12CF1
S1130A30C12C282FE82FF92F882D992DAA2DBB2DF5
S1130A400DC0375507C04FEB430F463010F43753F2
S1130A5001C03C2D830F911DA11DB11D5E2F521BA2
S1130A60319140ED430F4A3078F14FE9430F46305E
S1130A70E8F14FEB430F4630B0F08993D50EC01721
S1130A80D10759F0D3946EEF72E080E090E00E94B9
S1130A90BD16009771F601C0D12CE114F104E1F107
S1130AA0F701D08239C0880F991FAA1FBB1F880F76
S1130AB0991FAA1FBB1F880F991FAA1FBB1F880F4E
S1130AC0991FAA1FBB1FBFCF880F991FAA1FBB1F47
S1130AD0880F991FAA1FBB1F880F991FAA1FBB1F2E
S1130AE0880F991FAA1FBB1F342FB4CF880F991FDB
S1130AF0AA1FBB1F880F991FAA1FBB1F880F991F0E
S1130B00AA1FBB1F880F991FAA1FBB1F4FE9430FC2
S1130B10463008F098CF95CFDF91CF911F910F9178
S1130B20FF90EF90DF90CF90BF90AF909F908F9009
S1130B300895CF93DF93EC01FC01EC5AFF4F108230
S1130B4011821282138240E454E160E072E08CE48A
S1130B5096E10ADB882329F0CB5DDD4F85E08883AD
S1130B6011C040E450E160E074E080E496E1FCDA16
S1130B70882329F0CB5DDD4F85E0888303C0279A65
S1130B802F98FFCF85E0DF91CF9108950F931F93A6
S1130B90FC01E45BFF4F0081118122813381400F0E
S1130BA0511F621F731F40835183628373831F919C
S1130BB00F910895AB01BC0180E496E1FACA08954F
S1130BC008950895089580E090E0089508954F925F
S1130BD05F926F927F92AF92BF92CF92DF92EF9229
S1130BE0FF920F931F93CF93DF936C01EC01C85ACC
S1130BF0DF4F7C0181E7E80EF11C8601065A1F4F86
S1130C005601A7E5AA1AAEEFBA0A6C2F7D2F988178
S1130C10992329F19701F7018081882301F1D801F3
S1130C208C91811109C0F6014480558066807780DB
S1130C3045284628472899F4F90110828C91882385
S1130C4041F052964D915C915397C6010E94EE1467
S1130C5006C052964D915C915397C601B3DFCD5BAC
S1130C60DF4FF3E4EF0EF11C0D5B1F4F0A151B055C
S1130C7061F6DF91CF911F910F91FF90EF90DF907C
S1130C80CF90BF90AF907F906F905F904F900895FA
S1130C90AF92BF92CF92DF92EF92FF920F931F9386
S1130CA0CF93DF9361157105A1F069017A018B017E
S1130CB0EC01080F191FA601B701CE010E94C0164E
S1130CC0892B51F02196C017D107A9F780E090E055
S1130CD005C080E090E002C08C2F9D2FDF91CF9162
S1130CE01F910F91FF90EF90DF90CF90BF90AF9046
S1130CF008952F923F924F925F926F927F928F92BC
S1130D009F92AF92BF92CF92DF92EF92FF920F9396
S1130D101F93CF93DF931F921F92CDB7DEB7FC01D1
S1130D20E05BFF4FDC01A45BBF4FCD90DD90ED9005
S1130D30FC90C082D182E282F3822230310549F4F0
S1130D40DB015C915D3029F411965C915A3009F411
S1130D5080C63901542E7B018C01FC01848195816C
S1130D60A681B781892B8A2B8B2B09F444C0442399
S1130D7009F441C069ED72E0C7010E94D616892BBF
S1130D80D1F164ED72E0C7010E94D616892B99F166
S1130D906EED72E0C7010E94D616892B61F166EEF2
S1130DA072E0C7010E94D616892B61F16EEE72E0E3
S1130DB0C7010E94D616892B41F144E050E06AEF46
S1130DC072E0C7010E94E616892BF9F0B801685F4A
S1130DD07F4FFB0101900020E9F73197AF01461BDB
S1130DE0570BC7010E94E616892B79F0B7018CE4F2
S1130DF096E1AFDB2EC666EE72E0C7010E94D616FE
S1130E00892B19F4C8010E94321460E073E0C70111
S1130E100E94D616892B19F4C8010E943614C80101
S1130E20D6DE6CE073E0C7010E94D616892B51F41C
S1130E30F801EF5DFD4F818184608183C8010E94C8
S1130E403E1432C06DE173E0C7010E94D616892BAF
S1130E50D9F4F801EF5DFD4F81818B7F877F81831A
S1130E6089E1B597DF011D928A95E9F78FE491E056
S1130E70E45AF140DF019C011D9221503040E1F71A
S1130E80C8010E943A1410C06FE273E0C7010E94C7
S1130E90D616892B49F4F801EF5DFD4F81818860F6
S1130EA08183C8010E94521464ED72E0C7010E945C
S1130EB00317892B79F1D80114961D921D921D9266
S1130EC01C9217976801BBE6CB0ED11C5801E8E5CC
S1130ED0AE0EB11C4801F6E48F1AFEEF9F0AD6014C
S1130EE08C91882371F01C92F6017197808188237C
S1130EF029F0B501C8010E94EA1403C0B501C80174
S1130F0065DEB3E4CB0ED11CE3E4AE0EB11CC81411
S1130F10D90429F744E050E06DE373E0C7010E946F
S1130F20E616892B09F06AC181E0F801EB50FE4F07
S1130F30808336965082D70115968C918053580140
S1130F40B6E0AB1ABEEFBB0AF50180830F2EF3E4C3
S1130F509F2EF02D6801989EC00CD11C1124F6011F
S1130F60E459FF4F2CE83AE0318320837397808360
S1130F70BE016F5F7F4FC701079660DBF601EE5934
S1130F80FF4F6083718382839383D5018C91282FD3
S1130F9030E0F801989EE00DF11D1124EA59FF4F4D
S1130FA080819181A281B381892B8A2B8B2B81F43F
S1130FB043E4429FC001439F900D1124800F911F71
S1130FC0FC01E856FF4F1082319681E080830BC00C
S1130FD083E4829FF001839FF00D1124E00FF11F41
S1130FE0E756FF4F10826801B6E0CB1ABEEFDB0A6A
S1130FF0F60120810F2EF3E4BF2EF02DB29E900156
S11310001124F801E20FF31FDF01AA59BF4FEE5973
S1131010FF4F20803180428053804D915D916D91CE
S11310207C911397420D531D641D751D4D935D9363
S11310306D937C931397D801A95EBD4F20803180B6
S1131040428053804D915D916D917C911397420D37
S1131050531D641D751D4D935D936D937C93139780
S1131060898190E00196092E000CAA0BBB0B1C0190
S11310702D01F7E02F0E311C411C511CB901635A9C
S11310807F4F600F711FC701820D931DAE014F5F2B
S11310905F4F60DBD601CC90D12C898190E0019622
S11310A0092E000CAA0BBB0B820D931DA41DB51DAC
S11310B08E0D9F1DBE016F5F7F4FC0DABC9CF00197
S11310C0BD9CF00D1124E00FF11FE55AFF4F718311
S11310D06083F70180818A3359F0319680E090E093
S11310E0DC010196A11DB11D21912A33D1F703C062
S11310F080E090E0DC011C012D01FFEF2F1A3F0A74
S11311004F0A5F0A6301C218D308580126E0A21AE5
S11311102EEFB20AD5018C910F2EF3E49F2EF02D01
S1131120F801989EE00DF11D1124E459FF4FB70119
S1131130620D731DA601808191810E94CD16F50177
S11311408081282F30E0F801989EE00DF11D1124D4
S1131150EE59FF4F4081518162817381C301A0E048
S1131160B0E082199309A409B509481759076A0719
S11311707B0788F4E3E4E29FC001E39F900D112410
S1131180800F911FFC01E459FF4F80819181FC0184
S1131190E40FF51F1082F801E850FE4FD182C0829F
S11311A03297D182C08234968081282F30E0F801B2
S11311B043E4849FE00DF11D1124EE59FF4F80811B
S11311C09181A281B381281639064A065B06B0F0E4
S11311D0F801EB50FE4F108243E4429FC001439F4D
S11311E0900D1124800F911FFC01E259FF4F3182B1
S11311F02082329621E02083319620832AE030E059
S113120042E453E0B301C70143DD0097A1F1FC01BF
S1131210429150E04053510983E4849F9001859F9B
S1131220300D1124B901685A7F4F600F711F200FD0
S1131230311FD901A85ABF4F81E08C931196808148
S113124080538C93F901E65AFF4F8081882389F0FB
S1131250F80184819581A681B7810A97A105B1051A
S113126021F41482158216821782C8010E94881400
S113127002C0C801A5DC29E030E04DE453E0B3012D
S1131280C70106DD009709F476C0E816F90609F4EB
S113129072C097012F5F3F4F8217930709F062C016
S11312A0F701808190E0C09733E4389FF001399FC3
S11312B0F00D1124E00FF11FDF01A65ABF4F2C914E
S11312C0E85AFF4F40811082D7018C9190E0C0977B
S11312D0389FF001399FF00D1124E00FF11FE65AF9
S11312E0FF4F10828C9190E0C097389FF001399F96
S11312F0F00D1124E00FF11FE756FF4F10828C917F
S113130090E0C097389FF001399FF00D1124E00F51
S1131310F11FE856FF4F1082442369F1222389F01C
S11313208C9190E0C09723E4289FB001299F700D11
S11313301124685A7F4F600F711FC8010E9436152F
S11313401AC0F701808190E0C09723E4289FB00180
S1131350299F700D1124685A7F4F600F711FC801B7
S113136030DC09C0BC01615071094AE050E08CE4F2
S113137096E10E94D90067E573E0C7010E94031754
S11313800097E9F1DC012E9130E0A90140535109A5
S113139083E4849F9001859F300D1124200F311F19
S11313A0F901E85AFF4F1082B901665A7F4FFB01D9
S11313B01082FF96108231971082FF978C91805390
S11313C08083DB018C918823D1F0F801848195819D
S11313D0A681B7810A97A105B10521F4148215826B
S11313E01682178283E4849FB001859F700D1124B7
S11313F0685A7F4F600F711FC8010E94A414F8013E
S113140084819581A681B781FC013197E032F10591
S113141008F0A7C28827EE58FF4F8F4F0C94881509
S113142047E050E067E673E0C7010E94E616892BA7
S113143089F487E0E0E6F3E0D801189601900D9274
S11314408A95E1F7F801EB5EFD4FD70117968C9171
S11314508053808369ED72E0C7010E94D616892B00
S113146009F0CCC2F801148215821682178260E654
S113147073E0C7010E94D616892B09F072C2D80105
S113148014961D921D921D921C921797C8010E94DA
S1131490421467C24BE050E06FE673E0C7010E945C
S11314A0E616892B09F066C06BE773E0C7010E945A
S11314B00317892B09F45EC0F7018081882309F49E
S11314C059C0823209F4A2C23196DF018191882386
S11314D009F450C08232C9F79AC261E0690FAF01C2
S11314E0D801A90FB11DA450BE4F8C9381912F5FD9
S11314F03F4F882381F0962FAF014150510982322A
S113150061F760816C3249F7D9016C91623229F735
S1131510692F01C060E0F801E60FF11DE450FE4FB1
S113152010826A01B3E0CB0ED11CAE014E5F5F4F57
S1131530B801645F7D4FC6015FDA2A8130E02E5F17
S11315403F4FC20ED31EBE016E5F7F4FC60176D8D9
S1131550F801EE5EFD4F60838A8190E00196BE0142
S11315606E5F7F4F8C0D9D1D69D8F801ED5EFD4FB8
S11315707183608369ED72E0C7010E94D616892BDE
S113158009F00EC2F8011482158216821782E9C18D
S113159046E050E06BEF74E0C7010E94E616892B29
S11315A009F0BAC0D7018C91882359F08A3359F0D5
S11315B0119602C08A3341F0FD018D918111FACF59
S11315C003C0F70101C0F701309709F4A5C0D801A1
S11315D0A353BE4F1C928181823229F06F01BFEF69
S11315E0CB1ADB0A04C06F0122E0C20ED11CD60163
S11315F08C91882329F11196A6014E5F5F4F90E0EC
S113160010C061E0690F6D019801290F311D23534A
S11316103E4FF90180838D914F5F5F4F882389F09E
S1131620962F6D01F1E0CF1AD108823251F72C9137
S11316302C3239F7FA012081223219F7692F01C0BF
S113164060E0D801A60FB11DA353BE4F1C929601B2
S11316502D5F3F4FD60113968C918823D9F0F60164
S1131660349690E00DC041E0490F9F01D801A90FC5
S1131670B11DAF51BE4F8C938191882361F0942F9B
S11316809F0121503109823271F740814C3259F760
S1131690492F01C040E0F801E40FF11DEF51FE4F66
S11316A010826901B2E0CB0ED11CBE016E5F7F4F88
S11316B0C6010E941E03F801EE50FE4F60832A818A
S11316C030E02F5F3F4FC20ED31EBE016E5F7F4FCF
S11316D0C6010E941E03F801EF50FE4F60838A8109
S11316E090E00196C80ED91EBE016E5F7F4FC60101
S11316F00E941E03F801ED50FE4F60838A8190E042
S11317000196BE016E5F7F4F8C0D9D1D0E941E03CE
S1131710F801EC50FE4F608369ED72E0C7010E944E
S1131720D616892B09F03CC1F80114821582168261
S1131730178217C147E050E063E873E0C7010E94D5
S1131740E616892B19F4B701C80161D869ED72E076
S1131750C7010E94D616892B09F022C1D80114961C
S11317601D921D921D921C921797C8010E94681425
S1131770F8C046E050E06BE873E0C7010E94E6164B
S1131780892B19F4B701C80142D869ED72E0C70189
S11317900E94D616892B09F003C1F8011482158220
S11317A016821782DEC069ED72E0C7010E94D61668
S11317B0892B09F0F5C0D80114961D921D921D9233
S11317C01C921797F801E553FE4F80813196808370
S11317D0C8C069ED72E0C7010E94D616892B09F0D2
S11317E0DFC0F8011482158216821782BAC069ED2F
S11317F072E0C7010E94D616892B09F0D1C08DE191
S113180090E0A0E0B0E0F80184839583A683B783D9
S1131810EF5DFD4F81818160818388E0E2E9F3E03F
S1131820D801189601900D928A95E1F79AC069ED56
S113183072E0C7010E94D616892B09F001C1D801B4
S113184014961D921D921D921C9217976EED72E0D4
S1131850C7010E94D616892B09F0E9C0F801148249
S1131860158216821782EA5EFD4F8081F3E48F02AF
S1131870C00111249801280F391FF901E85AFF4FBC
S1131880108232961082FF96108231971082BC012A
S1131890685A7F4F600F711FC8010E94A41461C071
S11318A069ED72E0C7010E94D616892B09F078C051
S11318B0D80114961D921D921D921C92179751C027
S11318C066EE72E0C7010E94D616892B09F049C062
S11318D0F8011482158216821782EF5DFD4F818113
S11318E0826081833EC04AE050E06AE973E0C70148
S11318F00E94E616892B41F440E050E0B8016D5493
S11319007E4FC7010C9678D869ED72E0C7010E943A
S1131910D616892B09F044C0D80114961D921D9245
S11319201D921C9217971DC049E050E065EA73E0D0
S1131930C7010E94E616892B41F440E050E0B8014B
S11319406B537E4FC7010B9657D869ED72E0C70100
S11319500E94D616892B21F5F8011482158216826D
S1131960178269ED72E0C7010E94D616892BC1F473
S1131970F801EF5DFD4F818182608183F8018481EC
S11319809581A681B78188309105A105B10541F003
S11319904D97A105B10521F0148215821682178294
S11319A06EED72E0C7010E94D616892B39F06EEEF7
S11319B072E0C7010E94D616892B59F4F801EF5D35
S11319C0FD4F81818D7F8183F801148215821682F7
S11319D0178264ED72E0C7010E94D616892BC9F5FF
S11319E0D80114961D921D921D921C921797F8010E
S11319F0EF5DFD4F81818E7F81832BC060E673E0B4
S1131A00C7010E94D616892B59F639CDD701AD01ED
S1131A104F5F5F4F11968C911197882309F47ACD0B
S1131A20FD0132969D012D5F3F4F90E065CD69ED3C
S1131A3072E0C7010E94D616892B09F499CFB7CF5B
S1131A406EED72E0C7010E94D616892B09F0AFCF64
S1131A5005CF0F900F90DF91CF911F910F91FF90C1
S1131A60EF90DF90CF90BF90AF909F908F907F903A
S1131A706F905F904F903F902F9008952F923F92D8
S1131A804F925F927F928F929F92AF92BF92CF922A
S1131A90DF92EF92FF920F931F93CF93DF93CDB713
S1131AA0DEB7C358D1090FB6F894DEBF0FBECDBF61
S1131AB08C01FC01EC5AFF4F80819181A281B3819A
S1131AC0892B8A2B8B2B41F480E395E7A0E0B0E0CF
S1131AD080839183A283B383F801E45BFF4F808109
S1131AE09181A281B3813497408151816281738154
S1131AF0841B950BA60BB70B3C96408151816281E8
S1131B007381481759076A077B0730F5D801149683
S1131B108C91F80114821582168217828A3009F09A
S1131B2064C2EA5EFD4F8081F3E48F02C001112498
S1131B309801280F391FF901E85AFF4F1082329695
S1131B401082FF96108231971082BC01685A7F4F31
S1131B50600F711FC801ACD7F801EE5DFD4F8081A5
S1131B6080FF86C042E050E06FEA73E080E496E1D3
S1131B700E941202992364F0892B09F542E050E097
S1131B80BE016E577F4F80E496E10E94210117C089
S1131B9040E050E06FEA73E08CE496E10E941202A8
S1131BA0009751F442E050E0BE016E577F4F8CE441
S1131BB096E10E94210103C099230CF459C0F80155
S1131BC0E15EFD4FC080D180329681818E7F81831A
S1131BD08DE190E0A0E0B0E0F80184839583A683D2
S1131BE0B783D60112968C911297882351F054969C
S1131BF04D915C91559724EB35E0B601C801B2D6FE
S1131C0009C0F6014489558924EB35E0B601C801C1
S1131C100E94E305E82EF92EF5EBEF16F5E0FF063A
S1131C2030F00F2EF4EBEF2EF5E0FF2EF02DE11443
S1131C30F104B1F0B701D60154968D919C9155975A
S1131C40D8D4F801E55EFD4F80819181A281B381F2
S1131C508E0D9F1DA11DB11D80839183A283B3832B
S1131C6062E070E082EB93E0C4D481E0F601838B00
S1131C70F80184819581A681B7814197A105B105B9
S1131C8001F5EB50FE4F808181117CC044E050E0AF
S1131C9069ED72E080E496E10E94120299238CF0CF
S1131CA080E496E10E94CF01D80114961D921D9202
S1131CB01D921C921797F801EF5DFD4F81818260A0
S1131CC08183F801EB50FE4F80818823E9F053C0F3
S1131CD09C0141E0BE016F5F7F4FC8010AD8F70144
S1131CE080818823B1F047C0F801EB50FE4F80811A
S1131CF0811148C0F80184819581A681B781892B1F
S1131D008A2B8B2B41F178C17801FBE0EF1AFEEFAF
S1131D10FF0A40E850E0BE016F5F7F4F80E496E128
S1131D200E94B3020097A1F6DFCF9C0140E0BE0100
S1131D306F5F7F4FC8010E947906D7018C91811192
S1131D4021C0F80184819581A681B781892B8A2BD2
S1131D508B2B31F051C17801FBE0EF1AFEEFFF0A43
S1131D6040E850E0BE016F5F7F4F8CE496E10E9433
S1131D70B3020097D1F6F801EB50FE4F808188231F
S1131D8009F43AC1F801E550FE4F8081811107C082
S1131D900F2EFCE4AF2EF6E1BF2EF02D06C00F2E61
S1131DA0F0E4AF2EF6E1BF2EF02D78012AE0E21A1E
S1131DB02EEFF20A680136E0C31A3EEFD30A0F2E63
S1131DC0F3E47F2EF02D480188E0881A8EEF980AFC
S1131DD082C041E050E0BE016F577F4FC5010E94B1
S1131DE02101CF57DF4F2881C158D040D6018C91B3
S1131DF0F801789EE00DF11D1124E459FF4F019084
S1131E00F081E02DD7018D919C911197E80FF91F76
S1131E1020838D919C91119701968D939C93F4014D
S1131E20208131812F5F3F4F31832083843BF5E054
S1131E309F0708F450C0D6012C911C01412C512C51
S1131E40A22FB0E0F801729EE00DF11D1124EE59AD
S1131E50FF4F408151816281738124163506460605
S1131E605706C9F17A9E90017B9E300D1124200FF4
S1131E70311FF901E259FF4F91838083329610821A
S1131E8076978081882389F07A9EB0017B9E700DBD
S1131E901124F901E459FF4F40815181685A7F4F61
S1131EA0600F711FC8019AD513C07A9EB0017B9E42
S1131EB0700D1124F801E60FF71FE459FF4F40811C
S1131EC05181685A7F4F600F711FC8010E94E2055B
S1131ED0F70111821082D7018D919C91A0E0B0E0AE
S1131EE0F6012081F801729EE00DF11D1124EE59D6
S1131EF0FF4F408151816281738184179507A60742
S1131F00B70730F4C5010E949C01892B09F061CF09
S1131F10F801E650FE4F2081329780819181A0E044
S1131F20B0E0E22EF12CF80133E4239FE00DF11D23
S1131F301124EE59FF4F40815181628173818417CE
S1131F409507A607B70708F457C0F801EB50FE4FF2
S1131F50108223E42E9DC0012F9D900D1124800F2B
S1131F60911FFC01E259FF4FD801AA50BE4F2D9199
S1131F703C9131832083329621E02083B99680817D
S1131F80882321F183E48E9DF0018F9DF00D1124AF
S1131F90E00FF11FE459FF4F65EB73E080819181FD
S1131FA032D7009799F060E070E040960E941E03DB
S1131FB023E42E9DF0012F9DF00D1124E00FF11F5D
S1131FC0EE58FF4F6083718382839383F801E65058
S1131FD0FE4F8081F80193E4899FE00DF11D1124E7
S1131FE0EF58FF4F81E0808307C0F801EE5DFD4F9D
S1131FF0808180FF66CEB6CDC8010E94E705F80156
S1132000EB5DFD4F108280E0CD57DF4F0FB6F894A3
S1132010DEBF0FBECDBFDF91CF911F910F91FF9017
S1132020EF90DF90CF90BF90AF909F908F907F9074
S11320305F904F903F902F900895CF92DF92EF9250
S1132040FF921F93CF93DF93EC01162F6A0179015E
S11320508C819D81AE81BF81892B8A2B8B2B39F09A
S1132060CE010CDDCB5DDD4F87E0888333C0613169
S113207021F480E496E10E94CF01C114D10451F00F
S1132080F60101900020E9F73197BF016C197D0931
S1132090C601AFD2812F90E0A0E0B0E08C839D8395
S11320A0AE83BF831886B701CE01089688D6FE0199
S11320B0E85BFF4FDE01A45BBF4F8D919D910D90B6
S11320C0BC91A02D80839183A283B383CB5DDD4F2C
S11320D0188280E0DF91CF911F91FF90EF90DF9005
S11320E0CF90089522EE33E04BEE53E061E0A5CFAC
S11320F008952FE633E046EF53E063E19ECF089561
S1132100CF93DF93EC0126E034E042E154E066E152
S113211094DFFE01EB5DFD4F8081811106C0CF5D30
S1132120DD4F98819C7F9B7F9883DF91CF910895A9
S11321300F931F93CF93DF93EC018C010E5D1D4F22
S1132140F801808180FF11C042E050E06FEA73E043
S113215080E496E10E94120299233CF0FE01EF5DB7
S1132160FD4F81818E7F81830AC0CE0187DC8C8103
S11321709D81AE81BF81892B8A2B8B2B09F7CB5D87
S1132180DD4F188280E0DF91CF911F910F91089568
S1132190EF92FF920F931F93CF93DF93CDB7DEB7E8
S11321A063970FB6F894DEBF0FBECDBF8C017F934B
S11321B06F938AE694E09F938F93CE0101967C01FE
S11321C09F938F93A4D62EE734E0A70166E0C8015D
S11321D034DFF82E0F900F900F900F900F900F9008
S11321E0882329F0F801EB5DFD4FF08012C0C8018F
S11321F09FDFF801EE5DFD4F808181FD06C03396BF
S113220081E08083FF24F39404C0F801EB5DFD4F6B
S113221010828F2D63960FB6F894DEBF0FBECDBF2C
S1132220DF91CF911F910F91FF90EF900895CF937D
S1132230DF93EC012BEF34E04BEA54E06CE0FDDE7D
S1132240882321F0CB5DDD4F888102C0CE0170DF91
S1132250DF91CF910895DF92EF92FF920F931F9336
S1132260CF93DF93CDB7DEB761970FB6F894DEBF97
S11322700FBECDBF8C01D62E1F926F9387EB94E0D7
S11322809F938F93CE0101967C019F938F933FD6AA
S11322902AEC34E0A70165E0C801CFDE0F900F906F
S11322A00F900F900F900F90882329F0F801EB5DA9
S11322B0FD4F808113C0F801E553FE4FD082C80161
S11322C037DFF801E453FE4F80818D1529F0E75A7A
S11322D0FF4F81E0808302C0C801A9DF61960FB679
S11322E0F894DEBF0FBECDBFDF91CF911F910F9148
S11322F0FF90EF90DF9008950F931F93CF93DF9398
S1132300EC018B018C819D81AE81BF81892B8A2B4D
S11323108B2B39F0CE01B2DBCB5DDD4F87E08883B8
S113232033C0FB018181805D818365E070E080E5DD
S113233095E05FD161E070E0C80101965AD165E093
S113234070E08EE595E055D1F80181818053818359
S113235026E635E040E050E068E0CE016EDE8823FA
S113236021F0CB5DDD4F88810FC081E0F801828BC5
S1132370FE01EF5DFD4F818181608183329711837E
S11323800083CB5DDD4F8881DF91CF911F910F9149
S11323900895CF92DF92EF92FF920F931F93CF9302
S11323A0DF93EC016B017A010C811D812E813F8149
S11323B0012B022B032B31F061DBCB5DDD4F87E07A
S11323C088831CC065E070E086EB95E012D1C601FD
S11323D00E94770365E070E087E796E00AD1C701C1
S11323E00E94770365E070E085EC95E002D127E672
S11323F033E040E050E063E0CE011FDEDF91CF9197
S11324001F910F91FF90EF90DF90CF9008954F921E
S11324105F926F928F929F92AF92BF92CF92DF9210
S1132420EF92FF920F931F93CF93DF93CDB7DEB755
S113243027970FB6F894DEBF0FBECDBF7C015B01BA
S11324406A0148018FEF8983F70184819581A68110
S1132450B781892B8A2B8B2B49F0C7010FDBF7013E
S1132460EB5DFD4F87E0808317E0ACC0F701EE5DC4
S1132470FD4F808182FF06C0EA5CF14080818111BA
S113248008C09CC0F701EB5DFD4F86E0808316E039
S113249099C0F701E556FF4F01E08081811105C025
S11324A0602E09830F3F39F482C00F5FED5BFF4F4D
S11324B0053099F77CC0C9011F921F929F932F93F7
S11324C083E495E09F938F932E01F2E04F0E511C0D
S11324D05F924F921CD58981805D898365E070E0AD
S11324E08CE596E086D061E070E0CE01019681D063
S11324F065E070E089E696E07CD065E070E0C601B6
S113250078D065E070E08AE496E073D065E070E02E
S1132510C2016FD065E070E08CE599E06AD020E0FC
S113252030E040E050E06AE0C70187DD182F0FB6C5
S1132530F894DEBF0FBECDBF112329F0F701EB5D88
S1132540FD4F10813FC029812053E3E40E9FC00159
S113255011246701C80ED91EF601E85AFF4F31E075
S113256030833296308337961082359610821182EA
S1132570128213823D97208373962CE83AE03183CC
S11325802083F701EA5EFD4F60828A589F4F40E244
S113259050E0B5018E0D9F1D27D4F601EA56FF4F7A
S11325A091828082F701EB5DFD4F10820BC0F70131
S11325B0EB5DFD4F81E0808311E004C0198200E0EF
S11325C0612C79CF812F27960FB6F894DEBF0FBE0A
S11325D0CDBFDF91CF911F910F91FF90EF90DF90CE
S11325E0CF90BF90AF909F908F906F905F904F90DF
S11325F00895CF93DF939C01E8ECF0E0908195FF80
S1132600FDCFD901620F731FCEECD0E0E8ECF0E00F
S113261005C09D919883908195FFFDCFA617B707BC
S1132620C1F780E0DF91CF9108951F920F920FB60A
S11326300F9211240BB60F922F933F934F935F93F6
S11326406F937F938F939F93AF93BF93EF93FF9376
S1132650CF93DF931F92CDB7DEB78091CE008983ED
S113266061E070E0CE0101960E94DA050F90DF91DF
S1132670CF91FF91EF91BF91AF919F918F917F91F6
S11326806F915F914F913F912F910F900BBE0F90DF
S11326900FBE0F901F9018958093C600E0ECF0E0F9
S11326A0808185FFFDCF80E090E0089584B582604D
S11326B084BD85B5836085BD89EF87BDEEE6F0E016
S11326C080818260808308951F920F920FB60F92CB
S11326D011240BB60F922F933F934F935F936F93F5
S11326E07F938F939F93AF93BF93EF93FF9341E0B7
S11326F050E060E070E088E596E10E94C605FF9135
S1132700EF91BF91AF919F918F917F916F915F9165
S11327104F913F912F910F900BBE0F900FBE0F90D2
S11327201F9018951F920F920FB60F9211240BB69B
S11327300F928F93EF93FF93E6ECF0E08081808318
S1132740E0ECF0E0808185FFFDCFFF91EF918F9168
S11327500F900BBE0F900FBE0F901F9018959B010A
S1132760AC0160E079E08DE390E0B0D1DA01C90119
S11327700197A109B109AC01BD01769567955795FB
S11327804795852F99278093C5004093C400E0ECBA
S1132790F0E0808182608083E2ECF0E080818660FA
S11327A08083E1ECF0E080818861808380818068AF
S11327B08083089586E092E090938518809384182E
S11327C060E072EC81E090E0CADF70DF78948AE820
S11327D096E06DD303C08EEB96E069D340E052ECF3
S11327E061E070E088E596E10E9499058111F3CFDC
S11327F063E088E596E12FDD8111FACF60E570E0B2
S113280088E596E1C5DC8111F9CF89EE96E04FD3D6
S113281088E596E167DC88E596E18ADC43E057E0E9
S113282061E177E088E596E1B4DD88E596E180DC56
S113283088E596E15EDC26982E9A88E596E11ED915
S11328401E99FBCF1E9BFECF00E010E020E530E098
S11328504BE157E061E377E088E596E1D8DD81114B
S1132860F3CFEBCF8EE397E022C308958FE497E094
S11328701EC3089589E697E01AC3089580E897E097
S113288016C30895FC01EB5EFD4F80811F928F9368
S113289084E997E09F938F93F7D20F900F900F9056
S11328A00F900895CF93DF93EC0187EC97E0FFD26C
S11328B0CE0126DC1F928F938FED97E09F938F9329
S11328C0E3D20F900F900F900F90DF91CF91089566
S11328D0FC01E655FE4F20811F922F9331972081F2
S11328E01F922F93319720811F922F9331978081CC
S11328F01F928F9388EF97E09F938F93C5D28DB7E4
S11329009EB70A960FB6F8949EBF0FBE8DBF08956A
S11329100F931F93CF93DF938C01EB019B01225EF6
S11329203F4F3F932F932BE538E03F932F93ACD247
S1132930BE01C801E1DC0F900F900F900F90DF9162
S1132940CF911F910F910895FB0181811F928F9365
S11329508FE898E09F938F9397D20F900F900F90EA
S11329600F900895CF93DF9381E1ECECF8E0DA0166
S113297001900D928A95E1F7DA010D900020E9F7B4
S113298011978EE1EDEDF8E001900D928A95E1F753
S1132990DA010D900020E9F7119784E1EBEFF8E0FC
S11329A001900D928A95E1F7FA0101900020E9F770
S11329B031978DE09AE0A0E080839183A283FA01AD
S11329C001900020E9F7CF010197841B950BDF915B
S11329D0CF9108958FE099E06AC20895CF93DF9371
S11329E0EB018D8D8F938C8D8F938B8D8F938A8D2F
S11329F08F9389898F9388898F938F858F938E8501
S1132A008F938D858F938C858F938B858F938A85F8
S1132A108F93CB014E969F938F938FE599E09F936D
S1132A208F9332D2FE01EF5BFF4F8DB79EB7409676
S1132A300FB6F8949EBF0FBE8DBF8081882399F096
S1132A408D8D8F938C8D8F938B8D8F938A8D8F9398
S1132A5088EB99E09F938F9317D20F900F900F906C
S1132A600F900F900F90DF91CF910895FB01858D0A
S1132A708F93848D8F93838D8F93828D8F93818990
S1132A808F9380898F9387858F9386858F93818198
S1132A901F928F9383E09AE09F938F93F5D18DB724
S1132AA09EB70C960FB6F8949EBF0FBE8DBF0895C7
S1132AB0FB0181811F928F9385E69AE09F938F9308
S1132AC0E3D10F900F900F900F900895A1E21A2E6A
S1132AD0AA1BBB1BFD010DC0AA1FBB1FEE1FFF1FBE
S1132AE0A217B307E407F50720F0A21BB30BE40B0E
S1132AF0F50B661F771F881F991F1A9469F7609555
S1132B007095809590959B01AC01BD01CF0108950E
S1132B10EE0FFF1F881F8BBF0790F691E02D1994CD
S1132B20CF93DF938230910510F482E090E0E0913E
S1132B308018F091811820E030E0C0E0D0E03097B8
S1132B4011F14081518148175907C0F048175907BE
S1132B5061F482819381209719F09B838A832BC02F
S1132B60909381188093801826C02115310519F09F
S1132B704217530718F49A01BE01DF01EF010280E6
S1132B80F381E02DDCCF2115310509F1281B390B28
S1132B902430310590F412968D919C911397611510
S1132BA0710521F0FB019383828304C09093811803
S1132BB080938018FD01329644C0FD01E20FF31F9B
S1132BC081939193225031092D933C933AC02091E3
S1132BD07E1830917F18232B41F42091020230910A
S1132BE0030230937F1820937E18209100023091C5
S1132BF001022115310541F42DB73EB7409104027D
S1132C0050910502241B350BE0917E18F0917F183A
S1132C10E217F307A0F42E1B3F0B2817390778F0AF
S1132C20AC014E5F5F4F2417350748F04E0F5F1F0E
S1132C3050937F1840937E188193919302C0E0E0F3
S1132C40F0E0CF01DF91CF9108950F931F93CF93BD
S1132C50DF93009709F48CC0FC013297138212822F
S1132C6000918018109181180115110581F42081BB
S1132C703181820F931F20917E1830917F1828177D
S1132C80390779F5F0937F18E0937E1871C0D80165
S1132C9040E050E0AE17BF0750F412962D913C91DE
S1132CA01397AD012115310509F1D901F3CF9D0128
S1132CB0DA013383228360817181860F971F821723
S1132CC0930769F4EC0128813981260F371F2E5FA1
S1132CD03F4F318320838A819B8193838283452B59
S1132CE029F4F0938118E093801842C01396FC9362
S1132CF0EE931297ED01499159919E01240F351FCE
S1132D00E217F30771F480819181840F951F029675
S1132D1011969C938E938281938113969C938E93A8
S1132D201297E0E0F0E0D80112968D919C911397F0
S1132D30009719F0F8018C01F6CF8D919C919801C0
S1132D402E5F3F4F820F931F20917E1830917F1882
S1132D502817390769F4309729F4109281181092D2
S1132D60801802C01382128210937F1800937E1879
S1132D70DF91CF911F910F9108954AE85AE05DC009
S1132D80FB01DC0104C08D910190801921F44150B4
S1132D905040C8F7881B990B0895FB01DC0102C061
S1132DA001900D9241505040D8F70895FB01DC0189
S1132DB08D91019080190110D9F3990B0895FB01AD
S1132DC0DC0101900D920020E1F70895FB01DC0184
S1132DD04150504030F08D910190801919F4002039
S1132DE0B9F7881B990B0895FB01DC014150504051
S1132DF048F001900D920020C9F701C01D92415086
S1132E005040E0F70895FB0151915523A9F0BF010B
S1132E10DC014D9145174111E1F759F4CD010190C1
S1132E20002049F04D9140154111C9F3FB014111B6
S1132E30EFCF81E090E001970895FA01A191B0816C
S1132E40009719F41097E1F0CD01DC01CD010D904C
S1132E50002011F4C00113C0FB012191222319F0B9
S1132E602015D9F7F3CFFB012191201519F41E92F7
S1132E70119606C02223C1F70D900020A1F7D001BE
S1132E80FA01A193B0830895CF93DF93CDB7DEB752
S1132E90AE014A5F5F4FFA0161917191AF01809178
S1132EA084189091851862D0DF91CF9108950F9383
S1132EB01F93CF93DF93E0918418F09185182381B9
S1132EC021FF1BC08C01D0E0C0E0F80181918F018B
S1132ED06091841870918518DB011896ED91FC912E
S1132EE01997882331F01995892B79F3DFEFCFEF08
S1132EF0ECCF8AE01995892B19F08FEF9FEF02C070
S1132F008D2F9C2FDF91CF911F910F9108950F93D7
S1132F101F93CF93DF93CDB7DEB72E970FB6F894F8
S1132F20DEBF0FBECDBF0E891F8986E08C831A8356
S1132F3009838FEF9FE79E838D83AE01465E5F4FCB
S1132F40688D798DCE01019611D02F813885F801D5
S1132F50E20FF31F10822E960FB6F894DEBF0FBE59
S1132F60CDBFDF91CF911F910F9108952F923F9282
S1132F704F925F926F927F928F929F92AF92BF9285
S1132F80CF92DF92EF92FF920F931F93CF93DF9331
S1132F90CDB7DEB72C970FB6F894DEBF0FBECDBF0A
S1132FA07C016B018A01FC0117821682838181FFF7
S1132FB0B0C1CE0101964C01F7019381F60193FD56
S1132FC0859193FF81916F01882309F49EC1853215
S1132FD039F493FD859193FF81916F01853221F43A
S1132FE0B70190E0C7D1E8CF512C312C20E020323A
S1132FF0A0F48B3269F030F4803259F0833269F4F2
S113300020612CC08D3239F0803339F4216026C020
S11330102260246023C0286021C027FD27C030ED32
S1133020380F3A3078F426FF06C0FAE05F9E300D80
S11330301124532E13C08AE0389E300D1124332EF0
S113304020620CC08E3221F426FD5FC1206406C0CC
S11330508C3611F4206802C0883641F4F60193FDE1
S1133060859193FF81916F018111C1CF982F9F7D2D
S11330709554933028F40C5F1F4FFFE3F9830DC080
S1133080833631F0833771F0833509F057C021C09E
S1133090F801808189830E5F1F4F44244394512C8F
S11330A0540114C03801F2E06F0E711CF801A080C5
S11330B0B18026FF03C0652D70E002C06FEF7FEF83
S11330C0C5012C874CD12C0183012C852F77222E0E
S11330D016C03801F2E06F0E711CF801A080B180B7
S11330E026FF03C0652D70E002C06FEF7FEFC501BE
S11330F02C872AD12C012C852068222E830123FCC5
S113310019C0832D90E048165906A0F4B70180E257
S113311090E030D13A94F5CFF50127FC859127FE54
S113312081915F01B70190E025D131103A94F1E02B
S11331304F1A51084114510479F7DEC0843611F056
S1133140893631F5F80127FF07C0608171818281DA
S113315093810C5F1F4F08C060817181072E000CA2
S1133160880B990B0E5F1F4F2F76722E97FF09C0A5
S113317090958095709561957F4F8F4F9F4F2068F4
S1133180722E2AE030E0A4012DD1A82EA81843C045
S1133190853729F42F7EB22E2AE030E025C0F22FA5
S11331A0F97FBF2E8F36C1F018F4883579F0ADC0A1
S11331B0803719F0883721F0A8C02F2F2061B22E54
S11331C0B4FE0DC08B2D8460B82E09C024FF0AC044
S11331D09F2F9660B92E06C028E030E005C020E19C
S11331E030E002C020E132E0F801B7FE07C06081A0
S11331F07181828193810C5F1F4F06C06081718150
S113320080E090E00E5F1F4FA401ECD0A82EA81818
S1133210FB2DFF777F2E76FE0BC0372D3E7FA51446
S113322050F474FE0AC072FC08C0372D3E7E05C0FF
S1133230BA2C372D03C0BA2C01C0B52C34FF0DC0F5
S1133240FE01EA0DF11D8081803311F4397E09C03D
S113325032FF06C0B394B39404C0832F867809F078
S1133260B39433FD12C030FF06C05A2CB31418F4C3
S1133270530C5B18B32CB31460F4B70180E290E0F4
S11332803C8778D0B3943C85F6CFB31410F43B1844
S113329001C0312C34FF11C0B70180E390E03C87BA
S11332A069D03C8532FF16C031FD03C088E790E049
S11332B002C088E590E0B7010CC0832F867851F0F6
S11332C031FF02C08BE201C080E237FD8DE2B7011D
S11332D090E050D0A51430F4B70180E390E04AD0D8
S11332E05A94F8CFAA94F401EA0DF11D8081B70134
S11332F090E040D0A110F6CF332009F45DCEB701A1
S113330080E290E037D03A94F7CFF7018681978135
S113331002C08FEF9FEF2C960FB6F894DEBF0FBE5E
S1133320CDBFDF91CF911F910F91FF90EF90DF9070
S1133330CF90BF90AF909F908F907F906F905F9051
S11333404F903F902F900895FC010590615070407C
S11333500110D8F7809590958E0F9F1F0895FC015A
S11333606150704001900110D8F7809590958E0FB0
S11333709F1F08950F931F93CF93DF93FB01238126
S113338021FD03C08FEF9FEF28C022FF16C04681A6
S11333905781248135814217530744F4A081B181B8
S11333A09D012F5F3F4F318320838C93268137818A
S11333B02F5F3F4F3783268310C0EB01092F182F4F
S11333C00084F185E02D1995892BE1F68E819F818A
S11333D001969F838E83812F902FDF91CF911F9130
S11333E00F910895FA01AA27283051F1203181F173
S11333F0E8946F936E7F6E5F7F4F8F4F9F4FAF4FF9
S1133400B1E03ED0B4E03CD0670F781F891F9A1F0B
S1133410A11D680F791F8A1F911DA11D6A0F711DBF
S1133420811D911DA11D20D009F468943F912AE0CB
S1133430269F11243019305D3193DEF6CF010895B3
S1133440462F4770405D4193B3E00FD0C9F7F6CFE4
S1133450462F4F70405D4A3318F0495D31FD4052AC
S1133460419302D0A9F7EACFB4E0A6959795879542
S113347077956795BA95C9F7009761057105089521
S11334809B01AC010A2E06945795479537952795CD
S1133490BA95C9F7620F731F841F951FA01D089565
S10734A0F894FFCFCA
S11334A400008818200000000002000000004C13F3
S11334B4000000002E002B4349505354415F4355F0
S11334C4523A6970002B4349505354415F43555257
S11334D43A6E65746D61736B002B434950535441C8
S11334E45F4355523A67617465776179002B4349A8
S11334F4505354413A6970002B4349505354413A50
S11335046E65746D61736B002B4349505354413A97
S113351467617465776179002B43495041505F4377
S113352455523A6970002B43495041505F435552F8
S11335343A6E65746D61736B002B43495041505F5F
S11335444355523A67617465776179002B43495056
S113355441503A6970002B43495041503A6E6574A6
S11335646D61736B002B43495041503A6761746534
S11335747761790053454E44204F4B0D0A00455260
S1133584524F520D0A0072656164790D0A00627526
S1133594737920702E2E2E0D0A002B4950443A00C4
S11335A47764742072657365740D0A00574946493B
S11335B420434F4E4E45435445440D0A0057494653
S11335C44920444953434F4E4E4543540D0A005732
S11335D449464920474F542049500D0A002B49506D
S11335E444002C434F4E4E4543540D0A002C434C87
S11335F44F5345440D0A002C434F4E4E454354202B
S11336044641494C0D0A002B43574A41503A002B7A
S113361443574A41505F4355523A002B43574A415A
S1133624505F002B434950535441002B43495041AC
S1133634500053454E44204F4B002B4349505354A0
S1133644414D4143002B43495041504D4143003EB9
S113365420005C3000436F6E74656E742D4C656E8F
S11336646774683A200041542B434950434C4F53E8
S1133674450041542B434950434C4F53453D350D6C
S11336840A0041542B43575141500041542B435792
S11336945141500D0A0041542B43574A41505F4352
S11336A455523F0D0A002B4349505354415F43552F
S11336B4520041542B4349505354415F4355523FA4
S11336C40D0A002B43495041505F43555200415465
S11336D42B43495041505F4355523F0D0A00415416
S11336E42B4349505354414D41433F0D0A00415427
S11336F42B43495041504D41433F0D0A0041542B43
S1133704524553544F52450D0A0041542B434950DA
S11337145345525645523D312C25640D0A004154FB
S11337242B4349505345525645520041542B434967
S1133734505345525645523D300D0A0041542B43D3
S1133744495053544F3D25640D0A0041542B4357AB
S11337545341503F0D0A0041542B43574D4F4445A8
S11337645F4355523D25640D0A0041542B43574D84
S11337744F44450041542B43575341505F444546FD
S11337843D222573222C222573222C25642C2564A6
S11337942C25642C25640D0A0041542B43575341B2
S11337A4500025733D25752C382C312C302C300DCC
S11337B40A0041542B554152540041542B55415253
S11337C4545F4355520041542B554152545F444570
S11337D4460041542B534C4545503D002B534C4516
S11337E4455000256C640041542B47534C503D0014
S11337F441542B43495053454E4445583D002C32C3
S11338043034380D0A0041542B43495053454E4437
S113381445580041542B434950434C4F53453D00B4
S113382441542B4349504D55583D25640D0A0041DC
S1133834542B4349504D55580041542B434950444B
S1133844494E464F3D25640D0A0041542B434950CB
S113385444494E464F0041542B43574A41505F4319
S113386455523D2200220D0A0041542B43574A412C
S1133874505F4445463D22003D22253032783A25A6
S11338843032783A253032783A253032783A253055
S113389432783A25303278220041542B434950532C
S11338A454414D41435F4355520041542B434950C5
S11338B45354414D41435F4445460041542B4349CD
S11338C45041504D41435F4355520041542B4349A9
S11338D45041504D41435F4445460041542B4357A6
S11338E45341505F4355523D2200222C0041542B36
S11338F443574155544F434F4E4E3D0041542B437F
S1133904495053544152543D002C22544350222CC8
S113391422002C2253534C222C220041542B434981
S11339245053534C53495A453D0050726F6772616A
S11339346D2073746172746564212041544D45474C
S1133944412032353630206F6E2041726475696EC1
S11339546F204D45474120626F6172640D004572CA
S1133964726F7220747279696E6720746F20696E45
S1133974697469616C697A65204553503832363606
S1133984206D6F64756C650D00496E697469616CB2
S1133994697A6174696F6E2066696E6973686564B7
S11339A4210D00594F55522050415353574F5244FF
S11339B400594F555220535349440073746D3332A4
S11339C466342D646973636F766572792E636F6DE3
S11339D40073746D33326634646973636F004465D1
S11339E4766963652069732072656164790D005793
S11339F461746368646F67207265736574206465B9
S1133A04746563746564210D00576966692069737C
S1133A1420646973636F6E6E6563746564210D005D
S1133A245769666920697320636F6E6E6563746594
S1133A3464210D00436F6E6E656374696F6E207448
S1133A446F2077696669206E6574776F726B20687E
S1133A546173206661696C65642E20526561736FBD
S1133A646E2025640D0A005769666920676F742007
S1133A74616E20495020616464726573730D00475C
S1133A8472616262696E672049502073746174754F
S1133A94733A2025640D0A00576520686176652011
S1133AA476616C696420495020616464726573733F
S1133AB43A2025642E25642E25642E25640D0A00DF
S1133AC4444843502074696D656F7574210D005723
S1133AD46520686176652064657465637465642033
S1133AE425642041502073746174696F6E730D0AE8
S1133AF4002532643A2025730D0A00436C69656E0F
S1133B047420636F6E6E656374656420746F2073D0
S1133B1465727665722120436F6E6E656374696F96
S1133B246E206E756D6265723A2025730D0A00412C
S1133B346E206572726F72206F636375727265644E
S1133B44207768656E20747279696E6720746F20BB
S1133B54636F6E6E656374206F6E20636F6E6E6543
S1133B646374696F6E3A2025640D0A004745542036
S1133B742F20485454502F312E310D0A00486F73AE
S1133B84743A2073746D333266342D646973636FCD
S1133B94766572792E636F6D0D0A00436F6E6E65E0
S1133BA46374696F6E3A20636C6F73650D0A004425
S1133BB4617461207375636365737366756C6C7982
S1133BC42073656E7420617320636C69656E74215F
S1133BD40D004572726F72207768696C6520736595
S1133BE46E64696E672064617461206F6E20636F14
S1133BF46E6E656374696F6E202564210D0A00443A
S1133C046174612072656365697665642066726FA8
S1133C146D20736572766572206F6E20636F6E6EAD
S1133C24656374696F6E3A2025733B204E756D622B
S1133C346572206F662062797465732072656365AA
S1133C44697665643A20256C753B20256C75202FB4
S1133C5420256C753B0D0A00546869732069732030
S1133C646669727374207061636B65742072656332
S1133C7465697665642E20436F6E74656E74206C7A
S1133C84656E677468206F6E207468697320636F4F
S1133C946E6E656374696F6E2069733A20256C7562
S1133CA40D0A00436C69656E7420636F6E6E656300
S1133CB474696F6E20636C6F7365642C20636F6E1C
S1133CC46E656374696F6E3A2025643B20546F7487
S1133CD4616C2062797465732072656365697665C5
S1133CE4643A20256C753B20436F6E74656E742DA5
S1133CF44C656E677468206865616465723A202552
S1133D046C750D0A0054696D656F75742072656174
S1133D1463686564206F6E20636F6E6E6563746997
S10D3D246F6E3A2025640D0A0000BA
S9030000FC
