:1000000092C00000B1C00000AFC00000ADC0000051
:10001000ABC00000A9C00000A7C00000A5C0000040
:10002000A3C00000A1C000009FC000009DC0000050
:100030009BC0000099C0000097C0000095C0000060
:1000400093C0000091C000008FC000008DC0000070
:100050008BC000000C943C1487C0000085C00000D9
:1000600083C000000C946A147FC000007DC00000B3
:100070007BC0000079C0000077C0000075C00000A0
:1000800073C0000071C000006FC000006DC00000B0
:100090000C94ED1369C0000067C0000065C000004B
:1000A00063C0000061C000005FC000005DC00000D0
:1000B0005BC0000059C0000057C0000055C00000E0
:1000C00053C0000051C000004FC000004DC00000F0
:1000D0004BC0000049C0000047C0000045C0000000
:1000E00043C00000510DB20D020BB20DDB0CEE0C43
:1000F000510DFE0C510D1F0D510DBB0BB20D510DCD
:10010000610D510D510DB20D3D0B510D510DA20C54
:10011000BF0C740D950D510DB20DB20DB20DB20D97
:10012000510D510D510D11241FBECFEFD1E2DEBF95
:10013000CDBF00E00CBF1AE0A0E0B2E0E8E2F6E3D9
:1001400000E00BBF02C007900D92A234B107D9F7AF
:1001500027E1A2E4BAE001C01D92A835B207E1F799
:100160000E94B2140C94121B4BCFCF93DF93EC017F
:1001700082E1FE0111928A95E9F7CB01A0E0B0E09F
:1001800088839983AA83BB835D874C878AE08F87A6
:10019000452B81F4CB010E9468169D878C87892BA3
:1001A00031F4188219821A821B8281E007C08E8581
:1001B00082608E878E8581608E8780E0DF91CF910F
:1001C0000895CF92DF92EF92FF920F931F93FC015D
:1001D000892BB9F10481158126813781C084D184AE
:1001E000E284F3840C151D052E053F0529F440819A
:1001F00051816281738122C00C151D052E053F05BA
:1002000038F4B701A601401B510B620B730B03C0FE
:1002100040E050E0BA01C016D106E206F30670F4E1
:1002200080819181A281B381B701A601480F591F36
:100230006A1F7B1F401B510B620B730BCA01019796
:1002400002C080E090E01F910F91FF90EF90DF904F
:10025000CF9008954F925F926F927F928F929F926C
:10026000AF92BF92CF92DF92EF92FF920F931F93C4
:10027000CF93DF93EC017B018A01892B09F475C0D0
:10028000452B09F475C088809980AA80BB808C8139
:100290009D81AE81BF8188159905AA05BB0520F017
:1002A0001C821D821E821F82CE018BDFAC0160E0AA
:1002B00070E02801612C712C441555056605770501
:1002C00030F4452B462B472B09F455C08C018C810B
:1002D0009D81AE81BF81B501A401481B590B6A0BFA
:1002E0007B0B4801A12CB12C481559056A057B05EB
:1002F00010F44A015B012C853D85820F931FA401F8
:10030000B7010E94A5178C819D81AE81BF81880DA8
:10031000991DAA1DBB1D8C839D83AE83BF8368017D
:10032000C818D90871F0B701680D791DA6018C8530
:100330009D850E94A517E12CF12CCC82DD82EE82F6
:10034000FF824C815D816E817F8188819981AA8144
:10035000BB81481759076A077B0720F01C821D8262
:100360001E821F82802F912F08C080E090E005C080
:1003700080E090E002C080E090E0DF91CF911F919B
:100380000F91FF90EF90DF90CF90BF90AF909F9034
:100390008F907F906F905F904F900895CF92DF92F3
:1003A000EF92FF920F931F93FC01892B61F1C480A0
:1003B000D580E680F78000851185228533850C1570
:1003C0001D052E053F0538F4B701A601401B510B52
:1003D000620B730B03C040E050E0BA01C016D106B7
:1003E000E206F30670F480819181A281B381B701A6
:1003F000A601480F591F6A1F7B1F401B510B620B40
:10040000730BCA0102C080E090E01F910F91FF9032
:10041000EF90DF90CF9008954F925F926F927F920E
:100420008F929F92AF92BF92CF92DF92EF92FF9204
:100430000F931F93CF93DF93EC017B018A01892BEC
:1004400009F476C0452B09F476C088809980AA808B
:10045000BB8088859985AA85BB8588159905AA05DD
:10046000BB0520F0188619861A861B86CE0196DFFA
:10047000AC0160E070E02801612C712C4415550539
:100480006605770530F4452B462B472B09F456C0FB
:100490008C01488559856A857B85D501C401841BFB
:1004A000950BA60BB70B4801A12CB12C881599050B
:1004B000AA05BB0510F44C015D018C859D85BC012E
:1004C000640F751FA401C7010E94A517888599852F
:1004D000AA85BB85880D991DAA1DBB1D8887998794
:1004E000AA87BB876801C818D90871F0C701880DB1
:1004F000991D6C857D85A6010E94A517E12CF12C24
:10050000C886D986EA86FB86488559856A857B85B3
:1005100088819981AA81BB81481759076A077B079F
:1005200020F0188619861A861B86802F912F08C006
:1005300080E090E005C080E090E002C080E090E0C4
:10054000DF91CF911F910F91FF90EF90DF90CF90AF
:10055000BF90AF909F908F907F906F905F904F90E3
:100560000895009749F0FC011482158216821782C3
:10057000108611861286138608958F929F92AF92ED
:10058000BF92CF92DF92EF92FF92CF93DF930097CB
:1005900081F1C62F7C0102DFBC01F7012085318586
:1005A000892B51F180809180A280B380A485B5858C
:1005B00040E050E0D0E080E06901E12CF12CC8146B
:1005C000D904EA04FB0410F02D2F382FFD01E20FAF
:1005D000F31F90819C1303C0842F952F0FC02F5FB2
:1005E0003F4F4F5F5F4F6417750731F78FEF9FEFF6
:1005F00005C08FEF9FEF02C08FEF9FEFDF91CF918C
:10060000FF90EF90DF90CF90BF90AF909F908F9032
:1006100008952F923F924F925F926F927F928F92A6
:100620009F92AF92BF92CF92DF92EF92FF920F9381
:100630001F93CF93DF9300D01F92CDB7DEB7009703
:1006400009F47CC08A01B72EA62E4C01A7DEFC015E
:100650008017910708F475C0D40118962D913C912C
:100660001997892B09F470C0CD90DD90ED90FC9026
:1006700013971C964D915C911D97A982BA82A9810E
:10068000BA819D90BA83A983812C80E090E0212CCF
:10069000312CA22CB32C2901612C712C4C145D043B
:1006A0006E047F0410F0222D332DDA01A20FB31F48
:1006B0006C91691509F44BC02F5F3F4F319701963C
:1006C0008820B1F10230110560F169807A8061E023
:1006D00070E0D301FC83EB832901612C712C4C1455
:1006E0005D046E047F0410F02A2D3B2D7D902A01BD
:1006F000420E531EF2016080671431F0EB81FC81E1
:100700000197860F971F0FC02F5F3F4FEB81FC8132
:100710003197FC83EB836F5F7F4F60177107E1F6C2
:1007200005C061E070E06017710711F4019716C011
:10073000309709F0B0CF8FEF9FEF10C08FEF9FEF92
:100740000DC08FEF9FEF0AC08FEF9FEF07C02F5FA5
:100750003F4F3197019688248394B4CF0F900F9028
:100760000F900F90DF91CF911F910F91FF90EF901D
:10077000DF90CF90BF90AF909F908F907F906F90C1
:100780005F904F903F902F900895FB0101900020C3
:10079000E9F73197AF01461B570B5CCD08958F9257
:1007A0009F92AF92BF92CF92DF92EF92FF920F9300
:1007B0001F93CF93DF931F92CDB7DEB7009709F455
:1007C00043C04A015B017C01FCDC892B09F43FC07A
:1007D000F7016785C701D1DE99232CF4C701DEDD5F
:1007E00088159905B8F1F1E08F1A9108D9F06501E3
:1007F00000E010E041E050E0BE016F5F7F4FC701B5
:100800000BDE8981F60181936F01F70197858917C6
:1008100029F00F5F1F4F0815190560F38016910628
:1008200051F402C000E010E0F501E00FF11F10826A
:10083000802F912F11C00F5F1F4FF501E00FF11FA7
:100840001082802F912F08C080E090E005C080E0EA
:1008500090E002C080E090E00F90DF91CF911F9177
:100860000F91FF90EF90DF90CF90BF90AF909F904F
:100870008F900895CF92DF92EF92FF920F931F9384
:10088000FC01DB0180818D3219F4319691E001C0C9
:1008900090E0008180ED800F8A3048F53196892FF5
:1008A00040E050E0BA01440F551F661F771F6A01F0
:1008B0007B01CC0CDD1CEE1CFF1CCC0CDD1CEE1CEB
:1008C000FF1C4C0D5D1D6E1D7F1D10E000531109B6
:1008D000012E000C220B330B400F511F621F731FA0
:1008E0008F5F019120ED200F2A30E8F204C0892F9C
:1008F00040E050E0BA01109709F08C93992351F031
:100900008A019B0166277727CB01601B710B820B45
:10091000930B02C0CB01BA011F910F91FF90EF9092
:10092000DF90CF900895EF92FF920F931F93CF9394
:10093000DF931F92CDB7DEB78C018CE58983F80178
:1009400090819923D9F001C087019C3221F0923225
:1009500011F09C3531F461E070E0CE0101960E9407
:10096000D1137801FFEFEF1AFF0A61E070E0C801D0
:100970000E94D113F80191819111E6CF0F90DF9180
:10098000CF911F910F91FF90EF9008957F936F93F8
:100990005F934F9324E132E03F932F939F938F9384
:1009A0000E9449188DB79EB708960FB6F8949EBF5F
:1009B0000FBE8DBF0895AF92BF92CF92DF92EF929C
:1009C000FF921F93CF93DF93CDB7DEB761970FB63A
:1009D000F894DEBF0FBECDBFFC016B015A019FE052
:1009E000DE01129601900D929A95E1F7198A68E15D
:1009F00072E0CE0102960E9495170097E9F410E08C
:100A000015C0BE016F5F7F4F35DFF70161937F0136
:100A10008981180FEC15FD0549F01F5F68E172E050
:100A200080E090E00E949517009759F7A114B10457
:100A300079F0F50110830CC0BE016F5F7F4F1ADFA4
:100A4000F60161937F011981F4E0CF0ED11CE5CF4F
:100A500061960FB6F894DEBF0FBECDBFDF91CF9188
:100A60001F91FF90EF90DF90CF90BF90AF900895CF
:100A70000F931F93CF93DF93EC018B014EE050E077
:100A80008AE192E00E94B717892B09F46FC043E115
:100A900050E0B80189E292E00E94B717892B09F46F
:100AA00079C043E150E0B8018DE392E00E94B717AE
:100AB000892B09F482C04AE050E0B80181E592E058
:100AC0000E94B717892B09F453C04FE050E0B801DA
:100AD0008CE592E00E94B717892B09F45DC04FE0C6
:100AE00050E0B8018CE692E00E94B717892B09F418
:100AF00066C04DE050E0B8018CE792E00E94B71765
:100B0000892B09F46DC042E150E0B8018AE892E017
:100B10000E94B717892B09F476C042E150E0B80172
:100B20008DE992E00E94B717892B09F47FC049E054
:100B300050E0B80180EB92E00E94B717892B09F4CE
:100B400051C04EE050E0B8018AEB92E00E94B71726
:100B5000892B09F45AC04EE050E0B80189EC92E0CC
:100B60000E94B717892B09F463C072C02EE001C040
:100B70002AE0BE016D527F4F30E0C901029640E08D
:100B800050E0800F911F17DFC35DDE4F88818160C9
:100B900088835EC083E101C08FE0BE0165527F4F54
:100BA00090E0029640E050E0800F911F04DFC35DAB
:100BB000DE4F8881826088834BC083E101C08FE073
:100BC000BE0169527F4F90E0029640E050E0800FF6
:100BD000911FF1DEC35DDE4F88818460888338C059
:100BE0008DE001C089E0BE016B517F4F90E002961D
:100BF00040E050E0800F911FDEDEC35DDE4F888154
:100C00008061888325C082E101C08EE0BE0163510E
:100C10007F4F90E0029640E050E0800F911FCBDEC6
:100C2000C35DDE4F88818062888312C082E101C08B
:100C30008EE0BE0167517F4F90E0029640E050E0A9
:100C4000800F911FB8DEC35DDE4F8881806488838A
:100C5000DF91CF911F910F9108958F929F92AF9244
:100C6000BF92CF92DF92EF92FF920F931F93CF9399
:100C7000DF938B017A016DE873E00E94951700976E
:100C8000E1F1E8010A5F1F4FD12C812C912CA12C9E
:100C9000B12CC12C282FE82FF92F882D992DAA2DA2
:100CA000BB2D0DC0375507C04FEB430F463010F436
:100CB000375301C03C2D830F911DA11DB11D5E2F27
:100CC000521B319140ED430F4A3078F14FE9430F09
:100CD0004630E8F14FEB430F4630B0F08993D50E24
:100CE000C017D10759F0D3946DE873E080E090E02D
:100CF0000E949517009771F601C0D12CE114F10400
:100D0000E1F1F701D08239C0880F991FAA1FBB1FDC
:100D1000880F991FAA1FBB1F880F991FAA1FBB1FEF
:100D2000880F991FAA1FBB1FBFCF880F991FAA1F2B
:100D3000BB1F880F991FAA1FBB1F880F991FAA1FCF
:100D4000BB1F880F991FAA1FBB1F342FB4CF880F5A
:100D5000991FAA1FBB1F880F991FAA1FBB1F880FAF
:100D6000991FAA1FBB1F880F991FAA1FBB1F4FE9FE
:100D7000430F463008F098CF95CFDF91CF911F9168
:100D80000F91FF90EF90DF90CF90BF90AF909F902A
:100D90008F900895CF93DF93EC011E8A1F8A188EDF
:100DA000198E48EF53E160E072E08AE096E1DDD908
:100DB000882329F0CF5CDE4F85E0888311C048EF9F
:100DC0005FE060E074E088EF95E1CFD9882329F0F7
:100DD000CF5CDE4F85E0888303C0279A2F98FFCF32
:100DE00085E0DF91CF9108950F931F93FC01068555
:100DF000178520893189400F511F621F731F468755
:100E00005787608B718B1F910F910895AB01BC01C7
:100E100088EF95E11FCA089508950895089580E028
:100E200090E0089508954F925F926F927F92AF92F3
:100E3000BF92CF92DF92EF92FF920F931F93CF93C7
:100E4000DF936C01EC016A967C0183E3E80EF11CF0
:100E50008601045E1F4F5601A5EDAA0EB11C6C2F32
:100E60007D2F9881992329F19701F70180818823AB
:100E700001F1D8018C91811109C0F601448055809F
:100E80006680778045284628472899F4F901108222
:100E90008C91882341F052964D915C915397C601F5
:100EA0000E94C91506C052964D915C915397C60198
:100EB000B5DFA596F5E2EF0EF11C0B5D1F4F0A158D
:100EC0001B0569F6DF91CF911F910F91FF90EF9075
:100ED000DF90CF90BF90AF907F906F905F904F90DA
:100EE00008952F923F924F925F926F927F928F92CE
:100EF0009F92AF92BF92CF92DF92EF92FF920F93A9
:100F00001F93CF93DF931F921F92CDB7DEB78C0153
:100F10006B01542E4901FC0186859785A089B18912
:100F2000828B938BA48BB58B2230310549F4DB0186
:100F30008C918D3029F411968C918A3009F495C6E4
:100F4000F80184819581A681B781892B8A2B8B2B0F
:100F500009F446C0552009F443C06DED72E0C601A6
:100F60000E94AE17892BE1F168ED72E0C6010E9484
:100F7000AE17892BA9F162EE72E0C6010E94AE178E
:100F8000892B71F16AEE72E0C6010E94AE17892BBF
:100F900071F162EF72E0C6010E94AE17892B51F128
:100FA00045E050E06EEF72E0C6010E94B717892B52
:100FB00009F1D80118966D917C911997FB01019068
:100FC0000020E9F73197AF01461B570BC6010E947D
:100FD000B717892B79F0B6018AE096E1D6DB45C6D2
:100FE0006AEE72E0C6010E94AE17892B19F4C8019F
:100FF0000E940A1564E073E0C6010E94AE17892BB7
:1010000019F4C8010E940E15C8010DDF60E173E0FC
:10101000C6010E94AE17892B51F4F801E35DFE4F23
:10102000818184608183C8010E9416153AC061E203
:1010300073E0C6010E94AE17892BC1F4F801E35D8D
:10104000FE4F81818B7F877F818389E1B597DF01A7
:101050001D928A95E9F789EBEE5EF109DF011D9299
:101060008A95E9F7C8010E9412151BC063E373E07B
:10107000C6010E94AE17892B51F4F801E35DFE4FC3
:10108000818188608183C8010E942A150AC061E4B9
:1010900073E0C6010E94AE17892B19F4C8010E94A3
:1010A000601568ED72E0C6010E94C517892B09F42E
:1010B000C9C5F80114821582168217827801FDE2F3
:1010C000EF0EF11C58012AE1A20EB11C380186EE88
:1010D000680E711CD7018C91882371F01C92F70166
:1010E00071978081882329F0B501C8010E94C51538
:1010F00003C0B501C80196DEB5E2EB0EF11CE5E2D6
:10110000AE0EB11CE614F70429F79CC5A12CB12C36
:101110007301EA0CFB1CEC0CFD1C4AE050E06EE491
:1011200073E0C7010E949817892B21F4E114F104A0
:1011300041F434C0FFEFAF1ABF0AA814B90441F755
:101140002DC0D7018E9190E0C09725E2289FF00135
:10115000299FF00D1124BF01665E7F4F600F711F44
:10116000E00FF11F81E0828F8C918053838F848DFB
:10117000882389F0F80184819581A681B7810A9737
:10118000A105B10521F41482158216821782C801C7
:101190000E946415E0C0C8013FDEDDC069E573E070
:1011A000C6010E94C517892B09F0D5C0BAE08B167D
:1011B000910408F48EC03401E9E06E1A71088114BC
:1011C000910409F4C8C0A12CB12C7301EA0CFB1CDA
:1011D000EC0CFD1C49E050E06DE673E0C7010E9495
:1011E0009817892B21F4C701892B41F472C0FFEFB6
:1011F000AF1ABF0AA814B90441F76BC0CE14DF04BC
:1012000009F467C096012F5F3F4FE216F30609F01D
:1012100056C0D6018C9190E0C09725E2289FF0013E
:10122000299FF00D1124E00FF11F348D428D128E95
:101230008C9190E0C097289FF001299FF00D112418
:10124000E00FF11F148E8C9190E0C097289FF00161
:10125000299FF00D1124E00FF11F15AE8C9190E045
:10126000C097289FF001299FF00D1124E00FF11F76
:1012700014AE442309F46FC0332381F08C9190E0C5
:10128000C097289FB001299F700D1124665E7F4F83
:10129000600F711FC8010E940E165DC0F6018081AB
:1012A00090E0C09725E2289FB001299F700D11247E
:1012B000665E7F4F600F711FC801AFDD4CC0B70184
:1012C000615071094AE050E08AE096E10E942A01EB
:1012D00042C0F1E18F169104F0F167E773E0C401B9
:1012E0000F978C0D9D1D0E94C5170097A1F1DC0181
:1012F0008E9190E0C09725E2289FF001299FF00D84
:101300001124E00FF11F128E148E15AE14AE2C9125
:101310002053238F20E02223F1F0D80114964D9121
:101320005D916D917C9117974A305105610571056A
:1013300029F4F801148215821682178225E2289F6B
:10134000B001299F700D1124665E7F4F600F711FE1
:10135000C8010E947F1545E050E06EEF72E0C601C3
:101360000E94B717892B09F03CC181E0F801EF5FBB
:10137000FE4F808336965082D60115968C9180530D
:1013800031978083E82EF12C5801B5E28B9FA00C99
:10139000B11C112424E43AE0F50137A726A7838F76
:1013A000BE016F5F7F4FC601079664DAD501949640
:1013B0006D937D938D939C93979798968D919D9126
:1013C0000D90BC91A02D892B8A2B8B2B61F485E28B
:1013D0008E9DF0018F9DF00D1124E00FF11F14AED2
:1013E00081E085AF09C085E28E9DF0018F9DF00DF3
:1013F0001124E00FF11F15AE85E28E9DB0018F9D87
:10140000700D11245801A60EB71EF50144A055A079
:1014100066A077A080A591A5A2A5B3A5840D951D72
:10142000A61DB71D80A791A7A2A7B3A7F801ED5DE0
:10143000FE4F80819181A281B381840D951DA61DEF
:10144000B71D80839183A283B383898190E0019645
:10145000092E000CAA0BBB0B2C013D01E7E04E0E40
:10146000511C611C711C615E7F4F600F711FC601B2
:10147000840D951DAE014F5F5F4F9DDA898190E02D
:101480000196092E000CAA0BBB0B840D951DA61D01
:10149000B71D8C0D9D1DBE016F5F7F4FEBD9D50130
:1014A0005E967C936E935D97F60180818A33D1F0CE
:1014B000A40160E070E04115510561057105B1F0CE
:1014C0003196412C512C32012FEF421A520A620AF6
:1014D000720A81918A3369F04416550666067706CA
:1014E00098F307C0412C512C320103C0412C512CE0
:1014F00032018FEF481A580A680A780A85E28E9DF1
:10150000F0018F9DF00D1124E00FF11F44A155A1B2
:1015100066A177A1C401A0E0B0E084199509A609ED
:10152000B709481759076A077B0718F44201840E68
:10153000951E5401A418B50885E28E9D10018F9D5B
:10154000300C1124200E311EA501B601640D751D4D
:10155000D1019E968D919C919F970E94A517F101B4
:1015600044A155A166A177A1C401A0E0B0E084190F
:101570009509A609B709481759076A077B0738F480
:10158000F10186A597A5FC01E40FF51F1082F80173
:10159000EC5FFE4FB182A0823297B182A08285E2D9
:1015A0008E9DF0018F9DF00D1124E00FF11F84A19D
:1015B00095A1A6A1B7A1481659066A067B0688F030
:1015C000F801EF5FFE4F108285E28E9DF0018F9D46
:1015D000F00D1124E00FF11F51AA40AA81E082AB67
:1015E00083ABF80184819581A681B781FC01319795
:1015F000E132F10508F0B6C28827EE58FF4F8F4F51
:101600000C94601647E050E067E873E0C6010E9462
:10161000B717892B91F4F801A085B18587E0E0E840
:10162000F3E001900D928A95E1F7F801EF5DFE4F2E
:10163000D60117968C91805380836DED72E0C601C0
:101640000E94AE17892B09F0DBC2F80114821582C3
:101650001682178260E873E0C6010E94AE17892BDC
:1016600009F080C2D80114961D921D921D921C9201
:101670001797C8010E941A1575C24BE050E06FE839
:1016800073E0C6010E94B717892B09F066C06BE9A9
:1016900073E0C6010E94C517892B09F45EC0F601EC
:1016A0008081882309F459C0823209F4B1C231968D
:1016B000DF018191882309F450C08232C9F7A9C2A1
:1016C00061E0690FAF01D801A90FB11DA85FBE4F3E
:1016D0008C9381912F5F3F4F882381F0962FAF012C
:1016E00041505109823261F760816C3249F7D9016A
:1016F0006C91623229F7692F01C060E0F801E60FB2
:10170000F11DE85FFE4F10827A01B3E0EB0EF11C91
:10171000AE014E5F5F4FB801685E7E4FC7019DDA34
:101720002A8130E02E5F3F4FE20EF31EBE016E5F56
:101730007F4FC7019FD8F801E25EFE4F60838A8128
:1017400090E00196BE016E5F7F4F8E0D9F1D92D877
:10175000F801E15EFE4F718360836DED72E0C601BA
:101760000E94AE17892B09F01CC2F8011482158261
:1017700016821782F7C146E050E063EA73E0C601C3
:101780000E94B717892B09F0CDC0D6018C91882310
:1017900059F08A3359F0119602C08A3341F0FD01A5
:1017A0008D918111FACF03C0F60101C0F601309787
:1017B00009F4B8C0D801A750BF4F0D90BC91A02D1F
:1017C0001C928181823229F05F01BFEFAB1ABB0A04
:1017D00004C05F0122E0A20EB11CD5018C918823C8
:1017E00049F11196A5014E5F5F4F90E0B801675037
:1017F0007F4F11C0FF24F394F90E5D01FB0120819E
:101800003181290F311DF90180838D914F5F5F4F29
:10181000882389F09F2D5D01F1E0AF1AB108823273
:1018200049F72C912C3231F7FA012081223211F73D
:10183000F92E01C0F12CD801A750BF4F0D90BC91DB
:10184000A02DAF0DB11D1C9295012D5F3F4FD5010D
:1018500013968C918823F9F0F501349690E0B80145
:1018600065507F4F0EC041E0490F9F01DB01ED90B5
:10187000FC90D701A90FB11D8C938191882361F051
:10188000942F9F0121503109823269F740814C32F7
:1018900051F7492F01C040E0F801E550FF4F01909A
:1018A000F081E02DE40FF11D10827901B2E0EB0E22
:1018B000F11CBE016E5F7F4FC7010E943A04F80120
:1018C000E250FF4F60834A8150E04F5F5F4F570106
:1018D000A40EB51EBE016E5F7F4FC5010E943A0483
:1018E000F801E350FF4F6083EA80F12CEFEFEE1A2E
:1018F000FE0AEA0CFB1CBE016E5F7F4FC7010E940F
:101900003A04F801E150FF4F60838A8190E001962C
:10191000BE016E5F7F4F8E0D9F1D0E943A04F8013D
:10192000F39560836DED72E0C6010E94AE17892BBE
:1019300009F037C1D80114961D921D921D921C9278
:10194000179710C147E050E06AEA73E0C6010E94B1
:10195000B717892B19F4B601C8018AD86DED72E06A
:10196000C6010E94AE17892B09F01BC1F801148231
:10197000158216821782C8010E944015F3C046E006
:1019800050E062EB73E0C6010E94B717892B19F48F
:10199000B601C8016DD86DED72E0C6010E94AE17A8
:1019A000892B09F0FEC0D80114961D921D921D923C
:1019B0001C921797D7C06DED72E0C6010E94AE175A
:1019C000892B09F0EEC0F801148215821682178265
:1019D000E950FF4F808131968083C4C06DED72E085
:1019E000C6010E94AE17892B09F0DBC0D8011496FE
:1019F0001D921D921D921C921797B4C06DED72E05E
:101A0000C6010E94AE17892B09F0CBC08DE190E092
:101A1000A0E0B0E0F80184839583A683B783E35DFB
:101A2000FE4F818181608183F801A085B18588E0C6
:101A3000E9EBF3E001900D928A95E1F793C06DED2B
:101A400072E0C6010E94AE17892B09F005C1D801CA
:101A500014961D921D921D921C92179762EE72E0D1
:101A6000C6010E94AE17892B09F0E3C0F801148269
:101A7000158216821782EE5DFE4F8081F5E28F029D
:101A8000C0011124F801E80FF91F128E148E15AE53
:101A900014AE4A96B801680F791FC8010E947F15DD
:101AA00061C06DED72E0C6010E94AE17892B09F08E
:101AB00078C0D80114961D921D921D921C92179702
:101AC00051C06AEE72E0C6010E94AE17892B09F080
:101AD00049C0F8011482158216821782E35DFE4F19
:101AE0008181826081833EC04AE050E061EC73E016
:101AF000C6010E94B717892B41F440E050E0B801BD
:101B000061527F4FC6010C96A8D86DED72E0C601F8
:101B10000E94AE17892B09F044C0D80114961D927B
:101B20001D921D921C9217971DC049E050E06CEC6D
:101B300073E0C6010E94B717892B41F440E050E0E2
:101B4000B8016F507F4FC6010B9687D86DED72E0DC
:101B5000C6010E94AE17892B21F5F8011482158267
:101B6000168217826DED72E0C6010E94AE17892BB6
:101B7000C1F4F801E35DFE4F818182608183F80149
:101B800084819581A681B78188309105A105B10531
:101B900041F04D97A105B10521F0148215821682FE
:101BA000178262EE72E0C6010E94AE17892B39F0EF
:101BB00062EF72E0C6010E94AE17892B59F4F8015A
:101BC000E35DFE4F81818D7F8183F8011482158250
:101BD0001682178268ED72E0C6010E94AE17892B4B
:101BE00009F043C0D80114961D921D921D921C92BB
:101BF0001797F801E35DFE4F81818E7F818335C0A9
:101C000060E873E0C6010E94AE17892B51F62ACD19
:101C1000D601AD014F5F5F4F11968C9111978823CC
:101C200009F46BCDFD0132969D012D5F3F4F90E091
:101C300056CD6DED72E0C6010E94AE17892B09F4F6
:101C400098CFB6CF3401BAE06B1A7108EBE08E166C
:101C5000910408F05BCAA2CA62EE72E0C6010E945B
:101C6000AE17892B09F0A4CF01CF0F900F90DF9111
:101C7000CF911F910F91FF90EF90DF90CF90BF9089
:101C8000AF909F908F907F906F905F904F903F901C
:101C90002F9008952F923F924F925F927F928F9252
:101CA0009F92AF92BF92CF92DF92EF92FF920F93EB
:101CB0001F93CF93DF93CDB7DEB7C358D1090FB6CB
:101CC000F894DEBF0FBECDBF8C01FC0186899789D9
:101CD000A08DB18D892B8A2B8B2B41F480E395E766
:101CE000A0E0B0E0868B978BA08FB18FF80186853E
:101CF0009785A089B1894285538564857585841B44
:101D0000950BA60BB70B46895789608D718D4817C7
:101D100059076A077B07E0F48481148215821682D2
:101D200017828A3009F038C2EE5DFE4F8081B5E23D
:101D30008B02C0011124F801E80FF91F128E148ED6
:101D400015AE14AE4A96B801680F791FC80188D73E
:101D5000F801E25DFE4F808180FF85C042E050E0E7
:101D600066ED73E088EF95E10E940903992364F022
:101D7000892B09F542E050E0BE016E577F4F88EF96
:101D800095E10E940C0217C040E050E066ED73E060
:101D90008AE096E10E940903009751F442E050E086
:101DA000BE016E577F4F8AE096E10E940C0203C08D
:101DB00099230CF458C0F801E55DFE4FC080D18036
:101DC000329681818E7F81838DE190E0A0E0B0E04A
:101DD000F80184839583A683B783D60112968C91EC
:101DE0001297882351F054964D915C91559724EBAE
:101DF00035E0B601C80191D608C0F601448955897D
:101E000024EB35E0B601C8010AD8E82EF92EF5EB2F
:101E1000EF16F5E0FF0630F00F2EF4EBEF2EF5E0B5
:101E2000FF2EF02DE114F104B1F0B701D601549664
:101E30008D919C915597B5D4F801E95DFE4F808155
:101E40009181A281B3818E0D9F1DA11DB11D808343
:101E50009183A283B38362E070E089ED93E0A1D423
:101E600081E0F601838BF80184819581A681B78199
:101E70004197A105B10501F5EF5FFE4F808181110A
:101E80007AC044E050E06DED72E088EF95E10E9489
:101E9000090399238CF088EF95E10E94B102D801E3
:101EA00014961D921D921D921C921797F801E35DE6
:101EB000FE4F818182608183F801EF5FFE4F808158
:101EC0008823E9F051C09C0141E0BE016F5F7F4F64
:101ED000C80107D8F70180818823A9F045C0F8011F
:101EE000EF5FFE4F8081811146C0F80184819581AA
:101EF000A681B781892B8A2B8B2B39F154C17801AC
:101F0000F1E0EF0EFF1E40E850E0BE016F5F7F4F33
:101F100088EF95E10E94CF030097A9F6E0CF9C01DE
:101F200040E0BE016F5F7F4FC8010E947107D7017B
:101F30008C91811120C0F80184819581A681B7819F
:101F4000892B8A2B8B2B29F02EC17801F1E0EF0E23
:101F5000FF1E40E850E0BE016F5F7F4F8AE096E1D0
:101F60000E94CF030097D9F6F801EF5FFE4F808102
:101F7000882309F418C1F801E95FFE4F80818111BF
:101F800007C00F2EFAE0AF2EF6E1BF2EF02D06C0EF
:101F90000F2EF8EFAF2EF5E1BF2EF02D78012EEFCA
:101FA000E21AF20A68013AEFC31A3EEFD30A0F2E83
:101FB000F5E27F2EF02D48018CEF881A8EEF980AFB
:101FC00070C041E050E0BE016F577F4FC5010E94D5
:101FD0000C02CF57DF4F2881C158D040D6018C91D9
:101FE000F801789EE00DF11D112406A4F7A5E02D5F
:101FF000D7018D919C911197E80FF91F20838D9146
:102000009C91119701968D939C93F40120813181CD
:102010002F5F3F4F31832083843BF5E09F0708F417
:1020200040C0D601EC91AC0160E070E02E2F30E0B2
:10203000D8017E9EA00DB11D1124FD0124A035A064
:1020400046A057A0421553056405750551F1FD01E1
:1020500091AB80AB12AA848D882379F0729EB00177
:10206000739E700D1124FD0146A557A5665E7F4F36
:10207000600F711FC8018DD511C0729EB001739E93
:10208000700D1124F801E60FF71F46A557A5665EEF
:102090007F4F600F711FC8010E940E07F701118268
:1020A0001082D7018D919C91A0E0B0E0F6012081D3
:1020B000F801729EE00DF11D112444A155A166A105
:1020C00077A184179507A607B70730F4C5010E94CA
:1020D000CE01892B09F075CFF801EA5FFE4F208110
:1020E000329780819181A0E0B0E0E22EF12CF801DE
:1020F00035E2239FE00DF11D112444A155A166A1F5
:1021000077A184179507A607B70708F44CC0F80114
:10211000EF5FFE4F108285E28E9DF0018F9DF00DE6
:102120001124E00FF11FD801AE5FBE4F8D919C913D
:1021300091AB80AB81E082AB85AD882301F185E274
:102140008E9DF0018F9DF00D1124E00FF11F6CEDBD
:1021500073E086A597A519D7009789F060E070E035
:1021600040960E943A0425E22E9DF0012F9DF00D2D
:102170001124E00FF11F64AB75AB86AB97ABF80190
:10218000EA5FFE4F8081F80195E2899FE00DF11D25
:10219000112481E083AB07C0F801E25DFE4F80812E
:1021A00080FF8ACEDBCDC8010E941307F801EF5CE7
:1021B000FE4F108280E0CD57DF4F0FB6F894DEBFA0
:1021C0000FBECDBFDF91CF911F910F91FF90EF9088
:1021D000DF90CF90BF90AF909F908F907F905F9057
:1021E0004F903F902F900895CF92DF92EF92FF9201
:1021F0001F93CF93DF93EC01162F6A0179018C8135
:102200009D81AE81BF81892B8A2B8B2B39F0CE012A
:1022100041DDCF5CDE4F87E0888329C0613121F446
:1022200088EF95E10E94B102C114D10451F0F6018A
:1022300001900020E9F73197BF016C197D09C601B3
:10224000B0D2812F90E0A0E0B0E08C839D83AE837C
:10225000BF83F986E8868E859F85A889B9898A8794
:102260009B87AC87BD87CF5CDE4F188280E0DF9113
:10227000CF911F91FF90EF90DF90CF9008952DEFB9
:1022800033E046E054E061E0AFCF08952FE833E05B
:1022900041E154E063E1A8CF0895CF93DF93EC01CF
:1022A00021E234E04DE254E066E19EDFFE01EF5CA6
:1022B000FE4F8081811106C0C35DDE4F98819C7FF7
:1022C0009B7F9883DF91CF9108950F931F93CF93B6
:1022D000DF93EC018C01025D1E4FF801808180FFCD
:1022E00011C042E050E066ED73E088EF95E10E9496
:1022F000090399233CF0FE01E35DFE4F81818E7F4F
:1023000081830AC0CE01C6DC8C819D81AE81BF81F4
:10231000892B8A2B8B2B09F7CF5CDE4F188280E04C
:10232000DF91CF911F910F910895CF93DF93EC012F
:1023300023EA33E042EA54E06CE056DF882321F0E0
:10234000CF5CDE4F888102C0CE01BFDFDF91CF912D
:102350000895FF920F931F93CF93DF931F92CDB7F2
:10236000DEB78C01F62E6983FC0184819581A681FC
:10237000B781892B8A2B8B2B41F0C8018BDCF801AC
:10238000EF5CFE4F87E0808332C080E3860F898355
:102390006EE070E083EF94E004D261E070E0CE0183
:1023A0000196FFD162E070E084E199E0FAD122E089
:1023B00035E040E050E065E0C80116DF882329F0F1
:1023C000F801EF5CFE4F808112C0F801E950FF4F29
:1023D000F082C8017ADFF801E850FF4F80818F1545
:1023E00021F0F99681E0808302C0C8019EDF0F9042
:1023F000DF91CF911F910F91FF9008950F931F933D
:10240000CF93DF93EC018B018C819D81AE81BF81E5
:10241000892B8A2B8B2B39F0CE013CDCCF5CDE4F35
:1024200087E0888333C0FB018181805D81836DE01B
:1024300070E08CE095E0B5D161E070E0C8010196F4
:10244000B0D167E070E08AE195E0ABD1F80181811D
:102450008053818320E030E040E050E068E0CE012E
:10246000C3DE882321F0CF5CDE4F88810FC081E07E
:10247000F801828BFE01E35DFE4F818181608183E3
:10248000329711830083CF5CDE4F8881DF91CF913B
:102490001F910F910895EF92FF920F931F93CF9387
:1024A000DF93CDB7DEB727970FB6F894DEBF0FBE28
:1024B000CDBF8C01FC0184819581A681B781892BD8
:1024C0008A2B8B2B61F0C801E5DBF801EF5CFE4F36
:1024D00087E080830F2EF7E0FF2EF02D3DC0AB018B
:1024E00060E070E0CE0101967C010E94C6046FE0BE
:1024F00070E087E495E055D1F70101900020E9F7FD
:102500003197BF016E197F09C7014BD162E070E0BE
:1025100084E199E046D120E030E040E050E066E020
:10252000C80162DEF82E882329F0F801EF5CFE4F27
:10253000F08012C0C801C9DEF801E25DFE4F808163
:1025400081FD06C0339681E08083FF24F39404C0AC
:10255000F801EF5CFE4F10828F2D27960FB6F8948E
:10256000DEBF0FBECDBFDF91CF911F910F91FF90C6
:10257000EF900895CF92DF92EF92FF920F931F9307
:10258000CF93DF93EC016B017A010C811D812E81C9
:102590003F81012B022B032B31F07CDBCF5CDE4F24
:1025A00087E088831CC06EE070E082E695E0F9D099
:1025B000C6010E94930463E070E08FE296E0F1D0E0
:1025C000C7010E94930463E070E081E795E0E9D0E1
:1025D00027E833E040E050E063E0CE0105DEDF9124
:1025E000CF911F910F91FF90EF90DF90CF900895C2
:1025F0006F927F928F929F92AF92BF92CF92DF9213
:10260000EF92FF920F931F93CF93DF93CDB7DEB777
:1026100027970FB6F894DEBF0FBECDBF7C015B01DC
:102620006A018FEF8983F70184819581A681B78143
:10263000892B8A2B8B2B41F0C7012CDBF701EF5C38
:10264000FE4F87E0808398C0F701E25DFE4F8081F6
:1026500082FF05C0F701828D811107C089C0F70193
:10266000EF5CFE4F86E0808387C0F701FF967724FA
:1026700073948081811106C0672C7982FFEF7F12ED
:1026800007C070C07394B59685E07812F2CF6AC027
:10269000A90160E070E04E01E2E08E0E911CC401E1
:1026A0000E94C6048981805D89836CE070E084E1CA
:1026B00096E077D061E070E0CE01019672D068E0DC
:1026C00070E081E296E06DD0F60101900020E9F71C
:1026D0003197BF016C197D09C60163D062E070E0DB
:1026E00083EF95E05ED0F40101900020E9F7319787
:1026F000BF0168197909C40154D062E070E084E137
:1027000099E04FD020E030E040E050E06AE0C701BF
:102710006BDD882329F0F701EF5CFE4F80812CC030
:1027200099819053F70125E2729EE00DF11D11246D
:1027300021E0228F248F13A210A611A612A613A6A1
:10274000938F24E43AE037A726A7D701AE5DBE4FAA
:102750006C92B1AEA0AE13AF02AFF701EF5CFE4FCB
:1027600010820AC0F701EF5CFE4F81E0808304C055
:102770001982712C612C8CCF27960FB6F894DEBF8E
:102780000FBECDBFDF91CF911F910F91FF90EF90C2
:10279000DF90CF90BF90AF909F908F907F906F9081
:1027A0000895CF93DF939C01E8ECF0E0908195FFD2
:1027B000FDCFD901620F731FCEECD0E0E8ECF0E062
:1027C00005C09D919883908195FFFDCFA617B7070F
:1027D000C1F780E0DF91CF9108951F920F920FB65D
:1027E0000F9211240BB60F922F933F934F935F9349
:1027F0006F937F938F939F93AF93BF93EF93FF93C9
:10280000CF93DF931F92CDB7DEB78091CE0089833F
:1028100061E070E0CE0101960E9406070F90DF9103
:10282000CF91FF91EF91BF91AF919F918F917F9148
:102830006F915F914F913F912F910F900BBE0F9031
:102840000FBE0F901F9018958093C600E0ECF0E04B
:10285000808185FFFDCF80E090E0089584B582609F
:1028600084BD85B5836085BD89EF87BDEEE6F0E068
:1028700080818260808308951F920F920FB60F921D
:1028800011240BB60F922F933F934F935F936F9347
:102890007F938F939F93AF93BF93EF93FF9341E009
:1028A00050E060E070E08CE196E10E94F406FF9158
:1028B000EF91BF91AF919F918F917F916F915F91B8
:1028C0004F913F912F910F900BBE0F900FBE0F9025
:1028D0001F9018951F920F920FB60F9211240BB6EE
:1028E0000F928F93EF93FF93E6ECF0E0808180836B
:1028F000E0ECF0E0808185FFFDCFFF91EF918F91BB
:102900000F900BBE0F900FBE0F901F9018959B015C
:10291000AC0160E079E08DE390E0B0D1DA01C9016B
:102920000197A109B109AC01BD017695679557954D
:102930004795852F99278093C5004093C400E0EC0C
:10294000F0E0808182608083E2ECF0E0808186604C
:102950008083E1ECF0E08081886180838081806801
:102960008083089586E092E09093551780935417E2
:1029700060E072EC81E090E0CADF70DF789482E47E
:1029800096E057D303C086E796E053D340E052EC7D
:1029900061E070E08CE196E10E94CA068111F3CFFC
:1029A00063E08CE196E1D5DC8111FACF60E570E05F
:1029B0008CE196E170DD8111F9CF81EA96E039D39F
:1029C0008CE196E15CDC8CE196E17FDC4BEB56E040
:1029D00069EC76E08CE196E1CDDD8CE196E175DC89
:1029E0008CE196E153DC26982E9A8CE196E152D93F
:1029F0001E99FBCF1E9BFECF00E010E020E530E0EB
:102A000043ED56E069EE76E08CE196E1F1DD81116F
:102A1000F3CFEBCF86EF96E00CC3089587E097E005
:102A200008C3089581E297E004C3089588E397E01E
:102A300000C30895FC01EF5DFE4F80811F928F93CC
:102A40008CE497E09F938F93E1D20F900F900F90BB
:102A50000F900895CF93DF93EC018FE797E0E9D2D1
:102A6000CE011BDC1F928F9387E997E09F938F9392
:102A7000CDD20F900F900F900F90DF91CF910895CE
:102A8000FC01EA52FF4F20811F922F933197208142
:102A90001F922F93319720811F922F93319780811E
:102AA0001F928F9380EB97E09F938F93AFD28DB758
:102AB0009EB70A960FB6F8949EBF0FBE8DBF0895BD
:102AC00088ED97E0B6C208950F931F93CF93DF93DD
:102AD0008C01EB018F8D8F938E8D8F9323E138E0E6
:102AE0003F932F9393D2BE01C80188DC0F900F90C3
:102AF0000F900F90DF91CF911F910F910895FB01DF
:102B000081811F928F9387E498E09F938F937ED269
:102B10000F900F900F900F900895CF93DF9381E166
:102B2000E4E8F8E0DA0101900D928A95E1F7DA0124
:102B30000D900020E9F711978EE1E5E9F8E00190AA
:102B40000D928A95E1F7DA010D900020E9F71197CF
:102B500084E1E3EBF8E001900D928A95E1F7FA0148
:102B600001900020E9F731978DE09AE0A0E08083A2
:102B70009183A283FA0101900020E9F7CF01019728
:102B8000841B950BDF91CF91089587EC98E051C29B
:102B90000895CF93DF93EB018D8D8F938C8D8F9361
:102BA0008B8D8F938A8D8F9389898F9388898F934B
:102BB0008F858F938E858F938D858F938C858F9343
:102BC0008B858F938A858F938F8D8F938E8D8F9327
:102BD00087E199E09F938F9319D28DB79EB7409666
:102BE0000FB6F8949EBF0FBE8DBF8BA1882399F0BE
:102BF0008D8D8F938C8D8F938B8D8F938A8D8F93EB
:102C000080E799E09F938F9301D20F900F900F90E0
:102C10000F900F900F90DF91CF910895FB01858D5C
:102C20008F93848D8F93838D8F93828D8F938189E2
:102C30008F9380898F9387858F9386858F938181EA
:102C40001F928F938BEB99E09F938F93DFD18DB77A
:102C50009EB70C960FB6F8949EBF0FBE8DBF089519
:102C6000FB0181811F928F938DE19AE09F938F9357
:102C7000CDD10F900F900F900F900895A1E21A2ED2
:102C8000AA1BBB1BFD010DC0AA1FBB1FEE1FFF1F10
:102C9000A217B307E407F50720F0A21BB30BE40B60
:102CA000F50B661F771F881F991F1A9469F76095A7
:102CB0007095809590959B01AC01BD01CF01089561
:102CC000EE0FFF1F881F8BBF0790F691E02D199420
:102CD000CF93DF938230910510F482E090E0E09191
:102CE0005017F091511720E030E0C0E0D0E030976D
:102CF00011F14081518148175907C0F04817590711
:102D000061F482819381209719F09B838A832BC081
:102D1000909351178093501726C02115310519F053
:102D20004217530718F49A01BE01DF01EF01028038
:102D3000F381E02DDCCF2115310509F1281B390B7A
:102D40002430310590F412968D919C911397611562
:102D5000710521F0FB019383828304C09093511786
:102D600080935017FD01329644C0FD01E20FF31F1E
:102D700081939193225031092D933C933AC0209135
:102D80004E1730914F17232B41F4209102023091BE
:102D9000030230934F1720934E1720910002309179
:102DA00001022115310541F42DB73EB740910402CF
:102DB00050910502241B350BE0914E17F0914F17EF
:102DC000E217F307A0F42E1B3F0B2817390778F002
:102DD000AC014E5F5F4F2417350748F04E0F5F1F61
:102DE00050934F1740934E178193919302C0E0E0A8
:102DF000F0E0CF01DF91CF9108950F931F93CF9310
:102E0000DF93009709F48CC0FC0132971382128281
:102E100000915017109151170115110581F420816F
:102E20003181820F931F20914E1730914F17281731
:102E3000390779F5F0934F17E0934E1771C0D80119
:102E400040E050E0AE17BF0750F412962D913C9130
:102E50001397AD012115310509F1D901F3CF9D017A
:102E6000DA013383228360817181860F971F821775
:102E7000930769F4EC0128813981260F371F2E5FF3
:102E80003F4F318320838A819B8193838283452BAB
:102E900029F4F0935117E093501742C01396FC9316
:102EA000EE931297ED01499159919E01240F351F20
:102EB000E217F30771F480819181840F951F0296C8
:102EC00011969C938E938281938113969C938E93FB
:102ED0001297E0E0F0E0D80112968D919C91139743
:102EE000009719F0F8018C01F6CF8D919C91980113
:102EF0002E5F3F4F820F931F20914E1730914F1737
:102F00002817390769F4309729F410925117109255
:102F1000501702C01382128210934F1700934E175E
:102F2000DF91CF911F910F91089542E45AE047C07D
:102F3000FB01DC0104C08D910190801921F4415006
:102F40005040C8F7881B990B0895FB01DC0102C0B3
:102F500001900D9241505040D8F70895FB01DC01DB
:102F60008D91019080190110D9F3990B0895FB01FF
:102F7000DC014150504030F08D910190801919F4DE
:102F80000020B9F7881B990B0895FB015191552337
:102F9000A9F0BF01DC014D9145174111E1F759F44A
:102FA000CD010190002049F04D9140154111C9F328
:102FB000FB014111EFCF81E090E001970895FA0104
:102FC000A191B081009719F41097E1F0CD01DC01D7
:102FD000CD010D90002011F4C00113C0FB0121911F
:102FE000222319F02015D9F7F3CFFB0121912015E9
:102FF00019F41E92119606C02223C1F70D900020ED
:10300000A1F7D001FA01A193B0830895CF93DF9384
:10301000CDB7DEB7AE014A5F5F4FFA0161917191A2
:10302000AF01809154179091551762D0DF91CF91E5
:1030300008950F931F93CF93DF93E0915417F0916E
:103040005517238121FF1BC08C01D0E0C0E0F8019F
:1030500081918F016091541770915517DB0118967B
:10306000ED91FC911997882331F01995892B79F30B
:10307000DFEFCFEFECCF8AE01995892B19F08FEFB6
:103080009FEF02C08D2F9C2FDF91CF911F910F9149
:1030900008950F931F93CF93DF93CDB7DEB72E978D
:1030A0000FB6F894DEBF0FBECDBF0E891F8986E034
:1030B0008C831A8309838FEF9FE79E838D83AE01F4
:1030C000465E5F4F688D798DCE01019611D02F81BC
:1030D0003885F801E20FF31F10822E960FB6F89490
:1030E000DEBF0FBECDBFDF91CF911F910F9108952D
:1030F0002F923F924F925F926F927F928F929F9208
:10310000AF92BF92CF92DF92EF92FF920F931F93F5
:10311000CF93DF93CDB7DEB72C970FB6F894DEBF11
:103120000FBECDBF7C016B018A01FC0117821682A4
:10313000838181FFB0C1CE0101964C01F7019381DB
:10314000F60193FD859193FF81916F01882309F426
:103150009EC1853239F493FD859193FF81916F0172
:10316000853221F4B70190E0C7D1E8CF512C312C42
:1031700020E02032A0F48B3269F030F4803259F034
:10318000833269F420612CC08D3239F0803339F4F8
:10319000216026C02260246023C0286021C027FD52
:1031A00027C030ED380F3A3078F426FF06C0FAE039
:1031B0005F9E300D1124532E13C08AE0389E300DCF
:1031C0001124332E20620CC08E3221F426FD5FC103
:1031D000206406C08C3611F4206802C0883641F4A1
:1031E000F60193FD859193FF81916F018111C1CF0C
:1031F000982F9F7D9554933028F40C5F1F4FFFE369
:10320000F9830DC0833631F0833771F0833509F0CF
:1032100057C021C0F801808189830E5F1F4F44246D
:103220004394512C540114C03801F2E06F0E711C0C
:10323000F801A080B18026FF03C0652D70E002C0B8
:103240006FEF7FEFC5012C874CD12C0183012C85BA
:103250002F77222E16C03801F2E06F0E711CF80194
:10326000A080B18026FF03C0652D70E002C06FEF23
:103270007FEFC5012C872AD12C012C852068222EB6
:10328000830123FC19C0832D90E048165906A0F451
:10329000B70180E290E030D13A94F5CFF50127FCF8
:1032A000859127FE81915F01B70190E025D1311012
:1032B0003A94F1E04F1A51084114510479F7DEC0F5
:1032C000843611F0893631F5F80127FF07C0608197
:1032D0007181828193810C5F1F4F08C06081718171
:1032E000072E000C880B990B0E5F1F4F2F76722E46
:1032F00097FF09C090958095709561957F4F8F4F8E
:103300009F4F2068722E2AE030E0A4012DD1A82E14
:10331000A81843C0853729F42F7EB22E2AE030E06A
:1033200025C0F22FF97FBF2E8F36C1F018F48835F3
:1033300079F0ADC0803719F0883721F0A8C02F2F61
:103340002061B22EB4FE0DC08B2D8460B82E09C052
:1033500024FF0AC09F2F9660B92E06C028E030E0F7
:1033600005C020E130E002C020E132E0F801B7FE04
:1033700007C060817181828193810C5F1F4F06C0FD
:103380006081718180E090E00E5F1F4FA401ECD05E
:10339000A82EA818FB2DFF777F2E76FE0BC0372DA9
:1033A0003E7FA51450F474FE0AC072FC08C0372D8D
:1033B0003E7E05C0BA2C372D03C0BA2C01C0B52CF7
:1033C00034FF0DC0FE01EA0DF11D8081803311F440
:1033D000397E09C032FF06C0B394B39404C0832F72
:1033E000867809F0B39433FD12C030FF06C05A2C22
:1033F000B31418F4530C5B18B32CB31460F4B70176
:1034000080E290E03C8778D0B3943C85F6CFB3144B
:1034100010F43B1801C0312C34FF11C0B70180E318
:1034200090E03C8769D03C8532FF16C031FD03C077
:1034300088E790E002C088E590E0B7010CC0832FD8
:10344000867851F031FF02C08BE201C080E237FD87
:103450008DE2B70190E050D0A51430F4B70180E3BD
:1034600090E04AD05A94F8CFAA94F401EA0DF11DE5
:103470008081B70190E040D0A110F6CF332009F44D
:103480005DCEB70180E290E037D03A94F7CFF701F4
:103490008681978102C08FEF9FEF2C960FB6F8942C
:1034A000DEBF0FBECDBFDF91CF911F910F91FF9077
:1034B000EF90DF90CF90BF90AF909F908F907F90D4
:1034C0006F905F904F903F902F900895FC01059072
:1034D000615070400110D8F7809590958E0F9F1F16
:1034E0000895FC016150704001900110D8F780955B
:1034F00090958E0F9F1F08950F931F93CF93DF9387
:10350000FB01238121FD03C08FEF9FEF28C022FF25
:1035100016C046815781248135814217530744F4F0
:10352000A081B1819D012F5F3F4F318320838C9318
:10353000268137812F5F3F4F3783268310C0EB01F1
:10354000092F182F0084F185E02D1995892BE1F6BC
:103550008E819F8101969F838E83812F902FDF9193
:10356000CF911F910F910895FA01AA27283051F1A8
:10357000203181F1E8946F936E7F6E5F7F4F8F4FA4
:103580009F4FAF4FB1E03ED0B4E03CD0670F781F03
:10359000891F9A1FA11D680F791F8A1F911DA11DE8
:1035A0006A0F711D811D911DA11D20D009F4689421
:1035B0003F912AE0269F11243019305D3193DEF6C9
:1035C000CF010895462F4770405D4193B3E00FD07F
:1035D000C9F7F6CF462F4F70405D4A3318F0495D6A
:1035E00031FD4052419302D0A9F7EACFB4E0A6954D
:1035F0009795879577956795BA95C9F7009761056F
:10360000710508959B01AC010A2E069457954795C4
:1036100037952795BA95C9F7620F731F841F951FB9
:08362000A01D0895F894FFCFEE
:1036280000005817200000000002000000002414C9
:1036380000000000256C64002E002B4349505354B1
:10364800415F4355523A6970002B434950535441E6
:103658005F4355523A6E65746D61736B002B434935
:10366800505354415F4355523A67617465776179A5
:10367800002B4349505354413A6970002B43495039
:103688005354413A6E65746D61736B002B43495016
:103698005354413A67617465776179002B43495007
:1036A80041505F4355523A6970002B43495041508D
:1036B8005F4355523A6E65746D61736B002B4349D5
:1036C8005041505F4355523A67617465776179009C
:1036D8002B43495041503A6970002B43495041509F
:1036E8003A6E65746D61736B002B43495041503AD3
:1036F800676174657761790053454E44204F4B0DDF
:103708000A004552524F520D0A0072656164790DE4
:103718000A006275737920702E2E2E0D0A002B492F
:1037280050442C007764742072657365740D0A0028
:103738005749464920434F4E4E45435445440D0A88
:10374800005749464920444953434F4E4E45435438
:103758000D0A005749464920474F542049500D0A41
:1037680000444843502054494D454F5554002C437C
:103778004F4E4E4543540D0A00414C524541445961
:1037880020434F4E4E45435445440D0A002C434CAC
:103798004F5345440D0A002C434F4E4E4543542089
:1037A8004641494C0D0A002B43574A41503A002BD9
:1037B80043574A41505F4355523A002B43574A41B9
:1037C800505F002B4357534150002B4349505354EB
:1037D80041002B43495041500053454E44204F4B24
:1037E800002B4349505354414D4143002B4349500A
:1037F80041504D4143003E20005C3000436F6E74E1
:10380800656E742D4C656E6774683A200041542BC0
:10381800434950434C4F53453D350D0A0041542B05
:1038280043575141500041542B43575141500D0AC1
:103838000041542B43574A41505F4355523F0D0AAC
:10384800002B4349505354415F4355520041542B78
:103858004349505354415F4355523F0D0A002B438F
:10386800495041505F4355520041542B4349504100
:10387800505F4355523F0D0A0041542B4349505362
:1038880054414D41433F0D0A0041542B4349504197
:10389800504D41433F0D0A0041542B524553544F5C
:1038A80052450D0A0041542B5246504F5745523D40
:1038B8000041542B4349505345525645523D300D13
:1038C8000A0041542B43575341503F0D0A002C38EE
:1038D8002C312C302C300D0A0041542B55415254B8
:1038E8000041542B554152545F4355520041542BCB
:1038F800554152545F4445460041542B534C45456D
:10390800503D002B534C4545500041542B47534CD8
:10391800503D0041542B43574D4F44455F4355524A
:103928003D0041542B43574D4F44450041542B43D0
:10393800495053454E4445583D002C323034380DDB
:103948000A0041542B434950434C4F53453D0041D5
:10395800542B4349504D55583D0041542B43495031
:1039680044494E464F3D0041542B4349505345521C
:103978005645523D312C0041542B43495053544F26
:103988003D0041542B43574A41505F4355523D2215
:1039980000220D0A0041542B43574A41505F4445C9
:1039A800463D2200253032783A253032783A2530A3
:1039B80032783A253032783A253032783A25303222
:1039C800780041542B4349505354414D41435F4380
:1039D80055520041542B4349505354414D41435F84
:1039E8004445460041542B43495041504D41435FA3
:1039F8004355520041542B43495041504D41435F78
:103A08004445460041542B43575341505F43555258
:103A18003D2200222C0041542B43575341505F4410
:103A280045463D220041542B43574155544F434F7F
:103A38004E4E3D0041542B43495053544152543D3E
:103A4800002C22544350222C22002C2253534C2267
:103A58002C220041542B43495053534C53495A4547
:103A68003D0050726F6772616D2073746172746586
:103A780064212041544D4547412032353630206F6E
:103A88006E2041726475696E6F204D454741206212
:103A98006F6172640D004572726F72207472796979
:103AA8006E6720746F20696E697469616C697A65E4
:103AB8002045535038323636206D6F64756C650D6D
:103AC80000496E697469616C697A6174696F6E2006
:103AD80066696E6973686564210D00594F555220F7
:103AE80050415353574F524400594F555220535346
:103AF80049440073746D333266342D646973636F9F
:103B0800766572792E636F6D0073746D3332663427
:103B1800646973636F00446576696365206973201F
:103B280072656164790D005761746368646F67201A
:103B38007265736574206465746563746564210DCA
:103B4800005769666920697320646973636F6E6ED4
:103B58006563746564210D0057696669206973207F
:103B6800636F6E6E6563746564210D00436F6E6EDE
:103B7800656374696F6E20746F2077696669206E5B
:103B88006574776F726B20686173206661696C6514
:103B9800642E20526561736F6E2025640D0A0057EC
:103BA80069666920676F7420616E204950206164DE
:103BB80064726573730D004772616262696E672093
:103BC8004950207374617475733A2025640D0A0096
:103BD800576520686176652076616C696420495074
:103BE80020616464726573733A2025642E25642EFF
:103BF80025642E25640D0A00444843502074696DDD
:103C0800656F7574210D00576520686176652064BD
:103C1800657465637465642025642041502073745D
:103C28006174696F6E730D0A002532643A2025733A
:103C38000D0A00436C69656E7420636F6E6E656370
:103C480074656420746F20736572766572212043F1
:103C58006F6E6E656374696F6E206E756D626572E6
:103C68003A2025730D0A00416E206572726F72202A
:103C78006F63637572726564207768656E2074720D
:103C880079696E6720746F20636F6E6E6563742048
:103C98006F6E20636F6E6E656374696F6E3A202570
:103CA800640D0A00474554202F20485454502F31A2
:103CB8002E310D0A00486F73743A2073746D3332D5
:103CC80066342D646973636F766572792E636F6DE0
:103CD8000D0A00436F6E6E656374696F6E3A2063F8
:103CE8006C6F73650D0A00446174612073756363BA
:103CF80065737366756C6C792073656E7420617377
:103D080020636C69656E74210D004572726F7220B4
:103D18007768696C652073656E64696E6720646195
:103D28007461206F6E20636F6E6E656374696F6E69
:103D3800202564210D0A0044617461207265636561
:103D4800697665642066726F6D2073657276657238
:103D5800206F6E20636F6E6E656374696F6E3A20B4
:103D680025733B204E756D626572206F66206279FF
:103D78007465732072656365697665643A20256C9D
:103D8800753B20256C75202F20256C753B0D0A008E
:103D9800546869732069732066697273742070614E
:103DA800636B65742072656365697665642E20436C
:103DB8006F6E74656E74206C656E677468206F6EC4
:103DC800207468697320636F6E6E656374696F6EC3
:103DD8002069733A20256C750D0A00436C69656E7D
:103DE8007420636F6E6E656374696F6E20636C6FA9
:103DF8007365642C20636F6E6E656374696F6E3AC9
:103E08002025643B20546F74616C2062797465735B
:103E18002072656365697665643A20256C753B2078
:103E2800436F6E74656E742D4C656E677468206898
:103E380065616465723A20256C750D0A0054696DD8
:103E4800656F75742072656163686564206F6E20A4
:103E5800636F6E6E656374696F6E3A2025640D0A30
:023E6800000058
:00000001FF
