:020000040800F2
:10000000D09F0220C90200081553000817530008AA
:100010001B5300081F530008235300080000000072
:100020000000000000000000000000000D020008B9
:100030002753000800000000610200082B5300084D
:10004000E3020008E3020008E3020008E3020008FC
:10005000E3020008E3020008E3020008E3020008EC
:10006000E3020008E3020008E3020008D14E0008A2
:10007000DD4E0008E94E0008F54E0008014F00086B
:100080000D4F0008194F0008E3020008E3020008C2
:10009000E3020008E3020008E3020008E3020008AC
:1000A000E3020008E3020008E3020008E30200089C
:1000B000E3020008E3020008E3020008E30200088C
:1000C000E3020008E3020008E3020008E30200087C
:1000D000E30200082B4B00084D4B0008734B00084F
:1000E000E3020008E3020008E3020008E30200085C
:1000F000E3020008E3020008E3020008254F0008BD
:10010000E3020008E3020008E3020008E30200083B
:10011000994B0008BF4B0008E3020008E302000807
:10012000314F00083B4F0008474F0008534F00086D
:100130005F4F0008E3020008E3020008E302000842
:10014000E3020008E3020008E3020008E3020008FB
:100150006B4F0008774F0008834F0008DF4B000803
:10016000E3020008E3020008E3020008E3020008DB
:10017000E3020008E3020008E302000800000000B8
:10018000E3020008E3020008054C00082B4C0008BD
:10019000E3020008E3020008E3020008E3020008AB
:1001A000E3020008E3020008E3020008E30200089B
:1001B000E3020008E3020008E3020008E30200088B
:1001C000E3020008E3020008E3020008E30200087B
:1001D000E3020008E3020008E3020008E30200086B
:1001E000E3020008E3020008E3020008E30200085B
:1001F000E3020008E3020008DFF80CD00DF070FF06
:1002000000480047A54F0008D09F02202B4B1968DB
:100210000868B0E8F04F80F30988BFF36F8F4FF0A4
:10022000000080F311887047000000000648006855
:10023000006880F3088862B661B6BFF34F8FBFF3E2
:100240006F8F00DF00BF00BF08ED00E0DFF80C009B
:10025000016841F470010160704700BF88ED00E063
:10026000EFF30980BFF36F8F144B1A681EF0100F65
:1002700008BF20ED108A20E9F04F106008B44FF05D
:10028000500072B680F31188BFF34F8FBFF36F8FAA
:1002900062B60CF040FA4FF0000080F3118808BC01
:1002A00019680868B0E8F04F1EF0100F08BFB0ECF6
:1002B000108A80F30988BFF36F8F70470401022012
:1002C000EFF3058070470000064880470648004766
:1002D000FEE7FEE7FEE7FEE7FEE7FEE7FEE7FEE7F6
:1002E000FEE7FEE735530008F9010008704770B5D6
:1002F0000446684800684FF47A71B0FBF1F528466F
:1003000000F06EF900222146501E00F0F3F80020A4
:1003100070BD10B56048006840F400705E49086028
:10032000032000F0D5F80F20FFF7E1FFFFF7DEFF15
:10033000002010BD704710B54FF0FF3057490860DE
:1003400000200860401E091D086000200860401E53
:1003500052491039086000200860401E091D0860DD
:1003600000200860401E091D086000200860FFF79B
:10037000E1FF002010BD4A480068401C4849086061
:10038000704747480068704731B5002403F0A0FC6F
:10039000044600BF03F09CFC001B00998842F9D37F
:1003A00038BD4FF0E020006920F002004FF0E0215E
:1003B000086170474FF0E020006940F002004FF004
:1003C000E021086170473748704737480068000CE3
:1003D000704735480068C0F30B00704732484068EA
:1003E00040F001003049486070472F48406820F0D5
:1003F00001002D49486070472B48406840F00200DA
:100400002949486070472848406820F00200264982
:10041000486070472448406840F004002249486022
:1004200070472148406820F004001F494860704729
:100430001E48006840F001001C49086070471B48D6
:10044000006820F0010019490860704717482038FB
:10045000006840F4806015492039086070471348EF
:100460002038006820F44060104920390860704747
:100470000E482038006840F480700C49203908602C
:1004800070470A482038006820F4807007492039F6
:1004900008607047DC000220003C02402038024027
:1004A0000000022000020101002004E02038014089
:1004B00010B5002807DA0A07140ED94A00F00F0316
:1004C0001B1FD45403E00A07130ED64A135410BD61
:1004D00000BF00F00702D24B0C3B19684FF6FF0338
:1004E0001940D14B0B4343EA0221CD4B0C3B196021
:1004F00000BF70472DE9F05F80460D461646002785
:1005000000F087F9074639462A46334601F00700CE
:10051000C0F1070ABAF1040F02D94FF0040A01E052
:10052000C0F1070AD14600F1040ABAF1070F02D25E
:100530004FF0000A01E0A0F1030AD4464FF0010A8F
:100540000AFA09FAAAF1010A0AEA020A0AFA0CFAF4
:100550004FF0010B0BFA0CFBABF1010B0BEA030B99
:100560004AEA0B0421464046FFF7A2FFBDE8F09F90
:1005700000BF00F01F02012191404209920002F1E8
:10058000E022C2F8001100BF704700BF00F01F0258
:1005900001219140A54A430942F8231000BF70474A
:1005A00000BF00BF00BF00BF00BFBFF34F8F00BF41
:1005B00000BF00BF9A480C38006800F4E0609A4918
:1005C0000843001D96490C39086000BF00BF00BFFA
:1005D000BFF34F8F00BF00BF00BF00E000BFFDE7CB
:1005E00070B504462546681EB0F1807F01D3012016
:1005F0000FE0681E4FF0E02148610F214FF0FF30FF
:10060000FFF756FF00204FF0E021886107200861C6
:10061000002070BD00BF00BF00BFBFF35F8F00BFF1
:1006200000BF00BF7E480C30006820F480307C4959
:100630000C31086000207A497C310860704740F036
:100640000101774A7C32116075490C31096841F427
:100650008031734A0C32116000BF00BF00BFBFF38E
:100660004F8F00BF00BF00BF00BF00BF00BFBFF380
:100670006F8F00BF00BF00BF70474178684A80326B
:1006800011600178F9B1121D41681160017B090701
:10069000C27A41EA0261827A41EAC241427B41EA7E
:1006A0008241827B41EA4241C27B41EA0241427A75
:1006B00041EA0221027A41EA420102781143584A92
:1006C0008832116005E00021554A84321160121D04
:1006D0001160704710B500F09CF810BD2DE9F04393
:1006E00004462046002808DA4D4F00F00F0CACF10C
:1006F000040C17F80C703F0902E04A4F3F5C3F09B9
:100700003D460E4606F00700C0F10708B8F1040F99
:1007100002D94FF0040801E0C0F10708C44600F117
:100720000408B8F1070F02D24FF0000801E0A0F171
:100730000308474625FA07F84FF0010909FA0CF9B2
:10074000A9F1010908EA0908C2F800804FF0010880
:1007500008FA07F8A8F1010808EA0508C3F80080BC
:1007600000BFBDE8F08300BF00F01F0201219140EF
:100770002E4A8032430942F8231000BF704710B55B
:1007800001460846294A8032430952F8232000F0E6
:100790001F040123A3401A400AB1012200E00022F5
:1007A000104610BD00BF00F01F0201219140204AF9
:1007B000430942F8231000BF704710B501460846B0
:1007C0001B4A8032430952F8232000F01F04012302
:1007D000A3401A400AB1012200E00022104610BDD9
:1007E000042808D14FF0E021096941F004014FF0DD
:1007F000E022116107E04FF0E021096921F00401D6
:100800004FF0E02211617047704710B5FFF7FCFF11
:1008100010BD03480C380068C0F302207047000088
:1008200018ED00E000E400E00000FA0580E100E0DF
:1008300080E200E00146087810381823B0FBF3F29C
:10084000FE48805CC865032A05D908686FF3090073
:10085000001D886503E008686FF309008865886DEE
:100860007047014600208A6A8B6903BB32B1012AB6
:100870000CD0022A10D0032A17D115E0CB6A03F05E
:100880008073B3F1807F00D101200FE0CB6AB3F118
:10089000C07F00D1012009E0CB6A03F08073B3F17F
:1008A000807F00D1012001E000E000BF35E08B69CE
:1008B000B3F5005F1BD132B1012A06D0022A0CD059
:1008C000032A12D10BE0012010E0CB6A03F0807301
:1008D000B3F1807F00D1012008E0012006E0CB6A5F
:1008E000B3F1C07F00D1012000E000BF15E032B1BC
:1008F000012A05D0022A04D0032A0CD103E000BF4C
:1009000000BF012008E0CB6A03F08073B3F1807F61
:1009100000D1012000E000BF00BF70472DE9F04189
:100920000446002503F0D4F9074614B90120BDE8B8
:10093000F081606A00B100BF00BF002084F834007D
:1009400000BF022084F835002068006820F0010014
:10095000216808600AE003F0BBF9C01B052805D92F
:1009600020206065032084F83500E0E720680068F7
:1009700000F001000028EED120680568B04805406D
:10098000D4E901010843E16808432169084361692A
:100990000843A1690843E1690843216A0843054304
:1009A000606A042803D1D4E90B0108430543206899
:1009B00005602068456925F00705606A0543606A9F
:1009C00004280BD1A06A05432046FFF74AFF28B14F
:1009D00040206065012084F83500A8E72068456163
:1009E0002046FFF727FF064694F85C103F2088401A
:1009F000B06000206065012084F83500002096E793
:100A000070B504460CB9012070BD94F83500022879
:100A100000D1F9E72068006820F001002168086033
:100A2000002021680860216848602168886021688A
:100A3000C860216808612120216848612046FFF7CD
:100A4000F9FE054694F85C103F208840A86000201D
:100A5000606584F8350000BF84F8340000BF00BF33
:100A6000D2E730B50468246824F4802405682C603B
:100A7000046863608468402C04D10468A260046840
:100A8000E16003E00468A1600468E26030BD2DE924
:100A9000F04104460D4616461F464FF0000800BFC1
:100AA00094F83400012802D10220BDE8F081012031
:100AB00084F8340000BF94F83500012811D10220D9
:100AC00084F83500002060653B46324629462046C2
:100AD000FFF7C7FF2068006840F001002168086048
:100AE00006E000BF002084F8340000BF4FF0020889
:100AF0004046DAE72DE9F04704460D4616461F4604
:100B00004FF00008D4F8589000BF94F83400012842
:100B100002D10220BDE8F087012084F8340000BF34
:100B200094F8350001282BD1022084F835000020EC
:100B300060653B46324629462046FFF792FF94F80F
:100B40005C103F208840C9F808002068006840F029
:100B50001600216808602068406940F08000216824
:100B60004861206C28B12068006840F008002168C6
:100B700008602068006840F001002168086006E015
:100B800000BF002084F8340000BF4FF00208404648
:100B9000C0E770B50446A56D03F09AF8064694F8D0
:100BA0003500022808D08020606500BF002084F84E
:100BB000340000BF012070BD2068006820F01600DE
:100BC000216808602068406920F080002168486141
:100BD000206C08B9A06C28B12068006820F00800DB
:100BE000216808602068006820F001002168086022
:100BF0000FE003F06DF8801B05280AD920206065FE
:100C000000BF002084F8340000BF032084F83500C2
:100C1000D1E72068006800F001000028E9D194F8CD
:100C20005C103F208840A86000BF002084F834009A
:100C300000BF012084F835000020BCE728E7000849
:100C40003F8010E0014691F83500022803D0802053
:100C5000486501207047052081F835000868006864
:100C600020F001000A6810600020F3E72DE9F05F32
:100C70000446884617464FF0000A03F029F88346D9
:100C800094F83500022809D08020606500BF00205C
:100C900084F8340000BF0120BDE8F09F20680068A0
:100CA00000F4807020B14FF4807060650120F3E79C
:100CB000B8F1000F05D194F85C10202000FA01F97A
:100CC00004E094F85C10102000FA01F9A56D2E687C
:100CD00044E0781C90B12FB102F0FAFFA0EB0B00BA
:100CE000B8420BD92020606500BF002084F8340092
:100CF00000BF012084F835000320CDE72E6894F86A
:100D00005C1008208840304040B1606D40F0010028
:100D1000606594F85C1008208840A86094F85C1026
:100D2000F3488840304040B1606D40F0020060659B
:100D300094F85C10EE488840A86094F85C10EC4889
:100D4000C01C8840304048B1606D40F004006065D0
:100D500094F85C10E648C01C8840A86006EA0900C8
:100D600020B9606D00F001000028B2D0606DA0B124
:100D7000606D00F0010080B12046FFF70AFF94F893
:100D80005C1030208840A86000BF002084F8340048
:100D900000BF012084F835007EE7B8F1000F0DD1C7
:100DA00094F85C1030208840A86000BF002084F8D0
:100DB000340000BF012084F8350004E094F85C1092
:100DC00010208840A860504666E7F8B50446002029
:100DD0000090C84800684FF41651B0FBF1F7A56DBC
:100DE0002E6894F85C1008208840304098B1206844
:100DF000006800F0040070B12068006820F0040072
:100E00002168086094F85C1008208840A860606D34
:100E100040F00100606594F85C10B54888403040AF
:100E200068B12068406900F0800040B194F85C101F
:100E3000AF488840A860606D40F00200606594F89B
:100E40005C10AB48C01C8840304070B1206800681E
:100E500000F0020048B194F85C10A548C01C88401E
:100E6000A860606D40F00400606594F85C1010208C
:100E70008840304078B32068006800F0080050B324
:100E800094F85C1010208840A8602068006800F486
:100E9000802080B12068006800F4002028B9206C10
:100EA000C8B12046216C884715E0A06C98B1204657
:100EB000A16C88470FE02068006800F4807028B9B2
:100EC0002068006820F0080021680860206C10B1DC
:100ED0002046216C884794F85C10202088403040E0
:100EE000002865D02068006800F0100000285FD05E
:100EF00094F85C1020208840A86094F835000528FC
:100F000028D12068006820F0160021680860206859
:100F1000406920F0800021684861206C08B9A06C0D
:100F200028B12068006820F008002168086094F863
:100F30005C103F208840A86000BF002084F8340087
:100F400000BF012084F83500206D10B12046216DCE
:100F50008847F8BD2068006800F4802080B12068D0
:100F6000006800F4002028B9606C10B12046616C64
:100F700088471DE0E06BD8B12046E16B884717E059
:100F80002068006800F4807068B92068006820F06C
:100F900010002168086000BF002084F8340000BF02
:100FA000012084F83500E06B10B12046E16B8847E2
:100FB000606D38B3606D00F00100F0B1052084F879
:100FC00035002068006820F001002168086000BF3B
:100FD0000098401C0090B84200D905E020680068E5
:100FE00000F001000028F3D100BF00BF002084F80A
:100FF000340000BF012084F83500E06C10B12046B9
:10100000E16C884700BFA4E710B50346002400BF89
:1010100093F83400012801D1022010BD012083F88B
:10102000340000BF93F83500012814D1062910D2EE
:10103000DFE801F0030507090B0DDA630AE01A6423
:1010400008E05A6406E09A6404E0DA6402E01A6593
:1010500000E000BF00E0012400BF002083F834005E
:1010600000BF2046D9E70246002300BF92F83400B3
:10107000012801D102207047012082F8340000BF0E
:1010800092F83500012824D107291FD2DFE801F0AA
:1010900004070A0D101316000020D06318E000208A
:1010A000106415E00020506412E0002090640FE00E
:1010B0000020D0640CE00020106509E00020D0631F
:1010C000106450649064D064106501E0012300BF97
:1010D00000E0012300BF002082F8340000BF184662
:1010E000C9E7014691F8350070470146486D7047E1
:1010F00001008000DC000220F8B502460B4600210A
:1011000000250024002000BFE4E0012606FA01F5D6
:101110001E6806EA0504AC4271D15E68022E02D058
:101120005E68122E13D1CF0802F1200656F8270070
:101130004E07F70E0F26BE40B0434F07FF0E1E6945
:10114000BE403043CF0802F1200646F82700106861
:101150004F000326BE40B0431E7906F003064F0041
:10116000BE40304310605E68012E08D05E68022EDB
:1011700005D05E68112E02D05E68122E13D19068E1
:101180004F000326BE40B0434F00DE68BE403043F0
:101190009060506801268E40B0431E79C6F3001659
:1011A0008E4030435060D0684F000326BE40B043AD
:1011B0004F009E68BE403043D0605E6806F08056A7
:1011C000B6F1805FA8D100BFB44E366846F48046C1
:1011D000B24F3E603E46366806F48046009600BF39
:1011E00000BFAF4E8F0856F827008E07370F0F2627
:1011F000BE40B043AB4EB24202D100262EE068E0C2
:10120000A94EB24201D1012628E0A84EB24201D136
:10121000022623E0A64EB24201D103261EE0A54ECF
:10122000B24201D1042619E0A34EB24201D10526F3
:1012300014E0A24EB24201D106260FE0A04EB24207
:1012400001D107260AE09F4EB24201D1082605E0EF
:101250009D4EB24201D1092600E00A268F073F0FBA
:10126000BE4030438E4E8F0846F82700974E3068B8
:10127000A0435E6806F48036B6F5803F00D1204377
:10128000924E3060361D3068A0435E6806F400362A
:10129000B6F5003F00D120438C4E361D3060361D20
:1012A0003068A0435E6806F48016B6F5801F00D152
:1012B0002043864E08363060361D3068A0435E6895
:1012C00006F40016B6F5001F00D120437F4E0C3601
:1012D0003060491C1029FFF418AFF8BDF0B50C467A
:1012E00000250022002300219CE0012606FA01F5DA
:1012F00004EA0502AA427DD106684FEA410C0327A1
:1013000007FA0CF7BE430660CF0800F1200656F836
:1013100027604F074FEAD76C0F2707FA0CF7BE4339
:101320004FEAD10C00F1200747F82C6086684FEA9D
:10133000410C032707FA0CF7BE4386604768012675
:101340008E40B7434760C6684FEA410C032707FA4F
:101350000CF7BE43C660524E8F0856F827308E07F2
:10136000370F0F26BE4033404E4EB04201D100260B
:101370002DE04D4EB04201D1012628E04B4EB04247
:1013800001D1022623E04A4EB04201D103261EE0DD
:10139000484EB04201D1042619E0474EB04201D177
:1013A000052614E0454EB04201D106260FE0444E1A
:1013B000B04201D107260AE0424EB04201D10826D0
:1013C00005E0414EB04201D1092600E00A268F0710
:1013D0003F0FBE409E4224D18E07370F0F2606FADC
:1013E00007F32F4E8F0856F827609E432C4F4FEA85
:1013F000910C00E015E047F82C60344E36689643B7
:10140000324F3E603E1D366896433F1D3E603E1D96
:10141000366896433F1D3E603E1D366896433F1D2D
:101420003E60491C1029FFF460AFF0BD024613690D
:101430000B400BB1012000E0002070470AB1816130
:1014400001E00B048361704742694A404261704782
:1014500008B502464FF48030009000980843009091
:101460000098D061D1610098D061D0690090D069B6
:1014700000F4803008B1002008BD0120FCE770476F
:1014800010B50446114814300068204028B10F48B8
:10149000143004602046FFF7F2FF10BD44380240CC
:1014A00008380140000002400004024000080240E9
:1014B000000C0240001002400014024000180240DC
:1014C000001C02400020024000240240003C014079
:1014D00010B50024DA48406840F40070D8494860EC
:1014E0000846406840F48070486002F0F1FB044612
:1014F00007E002F0EDFB001BB0F57A7F01D9032075
:1015000010BDCF484068C0F3C0000028F1D00020D3
:10151000F6E710B50024CA48406820F40070C849B6
:1015200048600846406840F48070486002F0D0FB94
:10153000044607E002F0CCFB001BB0F57A7F01D92E
:10154000032010BDBE484068C0F3C0000028F1D1A0
:1015500000BFF6E7BA48006840F40070B849086078
:101560007047B748006820F40070B54908607047BC
:10157000B348006840F40060B14908607047B04863
:10158000006820F40060AE4908607047AC4800680D
:1015900040F48060AA4908607047A948006820F4B8
:1015A0008060A7490860704738B5002400BFA5488F
:1015B000006840F08050A34908600846006800F0C9
:1015C0008050009000BF00BF9D48006840F480300C
:1015D0009B49086002F07CFB044607E002F078FBC0
:1015E000001BB0F57A7F01D9032038BD94484068CC
:1015F00000F48030B0F5803FF0D19148006840F4AD
:1016000000308F49086002F063FB044607E002F0F7
:101610005FFB001BB0F57A7F01D90320E5E788481E
:10162000406800F40030B0F5003FF0D10020DCE766
:1016300038B5002400BF8348006840F080508149DD
:1016400008600846006800F08050009000BF00BFAE
:101650007B48006820F400307949086002F038FBCC
:10166000044607E002F034FB001BB0F57A7F01D995
:10167000032038BD7248406800F40030B0F5003FE8
:10168000F0D06F48006820F480306D49086002F0A7
:101690001FFB044607E002F01BFB001BB0F57A7F3E
:1016A00001D90320E5E76648406800F48030B0F5D2
:1016B000803FF0D00020DCE7F8B505460E46002458
:1016C000002700BF5F48006840F080505D49086017
:1016D0000846006800F08050009000BF00BF5848E6
:1016E000406840F44020564948600846006840F48D
:1016F0004020086002F0ECFA074607E002F0E8FA42
:10170000C01BB0F57A7F01D90320F8BD4C48406872
:1017100000F44020B0F5402FF0D04948046840F66E
:10172000034084432C43464804604748006840F027
:10173000040045490860012E01D130BF00E020BF00
:101740004148006820F004003F4908600020DCE7C1
:101750003B48006800F44040704738B50546002417
:1017600000BF3848006840F080503649086008469D
:10177000006800F08050009000BF00BF314838384A
:10178000006800F00C00082855D02E48403800684A
:1017900020F080702B494039086002F099FA044625
:1017A00006E002F095FA001B022801D9032038BD9B
:1017B000244840380068C0F340600028F1D100BFE1
:1017C0001F48006820F4404028431D49086008462F
:1017D000006800F44040009000BF00BF1948403846
:1017E000006840F0807017494039086002F070FAD4
:1017F000044606E002F06CFA001B022801D903201F
:10180000D5E7104840380068C0F340600028F1D0A8
:1018100002F05EFA044607E002F05AFA001BB0F547
:101820007A7F01D90320C2E705484068C0F38030C1
:101830000028F1D001E00120B9E70020B7E700005F
:10184000007000404038024010ED00E0F7480068AA
:1018500040F08100F54908600020F4490831086033
:10186000F2480068F2490840F04908600020091D6C
:10187000086008460068EF490843EC49091D086004
:101880000020EA498431086008460068EA490843B4
:10189000E64984310860E548006820F48020E34987
:1018A00008600020E1490C310860E448E449086020
:1018B000704738B504460025207800F00100002864
:1018C0007BD0DA480830006800F00C0004280ED005
:1018D000D6480830006800F00C00082812D1D34820
:1018E000001D006800F48000B0F5800F0AD1CF48D9
:1018F0000068C0F3404000285FD0606800285CD1D9
:10190000012038BD00BF6068B0F5803F06D1C748F0
:10191000006840F48030C549086028E0606858B924
:10192000C248006820F48030C0490860084600685A
:1019300020F4802008601AE06068B0F5A02F0BD179
:10194000BA48006840F48020B8490860084600683A
:1019500040F4803008600AE0B448006820F4803029
:10196000B24908600846006820F48020086000BF83
:10197000606888B102F0ACF9054606E002F0A8F90B
:10198000401B642801D90320BBE7A8480068C0F3C6
:1019900040400028F2D010E002F09AF9054606E037
:1019A00002F096F9401B642801D90320A9E79F485B
:1019B0000068C0F340400028F2D1207800F0020017
:1019C00002286AD199480830006800F00C0060B124
:1019D00096480830006800F00C0008281ED1934893
:1019E000001D006800F48000C0B990480068C0F392
:1019F000400020B1E068012801D0012081E78B4838
:101A0000006820F0F800F82292FAA2F2B2FA82F20C
:101A1000216991400843854908603EE0E06828B3A9
:101A20008248006840F001008049086002F050F9E7
:101A3000054606E002F04CF9401B022801D90320BC
:101A40005FE77A480068C0F340000028F2D077488A
:101A5000006820F0F800F82292FAA2F2B2FA82F2BC
:101A60002169914008437149086016E06F48006899
:101A700020F001006D49086002F02AF9054606E0F1
:101A800002F026F9401B022801D9032039E76748F4
:101A90000068C0F340000028F2D1207800F0080070
:101AA000082836D16069D0B160487430006840F0D1
:101AB00001005E497431086002F00AF9054606E04B
:101AC00002F006F9401B022801D9032019E7574804
:101AD00074300068C0F340000028F1D019E053488A
:101AE0007430006820F0010050497431086002F041
:101AF000EFF8054606E002F0EBF8401B022801D99A
:101B00000320FEE6494874300068C0F34000002816
:101B1000F1D1207800F00400042871D100BF4348BF
:101B20004030006840F0805040494031086008462D
:101B3000006800F08050009000BF00BF414800687E
:101B400040F480703F49086002F0C2F8054606E0A4
:101B500002F0BEF8401B642801D90320D1E63948C1
:101B6000006800F480700028F2D000BFA06801284F
:101B700008D12E487030006840F001002B497031C8
:101B800008602DE0A06868B928487030006820F02F
:101B900001002649703108600846006820F0040002
:101BA00008601DE0A06805280DD12048703000684D
:101BB00040F004001D49703108600846006840F09C
:101BC000010008600CE019487030006820F0010046
:101BD0001649703108600846006820F0040008606B
:101BE00000BFA068A8B102F073F8054609E002F052
:101BF0006FF8401B41F28831884202D9032080E609
:101C000028E00A4870300068C0F340000028EED099
:101C100020E002F05DF8054616E002F059F8401B9E
:101C200041F2883188420FD903206AE60038024029
:101C3000FFFFF6FA10300024003000200024F400EA
:101C4000DC00022000700040FA480068C0F3400049
:101C50000028E2D1A069E0B3F6486838006800F0D7
:101C60000C00082870D0A069022861D1F1487038B2
:101C7000006820F08070EF497039086002F028F8A1
:101C8000054606E002F024F8401B022801D9032093
:101C900037E6E84870380068C0F340600028F1D1AA
:101CA000D4E90701084347F6C07292FAA2F2B2FAE9
:101CB00082F2616A914008430122A16AC2EB51019C
:101CC0004FF4403292FAA2F2B2FA82F29140084303
:101CD00000E04BE04FF0706292FAA2F2B2FA82F2A8
:101CE000E16A914008434FF0E04292FAA2F2B2FA60
:101CF00082F2216B91400843CE496C390860081F7D
:101D0000006840F08070091F086001F0E1FF05469F
:101D100006E001F0DDFF401B022801D90320F0E5B9
:101D2000C44870380068C0F340600028F1D01DE05E
:101D3000C0487038006820F08070BE497039086073
:101D400001F0C6FF054607E00EE001F0C1FF401BB1
:101D5000022801D90320D4E5B64870380068C0F3E2
:101D600040600028F1D101E00120CAE50020C8E56B
:101D700070B50021002200230020AE4C683C24688E
:101D800004F00C0424B1042C04D0082C41D103E04D
:101D9000A94840E0A9483EE0A64C6C3C246804F009
:101DA0003F01A44C6C3C246804F4800484B1A34C2F
:101DB000B4FBF1F59F4C6C3C246847F6C076344088
:101DC00096FAA6F6B6FA86F6F44005FB04F20FE0A2
:101DD000994CB4FBF1F5974C6C3C246847F6C076FF
:101DE000344096FAA6F6B6FA86F6F44005FB04F2FD
:101DF000904C6C3C246804F440344FF4403595FA20
:101E0000A5F5B5FA85F5EC40641C6300B2FBF3F070
:101E100001E0894800BF00BF70BD70B504460D46A3
:101E200000268748006800F00F00A8420ED28448C0
:101E3000006820F00F0028438149086008460068C8
:101E400000F00F00A84201D0012070BD207800F002
:101E50000200022809D177486838006820F0F000B5
:101E6000A1680843734968390860207800F00100D0
:101E7000002865D06068012807D16E487038006876
:101E8000C0F34040A0B90120DFE76068022807D115
:101E9000684870380068C0F3406048B90120D4E752
:101EA000644870380068C0F3400008B90120CCE7EE
:101EB00060486838006820F00300616808435D49A5
:101EC0006839086001F004FF06466068012811D1F6
:101ED00008E001F0FDFE801B41F28831884201D903
:101EE0000320B2E753486838006800F00C0004286B
:101EF000EFD125E06068022811D108E001F0E8FE8A
:101F0000801B41F28831884201D903209DE749486E
:101F10006838006800F00C000828EFD110E008E0F5
:101F200001F0D6FE801B41F28831884201D903209E
:101F30008BE740486838006800F00C000028EFD1BB
:101F40003F48006800F00F00A8420ED93C480068E6
:101F500020F00F0028433A4908600846006800F066
:101F60000F00A84201D001206FE7207800F00400A4
:101F7000042809D12F486838006820F4E050E1684F
:101F800008432C4968390860207800F008000828C8
:101F90000AD128486838006820F46040216940EA86
:101FA000C100244968390860FFF7E2FE2149683919
:101FB000096801F0F001F02292FAA2F2B2FA82F27C
:101FC000D140204A515CC8401F4908600F20FEF7ED
:101FD0008EF9002039E770B586B006460C461546E6
:101FE000B6BB00BF13484038006840F001001149FB
:101FF000403908600846006800F00100009000BF0A
:1020000000BF881501900220029003200490002058
:102010000390059001A90D48FFF76EF80548683850
:10202000006820F0EC6044EA050108430149683982
:10203000086034E0703802400024F40040787D01EC
:10204000003C02406CE70008DC0002200000024077
:10205000FFE700BF9448006840F004009249086020
:102060000846006800F00400009000BF00BF48155B
:10207000019002200290032004900020039005901C
:1020800001A98A48FFF738F887482838006820F007
:10209000784044EAC501084383492839086006B0FE
:1020A00070BD81483038006840F400207E493039E6
:1020B000086070477C483038006820F400207A4976
:1020C0003039086070477A480068704700B5FFF7FC
:1020D000FAFF75492839096801F4E0514FF4E052DC
:1020E00092FAA2F2B2FA82F2D140724A515CC8402E
:1020F00000BD00B5FFF7E7FF6B492839096801F417
:1021000060414FF4604292FAA2F2B2FA82F2D140F8
:10211000684A515CC84000BD0F21016062493039F6
:10212000096801F48021B1F5802F03D14FF4A0217B
:1021300041600DE05C493039096801F48031B1F546
:10214000803F03D14FF48031416001E000214160C4
:1021500055493039096801F0010111B10121C1600F
:1021600001E00021C16050493039096801F0F801EF
:10217000F82292FAA2F2B2FA82F2D14001614A49FF
:102180004031096801F00401042902D10521816070
:102190000AE045494031096801F0010111B101210E
:1021A000816001E0002181603F494431096801F00C
:1021B000010111B10121416101E0002141613A4970
:1021C0003039096801F08071B1F1807F02D10221BC
:1021D000816101E00121816133492C39096801F4F1
:1021E0008002C26130492C39096801F03F02026265
:1021F0002D492C39096847F6C072114092FAA2F2B3
:10220000B2FA82F2D140416227492C39096801F4BF
:10221000403101F5803149004FF4403292FAA2F288
:10222000B2FA82F2D14081621F492C39096801F06B
:1022300070614FF0706292FAA2F2B2FA82F2D1406B
:10224000C16270470F220260174A283A126802F0F2
:1022500003024260144A283A126802F0F0028260D7
:10226000114A283A126802F4E052C2600E4A283A33
:10227000126802F46042D20802610F4A126802F04A
:102280000F020A607047704710B50748243800688D
:1022900000F08000802805D1FFF7F5FF802002497B
:1022A0002239087010BD000030380240000802409A
:1022B000DC0002207CE70008003C02402DE9F041F0
:1022C00004460D4617469846069E21E0701CF8B15C
:1022D0002EB101F0FDFCA0EB0800B04218D320683D
:1022E000006820F4D070216808602068806820F0C1
:1022F000010021688860202084F8690084F86A0061
:1023000000BF002084F8680000BF0320BDE8F08112
:102310002068C0692840A84201D1012000E00020C7
:10232000B842D3D00020F1E738B50446002500209C
:10233000E06601F0CDFC05462068006800F008006A
:1023400008280CD16FF07E402B4600224FF400117C
:1023500000902046FFF7B2FF08B1032038BD206887
:10236000006800F0040004280CD16FF07E402B467A
:1023700000224FF4800100902046FFF79FFF08B134
:102380000320EBE7202084F8690084F86A0000BF8E
:10239000002084F8680000BF00BFDFE790F8241039
:1023A00001F0010139B10168496821F40031826A04
:1023B00011430268516090F8241001F0020139B114
:1023C0000168496821F48031C26A11430268516092
:1023D00090F8241001F0040139B10168496821F432
:1023E0008021026B11430268516090F8241001F0C3
:1023F000080139B10168496821F40041426B114379
:102400000268516090F8241001F0100139B10168A0
:10241000896821F48051826B11430268916090F8C1
:10242000241001F0200139B10168896821F40051BC
:10243000C26B11430268916090F8241001F04001D2
:1024400099B10168496821F48011026C1143026856
:102450005160016CB1F5801F07D10168496821F412
:10246000C001426C11430268516090F8241001F0E1
:10247000800139B10168496821F40021826C11435F
:102480000268516070472DE9F04704460025102688
:102490000027A846A9462169A06808436169084346
:1024A000E16940EA010520680068FA4908402843CC
:1024B000216808602068406820F44050E1680843C3
:1024C00021684860216AA06940EA010520688068A7
:1024D00020F4306028432168886000BFEE492068FE
:1024E000884215D1ED48006800F0030030B10128A2
:1024F00008D0022804D0032808D105E0012606E010
:10250000022604E0042602E0082600E000BFC1E045
:10251000E3492068884215D1E048006800F00C00CB
:1025200030B1042808D0082804D00C2808D105E0D0
:10253000002606E0022604E0042602E0082600E069
:1025400000BFA7E0D7492068884215D1D34800686A
:1025500000F0300030B1102808D0202804D03028F6
:1025600008D105E0002606E0022604E0042602E089
:10257000082600E000BF8DE0CB492068884215D1D5
:10258000C648006800F0C00030B1402808D080285C
:1025900004D0C02808D105E0002606E0022604E0A9
:1025A000042602E0082600E000BF73E0BF4920686F
:1025B000884218D1B948006800F4407048B1B0F5BD
:1025C000807F0AD0B0F5007F05D0B0F5407F08D1FC
:1025D00005E0002606E0022604E0042602E00826C4
:1025E00000E000BF56E0B2492068884218D1AB48ED
:1025F000006800F4406048B1B0F5806F0AD0B0F5D3
:10260000006F05D0B0F5406F08D105E0012606E067
:10261000022604E0042602E0082600E000BF39E0BC
:10262000A4492068884218D19C48006800F44050B2
:1026300048B1B0F5805F0AD0B0F5005F05D0B0F5C5
:10264000405F08D105E0002606E0022604E00426EB
:1026500002E0082600E000BF1CE09749206888429D
:1026600018D18E48006800F4404048B1B0F5804F62
:102670000AD0B0F5004F05D0B0F5404F08D105E0C5
:10268000002606E0022604E0042602E0082600E018
:1026900000BF00BF00BFE069B0F5004F52D1042E6B
:1026A0002BD005DC4EB1012E12D0022E3BD11AE008
:1026B000082E2DD0102E36D136E0FFF707FD400052
:1026C000616800EB5100B0FBF1F01FFA80F82EE0DA
:1026D000FFF70FFD4000616800EB5100B0FBF1F027
:1026E0001FFA80F823E07549606801EB50006168CB
:1026F000B0FBF1F01FFA80F819E0FFF739FB40005A
:10270000616800EB5100B0FBF1F01FFA80F80EE0B9
:102710004FF48031606801EB50006168B0FBF1F06C
:102720001FFA80F803E000BF4FF0010900BF00BFAF
:102730004FF6F07008EA0007C8F34200074320682C
:10274000C7604AE0042E2CD005DC4EB1012E12D019
:10275000022E3DD11AE0082E2ED0102E38D138E0AE
:10276000FFF7B4FC616800EB5100B0FBF1F080B200
:102770002168C86030E0FFF7BCFC616800EB5100E5
:10278000B0FBF1F080B22168C86025E04C49606878
:1027900001EB50006168B0FBF1F080B22168C860C5
:1027A0001AE0FFF7E5FA616800EB5100B0FBF1F0C9
:1027B00080B22168C8600FE04FF40041606801EB0F
:1027C00050006168B0FBF1F080B22168C86003E09E
:1027D00000BF4FF0010900BF00BF4846BDE8F087C9
:1027E000704710B504460CB9012010BDA06900B1B6
:1027F00000E000BF94F8690028B9002084F8680060
:102800002046FFF7EDFF242084F869002068006867
:1028100020F00100216808602046FFF734FE0128FF
:1028200000D1E2E7606A10B12046FFF7B7FD2068EB
:10283000406820F49040216848602068806820F05B
:102840002A00216888602068006840F00100216843
:1028500008602046FFF768FDC7E710B504460CB9CD
:10286000012010BD94F8690028B9002084F86800A0
:102870002046FFF7B5FF242084F86900206800682F
:1028800020F00100216808602046FFF7FCFD0128C8
:1028900018D1E6E7F369FFEF0010014090380240DD
:1028A0000044004000480040004C00400050004000
:1028B0000014014000780040007C00400048E8011E
:1028C0000024F400606A10B12046FFF767FD20681D
:1028D000406820F49040216848602068806820F0BB
:1028E0002200216888602068806840F00800216824
:1028F00088602068006840F0010021680860204678
:10290000FFF712FDADE770B504460D460CB9012086
:1029100070BD94F8690028B9002084F8680020464A
:10292000FFF75EFF242084F869002068006820F02B
:102930000100216808602046FFF7A5FD012800D1AD
:10294000E6E7606A10B12046FFF728FD206840687E
:1029500020F40060216848602068806820F02A0028
:10296000216888602068406840F4804021684860A1
:102970002068406820F020002843216848602068D3
:10298000006840F00100216808602046FFF7CCFC99
:10299000BEE770B504460E4615460CB9012070BD61
:1029A00094F8690028B9002084F868002046FFF7F1
:1029B00017FF242084F869002068006820F00100D7
:1029C000216808602046FFF75EFD012800D1E6E798
:1029D000606A10B12046FFF7E1FC2068406820F4EF
:1029E0009040216848602068806820F02A002168B3
:1029F0008860B5F5006F05D12068406866F31F60F8
:102A0000216848602068006820F40060284321683D
:102A100008602068006840F00100216808602046D6
:102A2000FFF782FCBBE72DE9F04104460D46164650
:102A30001F464FF0000814B90120BDE8F08194F85A
:102A4000690028B9002084F868002046FFF7C8FE16
:102A5000242084F869002068006820F001002168C3
:102A600008602046FFF70FFD012800D1E5E7606A06
:102A700010B12046FFF792FC2068806840F4804047
:102A8000216888602068806820F40040284321681D
:102A900088604FEA465848EA074820680068F749C6
:102AA000084040EA0800216808602068006840F09B
:102AB0000100216808602046FFF736FCBDE770473B
:102AC00010B504460CB9012010BD242084F869001B
:102AD0002068006820F0010021680860002021685B
:102AE000086021684860216888602046FFF7E7FF9A
:102AF0000020E06684F8690084F86A0000BF84F86A
:102B0000680000BF00BFDFE72DE9F84304460D462B
:102B100016461F464FF0000994F86900202854D14A
:102B200005B116B90120BDE8F88300BF94F868002C
:102B3000012801D10220F6E7012084F8680000BFD7
:102B400000205034E0612120607601F0C1F8814618
:102B500026806680503C21E0B4F85200401EA4F864
:102B600052004B460022802120460097FFF7A6FB2B
:102B700008B10320D7E7A068B0F5805F0AD12069CB
:102B800040B9A846B8F80000C0F308002168886280
:102B9000AD1C03E015F8010B21688862B4F85200FF
:102BA0000028D9D14B460022402120460097FFF74C
:102BB00085FB08B10320B6E7202084F8690000BF38
:102BC000002084F8680000BFADE70220ABE72DE9E4
:102BD000F84F04460D46164699464FF0000A94F801
:102BE0006A0020287AD105B116B90120BDE8F88F16
:102BF00000BF94F86800012801D10220F6E7012007
:102C000084F8680000BF0020583460612220A0745E
:102C100001F05EF8824626806680583C00BFA068BE
:102C2000B0F5805F0AD1206920B940F2FF10A4F806
:102C30005C001CE0FF20A4F85C0018E0A06848B924
:102C4000206918B9FF20A4F85C0010E07F20A4F8E8
:102C50005C000CE0A068B0F1805F08D1206918B971
:102C60007F20A4F85C0002E03F20A4F85C0000BFD5
:102C7000B4F85C8024E0B4F85A00401EA4F85A006E
:102C80005346002220212046CDF80090FFF716FB86
:102C900008B10320AAE7A068B0F5805F09D12069D8
:102CA00038B92F462068406A00EA08003880AD1C19
:102CB00006E02068406A08F0FF01084005F8010BB3
:102CC000B4F85A000028D6D1202084F86A0000BF4A
:102CD000002084F8680000BF88E7FFE7022085E74E
:102CE00010B5034693F86900202824D101B10AB930
:102CF000012010BD00BF93F86800012801D1022017
:102D0000F7E7012083F8680000BF43F84C1F9A8062
:102D1000DA8000201862212058774C3B00BF002049
:102D200083F8680000BF1868006840F080001C68E5
:102D300020600020DDE70220DBE710B5034693F8B2
:102D40006A00202855D101B10AB9012010BD00BF89
:102D500093F86800012801D10220F7E7012083F8E9
:102D6000680000BF5965A3F85820A3F85A2000BF97
:102D70009868B0F5805F0AD1186920B940F2FF1059
:102D8000A3F85C001CE0FF20A3F85C0018E0986842
:102D900048B9186918B9FF20A3F85C0010E07F203B
:102DA000A3F85C000CE09868B0F1805F08D1186966
:102DB00018B97F20A3F85C0002E03F20A3F85C0074
:102DC00000BF0020D866222083F86A0000BF0020E0
:102DD00083F8680000BF1868806840F001001C6834
:102DE000A0601868006840F490701C6820600020A3
:102DF000ACE70220AAE770470168096821F49071E6
:102E0000026811600168896821F00101026891601F
:102E1000202180F86A1070470168096821F0C0011C
:102E200002681160202180F86910704770B505466E
:102E3000AC6B0020523420812080E07D523C212860
:102E400007D12068806800F0800010B12046FFF7AD
:102E5000E3FF94F86A00222807D12068806800F018
:102E6000400010B12046FFF7C7FFE06E40F01000B1
:102E7000E0662046FFF7BFFF70BD0000FFFF00FCCB
:102E8000704770B50446A56B2846FFF7F9FF70BD83
:102E9000704770B50546AC6B2868006800F4807018
:102EA00078B90020A4F852002068806820F08000E3
:102EB000216888602068006840F040002168086050
:102EC00002E02046FFF7E4FF70BDF7B50446154663
:102ED00094F8690020283FD1019800B10DB9012074
:102EE000FEBD00BF94F86800012801D10220F7E779
:102EF000012084F8680000BF0198E064A4F85050F5
:102F0000A4F852500020E066212084F86900FE48B1
:102F1000216EC863FD48216E0864FD48216EC864B7
:102F20000020216E086501AE236803F12802316894
:102F30002B46206EFDF7DEFD40202168086200BFB1
:102F4000002084F8680000BF2068806840F080009E
:102F5000216888600020C3E70220C1E7704770B590
:102F60000446A56B2846FFF7F9FF70BD704770B5A2
:102F70000546AC6B2868006800F48070B8B9002082
:102F8000A4F85A002068006820F480702168086066
:102F90002068806820F001002168886020688068CF
:102FA00020F0400021688860202084F86A002046D4
:102FB000FFF7DCFF70BDF7B50446154694F86A00CC
:102FC000202846D1019800B10DB90120FEBD00BFF7
:102FD00094F86800012801D10220F7E7012084F865
:102FE000680000BF01986065A4F858500020E066B2
:102FF000222084F86A00C748616EC863C648616EC3
:103000000864C348616EC8640020616E086501AE43
:103010003268236803F124012B46606EFDF76AFDD8
:1030200000BF002084F8680000BF2068006840F4FA
:103030008070216808602068806840F00100216885
:1030400088602068806840F0400021688860002027
:10305000BCE70220BAE7014600BF91F868000128EA
:1030600001D102207047012081F8680000BF91F86B
:10307000690021280AD10868806800F0800028B122
:103080000868806820F080000A68906091F86A0003
:10309000222816D10868806800F0400088B10868CE
:1030A000006820F480700A6810600868806820F06A
:1030B00001000A6890600868806820F040000A6893
:1030C000906000BF002081F8680000BF00BFC9E722
:1030D000014600BF91F86800012801D10220704725
:1030E000012081F8680000BF91F86900212805D10E
:1030F0000868806840F080000A68906091F86A0073
:10310000222814D108200A6810620868006840F478
:1031100080700A6810600868806840F001000A68E2
:1031200090600868806840F040000A689060086815
:10313000006800F0010028B90868006840F001004C
:103140000A6810600020CAE710B5044694F86900C8
:10315000212812D12068806800F0800068B12068C2
:10316000806820F0800021688860206E10B1206E99
:10317000FDF70FFD2046FFF74FFE94F86A00222866
:1031800012D12068806800F0400068B12068806833
:1031900020F0400021688860606E10B1606EFDF71D
:1031A000F8FC2046FFF728FE002010BD10B50446AD
:1031B0002068006820F0400021680860202084F822
:1031C00069002046FFF764FE002010BD014691F81B
:1031D000690021282DD1B1F8520068B9086800684B
:1031E00020F080000B6818600868006840F040001C
:1031F0000B681860002070478868B0F5805F0BD1BD
:10320000086948B9CA6C1088C0F308000B68986256
:10321000C86C801CC86405E0CB6C581CC864187866
:103220000B689862B1F85200401EA1F852000020CD
:10323000E1E70220DFE770B50546AC6B0020A4F89B
:103240005A00A4F852002046FFF7D5FD70BD70B5B6
:103250000446B4F85C6094F86A00222833D1A06870
:10326000B0F5805F0AD1206940B9656D2068406A79
:1032700030402880606D801C606507E02068406AEF
:10328000F1B20840626D511C61651070B4F85A00CB
:10329000401E80B2A4F85A0098B92068006820F453
:1032A0009070216808602068806820F00100216823
:1032B0008860202084F86A002046FFF757FE00202F
:1032C00070BD0020FCE72068806940F0080021689C
:1032D00088610220F4E72DE9F04104462068C569C1
:1032E000206806682068876805F00F08B8F1000FAD
:1032F00014D105F0200088B106F0200070B12046FE
:10330000FFF7A5FFBDE8F081932E0008832E00088B
:103310002D2E00086F2F00085F2F0008B8F1000F56
:103320007BD007F0010018B906F49070002874D023
:1033300005F0010048B106F4807030B10120216829
:103340000862E06E40F00100E06605F0020048B15E
:1033500007F0010030B1022021680862E06E40F001
:103360000400E06605F0040048B107F0010030B148
:10337000042021680862E06E40F00200E06605F07B
:10338000080060B106F0200010B907F0010030B16C
:10339000082021680862E06E40F00800E066E06EF8
:1033A00058B305F0200028B106F0200010B12046E7
:1033B000FFF74DFFE06E00F0080020B9206880683C
:1033C00000F0400018B32046FFF716FD2068806823
:1033D00000F04000B8B12068806820F0400021680B
:1033E0008860606E50B18348616E0865606EFDF75D
:1033F00029FC10B1606E016D88470DE02046FFF793
:10340000FAFC09E009E02046FFF7F5FC04E020465D
:10341000FFF7F1FC0020E06674E705F0800030B1B2
:1034200006F0800018B12046FFF7D0FE6AE705F0ED
:10343000400030B106F0400018B12046FFF7B6FE5C
:1034400060E700BF5EE710B5044600BF94F868006F
:10345000012801D1022010BD012084F8680000BFBE
:10346000242084F869002068006840F40050216836
:103470000860202084F869002046FEF755FFEAE73F
:1034800010B5044600BF94F86800012801D102205D
:1034900010BD012084F8680000BF242084F8690072
:1034A0002068006820F4005021680860202084F81B
:1034B00069002046FEF738FFEAE70168896941F0B4
:1034C000040102689161704701460022002391F8CF
:1034D000692091F86A3042EA030070470146C86EDD
:1034E0007047014600BF91F86800012801D1022011
:1034F0007047012081F8680000BF242081F869002E
:103500000868006820F00C000A681060086800680D
:1035100040F008000A681060202081F8690000BFB0
:10352000002081F8680000BF00BFE1E7014600BF4E
:1035300091F86800012801D102207047012081F82C
:10354000680000BF242081F869000868006820F046
:103550000C000A6810600868006840F004000A68FF
:103560001060202081F8690000BF002081F8680009
:1035700000BF00BFE1E7014600BF91F868000128E5
:1035800001D102207047012081F8680000BF24208B
:1035900081F869000868806940F002000A6890615B
:1035A000202081F8690000BF002081F8680000BF7A
:1035B00000BFE7E770B504460D460CB9012070BDA9
:1035C000242084F869002068006820F00100216848
:1035D00008602068406820F0100028432168486097
:1035E0002068006840F00100216808602046FEF76E
:1035F0009BFEE4E73732000800B593B000BF00BF80
:1036000000BF00BF00BFBFF34F8F00BF00BF00BFB0
:1036100000BF00BF00BFBFF36F8F00BF00BF00BF80
:1036200000205E4908605E48006840F400305C4954
:10363000086000BF00BF00BFBFF34F8F00BF00BFD7
:1036400000BF00BF00BF00BFBFF36F8F00BF00BF50
:1036500000BF00BF00F055F800BF5248006840F0BE
:103660008050504908600846006800F08050009083
:1036700000BF00BF00BF4C48006840F440404A49CA
:1036800008600846006800F44040009000BF00BF9A
:103690000120019000040290002004904FF480016A
:1036A000089102200790192109914FF4D8710A91CD
:1036B00002210B9109210C9101A8FEF7FAF810B133
:1036C000012013B000BDFDF76FFF08B10120F8E73E
:1036D00002200F900020109007200E900E9840F0CE
:1036E00008000E904FF4A05011904FF480501290AB
:1036F00006210EA8FEF791FB08B10120E1E70020AA
:10370000DFE7F0B50024264F70373C603C1F20688F
:10371000C0F34E3200F00704251DC0F3C903B3FA0D
:1037200083F404F01F0600BF00BF00BFBFF34F8F3C
:1037300000BF00BF00BF00BF1C4600BF04FA06F771
:1037400002FA05FC47EA0C01144F10373960271EB6
:10375000A4F10104F2D1141EA2F10102ECD100BFC8
:1037600000BF00BFBFF34F8F00BF00BF00BF0C4CB6
:10377000246844F480340A4F3C6000BF00BF00BF9F
:10378000BFF34F8F00BF00BF00BF00BF00BF00BF2F
:10379000BFF36F8F00BF00BF00BFF0BD50EF00E070
:1037A00014ED00E0403802400070004001464FF444
:1037B0000030081AC0F38F2070472DE9F04304460B
:1037C0000E461546DDE907892046FFF7EFFFC7B231
:1037D000002243E001209040304000B93CE0B14875
:1037E00030F81700012191400843AE4921F8170035
:1037F000E0684FEA420C032101FA0CF188435100C2
:1038000008FA01F10843E06020684FEA420C032106
:1038100001FA0CF18843510005FA01F108432060D8
:10382000012D01D0022D16D161680120904080B297
:1038300021EA000003FA02F189B208436060A0683F
:103840004FEA420C032101FA0CF18843510009FAB6
:1038500001F10843A06000BF501CC2B2102AB9DBBE
:10386000BDE8F08300B502461046FFF79FFF012137
:1038700001FA00F08C49096808438B49086000BDD3
:103880002DE9FC4305460C4616461F46DDE909892D
:103890000CB9BDE8FC832846FFF7E4FF3B463246FF
:1038A00021462846CDE90089FFF787FF00BFF0E7F2
:1038B0002DE9FC4705460E4617469846DDE90A9A6B
:1038C0000EB9BDE8FC872846FFF7CCFF00241AE0BC
:1038D0000120A040304000B914E0E10805F12000CB
:1038E00050F821006107CA0E0F21914088436107FB
:1038F000C90E0AFA01F10843E20805F1200141F876
:10390000220000BF641C102CE2D33B460222314649
:103910002846CDE90089FFF750FF00BFD1E770B519
:1039200003460C461846FFF741FFC5B2002214E0DB
:1039300001209040204070B1186856000321B1402A
:1039400008431860574830F815000121914088431A
:10395000544921F81500501CC2B2102AE8DB70BD92
:1039600030B5024600200BE0012383400B402BB111
:10397000136845000324AC40A3431360431CD8B232
:103980001028F1DB30BD30B5024600200FE00123E6
:1039900083400B404BB1136845000324AC40A34364
:1039A00045000124AC4023431360431CD8B21028C7
:1039B000EDDB30BD30B5024600200BE00123834033
:1039C0000B402BB1136845000324AC402343136024
:1039D000431CD8B21028F1DB30BD30B502460020C0
:1039E00011E0012383400B4003B90AE0136845004E
:1039F0000324AC40A34345000224AC40234313609E
:103A000000BF431CD8B21028EBDB30BD70B50346B5
:103A1000002011E0012484400C4004B90AE0DC6875
:103A200046000325B540AC43450002FA05F52C439A
:103A3000DC6000BF441CE0B21028EBDB70BD41F439
:103A40008032C261C161C261C369C3697047014606
:103A5000002002E0421C90B249100129FADC7047B4
:103A600000B502461046FFF7A1FE012181400E4835
:103A7000006888430C49086000BD00B50246104646
:103A8000FFF794FE074931F8100000BD00B502466B
:103A90001046FFF78BFE034931F81000C04380B297
:103AA00000BD00006C0102203038024097480068D9
:103AB00020F08070954A10601046006840F08070D9
:103AC00010609348006820F00100914A1060104691
:103AD000006840F00100106000205060104641680E
:103AE00000BF00BF8A484068401A70472DE9F04780
:103AF00005460E4617469846DDF820908548007822
:103B0000052802DB0020BDE8F08714200AF0D6FD6E
:103B100004460CB90020F6E765606068A060207874
:103B200066F300002070207867F341002070C4F82D
:103B30000C80C4F81090774801780078401C754AD2
:103B40001070101D40F821402046DCE72DE9F041BF
:103B50000646002408E06F48001D50F82400B042DB
:103B600000D105E0601CC4B26A480078A042F2DCD3
:103B700000BF68480078A04201D1BDE8F0816548E7
:103B8000001D50F8247000BFEFF31080054672B698
:103B900008E06048001D611C50F8211040F8241016
:103BA000601CC4B25B480078401EA042F1DC59485A
:103BB0000078401E5749087038460AF057FD05B98D
:103BC00062B600BFD9E7017821F0020101707047A9
:103BD000017821F00201891C017070474168816001
:103BE000704709B1012200E00022037862F300036C
:103BF0000370704741607047704710B546480068D1
:103C0000401C454908604548006820B143480068A9
:103C1000401E42490860002453E03E48001D50F811
:103C2000240000284BD03B48001D50F824000078A9
:103C3000C0F34000F0B33748001D50F824008068FE
:103C400050B13448001D50F824008068401E3149AE
:103C5000091D51F8241088602E48001D50F82400DA
:103C6000806838BB2B4B1B1D53F824301969294B36
:103C70001B1D53F8240053F82430DA689047254878
:103C8000001D50F8240041682248001D50F824000F
:103C900081602048001D50F82400007800F00100E9
:103CA00040B91C48001D50F82400007820F00201A3
:103CB000184800E003E0001D50F824000170601C6B
:103CC000C4B214480078A042A7DC01F090F910BDFE
:103CD00011480068704700B5014600BFEFF305804A
:103CE00048B9FFF7F5FF024600BFFFF7F1FF801A62
:103CF0008842FAD309E006E04FF0E020006900F4C2
:103D0000803000B1491E0029F6D100BDFCED00E075
:103D1000001000E0880102200800022004000220B8
:103D20001CB5032000210B460122CDE9001042F210
:103D300020011D48FFF7A4FD1C481B4918310860ED
:103D40001CBD1CB50020022103460246CDE900102F
:103D500001211748FFF794FD1CBD1548006900F0CC
:103D6000010080F0010030B91248007830B901201C
:103D700010490870704700200E4908700020F9E7CC
:103D80000B48006900F0010080F0010038B10948DB
:103D9000007838B1002007490870012070470120E1
:103DA000044908700020F9E70024024000002020A8
:103DB000000002400C00022070B504460D46164675
:103DC000182120460AF017F92560E6600A20607481
:103DD000E06868B928460AF071FCE060E06818B94C
:103DE00000202060012070BD207C40F00200207483
:103DF000207C40F0010020740020F4E710B5044658
:103E000004B910BD207C00F0020010B1E0680AF097
:103E10002DFC00202074206000BFF2E730B5014681
:103E200009B9002030BD4A688B689A4200D10C68FD
:103E3000934200D99C1A9A4202D9D51A0868441BA9
:103E4000601EEFE72DE9F0470446894615464FF01E
:103E5000000804B115B90020BDE8F087D4E90010CE
:103E6000884201D3002060602046FFF7D7FF074655
:103E7000AF4203D20FB90020EEE73D46D4E900017E
:103E8000461AAE4200D92E466268E168881832466A
:103E900049460AF097F8B044606830446060AD1B52
:103EA00055B1002060606368E268D01809EB080132
:103EB0002A460AF087F86560D4E90010884201D3E9
:103EC0000020606008EB0500C6E72DE9F0410446DC
:103ED0000F4615464FF0000804B115B90020BDE8A3
:103EE000F081D4E90010884201D30020606021688D
:103EF000A068884201D30020A0602046FFF78EFF13
:103F00000646AE4203D20EB90020E8E73546681EE9
:103F100007440FE0A06818B92068401EA06002E0C6
:103F2000A068401EA06017F80109D4E90221885456
:103F300008F10108281EA5F10105EBD14046CEE7A6
:103F400030B503460BB9002030BD59689A689142DC
:103F500000D10024914200D98C1A8A4202D9551A04
:103F60001868441B2046EFE72DE9F04704468846D1
:103F700015464FF0000904B115B90020BDE8F087DF
:103F80002168A068884201D30020A0602046FFF786
:103F9000D7FF0746AF4203D20FB90020EEE73D46F8
:103FA000A1682068461AAE4200D92E46D4E9022004
:103FB0008118324640460AF005F8B144A068304402
:103FC000A060AD1B55B10020A060D4E90232D11829
:103FD00008EB09002A4609F0F5FFA5602168A068F2
:103FE000884201D30020A06009EB0500C6E700B9B4
:103FF000704700214160816000BFF9E72DE9F04181
:1040000004460F464FF000081CB94FF0FF30BDE8E2
:10401000F0812046FFF794FF0546A6680DE0206872
:10402000B04200D80026E068805DB84201D1404629
:10403000EDE7761C6D1E08F10108002DEFD1681E1A
:10404000E5E72DE9F04F0446894690464FF0000A17
:10405000D3462CB12046FFF773FF0646404503D2F6
:104060004FF0FF30BDE8F08FA5682DE02068A84232
:1040700000D80025E068405D99F80010884201D121
:104080004FF0010B6D1C761E0AF1010ABBF1000F07
:104090001AD001270FE02068A84200D80025E06868
:1040A000405D19F80710884202D0781E824406E06D
:1040B0006D1C761E7F1C474501D2002EEBD100BF40
:1040C000474501D15046CDE7002ECFD1701EC9E73C
:1040D00070B505460C46204609F0A4FF0646324658
:1040E00021462846FFF7AEFE70BD2DE9F84306468F
:1040F0000D461746002416B90020BDE8F883304667
:10410000FFF78CFE81463046FFF71AFF8046B8F174
:10411000000F0AD0717C3046FFF770FF002806DAE6
:10412000B9F1000F03D0B84501D20020E5E70FE058
:10413000012269463046FFF717FF00B90BE09DF8F2
:1041400000002855285D717C884200D103E0641C82
:10415000781EA042ECD800BF781EA04202D10020F9
:10416000285503E00021601C044629542046C4E77A
:1041700070B503460C46154600220BB9002070BDF1
:104180005E68996805E0491C521C1868884200D88E
:104190000021A24201D28E42F5D1A24204D1D868B8
:1041A000405C28700120EAE70020E8E70146FE4A6B
:1041B000914200D10020FD4A914200D10120FC4AE9
:1041C000914200D10220FB4A914200D10420FA4AD8
:1041D000914200D10520F94A914200D10620F84AC7
:1041E000914200D10720F74A914200D10820704740
:1041F00070471CB5044644B908200321012300225E
:10420000CDE90010F048FFF753FB032C03D1082140
:10421000EC4807F0E8FA1CBD1CB504464CB9082070
:10422000032101230022CDE90010C901E648FFF770
:104230003FFB012C09D10820032101230022CDE9F5
:104240000010C021E148FFF733FB032C03D1082104
:10425000DB4807F0C8FA1CBD1CB504464CB9082061
:10426000032101230022CDE90010C021D848FFF727
:104270001FFB012C0AD10820032101230022CDE9D4
:1042800000104FF48441D348FFF712FB032C03D1F5
:104290000821CA4807F0A7FA1CBD1CB504469CB902
:1042A0000820032101230022CDE900104102C84863
:1042B000FFF7FEFA0820032101230022CDE90010B8
:1042C0000421C548FFF7F4FA032C03D10821BA48AA
:1042D00007F089FA1CBD1CB5044644B90820032127
:1042E00001230022CDE90010BC48FFF7E1FA012CC0
:1042F00009D10820032101230022CDE90010890201
:10430000B348FFF7D5FA032C03D10821A94807F0D9
:104310006AFA1CBD1CB504464CB9072003210123D1
:104320000022CDE900108902AD48FFF7C1FA012C47
:1043300009D10720032101230022CDE900108902C1
:10434000A348FFF7B5FA022C09D107200321012366
:104350000022CDE9001009029F48FFF7A9FA032CBB
:1043600003D10721924807F03EFA1CBD1CB5044654
:104370004CB90720032101230022CDE900100C21B4
:104380009648FFF795FA012C09D107200321012354
:104390000022CDE9001060218F48FFF789FA032C35
:1043A00003D10721814807F01EFA1CBD1CB5044645
:1043B0004CB90720032101230022CDE90010490256
:1043C0008648FFF775FA012C09D107200321012344
:1043D0000022CDE90010C0218148FFF769FA022CC4
:1043E00013D10720032101230022CDE90010590237
:1043F0007A48FFF75DFA0720032101230022CDE967
:10440000001080217648FFF753FA032C03D10721CF
:10441000654807F0E8F91CBD2DE9F04F9DB0044652
:104420000D4616461F46DDE927ABDDF898905E483D
:1044300084421FD100BF6B48006840F010006949FA
:1044400008600846006800F01000009000BF00BF40
:1044500064482038006840F0100062492039086044
:104460000846006820F0100008602846FFF79EFF0D
:104470004FF025084D48844221D100BF5948001F04
:10448000006840F400305749091F0860084600687A
:1044900000F40030009000BF00BF5248243800688C
:1044A00040F400304F49243908600846006820F481
:1044B000003008602846FFF759FF4FF026083C48B7
:1044C000844221D100BF4748001F006840F480208B
:1044D0004449091F08600846006800F480200090E5
:1044E00000BF00BF3F482438006840F480203D49A9
:1044F000243908600846006820F4802008602846B7
:10450000FFF708FF4FF027082A48844221D100BF57
:104510003448001F006840F400203249091F086039
:104520000846006800F40020009000BF00BF2D483E
:104530002438006840F400202A49243908600846DD
:10454000006820F4002008602846FFF7C4FE4FF002
:1045500034081948844221D100BF2248001F006856
:1045600040F480101F49091F08600846006800F4E5
:104570008010009000BF00BF1A482438006840F443
:1045800080101849243908600846006820F480101B
:1045900008602846FFF781FE4FF03508074884423F
:1045A00040D100BF0F481FE0001001400044004010
:1045B00000480040004C0040005000400014014002
:1045C00000780040007C00400010024000140240CF
:1045D0000008024000180240000C024000000240A7
:1045E0000004024044380240006840F02000FD49C9
:1045F00008600846006800F02000009000BF00BF7F
:10460000F8482038006840F02000F649203908605A
:104610000846006820F0200008602846FFF71CFECE
:104620004FF04708F048844221D100BFED48001FF9
:10463000006840F08040EB49091F086008460068A8
:1046400000F08040009000BF00BFE64824380068BA
:1046500040F08040E349243908600846006820F0B3
:10466000804008602846FFF7D7FD4FF05208DF482A
:10467000844221D100BFDB48001F006840F00040A9
:10468000D849091F08600846006800F00040009003
:1046900000BF00BFD3482438006840F00040D14933
:1046A000243908600846006820F000400860284669
:1046B000FFF79FFD4FF05308019402960797CDF83E
:1046C0001890CDF814A0CDF810B0299803900021CF
:1046D0000891099100200A904046FBF756FF2046BA
:1046E000FFF764FD0246062100904046FBF702FFFB
:1046F0004046FBF73DFF4046FCF754F801A8FEF7A3
:1047000070F8206840F0200020601DB0BDE8F08FF8
:104710007FB504460D461646B54884420BD10020AD
:104720000C23CDE90030029003463246294603901F
:104730002046FFF771FEAF4884420BD100200C23C6
:10474000CDE90030029003463246294603902046C8
:10475000FFF762FEA84884420BD100200C23CDE96C
:104760000030029003463246294603902046FFF768
:1047700053FEA24884420BD100200C23CDE9003027
:10478000029003463246294603902046FFF744FE36
:104790009B4884420BD100200C23CDE900300290CD
:1047A00003463246294603902046FFF735FE9548DA
:1047B00084420BD100200C23CDE900300290034647
:1047C0003246294603902046FFF726FE864884425B
:1047D0000BD100200C23CDE9003002900346324675
:1047E000294603902046FFF717FE804884420BD1EC
:1047F00000200C23CDE900300290034632462946C2
:1048000003902046FFF708FE7FBD2DE9FF410446D7
:104810000D4616461F46764884420BD100200C23D5
:10482000CDE9003002903B463246294603902046AF
:10483000FFF7F2FD6F4884420BD100200C23CDE935
:10484000003002903B463246294603902046FFF74F
:10485000E3FD694884420BD100200C23CDE90030F0
:1048600002903B463246294603902046FFF7D4FD8E
:10487000624884420BD100200C23CDE90030029025
:104880003B463246294603902046FFF7C5FD5C486B
:1048900084420BD100200C23CDE9003002903B462E
:1048A0003246294603902046FFF7B6FD554884421C
:1048B0000BD100200C23CDE9003002903B4632465C
:1048C000294603902046FFF7A7FD474884420BD1B5
:1048D00000200C23CDE9003002903B4632462946A9
:1048E00003902046FFF798FD404884420BD10020FA
:1048F0000C23CDE9003002903B4632462946039016
:104900002046FFF789FDBDE8FF810146384A914204
:1049100000D13D48374A914200D13C48364A914245
:1049200000D13B48354A914200D13A48344A91423D
:1049300000D13948334A914200D138482A4A91423D
:1049400000D13748294A914200D13648704738B5DE
:1049500004462046FFF7D9FF054601226946FFF7C6
:1049600003FB10B19DF8000038BD0020FCE72DE9E5
:10497000F04104460D4616462046FFF7C6FF07469F
:1049800032462946FFF7B1FB80B2BDE8F0810EE068
:1049900000BFC26902F08002002AFAD011F8012B90
:1049A000826200BFC26902F08002002AFAD00A784F
:1049B000002AEDD1704710B50EE000BFC36903F0C7
:1049C0008003002BFAD011F8013B836200BFC3695A
:1049D00003F08003002BFAD0131EA2F10104A2B24F
:1049E000EBD110BD4438024000780040007C00400C
:1049F000001001400044004000480040004C0040CE
:104A00000050004000140140100002202800022045
:104A1000400002205800022070000220880002207E
:104A2000A0000220B800022070B504460D462046C2
:104A3000FFF76BFF06462946FFF7E0FA00B270BDAC
:104A40002DE9F04105460C46204609F0EBFA0646F2
:104A50002846FFF75AFF074632462146FFF7F1FA8C
:104A600000B2BDE8F08170B504462046FFF74DFF67
:104A70000546FFF765FA08B9012070BD0020FCE784
:104A800070B504462046FFF740FF0546FFF7C6F91C
:104A900008B9012070BD0020FCE770B5044620462F
:104AA000FFF733FF0546FFF74BFA80B270BD70B5D4
:104AB00004462046FFF729FF0546FFF798FA70BD28
:104AC00070B505460C462846FFF71FFF447470BDBD
:104AD000704770477047704770477047704770471E
:104AE00013B50446012201A92046FFF7ABF91CBD0E
:104AF00070B505460C4656480560012054490968C2
:104B00000862022052490968086204205049096875
:104B1000086208204E490968086210204C4909685B
:104B200008622046FBF73EFE70BD10B54948C069DB
:104B300000F0200028B14748406AC1B24648FFF75C
:104B4000CFFF25214348FFF7D3FF10BD10B54348E1
:104B5000006800F0200030B1404808300068C1B261
:104B60003F48FFF7BDFF26213C481C38FFF7C0FF38
:104B700010BD10B53B48006800F0200030B1394846
:104B800008300068C1B23848FFF7AAFF272135482E
:104B90001C38FFF7ADFF10BD10B53448006800F0B9
:104BA000200030B1314808300068C1B23048FFF70A
:104BB00097FF34212D481C38FFF79AFF10BD10B520
:104BC0002C48C06900F0200020B12A49496AC8B2C7
:104BD00006F003FE35212748FFF78AFF10BD10B508
:104BE0002548006800F0200030B1234808300068F4
:104BF000C1B22248FFF774FF47211F481C38FFF756
:104C000077FF10BD10B51E48006800F0200030B1DD
:104C10001B4808300068C1B21A48FFF761FF5221F3
:104C200017481C38FFF764FF10BD10B51648006820
:104C300000F0200030B1144808300068C1B21348B9
:104C4000FFF74EFF532110481C38FFF751FF10BDEE
:104C5000A002022000100140100002201C4400406D
:104C6000280002201C480040400002201C4C00404C
:104C700058000220005000401C140140880002200F
:104C80001C780040A00002201C7C0040B8000220DC
:104C900030B502460B46BE4CA24207D2BD49BD4CC0
:104CA0000834141B1825B4FBF5F006E0B8490839A0
:104CB000B74C141B1825B4FBF5F0042801D3091DCB
:104CC000001F03F03D04B44D2D5CAC400C6030BDC2
:104CD00010B504463D212046FFF7DAFF10BD70B540
:104CE00002460C46002100230020A94DAA4208D20A
:104CF000A84B083BA74D0835551B1826B5FBF6F108
:104D000006E0A34B103BA24D551B1826B5FBF6F150
:104D1000042901D31B1D091F18689F4D6D5CE840D5
:104D200000F03D0070BD2DE9F04104463D212046D4
:104D3000FFF7AEFF9648844209D296480830201A01
:104D40001821B0FBF1F501279448465708E0904838
:104D5000201A1821B0FBF1F501279048083046577A
:104D60003046FBF712FC2A4639463046FBF7C2FBB9
:104D70003046FBF7FDFB206840F01E0020606069B4
:104D800040F080006061BDE8F08170B504463D21CF
:104D90002046FFF77DFF7E48844208D27D480830D8
:104DA000201A1821B0FBF1F07C490D5606E0784836
:104DB000201A1821B0FBF1F078490D562846FBF770
:104DC000E4FB206820F01E002060606900F0800095
:104DD000606170BD70B505460C464CB100BF002047
:104DE00084F8340000BF25602046FBF797FD0FE0F4
:104DF0006748854206D36A48006840F480006849E5
:104E0000086005E06648006840F4001064490860E6
:104E100070BD10B598B0044600946846FBF7F0FDED
:104E200018B010BD2DE9F04104460D4616461F4648
:104E300000BF002084F8340000BF3B4632462946BC
:104E40002046FBF724FEBDE8F081704770477047AD
:104E50007047704770B504463D212046FFF73FFF7D
:104E600085B23D212046FFF713FF05F0200030B149
:104E7000206800F0100010B12046FFF7E6FF05F0B3
:104E8000100030B1206800F0080010B12046FFF794
:104E9000DDFF05F0080030B1206800F0040010B11B
:104EA0002046FFF7D4FF05F0040030B1206800F081
:104EB000020010B12046FFF7CBFF05F0010030B132
:104EC000606900F0800010B12046FFF7C2FF70BD9E
:104ED00010B530480830FFF7BDFF10BD10B52D48A4
:104EE0002030FFF7B7FF10BD10B52A483830FFF764
:104EF000B1FF10BD10B527485030FFF7ABFF10BD14
:104F000010B524486830FFF7A5FF10BD10B5214843
:104F10008030FFF79FFF10BD10B51E489830FFF797
:104F200099FF10BD10B51B48B030FFF793FF10BDBF
:104F300010B51748FFF78EFF10BD10B51448183094
:104F4000FFF788FF10BD10B511483030FFF782FF22
:104F500010BD10B50E484830FFF77CFF10BD10B5EE
:104F60000B486030FFF776FF10BD10B50848783069
:104F7000FFF770FF10BD10B505489030FFF76AFFCE
:104F800010BD10B50248A830FFF764FF10BD000047
:104F9000106402400860024030E7000834E700086F
:104FA00030380240FEF728FBFBF7B3F9FEF7B8FEF6
:104FB000FEF7C7FEFEF77AFD4FF461220021674835
:104FC000FFF7A6FB66A269A16BA009F0E5F8002136
:104FD000744808F0B9FA744908600021734808F071
:104FE000B3FA7349086008F097FA00BFFEE710B5FE
:104FF0000121704805F058FC08F05FFE10BD02E08A
:105000006C4805F0B5FAFBE770B504460D461CB9CF
:1050100069A009F0C1F800E000BF00BF002070BD2A
:105020001CB5AFF21B024FF4E131624804F04EFEB2
:105030006649087018B966A009F0AEF804E0634844
:1050400001786BA009F0A8F800215A4880F8771081
:10505000032180F876106EA14C3008F0F8FF6FA1A4
:105060005448603008F0F3FF0321524880F8741070
:105070000123002200F14C0105F03EFF5349087066
:1050800018B969A009F088F804E05048017875A0C3
:1050900009F082F844E0474800F0E6FBFEF75DFEC9
:1050A00000283DD001207C4B03227C4900904148E0
:1050B00006F025F845490870002831D17648008867
:1050C00000282AD000247448018875A009F064F8EB
:1050D00000BF1DE004EB8400704901EB4000C07884
:1050E00004EB84016D4A02EB41018978CDE900109F
:1050F00004EB8400114601EB4000437804EB84008C
:1051000011F81020214671A009F046F8601CC4B2C5
:10511000614800888442DDDB02E073A009F03CF8BE
:10512000B9E708B5C2B200920C4A126802F0010257
:105130008AB100BF094AD26902F08002002AF9D080
:105140009DF80020054B9A6200BF044AD26902F024
:105150008002002AF9D000BF08BD00000010014005
:1051600031313A35363A3539000000004D61792049
:1051700031382032303137004553503832363620FE
:10518000636F6D6D616E6473207061727365723BE5
:1051900020436F6D70696C65643A20257320257318
:1051A0000D0A000044E70008D400022058E7000878
:1051B000D800022010030220537461636B206973CE
:1051C0002049444C45210D0A00000000D000022077
:1051D000455350206D6F64756C6520696E6974204D
:1051E0007375636365737366756C6C79210D0A0062
:1051F00045535020496E6974206572726F722E207B
:105200005374617475733A2025640D0A0000000020
:105210004553505F41505F52544F53006D79706158
:105220007373776F726400004163636573732070FA
:105230006F696E742073657474696E677320617230
:1052400065207365742E20596F75206D6179206318
:105250006F6E6E65637420746F204150206E6F779F
:105260000D0A000050726F626C656D732074727964
:10527000696E6720746F2073657420616363657362
:105280007320706F696E742073657474696E6773D0
:105290003A2025640D0A0000D2000220C42002201A
:1052A00025642073746174696F6E28732920666F9A
:1052B000756E64206F6E20736F6674204163636542
:1052C000737320506F696E740D0A0000446576692F
:1052D00063652025643A2025642E25642E25642EDE
:1052E00025640D0A000000004E6F2073746174691C
:1052F0006F6E7320636F6E6E656374656420746F88
:10530000206F75722041636365737320506F696EFF
:10531000740D0A00704700BFFEE700BFFEE700BF44
:10532000FEE700BFFEE77047704710B5FEF765FC6B
:1053300010BD00003F48006840F470003D4908601F
:105340003D48006840F001003B49086000203A49B0
:105350000831086038480068384908403649086014
:105360003748091D0860081F006820F48020091FC5
:105370000860002030490C3108604FF000602D4972
:1053800080390860704770B5002000220223002495
:105390000221294D08352D6805F00C0020B10428A4
:1053A00006D0082834D107E0264D274E356033E07B
:1053B000264D254E35602FE01F4D2D1D2D68C5F360
:1053C00080541D4D2D1D2D6805F03F0154B11F4D1A
:1053D000B5FBF1F5184E361D3668C6F3881605FB89
:1053E00006F209E0174DB5FBF1F5134E361D366890
:1053F000C6F3881605FB06F20F4D2D1D2D68C5F36B
:1054000001456D1C6B00B2FBF3F50F4E356003E0F8
:105410000C4D0D4E356000BF00BF074D08352D689F
:10542000C5F303150A4E705D074D2D68C540064E45
:10543000356070BD88ED00E000380240FFFFF6FEE9
:10544000103000240024F400DC00022040787D01AC
:105450006CE7000870B504460D4616460CB90120ED
:1054600070BD1821204608F0C6FD2560E6600A20C0
:105470006074E06868B9284609F020F9E060E068E7
:1054800018B9002020600120EAE7207C40F00200EB
:105490002074207C40F0010020740020E0E710B56B
:1054A000044604B910BD207C00F0020010B1E06891
:1054B00009F0DCF800202074206000BFF2E730B56E
:1054C0000146002409B9002030BD4A688B689A4221
:1054D00001D10C6806E0934201D99C1A02E0D51A6A
:1054E0000868441B601EEFE72DE9F0470446894633
:1054F00015464FF00008CA4604B115B90020BDE8B2
:10550000F087D4E90010884201D300206060204673
:10551000FFF7D5FF0746AF4203D20FB90020EEE7F1
:105520003D46D4E90001461AAE4200D92E466268D3
:10553000E16888183246514608F044FDB04460687E
:1055400030446060AD1B35B10AEB08012A46E068C3
:1055500008F038FD6560D4E90010884201D30020CE
:10556000606008EB0500CAE72DE9F0430446884671
:1055700015464FF00009474604B115B90020BDE8B3
:10558000F083D4E90010884201D3002060602168D4
:10559000A068884201D30020A0602046FFF78FFF5B
:1055A0000646AE4203D20EB90020E8E73546681E33
:1055B00007440FE0A06818B92068401EA06002E010
:1055C000A068401EA06017F80109D4E902218854A0
:1055D00009F10109281EA5F10105EBD14846CEE7E6
:1055E00030B5014609B9002030BD4A688B689A423F
:1055F00001D1002406E09A4201D9D41A02E09D1A92
:105600000868441B2046EFE72DE9F0470446894629
:1056100015464FF00008CA4604B115B90020BDE890
:10562000F0872168A068884201D30020A06020464E
:10563000FFF7D6FF0746AF4203D20FB90020EEE7CF
:105640003D46A1682068461AAE4200D92E46D4E9EC
:10565000022081183246504608F0B4FCB044A068DD
:105660003044A060AD1B35B10AEB08002A46E16862
:1056700008F0A8FCA5602168A068884201D300203A
:10568000A06008EB0500CAE730B5014609B9002063
:1056900030BD4B688A6808681844801A0C68B0FBF3
:1056A000F4F504FB1500F3E700B9704700214160F1
:1056B000816000BFF9E72DE9F04104460F464FF045
:1056C00000081CB94FF0FF30BDE8F0812046FFF71D
:1056D00087FF0546A6680DE02068B04200D8002686
:1056E000E068805DB84201D14046EDE7761C6D1E52
:1056F00008F10108002DEFD1681EE5E72DE9F84F0C
:1057000004468A4690464FF0000900200090D34698
:105710002CB12046FFF764FF0646404503D24FF008
:10572000FF30BDE8F88FA5682DE02068A84200D8BA
:105730000025E068405D9BF80010884201D10120FF
:1057400000906D1C761E09F101090098D8B101275F
:105750000FE02068A84200D80025E068405D1BF8F3
:105760000710884202D0781E814406E06D1C761E28
:105770007F1C474501D2002EEBD100BF474502D127
:10578000A9F10100CDE7002ECFD1701EC9E770B599
:1057900005460C46204608F045FC064632462146A2
:1057A0002846FFF7A1FE70BD2DE9F84306460D46D9
:1057B0001746002416B90020BDE8F8833046FFF7ED
:1057C0007EFE81463046FFF70BFF8046B8F1000FA2
:1057D0000AD0717C3046FFF76EFF002806DAB9F177
:1057E000000F03D0B84501D20020E5E70DE001220B
:1057F00069463046FFF708FF9DF800002855285DF0
:10580000717C884200D103E0641C781EA042EED86F
:1058100000BF781EA04202D10020285503E00021DD
:10582000601C044629542046C6E770B503460C4662
:10583000154600220BB9002070BD5E68996805E02E
:10584000491C521C1868884200D80021A24201D28B
:105850008E42F5D1A24204D1D868405C2870012064
:10586000EAE70020E8E7000070B504460026A089BA
:10587000A0B941F69850005DC0F3400070B141F608
:105880009850005D20F0020141F6985001554FF408
:10589000ED500259001D211800209047A08998B9A9
:1058A00041F69C50005D00F0010068B141F69C504B
:1058B000005D20F0010141F69C500155001D025988
:1058C000001D211802209047A08998B941F69C50EC
:1058D000005DC0F3400068B141F69C50005D20F0CF
:1058E000020141F69C500155001D0259001D21186E
:1058F00003209047A08998B941F69C50005DC0F301
:10590000800068B141F69C50005D20F0040141F632
:105910009C500155001D0259001D2118042090477C
:105920000026A2E0C6EB461000EB400104F178002F
:1059300000EB0115A08930BB41F69850005DC0F323
:10594000400000BB95F8CD05C0F30010D8B195F824
:10595000CD0520F0100085F8CD0541F6A450055185
:1059600005F10B0041F6A45121444860B5F8C0058B
:1059700041F6A451214488604FF4ED500259001DB6
:10598000211801209047A089C8B941F69850005DC0
:10599000C0F3400098B995F8CD05C0F3800070B110
:1059A00095F8CD0520F0040085F8CD0541F6A4500A
:1059B0000551001F0259001D211808209047A08999
:1059C000C8B941F69850005DC0F3400098B995F809
:1059D000CD05C0F3C00070B195F8CD0520F00800EA
:1059E00085F8CD0541F6A4500551001F0259001D50
:1059F000211809209047A089C8B941F69850005D48
:105A0000C0F3400098B995F8CD0500F0010070B1E1
:105A100095F8CD0520F0010085F8CD0541F6A4509C
:105A20000551001F0259001D211806209047A0892A
:105A3000C8B941F69850005DC0F3400098B995F898
:105A4000CD05C0F3400070B195F8CD0520F00200FF
:105A500085F8CD0541F6A4500551001F0259001DDF
:105A6000211807209047701CC6B2052EFFF45AAFCC
:105A700000BF0020207170BD70B504460D46E56181
:105A800000BF2046FFF7F0FEA0890028F9D141F6BB
:105A90009850005DC0F340000028F2D100BF207E86
:105AA0002071207E70BD2DE9F04104460F46154659
:105AB000E56167B941F69850005D20F0010141F6BB
:105AC0009850015500BF00202071BDE8F08141F6DB
:105AD0009850005D20F00100401C41F69851085597
