:020000040800F2
:10000000505C00207D020008014D0008034D0008EF
:10001000074D00080B4D00080F4D000800000000C0
:10002000000000000000000000000000C101000806
:10003000134D00080000000015020008174D0008CD
:10004000970200089702000897020008970200082C
:10005000970200089702000897020008970200081C
:1000600097020008970200089702000879460008E6
:1000700085460008914600089D460008A9460008EC
:10008000B5460008C146000897020008970200081C
:1000900097020008970200089702000897020008DC
:1000A00097020008970200089702000897020008CC
:1000B00097020008970200089702000897020008BC
:1000C00097020008970200089702000897020008AC
:1000D00097020008DF420008FF420008234300089F
:1000E000970200089702000897020008970200088C
:1000F000970200089702000897020008CD46000802
:10010000970200089702000897020008970200086B
:10011000474300086B430008970200089702000855
:10012000D9460008E3460008EF460008FB460008F1
:100130000747000897020008970200089702000886
:10014000970200089702000897020008970200082B
:10015000134700081F4700082B4700088D4300087D
:10016000970200089702000897020008970200080B
:10017000970200089702000897020008000000009C
:100180009702000897020008B1430008D543000811
:1001900097020008970200089702000897020008DB
:1001A000970200089702000897020008DFF80CD0B9
:1001B0000DF03CFC004800474D470008505C002013
:1001C0002B4B19680868B0E8F04F80F30988BFF33B
:1001D0006F8F4FF0000080F311887047000000001F
:1001E00006480068006880F3088862B661B6BFF30D
:1001F0004F8FBFF36F8F00DF00BF00BF08ED00E03F
:10020000DFF80C00016841F470010160704700BF25
:1002100088ED00E0EFF30980BFF36F8F144B1A688D
:100220001EF0100F08BF20ED108A20E9F04F10607B
:1002300008B44FF0500080F31188BFF34F8FBFF325
:100240006F8F0BF016FF4FF0000080F3118808BC91
:1002500019680868B0E8F04F1EF0100F08BFB0EC46
:10026000108A80F30988BFF36F8F704700BF00BF0B
:1002700008010020EFF30580704700000648804722
:1002800006480047FEE7FEE7FEE7FEE7FEE7FEE77B
:10029000FEE7FEE7FEE7FEE7214D0008AD0100089E
:1002A000704770B5044601F02DFD4FF47A71B0FB34
:1002B000F1F5284600F070F900222146501E00F0AA
:1002C000F5F8002070BD10B56248006840F4007079
:1002D000604908600846006840F48060086008468D
:1002E000006840F480700860032000F0CDF80F2013
:1002F000FFF7D7FFFFF7D4FF002010BD704710B500
:100300004FF0FF305449086000200860401E091D6E
:10031000086000200860401E4F4910390860002026
:100320000860401E091D086000200860401E091D6D
:10033000086000200860FFF7E1FF002010BD47487B
:100340000068401C45490860704744480068704791
:1003500031B5002403F078F8044600BF03F074F8C8
:10036000001B00998842F9D338BD4FF0E0200069A6
:1003700020F002004FF0E021086170474FF0E020CC
:10038000006940F002004FF0E021086170474FF033
:100390008270704732480068000C7047304800682F
:1003A000C0F30B0070472E48406840F001002C4914
:1003B000486070472A48406820F00100284948609A
:1003C00070472748406840F0020025494860704760
:1003D0002348406820F002002149486070472048C7
:1003E000406840F004001E49486070471C4840685F
:1003F00020F004001A4948607047012090FAA0F1EB
:10040000B1FA81F1174A02EB8101C1F8000470478B
:100410000020012191FAA1F1B1FA81F1114A02EB18
:100420008101C1F8000470470120010291FAA1F195
:10043000B1FA81F10B4A42F82100704700204FF4D5
:10044000807191FAA1F1B1FA81F1064A42F82100D6
:1004500070470000003C02402038024000000020AD
:10046000002004E00000274210B5002807DA0A0740
:10047000140EBF4A00F00F031B1FD45403E00A07F9
:10048000130EBC4A135410BD00BF00F00702B84B56
:100490000C3B19684FF6FF031940B74B0B4343EA77
:1004A0000221B34B0C3B196000BF70472DE9F05F90
:1004B00080460D461646002700F054F90746394697
:1004C0002A46334601F00700C0F1070ABAF1040FCB
:1004D00002D94FF0040A01E0C0F1070AD14600F149
:1004E000040ABAF1070F02D24FF0000A01E0A0F1AE
:1004F000030AD4464FF0010A0AFA09FAAAF1010ADE
:100500000AEA020A0AFA0CFA4FF0010B0BFA0CFB8A
:10051000ABF1010B0BEA030B4AEA0B042146404600
:10052000FFF7A2FFBDE8F09F00BF00F01F0201210E
:1005300091404209920002F1E022C2F8001100BF8E
:10054000704700BF00F01F02012191408B4A430910
:1005500042F8231000BF704700BF00BF00BF00BFBC
:1005600000BFBFF34F8F00BF00BF00BF80480C38F3
:10057000006800F4E06080490843001D7C490C39A4
:10058000086000BF00BF00BFBFF34F8F00BF00BFB8
:1005900000BF00E000BFFDE770B504462546681EB9
:1005A000B0F1807F01D301200FE0681E4FF0E02101
:1005B00048610F214FF0FF30FFF756FF00204FF04A
:1005C000E021886107200861002070BD4178684AF9
:1005D000803211600178F9B1121D41681160017B10
:1005E0000907C27A41EA0261827A41EAC241427B4A
:1005F00041EA8241827B41EA4241C27B41EA0241B7
:10060000427A41EA0221027A41EA42010278114328
:10061000574A8832116005E00021554A8432116042
:10062000121D1160704710B500F09CF810BD2DE947
:10063000F04304462046002808DA4D4F00F00F0C26
:10064000ACF1040C17F80C703F0902E0494F3F5C15
:100650003F093D460E4606F00700C0F10708B8F115
:10066000040F02D94FF0040801E0C0F10708C446A6
:1006700000F10408B8F1070F02D24FF0000801E0C2
:10068000A0F10308474625FA07F84FF0010909FAD7
:100690000CF9A9F1010908EA0908C2F800804FF035
:1006A000010808FA07F8A8F1010808EA0508C3F8E4
:1006B000008000BFBDE8F08300BF00F01F020121F1
:1006C00091402E4A8032430942F8231000BF704700
:1006D00010B501460846294A8032430952F82320C2
:1006E00000F01F040123A3401A400AB1012200E0D8
:1006F0000022104610BD00BF00F01F0201219140F2
:100700001F4A430942F8231000BF704710B5014645
:1007100008461B4A8032430952F8232000F01F0488
:100720000123A3401A400AB1012200E00022104632
:1007300010BD042808D14FF0E021096941F00401FF
:100740004FF0E022116107E04FF0E021096921F04C
:1007500004014FF0E02211617047704710B5FFF7B8
:10076000FCFF10BD02480C380068C0F3022070473F
:1007700018ED00E000E400E00000FA0580E100E090
:1007800080E200E00146087810381823B0FBF3F24D
:10079000F648805C4865032A05D908686FF30900AC
:1007A000001D086503E008686FF309000865086D1F
:1007B000704770B5044600250CB9012070BD606A11
:1007C00000B100BF022084F8350020680568E848C1
:1007D0000540D4E901010843E16808432169084361
:1007E00061690843A1690843E1690843216A084334
:1007F0000543606A042803D1D4E90B01084305438B
:10080000206805602068456925F00705606A054392
:10081000606A042801D1A06A05432068456120462A
:10082000FFF7B0FF0020E064012084F835000020CD
:10083000C4E770B504460CB9012070BD94F83500CA
:10084000022801D10120F8E72068006820F00100AB
:1008500021680860002021680860216848602168DC
:1008600088602168C860216808612120216848618A
:100870002046FFF787FF054694F854103F20884034
:10088000A8600020E06484F8350000BF84F83400DC
:1008900000BF00BFD1E730B50468246824F4802489
:1008A00005682C60046863608468402C04D1046887
:1008B000A2600468E16003E00468A1600468E2608B
:1008C00030BD2DE9F04104460D4616461F4600BFD7
:1008D00094F83400012802D10220BDE8F081012003
:1008E00084F8340000BF022084F8350020680068D6
:1008F00020F00100216808603B4632462946204628
:10090000FFF7C9FF2068006840F001002168086017
:100910000020E2E72DE9F04104460D4616461F4649
:1009200000BF94F83400012802D10220BDE8F08114
:10093000012084F8340000BF022084F835002068CC
:10094000006820F00100216808603B4632462946D5
:100950002046FFF7A0FF2068006840F01E002168D5
:1009600008602068406940F0800021684861206884
:10097000006840F00100216808600020D6E770B5EB
:10098000044600252068006820F001002168086006
:1009900002F05AFD054612E002F056FD401BB0F58C
:1009A0007A7F0CD9E06C40F02000E06400BF0020AA
:1009B00084F8340000BF032084F8350070BD20683F
:1009C000006800F001000028E6D100BF84F8340080
:1009D00000BF012084F835000020EFE72DE9F84F33
:1009E00004460F46164600200090256D2FB994F856
:1009F0005410202000FA01F804E094F8541010205C
:100A000000FA01F802F020FD009064E0286814F874
:100A1000542F0821914000EA01092868227855499D
:100A2000914000EA010A286814F854295149C91C68
:100A3000914000EA010BB9F1000F05D1BAF1000FA6
:100A400002D1BBF1000F2FD0B9F1000F08D0E06C3C
:100A500040F00100E06494F8541008208840A86039
:100A6000BAF1000F08D0E06C40F00200E06494F8A6
:100A7000541040488840A860BBF1000F09D0E06CDA
:100A800040F00400E06494F854103A48C01C8840D8
:100A9000A860042084F8350000BF002084F83400EA
:100AA00000BF0120BDE8F88F701CA0B12EB102F08C
:100AB000CBFC0099401AB0420DD9E06C40F0200008
:100AC000E064032084F8350000BF002084F834007F
:100AD00000BF0320E6E7286800EA0800002895D058
:100AE0001FBB94F8541030208840A860206800682C
:100AF00000F4802088B12068006800F4002018B954
:100B0000112084F835000BE02068006800F4002014
:100B100030B1212084F8350002E0112084F835003E
:100B200000BF002084F834001EE094F85410102018
:100B30008840A8602068006800F4802088B12068A0
:100B4000006800F4002018B9312084F835000BE06B
:100B50002068006800F4002030B1412084F835009E
:100B600002E0312084F8350000209BE774E00008A3
:100B70003F8010F00100800070B50446256D2868A4
:100B800094F8542008219140084000B32068006880
:100B900000F00400D8B12068006820F0040021684B
:100BA000086094F8541008208840A860E06C40F079
:100BB0000100E064042084F8350000BF002084F8C0
:100BC000340000BFA06C10B12046A16C8847286893
:100BD00094F8542070499140084000B3206840695F
:100BE00000F08000D8B12068406920F080002168C2
:100BF000486194F8541068488840A860E06C40F060
:100C00000200E064042084F8350000BF002084F86E
:100C1000340000BFA06C10B12046A16C8847286842
:100C200094F854205C49C91C9140084008B32068DE
:100C3000006800F00200E0B12068006820F00200C7
:100C40002168086094F854105348C01C8840A8607C
:100C5000E06C40F00400E064042084F8350000BF3C
:100C6000002084F8340000BFA06C10B12046A16CB5
:100C70008847286894F85420102191400840C0B358
:100C80002068006800F0080098B32068006800F44D
:100C90008020B0B194F8541010208840A8602068DB
:100CA000006800F4002018B9312084F835001BE0FA
:100CB0002068006800F40020B0B1412084F83500BD
:100CC00012E02068006800F4807028B9206800688D
:100CD00020F008002168086094F854101020884023
:100CE000A860312084F83500206C10B12046216CBA
:100CF0008847286894F8542020219140084018B370
:100D00002068006800F01000F0B12068006800F46E
:100D10008020D0B194F8541020208840A86020682A
:100D2000006800F4002028B9606C68B12046616C4E
:100D3000884729E02068006800F4002020B1E06BBB
:100D400010B12046E16B88471EE02068006800F47F
:100D5000807028B92068006820F0100021680860C1
:100D600094F8541020208840A860E06CE0641120C2
:100D700084F8350000BF002084F8340000BFE06B29
:100D800010B12046E16B884770BD014691F83500EF
:100D900070470146C86C704701008000F8B50246F4
:100DA0000B460025002400200021E4E0012606FA7D
:100DB00001F51E6806EA0504AC4271D15E68022E98
:100DC00002D05E68122E13D1CF0802F1200656F829
:100DD00027004E07F70E0F26BE40B0434F07FF0E09
:100DE0001E69BE403043CF0802F1200646F82700B6
:100DF00010684F000326BE40B0431E7906F003067C
:100E00004F00BE40304310605E68012E08D05E681F
:100E1000022E05D05E68112E02D05E68122E13D10C
:100E200090684F000326BE40B0434F00DE68BE40CE
:100E300030439060506801268E40B0431E79C6F35F
:100E400000168E4030435060D0684F000326BE40ED
:100E5000B0434F009E68BE403043D0605E6806F0ED
:100E60008056B6F1805FA8D100BFB54E366846F413
:100E70008046B34F3E603E46366806F48046009694
:100E800000BF00BFAF4E8F0856F827008E07370F00
:100E90000F26BE40B043AC4EB24202D100262EE037
:100EA00068E0AA4EB24201D1012628E0A84EB24223
:100EB00001D1022623E0A74EB24201D103261EE053
:100EC000A54EB24201D1042619E0A44EB24201D18E
:100ED000052614E0A24EB24201D106260FE0A14E33
:100EE000B24201D107260AE09F4EB24201D1082644
:100EF00005E09E4EB24201D1092600E00A268F0786
:100F00003F0FBE4030438F4E8F0846F82700984E63
:100F10003068A0435E6806F48036B6F5803F00D1A5
:100F20002043934E3060361D3068A0435E6806F45F
:100F30000036B6F5003F00D120438D4E361D30609F
:100F4000361D3068A0435E6806F48016B6F5801F33
:100F500000D12043864E08363060361D3068A043ED
:100F60005E6806F40016B6F5001F00D12043804EDF
:100F70000C363060491C1029FFF418AFF8BDF0B5ED
:100F80000C4600250022002300219CE0012606FAE1
:100F900001F504EA0502AA427DD106684FEA410C38
:100FA000032707FA0CF7BE430660CF0800F12006BE
:100FB00056F827604F074FEAD76C0F2707FA0CF750
:100FC000BE434FEAD10C00F1200747F82C60866839
:100FD0004FEA410C032707FA0CF7BE4386604768C7
:100FE00001268E40B7434760C6684FEA410C03278D
:100FF00007FA0CF7BE43C660524E8F0856F82730EA
:101000008E07370F0F26BE4033404F4EB04201D1FE
:1010100000262DE04D4EB04201D1012628E04C4E75
:10102000B04201D1022623E04A4EB04201D103264C
:101030001EE0494EB04201D1042619E0474EB042AD
:1010400001D1052614E0464EB04201D106260FE03C
:10105000444EB04201D107260AE0434EB04201D1CE
:10106000082605E0414EB04201D1092600E00A26DB
:101070008F073F0FBE409E4224D18E07370F0F26A9
:1010800006FA07F32F4E8F0856F827609E432D4F20
:101090004FEA910C00E015E047F82C60344E3668BA
:1010A0009643334F3E603E1D366896433F1D3E607B
:1010B0003E1D366896433F1D3E603E1D3668964392
:1010C0003F1D3E60491C1029FFF460AFF0BD024691
:1010D00013690B400BB1012000E0002070470AB1FA
:1010E000816101E00B048361704742694A404261BB
:1010F000704708B502464FF48030009000980843CE
:1011000000900098D061D1610098D061D0690090C2
:10111000D06900F4803008B1002008BD0120FCE750
:10112000704710B50446124814300068204028B1BA
:101130000F48143004602046FFF7F2FF10BD000096
:1011400044380240083801400000024000040240D8
:1011500000080240000C024000100240001402404F
:1011600000180240001C02400020024000240240FF
:10117000003C014010B500240120410291FAA1F188
:10118000B1FA81F1CF4A02EB8101C1F8800002F08F
:101190005BF9044607E002F057F9001BB0F57A7FCF
:1011A00001D9032010BDC8484068C0F3C000002822
:1011B000F1D00020F6E710B5002400204FF40071B4
:1011C00091FAA1F1B1FA81F1BE4A02EB8101C1F8B5
:1011D000800002F039F9044607E002F035F9001BFF
:1011E000B0F57A7F01D9032010BDB7484068C0F33D
:1011F000C0000028F1D100BFF6E70120410291FABA
:10120000A1F1B1FA81F1AF4A42F821007047002004
:101210004FF4007191FAA1F1B1FA81F1A94A42F8B3
:1012200021007047A848006800F44040704738B576
:101230000546002400BFA548006840F08050A3493F
:1012400008600846006800F08050009000BF00BFB2
:101250009E483838006800F00C0008284BD0002069
:101260009B49086602F0F0F8044606E002F0ECF84C
:10127000001B642801D9032038BD94484038006819
:10128000C0F340600028F1D100BF8F48006820F40F
:10129000404028438C4908600846006800F44040FC
:1012A000009000BF00BF01208949086602F0CCF819
:1012B000044606E002F0C8F8001B642801D90320A8
:1012C000DAE7824840380068C0F340600028F1D077
:1012D00002F0BAF8044607E002F0B6F8001BB0F5D9
:1012E0007A7F01D90320C7E777484068C0F3803090
:1012F0000028F1D001E00120BEE70020BCE738B5AE
:10130000002400BF7148006840F080506F490860B9
:101310000846006800F08050009000BF00BF012028
:10132000010491FAA1F1B1FA81F1664A42F8210073
:1013300002F08AF8044607E002F086F8001BB0F5D8
:101340007A7F01D9032038BD5F48406800F48030BF
:10135000B0F5803FF0D10120410491FAA1F1B1FA3A
:1013600081F1584A42F8210002F06EF8044607E085
:1013700002F06AF8001BB0F57A7F01D90320E2E79A
:101380005148406800F40030B0F5003FF0D1002033
:10139000D9E738B5002400BF4C48006840F08050C1
:1013A0004A4908600846006800F08050009000BF7D
:1013B00000BF00204FF4003191FAA1F1B1FA81F1A0
:1013C000404A42F8210002F03FF8044607E002F0EC
:1013D0003BF8001BB0F57A7F01D9032038BD3A48AD
:1013E000406800F40030B0F5003FF0D000204FF42A
:1013F000803191FAA1F1B1FA81F1324A42F821002B
:1014000002F022F8044607E002F01EF8001BB0F5D7
:101410007A7F01D90320E1E72B48406800F480304F
:10142000B0F5803FF0D00020D8E7F8B505460E466D
:101430000024002700BF2548006840F08050234961
:1014400008600846006800F08050009000BF00BFB0
:101450001D48406840F440201B4948600846006829
:1014600040F44020086001F0EFFF074607E001F07C
:10147000EBFFC01BB0F57A7F01D90320F8BD1248FD
:10148000406800F44020B0F5402FF0D00E480468CA
:1014900040F6034084432C430B4804600D48006829
:1014A00040F004000B490860012E01D130BF00E07C
:1014B00020BF0848006820F00400064908600020AA
:1014C000DCE7000000000E4200700040403802409F
:1014D0000000474210ED00E0704738B50446002593
:1014E000207800F00100002866D0F648006800F07F
:1014F0000C0004280DD0F348006800F00C00082808
:1015000013D1F048001F006800F48000B0F5800F90
:101510000BD1EC4808380068C0F3404000284BD09D
:101520006068002848D1012038BD0020E549891FA6
:10153000087001F089FF054608E001F085FF401BB7
:1015400041F28831884201D90320EDE7DD480838AF
:101550000068C0F340400028EFD12079D949891FA5
:1015600008706068A0B101F06FFF054608E001F067
:101570006BFF401B41F28831884201D90320D3E739
:10158000D04808380068C0F340400028EFD013E08E
:1015900001F05AFF054608E001F056FF401B41F2FA
:1015A0008831884201D90320BEE7C6480838006860
:1015B000C0F340400028EFD1207800F0020002285C
:1015C00069D1C048006800F00C0058B1BD480068FF
:1015D00000F00C00082821D1BA48001F006800F470
:1015E0008000D8B9B74808380068C0F3400020B17F
:1015F000E068012801D0012096E7B2480838006869
:1016000020F0F800F82292FAA2F2B2FA82F22169EE
:1016100091400843AB49083908603CE0E06828B3D2
:101620000120A949086001F00FFF054606E001F01E
:101630000BFF401B642801D9032075E7A148083837
:101640000068C0F340000028F1D09E4808380068C8
:1016500020F0F800F82292FAA2F2B2FA82F221699E
:101660009140084397490839086014E000209649E2
:10167000086001F0E9FE054606E001F0E5FE401BCA
:10168000642801D903204FE78E4808380068C0F36A
:1016900040000028F1D1207800F0080008282CD163
:1016A0006069A8B101208949086001F0CDFE0546B6
:1016B00006E001F0C9FE401B642801D9032033E78E
:1016C00080486C300068C0F340000028F1D014E07E
:1016D00000207E49086001F0B7FE054606E001F0F3
:1016E000B3FE401B642801D903201DE775486C3008
:1016F0000068C0F340000028F1D1207800F0040019
:1017000004286DD100BF6F483830006840F0805029
:101710006C49383108600846006800F0805000903D
:1017200000BF00BF6A48006840F4807068490860E4
:1017300001F08AFE054606E001F086FE401B6428A3
:1017400001D90320F0E66248006800F480700028A8
:10175000F2D000205B496831087001F075FE054643
:1017600008E001F071FE401B41F28831884201D946
:101770000320D9E6534868300068C0F340000028D1
:10178000EFD1207A4F4968310870A068A0B101F00C
:101790005BFE054608E001F057FE401B41F2883130
:1017A000884201D90320BFE6464868300068C0F38C
:1017B00040000028EFD013E001F046FE054608E0A7
:1017C00001F042FE401B41F28831884201D90320DA
:1017D000AAE63C4868300068C0F340000028EFD11A
:1017E000A069E8B33748006800F00C00082872D000
:1017F000A069022850D100203349086601F024FE78
:10180000054606E001F020FE401B642801D90320B4
:101810008AE62C4808380068C0F340600028F1D1FF
:10182000D4E90701084347F6C07292FAA2F2B2FA6D
:1018300082F2616A914008430122A16AC2EB510120
:101840004FF4403292FAA2F2B2FA82F29140084387
:101850004FF0706292FAA2F2B2FA82F2E16A00E00C
:101860003BE0914008431749091F086001201649D1
:10187000086601F0E9FD054606E001F0E5FD401BC4
:10188000642801D903204FE60E4808380068C0F3E9
:1018900040600028F1D020E000200B49086601F0EC
:1018A000D3FD054606E001F0CFFD401B642801D9B9
:1018B000032039E6034808380068C0F34060002878
:1018C000F1D10AE00838024000004742800E47424A
:1018D00000700040FFE7012026E6002024E670B5F6
:1018E00004460E460025FE48006800F00F00B04296
:1018F0006FD2FB490E700846006800F00F00B0423E
:1019000001D0012070BD207800F00200022807D12C
:10191000F448006820F0F000A1680843F14908602D
:10192000207800F0010000283ED06068012807D12F
:10193000EC4808380068C0F34040B8B90120E1E73E
:101940006068022802D06068032807D1E54808389B
:101950000068C0F3406048B90120D3E7E148083887
:101960000068C0F3400008B90120CBE7DD480068FB
:1019700020F0030061680843DA49086001F064FD63
:1019800005466068012810D108E001F05DFD401BAC
:1019900041F28831884201D90320B3E7D148006879
:1019A00000F00C000428F0D1CDE06068022811D1CD
:1019B00008E001F049FD401B41F28831884201D91D
:1019C00003209FE7C748006800F00C000828F0D10A
:1019D000B9E024E06068032810D108E001F034FD8C
:1019E000401B41F28831884201D903208AE7BD4873
:1019F000006800F00C000328F0D1A4E008E001F03A
:101A000023FD401B41F28831884201D9032079E748
:101A1000B448006800F00C000028F0D193E0207872
:101A200000F00200022807D1AE48006820F0F00064
:101A3000A1680843AB490860207800F00100002845
:101A400077D06068012807D1A64808380068C0F33D
:101A50004040B8B9012055E76068022802D06068AC
:101A6000032807D19F4808380068C0F3406048B990
:101A7000012047E79B4808380068C0F3400008B9D8
:101A800001203FE79748006820F0030061680843A1
:101A90009449086001F0D8FC05466068012810D11F
:101AA00008E001F0D1FC401B41F28831884201D9A5
:101AB000032027E78B48006800F00C000428F0D1D1
:101AC00037E06068022810D108E001F0BDFC401B3F
:101AD00041F28831884201D9032013E78148006828
:101AE00000F00C000828F0D123E06068032810D132
:101AF00008E001F0A9FC401B41F28831884201D97D
:101B00000320FFE67748006800F00C000328F0D1BE
:101B10000FE008E001F098FC401B41F28831884258
:101B200001D90320EEE66F48006800F00C000028A1
:101B3000F0D16B490E700846006800F00F00B0420B
:101B400001D00120DEE6207800F00400042807D14F
:101B50006448006820F4E050E16808436149086087
:101B6000207800F00800082808D15E48006820F4BA
:101B70006040216940EAC1005A4908600F20FEF721
:101B800090FB0020BEE670B586B006460C461546B2
:101B900036BB00BF53482830006840F0010051496F
:101BA000283108600846006800F00100009000BF7E
:101BB00000BF8815019002200290032004900020AD
:101BC0000390059001A94848FFF7E8F845480068E8
:101BD00020F0EC6044EA050108434249086025E032
:101BE00000BF40482830006840F004003D492831DB
:101BF00008600846006800F00400009000BF00BFC5
:101C000048150190022002900320049000200390C8
:101C1000059001A93548FFF7C1F83248006820F067
:101C2000784044EAC50108432E49086006B070BDFB
:101C300001202F49C864704700202D49C8647047AF
:101C400070B50021002200230020264C246804F0F7
:101C50000C0424B1042C04D0082C4FD103E02548F7
:101C60004EE025484CE01F4C241F246804F03F013F
:101C70001C4C241F246804F4800484B11E4CB4FB63
:101C8000F1F5184C241F246847F6C076344096FAC4
:101C9000A6F6B6FA86F6F44005FB04F20FE0154C02
:101CA000B4FBF1F50F4C241F246847F6C07634408E
:101CB00096FAA6F6B6FA86F6F44005FB04F2094C4D
:101CC000241F246804F440344FF4403595FAA5F5F8
:101CD000B5FA85F5EC40641C6300B2FBF3F00FE04D
:101CE000003C024008380240000002400008024068
:101CF000000047420024F40000127A007E4800BF32
:101D000000BF70BD10B5FFF79BFF7C49096801F06B
:101D1000F001F02292FAA2F2B2FA82F2D140784AAD
:101D2000515CC840774908600846006810BD10B58E
:101D3000FFF7E8FF7149096801F4E0514FF4E05200
:101D400092FAA2F2B2FA82F2D1406D4A515CC840D6
:101D500010BD10B5FFF7D6FF6849096801F460416E
:101D60004FF4604292FAA2F2B2FA82F2D140644A8F
:101D7000515CC84010BD0F210160604908390968F5
:101D800001F48021B1F5802F02D1052141600CE0E2
:101D90005A490839096801F48031B1F5803F02D110
:101DA0000121416001E0002141605449083909687E
:101DB00001F0010111B10121C16001E00021C16008
:101DC0004E490839096801F0F801F82292FAA2F2A6
:101DD000B2FA82F2D140016148496831096801F0E4
:101DE0000401042902D1052181600AE043496831D8
:101DF000096801F0010111B10121816001E00021B8
:101E000081603E496C31096801F0010111B1012185
:101E1000416101E00021416138490839096801F058
:101E20008071B1F1807F02D10221816101E0012145
:101E300081613249091F096801F48002C2612F499A
:101E4000091F096801F03F0202622C49091F096855
:101E500047F6C072114092FAA2F2B2FA82F2D14071
:101E600041622649091F096801F4403101F58031BA
:101E700049004FF4403292FAA2F2B2FA82F2D14013
:101E800081621E49091F096801F070614FF070629C
:101E900092FAA2F2B2FA82F2D140C16270470F22E6
:101EA0000260164A126802F003024260134A126886
:101EB00002F0F0028260114A126802F4E052C2603D
:101EC0000E4A126802F46042D20802610E4A126899
:101ED00002F00F020A607047704710B50748001DF6
:101EE000006800F08000802805D1FFF7F5FF802012
:101EF0000249891D087010BD0024F4000838024012
:101F00007CE00008E0000020003C02402DE9F041A8
:101F1000044600252068056925F44055E06805431E
:101F2000206805612068C56849F20C608543216915
:101F3000A068084361690843E169084305432068D4
:101F4000C5602068456925F44075A069054320688F
:101F50004561E069B0F5004F72D1FE4920688842C2
:101F600003D0FD492068884234D1FFF7F2FE00EB30
:101F7000C00101EB001061684900B0FBF1F0642181
:101F8000B0FBF1F6FFF7E5FE00EBC00101EB00103E
:101F900061684900B0FBF1F7FFF7DBFE00EBC00121
:101FA00001EB001061684900B0FBF1F06421B0FB67
:101FB000F1F000EBC00101EB0010A7EB8000322133
:101FC00001EB00106421B0FBF1F066F31F102168F3
:101FD0008860A6E0FFF7ABFE00EBC00101EB00104C
:101FE00061684900B0FBF1F06421B0FBF1F6FFF746
:101FF0009EFE00EBC00101EB001061684900B0FBE0
:10200000F1F7FFF794FE00EBC00101EB00106168EF
:102010004900B0FBF1F06421B0FBF1F000EBC0012E
:1020200001EB0010A7EB8000322101EB00106421CE
:10203000B0FBF1F066F31F102168886071E0FFE7E4
:10204000C4492068884203D0C3492068884234D1FB
:10205000FFF77FFE00EBC00101EB00106168890013
:10206000B0FBF1F06421B0FBF1F6FFF772FE00EB7C
:10207000C00101EB001061688900B0FBF1F7FFF7C8
:1020800068FE00EBC00101EB001061688900B0FB45
:10209000F1F06421B0FBF1F000EBC00101EB0010A6
:1020A000A7EB8000322101EB00106421B0FBF1F0BE
:1020B00066F31F102168886033E0FFF738FE00EBFD
:1020C000C00101EB001061688900B0FBF1F06421F0
:1020D000B0FBF1F6FFF72BFE00EBC00101EB0010A7
:1020E00061688900B0FBF1F7FFF721FE00EBC0014A
:1020F00001EB001061688900B0FBF1F06421B0FBD6
:10210000F1F000EBC00101EB0010A7EB80003221E1
:1021100001EB00106421B0FBF1F066F31F102168A1
:102120008860BDE8F081704710B504460CB9012005
:1021300010BDA06900B100E000BF94F8390028B9D3
:10214000002084F838002046FFF7EDFF022084F8D5
:1021500039002068C06820F400502168C86020461B
:10216000FFF7D4FE2068006920F4904021680861E0
:102170002068406920F02A00216848612068C06812
:1021800040F400502168C8600020E063012084F81A
:1021900039000020CCE710B504460CB9012010BD71
:1021A00094F8390028B9002084F838002046FFF759
:1021B000BAFF022084F839002068C06820F400507B
:1021C0002168C8602046FFF7A1FE2068006920F45E
:1021D0009040216808612068406920F02200216851
:1021E00048612068406940F0080021684861206823
:1021F000C06840F400502168C8600020E0630120FE
:1022000084F839000020CAE770B504460D460CB9C1
:10221000012070BD94F8390028B9002084F83800F6
:102220002046FFF780FF022084F839002068C0684C
:1022300020F400502168C8602046FFF767FE206840
:10224000006920F40060216808612068406920F07E
:102250002A00216848612068006940F480402168B4
:1022600008612068006920F020002168086120686A
:1022700000692843216808612068C06840F4005064
:102280002168C8600020E063012084F83900002044
:10229000BFE770B504460D4616460CB9012070BD67
:1022A00094F8390028B9002084F838002046FFF758
:1022B0003AFF022084F839002068C06820F40050FA
:1022C0002168C8602046FFF721FE2068006920F4DD
:1022D0009040216808612068406920F02A00216848
:1022E00048612068006920F00F00216808612068BB
:1022F00000692843216808612068C06820F40060F4
:102300002168C8602068C06830432168C8602068C0
:10231000C06840F400502168C8600020E0630120DC
:1023200084F839000020BAE7704710B504460CB9AC
:10233000012010BD022084F839002046FFF7F4FF89
:102340000020E06384F8390000BF84F8380000BF43
:1023500000BFEEE700100140001401402DE9F041FC
:1023600004460E4617461D464FF0000801F06CF873
:1023700080469FBB2BE0681C48B32DB101F064F888
:10238000A0EB0800A84222D92068C06820F0800095
:102390002168C8602068C06820F020002168C860FB
:1023A0002068C06820F480702168C8602068406997
:1023B00020F0010021684861012084F8390000BF45
:1023C000002084F8380000BF0320BDE8F0812068B9
:1023D00000683040B04202D1012001E003E000205B
:1023E0000028C8D035E02AE0681C40B32DB101F0C8
:1023F0002BF8A0EB0800A84221D92068C06820F083
:1024000080002168C8602068C06820F02000216832
:10241000C8602068C06820F480702168C8602068A7
:10242000406920F0010021684861012084F83900EA
:1024300000BF002084F8380000BF0320C5E72068F3
:1024400000683040B04201D1012000E000200028A7
:10245000CAD10020B9E72DE9F04704460D461646DB
:1024600099464FF0000894F83980B8F1010F02D076
:10247000B8F1220F65D105B116B90120BDE8F0878A
:1024800000BF94F83800012801D10220F6E70120AE
:1024900084F8380000BF0020E06394F83900222857
:1024A00003D1322084F8390002E0122084F8390088
:1024B000A684E68428E0E08C401EE084A068B0F5A5
:1024C000805F14D14B46002280212046FFF746FF53
:1024D00008B10320D2E72F463888C0F308002168EE
:1024E0004860206908B9AD1C0EE06D1C0CE04B463D
:1024F000002280212046FFF731FF08B10320BDE70D
:1025000015F8010B21684860E08C0028D3DC4B46AD
:10251000002240212046FFF721FF08B10320ADE74C
:1025200094F83900322803D1222084F8390002E0DF
:10253000012084F8390000BF002084F8380000BF73
:102540009CE702209AE72DE9F04704460D4616461F
:1025500099464FF0000894F83980B8F1010F02D085
:10256000B8F1120F69D105B116B90120BDE8F087A5
:1025700000BF94F83800012801D10220F6E70120BD
:1025800084F8380000BF0020E06394F83900122876
:1025900003D1322084F8390002E0222084F8390087
:1025A000A685E68535E0E08D401EE085A068B0F5A3
:1025B000805F18D14B46002220212046FFF7CEFE37
:1025C00008B10320D2E72F46206930B9206840685F
:1025D000C0F308003880AD1C1BE020684068C0B222
:1025E00038806D1C15E04B46002220212046FFF765
:1025F000B5FE08B10320B9E7206920B9206840681A
:1026000005F8010B05E02068406800F07F0005F840
:10261000010BE08D0028C6DC94F83900322803D184
:10262000122084F8390002E0012084F8390000BF4C
:10263000002084F8380000BF98E7022096E730B504
:102640000346002493F83940012C01D0222C37D1C5
:1026500001B10AB9012030BD00BF93F8380001284C
:1026600001D10220F7E7012083F8380000BF19628A
:102670009A84DA840020D86393F83900222803D1A1
:10268000322083F8390002E0122083F839001868FC
:10269000C06840F480701D68E8601868406940F0C8
:1026A00001001D68686100BF002083F8380000BF8A
:1026B0001868C06840F080001D68E8600020CAE724
:1026C0000220C8E730B50346002493F83940012CB6
:1026D00001D0122C37D101B10AB9012030BD00BFA1
:1026E00093F83800012801D10220F7E7012083F890
:1026F000380000BF99629A85DA850020D86393F884
:102700003900122803D1322083F8390002E0222058
:1027100083F839001868C06840F480701D68E8606C
:102720001868406940F001001D68686100BF002022
:1027300083F8380000BF1868C06840F020001D68AA
:10274000E8600020CAE70220C8E7704770B5054678
:10275000AC6B0020E085E084012084F83900E06B58
:1027600040F01000E0632046FFF7EFFF70BD7047B8
:1027700070B50446A56B2846FFF7F9FF70BD70479A
:1027800070B50546AC6B2868006800F4807070B9BD
:102790000020E0842068406920F0800021684861C2
:1027A0002068C06840F040002168C86002E0204610
:1027B000FFF7E5FF70BDF7B504461546002794F80E
:1027C0003970012F01D0222F41D1019800B10DB9EC
:1027D0000120FEBD00BF94F83800012801D102207D
:1027E000F7E7012084F8380000BF01982062A58433
:1027F000E5840020E06394F83900222803D13220D8
:1028000084F8390002E0122084F83900F748216B7F
:10281000C863F748216B0864F648216B886401AEF1
:1028200023681A1D31682B46206BFEF773F86FF092
:102830004000216808602068406940F080002168FD
:10284000486100BF002084F8380000BFC1E70220C3
:10285000BFE7704770B50446A56B2846FFF7F9FF40
:1028600070BD704770B50546AC6B2868006800F411
:10287000807090B90020E0852068406920F0400019
:102880002168486194F83900322803D1122084F875
:10289000390002E0012084F839002046FFF7E1FF0B
:1028A00070BDF7B504461546002794F83970012F1E
:1028B00001D0122F3CD1019800B10DB90120FEBD0D
:1028C00000BF94F83800012801D10220F7E7012069
:1028D00084F8380000BF0198A062A5850020E0635D
:1028E00094F83900122803D1322084F8390002E02C
:1028F000222084F83900C048616BC863BF48616B0F
:102900000864BC48616B886401AE32682368191D95
:102910002B46606BFDF7FEFF2068406940F04000E9
:102920002168486100BF002084F8380000BFC6E776
:102930000220C4E7014600BF91F83800012801D108
:1029400002207047012081F8380000BF91F839005B
:10295000122806D10868406920F080000A6850619A
:102960001AE091F83900222806D10868406920F061
:1029700040000A6850610FE091F8390032280BD10D
:102980000868406920F080000A6850610868406962
:1029900020F040000A68506100BF002081F8380034
:1029A00000BF00BFCDE708B5014600BF91F8380071
:1029B000012801D1022008BD012081F8380000BFA4
:1029C00091F83900122806D10868406940F080006B
:1029D0000A6850612CE091F8390022280FD100BF1D
:1029E00008680068009008684068009000BF00BF59
:1029F0000868406940F040000A68506118E091F8AA
:102A00003900322814D100BF0868006800900868B7
:102A10004068009000BF00BF0868406940F0800037
:102A20000A6850610868406940F040000A685061D7
:102A300000BF002081F8380000BF00BFBBE710B521
:102A400004462068406920F08000216848612068C1
:102A5000406920F0400021684861206B10B1206B74
:102A6000FDF78DFF606B10B1606BFDF788FF0120F3
:102A700084F83900002010BD10B504462068C068F5
:102A800020F040002168C86094F83900322803D152
:102A9000222084F839000EE02068C06820F480709D
:102AA0002168C8602068406920F001002168486101
:102AB000012084F839002046FFF761FE002010BD98
:102AC00010B50146002391F83930122B01D0322B7A
:102AD0002CD18868B0F5805F0FD10A6A1088C0F3E6
:102AE00008000C686060086918B9086A801C0862F0
:102AF00009E0086A401C086205E00C6A601C086274
:102B000020780C686060C88C401E80B2C88458B9B8
:102B10000868C06820F080000C68E0600868C06841
:102B200040F040000C68E060002010BD0220FCE78F
:102B300070B50446002694F83960222E01D0322E5A
:102B400052D1A068B0F5805F13D1A56A206940B961
:102B500020684068C0F308002880A06A801CA0623A
:102B600019E020684068C0B22880A06A401CA062BA
:102B700011E0206938B920684068C1B2A26A501CCF
:102B8000A062117007E02068406800F07F01A26A2F
:102B9000501CA0621170E08D401E80B2E08508BB21
:102BA0002068C06820F020002168C86094F83900CF
:102BB000322803D1122084F839000EE02068C06862
:102BC00020F480702168C8602068406920F001000E
:102BD00021684861012084F839002046FFF741FE52
:102BE000002070BD0020FCE70220FAE781270008E2
:102BF000712700084D27000865280008552800089F
:102C0000F8B50446002500262068006800F001059C
:102C10002068C06800F480766DB166B100BF20689E
:102C20000068009020684068009000BF00BFE06B23
:102C300040F00100E06320680068C0F340052068B0
:102C4000406900F001066DB166B100BF2068006800
:102C5000009020684068009000BF00BFE06B40F02B
:102C60000400E06320680068C0F3800520684069C4
:102C700000F001066DB166B100BF206800680090E9
:102C800020684068009000BF00BFE06B40F0020089
:102C9000E06320680068C0F3C0052068406900F068
:102CA00001066DB166B100BF206800680090206821
:102CB0004068009000BF00BFE06B40F00800E06398
:102CC00020680068C0F340152068C06800F0200646
:102CD0001DB116B12046FFF72BFF20680068C0F336
:102CE000C0152068C06800F080061DB116B12046EE
:102CF000FFF7E6FE20680068C0F380152068C06812
:102D000000F040061DB116B12046FFF7B5FEE06B9E
:102D100028B1012084F839002046FFF716FDF8BDE0
:102D2000014600BF91F83800012801D10220704708
:102D3000012081F8380000BF022081F839000868BE
:102D4000C06840F001000A68D060012081F83900B5
:102D500000BF002081F8380000BF00BFE7E7014650
:102D600000BF91F83800012801D1022070470120EE
:102D700081F8380000BF022081F839000868C06877
:102D800040F002000A68D060012081F8390000BFDD
:102D9000002081F8380000BF00BFE7E7014600BF10
:102DA00091F83800012801D102207047012081F8F4
:102DB000380000BF022081F839000868C06820F0A0
:102DC00002000A68D060012081F8390000BF0020AD
:102DD00081F8380000BF00BFE7E70146002200BFCE
:102DE00091F83800012801D102207047012081F8B4
:102DF000380000BF022081F839000868C26822F05C
:102E00000C0242F008020868C260012081F8390013
:102E100000BF002081F8380000BF00BFE5E7014691
:102E2000002200BF91F83800012801D1022070472C
:102E3000012081F8380000BF022081F839000868BD
:102E4000C26822F00C0242F004020868C26001204D
:102E500081F8390000BF002081F8380000BF00BFB2
:102E6000E5E7014691F8390070470146C86B7047A5
:102E700000B593B000BF2948006840F08050274952
:102E800008600846006800F08050019000BF00BF55
:102E900000BF2348006840F44040214908600846CC
:102EA000006800F44040019000BF00BF0120029084
:102EB0000390002005904FF48001099102200890B2
:102EC00008210A914FF4B4710B9102210C91072152
:102ED0000D9102A8FEF701FB10B1012013B000BD57
:102EE000FEF70DFA08B10120F8E702200F9000204C
:102EF000109007200E900E9840F008000E904FF4AE
:102F0000A05011904FF48050129006210EA8FEF7A9
:102F1000E6FC08B10120E1E70020DFE7403802408D
:102F20000070004001464FF40030081AC0F38F20B3
:102F300070472DE9F04304460E461546DDE9078942
:102F40002046FFF7EFFFC7B2002243E00120904088
:102F5000304000B93CE0B14830F817000121914001
:102F60000843AE4921F81700E0684FEA420C0321FC
:102F700001FA0CF18843510008FA01F10843E060BE
:102F800020684FEA420C032101FA0CF188435100FA
:102F900005FA01F108432060012D01D0022D16D160
:102FA00061680120904080B221EA000003FA02F13A
:102FB00089B208436060A0684FEA420C032101FA1D
:102FC0000CF18843510009FA01F10843A06000BFE9
:102FD000501CC2B2102AB9DBBDE8F08300B502462E
:102FE0001046FFF79FFF012101FA00F08C490968A4
:102FF00008438B49086000BD2DE9FC4305460C469B
:1030000016461F46DDE909890CB9BDE8FC83284650
:10301000FFF7E4FF3B46324621462846CDE90089CA
:10302000FFF787FF00BFF0E72DE9FC4705460E4696
:1030300017469846DDE90A9A0EB9BDE8FC8728468E
:10304000FFF7CCFF00241AE00120A040304000B977
:1030500014E0E10805F1200050F821006107CA0ED4
:103060000F21914088436107C90E0AFA01F1084314
:10307000E20805F1200141F8220000BF641C102C79
:10308000E2D33B46022231462846CDE90089FFF7CC
:1030900050FF00BFD1E770B503460C461846FFF756
:1030A00041FFC5B2002214E001209040204070B1E1
:1030B000186856000321B14008431860574830F89B
:1030C0001500012191408843544921F81500501CF6
:1030D000C2B2102AE8DB70BD30B5024600200BE01A
:1030E000012383400B402BB1136845000324AC40FF
:1030F000A3431360431CD8B21028F1DB30BD30B5B8
:10310000024600200FE0012383400B404BB11368BF
:1031100045000324AC40A34345000124AC402343B5
:103120001360431CD8B21028EDDB30BD30B5024629
:1031300000200BE0012383400B402BB113684500B6
:103140000324AC4023431360431CD8B21028F1DBA6
:1031500030BD30B50246002011E0012383400B4012
:1031600003B90AE0136845000324AC40A3434500BB
:103170000224AC402343136000BF431CD8B2102884
:10318000EBDB30BD70B50346002011E00124844024
:103190000C4004B90AE0DC6846000325B540AC43A6
:1031A000450002FA05F52C43DC6000BF441CE0B288
:1031B0001028EBDB70BD41F48032C261C161C26195
:1031C000C369C36970470146002002E0421C90B207
:1031D00049100129FADC704700B502461046FFF796
:1031E000A1FE012181400E48006888430C49086017
:1031F00000BD00B502461046FFF794FE074931F8BE
:10320000100000BD00B502461046FFF78BFE0349D3
:1032100031F81000C04380B200BD000070010020F2
:10322000303802409748006820F08070954A10605E
:103230001046006840F0807010609348006820F0ED
:103240000100914A10601046006840F001001060D3
:10325000002050601046416800BF00BF8A484068A7
:10326000401A70472DE9F04705460E461746984626
:10327000DDF8209085480078052802DB0020BDE8B5
:10328000F08714200AF0C0FE04460CB90020F6E7CF
:1032900065606068A060207866F300002070207888
:1032A00067F341002070C4F80C80C4F81090774890
:1032B00001780078401C754A1070101D40F82140BC
:1032C0002046DCE72DE9F0410646002408E06F487F
:1032D000001D50F82400B04200D105E0601CC4B2CB
:1032E0006A480078A042F2DC00BF68480078A0423B
:1032F00001D1BDE8F0816548001D50F8247000BF81
:10330000EFF31080054672B608E06048001D611CAE
:1033100050F8211040F82410601CC4B25B480078BB
:10332000401EA042F1DC59480078401E5749087001
:1033300038460AF041FE05B962B600BFD9E7017808
:1033400021F0020101707047017821F00201891C0F
:103350000170704741688160704709B1012200E047
:103360000022037862F300030370704741607047E6
:10337000704710B546480068401C454908604548FC
:10338000006820B143480068401E4249086000249C
:1033900053E03E48001D50F8240000284BD03B4825
:1033A000001D50F824000078C0F34000F0B3374807
:1033B000001D50F82400806850B13448001D50F8BA
:1033C00024008068401E3149091D51F8241088608E
:1033D0002E48001D50F82400806838BB2B4B1B1D65
:1033E00053F824301969294B1B1D53F8240053F856
:1033F0002430DA6890472548001D50F824004168C1
:103400002248001D50F8240081602048001D50F81B
:103410002400007800F0010040B91C48001D50F85D
:103420002400007820F00201184800E003E0001DAD
:1034300050F824000170601CC4B214480078A04207
:10344000A7DC01F0A8F910BD11480068704700B56D
:10345000014600BFEFF3058048B9FFF7F5FF0246CC
:1034600000BFFFF7F1FF801A8842FAD309E006E0B7
:103470004FF0E020006900F4803000B1491E0029BF
:10348000F6D100BDFCED00E0001000E08C01002052
:1034900008000020040000201CB5032000210B467A
:1034A0000122CDE9001041031D48FFF7A5FD4FF0B3
:1034B000C0401B49183108601CBD1CB5002002210A
:1034C00003460246CDE9001001211648FFF794FD9E
:1034D0001CBD1448006900F0010080F0010030B903
:1034E0001148007830B901200F490870704700205A
:1034F0000D4908700020F9E70A48006900F0010052
:1035000080F0010038B10848007838B10020064941
:103510000870012070470120034908700020F9E776
:1035200000180240000002400C00002070B5044664
:103530000D461646182120460AF00BFA2560E66073
:103540000A206074E06868B928460AF05DFDE06012
:10355000E06818B900202060012070BD207C40F098
:1035600002002074207C40F0010020740020F4E769
:1035700010B5044604B910BD207C00F0020010B163
:10358000E0680AF019FD00202074206000BFF2E717
:1035900030B5014609B9002030BD4A688B689A42AF
:1035A00000D10C68934200D99C1A9A4202D9D51ACC
:1035B0000868441B601EEFE72DE9F0470446894682
:1035C00015464FF0000804B115B90020BDE8F0879A
:1035D000D4E90010884201D3002060602046FFF744
:1035E000D7FF0746AF4203D20FB90020EEE73D46B2
:1035F000D4E90001461AAE4200D92E466268E1685D
:103600008818324649460AF08BF9B0446068304465
:103610006060AD1B55B1002060606368E268D0183F
:1036200009EB08012A460AF07BF96560D4E900102D
:10363000884201D30020606008EB0500C6E72DE951
:10364000F04104460F4615464FF0000804B115B985
:103650000020BDE8F081D4E90010884201D30020A9
:1036600060602168A068884201D30020A0602046E5
:10367000FFF78EFF0646AE4203D20EB90020E8E700
:103680003546681E07440FE0A06818B92068401E40
:10369000A06002E0A068401EA06017F80109D4E90C
:1036A0000221885408F10108281EA5F10105EBD17B
:1036B0004046CEE730B503460BB9002030BD59680F
:1036C0009A68914200D10024914200D98C1A8A4212
:1036D00002D9551A1868441B2046EFE72DE9F04738
:1036E0000446884615464FF0000904B115B900207C
:1036F000BDE8F0872168A068884201D30020A0605F
:103700002046FFF7D7FF0746AF4203D20FB900208C
:10371000EEE73D46A1682068461AAE4200D92E4623
:10372000D4E902208118324640460AF0F9F8B14443
:10373000A0683044A060AD1B55B10020A060D4E962
:103740000232D11808EB09002A460AF0E9F8A56010
:103750002168A068884201D30020A06009EB050021
:10376000C6E700B9704700214160816000BFF9E7FA
:103770002DE9F04104460F464FF000081CB94FF008
:10378000FF30BDE8F0812046FFF794FF0546A668AC
:103790000DE02068B04200D80026E068805DB842A5
:1037A00001D14046EDE7761C6D1E08F10108002DA1
:1037B000EFD1681EE5E72DE9F04F044689469046B3
:1037C0004FF0000AD3462CB12046FFF773FF0646A0
:1037D000404503D24FF0FF30BDE8F08FA5682DE0E3
:1037E0002068A84200D80025E068405D99F80010E4
:1037F000884201D14FF0010B6D1C761E0AF1010ABF
:10380000BBF1000F1AD001270FE02068A84200D8B2
:103810000025E068405D19F80710884202D0781E44
:10382000824406E06D1C761E7F1C474501D2002EA7
:10383000EBD100BF474501D15046CDE7002ECFD197
:10384000701EC9E770B505460C4620460AF098F888
:103850000646324621462846FFF7AEFE70BD2DE9EA
:10386000F84306460D461746002416B90020BDE869
:10387000F8833046FFF78CFE81463046FFF71AFF8B
:103880008046B8F1000F0AD0717C3046FFF770FF18
:10389000002806DAB9F1000F03D0B84501D20020A4
:1038A000E5E70FE0012269463046FFF717FF00B950
:1038B0000BE09DF800002855285D717C884200D1FE
:1038C00003E0641C781EA042ECD800BF781EA04222
:1038D00002D10020285503E00021601C0446295431
:1038E0002046C4E770B503460C46154600220BB9C6
:1038F000002070BD5E68996805E0491C521C18687C
:10390000884200D80021A24201D28E42F5D1A242C3
:1039100004D1D868405C28700120EAE70020E8E77D
:103920000146FE4A914200D10020FD4A914200D159
:103930000120FC4A914200D10220FB4A914200D171
:103940000420FA4A914200D10520F94A914200D15F
:103950000620F84A914200D10720F74A914200D14F
:103960000820704770471CB5044644B9082003215D
:1039700001230022CDE90010F048FFF755FB032C8E
:1039800003D10821EC4807F0E0FB1CBD1CB5044640
:103990004CB90820032101230022CDE90010C90100
:1039A000E648FFF741FB012C09D108200321012340
:1039B0000022CDE90010C021E148FFF735FB032CC0
:1039C00003D10821DB4807F0C0FB1CBD1CB5044631
:1039D0004CB90820032101230022CDE90010C021A9
:1039E000D848FFF721FB012C0AD10820032101232D
:1039F0000022CDE900104FF48441D348FFF714FBB7
:103A0000032C03D10821CA4807F09FFB1CBD1CB53D
:103A100004469CB90820032101230022CDE90010AF
:103A20004102C848FFF700FB0820032101230022C0
:103A3000CDE900100421C548FFF7F6FA032C03D1A5
:103A40000821BA4807F081FB1CBD1CB5044644B9E7
:103A50000820032101230022CDE90010BC48FFF714
:103A6000E3FA012C09D10820032101230022CDE92A
:103A700000108902B348FFF7D7FA032C03D10821BD
:103A8000A94807F062FB1CBD1CB504464CB90720D1
:103A9000032101230022CDE900108902AD48FFF780
:103AA000C3FA012C09D10720032101230022CDE90B
:103AB00000108902A348FFF7B7FA022C09D10720AA
:103AC000032101230022CDE9001009029F48FFF7DE
:103AD000ABFA032C03D10721924807F036FB1CBD3B
:103AE0001CB504464CB90720032101230022CDE96F
:103AF00000100C219648FFF797FA012C09D10720F6
:103B0000032101230022CDE9001060218F48FFF737
:103B10008BFA032C03D10721814807F016FB1CBD4B
:103B20001CB504464CB90720032101230022CDE92E
:103B3000001049028648FFF777FA012C09D10720C7
:103B4000032101230022CDE90010C0218148FFF7A5
:103B50006BFA022C13D10720032101230022CDE9A7
:103B6000001059027A48FFF75FFA0720032101236A
:103B70000022CDE9001080217648FFF755FA032C8A
:103B800003D10721654807F0E0FA1CBD2DE9F04F8D
:103B900091B004460D4616461F46DDE91BABDDF825
:103BA00068905E4884421FD100BF6B48006840F0B7
:103BB0001000694908600846006800F01000009095
:103BC00000BF00BF64482038006840F01000624920
:103BD000203908600846006820F010000860284678
:103BE000FFF79EFF4FF025084D48844221D100BFCA
:103BF0005948001F006840F400305749091F086009
:103C00000846006800F40030009000BF00BF524832
:103C10002438006840F400304F49243908600846D1
:103C2000006820F4003008602846FFF759FF4FF085
:103C300026083C48844221D100BF4748001F006845
:103C400040F480204449091F08600846006800F4D9
:103C50008020009000BF00BF3F482438006840F437
:103C600080203D49243908600846006820F48020FF
:103C700008602846FFF708FF4FF027082A488442CB
:103C800021D100BF3448001F006840F400203249B1
:103C9000091F08600846006800F40020009000BF7B
:103CA00000BF2D482438006840F400202A492439F8
:103CB00008600846006820F4002008602846FFF7E6
:103CC000C4FE4FF034081948844221D100BF224875
:103CD000001F006840F480101F49091F0860084653
:103CE000006800F48010009000BF00BF1A4824381C
:103CF000006840F4801018492439086008460068BC
:103D000020F4801008602846FFF781FE4FF0350848
:103D10000748844240D100BF0F481FE00010014017
:103D20000044004000480040004C0040005000406B
:103D30000014014000780040007C00400010024068
:103D4000001402400008024000180240000C02402B
:103D5000000002400004024044380240006840F085
:103D60002000FC4908600846006800F02000009030
:103D700000BF00BFF7482038006840F02000F54938
:103D8000203908600846006820F0200008602846B6
:103D9000FFF71CFE4FF04708EF48844221D100BFD7
:103DA000EC48001F006840F08040EA49091F0860A5
:103DB0000846006800F08040009000BF00BFE54862
:103DC0002438006840F08040E24924390860084601
:103DD000006820F0804008602846FFF7D7FD4FF0CC
:103DE0005208DE48844221D100BFDA48001F006833
:103DF00040F00040D749091F08600846006800F0FD
:103E00000040009000BF00BFD2482438006840F056
:103E10000040D049243908600846006820F000407E
:103E200008602846FFF79FFD4FF053080194029663
:103E30000797CDF81890CDF814A0CDF810B01D98C4
:103E40000390002108914046FCF77BFB2046FFF7DA
:103E500067FD0246062100904046FCF727FB4046DE
:103E6000FCF762FB4046FCF746FC01A8FEF75CF954
:103E7000E06840F02000E06011B0BDE8F08F7FB551
:103E800004460D461646B64884420BD100200C234A
:103E9000CDE9003002900346324629460390204681
:103EA000FFF774FEAF4884420BD100200C23CDE90C
:103EB0000030029003463246294603902046FFF721
:103EC00065FEA94884420BD100200C23CDE90030C7
:103ED000029003463246294603902046FFF756FEDD
:103EE000A24884420BD100200C23CDE9003002907F
:103EF00003463246294603902046FFF747FE9C487A
:103F000084420BD100200C23CDE9003002900346FF
:103F10003246294603902046FFF738FE95488442F2
:103F20000BD100200C23CDE900300290034632462D
:103F3000294603902046FFF729FE874884420BD18B
:103F400000200C23CDE9003002900346324629467A
:103F500003902046FFF71AFE804884420BD10020D0
:103F60000C23CDE9003002900346324629460390E7
:103F70002046FFF70BFE7FBD2DE9FF4104460D46AD
:103F800016461F46764884420BD100200C23CDE90B
:103F9000003002903B463246294603902046FFF708
:103FA000F5FD704884420BD100200C23CDE9003090
:103FB00002903B463246294603902046FFF7E6FD35
:103FC000694884420BD100200C23CDE900300290D7
:103FD0003B463246294603902046FFF7D7FD63480B
:103FE00084420BD100200C23CDE9003002903B46E7
:103FF0003246294603902046FFF7C8FD5C488442BC
:104000000BD100200C23CDE9003002903B46324614
:10401000294603902046FFF7B9FD564884420BD14C
:1040200000200C23CDE9003002903B463246294661
:1040300003902046FFF7AAFD474884420BD1002099
:104040000C23CDE9003002903B46324629460390CE
:104050002046FFF79BFD414884420BD100200C23F2
:10406000CDE9003002903B46324629460390204677
:10407000FFF78CFDBDE8FF810146394A914200D12E
:104080003D48384A914200D13C48374A914200D1DC
:104090003B48364A914200D13A48354A914200D1D4
:1040A0003948344A914200D138482B4A914200D1D4
:1040B00037482A4A914200D13648704738B50446FD
:1040C0002046FFF7D9FF054601226946FFF706FBA8
:1040D00010B19DF8000038BD0020FCE72DE9F0414B
:1040E00004460D4616462046FFF7C6FF07463246F1
:1040F0002946FFF7B4FB80B2BDE8F0810EE000BFB7
:10410000026802F08002002AFAD011F8012B426006
:1041100000BF026802F08002002AFAD00A78002A62
:10412000EDD1704710B50EE000BF036803F08003C7
:10413000002BFAD011F8013B436000BF036803F085
:104140008003002BFAD0131EA2F10104A2B2EBD11E
:1041500010BD00004438024000780040007C004060
:10416000001001400044004000480040004C004066
:1041700000500040001401401000002028000020E2
:10418000400000205800002070000020880000201F
:10419000A0000020B800002070B504460D4620465F
:1041A000FFF76AFF06462946FFF7E2FA00B270BD44
:1041B0002DE9F04105460C46204609F0E1FB064694
:1041C0002846FFF759FF074632462146FFF7F3FA24
:1041D00000B2BDE8F08170B504462046FFF74CFF01
:1041E0000546FFF767FA08B9012070BD0020FCE71B
:1041F00070B504462046FFF73FFF0546FFF7C8F9B4
:1042000008B9012070BD0020FCE770B504462046C7
:10421000FFF732FF0546FFF74DFA80B270BD70B56B
:1042200004462046FFF728FF0546FFF79AFA70BDBF
:1042300070B505460C462846FFF71EFF447470BD56
:1042400070477047704770477047704770477047B6
:1042500013B50446012201A92046FFF7ADF91CBDA4
:1042600038B505460C466448056000BF0068006824
:104270000090614800684068009000BF00BF00BF28
:104280005D480068006800905B48006840680090E6
:1042900000BF00BF00BF5848006800680090564843
:1042A00000684068009000BF00BF00BF524800682F
:1042B00000680090504800684068009000BF00BF50
:1042C00000BF4D480068006800904B480068406897
:1042D000009000BF00BF2046FCF70DFA38BD10B5B6
:1042E0004648006800F0200020B144494968C8B23F
:1042F00006F025FF25214148FFF7B2FF10BD10B59C
:104300003F48006800F0200030B13D48001D0068C3
:10431000C1B23C48FFF79CFF26213948FFF7A0FFB8
:1043200010BD10B53848006800F0200030B13648A4
:10433000001D0068C1B23548FFF78AFF27213248C7
:10434000FFF78EFF10BD10B53148006800F0200067
:1043500030B12F48001D0068C1B22E48FFF778FF2A
:1043600034212B48FFF77CFF10BD10B52A480068A8
:1043700000F0200028B128484068C1B22748FFF764
:1043800067FF35212448FFF76BFF10BD10B52448A7
:10439000006800F0200030B12148001D0068C1B263
:1043A0002048FFF755FF47211D48FFF759FF10BD73
:1043B00010B51D48006800F0200030B11A48001DFB
:1043C0000068C1B21948FFF743FF52211648FFF7B2
:1043D00047FF10BD10B51648006800F0200030B14E
:1043E0001348001D0068C1B21248FFF731FF532186
:1043F0000F48FFF735FF10BDA40200200010014058
:1044000000440040280000200048004040000020F8
:10441000004C004058000020005000407000002078
:10442000001401408800002000780040A000002017
:10443000007C0040B800002030B502460B46BE4C60
:10444000A24207D2BD49BD4C0834141B1825B4FB49
:10445000F5F006E0B8490839B74C141B1825B4FB31
:10446000F5F0042801D3091D001F03F03D04B44DED
:104470002D5CAC400C6030BD10B504463D2120469B
:10448000FFF7DAFF10BD70B502460C46002100238D
:104490000020A94DAA4208D2A84B083BA74D0835D9
:1044A000551B1826B5FBF6F106E0A34B103BA24DB9
:1044B000551B1826B5FBF6F1042901D31B1D091F56
:1044C00018689F4D6D5CE84000F03D0070BD2DE91F
:1044D000F04104463D212046FFF7AEFF9648844256
:1044E00009D296480830201A1821B0FBF1F50127AF
:1044F0009448465708E09048201A1821B0FBF1F57F
:1045000001279048083046573046FCF71AF82A46EB
:1045100039463046FBF7CAFF3046FCF705F82068FD
:1045200040F01E002060606940F080006061BDE8DE
:10453000F08170B504463D212046FFF77DFF7E489F
:10454000844208D27D480830201A1821B0FBF1F0CF
:104550007C490D5606E07848201A1821B0FBF1F08E
:1045600078490D562846FBF7ECFF206820F01E0026
:104570002060606900F08000606170BD70B5054624
:104580000C464CB100BF002084F8340000BF256009
:104590002046FCF70EF90FE06748854206D36A48CB
:1045A000006840F480006849086005E066480068DB
:1045B00040F400106449086070BD10B596B0044620
:1045C00000946846FCF735F916B010BD2DE9F041AE
:1045D00004460D4616461F4600BF002084F83400EE
:1045E00000BF3B46324629462046FCF76AF9BDE843
:1045F000F0817047704770477047704770B5044648
:104600003D212046FFF73FFF85B23D212046FFF7C1
:1046100013FF05F0200030B1206800F0100010B149
:104620002046FFF7E6FF05F0100030B1206800F0EB
:10463000080010B12046FFF7DDFF05F0080030B19B
:10464000206800F0040010B12046FFF7D4FF05F009
:10465000040030B1206800F0020010B12046FFF7DE
:10466000CBFF05F0010030B1606900F0800010B1AF
:104670002046FFF7C2FF70BD10B530480830FFF785
:10468000BDFF10BD10B52D482030FFF7B7FF10BD9E
:1046900010B52A483830FFF7B1FF10BD10B52748D4
:1046A0005030FFF7ABFF10BD10B524486830FFF75E
:1046B000A5FF10BD10B521488030FFF79FFF10BD4A
:1046C00010B51E489830FFF799FF10BD10B51B4874
:1046D000B030FFF793FF10BD10B51748FFF78EFFFE
:1046E00010BD10B514481830FFF788FF10BD10B585
:1046F00011483030FFF782FF10BD10B50E4848302A
:10470000FFF77CFF10BD10B50B486030FFF776FF58
:1047100010BD10B508487830FFF770FF10BD10B518
:1047200005489030FFF76AFF10BD10B50248A83069
:10473000FFF764FF10BD00001064024008600240F3
:104740008CE0000890E0000830380240FEF790FB53
:10475000FBF7B9FDFEF7A0FEFEF7AFFEFEF762FD28
:104760004FF4612200219D48FFF789FB9CA29FA185
:10477000A1A009F0B7F90021AA4808F093FBAA49C3
:1047800008600021A94808F08DFBA949086008F0DD
:1047900071FB00BFFEE710B50121A64805F0FFFC44
:1047A00008F039FF10BD02E0A24805F00EFBFBE760
:1047B00070B505460C4635B1062D08D0072D0CD036
:1047C0000A2D17D10FE09CA009F08CF913E02668A0
:1047D00031789EA009F086F90DE026683178A4A012
:1047E00009F080F907E0206806783146A9A009F0B1
:1047F00079F900E000BF00BF002070BD1CB5AFF22A
:104800004F024FF4E1318B4804F0B4FEA249087026
:1048100018B9A2A009F066F904E09F480178A7A0A2
:1048200009F060F9012000210B46ACA2CDE900108F
:10483000AEA1804806F081F89749087018B9AEA07B
:1048400009F050F904E094480178B1A009F04AF960
:10485000A6E0784800F0FEFCB848006900F00100CE
:1048600080F001000028F3D100BFB448006900F0D7
:10487000010080F001000028F7D0012211466D48A8
:1048800006F036FA84490870002871D1ACA009F00E
:1048900029F901206421B1A30022CDE90010B34918
:1048A000644806F010F97C49087000286DD1642234
:1048B000AAA1AFA009F016F901215E4806F043FA5B
:1048C00075490870002836D1AFA009F00BF9002413
:1048D00006E001230C22B2A1564806F066FA641CD9
:1048E000642CF6D3B2A009F0FDF800BF934800692C
:1048F00000F0010080F001000028F7D100BF8F48D0
:10490000006900F0010080F001000028F7D0AFA09E
:1049100009F0E8F80121474806F0A8FA5E49087056
:1049200018B9B1A009F0DEF804E05B480178B5A041
:1049300009F0D8F804E058480178BBA009F0D2F893
:10494000012200213B4806F0D3F953490870B0B961
:10495000BDA009F0C7F8012284480168354806F077
:104960002EF94D49087020B9BEA009F0BBF817E038
:1049700011E049480178C0A009F0B4F810E04648B9
:104980000178C6A009F0AEF80AE043480178CCA04F
:1049900009F0A8F804E040480178CFA009F0A2F897
:1049A00057E708B5C2B200920C4AD26802F400522E
:1049B0008AB100BF094A126802F08002002AF9D0C9
:1049C0009DF80020054B5A6000BF044A126802F0AF
:1049D0008002002AF9D000BF08BD0000001001408D
:1049E00031313A30313A3536000000004D617920DE
:1049F0003138203230313700455350383236362086
:104A0000636F6D6D616E6473207061727365723B6C
:104A100020436F6D70696C65643A2025732025739F
:104A20000D0A0000A0E00008D8000020B4E0000853
:104A3000DC000020E4020020537461636B20697382
:104A40002049444C45210D0A00000000436F6E6E62
:104A5000656374696F6E202564206A7573742062C3
:104A60006563616D6520616374697665210D0A0077
:104A7000436F6E6E656374696F6E20256420776185
:104A800073206A75737420636C6F736564210D0AFB
:104A90000000000025630000D00000204553502096
:104AA0006D6F64756C6520696E69742073756363DE
:104AB00065737366756C6C79210D0A00455350203F
:104AC000496E6974206572726F722E20537461741E
:104AD00075733A2025640D0A000000007769666945
:104AE0005F70617373776F72640000007769666945
:104AF0005F73736964000000436F6E6E6563746575
:104B00006420746F206E6574776F726B0D0A0000FD
:104B100050726F626C656D7320747279696E672074
:104B2000746F20636F6E6E65637420746F206E65A2
:104B300074776F726B3A2025640D0A000000024002
:104B40005472616E73706172656E74206D6F64650E
:104B500020656E61626C65640D0A00003139322E89
:104B60003136382E302E313036000000D40000208F
:104B7000436F6E6E656374656420746F2025733AAD
:104B80002564210D0A0000005472616E736665721F
:104B90002068617320737461727465640D0A00008B
:104BA000313233343536373839300D0A00000000E1
:104BB00057616974696E6720627574746F6E2070D6
:104BC000726573732E2E2E0D0A00000053746F70E1
:104BD00070696E67207472616E73666572206D6FA6
:104BE00064650D0A000000005472616E73666572A0
:104BF000206D6F64652064697361626C6564210D6A
:104C00000A0000004572726F722064697361626C01
:104C1000696E67207472616E73666572206D6F6471
:104C2000653A2025640D0A004661696C656420744C
:104C30006F207374617274207472616E7366657232
:104C40003A2025640D0A00004D6F64652073657479
:104C5000206261636B20746F206E6F726D616C0DEA
:104C60000A000000436F6E6E656374696F6E2063A7
:104C70006C6F7365640D0A004661696C656420742D
:104C80006F20636C6F736520636F6E6E656374690C
:104C90006F6E3A2025640D0A000000004661696CC1
:104CA000656420746F2073657420746F206E6F725A
:104CB0006D616C206D6F64653A2025640D0A0000FB
:104CC0004661696C656420746F20636F6E6E656306
:104CD000743A2025640D0A004661696C656420748D
:104CE0006F2073657420746F207472616E737061CD
:104CF00072656E74206D6F64653A2025640D0A003C
:104D0000704700BFFEE700BFFEE700BFFEE700BF41
:104D1000FEE77047704710B5FEF72BFB10BD000093
:104D20003F48006840F470003D4908603D48006815
:104D300040F001003B49086000203A490831086012
:104D40003848006838490840364908603748091D26
:104D50000860081F006820F48020091F08600020F8
:104D600030490C3108604FF000602D4980390860EF
:104D7000704770B500200022022300240221294D33
:104D800008352D6805F00C0020B1042806D008284D
:104D900034D107E0264D274E356033E0264D254EB1
:104DA00035602FE01F4D2D1D2D68C5F380541D4D1E
:104DB0002D1D2D6805F03F0154B11F4DB5FBF1F5D8
:104DC000184E361D3668C6F3881605FB06F209E054
:104DD000174DB5FBF1F5134E361D3668C6F3881630
:104DE00005FB06F20F4D2D1D2D68C5F301456D1C09
:104DF0006B00B2FBF3F50F4E356003E00C4D0D4E2A
:104E0000356000BF00BF074D08352D68C5F3031599
:104E10000A4E705D074D2D68C540064E356070BD69
:104E200088ED00E000380240FFFFF6FE103000245D
:104E30000024F400E000002000127A00C8E000081E
:104E400070B504460D4616460CB9012070BD1821F8
:104E5000204608F07EFD2560E6600A206074E06868
:104E600068B9284609F0D0F8E060E06818B9002079
:104E700020600120EAE7207C40F002002074207CC2
:104E800040F0010020740020E0E710B5044604B9AA
:104E900010BD207C00F0020010B1E06809F08CF831
:104EA00000202074206000BFF2E730B501460024E6
:104EB00009B9002030BD4A688B689A4201D10C685C
:104EC00006E0934201D99C1A02E0D51A0868441BF7
:104ED000601EEFE72DE9F0470446894615464FF07E
:104EE0000008CA4604B115B90020BDE8F087D4E92E
:104EF0000010884201D3002060602046FFF7D5FFF4
:104F00000746AF4203D20FB90020EEE73D46D4E991
:104F10000001461AAE4200D92E466268E168881840
:104F20003246514608F0FCFCB04460683044606092
:104F3000AD1B35B10AEB08012A46E06808F0F0FC29
:104F40006560D4E90010884201D30020606008EB5E
:104F50000500CAE72DE9F0430446884615464FF0A0
:104F60000009474604B115B90020BDE8F083D4E933
:104F70000010884201D3002060602168A068884248
:104F800001D30020A0602046FFF78FFF0646AE4207
:104F900003D20EB90020E8E73546681E07440FE04B
:104FA000A06818B92068401EA06002E0A068401EFA
:104FB000A06017F80109D4E90221885409F1010918
:104FC000281EA5F10105EBD14846CEE730B50146D4
:104FD00009B9002030BD4A688B689A4201D100248B
:104FE00006E09A4201D9D41A02E09D1A0868441BCF
:104FF0002046EFE72DE9F0470446894615464FF075
:105000000008CA4604B115B90020BDE8F087216840
:10501000A068884201D30020A0602046FFF7D6FF99
:105020000746AF4203D20FB90020EEE73D46A16824
:105030002068461AAE4200D92E46D4E902208118D3
:105040003246504608F06CFCB044A0683044A06082
:10505000AD1B35B10AEB08002A46E16808F060FC98
:10506000A5602168A068884201D30020A06008EBF9
:105070000500CAE730B5014609B9002030BD4B68CC
:105080008A6808681844801A0C68B0FBF4F504FBC1
:105090001500F3E700B9704700214160816000BF4F
:1050A000F9E72DE9F04104460F464FF000081CB91E
:1050B0004FF0FF30BDE8F0812046FFF787FF05463F
:1050C000A6680DE02068B04200D80026E068805D48
:1050D000B84201D14046EDE7761C6D1E08F101088B
:1050E000002DEFD1681EE5E72DE9F84F04468A460A
:1050F00090464FF0000900200090D3462CB1204686
:10510000FFF764FF0646404503D24FF0FF30BDE88D
:10511000F88FA5682DE02068A84200D80025E06837
:10512000405D9BF80010884201D1012000906D1C69
:10513000761E09F101090098D8B101270FE0206817
:10514000A84200D80025E068405D1BF8071088429F
:1051500002D0781E814406E06D1C761E7F1C4745F8
:1051600001D2002EEBD100BF474502D1A9F10100C9
:10517000CDE7002ECFD1701EC9E770B505460C46AD
:10518000204608F0FDFB0646324621462846FFF73A
:10519000A1FE70BD2DE9F84306460D4617460024D2
:1051A00016B90020BDE8F8833046FFF77EFE814641
:1051B0003046FFF70BFF8046B8F1000F0AD0717C34
:1051C0003046FFF76EFF002806DAB9F1000F03D072
:1051D000B84501D20020E5E70DE0012269463046DE
:1051E000FFF708FF9DF800002855285D717C884274
:1051F00000D103E0641C781EA042EED800BF781EE8
:10520000A04202D10020285503E00021601C044682
:1052100029542046C6E770B503460C4615460022C1
:105220000BB9002070BD5E68996805E0491C521CEE
:105230001868884200D80021A24201D28E42F5D1DE
:10524000A24204D1D868405C28700120EAE700201F
:10525000E8E7000070B504460026A08978B994F804
:10526000AC00C0F3400050B114F8AC0F20F00200C5
:105270002070A268AC3C04F1B80100209047A089DE
:1052800078B994F8B00000F0010050B114F8B00FF4
:1052900020F0010020706268B03C04F1B8010220E7
:1052A0009047A08978B994F8B000C0F3400050B19D
:1052B00014F8B00F20F0020020706268B03C04F1D6
:1052C000B80103209047A08978B994F8B000C0F3E2
:1052D000800050B114F8B00F20F004002070626814
:1052E000B03C04F1B8010420904700267EE004F1B0
:1052F000780000EB4615A089D0B994F8AC00C0F353
:105300004000A8B9687FC0F3001088B1687F20F022
:1053100010006877C4F8B850BC20E9680151298AA8
:10532000C0200151D4F8B42004F1B8010120904705
:10533000A089A0B994F8AC00C0F3400078B9687FA8
:10534000C0F3800058B1687F20F004006877C4F88B
:10535000B850D4F8B42004F1B80108209047A089CF
:10536000A0B994F8AC00C0F3400078B9687FC0F3EE
:10537000C00058B1687F20F008006877C4F8B850C2
:10538000D4F8B42004F1B80109209047A089A0B94D
:1053900094F8AC00C0F3400078B9687F00F00100D9
:1053A00058B1687F20F001006877C4F8B850D4F88D
:1053B000B42004F1B80106209047A089A0B994F860
:1053C000AC00C0F3400078B9687FC0F3400058B12A
:1053D000687F20F002006877C4F8B850D4F8B42091
:1053E00004F1B80107209047701CC6B2002E3FF4AC
:1053F0007EAF00BF0020207170BD70B504460D4621
:10540000E56100BF2046FFF725FFA0890028F9D1FC
:1054100094F8AC00C0F340000028F3D100BF207E18
:105420002071207E70BD2DE9F04104460F461546DF
:10543000E56157B994F8AC0020F0010084F8AC00A5
:1054400000BF00202071BDE8F08194F8AC0020F08E
:105450000100401C84F8AC0029462046FFF7CDFF30
:105460000646062E00D1EEE7267E00202076304646
:10547000E9E70246002070470146302905DB39295B
:1054800003DCA1F13000C0B27047612905DB662959
:1054900003DCA1F15700C0B2F6E7412905DB46293C
:1054A00003DCA1F13700C0B2EEE70020ECE770B5F5
:1054B000024600250024002310782D2803D1012561
:1054C000521C601CC4B207E0107830380A2603FB77
:1054D0000603521C601CC4B21078302802DB10781E
:1054E0003928F1DD01B10C700DB1584270BD18467C
:1054F000FCE72DE9F04104460D460026002707E0B1
:1055000036012078FFF7B8FF0644641C781CC7B248
:105510002078302802DB20783928F1DD20786128D6
:1055200002DB20786628EBDD2078412802DB20783A
:105530004628E5DD05B12F703046BDE8F0812DE944
:10554000F04180460C4615461E46062706E000211F
:105550002046FFF7CEFF05F8010BE41C381EA7F12B
:105560000101CFB2F3D10EB111203070BDE8F0814E
:105570002DE9F84380460D4616461C4604270020B8
:10558000009004B1207013E069462846FFF78FFFB2
:1055900006F8010B9DF80000401C054444B120783A
:1055A0009DF800100844207017B12078401C20702E
:1055B000381EA7F10101CFB2E6D1BDE8F883F8B5F6
:1055C00006460C4615462078282800D1641C222166
:1055D000284608F0BEF969462046FFF768FF2870A4
:1055E0009DF80000401C04442078222800D1641C4F
:1055F0000020009015E02078222803D160782C2824
:1056000000D111E09DF80000142804D22178681C14
:105610009DF8002081549DF80000401CC0B200900D
:10562000641C20780028E6D100BFA41C69462046EF
:10563000FFF73DFF00B2E8829DF80000401C0444E3
:105640002078222800D1641C002305F1180221468D
:105650003046FFF774FF133469462046FFF727FFF3
:10566000A8779DF80000401C044469462046FFF7D7
:105670001EFF40B2E8779DF80000401C04446946D4
:105680002046FFF714FF85F820009DF80000401C1D
:105690000444F8BDF8B507460C46154600E0641C06
:1056A000207810B120782228F9D1207800B9F8BDEF
:1056B000641C002605E014F8012B3046711CCEB2A4
:1056C0002A54207840B120782228F4D160782C2800
:1056D000F1D1A0782228EED100223046711CCEB242
:1056E0002A54E41C002305F1150221463846FFF731
:1056F00026FF133469462046FFF7D9FEE8769DF869
:105700000000401C044469462046FFF7D0FE00B26A
:10571000A88300BFCBE7F8B506460C4615466B4696
:105720002A4621463046FFF723FF9DF80000401C23
:1057300004446B462A1D21463046FFF700FFF8BDA2
:10574000F8B506460D461446002020606060A06053
:1057500006F17800606069462846FFF7A8FE2081C0
:10576000F8BDF8B507460C4615462C21284608F02A
:10577000F0F8002605E014F8012B3046711CCEB27B
:105780002A54207840B120782228F4D160782C283F
:10579000F1D1A0782228EED100223046711CCEB281
:1057A0002A54E41C002607E014F8012B3046711C33
:1057B000CEB205F114010A54207828B120782228AD
:1057C000F2D160782C28EFD100223046711CCEB285
:1057D00005F114010A54A41C69462046FFF767FE30
:1057E000283568709DF80000401C04446946204636
:1057F000FFF75DFE28709DF80000401C04446946D8
:105800002046FFF754FEA8709DF80000401C044499
:1058100069462046FFF74BFEE870283DF8BD2DE9AC
:10582000F843054688461446002698F800000121F2
:10583000B140084388F80000A41C00E0641C2078F4
:1058400010B120782C28F9D1641C641C002710E0CA
:1058500069462046FFF72BFEC1B205F1780000EB48
:105860004610001DC1559DF80000401C0444781CE2
:10587000C7B2042FECDB641C69462046FFF717FE15
:1058800081B205F1780000EB461041809DF80000E0
:10589000401C044469462046FFF709FE81B205F129
:1058A000780000EB461001819DF80000401C044484
:1058B0002078303808B9012000E0002005F1780197
:1058C00001EB4611097F60F3410105F1780000EB1F
:1058D00046100177BDE8F883034699811A6118687C
:1058E00058610020187643F20100814202D1002065
:1058F00083F899000020704770B505460C46224693
:10590000FEA1284608F0FEF870BD70B505460C46AD
:105910002246FBA1284608F0F5F870BD38B50446CC
:105920005C2000901DE020782C2805D020782228CB
:1059300002D020785C2809D100BFF349C1F800D01B
:10594000012088808A1D05F083FB00BF00BFEE4860
:105950000460641C0120EC4988808A1D05F078FBF6
:1059600000BF20780028DED138BD2DE9F05F044665
:10597000894609F101054FF00008C24699F8006018
:1059800028780D2804D168780A2801D1BDE8F09F55
:10599000DEA1284607F0FBFF08B9012000E0002047
:1059A0008046B8F1000F14D1DAA1284607F0EFFFC6
:1059B00008B9012000E000208246BAF1000F08D1AA
:1059C000D6A1284607F0E3FF08B9012000E0002037
:1059D0008246B8F1000F0ED1BAF1000F0BD1D2A15F
:1059E000284607F0D4FF30B994F8C40020F008002E
:1059F000083084F8C400A08941F20301884246D1EE
:105A00002878412802D02878612812D1C848006837
:105A100078B10D2E0DDDA6F10D02C549086805F11E
:105A20000B0107F0A1FF0021C1480268A6F10D009B
:105A300011542878532802D02878732810D1BC48F4
:105A4000406868B1A6F10E02B949486805F10C0139
:105A500007F08AFF0021B6484268A6F10E001154F3
:105A60002878432802D02878632810D1B04880686D
:105A700068B1A6F10F02AE49886805F10D0107F083
:105A800073FF0021AA488268A6F10F001154A08973
:105A900042F20B01884219D128782B2816D10A220C
:105AA000A4A1284607F081FF80B9002304F1340245
:105AB00005F110012046FFF742FD9D48C06828B15E
:105AC0009B48C068616B0160218F8180A08942F290
:105AD0000C0188421BD128782B2818D1092298A1C3
