:020000040800F2
:1000000020EA0020690200081D210008C120000824
:1000100019210008890500087D5C00080000000027
:10002000000000000000000000000000AD0100081A
:100030008D0600080000000001020008755100084C
:10004000830200088302000883020008830200087C
:10005000830200088302000883020008830200086C
:100060008302000883020008830200088D0500084F
:100070009D050008AD050008BD050008CD05000878
:10008000DD050008ED0500088302000800000000FF
:1000900000000000000000000000000083020008D3
:1000A000830200088302000883020008830200081C
:1000B000830200088302000883020008830200080C
:1000C00083020008830200088302000883020008FC
:1000D00083020008015C0008255C000800000000A5
:1000E0008302000883020008830200080000000069
:1000F000000000000000000000000000FD050008F6
:100100000000000083020008830200088302000848
:1001100000000000000000000000000000000000DF
:100120000D0600081D0600082D0600083D06000803
:100130004D06000800000000000000000000000064
:100140000000000000000000000000008302000822
:100150005D0600086D0600087D060008515C000879
:100160008302000883020008000000000000000075
:10017000000000000000000000000000000000007F
:1001800000000000830200080000000000000000E2
:100190008302000883020008DFF80CD000F0F0F8BA
:1001A00000480047A161000820EA00202B4B196895
:1001B0000868B0E8F04F80F30988BFF36F8F4FF005
:1001C000000080F3118870470000000006480068B6
:1001D000006880F3088862B661B6BFF34F8FBFF343
:1001E0006F8F00DF00BF00BF08ED00E0DFF80C00FC
:1001F000016841F470010160704700BF88ED00E0C4
:10020000EFF30980BFF36F8F144B1A681EF0100FC5
:1002100008BF20ED108A20E9F04F106008B44FF0BD
:10022000500080F31188BFF34F8FBFF36F8F06F03C
:1002300027FD4FF0000080F3118808BC196808689A
:10024000B0E8F04F1EF0100F08BFB0EC108A80F33A
:100250000988BFF36F8F704700BF00BF8000002088
:10026000EFF30580704700000648804706480047C6
:10027000FEE7FEE7FEE7FEE7FEE7FEE7FEE7FEE756
:10028000FEE7FEE77D5100089901000840EA0103FE
:100290009B0703D009E008C9121F08C0042AFAD23C
:1002A00003E011F8013B00F8013B521EF9D2704700
:1002B000D2B201E000F8012B491EFBD270470022A8
:1002C000F6E710B513460A4604461946FFF7F0FF55
:1002D000204610BD421C10F8011B0029FBD1801ADA
:1002E000704710B5002200E0521C835C8C5CA34276
:1002F00001D1002BF8D1D8B2E1B2401A10BD30B50F
:1003000005460020034600E05B1C934205D2EC5CEE
:10031000C85C201A01D1002CF6D130BD2DE9F05F68
:100320000546002092469B46884606468146402464
:100330001BE0284641464746224600F042F8534615
:100340005A46C01A914110D311461846224600F071
:1003500029F82D1A67EB01084F462246012000219B
:1003600000F020F817EB00094E41201EA4F1010413
:10037000DFDC484631462A464346BDE8F09F000090
:10038000064C074D06E0E06840F0010394E80700E2
:1003900098471034AC42F6D3FFF702FF8C76000882
:1003A000AC760008202A04DB203A00FA02F1002093
:1003B00070479140C2F1200320FA03F319439040A3
:1003C0007047202A04DB203A21FA02F0002170470E
:1003D00021FA02F3D040C2F12002914008431946AD
:1003E000704730B50146002409B9002030BD4A6885
:1003F0008B689A4200D10C68934200D99C1A9A42A9
:1004000002D9D51A0868441B601EEFE730B50346D1
:100410000BB9002030BD59689A68914200D1002480
:10042000914200D98C1A8A4202D9551A1868441B85
:100430002046EFE770B504460D4616460CB901207C
:1004400070BD18212046FFF73AFF2560E6600A20BC
:100450006074E06868B9284605F0FCFEE060E0687A
:1004600018B9002020600120EAE7207C40F002005B
:100470002074207C40F0010020740020E0E72DE98A
:10048000F0470446884615464FF0000904B115B9F7
:100490000020BDE8F0872168A068884201D30020D1
:1004A000A0602046FFF7B2FF0746AF4203D20FB964
:1004B0000020EEE73D46A1682068461AAE4200D90A
:1004C0002E46D4E90220811832464046FFF7DEFE70
:1004D000B144A0683044A060AD1B35B108EB090001
:1004E0002A46E168FFF7D2FEA5602168A06888422D
:1004F00001D30020A06009EB0500CAE700B97047EE
:1005000000214160816000BFF9E72DE9F047044612
:10051000894615464FF0000804B115B90020BDE822
:10052000F087D4E90010884201D3002060602046A3
:10053000FFF757FF0746AF4203D20FB90020EEE79F
:100540003D46D4E90001461AAE4200D92E46626803
:10055000E168881832464946FFF798FEB044606863
:1005600030446060AD1B35B109EB08012A46E068F4
:10057000FFF78CFE6560D4E90010884201D30020AB
:10058000606008EB0500CAE700BFFEE710B502484F
:1005900004F011FF10BD00001060024010B50248C9
:1005A00004F009FF10BD00002860024010B50248A9
:1005B00004F001FF10BD00004060024010B5024889
:1005C00004F0F9FE10BD00005860024010B502486A
:1005D00004F0F1FE10BD00007060024010B502484A
:1005E00004F0E9FE10BD00008860024010B502482A
:1005F00004F0E1FE10BD0000A060024010B502480A
:1006000004F0D9FE10BD0000B860024010B50248E9
:1006100004F0D1FE10BD00001064024010B5024885
:1006200004F0C9FE10BD00002864024010B5024865
:1006300004F0C1FE10BD00004064024010B5024845
:1006400004F0B9FE10BD00005864024010B5024825
:1006500004F0B1FE10BD00007064024010B5024805
:1006600004F0A9FE10BD00008864024010B50248E5
:1006700004F0A1FE10BD0000A064024010B50248C5
:1006800004F099FE10BD0000B864024070470000FD
:1006900070B504460D461CB903A005F0F1FA00E060
:1006A00000BF00BF002070BD537461636B2069738D
:1006B0002049444C45210D0A00000000024600205C
:1006C000704700002DE9F04104460F461546984654
:1006D00000BF25B900BF04202071BDE8F08100BF34
:1006E00000BFA08920B994F8E800C0F3400018B119
:1006F00000BF09202071F0E700BF00BF04F1240013
:1007000000F0CAFD08B10620E7E7A08908B9206813
:10071000606143F20200A08100BF13480760C5601A
:1007200000BFB8F1000F09D194F8E80020F00100F3
:1007300084F8E80000BF00202071CEE794F8E800BC
:1007400020F00100401C84F8E80042F210712046BD
:1007500000F016FF0646062E00D1BEE7267E0020DA
:1007600020763046B9E700005C07002070B50446EB
:100770000D462A4621460348FFF7C7FE0646B0B29B
:1007800070BD0000C00200202DE9F04104460F4674
:1007900016463225DFF8F883FE4804604FF4827174
:1007A0002046FFF78CFDC4F8F06016B9FA48C4F88B
:1007B000F00000BF002000BF09E0F84A00EB800312
:1007C00004F1780101EB8301CA60411CC8B205281D
:1007D000F3DB00BF00202060F14A40F2FF314046C9
:1007E000FFF728FEA76004F1080000F0E7FA20B147
:1007F00000BF02202071BDE8F08104F1240000F068
:100800002DFD18B100BF03202071F4E700BF0020C8
:10081000E4490880E4490880E449088000BF94F86E
:10082000E80020F00100401C84F8E8004FF47A70E2
:10083000E06136E000BF04F1240000F02DFD08B1B6
:100840000620D8E7A08908B92068606141F202005B
:10085000A08100BFE169204600F092FE00BF04F1D4
:10086000240000F00BFD0020A08100BFCD490880CE
:10087000CD490880CD49088000BF94F8E80000F019
:10088000010030B994F8E80020F00200801C84F8E0
:10089000E8001C21C648FFF712FD00BF207E00B90A
:1008A00003E0281EA5F10105C4D100BF6420E0616A
:1008B00036E000BF04F1240000F0EEFC08B1062091
:1008C00099E7A08908B92068606141F20100A08120
:1008D00000BFE169204600F053FE00BF04F1240090
:1008E00000F0CCFC0020A08100BFAE490880AE49DA
:1008F0000880AE49088000BF94F8E80000F00100CD
:1009000030B994F8E80020F00200801C84F8E80078
:100910001C21A748FFF7D3FC00BF207E00B903E0ED
:10092000281EA5F10105C4D100BF39E000BF04F1C4
:10093000240000F0B1FC08B106205CE7A08908B9EA
:100940002068606142F20100A08100BF0320984945
:100950008861E169204600F013FE00BF04F1240025
:1009600000F08CFC0020A08100BF8E4908808E49D9
:1009700008808E49088000BF94F8E80000F001006C
:1009800030B994F8E80020F00200801C84F8E800F8
:100990001C218748FFF793FC00BF207E00B903E0CD
:1009A000281EA5F10105C1D100BF39E000BF04F147
:1009B000240000F071FC08B106201CE7A08908B9EA
:1009C0002068606143F20D00A08100BF01207849DA
:1009D0008861E169204600F0D3FD00BF04F12400E6
:1009E00000F04CFC0020A08100BF6E4908806E49D9
:1009F00008806E49088000BF94F8E80000F001000C
:100A000030B994F8E80020F00200801C84F8E80077
:100A10001C216748FFF753FC00BF207E00B903E0AC
:100A2000281EA5F10105C1D100BF39E000BF04F1C6
:100A3000240000F031FC08B10620DCE6A08908B9EA
:100A40002068606143F21400A08100BF0120584972
:100A50008861E169204600F093FD00BF04F12400A5
:100A600000F00CFC0020A08100BF4E4908804E49D8
:100A700008804E49088000BF94F8E80000F00100AB
:100A800030B994F8E80020F00200801C84F8E800F7
:100A90001C214748FFF713FC00BF207E00B903E08C
:100AA000281EA5F10105C1D100BF39E000BF04F146
:100AB000240000F0F1FB08B106209CE6A08908B9EB
:100AC0002068606142F20110A08100BF0120384916
:100AD0008861E169204600F053FD00BF04F1240065
:100AE00000F0CCFB0020A08100BF2E4908802E49D9
:100AF00008802E49088000BF94F8E80000F001004B
:100B000030B994F8E80020F00200801C84F8E80076
:100B10001C212748FFF7D3FB00BF207E00B903E06C
:100B2000281EA5F10105C1D100BF4DE000BF04F1B1
:100B3000240000F0B1FB08B106205CE6A08908B9EA
:100B40002068606142F20210A08100BF01201849B4
:100B50008861E169204600F013FD00BF04F1240024
:100B600000F08CFB0020A08100BF0E4908800E49D8
:100B700008800E49088000BF94F8E80000F00100EA
:100B8000D0B994F8E80020F00200801C12E00000C8
:100B9000C002002060000020BD0600087807002089
:100BA000D8020020640000206600002068000020B9
:100BB0005C07002084F8E8001C217C48FFF77FFBDD
:100BC00000BF207E00B903E0281EA5F10105ADD1CC
:100BD00000BF39E000BF04F1240000F05DFB08B164
:100BE000062008E6A08908B92068606142F2031077
:100BF000A08100BF01206D498861E169204600F0B5
:100C0000BFFC00BF04F1240000F038FB0020A081ED
:100C100000BF67490880674908806749088000BFAE
:100C200094F8E80000F0010030B994F8E80020F0F2
:100C30000200801C84F8E8001C215C48FFF73FFBA1
:100C400000BF207E00B903E0281EA5F10105C1D137
:100C500000BF39E000BF04F1240000F01DFB08B123
:100C60000620C8E5A08908B92068606142F2041036
:100C7000A08100BF01204D498861E169204600F054
:100C80007FFC00BF04F1240000F0F8FA0020A081EE
:100C900000BF47490880474908804749088000BF8E
:100CA00094F8E80000F0010030B994F8E80020F072
:100CB0000200801C84F8E8001C213C48FFF7FFFA82
:100CC00000BF207E00B903E0281EA5F10105C1D1B7
:100CD00000BF36E000BF04F1240000F0DDFA08B1E7
:100CE000062088E5A08908B92068606142F20910F1
:100CF000A08100BFE169204600F042FC00BF04F182
:100D0000240000F0BBFA0020A08100BF2849088021
:100D1000284908802849088000BF94F8E80000F0BE
:100D2000010030B994F8E80020F00200801C84F83B
:100D3000E8001C211D48FFF7C2FA00BF207E00B961
:100D400003E0281EA5F10105C4D100BF00BF04F1D6
:100D5000240000F093FA0020A08100BF144908800D
:100D6000144908801449088000BF94F8E80000F096
:100D7000010030B994F8E80020F00200801C84F8EB
:100D8000E8001C210948FFF79AFA00BF14F8E80FA1
:100D900020F001002070207820F0020004F8E8091B
:100DA00000BF207E2071207E25E500005C0700202A
:100DB0006400002066000020680000201CB5044686
:100DC00000210748226804F0B9FD002001210346F4
:100DD0000A46CDE90010034804F09CFB00201CBD2E
:100DE000001001400000024070B506460C46154652
:100DF0002A462146024804F0DAFD002070BD0000BA
:100E0000001001400246012903D10804034B9861F8
:100E100002E00120014B9861002070470000024071
:100E20001CB5254A4FF4E1312448FFF7ADFC2449B5
:100E3000087018B923A004F023FF04E020480178CB
:100E400028A004F01DFF012000210B462DA2CDE9B2
:100E5000001031A1194800F09DF91949087018B91E
:100E600031A004F00DFF04E01548017834A004F02F
:100E700007FF1FE0114800F0B7F804F01FFA002840
:100E800018D00123394A3AA10C48FFF71BFC0C4942
:100E9000087050B93548C07800903448837842785B
:100EA000017836A004F0ECFE04E0054801783FA08C
:100EB00004F0E6FEDEE7000091060008BC01002019
:100EC00048000020455350206D6F64756C652069A3
:100ED0006E6974207375636365737366756C6C7982
:100EE000210D0A0045535020496E697420657272C5
:100EF0006F722E205374617475733A2025640D0A45
:100F0000000000006D616A65726C655F696E7465F2
:100F1000726E6574000000004D616A65726C652038
:100F20005769466900000000436F6E6E6563746523
:100F30006420746F206E6574776F726B0D0A000009
:100F400050726F626C656D7320747279696E672080
:100F5000746F20636F6E6E65637420746F206E65AE
:100F600074776F726B3A2025640D0A0049000020E7
:100F70006578616D706C652E636F6D0057652068D4
:100F8000617665206578616D706C652E636F6D208C
:100F9000646F6D61696E2049503A2025642E256486
:100FA0002E25642E2564210D0A00000050726F6208
:100FB0006C656D7320747279696E6720746F206739
:100FC0006574204950206164647265737320776989
:100FD000746820444E532066756E6374696F6E3A70
:100FE0002025640D0A00000070B504460026A08983
:100FF00078B994F8E800C0F3400050B114F8E80F55
:1010000020F002002070A268E83C04F1F401002006
:101010009047A08978B994F8EC0000F0010050B135
:1010200014F8EC0F20F0010020706268EC3C04F131
:10103000F40102209047A08978B994F8EC00C0F33D
:10104000400050B114F8EC0F20F0020020706268EC
:10105000EC3C04F1F40103209047A08978B994F89E
:10106000EC00C0F3800050B114F8EC0F20F0040045
:1010700020706268EC3C04F1F401042090470026E3
:1010800080E006EB860104F1780000EB8105A08981
:10109000D0B994F8E800C0F34000A8B9E87CC0F3E8
:1010A000001088B1E87C20F01000E874C4F8F45017
:1010B000F820E9680151298AFC200151D4F8F02078
:1010C00004F1F40101209047A089A0B994F8E80048
:1010D000C0F3400078B9E87CC0F3800058B1E87CE8
:1010E00020F00400E874C4F8F450D4F8F02004F1BF
:1010F000F40108209047A089A0B994F8E800C0F353
:10110000400078B9E87CC0F3C00058B1E87C20F01A
:101110000800E874C4F8F450D4F8F02004F1F401A5
:1011200009209047A089A0B994F8E800C0F34000D6
:1011300078B9E87C00F0010058B1E87C20F00100AB
:10114000E874C4F8F450D4F8F02004F1F401062057
:101150009047A089A0B994F8E800C0F3400078B99E
:10116000E87CC0F3400058B1E87C20F00200E8744D
:10117000C4F8F450D4F8F02004F1F40107209047AB
:10118000701CC6B2052EFFF47CAF00BF002020719A
:1011900070BD00002DE9F04704460D4616469846FE
:1011A000DDE9089A00BF05B126B900BF042020710F
:1011B000BDE8F08700BF00BFA08920B994F8E8001F
:1011C000C0F3400018B100BF09202071F0E700BF54
:1011D00000BF04F1240000F05FF808B10620E7E743
:1011E000A08908B92068606142F20200A08100BFB6
:1011F000B9F1000F01D016A000E016A01649086052
:10120000084645608660C0F80C8000BFBAF1000F48
:1012100009D194F8E80020F0010084F8E80000BF4C
:1012200000202071C4E794F8E80020F00100401C81
:1012300084F8E80047F23051204600F0A1F9074653
:10124000062F00D1B4E7277E002020763846AFE78E
:1012500044454600435552005C07002010B5044643
:10126000204605F032F8044908600846006808B9CD
:10127000012010BD0020FCE77C00002010B50446D2
:101280000448006805F028F808B1012010BD0020CE
:10129000FCE700007C00002010B504464FF47A7192
:1012A0000448006805F040F808B1012010BD002096
:1012B000FCE700007C000020F8B50446A04D4FF488
:1012C000FA76A08960B120686169401AE1698842B4
:1012D00006D994F8000120F00200801C84F8000177
:1012E00020E194F8DC0000287ED0E420005B002898
:1012F000FAD0A089B0B900BF04F12400FFF7CCFFF9
:1013000008B10620F8BDA08908B92068606143F2E1
:101310001500A08100BF94F8E80020F00100401CF7
:1013200084F8E8009DF80010E0200059C268E6202B
:10133000005B1154E620005B401C81B2E6200153A3
:10134000E420005B401E81B2E4200153005B38BB07
:10135000002084F8DC00A08943F2150188421FD1E7
:1013600000BF04F12400FFF789FF0020A08100BF27
:1013700074490880744908807449088000BF94F853
:10138000E80000F0010030B994F8E80020F0020015
:10139000801C84F8E8001C216D48FEF790FF00BF18
:1013A000E620005B40F2B351884203DAE420005BA0
:1013B000002836D1E0200059C4F8F400E02000599C
:1013C000C168F8200151E620015BE020005901824C
:1013D000E620015BFC200151E420005B30B9E420F1
:1013E000005B90B9A08900E01CE070B9D4F8F0204F
:1013F00004F1F40101209047E021095901F11300A3
:10140000C97C21F01001017008E0E021095901F1C7
:101410001300C97C21F01001103101700021E62079
:10142000015377E09DF80000202803DB9DF80000C1
:101430007E2807DD9DF800000D2803D09DF80000F0
:101440000A2861D19DF800000A281BD100BF9DF831
:101450000010404802780078401C3E4B1870581C21
:1014600081540021401E0278401C815400BF411E5F
:10147000204603F069FB00BF002036490870487021
:1014800000BF40E09DF8000020280ED132480078CF
:101490003E280AD1314800780A2806D194F8000184
:1014A00020F00400001D84F8000100BF9DF800102A
:1014B000284802780078401C264B1870581C81542C
:1014C0000021401E0278401C815400BF9DF800009E
:1014D0003A2817D118460078042813DD18464078BA
:1014E0002B280FD104221EA1581CFEF708FF48B973
:1014F0001849204603F028FB00BF0020154908705A
:10150000487000BF00BF05E000BF0020114908700F
:10151000487000BF10480078104908709DF800001E
:101520000D4908703EB1012269462846FEF7A7FF23
:1015300000287FF4D6AE204603F0E4FDE2E600008A
:10154000C002002064000020660000206800002027
:101550005C070020D80600207800002079000020D9
:101560002B4950440000000002680A4402607047A2
:1015700002E00248FFF7A0FEFBE70000BC010020EC
:1015800070B504460D46E56100BF2046FFF72CFD0F
:10159000A0890028F9D194F8E800C0F340000028A1
:1015A000F3D100BF207E2071207E70BD38B5044687
:1015B0005C20009017E020782C2805D02078222885
:1015C00002D020785C2806D10122694608480068CC
:1015D0000830FFF709FC2146641C0122044800681A
:1015E0000830FFF701FC20780028E4D138BD000066
:1015F00060000020014800687047000004000020DF
:1016000010B52E480068401C2C4908602C48006822
:1016100020B12B480068401E29490860002444E09E
:10162000284850F8240000283DD0264850F82400CF
:101630000078C0F34000B0B3224850F8240080681E
:1016400040B1204850F824008068401E1D4951F8E0
:10165000241088601B4850F82400806818BB194B80
:1016600053F824301969174B53F8240053F82430E9
:10167000DA689047134850F824004168114850F840
:10168000240081600F4850F82400007800F0010029
:1016900048B90C4850F82400007820F002010948AD
:1016A00050F824000170601CC4B20648001F007886
:1016B000A042B5DC03F0C6FD10BD00000400002010
:1016C000000000200801002010B50D48006840F41B
:1016D00000700B4908600846006840F480600860AC
:1016E0000846006840F480700860032000F086F827
:1016F0000F2000F007F800F017F8002010BD0000E0
:10170000003C024070B5044600F0E4F94FF47A71F1
:10171000B0FBF1F5284600F081FC00222146501E66
:1017200000F02DF8002070BD7047000000BF00F0F1
:101730001F0201219140034A430942F8231000BFD0
:101740007047000080E200E000BF00F01F020121AE
:101750009140034A430942F8231000BF704700003C
:1017600080E100E000BF00F01F020121914042092A
:10177000920002F1E022C2F8001100BF70472DE98B
:10178000F05F80460D461646002700F0C9FC07466C
:1017900039462A46334601F00700C0F1070ABAF17C
:1017A000040F02D94FF0040A01E0C0F1070AD14644
:1017B00000F1040ABAF1070F02D24FF0000A01E06B
:1017C000A0F1030AD4464FF0010A0AFA09FAAAF175
:1017D000010A0AEA020A0AFA0CFA4FF0010B0BFAA4
:1017E0000CFBABF1010B0BEA030B4AEA0B0421469D
:1017F000404600F09DFCBDE8F09F000000BF00F0F7
:101800000702064B19684FF6FF031940044B0B43C0
:1018100043EA0221014B196000BF70470CED00E064
:101820000000FA0570B504460E460025A74800687A
:1018300000F00F00B0426FD2A4490E700846006855
:1018400000F00F00B04201D0012070BD207800F000
:101850000200022807D19E48006820F0F000A1682D
:1018600008439B490860207800F0010000283ED022
:101870006068012807D1964808380068C0F34040E6
:10188000B8B90120E1E76068022802D06068032847
:1018900007D18F4808380068C0F3406048B901207C
:1018A000D3E78B4808380068C0F3400008B901202E
:1018B000CBE78748006820F003006168084384494B
:1018C0000860FFF797FE05466068012810D108E020
:1018D000FFF790FE401B41F28831884201D9032076
:1018E000B3E77B48006800F00C000428F0D1CDE09D
:1018F0006068022811D108E0FFF77CFE401B41F22E
:101900008831884201D903209FE77148006800F0C0
:101910000C000828F0D1B9E024E06068032810D159
:1019200008E0FFF767FE401B41F28831884201D989
:1019300003208AE76648006800F00C000328F0D115
:10194000A4E008E0FFF756FE401B41F288318842D0
:1019500001D9032079E75E48006800F00C000028F8
:10196000F0D193E0207800F00200022807D1584817
:10197000006820F0F000A16808435549086020780D
:1019800000F00100002877D06068012807D1504896
:1019900008380068C0F34040B8B9012055E76068D6
:1019A000022802D06068032807D149480838006837
:1019B000C0F3406048B9012047E74548083800684F
:1019C000C0F3400008B901203FE74148006820F01B
:1019D0000300616808433E490860FFF70BFE0546B7
:1019E0006068012810D108E0FFF704FE401B41F2B7
:1019F0008831884201D9032027E73548006800F084
:101A00000C000428F0D137E06068022810D108E00B
:101A1000FFF7F0FD401B41F28831884201D90320D5
:101A200013E72B48006800F00C000828F0D123E0F1
:101A30006068032810D108E0FFF7DCFD401B41F28D
:101A40008831884201D90320FFE62148006800F070
:101A50000C000328F0D10FE008E0FFF7CBFD401B9E
:101A600041F28831884201D90320EEE61848006827
:101A700000F00C000028F0D114490E7008460068F0
:101A800000F00F00B04201D00120DEE6207800F027
:101A90000400042807D10E48006820F4E050E168F3
:101AA00008430B490860207800F00800082808D196
:101AB0000748006820F46040216940EAC1000449F9
:101AC00008600F20FFF71EFE0020BEE6003C02402B
:101AD0000838024010B500F045F80949096801F0DE
:101AE000F001F02292FAA2F2B2FA82F2D140054A53
:101AF000515CC840044908600846006810BD0000F9
:101B000008380240EC7500085C00002010B5FFF7B3
:101B1000E1FF0749096801F4E0514FF4E05292FAFD
:101B2000A2F2B2FA82F2D140024A515CC84010BD22
:101B300008380240EC75000810B5FFF7CBFF0749E5
:101B4000096801F460414FF4604292FAA2F2B2FADD
:101B500082F2D140024A515CC84010BD08380240B0
:101B6000EC75000870B50021002200230020274CEE
:101B7000246804F00C0424B1042C04D0082C41D1B6
:101B800003E0234840E023483EE0204C241F246823
:101B900004F03F011D4C241F246804F4800484B128
:101BA0001C4CB4FBF1F5194C241F246847F6C07691
:101BB000344096FAA6F6B6FA86F6F44005FB04F22F
:101BC0000FE0134CB4FBF1F5104C241F246847F6CA
:101BD000C076344096FAA6F6B6FA86F6F44005FBCF
:101BE00004F20A4C241F246804F440344FF44035B6
:101BF00095FAA5F5B5FA85F5EC40641C6300B2FBD7
:101C0000F3F001E0024800BF00BF70BD0838024099
:101C10000024F40000127A0038B50446002520782C
:101C200000F00100002866D0F648006800F00C00C3
:101C300004280DD0F348006800F00C00082813D1E8
:101C4000F048001F006800F48000B0F5800F0BD151
:101C5000EC4808380068C0F3404000284BD060686A
:101C6000002848D1012038BD0020E649891F0870AE
:101C7000FFF7C0FC054608E0FFF7BCFC401B41F243
:101C80008831884201D90320EDE7DE480838006832
:101C9000C0F340400028EFD12079DA49891F08704D
:101CA0006068A0B1FFF7A6FC054608E0FFF7A2FCBC
:101CB000401B41F28831884201D90320D3E7D14843
:101CC00008380068C0F340400028EFD013E0FFF769
:101CD00091FC054608E0FFF78DFC401B41F288317E
:101CE000884201D90320BEE7C64808380068C0F31F
:101CF00040400028EFD1207800F00200022869D18E
:101D0000C048006800F00C0058B1BE48006800F000
:101D10000C00082821D1BB48001F006800F4800097
:101D2000D8B9B84808380068C0F3400020B1E0686E
:101D3000012801D0012096E7B2480838006820F059
:101D4000F800F82292FAA2F2B2FA82F221699140E6
:101D50000843AC49083908603CE0E06828B301203A
:101D6000A9490860FFF746FC054606E0FFF742FC7C
:101D7000401B642801D9032075E7A2480838006891
:101D8000C0F340000028F1D09E480838006820F0D9
:101D9000F800F82292FAA2F2B2FA82F22169914096
:101DA000084398490839086014E000209649086003
:101DB000FFF720FC054606E0FFF71CFC401B6428EB
:101DC00001D903204FE78F4808380068C0F340006E
:101DD0000028F1D1207800F0080008282CD1606993
:101DE000A8B1012089490860FFF704FC054606E018
:101DF000FFF700FC401B642801D9032033E781482A
:101E00006C300068C0F340000028F1D014E00020DE
:101E10007E490860FFF7EEFB054606E0FFF7EAFBA8
:101E2000401B642801D903201DE776486C30006808
:101E3000C0F340000028F1D1207800F0040004280D
:101E40006DD100BF6F483830006840F080506D4958
:101E5000383108600846006800F08050009000BFEC
:101E600000BF6B48006840F4807069490860FFF764
:101E7000C1FB054606E0FFF7BDFB401B642801D906
:101E80000320F0E66248006800F480700028F2D079
:101E900000205C4968310870FFF7ACFB054608E09C
:101EA000FFF7A8FB401B41F28831884201D903208B
:101EB000D9E6544868300068C0F340000028EFD1EC
:101EC000207A504968310870A068A0B1FFF792FBF2
:101ED000054608E0FFF78EFB401B41F2883188423F
:101EE00001D90320BFE6474868300068C0F34000CE
:101EF0000028EFD013E0FFF77DFB054608E0FFF771
:101F000079FB401B41F28831884201D90320AAE6BF
:101F10003C4868300068C0F340000028EFD1A06959
:101F2000F0B33848006800F00C00082872D0A069AF
:101F3000022850D1002034490866FFF75BFB0546B4
:101F400006E0FFF757FB401B642801D903208AE60F
:101F50002C4808380068C0F340600028F1D1D4E96B
:101F60000701084347F6C07292FAA2F2B2FA82F26F
:101F7000616A914008430122A16AC2EB51014FF40A
:101F8000403292FAA2F2B2FA82F2914008434FF044
:101F9000706292FAA2F2B2FA82F2E16A914000E033
:101FA0003AE008431749091F0860012016490866EE
:101FB000FFF720FB054606E0FFF71CFB401B6428EB
:101FC00001D903204FE60F4808380068C0F340608D
:101FD0000028F1D020E000200B490866FFF70AFB3B
:101FE000054606E0FFF706FB401B642801D90320E5
:101FF00039E6044808380068C0F340600028F1D191
:102000000AE007E00838024000004742800E4742DD
:1020100000700040012026E6002024E670B504464A
:102020002546681EB0F1807F01D301200FE0681EB5
:102030004FF0E02148610F214FF0FF3000F078F8B9
:1020400000204FF0E021886107200861002070BD6A
:1020500010B504460CB9012010BDA06900B100E024
:1020600000BF94F8390028B9002084F838002046D1
:1020700000F025F8022084F839002068C06820F4B8
:1020800000502168C860204603F0A8FC2068006961
:1020900020F49040216808612068406920F02A00FF
:1020A000216848612068C06840F400502168C86019
:1020B0000020E063012084F839000020CCE770475D
:1020C00000BFFEE70146302905DB392903DCA1F119
:1020D0003000C0B27047612905DB662903DCA1F13D
:1020E0005700C0B2F6E7412905DB462903DCA1F120
:1020F0003700C0B2EEE70020ECE7000070B50546FF
:102100000C46224602A1284603F0CAFD70BD00001D
:10211000253032580000000000BFFEE77047000085
:1021200002480068C0F30220704700000CED00E098
:1021300010B5002807DA0A07140E054A00F00F034D
:102140001B1FD45403E00A07130E024A135410BD98
:1021500018ED00E000E400E070B505460C462246AC
:1021600002A1284603F09CFD70BD0000256400001C
:102170007CB505460C46288840F2FA22811A904226
:102180007ED006DC50B1A0F2D32050B3122878D113
:1021900084E0142976D02129F9D1C7E1A08941F240
:1021A0000101884251D100BF0020C4F8000100BFE6
:1021B0000222FBA1FB4800680830FEF715FE022250
:1021C000F9A1F84800680830FEF70EFE002241F23F
:1021D0000101204602F0C6FF00BF40F2D320288054
:1021E00000BF94F8000100F0010030B994F800013C
:1021F000C0F3400008B900207CBD00BF94F8000186
:1022000000F0010080F00100207600BF04F12400FE
:10221000FFF734F80020A08100BFE4490880E449BA
:102220000880E449088000BF94F8E80000F001004D
:1022300030B994F8E80020F00200801C84F8E8002F
:102240001C21DD48FEF73BF8A4E1A08941F2020120
:10225000884257D100BF0020C4F8000100BF01210F
:1022600004F10800FEF7CEFD4FF47A60D349086010
:1022700000BFD2490868411ED04A1160002802E020
:1022800088E088E1FBE0F4D1002104F10800FEF7CA
:10229000B9FD00BF40F2E520288000BF94F800019E
:1022A000C0F3C00030B994F80001C0F3400008B991
:1022B0000020A1E700BF94F80001C0F3C00080F047
:1022C0000100207600BF04F12400FEF7D7FF0020B4
:1022D000A08100BFB5490880B5490880B54908808C
:1022E00000BF94F8E80000F0010030B994F8E8006D
:1022F00020F00200801C84F8E8001C21AE48FDF7A5
:10230000DEFF47E1A08941F2070188427ED1AA4859
:1023100081696846FFF720FF00BF0020C4F8000174
:1023200000BF0822A6A19F4800680830FEF75CFDA8
:10233000A1490868FDF7CEFF86B29F483246016882
:10234000984800680830FEF74FFD01229FA195488C
:1023500000680830FEF748FD6846FDF7BBFF86B20F
:10236000324669468F4800680830FEF73DFD082276
:1023700097A18C4800680830FEF736FD02228AA13A
:10238000884800680830FEF72FFD00BF40F2FA20B1
:10239000288000BF94F8000100F0010030B994F8E3
:1023A0000001C0F3400008B9002025E700BF94F801
:1023B000000100F0010080F001002076207E48B985
:1023C0008648FEF79BF87C488069A06004F108000D
:1023D000FEF7F4FC00BF04F12400FEF74FFF0020DD
:1023E000A08100BF71490880714908807149088047
:1023F00000BF94F8E80000F0010030B994F8E8005C
:1024000020F00200801C84F8E80000E004E01C21B9
:102410006948FDF754FFBDE0A08941F20A018842F6
:1024200061D1654881696846FFF796FE00BF0020CC
:10243000C4F8000100BF0B2269A15A4800680830A7
:10244000FEF7D2FC6846FDF745FF86B23246694684
:10245000544800680830FEF7C7FC022252A15148D8
:1024600000680830FEF7C0FC002241F20A01204655
:1024700002F078FE00BF40F20E30288000BF94F8D2
:10248000000100F0010030B994F80001C0F34000F1
:1024900008B90020B0E600BF94F8000100F0010088
:1024A00080F00100207600BF04F12400FEF7E6FE74
:1024B0000020A08100BF3D4908803D4908803D497A
:1024C000088000BF94F8E80000F0010030B994F8EB
:1024D000E80020F00200801C84F8E8001C21364847
:1024E000FDF7EDFE56E0A08941F20601884251D188
:1024F00000BF0020C4F8000100BF0A223BA1294808
:1025000000680830FEF770FC022227A12548006809
:102510000830FEF769FC002241F20601204602F075
:1025200021FE00BF40F21B30288000BF94F800015C
:10253000C0F3C00030B994F80001C0F3400008B9FE
:10254000002059E600BF94F80001C0F3C00080F0FD
:102550000100207600BF04F12400FEF78FFE00206A
:10256000A08100BF114908801149088011490880E5
:1025700000BF94F8E80000F0010030B994F8E800DA
:1025800020F00200801C84F8E8001C210A48FDF7B6
:1025900096FE00BF00BF00BF0020288003202BE66E
:1025A00041540000600000200D0A0000640000207B
:1025B00066000020680000205C0700206C000020FE
:1025C00041542B554152545F000000003D00000073
:1025D0002C382C312C302C3000000000C0020020A0
:1025E00041542B5246504F5745523D0041542B52B7
:1025F0004553544F524500002DE9FC4105460C4619
:10260000288840F2FD42811A90427DD015DC40F2CC
:10261000A542A0EB0201904277D007DCE0B1A0F226
:102620008B4000284BD00C2870D1ABE00C296ED029
:102630001A296DD04329F7D1EBE25A2969D006DC7B
:102640001B2967D0222966D04C29EDD1FBE36829EC
:1026500073D07429E8D1F7E3A08943F20D018842D1
:102660006DD1F94881696846FFF776FD00BF00200B
:10267000C4F8000100BF0A22F4A1F748006808303E
:10268000FEF7B2FB6846FDF725FE87B23A4669467B
:10269000F14800680830FEF7A7FB0222EFA1EE48E0
:1026A00000680830FEF7A0FB002243F20D0120462F
:1026B00002F058FD00BF40F28B40288000BF94F824
:1026C000000100F0010038B994F80001C0F34000A7
:1026D00010B90020BDE8FC8100BF94F8000100F0B3
:1026E000010080F00100207600BF04F12400FEF715
:1026F000C5FD0020A08100BFD9490880D9490880C4
:10270000D949088000BF07E0F8E2A2E0FFE3F7E064
:102710005DE1FDE38BE3B3E394F8E80000F0010032
:1027200030B994F8E80020F00200801C84F8E8003A
:102730001C21C548FDF7C3FDABE2EAE3FFE7A08932
:1027400043F21401884251D100BF0020C4F80001B7
:1027500000BF0D22C5A1C04800680830FEF744FB49
:102760000222BEA1BC4800680830FEF73DFB0022F3
:1027700043F21401204602F0F5FC00BF40F29740FE
:10278000288000BF94F8000100F0010030B994F8EF
:102790000001C0F3400008B900209BE700BF94F897
:1027A000000100F0010080F00100207600BF04F17C
:1027B0002400FEF763FD0020A08100BFA849088027
:1027C000A8490880A849088000BF94F8E80000F0F4
:1027D000010030B994F8E80020F00200801C84F871
:1027E000E8001C219848FDF76AFDA5E7A08943F29F
:1027F0000111884261D1944881696846FFF7ACFCB9
:1028000000BF0020C4F8000100BF0F229BA1924826
:1028100000680830FEF7E8FA6846FDF75BFD87B20E
:102820003A4669468C4800680830FEF7DDFA022215
:102830008AA1894800680830FEF7D6FA002243F2E0
:102840000E01204602F08EFC00BF40F2A540288019
:1028500000BF94F8000100F0010030B994F80001C5
:10286000C0F3400008B9002034E700BF94F800012D
:1028700000F0010080F00100207600BF04F1240088
:10288000FEF7FCFC0020A08100BF75490880754957
:1028900008807549088000BF94F8E80000F0010046
:1028A00030B994F8E80020F00200801C84F8E800B9
:1028B0001C216548FDF703FD3EE7A08943F20211A4
:1028C000884251D100BF0020C4F8000100BF0E2291
:1028D0006EA1614800680830FEF786FA02225FA107
:1028E0005D4800680830FEF77FFA002243F20E01CF
:1028F000204602F037FC00BF40F2B140288000BF04
:1029000094F8000100F0010030B994F80001C0F320
:10291000400008B90020DDE600BF94F8000100F097
:10292000010080F00100207600BF04F12400FEF7D2
:10293000A5FC0020A08100BF4949088049490880C2
:102940004949088000BF94F8E80000F0010030B960
:1029500094F8E80020F00200801C84F8E8001C21B4
:102960003948FDF7ACFCE7E6A08943F21101884243
:1029700061D1354881696846FFF7EEFB00BF002052
:10298000C4F8000100BF0A2244A13348006808309F
:10299000FEF72AFA6846FDF79DFC87B23A4669467B
:1029A0002D4800680830FEF71FFA02222BA12A48A2
:1029B00000680830FEF718FA002243F20E012046A4
:1029C00002F0D0FB00BF40F2BF40288000BF94F867
:1029D000000100F0010030B994F80001C0F340009C
:1029E00008B9002076E600BF94F8000100F001006D
:1029F00080F00100207600BF04F12400FEF73EFCC9
:102A00000020A08100BF1649088016490880164999
:102A1000088000BF94F8E80000F0010030B994F895
:102A2000E80020F00200801C84F8E8001C21064821
:102A3000FDF745FC80E6A08943F2030188427DD181
:102A4000A089E081002645E05C07002041542B432B
:102A500049504D55583D0000600000200D0A00000F
:102A600064000020660000206800002041542B43D1
:102A7000495044494E464F3D3100000041542B43DC
:102A800049505345525645523D312C0041542B4339
:102A900049505345525645523D30000041542B4356
:102AA000495053544F3D000006EB860104F1780075
:102AB00000EB8100807C00F0010048B906EB860144
:102AC00004F1780000EB8100F7494969086003E0F0
:102AD000701CC6B2052EE7DB00BFF34840690068F2
:102AE00010B901202076B3E0EF4840690068807C8F
:102AF00020F00200801CEC4949690968887431465D
:102B00006846FFF729FB00BF0020C4F8000100BFA2
:102B10000C22E6A1E94800680830FEF765F968462E
:102B2000FDF7D8FB87B23A466946E44800680830AA
:102B3000FEF75AF90222E2A1E04800E0AAE00068AC
:102B40000830FEF751F9D8488069000C38B90322E3
:102B5000DCA1DA4800680830FEF746F91AE0D248EE
:102B600080690121B1EB104F07D10322D6A1D348D0
:102B700000680830FEF738F90CE0CB488069022184
:102B8000B1EB104F06D10322D0A1CC480068083029
:102B9000FEF72AF90322CEA1C84800680830FEF7E4
:102BA00023F9C1490868FDF795FB87B2BE483A464C
:102BB0000168C24800680830FEF716F90222C5A174
:102BC000BE4800680830FEF70FF9B748806981B247
:102BD0006846FFF7C1FA6846FDF77CFB87B23A46C4
:102BE0006946B64800680830FEF7FEF80222AFF2E8
:102BF0009411B24800680830FEF7F6F8002243F25C
:102C00000301204602F0AEFA00BF4FF49D60288019
:102C100000BF94F8000100F0010030B994F8000101
:102C2000C0F3400008B9002054E500BF94F800014B
:102C300000F0010080F001002076207E38B100BF56
:102C40000020994949690968887400BF00E000BF05
:102C5000E089A08100BF04F12400FEF70FFB0020F3
:102C6000A08100BF9C4908809C4908809C4908803D
:102C700000BF94F8E80000F0010030B994F8E800D3
:102C800020F00200801C84F8E8001C218648FDF733
:102C900016FB89E3A08943F20B01884262D1824886
:102CA00081696846FFF758FA00BF0020C4F80001A8
:102CB00000BF0C228BA1814800680830FEF794F811
:102CC0006846FDF707FB87B23A4669467B480068CD
:102CD0000830FEF789F80222AFF2802177480068B9
:102CE0000830FEF781F8002243F20E01204602F080
:102CF00039FA00BF40F2FD40288000BF94F800017F
:102D000000F0010030B994F80001C0F3400008B9A8
:102D10000020DFE400BF94F8000100F0010080F023
:102D20000100207600BF04F12400FEF7A7FA00207E
:102D3000A08100BF68490880684908806849088008
:102D400000BF94F8E80000F0010030B994F8E80002
:102D500020F00200801C84F8E8001C215248FDF796
:102D6000AEFA21E3A08943F2050188426DD1A08922
:102D7000E0814D48006918B100204B49096908609D
:102D800003205C49087000BF47488069B0F5006FB8
:102D900002D94FF4006001E0434880695649086059
:102DA00000BF0020C4F8000100BF0B2253A143481C
:102DB00000680830FEF718F83B48C068017868469C
:102DC000FFF7CAF96846FDF785FA87B23A466946C1
:102DD0003A4800680830FEF707F801224AA1374850
:102DE00000680830FEF700F8434801686846FFF7BE
:102DF000B3F96846FDF76EFA87B23A4669462F483E
:102E000000680830FDF7F0FF0222AFF2B0312B4826
:102E100000680830FDF7E8FF002243F20501204674
:102E200002F0A0F900BF4FF4A360288000BF94F81F
:102E30000001C0F3800048B994F80001C0F34000DD
:102E400020B9002046E41DE14CE2E7E000BF94F821
:102E50000001C0F3800030B300BF0020C4F80001BF
:102E600000BF2548008882B20F48016813480068F7
:102E70000830FDF7B9FF00BF40F21F50288000BFA7
:102E800040F20110005D00F00100F8BB40F20110BB
:102E9000005DC0F34000C8BB94F80001C0F34000DF
:102EA000A0BB002016E44FE05C07002041542B43F8
:102EB000495053544152543D00000000600000202E
:102EC0002C220000544350005544500053534C00F2
:102ED000222C2200222C000064000020660000202A
:102EE0006800002041542B434950434C4F53453D0B
:102EF00000000000700000207400002041542B43AB
:102F0000495053454E443D002C00000002E04CE285
:102F100024E18FE100BF40F20110005D00F00100EC
:102F200008B1002000E00B202076207E98B9FE48F2
:102F3000006980B1FC4800690068FC4909680844E0
:102F4000F9490969086006E094F80001C0F34000FF
:102F500008B101202076207E88B90320F44908704A
:102F6000F1488069F1490968401AEF4988610846CB
:102F70000068EE4909680844EB4908600EE040F239
:102F80000110005DC0F3400028B1E9480078401E00
:102F9000E749087002E00020E5490870E2488069CE
:102FA00020B1E348007800287FF4EEAEE0480078D6
:102FB00048B1DD48C068C07C20F00400001DDA493B
:102FC000C968C87408E0D848C068C07C20F0080010
:102FD0000830D549C968C874E089A08100BF04F1F0
:102FE0002400FEF74BF90020A08100BFD1490880E2
:102FF000D1490880D149088000BF94F8E80000F06A
:10300000010030B994F8E80020F00200801C84F838
:10301000E8001C21C448FDF752F9C5E1A08943F23C
:103020000401884262D1C04881696846FFF794F87C
:1030300000BF0020C4F8000100BF0E22C0A1C44898
:1030400000680830FDF7D0FE6846FDF743F987B207
:103050003A466946BE4800680830FDF7C5FE0222C0
:10306000AFF20861BA4800680830FDF7BDFE0022E3
:1030700043F20401204602F075F800BF40F24950C7
:10308000288000BF94F8000100F0010030B994F8E6
:103090000001C0F3400008B900203CE400BF94F8F0
:1030A000000100F0010080F00100207600BF04F173
:1030B0002400FEF7E3F80020A08100BF9D490880AE
:1030C0009D4908809D49088000BF94F8E80000F001
:1030D000010030B994F8E80020F00200801C84F868
:1030E000E8001C219048FDF7EAF85DE1A08943F271
:1030F0000201884266D100BF0020C4F8000100BF71
:103100000E2294A1924800680830FDF76DFE8649B2
:103110000868FDF7DFF887B283483A4601688C48B3
:1031200000680830FDF760FE01228EA18848006823
:103130000830FDF759FE0222AFF2E06184480068D2
:103140000830FDF751FE002243F20201204602F052
:1031500009F800BF40F25750288000BF94F80001E2
:1031600000F0010030B994F80001C0F3400008B944
:10317000002037E400BF94F8000100F0010080F067
:103180000100207600BF04F12400FEF777F800204C
:10319000A08100BF674908806749088067490880A7
:1031A00000BF94F8E80000F0010030B994F8E8009E
:1031B00020F00200801C84F8E8001C215A48FDF72A
:1031C0007EF8F1E0A08943F21201884266D100BF87
:1031D0000020C4F8000100BF092263A15C48006818
:1031E0000830FDF701FE50490868FDF773F887B213
:1031F0004D483A460168564800680830FDF7F4FD2E
:10320000012258A1524800680830FDF7EDFD022266
:10321000AFF2B8714E4800680830FDF7E5FD0022B6
:1032200043F21201204601F09DFF00BF40F26550BD
:10323000288000BF94F8000100F0010030B994F834
:103240000001C0F3400008B90020EDE400BF94F88D
:10325000000100F0010080F00100207600BF04F1C1
:103260002400FEF70BF80020A08100BF3149088040
:10327000314908803149088000BF94F8E80000F027
:10328000010030B994F8E80020F00200801C84F8B6
:10329000E8001C212448FDF712F885E0A08943F2DC
:1032A000130188426CD100BF0020C4F8000100BFA8
:1032B0000B2230A1264800680830FDF795FD022258
:1032C000AFF66801224800680830FDF78DFD002246
:1032D00043F21301204601F045FF00BF40F2715058
:1032E000288000BF94F8000100F0010030B994F884
:1032F0000001C0F3400008B9002095E400BF94F835
:10330000000100F0010080F00100207600BF04F110
:103310002400FDF7B3FF0020A08100BF054908800D
:103320000549088005492CE05C0700207400002056
:10333000700000206400002066000020680000206B
:1033400041542B43495053534C53495A453D000077
:103350006000002041542B434950444F4D41494E99
:103360003D2200002200000041542B50494E473DB1
:103370002200000041542B4349555044415445001C
:1033800012E0088000BF94F8E80000F0010030B9B6
:1033900094F8E80020F00200801C84F8E8001C216A
:1033A0000448FCF78CFF00BF00BF00BF002028804E
:1033B000032039E45C0700202DE9FE4305460C4656
:1033C0003A2000900627288840F2DF32811A904286
:1033D0007DD022DC40F26332A0EB0201904277D034
:1033E00012DC40F23F32A0EB0201904271D006DCC9
:1033F00060B3A0F23330002841F0D7815AE00C29A5
:1034000068D01829F8D169E119297CD035297BD0F9
:1034100051297AD06D29EFD1F4E3492976D008DC1F
:103420000D2974D0202973D0302972D03C29E3D1E2
:10343000E9E3552900F08487622900F0D9878029C3
:1034400001F0F8809029D7D101F07AB9A08942F231
:103450000101884271D1FD48816901A8FEF77CFE17
:1034600000BF0020C4F8000100BF0A22F8A1FB48F9
:1034700000680830FDF7B8FC01A8FCF72BFF1FFA25
:1034800080F8424601A9F54800680830FDF7ACFC19
:103490000222F3A1F14800680830FDF7A5FC0022E4
:1034A00042F20101204601F05DFE00BF40F23330E0
:1034B000288000BF94F8000100F0010058B994F88A
:1034C0000001C0F3400030B90020BDE8FE83FDE3F9
:1034D0005BE155E0ABE000BF94F8000100F00100B3
:1034E00080F00100207600BF04F12400FDF7C6FE45
:1034F0000020A08100BFDB490880DB490880DB4950
:10350000088000BF06E019E2B9E25DE3DFE3FFE314
:10351000FFE3FFE394F8E80000F0010030B994F80D
:10352000E80020F00200801C84F8E8001C21C74855
:10353000FCF7C5FE01F038B9FFE7A08942F201119E
:10354000884251D100BF0020C4F8000100BF112201
:10355000C7A1C24800680830FDF746FC0222C0A19E
:10356000BE4800680830FDF73FFC002242F20B0124
:10357000204601F0F7FD00BF40F23F30288000BF39
:1035800094F8000100F0010030B994F80001C0F394
:10359000400008B9002098E700BF94F8000100F04F
:1035A000010080F00100207600BF04F12400FDF747
:1035B00065FE0020A08100BFAA490880AA490880B2
:1035C000AA49088000BF94F8E80000F0010030B973
:1035D00094F8E80020F00200801C84F8E8001C2128
:1035E0009A48FCF76CFEA5E7A08942F202118842D6
:1035F00051D100BF0020C4F8000100BF1022A1A1DA
:10360000964800680830FDF7EFFB022294A193482A
:1036100000680830FDF7E8FB002242F20C0120466A
:1036200001F0A0FD00BF40F24B30288000BF94F8AD
:10363000000100F0010030B994F80001C0F340002F
:1036400008B9002041E700BF94F8000100F0010034
:1036500080F00100207600BF04F12400FDF70EFE8B
:103660000020A08100BF7F4908807F4908807F49F2
:10367000088000BF94F8E80000F0010030B994F829
:10368000E80020F00200801C84F8E8001C216F484C
:10369000FCF715FE4EE7A08942F20311884251D192
:1036A00000BF0020C4F8000100BF0E227AA16B48C1
:1036B00000680830FDF798FB022269A1674800689E
:1036C0000830FDF791FB002242F20D01204601F087
:1036D00049FD00BF40F25730288000BF94F8000138
:1036E00000F0010030B994F80001C0F3400008B9BF
:1036F0000020EAE600BF94F8000100F0010080F02D
:103700000100207600BF04F12400FDF7B7FD002082
:10371000A08100BF5349088053490880534908805D
:1037200000BF94F8E80000F0010030B994F8E80018
:1037300020F00200801C84F8E8001C214348FCF7BC
:10374000BEFDF7E6A08942F20411884251D100BFC4
:103750000020C4F8000100BF0D2253A13F480068BB
:103760000830FDF741FB02223DA13C4800680830CB
:10377000FDF73AFB002242F20E01204601F0F2FC76
:1037800000BF40F26330288000BF94F8000100F0D1
:10379000010030B994F80001C0F3400008B90020DE
:1037A00093E600BF94F8000100F0010080F00100F2
:1037B000207600BF04F12400FDF760FD0020A08109
:1037C00000BF28490880284908802849088000BF90
:1037D00094F8E80000F0010030B994F8E80020F017
:1037E0000200801C84F8E8001C211848FCF767FDE3
:1037F000A0E6A08942F20511884226D11348466806
:1038000000BF0020C4F8000100BF0D222AA1134808
:1038100000680830FDF7E8FA0C490868FCF75AFD23
:103820001FFA80F80948424601680C4800680830D1
:10383000FDF7DAFA022224A1084800680830FDF7F3
:10384000D3FA06273A20009059E0B3E05C07002045
:1038500041542B43574D4F44453D0000600000202C
:103860000D0A0000640000206600002068000020AF
:1038700041542B4349505354414D41435F435552AA
:103880003F00000041542B43495041504D41435F9C
:103890004355523F0000000041542B4349505354BC
:1038A000415F4355523F000041542B434950415022
:1038B0005F4355523F00000041542B43495053543D
:1038C000414D41435F0000003D22000016F8011BFE
:1038D00001A8FEF713FC01A8FCF7FCFC1FFA80F816
:1038E000424601A9FA4800680830FDF77DFA37B171
:1038F00001226946F64800680830FDF775FA381E5F
:10390000A7F10101CFB2E1D10122F2A1F048006894
:103910000830FDF769FA0222AFF2BC01EC480068FA
:103920000830FDF761FA002242F20B01204601F057
:1039300019FC00BF4FF45F70288000BF94F80001AD
:1039400000F0010030B994F80001C0F3400008B95C
:103950000020BAE500BF94F8000100F0010080F0FB
:1039600001002076207E28B956F8061C616336F8DF
:10397000020C208700BF04F12400FDF77FFC00202B
:10398000A08100BFD4490880D4490880D449088068
:1039900000BF94F8E80000F0010030B994F8E800A6
:1039A00020F00200801C84F8E8001C21CD48FCF7C0
:1039B00086FCBFE5A08942F2061188427ED1C94843
:1039C000466800BF0020C4F8000100BF0C22C6A159
:1039D000BF4800680830FDF707FAC2490868FCF7DD
:1039E00079FC1FFA80F8BF4842460168B848006871
:1039F0000830FDF7F9F90222AFF23411B44800683B
:103A00000830FDF7F1F906273A20009018E016F883
:103A1000011B01A8FEF772FB01A8FCF75BFC1FFA73
:103A200080F8424601A9AA4800680830FDF7DCF991
:103A300037B101226946A64800680830FDF7D4F97D
:103A4000381EA7F10101CFB2E1D10122A1A1A04806
:103A500000680830FDF7C8F90222AFF2FC119C485B
:103A600000680830FDF7C0F9002242F20C01204640
:103A700001F078FB00BF4FF46670288000BF94F817
:103A8000000100F0010030B994F80001C0F34000DB
:103A900008B9002019E500BF94F8000100F001000A
:103AA00080F001002076207E38B956F8061CC4F854
:103AB000461036F8020CA4F84A0000E01FE000BFF0
:103AC00004F12400FDF7DAFB0020A08100BF824949
:103AD0000880824908808249088000BF94F8E80085
:103AE00000F0010030B994F8E80020F00200801CDA
:103AF00084F8E8001C217B48FCF7E1FB1AE5A0896B
:103B000042F20B1188427CD17648466800BF002003
:103B1000C4F8000100BF0A2277A16D480068083090
:103B2000FDF762F96F490868FCF7D4FB1FFA80F8CB
:103B30006C4842460168664800680830FDF754F951
:103B40000222AFF27C21624800680830FDF74CF990
:103B500004272E20009018E016F8011B01A8FEF79C
:103B6000FBFA01A8FCF7B6FB1FFA80F8424601A950
:103B7000574800680830FDF737F937B10122694628
:103B8000534800680830FDF72FF9381EA7F10101EE
:103B9000CFB2E1D101224FA14D4800680830FDF7B6
:103BA00023F90222AFF24831494800680830FDF796
:103BB0001BF9002242F20D01204601F0D3FA00BFAA
:103BC0004FF46D70288000BF94F8000100F00100F0
:103BD00030B994F80001C0F3400008B9002074E443
:103BE00000BF94F8000100F0010080F00100207691
:103BF000207E10B956F8040CA06200BF04F1240026
:103C000002E01EE0ABE0D3E2FDF738FB0020A0812C
:103C100000BF31490880314908803149088000BF20
:103C200094F8E80000F0010030B994F8E80020F0C2
:103C30000200801C84F8E8001C212A48FCF73FFBA6
:103C400078E4A08942F20C11884265D12548466883
:103C500000BF0020C4F8000100BF092229A11C48B0
:103C600000680830FDF7C0F81E490868FCF732FB11
:103C70001FFA80F81B484246016815480068083062
:103C8000FDF7B2F80222AFF2C031114800680830E7
:103C9000FDF7AAF804272E20009040E016F8011B3B
:103CA00001A8FEF759FA01A8FCF714FB1FFA80F8E7
:103CB000424601A9064800680830FDF795F857B359
:103CC0000122694602480068083026E0A4E0DFE2ED
:103CD0006000002022000000640000206600002038
:103CE000680000205C07002041542B43495041509C
:103CF0004D41435F0000000041542B434950535451
:103D0000415F000041542B43495041505F00000087
:103D1000B8E03FE1CBE102E05AE0FDF765F8381E7C
:103D2000A7F10101CFB2B9D10122AFF25801FA488F
:103D300000680830FDF758F80222AFF2DC41F6487F
:103D400000680830FDF750F8002242F20D012046CD
:103D500001F008FA00BF4FF47470288000BF94F897
:103D6000000100F0010030B994F80001C0F34000F8
:103D700008B900200FE400BF94F8000100F0010032
:103D800080F001002076207E10B956F8040CA06265
:103D900000BF04F12400FDF771FA0020A08100BFEC
:103DA000DE490880DE490880DE49088000BF94F8BB
:103DB000E80000F0010030B994F8E80020F00200BB
:103DC000801C84F8E8001C21D748FCF778FA0AE444
:103DD000A08942F2071188427ED100BF0020C4F8BA
:103DE000000100BF1122D1A1CB4800680830FCF7C8
:103DF000FBFF0222AFF29851C74800680830FCF779
:103E0000F3FF002242F20301204601F0ABF900BFAC
:103E100040F2DF30288000BF94F8000100F001007C
:103E200030B994F80001C0F3400008B9002009E45B
:103E300000BF94F8000100F0010080F0010020763E
:103E4000207E00B133E000BF0020C4F8000100BFB5
:103E50000822BBA1B04800680830FCF7C5FF022269
:103E6000AFF20461AC4800680830FCF7BDFF0022E7
:103E700042F20401204601F075F900BF4FF47B7057
:103E8000288000BF94F8000100F0010030B994F8D8
:103E90000001C0F3400008B900202AE400BF94F8F4
:103EA000000100F0010080F00100207600BF00BF9B
:103EB00004F12400FDF7E2F90020A08100BF97493A
:103EC0000880974908809749088000BF94F8E80067
:103ED00000F0010040B900E00BE094F8E80020F0A9
:103EE0000200801C84F8E8001C218F48FCF7E7F9E9
:103EF00027E4A08942F2020188427DD100BF002060
:103F0000C4F8000100BF092290A18348006808306E
:103F1000FCF76AFF84490868FCF7DCF91FFA80F8AF
:103F20008148424601687C4800680830FCF75CFF25
:103F30000222AFF26C61784800680830FCF754FF49
:103F400079494868FDF732FB032283A17248006873
:103F50000830FCF749FF74498868FDF727FB012208
:103F6000AFF290216C4800680830FCF73DFF022258
:103F7000AFF21471684800680830FCF735FF002282
:103F800042F20201204601F0EDF800BF40F2FF309E
:103F9000288000BF94F8000100F0010030B994F8C7
:103FA0000001C0F3400008B90020D2E400BF94F83B
:103FB000000100F0010080F001002076207E88BB27
:103FC00000BF04F12400FDF759F90020A08100BFD3
:103FD00052490880524908805249088000BF94F82D
:103FE000E80000F0010030B994F8E80020F0020089
:103FF000801C84F8E80000E035E01C214A48FCF70A
:104000005EF900BF00BF04F12400FDF745F908B1D7
:1040100006209EE4A08908B92068606142F203107E
:10402000A081C1E3FFE700BF04F12400FDF726F9FA
:104030000020A08100BF39490880394908803949EA
:10404000088000BF94F8E80000F0010030B994F84F
:10405000E80020F00200801C84F8E8001C213248AF
:10406000FCF72DF9A0E3A08942F2050188427BD13B
:1040700000BF0020C4F8000100BF082237A1264875
:1040800000680830FCF7B0FE0222AFF62C0122488F
:1040900000680830FCF7A8FE002242F20501204625
:1040A00001F060F800BF40F20F40288000BF94F894
:1040B000000100F0010030B994F80001C0F34000A5
:1040C00008B9002045E400BF94F8000100F00100A9
:1040D00080F00100207600BF04F12400FDF7CEF847
:1040E0000020A08100BF0D4908800D4908800D49BE
:1040F000088000BF94F8E80000F0010030B994F89F
:10410000E80020F00200801C84F8E8001C2106482A
:10411000FCF7D5F848E327E06000002064000020A9
:1041200066000020680000205C07002041542B43FB
:10413000574C41504F50543D312C31323700000024
:1041400041542B43574C41500000000041542B4335
:10415000574A41505F000000222C220041542B435B
:104160005751415000000000A08942F208118842D6
:1041700052D100BF0020C4F8000100BF0D22F9A1F8
:10418000FC4800680830FCF72FFE0222AFF6301121
:10419000F84800680830FCF727FE002242F20201CE
:1041A000204600F0DFFF00BF40F21B40288000BF28
:1041B00094F8000100F0010030B994F80001C0F358
:1041C000400008B9002065E400BF94F8000100F049
:1041D000010080F00100207600BF04F12400FDF70B
:1041E0004DF80020A08100BFE3490880E349088022
:1041F000E349088000BF94F8E80000F0010030B9FE
:1042000094F8E80020F00200801C84F8E8001C21EB
:10421000DC48FCF754F8C7E2A08942F20A01884260
:104220006AD100BF0020C4F8000100BF0E22D6A151
:10423000D04800680830FCF7D7FDD249896909B138
:10424000D5A100E0D5A10846FCF744F81FFA80F894
:10425000CC48806908B1D0A000E0D0A00146424619
:10426000C44800680830FCF7BFFD0222AFF61021F9
:10427000C04800680830FCF7B7FD002242F20A018E
:10428000204600F06FFF00BF4FF48560288000BF1C
:1042900094F8000100F0010030B994F80001C0F377
:1042A000400008B900209AE400BF94F8000100F033
:1042B000010080F00100207600BF04F12400FCF72B
:1042C000DDFF0020A08100BFAB490880AB4908801A
:1042D000AB49088000BF94F8E80000F0010030B955
:1042E00094F8E80020F00200801C84F8E8001C210B
:1042F000A448FBF7E4FF57E2A08942F20701884295
:1043000052D100BF0020C4F8000100BF0822A4A1C0
:10431000984800680830FCF767FD0222AFF6C0211C
:10432000944800680830FCF75FFD002242F2070164
:10433000204600F017FF00BF40F23440288000BF45
:1043400094F8000100F0010030B994F80001C0F3C6
:10435000400008B9002042E400BF94F8000100F0DA
:10436000010080F00100207600BF04F12400FCF77A
:1043700085FF0020A08100BF7F4908807F49088019
:104380007F49088000BF94F8E80000F0010030B9D0
:1043900094F8E80020F00200801C84F8E8001C215A
:1043A0007848FBF78CFFFFE1A08942F209118842AF
:1043B00052D100BF0020C4F8000100BF0D227BA134
:1043C0006C4800680830FCF70FFD0222AFF6703130
:1043D000684800680830FCF707FD002242F2060139
:1043E000204600F0BFFE00BF40F24140288000BFE1
:1043F00094F8000100F0010030B994F80001C0F316
:10440000400008B90020B5E400BF94F8000100F0B6
:10441000010080F00100207600BF04F12400FCF7C9
:104420002DFF0020A08100BF534908805349088018
:104430005349088000BF94F8E80000F0010030B94B
:1044400094F8E80020F00200801C84F8E8001C21A9
:104450004C48FBF734FFA7E1A08942F20A118842D9
:104460007ED100BF0020C4F8000100BF092253A183
:10447000404800680830FCF7B7FC42490868FBF781
:1044800029FF1FFA80F83F48424601683948006812
:104490000830FCF7A9FC0222AFF6D4313548006899
:1044A0000830FCF7A1FC37494868FDF77FF8032284
:1044B000AFF25C312F4800680830FCF795FC3149B9
:1044C000496801F11400FDF771F802223EA1294864
:1044D00000680830FCF788FC2A48406890F82910EA
:1044E00001A8FDF739FE01A8FBF7F4FE1FFA80F8DA
:1044F000424601A91F4800680830FCF775FC0122FC
:1045000032A11C4800680830FCF76EFC1D4840686A
:1045100090F8281001A8FDF71FFE01A8FBF7DAFEAE
:104520001FFA80F8424601A9124800680830FCF7DB
:104530005BFC012225A10F4800680830FCF754FC01
:104540001048406890F82A1001A8FDF705FE01A860
:10455000FBF7C0FE1FFA80F8424601A9054837E084
:10456000AEE0000041542B43574A41505F4355523F
:104570003F00000060000020640000206600002072
:10458000680000205C07002041542B4357415554DC
:104590004F434F4E4E3D0000310000003000000000
:1045A00041542B43574C49460000000041542B43D3
:1045B000575341505F4355523F00000041542B4335
:1045C000575341505F000000222C00002C000000D7
:1045D00000680830FCF708FC0122AFF210017548B2
:1045E00000680830FCF700FC7348406890F82B1016
:1045F00001A8FDF7B1FD01A8FBF76CFE1FFA80F8DA
:10460000424601A96B4800680830FCF7EDFB022226
:10461000AFF6B451674800680830FCF7E5FB0022AC
:1046200042F20601204600F09DFD00BF40F25F40CF
:10463000288000BF94F8000100F0010030B994F820
:104640000001C0F3400008B9002026E400BF94F840
:10465000000100F0010080F001002076207EF8B11A
:1046600000BF04F12400FCF709FE0020A08100BF78
:1046700052490880524908805249088000BF94F886
:10468000E80000F0010030B994F8E80020F00200E2
:10469000801C84F8E8001C214748FBF710FE83E0EB
:1046A00000BF04F12400FCF7F7FD08B106207CE40C
:1046B000A08908B92068606142F20910A08173E006
:1046C000A08942F2130188426ED100BF0020C4F8D5
:1046D000000100BF07223CA1364800680830FCF703
:1046E00083FB3549896911B1AFF2541101E0AFF292
:1046F00054110846FBF7EEFD1FFA80F82E4880693A
:1047000010B1AFF26C1001E0AFF2701001464246FA
:10471000284800680830FCF767FB0222AFF6C0614A
:10472000244800680830FCF75FFB002242F21301C6
:10473000204600F017FD00BF40F26F40288000BF08
:1047400094F8000100F0010030B994F80001C0F3C2
:10475000400008B9002028E400BF94F8000100F0F0
:10476000010080F00100207600BF04F12400FCF776
:1047700085FD0020A08100BF1049088010490880F5
:104780001049088000BF94F8E80000F0010030B93B
:1047900094F8E80020F00200801C84F8E8001C2156
:1047A0000548FBF78CFD00BF00BF00BF002028803C
:1047B00003202EE4600000205C070020640000203D
:1047C000660000206800002041542B5750533D00E4
:1047D000F8B507460C46154600E0641C207810B179
:1047E00020782228F9D1207800B9F8BD641C002671
:1047F00005E014F8012B3046711CCEB22A54207803
:1048000040B120782228F4D160782C28F1D1A0780A
:104810002228EED100223046711CCEB22A54E41C6C
:10482000002305F115022146384600F052F91334F1
:104830006946204600F066F9E8769DF80000401CC5
:1048400004446946204600F05DF900B2A88300BF29
:10485000CBE7F8B506460C4615462078282800D147
:10486000641C6946204600F04DF928709DF8000050
:10487000401C04442078222800D1641C00200090B1
:1048800011E02078222803D160782C2800D10DE097
:104890002178681C9DF8002081549DF80000401C80
:1048A000C0B20090641C20780028EAD100BFA41C8C
:1048B0006946204600F026F900B2E8829DF8000023
:1048C000401C04442078222800D1641C002305F1F8
:1048D00018022146304600F0FCF8133469462046A1
:1048E00000F010F9A8779DF80000401C04446946C8
:1048F000204600F007F940B2E8779DF80000401C20
:1049000004446946204600F0FDF885F820009DF833
:104910000000401C0444F8BDF8B506460C46154698
:104920006B462A462146304600F08FF89DF800007D
:10493000401C04446B462A1D2146304600F0C9F84D
:10494000F8BDF8B507460C4615462C212846FBF75E
:10495000B6FC002605E014F8012B3046711CCEB2DF
:104960002A54207840B120782228F4D160782C286D
:10497000F1D1A0782228EED100223046711CCEB2AF
:104980002A54E41C002607E014F8012B3046711C61
:10499000CEB205F114010A54207828B120782228DB
:1049A000F2D160782C28EFD100223046711CCEB2B3
:1049B00005F114010A54A41C6946204600F0A2F82F
:1049C000283568709DF80000401C04446946204664
:1049D00000F098F828709DF80000401C04446946D7
:1049E000204600F08FF8A8709DF80000401C044499
:1049F0006946204600F086F8E870283DF8BD2DE9AC
:104A0000F04104460D460026002707E036012078D5
:104A1000FDF758FB0644641C781CC7B22078302888
:104A200002DB20783928F1DD2078612802DB20784C
:104A30006628EBDD2078412802DB20784628E5DD7A
:104A400005B12F703046BDE8F0812DE9F84380466E
:104A50000D4616461C4604270020009004B1207025
:104A600013E06946284600F04DF806F8010B9DF862
:104A70000000401C054444B120789DF80010084413
:104A8000207017B12078401C2070381EA7F101015A
:104A9000CFB2E6D1BDE8F883F8B506460D46144618
:104AA000002020606060A0606946284600F02AF877
:104AB00000EB800106F1780000EB810060609DF85A
:104AC0000000401C05446946284600F01BF8208180
:104AD000F8BD2DE9F04180460C4615461E460627D6
:104AE00006E000212046FFF78AFF05F8010BE41CD1
:104AF000381EA7F10101CFB2F3D10EB111203070F1
:104B0000BDE8F08170B5024600250024002310782E
:104B10002D2803D10125521C601CC4B207E0107877
:104B200030380A2603FB0603521C601CC4B21078FE
:104B3000302802DB10783928F1DD01B10C700DB19D
:104B4000584270BD1846FCE72DE9F04104468846FE
:104B500008F101050026002728780D2804D168787F
:104B60000A2801D1BDE8F081FEA12846FBF7B9FB78
:104B700000B90026FBA12846FBF7B3FB08B90120CA
:104B800000E00020064696B9F8A12846FBF7A9FBED
:104B900008B9012000E00020074647B9F5A12846E2
:104BA000FBF79FFB08B9012000E00020074666B92B
:104BB0005FB9F3A12846FBF794FB30B994F80001E4
:104BC00020F00800083084F80001A08942F20B01AF
:104BD000884219D128782B2816D10A22EAA1284622
:104BE000FBF78DFB80B9002304F1340205F11001BD
:104BF0002046FFF76EFFE748C06828B1E548C06867
:104C0000616B0160218F8180A08942F20C01884292
:104C10001BD128782B2818D10922DFA12846FBF7C1
:104C20006EFB90B9002304F1460205F10F01204606
:104C3000FFF74FFFD748C06838B1D648C068D4F8EE
:104C400046100160B4F84A108180A08942F20D013B
:104C5000884232D128782B282FD10822D1A128468A
:104C6000FBF74DFB48BB287B69280FD1002304F1DB
:104C7000280205F110012046FFF7E7FEC548C0688D
:104C8000D8B1C448C068A16A016016E0287B6728D3
:104C900008D1002304F12C0205F115012046FFF78D
:104CA000D4FE0AE0287B6E2807D1002304F13002ED
:104CB00005F115012046FFF7C8FEA08942F20E015A
:104CC000884232D128782B282FD10722B8A1284634
:104CD000FBF715FB48BBE87A69280FD1002304F1E4
:104CE0003A0205F10F012046FFF7AFFEA948C06860
:104CF000D8B1A848C068A16A016016E0E87A6728C0
:104D000008D1002304F13E0205F114012046FFF70B
:104D10009CFE0AE0E87A6E2807D1002304F14202E3
:104D200005F114012046FFF790FEA08942F2070129
:104D300088421DD1287830281ADB2878392817DCDA
:104D400094480069008893498969884210D2914843
:104D50002946C2682046FFF7DFFD8E48C0680A304A
:104D60008C49C860084600690088401C09690860D1
:104D700028782B2822D1A08942F2040188421DD133
:104D800006228DA12846FBF7BAFAB8B98148006916
:104D9000008880498969884210D27E48E91DC2682E
:104DA0002046FFF756FD7B48C06822307949C8602D
:104DB000084600690088401C09690860A08942F221
:104DC000060188420BD106227DA12846FBF797FAFF
:104DD00028B904F14C02E91D2046FFF7B2FDA08975
:104DE00042F20201884213D177A12846FBF779FAF3
:104DF00008B901270CE00A2275A12846FBF77FFAC3
:104E000030B9644805F10A01C2682046FFF7E0FCAA
:104E1000A08943F2120188420FD128782B280CD1A7
:104E20006878302809DB6878392806DC0021681C9E
:104E3000FFF768FE5749C968086068A12846FBF774
:104E400050FAA8B9A08942F20201884208D140F282
:104E50000110005D20F00400001D40F20111085512
:104E600094F8EC0020F00100401C84F8EC0034E0E1
:104E70005FA12846FBF735FAA8B9A08942F20201E2
:104E8000884208D140F20110005D20F0080008308F
:104E900040F20111085594F8EC0020F00200801C4B
:104EA00084F8EC0019E057A12846FBF71AFAA0B9DC
:104EB000A08942F20201884208D140F20110005D4F
:104EC00020F01000103040F20111085594F8EC0069
:104ED00020F00400001D84F8EC0008224DA1681C9D
:104EE000FBF70DFAA8B92978303901EB810204F1FA
:104EF000780101EB8200297830390170817C21F042
:104F00000101491C8174C17C21F00101491CC1745B
:104F100017E0072242A1681CFBF7F1F988B929784C
:104F2000303901EB810204F1780101EB8200C17C90
:104F300021F00201891CC17400BF0021817400BFEF
:104F400000BFA08943F2050188420AD1072236A199
:104F50002846FBF7D4F918B940F20110005D67E06C
:104F60006DE07BE04F4B0D0A000000004552524FB0
:104F7000520D0A006275737920702E2E2E0D0A00D4
:104F800072656164790D0A002B4349505354414DB9
:104F9000414300005C0700202B43495041504D41E4
:104FA000430000002B4349505354415F0000000070
:104FB0002B43495041505F002B43574C4150000058
:104FC0002B435753415000004641494C0D0A000005
:104FD0002B43574A41505F435552000057494649B9
:104FE00020434F4E4E45435445440D0A00000000F7
:104FF0005749464920444953434F4E4E4543544533
:10500000440D0A005749464920474F542049500D46
:105010000A0000002C434F4E4E4543540000000050
:105020002C434C4F5345440053454E44204F4B00B6
:1050300020F00100401C40F2011108550EE0092249
:1050400027A12846FBF75BF940B940F20110005D4B
:1050500020F00200801C40F201110855A08943F2A3
:10506000020188420DD10A2220A12846FBF747F908
:1050700038B92148002305F10B01C2682046FFF72B
:10508000E4FC04221DA12846FBF739F940B904F1DC
:10509000DC02691D2046FFF7FFFC012084F8DC00DC
:1050A0006EB194F8000120F00100401C84F800016A
:1050B00094F8000120F0020084F800010DE067B1CF
:1050C00094F8000120F0010084F8000194F8000138
:1050D00020F00200801C84F8000100BF42E50000BF
:1050E00053454E44204641494C0000002B43495053
:1050F000444F4D41494E00005C0700202B4950446D
:105100000000000010B50446A089B0F5805F07DB01
:10511000A089B0F5005F03DA21460F48FDF728F8B3
:10512000A089B0F5005F07DBA089B0F5405F03DA26
:1051300021460A48FEF740F9A089B0F5405F07DB39
:10514000A089B0F5804F03DA21460548FDF754FAEF
:1051500000BF0020207110BD640000206600002008
:1051600068000020034699811A6118685861002080
:105170001876704710B5FCF743FA10BD1448006864
:1051800040F47000124908601248006840F00100C5
:105190001049086000200F49083108600D48006878
:1051A0000D4908400B4908600C48091D0860081F9C
:1051B000006820F48020091F0860002005490C3198
:1051C00008604FF0006002498039086070470000B5
:1051D00088ED00E000380240FFFFF6FE10300024AA
:1051E00070B5034600240BB9002070BD58881D8897
:1051F000A84201DB002058801BE05D889888401E93
:10520000854206D0988828B95D881888401E854256
:1052100000D113E011F8015B5E88701C588098681B
:105220008555601CC4B258881D88A84201DB002047
:105230005880101EA2F10105AAB2DED100BF20469F
:10524000D3E7000010B501210248FCF78DF901F009
:10525000A1F810BDBC0100200F48006820F080704C
:105260000D4A10601046006840F0807010600B48D6
:10527000006820F00100094A10601046006840F004
:1052800001001060002050601046416800BF00BF60
:1052900002484068401A7047FCED00E0001000E052
:1052A0001CB50020012103460246CDE90010490348
:1052B000014800F02FF91CBD0008024009480068B1
:1052C000C0F3403080F0010030B10748007830B9B9
:1052D000012005490870704700200349087000202C
:1052E000F9E7000010080240080000201CB5032068
:1052F00000210B460122CDE900102021034800F0D7
:1053000009F94FF40010014988611CBD00000240FA
:1053100030B502460B460E4CA24207D20D490D4C49
:105320000834141B1825B4FBF5F006E008490839C9
:10533000074C141B1825B4FBF5F0042801D3091DF4
:10534000001F03F03D04044D2D5CAC400C6030BDEB
:105350001064024008600240FC7500087047704706
:1053600070B502460C460021002300200E4DAA42D3
:1053700007D20E4B0D4D1035551B1826B5FBF6F117
:1053800006E0094B103B084D551B1826B5FBF6F1FE
:10539000042901D31B1D091F1868054D6D5CE840E9
:1053A00000F03D0070BD000010640240006002404B
:1053B000FC750008704770B504463D212046FFF794
:1053C000CFFF85B23D212046FFF7A2FF05F0200068
:1053D00030B1206800F0100010B1204600F029F82C
:1053E00005F0100030B1206800F0080010B1204630
:1053F000FFF7E0FF05F0080030B1206800F004007E
:1054000010B1204600F016F805F0040030B1206815
:1054100000F0020010B12046FFF7A0FF05F00100E8
:1054200030B1606900F0800010B12046FFF797FFAF
:1054300070BD7047704701464FF40030081AC0F342
:105440008F20704700B502461046FFF7F4FF012198
:1054500001FA00F00249096808430149086000BDEB
:10546000303802402DE9F04304460E461546DDE98A
:1054700007892046FFF7DFFFC7B2002243E0012083
:105480009040304000B93CE0214830F8170001213D
:10549000914008431E4921F81700E0684FEA420C8A
:1054A000032101FA0CF18843510008FA01F1084385
:1054B000E06020684FEA420C032101FA0CF18843B6
:1054C000510005FA01F108432060012D01D0022DA1
:1054D00016D161680120904080B221EA000003FAF1
:1054E00002F189B208436060A0684FEA420C0321D0
:1054F00001FA0CF18843510009FA01F10843A06058
:1055000000BF501CC2B2102AB9DBBDE8F083000016
:10551000E80000202DE9FC4305460C4616461F46D0
:10552000DDE909890CB9BDE8FC832846FFF78AFF4D
:105530003B46324621462846CDE90089FFF792FFD7
:1055400000BFF0E72DE9FC4705460E461746984692
:10555000DDE90A9A0EB9BDE8FC872846FFF772FF1D
:1055600000241AE00120A040304000B914E0E10816
:1055700005F1200050F821006107CA0E0F2191406B
:1055800088436107C90E0AFA01F10843E20805F1F0
:10559000200141F8220000BF641C102CE2D33B46DE
:1055A000022231462846CDE90089FFF75BFF00BFA4
:1055B000D1E7000000B593B000BF2648006840F076
:1055C0008050244908600846006800F0805001902F
:1055D00000BF00BF00BF2048006840F440401E49A3
:1055E00008600846006800F44040019000BF00BF1A
:1055F000012002900390002005904FF48001099152
:105600000220089008210A914FF4C8710B910421DF
:105610000C9107210D9102A8FCF7FEFA10B10120B0
:1056200013B000BD02200F900020109007200E90B4
:105630000E9840F008000E904FF48050119000201A
:10564000129006210EA8FCF7EDF808B10120E7E75B
:105650000020E5E740380240007000401CB50446D9
:105660004CB90720032101230022CDE90010490293
:105670000A48FFF767FF012C09D107200321012306
:105680000022CDE90010C0210548FFF75BFF032C85
:1056900003D10721034800F089F91CBD0000024036
:1056A000000402400010014001B501216846FBF7EB
:1056B0005DF808BD1CB504464CB907200321012341
:1056C0000022CDE900100C210A48FFF73BFF012C16
:1056D00009D10720032101230022CDE90010602118
:1056E0000548FFF72FFF032C03D10721034800F0E3
:1056F0005DF91CBD00000240000C02400044004067
:105700001CB504464CB90820032101230022CDE931
:105710000010C0210448FFF715FF032C03D1082116
:10572000024800F043F91CBD00080240001401408B
:1057300038B505460C461E48056000BF0068006885
:1057400000901B4800684068009000BF00BF00BF89
:10575000174800680068009015480068406800908D
:1057600000BF00BF00BF12480068006800901048EA
:1057700000684068009000BF00BF00BF0C48006890
:10578000006800900A4800684068009000BF00BFB1
:1057900000BF07480068006800900548006840683E
:1057A000009000BF00BF2046FBF7C0FF38BD0000DF
:1057B0007C0100200146064A914200D10020054AA2
:1057C000914200D10120044A914200D10620704745
:1057D0000010014000440040001401402DE9F04F4A
:1057E00091B004460D4616461F46DDE91BABDDF8B9
:1057F00068904A4884421FD100BF4948006840F081
:105800001000474908600846006800F0100000904A
:1058100000BF00BF42482038006840F010004049F7
:10582000203908600846006820F01000086028460B
:10583000FFF714FF4FF025083A48844221D100BFFA
:105840003748001F006840F400303549091F0860E0
:105850000846006800F40030009000BF00BF3048E8
:105860002438006840F400302D4924390860084687
:10587000006820F4003008602846FFF71BFF4FF057
:105880002608294884421FD100BF2548006840F0FF
:105890002000234908600846006800F020000090BE
:1058A00000BF00BF1E482038006840F020001C499F
:1058B000203908600846006820F02000086028466B
:1058C000FFF71EFF4FF04708019402960797CDF8A7
:1058D0001890CDF814A0CDF810B01D9803900021B9
:1058E00008914046FBF730FF2046FFF763FF024672
:1058F000062100904046FBF742FF4046FBF732FF8F
:105900004046FBF713FF01A8FCF7A2FBE06840F05C
:105910002000E06011B0BDE8F08F000000100140F1
:1059200044380240004400400014014013B50446CE
:10593000012201A92046FFF753FC1CBD7FB5044698
:105940000D461646164884420BD100200C23CDE9A3
:105950000030029003463246294603902046FFF766
:105960003DFF104884420BD100200C23CDE90030CC
:10597000029003463246294603902046FFF72EFF49
:10598000094884420BD100200C23CDE9003002905D
:1059900003463246294603902046FFF71FFF7FBD8E
:1059A000001001400044004000140140704710B551
:1059B0000EE000BF036803F08003002BFAD011F85B
:1059C000013B436000BF036803F08003002BFAD063
:1059D000131EA2F10104A2B2EBD110BD2DE9F041DA
:1059E000044600252068056925F44055E068054314
:1059F000206805612068C56849F20C60854321690B
:105A0000A068084361690843E169084305432068C9
:105A1000C5602068456925F44075A0690543206884
:105A20004561E069B0F5004F72D173492068884242
:105A300003D072492068884234D1FCF77DF800EB2E
:105A4000C00101EB001061684900B0FBF1F0642176
:105A5000B0FBF1F6FCF770F800EBC00101EB0010B1
:105A600061684900B0FBF1F7FCF766F800EBC00194
:105A700001EB001061684900B0FBF1F06421B0FB5C
:105A8000F1F000EBC00101EB0010A7EB8000322128
:105A900001EB00106421B0FBF1F066F31F102168E8
:105AA0008860A6E0FCF732F800EBC00101EB0010C3
:105AB00061684900B0FBF1F06421B0FBF1F6FCF73E
:105AC00025F800EBC00101EB001061684900B0FB54
:105AD000F1F7FCF71BF800EBC00101EB0010616867
