:020000040800F2
:1000000090280020AD010008F13E0008F33E0008F2
:10001000F73E0008FB3E0008FF3E0008000000001D
:10002000000000000000000000000000033F000886
:10003000053F000800000000073F00080B3F0008D4
:10004000C7010008C7010008C7010008C701000870
:10005000C7010008C7010008C7010008C701000860
:10006000C7010008C7010008C7010008C701000850
:10007000C7010008C7010008C7010008C701000840
:10008000C7010008C7010008C70100080000000000
:10009000000000000000000000000000C701000890
:1000A000C7010008C7010008C7010008C701000810
:1000B000C7010008C7010008C7010008C701000800
:1000C000C7010008C7010008C7010008C7010008F0
:1000D000C70100086F3800088F38000800000000D2
:1000E000C7010008C7010008C701000800000000A0
:1000F000000000000000000000000000C701000830
:1001000000000000C7010008C7010008C70100087F
:1001100000000000000000000000000000000000DF
:10012000C7010008C7010008C7010008C70100088F
:10013000C7010008000000000000000000000000EF
:10014000000000000000000000000000C7010008DF
:10015000C7010008C7010008C7010008B33800083C
:10016000C7010008C70100080000000000000000EF
:10017000000000000000000000000000000000007F
:1001800000000000C701000800000000000000009F
:10019000C7010008C7010008DFF80CD007F070F9AC
:1001A00000480047F13800089028002006488047A2
:1001B00006480047FEE7FEE7FEE7FEE7FEE7FEE74C
:1001C000FEE7FEE7FEE7FEE7153F0008990100089D
:1001D000704770B5044601F027FB4FF47A71B0FB0D
:1001E000F1F5284600F05AF900222146501E00F091
:1001F000DFF8002070BD10B55748006840F400706B
:10020000554908600846006840F480600860084668
:10021000006840F480700860032000F0B7F80F20F9
:10022000FFF7D7FFFFF7D4FF002010BD704710B5D0
:100230004FF0FF304949086000200860401E091D4A
:10024000086000200860401E444910390860002002
:100250000860401E091D086000200860401E091D3E
:10026000086000200860FFF7E1FF002010BD3C4857
:100270000068401C3A490860704739480068704778
:1002800031B5002402F06CFE044600BF02F068FEA7
:10029000001B00998842F9D338BD4FF0E020006977
:1002A00020F002004FF0E021086170474FF0E0209D
:1002B000006940F002004FF0E021086170474FF004
:1002C0008270704727480068000C70472548006816
:1002D000C0F30B0070472348406840F001002149FB
:1002E000486070471F48406820F001001D49486081
:1002F00070471C48406840F002001A494860704747
:100300001848406820F002001649486070471548B8
:10031000406840F004001349486070471148406845
:1003200020F004000F4948607047012090FAA0F1C6
:10033000B1FA81F10C4A02EB8101C1F80004704767
:100340000020012191FAA1F1B1FA81F1064A02EBF4
:100350008101C1F800047047003C0240203802408F
:1003600000000020002004E00000274210B5002813
:1003700007DA0A07140EBF4A00F00F031B1FD454FC
:1003800003E00A07130EBC4A135410BD00BF00F06F
:100390000702B84B0C3B19684FF6FF031940B74BE7
:1003A0000B4343EA0221B34B0C3B196000BF70477B
:1003B0002DE9F05F80460D461646002700F054F9FF
:1003C000074639462A46334601F00700C0F1070ABE
:1003D000BAF1040F02D94FF0040A01E0C0F1070A94
:1003E000D14600F1040ABAF1070F02D24FF0000A19
:1003F00001E0A0F1030AD4464FF0010A0AFA09FA13
:10040000AAF1010A0AEA020A0AFA0CFA4FF0010BF1
:100410000BFA0CFBABF1010B0BEA030B4AEA0B04E2
:1004200021464046FFF7A2FFBDE8F09F00BF00F065
:100430001F02012191404209920002F1E022C2F81C
:10044000001100BF704700BF00F01F020121914062
:100450008B4A430942F8231000BF704700BF00BF1A
:1004600000BF00BF00BFBFF34F8F00BF00BF00BF82
:1004700080480C38006800F4E06080490843001DA3
:100480007C490C39086000BF00BF00BFBFF34F8F2D
:1004900000BF00BF00BF00E000BFFDE770B504462D
:1004A0002546681EB0F1807F01D301200FE0681E51
:1004B0004FF0E02148610F214FF0FF30FFF756FF6A
:1004C00000204FF0E021886107200861002070BD06
:1004D0004178684A803211600178F9B1121D416893
:1004E0001160017B0907C27A41EA0261827A41EA1E
:1004F000C241427B41EA8241827B41EA4241C27B66
:1005000041EA0241427A41EA0221027A41EA420189
:1005100002781143574A8832116005E00021554A9C
:1005200084321160121D1160704710B500F09CF804
:1005300010BD2DE9F04304462046002808DA4D4F4F
:1005400000F00F0CACF1040C17F80C703F0902E03E
:10055000494F3F5C3F093D460E4606F00700C0F19B
:100560000708B8F1040F02D94FF0040801E0C0F108
:100570000708C44600F10408B8F1070F02D24FF093
:10058000000801E0A0F10308474625FA07F84FF0FC
:10059000010909FA0CF9A9F1010908EA0908C2F8E8
:1005A00000804FF0010808FA07F8A8F1010808EAEE
:1005B0000508C3F8008000BFBDE8F08300BF00F06D
:1005C0001F02012191402E4A8032430942F8231034
:1005D00000BF704710B501460846294A80324309DA
:1005E00052F8232000F01F040123A3401A400AB14F
:1005F000012200E00022104610BD00BF00F01F02E3
:10060000012191401F4A430942F8231000BF70475F
:1006100010B5014608461B4A8032430952F8232090
:1006200000F01F040123A3401A400AB1012200E098
:100630000022104610BD042808D14FF0E0210969BE
:1006400041F004014FF0E022116107E04FF0E0219A
:10065000096921F004014FF0E022116170477047F1
:1006600010B5FFF7FCFF10BD02480C380068C0F35E
:100670000220704718ED00E000E400E00000FA05F9
:1006800080E100E080E200E001460878103818239D
:10069000B0FBF3F2F648805C4865032A05D9086888
:1006A0006FF30900001D086503E008686FF3090097
:1006B0000865086D704770B5044600250CB9012027
:1006C00070BD606A00B100BF022084F83500206868
:1006D0000568E8480540D4E901010843E16808439A
:1006E0002169084361690843A1690843E169084336
:1006F000216A08430543606A042803D1D4E90B0149
:1007000008430543206805602068456925F0070512
:10071000606A0543606A042801D1A06A0543206825
:1007200045612046FFF7B0FF0020E064012084F817
:1007300035000020C4E770B504460CB9012070BD37
:1007400094F83500022801D10120F8E720680068FC
:1007500020F00100216808600020216808602168FD
:100760004860216888602168C8602168086121208C
:10077000216848612046FFF787FF054694F854102A
:100780003F208840A8600020E06484F8350000BF66
:1007900084F8340000BF00BFD1E730B50468246896
:1007A00024F4802405682C60046863608468402C0D
:1007B00004D10468A2600468E16003E00468A160F9
:1007C0000468E26030BD2DE9F04104460D4616464E
:1007D0001F4600BF94F83400012802D10220BDE872
:1007E000F081012084F8340000BF022084F8350035
:1007F0002068006820F00100216808603B4632460E
:1008000029462046FFF7C9FF2068006840F0010034
:10081000216808600020E2E72DE9F04104460D461A
:1008200016461F4600BF94F83400012802D102206A
:10083000BDE8F081012084F8340000BF022084F874
:1008400035002068006820F00100216808603B4600
:10085000324629462046FFF7A0FF2068006840F096
:100860001E00216808602068406940F0800021680F
:1008700048612068006840F001002168086000209D
:10088000D6E770B5044600252068006820F0010016
:100890002168086002F064FB054612E002F060FB8C
:1008A000401BB0F57A7F0CD9E06C40F02000E0648A
:1008B00000BF002084F8340000BF032084F8350016
:1008C00070BD2068006800F001000028E6D100BF7C
:1008D00084F8340000BF012084F835000020EFE7E1
:1008E0002DE9F84F04460F46164600200090256D6E
:1008F0002FB994F85410202000FA01F804E094F87D
:100900005410102000FA01F802F02AFB009064E075
:10091000286814F8542F0821914000EA010928683A
:1009200022785549914000EA010A286814F85429B0
:100930005149C91C914000EA010BB9F1000F05D1E2
:10094000BAF1000F02D1BBF1000F2FD0B9F1000FA7
:1009500008D0E06C40F00100E06494F854100820E6
:100960008840A860BAF1000F08D0E06C40F00200A7
:10097000E06494F8541040488840A860BBF1000F30
:1009800009D0E06C40F00400E06494F854103A4858
:10099000C01C8840A860042084F8350000BF0020F7
:1009A00084F8340000BF0120BDE8F88F701CA0B1AE
:1009B0002EB102F0D5FA0099401AB0420DD9E06C80
:1009C00040F02000E064032084F8350000BF0020E0
:1009D00084F8340000BF0320E6E7286800EA080036
:1009E000002895D01FBB94F8541030208840A86090
:1009F0002068006800F4802088B12068006800F456
:100A0000002018B9112084F835000BE02068006838
:100A100000F4002030B1212084F8350002E01120DC
:100A200084F8350000BF002084F834001EE094F8FC
:100A3000541010208840A8602068006800F48020CE
:100A400088B12068006800F4002018B9312084F8CB
:100A500035000BE02068006800F4002030B1412030
:100A600084F8350002E0312084F8350000209BE74F
:100A7000747A00083F8010F00100800070B50446D1
:100A8000256D286894F8542008219140084000B34F
:100A90002068006800F00400D8B12068006820F0E9
:100AA00004002168086094F8541008208840A86069
:100AB000E06C40F00100E064042084F8350000BFE1
:100AC000002084F8340000BFA06C10B12046A16C57
:100AD0008847286894F8542070499140084000B332
:100AE0002068406900F08000D8B12068406920F09B
:100AF00080002168486194F8541068488840A860D4
:100B0000E06C40F00200E064042084F8350000BF8F
:100B1000002084F8340000BFA06C10B12046A16C06
:100B20008847286894F854205C49C91C91400840C3
:100B300008B32068006800F00200E0B12068006897
:100B400020F002002168086094F854105348C01C3B
:100B50008840A860E06C40F00400E064042084F861
:100B6000350000BF002084F8340000BFA06C10B135
:100B70002046A16C8847286894F8542010219140A1
:100B80000840C0B32068006800F0080098B32068EF
:100B9000006800F48020B0B194F854101020884010
:100BA000A8602068006800F4002018B9312084F89B
:100BB00035001BE02068006800F40020B0B141203F
:100BC00084F8350012E02068006800F4807028B9CD
:100BD0002068006820F008002168086094F854102C
:100BE00010208840A860312084F83500206C10B1B6
:100BF0002046216C8847286894F854202021914091
:100C0000084018B32068006800F01000F0B12068B8
:100C1000006800F48020D0B194F85410202088405F
:100C2000A8602068006800F4002028B9606C68B1F2
:100C30002046616C884729E02068006800F40020A5
:100C400020B1E06B10B12046E16B88471EE02068C0
:100C5000006800F4807028B92068006820F0100057
:100C60002168086094F8541020208840A860E06C47
:100C7000E064112084F8350000BF002084F83400BF
:100C800000BFE06B10B12046E16B884770BD0146A4
:100C900091F8350070470146C86C7047010080002C
:100CA000F8B503460A460025002400200021CBE0C9
:100CB000012606FA01F5166806EA0504AC4271D170
:100CC0005668022E02D05668122E13D1CF0803F1B7
:100CD000200656F827004E07F70E0F26BE40B043F9
:100CE0004F07FF0E1669BE403043CF0803F12006C0
:100CF00046F8270018684F000326BE40B043167917
:100D000006F003064F00BE40304318605668012EBF
:100D100008D05668022E05D05668112E02D05668AB
:100D2000122E13D198684F000326BE40B0434F00E7
:100D3000D668BE4030439860586801268E40B04364
:100D40001679C6F300168E4030435860D8684F00BD
:100D50000326BE40B0434F009668BE403043D86083
:100D6000566806F08056B6F1805F6CD100BF9B4E8E
:100D7000366846F48046994F3E603E46366806F433
:100D80008046009600BF00BF954E8F0856F827009A
:100D90008E07370F0F26BE40B043924EB34202D1AA
:100DA000002615E04FE0904EB34201D101260FE03E
:100DB0008E4EB34201D102260AE08D4EB34201D1DC
:100DC000032605E08B4EB34201D1042600E0052640
:100DD0008F073F0FBE403043814E8F0846F82700F3
:100DE000854E3068A043566806F48036B6F5803FDD
:100DF00000D12043804E3060361D3068A0435668D5
:100E000006F40036B6F5003F00D120437A4E361D79
:100E10003060361D3068A043566806F48016B6F57B
:100E2000801F00D12043744E08363060361D306874
:100E3000A043566806F40016B6F5001F00D1204303
:100E40006D4E0C363060491C1029FFF431AFF8BDEF
:100E5000F0B50C46002500220023002181E0012688
:100E600006FA01F504EA0502AA4279D106684FEABA
:100E7000410C032707FA0CF7BE430660CF0800F1C8
:100E8000200656F827604F074FEAD76C0F2707FA5E
:100E90000CF7BE434FEAD10C00F1200747F82C6055
:100EA00086684FEA410C032707FA0CF7BE438660B9
:100EB000476801268E40B7434760C6684FEA410C39
:100EC000032707FA0CF7BE43C660454E8F0856F855
:100ED00027308E07370F0F26BE403340414EB042B9
:100EE00001D1002614E0404EB04201D101260FE0AE
:100EF0003E4EB04201D102260AE03D4EB04201D141
:100F0000032605E03B4EB04201D1042600E0052651
:100F10008F073F0FBE409E4222D18E07370F0F260C
:100F200006FA07F32E4E8F0856F827609E432C4F83
:100F30004FEA910C47F82C602F4E366896432E4F9F
:100F40003E603E1D366896433F1D3E603E1D36683E
:100F500096433F1D3E603E1D366896433F1D3E60F2
:100F6000491C1029FFF47BAFF0BD024613690B400A
:100F70000BB1012000E0002070470AB1816101E05F
:100F80000B048361704742694A404261704708B56B
:100F900002464FF48030009000980843009000987B
:100FA000D061D1610098D061D0690090D06900F41F
:100FB000803008B1002008BD0120FCE7704710B563
:100FC00004460D4814300068204028B10A48143007
:100FD00004602046FFF7F2FF10BD000044380240D5
:100FE00008380140000002400004024000080240AE
:100FF000000C024000100240003C0140704738B530
:1010000004460025207800F00100002866D0F6484C
:10101000006800F00C0004280DD0F348006800F0D0
:101020000C00082813D1F048001F006800F480006D
:10103000B0F5800F0BD1EC4808380068C0F3404091
:1010400000284BD06068002848D1012038BD00201E
:10105000E549891F087001F083FF054608E001F0AB
:101060007FFF401B41F28831884201D90320EDE720
:10107000DD4808380068C0F340400028EFD12079EF
:10108000D949891F08706068A0B101F069FF054661
:1010900008E001F065FF401B41F28831884201D928
:1010A0000320D3E7D04808380068C0F34040002848
:1010B000EFD013E001F054FF054608E001F050FFC7
:1010C000401B41F28831884201D90320BEE7C6485F
:1010D00008380068C0F340400028EFD1207800F0C5
:1010E0000200022869D1C048006800F00C0058B125
:1010F000BD48006800F00C00082821D1BA48001F44
:10110000006800F48000D8B9B74808380068C0F318
:10111000400020B1E068012801D0012096E7B248E4
:101120000838006820F0F800F82292FAA2F2B2FA29
:1011300082F2216991400843AB49083908603CE0DC
:10114000E06828B30120A949086001F009FF0546BD
:1011500006E001F005FF401B642801D9032075E774
:10116000A14808380068C0F340000028F1D09E482C
:101170000838006820F0F800F82292FAA2F2B2FAD9
:1011800082F221699140084397490839086014E0C8
:1011900000209649086001F0E3FE054606E001F0F4
:1011A000DFFE401B642801D903204FE78E48083832
:1011B0000068C0F340000028F1D1207800F008005A
:1011C00008282CD16069A8B101208949086001F084
:1011D000C7FE054606E001F0C3FE401B642801D9A6
:1011E000032033E780486C300068C0F340000028DB
:1011F000F1D014E000207E49086001F0B1FE054600
:1012000006E001F0ADFE401B642801D903201DE774
:1012100075486C300068C0F340000028F1D1207898
:1012200000F0040004286DD100BF6F48383000681A
:1012300040F080506C49383108600846006800F082
:101240008050009000BF00BF6A48006840F4807082
:101250006849086001F084FE054606E001F080FE62
:10126000401B642801D90320F0E66248006800F4BE
:1012700080700028F2D000205B496831087001F0CE
:101280006FFE054608E001F06BFE401B41F288311D
:10129000884201D90320D9E6534868300068C0F37A
:1012A00040000028EFD1207A4F4968310870A068CB
:1012B000A0B101F055FE054608E001F051FE401BCB
:1012C00041F28831884201D90320BFE646486830A0
:1012D0000068C0F340000028EFD013E001F040FEAA
:1012E000054608E001F03CFE401B41F2883188428F
:1012F00001D90320AAE63C4868300068C0F34000EA
:101300000028EFD1A069E8B33748006800F00C006E
:10131000082872D0A069022850D1002033490866FD
:1013200001F01EFE054606E001F01AFE401B64288F
:1013300001D903208AE62C4808380068C0F34060D1
:101340000028F1D1D4E90701084347F6C07292FAA8
:10135000A2F2B2FA82F2616A914008430122A16AC4
:10136000C2EB51014FF4403292FAA2F2B2FA82F289
:10137000914008434FF0706292FAA2F2B2FA82F200
:10138000E16A00E03BE0914008431749091F08600B
:1013900001201649086601F0E3FD054606E001F06C
:1013A000DFFD401B642801D903204FE60E480838B2
:1013B0000068C0F340600028F1D020E000200B4915
:1013C000086601F0CDFD054606E001F0C9FD401BB1
:1013D000642801D9032039E6034808380068C0F3BF
:1013E00040600028F1D10AE008380240000047427E
:1013F000800E474200700040FFE7012026E60020F3
:1014000024E670B504460E460025FE48006800F04C
:101410000F00B0426FD2FB490E700846006800F022
:101420000F00B04201D0012070BD207800F0020012
:10143000022807D1F448006820F0F000A1680843B2
:10144000F1490860207800F0010000283ED0606873
:10145000012807D1EC4808380068C0F34040B8B90B
:101460000120E1E76068022802D06068032807D104
:10147000E54808380068C0F3406048B90120D3E768
:10148000E14808380068C0F3400008B90120CBE704
:10149000DD48006820F0030061680843DA4908600D
:1014A00001F05EFD05466068012810D108E001F0FA
:1014B00057FD401B41F28831884201D90320B3E730
:1014C000D148006800F00C000428F0D1CDE060683D
:1014D000022811D108E001F043FD401B41F28831A0
:1014E000884201D903209FE7C748006800F00C003C
:1014F0000828F0D1B9E024E06068032810D108E0A2
:1015000001F02EFD401B41F28831884201D90320B1
:101510008AE7BD48006800F00C000328F0D1A4E081
:1015200008E001F01DFD401B41F28831884201D9DD
:10153000032079E7B448006800F00C000028F0D1DF
:1015400093E0207800F00200022807D1AE4800683E
:1015500020F0F000A1680843AB490860207800F053
:101560000100002877D06068012807D1A648083814
:101570000068C0F34040B8B9012055E76068022810
:1015800002D06068032807D19F4808380068C0F37C
:10159000406048B9012047E79B4808380068C0F31D
:1015A000400008B901203FE79748006820F0030099
:1015B000616808439449086001F0D2FC0546606800
:1015C000012810D108E001F0CBFC401B41F288312A
:1015D000884201D9032027E78B48006800F00C00FF
:1015E0000428F0D137E06068022810D108E001F04B
:1015F000B7FC401B41F28831884201D9032013E730
:101600008148006800F00C000828F0D123E06068F1
:10161000032810D108E001F0A3FC401B41F28831FF
:10162000884201D90320FFE67748006800F00C00EB
:101630000328F0D10FE008E001F092FC401B41F2DA
:101640008831884201D90320EEE66F48006800F037
:101650000C000028F0D16B490E700846006800F0BD
:101660000F00B04201D00120DEE6207800F0040037
:10167000042807D16448006820F4E050E16808437A
:1016800061490860207800F00800082808D15E4809
:10169000006820F46040216940EAC1005A490860AE
:1016A0000F20FEF796FD0020BEE670B586B0064618
:1016B0000C46154636BB00BF53482830006840F042
:1016C00001005149283108600846006800F0010017
:1016D000009000BF00BF88150190022002900320F7
:1016E000049000200390059001A94848FFF7D8FA1C
:1016F0004548006820F0EC6044EA0501084342498F
:10170000086025E000BF40482830006840F0040031
:101710003D49283108600846006800F00400009048
:1017200000BF00BF481501900220029003200490E2
:1017300000200390059001A93548FFF7B1FA32481F
:10174000006820F0784044EAC50108432E4908604B
:1017500006B070BD01202F49C864704700202D4994
:10176000C864704770B50021002200230020264C79
:10177000246804F00C0424B1042C04D0082C4FD1AC
:1017800003E025484EE025484CE01F4C241F246808
:1017900004F03F011C4C241F246804F4800484B12D
:1017A0001E4CB4FBF1F5184C241F246847F6C07694
:1017B000344096FAA6F6B6FA86F6F44005FB04F233
:1017C0000FE0154CB4FBF1F50F4C241F246847F6CD
:1017D000C076344096FAA6F6B6FA86F6F44005FBD3
:1017E00004F2094C241F246804F440344FF44035BB
:1017F00095FAA5F5B5FA85F5EC40641C6300B2FBDB
:10180000F3F00FE0003C02400838024000000240C4
:1018100000080240000047420024F40000127A0051
:101820007E4800BF00BF70BD10B5FFF79BFF7C492D
:10183000096801F0F001F02292FAA2F2B2FA82F203
:10184000D140784A515CC840774908600846006832
:1018500010BD10B5FFF7E8FF7149096801F4E051C8
:101860004FF4E05292FAA2F2B2FA82F2D1406D4AFB
:10187000515CC84010BD10B5FFF7D6FF6849096834
:1018800001F460414FF4604292FAA2F2B2FA82F29D
:10189000D140644A515CC84010BD0F2101606049CD
:1018A0000839096801F48021B1F5802F02D10521A2
:1018B00041600CE05A490839096801F48031B1F5FA
:1018C000803F02D10121416001E000214160544983
:1018D0000839096801F0010111B10121C16001E07D
:1018E0000021C1604E490839096801F0F801F82269
:1018F00092FAA2F2B2FA82F2D1400161484968310B
:10190000096801F00401042902D1052181600AE07F
:1019100043496831096801F0010111B10121816079
:1019200001E0002181603E496C31096801F001014C
:1019300011B10121416101E00021416138490839BB
:10194000096801F08071B1F1807F02D102218161CB
:1019500001E0012181613249091F096801F4800217
:10196000C2612F49091F096801F03F0202622C4938
:10197000091F096847F6C072114092FAA2F2B2FA42
:1019800082F2D14041622649091F096801F44031C1
:1019900001F5803149004FF4403292FAA2F2B2FAD6
:1019A00082F2D14081621E49091F096801F070610D
:1019B0004FF0706292FAA2F2B2FA82F2D140C162A2
:1019C00070470F220260164A126802F0030242605A
:1019D000134A126802F0F0028260114A126802F49F
:1019E000E052C2600E4A126802F46042D2080261FC
:1019F0000E4A126802F00F020A607047704710B575
:101A00000748001D006800F08000802805D1FFF71E
:101A1000F5FF80200249891D087010BD0024F400E4
:101A2000083802407C7A000850000020003C024048
:101A30002DE9F041044600252068056925F440554C
:101A4000E0680543206805612068C56849F20C60BC
:101A500085432169A068084361690843E169084337
:101A600005432068C5602068456925F44075A06974
:101A7000054320684561E069B0F5004F72D1FE4929
:101A80002068884203D0FD492068884234D1FFF79E
:101A9000F2FE00EBC00101EB001061684900B0FBF1
:101AA000F1F06421B0FBF1F6FFF7E5FE00EBC001B9
:101AB00001EB001061684900B0FBF1F7FFF7DBFEB6
:101AC00000EBC00101EB001061684900B0FBF1F0D0
:101AD0006421B0FBF1F000EBC00101EB0010A7EBBB
:101AE0008000322101EB00106421B0FBF1F066F3BD
:101AF0001F1021688860A6E0FFF7ABFE00EBC00175
:101B000001EB001061684900B0FBF1F06421B0FB0B
:101B1000F1F6FFF79EFE00EBC00101EB00106168DB
:101B20004900B0FBF1F7FFF794FE00EBC00101EBB9
:101B3000001061684900B0FBF1F06421B0FBF1F0E6
:101B400000EBC00101EB0010A7EB8000322101EB9C
:101B500000106421B0FBF1F066F31F10216888606B
:101B600071E0FFE7C4492068884203D0C349206878
:101B7000884234D1FFF77FFE00EBC00101EB00107B
:101B800061688900B0FBF1F06421B0FBF1F6FFF76A
:101B900072FE00EBC00101EB001061688900B0FB30
:101BA000F1F7FFF768FE00EBC00101EB0010616880
:101BB0008900B0FBF1F06421B0FBF1F000EBC00153
:101BC00001EB0010A7EB8000322101EB0010642133
:101BD000B0FBF1F066F31F102168886033E0FFF777
:101BE00038FE00EBC00101EB001061688900B0FB1A
:101BF000F1F06421B0FBF1F6FFF72BFE00EBC00122
:101C000001EB001061688900B0FBF1F7FFF721FEDE
:101C100000EBC00101EB001061688900B0FBF1F03E
:101C20006421B0FBF1F000EBC00101EB0010A7EB69
:101C30008000322101EB00106421B0FBF1F066F36B
:101C40001F1021688860BDE8F081704710B5044618
:101C50000CB9012010BDA06900B100E000BF94F8EC
:101C6000390028B9002084F838002046FFF7EDFF3E
:101C7000022084F839002068C06820F400502168F0
:101C8000C8602046FFF7D4FE2068006920F4904029
:101C9000216808612068406920F02A0021684861B5
:101CA0002068C06840F400502168C8600020E063EC
:101CB000012084F839000020CCE710B504460CB9A7
:101CC000012010BD94F8390028B9002084F83800AC
:101CD0002046FFF7BAFF022084F839002068C06868
:101CE00020F400502168C8602046FFF7A1FE20685C
:101CF000006920F49040216808612068406920F064
:101D00002200216848612068406940F0080021688D
:101D100048612068C06840F400502168C860002015
:101D2000E063012084F839000020CAE770B504465A
:101D30000D460CB9012070BD94F8390028B9002077
:101D400084F838002046FFF780FF022084F839002D
:101D50002068C06820F400502168C8602046FFF762
:101D600067FE2068006920F400602168086120682F
:101D7000406920F02A00216848612068006940F429
:101D80008040216808612068006920F020002168F7
:101D90000861206800692843216808612068C068DC
:101DA00040F400502168C8600020E063012084F8FE
:101DB00039000020BFE770B504460D4616460CB941
:101DC000012070BD94F8390028B9002084F838004B
:101DD0002046FFF73AFF022084F839002068C068E7
:101DE00020F400502168C8602046FFF721FE2068DB
:101DF000006920F49040216808612068406920F063
:101E00002A00216848612068006920F00F002168DD
:101E10000861206800692843216808612068C0685B
:101E200020F400602168C8602068C06830432168E1
:101E3000C8602068C06840F400502168C860002075
:101E4000E063012084F839000020BAE7704710B53C
:101E500004460CB9012010BD022084F83900204648
:101E6000FFF7F4FF0020E06384F8390000BF84F836
:101E7000380000BF00BFEEE7001001400014014031
:101E80002DE9F04104460E4617461D464FF0000866
:101E900001F066F880469FBB2BE0681C48B32DB16B
:101EA00001F05EF8A0EB0800A84222D92068C068C3
:101EB00020F080002168C8602068C06820F0200001
:101EC0002168C8602068C06820F480702168C860FC
:101ED0002068406920F0010021684861012084F8F1
:101EE000390000BF002084F8380000BF0320BDE89F
:101EF000F081206800683040B04202D1012001E04A
:101F000003E000200028C8D035E02AE0681C40B378
:101F10002DB101F025F8A0EB0800A84221D92068D6
:101F2000C06820F080002168C8602068C06820F088
:101F300020002168C8602068C06820F48070216893
:101F4000C8602068406920F00100216848610120D4
:101F500084F8390000BF002084F8380000BF032057
:101F6000C5E7206800683040B04201D1012000E0A0
:101F700000200028CAD10020B9E72DE9F047044627
:101F80000D46164699464FF0000894F83980B8F18E
:101F9000010F02D0B8F1220F65D105B116B90120A9
:101FA000BDE8F08700BF94F83800012801D1022075
:101FB000F6E7012084F8380000BF0020E06394F8C1
:101FC0003900222803D1322084F8390002E012209F
:101FD00084F83900A684E68428E0E08C401EE08482
:101FE000A068B0F5805F14D14B46002280212046C6
:101FF000FFF746FF08B10320D2E72F463888C0F329
:10200000080021684860206908B9AD1C0EE06D1C0D
:102010000CE04B46002280212046FFF731FF08B13B
:102020000320BDE715F8010B21684860E08C00280B
:10203000D3DC4B46002240212046FFF721FF08B1A8
:102040000320ADE794F83900322803D1222084F828
:10205000390002E0012084F8390000BF002084F834
:10206000380000BF9CE702209AE72DE9F0470446BC
:102070000D46164699464FF0000894F83980B8F19D
:10208000010F02D0B8F1120F69D105B116B90120C4
:10209000BDE8F08700BF94F83800012801D1022084
:1020A000F6E7012084F8380000BF0020E06394F8D0
:1020B0003900122803D1322084F8390002E02220AE
:1020C00084F83900A685E68535E0E08D401EE08580
:1020D000A068B0F5805F18D14B4600222021204631
:1020E000FFF7CEFE08B10320D2E72F46206930B9B2
:1020F00020684068C0F308003880AD1C1BE02068F1
:102100004068C0B238806D1C15E04B46002220218B
:102110002046FFF7B5FE08B10320B9E7206920B9D2
:102120002068406805F8010B05E02068406800F071
:102130007F0005F8010BE08D0028C6DC94F839001B
:10214000322803D1122084F8390002E0012084F8FB
:10215000390000BF002084F8380000BF98E7022053
:1021600096E730B50346002493F83940012C01D09E
:10217000222C37D101B10AB9012030BD00BF93F83C
:102180003800012801D10220F7E7012083F8380048
:1021900000BF19629A84DA840020D86393F839006A
:1021A000222803D1322083F8390002E0122083F87C
:1021B00039001868C06840F480701D68E8601868CD
:1021C000406940F001001D68686100BF002083F88D
:1021D000380000BF1868C06840F080001D68E860E3
:1021E0000020CAE70220C8E730B50346002493F870
:1021F0003940012C01D0122C37D101B10AB901208C
:1022000030BD00BF93F83800012801D10220F7E764
:10221000012083F8380000BF99629A85DA85002092
:10222000D86393F83900122803D1322083F839009B
:1022300002E0222083F839001868C06840F48070FA
:102240001D68E8601868406940F001001D68686119
:1022500000BF002083F8380000BF1868C06840F055
:1022600020001D68E8600020CAE70220C8E7704728
:1022700070B50546AC6B0020E085E084012084F851
:102280003900E06B40F01000E0632046FFF7EFFFFD
:1022900070BD704770B50446A56B2846FFF7F9FF7F
:1022A00070BD704770B50546AC6B2868006800F4D7
:1022B000807070B90020E0842068406920F08000C0
:1022C000216848612068C06840F040002168C8600B
:1022D00002E02046FFF7E5FF70BDF7B5044615465E
:1022E000002794F83970012F01D0222F41D1019895
:1022F00000B10DB90120FEBD00BF94F838000128DF
:1023000001D10220F7E7012084F8380000BF0198CE
:102310002062A584E5840020E06394F83900222837
:1023200003D1322084F8390002E0122084F8390009
:10233000F748216BC863F748216B0864F648216BA6
:10234000886401AE23681A1D31682B46206BFEF7A6
:1023500063FA6FF04000216808602068406940F02F
:1023600080002168486100BF002084F8380000BF69
:10237000C1E70220BFE7704770B50446A56B284649
:10238000FFF7F9FF70BD704770B50546AC6B286864
:10239000006800F4807090B90020E08520684069F2
:1023A00020F040002168486194F83900322803D1B8
:1023B000122084F8390002E0012084F83900204618
:1023C000FFF7E1FF70BDF7B504461546002794F806
:1023D0003970012F01D0122F3CD1019800B10DB9F5
:1023E0000120FEBD00BF94F83800012801D1022071
:1023F000F7E7012084F8380000BF0198A062A585A6
:102400000020E06394F83900122803D1322084F8C8
:10241000390002E0222084F83900C048616BC863AB
:10242000BF48616B0864BC48616B886401AE326868
:102430002368191D2B46606BFEF7EEF92068406992
:1024400040F040002168486100BF002084F8380057
:1024500000BFC6E70220C4E7014600BF91F838007C
:10246000012801D102207047012081F8380000BF07
:1024700091F83900122806D10868406920F08000E0
:102480000A6850611AE091F83900222806D10868DC
:10249000406920F040000A6850610FE091F839006F
:1024A00032280BD10868406920F080000A6850612A
:1024B0000868406920F040000A68506100BF0020B1
:1024C00081F8380000BF00BFCDE708B5014600BF66
:1024D00091F83800012801D1022008BD012081F8BF
:1024E000380000BF91F83900122806D10868406909
:1024F00040F080000A6850612CE091F839002228F1
:102500000FD100BF0868006800900868406800901C
:1025100000BF00BF0868406940F040000A68506191
:1025200018E091F83900322814D100BF086800681B
:10253000009008684068009000BF00BF08684069CC
:1025400040F080000A6850610868406940F040002F
:102550000A68506100BF002081F8380000BF00BF4A
:10256000BBE710B504462068406920F08000216870
:1025700048612068406920F0400021684861206B74
:1025800010B1206BFEF77DF9606B10B1606BFEF748
:1025900078F9012084F83900002010BD10B50446F8
:1025A0002068C06820F040002168C86094F83900B5
:1025B000322803D1222084F839000EE02068C06858
:1025C00020F480702168C8602068406920F0010014
:1025D00021684861012084F839002046FFF761FE38
:1025E000002010BD10B50146002391F83930122BA0
:1025F00001D0322B2CD18868B0F5805F0FD10A6AE8
:102600001088C0F308000C686060086918B9086A8F
:10261000801C086209E0086A401C086205E00C6A38
:10262000601C086220780C686060C88C401E80B214
:10263000C88458B90868C06820F080000C68E06061
:102640000868C06840F040000C68E060002010BDE1
:102650000220FCE770B50446002694F83960222E6B
:1026600001D0322E52D1A068B0F5805F13D1A56A97
:10267000206940B920684068C0F308002880A06A3B
:10268000801CA06219E020684068C0B22880A06A5F
:10269000401CA06211E0206938B920684068C1B2CE
:1026A000A26A501CA062117007E02068406800F028
:1026B0007F01A26A501CA0621170E08D401E80B2A2
:1026C000E08508BB2068C06820F020002168C86051
:1026D00094F83900322803D1122084F839000EE032
:1026E0002068C06820F480702168C8602068406954
:1026F00020F0010021684861012084F8390020465B
:10270000FFF741FE002070BD0020FCE70220FAE741
:10271000A5220008952200087122000889230008DC
:1027200079230008F8B504460025002620680068D3
:1027300000F001052068C06800F480766DB166B1D4
:1027400000BF20680068009020684068009000BFCB
:1027500000BFE06B40F00100E06320680068C0F358
:1027600040052068406900F001066DB166B100BF08
:1027700020680068009020684068009000BF00BF9B
:10278000E06B40F00400E06320680068C0F380055F
:102790002068406900F001066DB166B100BF206895
:1027A0000068009020684068009000BF00BFE06BA8
:1027B00040F00200E06320680068C0F3C0052068B4
:1027C000406900F001066DB166B100BF2068006885
:1027D000009020684068009000BF00BFE06B40F0B0
:1027E0000800E06320680068C0F340152068C068F6
:1027F00000F020061DB116B12046FFF72BFF206820
:102800000068C0F3C0152068C06800F080061DB1E4
:1028100016B12046FFF7E6FE20680068C0F3801579
:102820002068C06800F040061DB116B12046FFF7D1
:10283000B5FEE06B28B1012084F839002046FFF78F
:1028400016FDF8BD014600BF91F83800012801D1FE
:1028500002207047012081F8380000BF022081F873
:1028600039000868C06840F001000A68D0600120A3
:1028700081F8390000BF002081F8380000BF00BF98
:10288000E7E7014600BF91F83800012801D1022096
:102890007047012081F8380000BF022081F839001C
:1028A0000868C06840F002000A68D060012081F822
:1028B000390000BF002081F8380000BF00BFE7E703
:1028C000014600BF91F83800012801D1022070476D
:1028D000012081F8380000BF022081F83900086823
:1028E000C06820F002000A68D060012081F8390039
:1028F00000BF002081F8380000BF00BFE7E70146B5
:10290000002200BF91F83800012801D10220704751
:10291000012081F8380000BF022081F839000868E2
:10292000C26822F00C0242F008020868C26001206E
:1029300081F8390000BF002081F8380000BF00BFD7
:10294000E5E70146002200BF91F83800012801D1D7
:1029500002207047012081F8380000BF022081F872
:1029600039000868C26822F00C0242F004020868CC
:10297000C260012081F8390000BF002081F83800D2
:1029800000BF00BFE5E7014691F8390070470146F6
:10299000C86B704700B593B000BF2648006840F090
:1029A0008050244908600846006800F0805001907B
:1029B00000BF00BF00BF2048006840F440401E49EF
:1029C00008600846006800F44040019000BF00BF66
:1029D000012002900390002005904FF4800109919E
:1029E0000220089008210A914FF4C8710B9104212C
:1029F0000C9107210D9102A8FEF701FB10B10120F7
:102A000013B000BD02200F900020109007200E9000
:102A10000E9840F008000E904FF480501190002066
:102A2000129006210EA8FEF7ECFC08B10120E7E7A2
:102A30000020E5E7403802400070004001464FF4B6
:102A40000030081AC0F38F2070472DE9F043044688
:102A50000E461546DDE907892046FFF7EFFFC7B2AE
:102A6000002243E001209040304000B93CE0B148F2
:102A700030F81700012191400843AE4921F81700B2
:102A8000E0684FEA420C032101FA0CF1884351003F
:102A900008FA01F10843E06020684FEA420C032184
:102AA00001FA0CF18843510005FA01F10843206056
:102AB000012D01D0022D16D161680120904080B215
:102AC00021EA000003FA02F189B208436060A068BD
:102AD0004FEA420C032101FA0CF18843510009FA34
:102AE00001F10843A06000BF501CC2B2102AB9DB3C
:102AF000BDE8F08300B502461046FFF79FFF0121B5
:102B000001FA00F08C49096808438B49086000BD50
:102B10002DE9FC4305460C4616461F46DDE90989AA
:102B20000CB9BDE8FC832846FFF7E4FF3B4632467C
:102B300021462846CDE90089FFF787FF00BFF0E76F
:102B40002DE9FC4705460E4617469846DDE90A9AE8
:102B50000EB9BDE8FC872846FFF7CCFF00241AE039
:102B60000120A040304000B914E0E10805F1200048
:102B700050F821006107CA0E0F2191408843610778
:102B8000C90E0AFA01F10843E20805F1200141F8F3
:102B9000220000BF641C102CE2D33B4602223146C7
:102BA0002846CDE90089FFF750FF00BFD1E770B597
:102BB00003460C461846FFF741FFC5B2002214E059
:102BC00001209040204070B1186856000321B140A8
:102BD00008431860574830F8150001219140884398
:102BE000544921F81500501CC2B2102AE8DB70BD10
:102BF00030B5024600200BE0012383400B402BB18F
:102C0000136845000324AC40A3431360431CD8B2AF
:102C10001028F1DB30BD30B5024600200FE0012363
:102C200083400B404BB1136845000324AC40A343E1
:102C300045000124AC4023431360431CD8B2102844
:102C4000EDDB30BD30B5024600200BE001238340B0
:102C50000B402BB1136845000324AC4023431360A1
:102C6000431CD8B21028F1DB30BD30B5024600203D
:102C700011E0012383400B4003B90AE013684500CB
:102C80000324AC40A34345000224AC40234313601B
:102C900000BF431CD8B21028EBDB30BD70B5034633
:102CA000002011E0012484400C4004B90AE0DC68F3
:102CB00046000325B540AC43450002FA05F52C4318
:102CC000DC6000BF441CE0B21028EBDB70BD41F4B7
:102CD0008032C261C161C261C369C3697047014684
:102CE000002002E0421C90B249100129FADC704732
:102CF00000B502461046FFF7A1FE012181400E48B3
:102D0000006888430C49086000BD00B502461046C3
:102D1000FFF794FE074931F8100000BD00B50246E8
:102D20001046FFF78BFE034931F81000C04380B214
:102D300000BD000074000020303802409748006851
:102D400020F08070954A10601046006840F0807056
:102D500010609348006820F00100914A106010460E
:102D6000006840F00100106000205060104641688B
:102D700000BF00BF8A484068401A70472DE9F047FD
:102D800005460E4617469846DDF82090854800789F
:102D9000052802DB0020BDE8F087142004F034FE93
:102DA00004460CB90020F6E765606068A0602078F2
:102DB00066F300002070207867F341002070C4F8AB
:102DC0000C80C4F81090774801780078401C754A50
:102DD0001070101D40F821402046DCE72DE9F0413D
:102DE0000646002408E06F48001D50F82400B04259
:102DF00000D105E0601CC4B26A480078A042F2DC51
:102E000000BF68480078A04201D1BDE8F081654864
:102E1000001D50F8247000BFEFF31080054672B615
:102E200008E06048001D611C50F8211040F8241093
:102E3000601CC4B25B480078401EA042F1DC5948D7
:102E40000078401E57490870384604F0B5FD05B9B2
:102E500062B600BFD9E7017821F002010170704726
:102E6000017821F00201891C01707047416881607E
:102E7000704709B1012200E00022037862F30003E9
:102E80000370704741607047704710B5464800684E
:102E9000401C454908604548006820B14348006827
:102EA000401E42490860002453E03E48001D50F88F
:102EB000240000284BD03B48001D50F82400007827
:102EC000C0F34000F0B33748001D50F8240080687C
:102ED00050B13448001D50F824008068401E31492C
:102EE000091D51F8241088602E48001D50F8240058
:102EF000806838BB2B4B1B1D53F824301969294BB4
:102F00001B1D53F8240053F82430DA6890472548F5
:102F1000001D50F8240041682248001D50F824008C
:102F200081602048001D50F82400007800F0010066
:102F300040B91C48001D50F82400007820F0020120
:102F4000184800E003E0001D50F824000170601CE8
:102F5000C4B214480078A042A7DC00F020FD10BDE8
:102F600011480068704700B5014600BFEFF30580C7
:102F700048B9FFF7F5FF024600BFFFF7F1FF801ADF
:102F80008842FAD309E006E04FF0E020006900F43F
:102F9000803000B1491E0029F6D100BDFCED00E0F3
:102FA000001000E090000020080000200400002035
:102FB0001CB5032000210B460122CDE90010202181
:102FC0001E48FFF7A5FD4FF400101C4988611CBD89
:102FD0001CB50020012103460246CDE9001049033B
:102FE0001748FFF795FD1CBD154810300068C0F369
:102FF000403080F0010030B11248007830B9012033
:1030000010490870704700200E4908700020F9E749
:103010000B4810300068C0F3403080F0010038B930
:103020000848007838B10020064908700120704730
:103030000120044908700020F9E700000000024068
:10304000000802400C00002070B504460D461646EC
:103050001421204604F051F92580A6600A206073EF
:10306000A06868B9284604F0CFFCA060A06818B931
:1030700000202080012070BD207B40F002002073E2
:10308000207B40F0010020730020F4E710B50446D7
:1030900004B910BD207B00F0020010B1A06804F05C
:1030A0008BFC00202073208000BFF2E770B5034640
:1030B00000240BB9002070BD58881D88A84201DB90
:1030C000002058801BE05D889888401E854206D00D
:1030D000988828B95D881888401E854200D113E081
:1030E00011F8015B5E88701C588098688555601CDB
:1030F000C4B258881D88A84201DB00205880101EE9
:10310000A2F10105AAB2DED100BF2046D3E730B557
:10311000034600240BB9002030BD98881D88A842C2
:1031200001DB0020988013E098885D88A84200D1D8
:1031300013E09D88681C98809868405D01F8010B39
:10314000601C84B298881D88A84201DB002098800A
:10315000101EA2F10105AAB2E6D100BF2046DBE7AE
:1031600030B5014609B9002030BD4A888B889A42A3
:1031700000D10C88934200D99C1A9A4202D908883F
:10318000D51A441B601E80B2EEE730B503460BB97A
:10319000002030BD59889A88914200D10024914284
:1031A00000D98C1A8A4202D91888551A441BA0B239
:1031B000EFE700B9704700214180818000BFF9E747
:1031C0002DE9F04104460F464FF000081CB94FF0BE
:1031D000FF30BDE8F0812046FFF7D7FF0546A688FF
:1031E00012E02088B04200DC0026A068805DB84272
:1031F00002D10FFA88F0ECE7701C86B2681E85B227
:1032000008F101001FFA80F8002DEADC4FF0FF30D2
:10321000DFE72DE9F04F0446894690464FF0000A5B
:10322000D3462CB12046FFF7B0FF0646404503DAEF
:103230004FF0FF30BDE8F08FA58835E02088A84228
:1032400000DC0025A068405D99F80010884201D19B
:103250004FF0010B681C85B2701E86B20AF10100A6
:103260001FFA80FABBF1000F1ED0012714E020885E
:10327000A84200DC0025A068405D19F807108842CC
:1032800004D0781E50441FFA80FA07E0681C85B20B
:10329000701E86B2781C87B24745E8DB00BF474501
:1032A00002D10FFA8AF0C5E7002EC7DC4FF0FF30DD
:1032B000C0E770B505460C46204604F053F886B2C8
:1032C000324621462846FFF7F1FE70BD2DE9F84150
:1032D00006460D461746002416B90020BDE8F881C1
:1032E0003046FFF73DFF8046B8F1000F0DD0717BEF
:1032F0003046FFF765FF002809DAB8F1000F06D065
:103300003046FFF742FFB84201DA0020E6E70EE060
:10331000012269463046FFF7FAFE9DF80000285565
:10332000285D717B884200D104E0601C84B2781E65
:10333000A042EDDC00BF781EA04202D1002028553B
:1033400004E00021601C80B2044629542046C5E7F1
:1033500070B503460C46154600220BB9002070BD1F
:103360005E88998807E0481C81B2501C82B2188898
:10337000884200DC0021A24201DA8E42F3D1A2424F
:1033800004D19868405C28700120E8E70020E6E757
:103390000146FA4A914200D10020F94A914200D1F7
:1033A0000120F84A914200D10620704770471CB5B1
:1033B00004464CB90820032101230022CDE9001066
:1033C000C021F148FFF7BCFB032C03D10821ED48D5
:1033D000FFF7ECFF1CBD1CB504464CB907200321C8
:1033E00001230022CDE900100C21E848FFF7A8FBDB
:1033F000012C09D10720032101230022CDE900106F
:103400006021E348FFF79CFB032C03D10721DC4834
:10341000FFF7CCFF1CBD1CB504464CB907200321A7
:1034200001230022CDE900104902D848FFF788FBAC
:10343000012C09D10720032101230022CDE900102E
:10344000C021D448FFF77CFB032C03D10721CB48D4
:10345000FFF7ACFF1CBD2DE9F04F91B004460D46BF
:1034600016461F46DDE91BABDDF86890C348844271
:103470001FD100BFC848006840F01000C64908606E
:103480000846006800F01000009000BF00BFC2486E
:103490002038006840F01000BF4920390860084615
:1034A000006820F0100008602846FFF7B4FF4FF0D6
:1034B0002508B348844221D100BFB748001F0068E7
:1034C00040F40030B449091F08600846006800F461
:1034D0000030009000BF00BFAF482438006840F4BF
:1034E0000030AD49243908600846006820F40030F7
:1034F00008602846FFF76FFF4FF02608A148844276
:103500001FD100BFA448006840F02000A249086015
:103510000846006800F02000009000BF00BF9E48F1
:103520002038006840F020009B4920390860084698
:10353000006820F0200008602846FFF738FF4FF0B1
:103540004708019402960797CDF81890CDF814A07B
:10355000CDF810B01D980390002108914046FCF76B
:1035600072FF2046FFF714FF0246062100904046F6
:10357000FCF71EFF4046FCF759FF4046FDF73DF8BB
:1035800001A8FEF763FBE06840F02000E06011B0A6
:10359000BDE8F08F7FB504460D4616467748844255
:1035A0000BD100200C23CDE90030029003463246B7
:1035B000294603902046FFF74EFF714884420BD105
:1035C00000200C23CDE90030029003463246294604
:1035D00003902046FFF73FFF6A4884420BD100204A
:1035E0000C23CDE900300290034632462946039071
:1035F0002046FFF730FF7FBD2DE9FF4104460D4611
:1036000016461F465D4884420BD100200C23CDE9AD
:10361000003002903B463246294603902046FFF791
:103620001AFF574884420BD100200C23CDE900300B
:1036300002903B463246294603902046FFF70BFF97
:10364000504884420BD100200C23CDE90030029079
:103650003B463246294603902046FFF7FCFEBDE874
:10366000FF810146454A914200D14C48444A91426B
:1036700000D14B48434A914200D14A48704738B57F
:1036800004462046FFF7EDFF054601226946FFF795
:103690003EFD10B19DF8000038BD0020FCE72DE98B
:1036A000F04104460D4616462046FFF7DAFF07466E
:1036B00032462946FFF70AFEBDE8F0810EE000BF62
:1036C000026802F08002002AFAD011F8012B426051
:1036D00000BF026802F08002002AFAD00A78002AAD
:1036E000EDD1704710B50EE000BF036803F0800312
:1036F000002BFAD011F8013B436000BF036803F0D0
:103700008003002BFAD0131EA2F10104A2B2EBD168
:1037100010BD70B504460D462046FFF7A2FF0646D1
:103720002946FFF74DFD70BD2DE9F04105460C46D9
:10373000204603F017FE86B22846FFF792FF0746A1
:1037400032462146FFF765FDBDE8F08170B50446BD
:103750002046FFF786FF0546FFF717FD08B9012051
:1037600070BD0020FCE770B504462046FFF779FFE6
:103770000546FFF7F5FCB8B9012070BD0010014007
:1037800000440040001401400008024000000240D4
:10379000000C0240000402404438024010000020A7
:1037A00024000020380000200020E6E770B5044621
:1037B0002046FFF756FF0546FFF7E7FC70BD70B5E2
:1037C00004462046FFF74DFF0546FFF7F2FC70BDAB
:1037D00070B505460C462846FFF743FF447370BD9D
:1037E00013B50446012201A92046FFF75FFC1CBD6A
:1037F00038B505460C463848056000BF00680068CB
:103800000090354800684068009000BF00BF00BFCE
:1038100031480068006800902F48006840680090B8
:1038200000BF00BF00BF2C480068006800902A4815
:1038300000684068009000BF00BF00BF26480068D5
:1038400000680090244800684068009000BF00BFF6
:1038500000BF21480068006800901F480068406869
:10386000009000BF00BF2046FCF7C7FE38BD10B572
:103870001A48006800F0200020B118494968C8B211
:1038800003F019FD25211548FFF7B2FF10BD10B553
:103890001348006800F0200030B11148001D006896
:1038A000C1B21048FFF79CFF26210D48FFF7A0FF8B
:1038B00010BD10B50C48006800F0200030B10A4877
:1038C000001D0068C1B20948FFF78AFF472106487A
:1038D000FFF78EFF10BD000008010020001001401E
:1038E0000044004024000020001401403800002063
:1038F00008B5FFF74FF8FCF77EFCFFF759FBFFF721
:1039000067FBFFF71BFA4FF461220021A348FFF782
:1039100041FEA3A003F0E6FD02E0A9A003F0E2FD52
:103920004FF4E131B04802F00CF90028F5D100BFA6
:103930000321AD4802F079F80028F9D100BF5021E9
:10394000A94802F054FC0028F9D1A8A003F0CAFD50
:10395000A54802F045FDA44802F087FEA24801F008
:1039600093FFA9A2ACA1A04802F05EFD9E4801F021
:103970008BFF9D4802F0AAFD10E09B4801F00AFE73
:10398000FFF732FB50B100BF00205023A5A2ABA12E
:103990000090954803F028F80028F5D1EDE710B520
:1039A0000121914802F060FB10BD08B5C2B200923F
:1039B0007A4AD26802F400528AB100BF774A12688C
:1039C00002F08002002AF9D09DF80020734B5A6063
:1039D00000BF724A126802F08002002AF9D000BFCC
:1039E00008BD10B504469AA003F07CFD10BD10B5CB
:1039F00004469CA003F076FD10BD10B50446A0A0BF
:103A000003F070FD10BD10B50446A3A003F06AFDDD
:103A100010BD10B5044694F88E12A5A003F062FD07
:103A200010BD70B50446AFA003F05CFD204602F067
:103A300057FD05462946B2A003F054FD70BD38B5C8
:103A4000044640F2D710005D00904FF4EB70035D28
:103A5000401E025D94F8D411B0A003F043FD38BDC0
:103A600010B50446B7A003F03DFD10BD70B5064685
:103A70000C46002594F85411B6A003F033FD00BFA6
:103A80000AE005EB051004EB4000421C2946BAA0F1
:103A900003F028FD681CC5B294F85401A842F0DC7C
:103AA00070BD70B505460C4604F12401B5A003F0C5
:103AB00019FD2146284602F0EFFA70BD70B50546A3
:103AC0000C466178BCA003F00DFD70BD2DE9F041FE
:103AD00005460E4614461F46C6A1204603F012FDB9
:103AE000C9A1204603F014FCCFA1204603F010FC2E
:103AF00044A1204603F00CFC204603F033FC80B2C6
:103B0000BDE8F08170B504460D46CCA003F0EAFC98
:103B100070BD70B505460C466178D1A003F0E2FC9B
:103B200070BDF8B505460C461646206A009004F1B3
:103B30002401D748D4E9032303F0D4FC94F84900C6
:103B400038B1D4480068D4490860D448216A03F0E9
:103B5000C9FCF8BD70B506460C466178D048236AAA
:103B6000226903F0BFFCCB480068CB490968401AC2
:103B7000C949086020690968B0FBF1F52A46C648C2
:103B80000168C8A003F0AEFC70BD70B505460C46D8
:103B90006178CEA003F0A6FC70BD00000044004098
:103BA0004553503832363620415420636F6D6D6175
:103BB0006E6473207061727365720D0A00000000FC
:103BC00050726F626C656D73207769746820696EDE
:103BD000697469616C697A696E67206D6F64756C70
:103BE00065210D0A0000000048010020496E69743B
:103BF00069616C697A6174696F6E2066696E697358
:103C0000686564210D0A0000796F75722070617318
:103C100073776F7264000000796F75722053534997
:103C20004400000073746D333266342D646973632D
:103C30006F766572792E636F6D00000073746D335B
:103C40003266345F646973636F7665727900000071
:103C50004465766963652069732072656164790DD6
:103C60000A0000005761746368646F6720726573AF
:103C70006574206465746563746564210D0A0000D1
:103C80005769666920697320646973636F6E6E6536
:103C900063746564210D0A005769666920697320A1
:103CA000636F6E6E6563746564210D0A0000000029
:103CB000436F6E6E656374696F6E20746F207769F1
:103CC0006669206E6574776F726B20686173206619
:103CD00061696C65642E20526561736F6E20256486
:103CE0000D0A00005769666920676F7420616E20B5
:103CF000495020616464726573730D0A000000000E
:103D00004772616262696E67204950207374617402
:103D100075733A2025640D0A00000000576520687D
:103D20006176652076616C69642049502061646425
:103D3000726573733A2025642E25642E25642E2522
:103D4000640D0A00444843502074696D656F7574B2
:103D5000210D0A00576520686176652064657465E9
:103D60006374656420256420415020737461746914
:103D70006F6E730D0A0000002532643A2025730D22
:103D80000A000000436C69656E7420636F6E6E6597
:103D90006374656420746F20736572766572212088
:103DA000436F6E6E656374696F6E206E756D6265CC
:103DB000723A2025730D0A00416E206572726F728F
:103DC000206F636375726564207768656E20747216
:103DD00079696E6720746F20636F6E6E65637420FF
:103DE0006F6E20636F6E6E656374696F6E3A202527
:103DF000640D0A00474554202F20485454502F3159
:103E00002E310D0A00000000486F73743A2073745D
:103E10006D333266342D646973636F766572792E03
:103E2000636F6D0D0A000000436F6E6E6563746909
:103E30006F6E3A20636C6F73650D0A0044617461A4
:103E4000207375636365737366756C6C7920736535
:103E50006E7420617320636C69656E74210D0A00B5
:103E60004572726F72207768696C652073656E6445
:103E7000696E672064617461206F6E20636F6E6E7F
:103E8000656374696F6E202564210D0A00000000CF
:103E90009C7A0008080000204C000020547B000899
:103EA000F47A000854696D6520666F72206461744D
:103EB000613A202575206D733B2073706565643A07
:103EC000202564206B622F730D0A000054696D6514
:103ED0006F75742072656163686564206F6E20631E
:103EE0006F6E6E656374696F6E3A2025640D0A000B
:103EF000704700BFFEE700BFFEE700BFFEE700BF60
:103F0000FEE7704770477047704710B5FEF7BDFF7A
:103F100010BD00003F48006840F470003D49086053
:103F20003D48006840F001003B49086000203A49E4
:103F30000831086038480068384908403649086048
:103F40003748091D0860081F006820F48020091FF9
:103F50000860002030490C3108604FF000602D49A6
:103F600080390860704770B50020002202230024C9
:103F70000221294D08352D6805F00C0020B10428D8
:103F800006D0082834D107E0264D274E356033E0AF
:103F9000264D254E35602FE01F4D2D1D2D68C5F394
:103FA00080541D4D2D1D2D6805F03F0154B11F4D4E
:103FB000B5FBF1F5184E361D3668C6F3881605FBBD
:103FC00006F209E0174DB5FBF1F5134E361D3668C4
:103FD000C6F3881605FB06F20F4D2D1D2D68C5F39F
:103FE00001456D1C6B00B2FBF3F50F4E356003E02D
:103FF0000C4D0D4E356000BF00BF074D08352D68D4
:10400000C5F303150A4E705D074D2D68C540064E79
:10401000356070BD88ED00E000380240FFFFF6FE1D
:10402000103000240024F4005000002000127A0018
:104030008C7A00087047704770B50446002561E02F
:1040400005EB450000EB051104F1580010F82100C4
:10405000E8B305EB450000EB051104F1580000EB57
:104060008100C07F98B305EB450000EB051104F11A
:10407000580000EB8100807810B9606800B13FE023
:10408000002105EB450000EB051204F1580000EBA0
:104090008200C17705EB450000EB051104F15800E3
:1040A00000EB81008078B0B105EB450000EB051313
:1040B00004F1580000EB8300826905EB450000EB3A
:1040C000051304F1580000EB8301204600E016E0E0
:1040D000FFF727FD13E005EB450000EB051304F1A6
:1040E000580000EB8300826905EB450000EB0513E7
:1040F00004F1580000EB83012046FFF79BFF00BF4F
:10410000681CC5B2052D9BDB70BD70B5024600254D
:104110000023002410782D2803D10125521C601C97
:10412000C4B207E0107830380A2603FB0603521C9D
:10413000601CC4B21078302802DB10783928F1DD19
:1041400001B10C700DB1584270BD1846FCE77047C4
:10415000704770470146302905DB392903DCA1F19E
:104160003000C0B27047612905DB662903DCA1F18C
:104170005700C0B2F6E7412905DB462903DCA1F16F
:104180003700C0B2EEE70020ECE70146302903DB40
:10419000392901DC01207047612903DB662901DC34
:1041A0000120F8E7412903DB462901DC0120F2E781
:1041B0000020F0E72DE9F04104460D4600260027D7
:1041C00008E02078FFF7C6FF102106FB0106641CFB
:1041D000781CC7B22078FFF7D8FF0028F1D105B1CD
:1041E0002F703046BDE8F0812DE9F84381460E4638
:1041F00014464FF00008002000900025FBA148461F
:1042000003F0EAF8074618E069463846FFF7D2FFA0
:10421000C2B24046411C01F0FF0832549DF8000034
:104220002844C5B2B8F1060F00DB08E0681CC5B22F
:10423000EEA1002003F0D0F80746002FE4D100BF24
:1042400004B12570BDE8F883704770472DE9F0434D
:1042500085B006460F4614460025A9460F22314672
:10426000684603F031F800208DF80F00E0A16846A1
:1042700003F0B2F8804618E004A94046FFF745FF76
:10428000C2B24846411C01F0FF093A549DF81000A3
:104290002844C5B2B9F1040F00DB09E0681CC5B2BF
:1042A000D3A1002003F098F88046B8F1000FE3D1C5
:1042B00000BF04B1257005B0BDE8F0832DE9F041E1
:1042C00004460F464FF000080E223946C9A003F0FD
:1042D00074F820B90E2501264FF016086EE013225F
:1042E0003946C8A003F069F820B9132502264FF01B
:1042F000160863E013223946C7A003F05EF820B920
:10430000132503264FF0160858E00A223946C7A0A5
:1043100003F053F820B90A2501264FF016084DE0A6
:104320000F223946C4A003F048F820B90F25022611
:104330004FF0160842E00F223946C3A003F03DF8C3
:1043400020B90F2503264FF0160837E00D22394615
:10435000C1A003F032F810B90D2501262EE012227B
:104360003946C1A003F029F810B91225022625E02C
:1043700012223946C1A003F020F810B912250326F5
:104380001CE009223946C2A003F017F810B909252C
:10439000012613E00E223946C0A003F00EF810B932
:1043A0000E2502260AE00E223946C0A003F005F8C9
:1043B00010B90E25032601E0BDE8F081B8F1160F13
:1043C00035D1012E04D0022E11D0032E2DD11DE0A7
:1043D000A91C7818002204F5EA71FFF737FF94F85A
:1043E0009C0220F00100401C84F89C021EE0A91CE5
:1043F0007818002204F5EE71FFF728FF94F89C026C
:1044000020F00200801C84F89C020FE0A91C7818A0
:10441000002204F5EC71FFF719FF94F89C0220F0DC
:104420000400001D84F89C0200E000BF35E0012E6E
:1044300004D0022E11D0032E2DD11DE0A91C781816
:10444000002204F5F371FFF701FF94F89C0220F0BD
:104450001000103084F89C021EE0A91C781800227D
:1044600004F5F771FFF7F2FE94F89C0220F02000AB
:10447000203084F89C020FE0A91C7818002204F573
:10448000F571FFF7E3FE94F89C0220F04000403005
:1044900084F89C0200E000BF00BF00BF8CE77047BB
:1044A000F8B505460F463C4604E020783A2800D18E
:1044B00003E0641C20780028F7D100BF04B9F8BDE0
:1044C000641C002085F8FA012078222800D1641CA1
:1044D000002607E014F8012B3046711CCEB205F51A
:1044E000FD710A54207840B120782228F2D16078FA
:1044F0002C28EFD1A0782228ECD100223046711C64
:10450000CEB205F5FD710A54E41C002607E014F84C
:10451000012B3146701CC6B205F20E2042542078A1
:1045200028B120782228F2D160782C28EFD10022FF
:104530003146701CC6B205F20E204254A41C6946D6
:104540002046FFF7E2FD85F81F029DF80000401CA1
:10455000044469462046FFF7D8FD85F81E029DF801
:104560000000401C044469462046FFF7CEFD85F854
:1045700020029DF80000401C044469462046FFF7D5
:10458000C4FD85F8210200BF99E770472DE9F0418D
:1045900080460D4607260027484890F85401052814
:1045A00001DBBDE8F081A85D282801D1701CC6B2EE
:1045B000A81943A102F010FF0446F0E03846791C28
:1045C000CFB207287ED2DFE800F0047E92A1B7C503
:1045D000D30000212046FFF798FD384991F8541187
:1045E00001EB0111354A02F81100D1E03A00000058
:1045F0002E0000002B4349505354415F4355523A1B
:10460000697000002B4349505354415F4355523A5F
:104610006E65746D61736B002B4349505354415F59
:104620004355523A67617465776179002B4349506D
:104630005354413A697000002B4349505354413A56
:104640006E65746D61736B002B4349505354413A4E
:1046500067617465776179002B43495041505F432E
:1046600055523A69700000002B43495041505F4356
:1046700055523A6E65746D61736B00002B4349505F
:1046800041505F4355523A67617465776179000024
:104690002B43495041503A69700000002B43495068
:1046A00041503A6E65746D61736B00002B43495045
:1046B00041503A676174657761790000140A0020FF
:1046C0002C00000063E0641C204602F04BFE401EFC
:1046D00000212154FE4991F8541101EB0111FC4ACB
:1046E00002EB4101481C214602F05EFE50E0002131
:1046F0002046FFF70AFD00B2F54991F8541101EB8D
:104700000111F34A02EB4101C88241E0641C2046DA
:1047100002F028FE401E00212154ED4890F854017B
:1047200000EB0010EA4A02EB400000F11801002201
:104730002046FFF759FD2BE000212046FFF7E5FC5E
:10474000E34991F8541101EB0111E14A02EB4101F7
:1047500088771DE000212046FFF7D7FCDC4991F85F
:10476000541101EB0111DA4A02EB4101C8770FE065
:1047700000212046FFF7C9FCD54991F8541101EBFF
:104780000111D34A02EB410181F8200000E000BF93
:1047900000BFAFF2D401002002F01EFE0446002C40
:1047A0007FF40CAFCA4890F85401401CC84981F806
:1047B000540100BFF5E6F8B505460E463446C5A1DE
:1047C000304602F0B1FD00B9F8BD00E0641C20786D
:1047D00010B120782228F9D1207800B9F4E7641CC0
:1047E000002707E014F8012B3846791CCFB205F5F5
:1047F0001D710A54207840B120782228F2D16078C7
:104800002C28EFD1A0782228ECD100223846791C40
:10481000CFB205F51D710A54E41C6A4610312046DA
:10482000FFF7E2FC9DF80000801C04446946204626
:10483000FFF76BFCC1B240F28A2041559DF80000A1
:10484000401C044469462046FFF75FFC01B24FF468
:104850002370415300BFB7E77047704770472DE999
:10486000F04705460E4617469846A946BA46002424
:104870000BE009EB04004246514602F088FD18B9EE
:1048800009EB0400BDE8F087641CB442F1D30020BA
:10489000F8E7704770477047704770477047704738
:1048A0007047704770472DE9FC5F04460D469346FC
:1048B00099460026E06C2065B9F1020F07D12878EF
:1048C0000D2804D168780A2801D1BDE8FC9F6068F2
:1048D000002833D0BBF1000F30D080A1284602F071
:1048E00048FD00282AD07FA1284602F042FD28B3C7
:1048F0007FA1284602F03DFD00B37FA1284602F0CB
:1049000038FDD8B17EA1284602F033FDB0B10522B2
:104910007EA1284602F051FD80B104F1080002F0AA
:1049200021FD8246524604F10801284602F045FD69
:1049300020B12946774802F03CFCC6E76EA1284624
:1049400002F017FD10B92046FFF74BF872A1284678
:1049500002F00FFD10B92046FFF749F82046FFF797
:104960006BFB70A1284602F004FD60B940F29D2067
:10497000005D20F00400001D40F29D2108552046F6
:10498000FFF741F83BE06CA1284602F0F2FCE0B9E9
:1049900040F29D20005D20F0040140F29D20015571
:1049A000005D20F0080140F29D2001551A2104F518
:1049B0001D7002F0A2FC4FF4BE7104F1580002F029
:1049C0009CFC2046FFF719F819E060A1284602F088
:1049D000D0FC60B940F29D20005D20F00800083056
:1049E00040F29D2108552046FFF71BF807E05BA128
:1049F000284602F0BEFC10B92046FFF731F839A175
:104A0000284602F091FCE8B300206060824638E05E
:104A10000AEB4A0000EB0A1104F1580000EB810098
:104A2000407D50B300210AEB4A0000EB0A1204F16A
:104A3000580000EB820041750AEB4A0000EB0A11B6
:104A400004F1580000EB8100807858B10AEB4A006D
:104A500000EB0A1204F1580000EB82012046FFF738
:104A600051F80AE00AEB4A0000EB0A1204F1580080
:104A700000EB82012046FFF70EFF0AF1010000F073
:104A8000FF0A00E003E0BAF1050FC1DB00BFB9F196
:104A90000A0F71DDA9F10A0148190A2333A2494618
:104AA000FFF7DDFE071E7AD017F8010C303800EB57
:104AB000400101EB001104F1580000EB81080120D6
:104AC00088F8000017F8010C303888F8010054E02D
:104AD000140A00202B43574A41505F004F4B0D0AE8
:104AE0000000000053454E44204F4B0D0A000000CB
:104AF0004552524F520D0A0072656164790D0A00E9
:104B00006275737920702E2E2E0D0A002B495044A9
:104B10002C000000EC03002077647420726573653C
:104B2000740D0A005749464920434F4E4E454354A1
:104B300045440D0A000000005749464920444953A6
:104B4000434F4E4E4543540D0A0000005749464915
:104B500020474F542049500D0A000000444843505C
:104B60002054494D454F5554000000002C434F4EF2
:104B70004E4543540D0A000011E098F8020048B178
:104B800060680A2801D10020606041462046FEF797
:104B900088FFC4E041462046FFF77BFEBFE0FEA150
:104BA000284602F0C1FB0028F3D1B9F1090F7CDDE2
:104BB000A9F1090148190923FCA24946FFF74FFE54
:104BC000071E7AD0BD4278D0681C87426FD117F893
:104BD000010C303800EB400101EB001104F15800EA
:104BE00000EB810090F802A017F8010C303800EBC0
:104BF000400101EB001104F1580010F82100009071
:104C000000BF002117F8010D303800EB400202EB25
:104C1000001204F1580000F822103878303800EB08
:104C2000400202EB001204F1580000EB8200817098
:104C30003878303800EB400202EB001204F15800E3
:104C400000EB820080F8491017F8010B303800EBB8
:104C5000400202EB001204F1580000EB820080F8E1
:104C6000481000BF0098F8B1BAF1000F0ED017F845
:104C7000010C303800EB400202EB001204F1580046
:104C800000EB82012046FEF765FF15E017F8010CE6
:104C9000303800EB400202EB001204F1580000EB48
:104CA00082012046FFF7D9FD06E006E0FFE7791E06
:104CB0000A22C14802F078F931E0B9F1100F2EDD77
:104CC000A9F10F014819BDA102F02EFB071E26D045
:104CD00017F8010C303800EB400101EB001104F132
:104CE000580000EB810800BF002088F8000088F819
:104CF000020088F8490088F8480000BF17F8010C46
:104D0000303888F8010098F8020040B160680A283D
:104D100001D10020606041462046FEF7CFFE05220B
:104D2000AFF21821284602F048FB00287DD1CA4680
:104D3000012084F8220284F829B20526A85D3038C3
:104D4000C1B24FF40A700155A049005D00EB40026A
:104D500002EB001204F1580000EB820081614FF475
:104D60000A70015D005D00EB400202EB001204F1ED
:104D7000580000EB82004170B61CA81901A9FFF78A
:104D8000C4F94FF40A71095D01EB410202EB011213
:104D900004F1580101EB8201C8604FF40A70005D14
:104DA00000EB400101EB001104F1580000EB810021
:104DB0000069E0B900214FF40A70005D00EB400289
:104DC00002EB001204F1580000EB820080F848105A
:104DD00001214FF40A70005D00EB400202EB00126B
:104DE00004F1580000EB820080F849100DE000212A
:104DF0004FF40A70005D00EB400202EB001204F178
:104E0000580000EB820080F849104FF40A70005DF2
:104E100000EB400101EB001104F1580000EB8100B0
:104E200001694FF40A70005D00E00FE100EB400201
:104E300002EB001204F1580000EB8200C06801444C
:104E40004FF40A70005D00EB400202EB001204F127
:104E5000580000EB820001614FF40A70005D00EB26
:104E6000400202EB001204F1580000EB8200D4F87B
:104E70009012C0680844C4F890029DF80400401CD9
:104E800006444FF40A72125D02EB420303EB021375
:104E900004F1580202EB8302911DA81901AAFFF741
:104EA000D5F99DF80400401C0644A81901A9FFF794
:104EB0002CF981B24FF40A70005D00EB400202EB66
:104EC000001204F1580000EB8200818000BF002630
:104ED00000E0761CA85D3A2801D05645F9D3761C2F
:104EE000AAEB06014FF40A70005D00EB400202EBF2
:104EF000001204F1580000EB8200C06881420ED914
:104F00004FF40A70005D00EB400101EB001104F169
:104F1000580000EB8100808930441FFA80FAAAEB28
:104F20000602A9194FF40A731B5D03EB430C0CEB4B
:104F3000031C04F1580303EB8C03986902F0C4F9D5
:104F4000AAEB06014FF40A70005D00EB400202EB91
:104F5000001204F1580000EB8200C068814219D9A8
:104F600000214FF40A70005D00EB400202EB0012DA
:104F700004F1580000EB820082694FF40A70005D72
:104F800000EB400303EB001304F1580000EB830037
:104F9000C06811541CE00000414C52454144592066
:104FA000434F4E4E45435445440D0A002C434C4F4D
:104FB0005345440D0A000000EC0300202C434F4EE3
:104FC0004E454354204641494C0D0A006A0B0020CF
:104FD000AAEB060081B240F226200153801E015345
:104FE000001D005D00EB400101EB001104F15800D1
:104FF00000EB8100C068B04227D8002084F822026C
:105000004FF40A70005D00EB400202EB001204F165
:10501000580000EB8200868301214FF40A70005D86
:1050200000EB400202EB001204F1580000EB82009A
:1050300081774FF40A70005D00EB400202EB001232
:1050400004F1580000EB8200C17700BF606822289D
:1050500071D2DFE800F070FD4611FC9AA7FBB0FAB0
:10506000C8F95D70F8F7F6F5F433F3F27187F1F0F3
:10507000EF7070C7EEEDECEB0722FDA1284602F0C1
:105080009CF940B9FCA104F1080002F08DF9E8791F
:10509000303884F88E02AFF2BC51284602F069F92C
:1050A00008B900206060F4A1284602F062F920B936
:1050B000002060602046FEF7ACFCAFE10B22F0A1BF
:1050C000284602F07AF918B929462046FFF773FB03
:1050D000AFF2F851284602F04CF908B900206060A0
:1050E0009CE10722E9A1284602F067F918B9294690
:1050F0002046FFF74BFAAFF21C61284602F039F95F
:1051000028B900206060E3492046FEF7AFFC85E146
:105110000622E1A1284602F050F918B92946204696
:10512000FFF7BEF9AFF24C61284602F022F908B948
:105130000020606072E170E10722D9A1284602F0E8
:105140003CF918B929462046FFF7B8F8AFF2746168
:10515000284602F00EF920B9002060602046FEF7D4
:105160006EFC5BE10622D0A1284602F026F918B9B0
:1051700029462046FFF7A2F8AFF2A061284602F0C8
:10518000F8F808B90020606048E1AFF2B061284645
:1051900002F0EFF828B90020606094F8F80184F874
:1051A000F9013BE1AFF2CC61284602F0E2F808B920
:1051B0000020606032E1AFF2DC61284602F0D9F8ED
:1051C00078B91D20606040F29D20005D20F0010054
:1051D000401C40F29D210855B5A104F1080002F0E1
:1051E000E3F81BE11AE1AFF20C71284602F0C1F8B6
:1051F00008B900206060AFF20871284602F0B9F8E3
:1052000038BB0020606000BF002194F98F0200EBE2
:10521000400202EB001204F1580000F8221094F949
:105220008F0200EB400202EB001213E04AE048E07C
:1052300045E048E041E0A3E08CE03DE03BE05DE09C
:1052400037E03BE048E033E030E033E02FE0ADE032
:1052500036E02AE004F1580000EB8200817094F9F6
:105260008F0200EB400202EB001204F1580000EB49
:10527000820080F8491094F98F0200EB400202EBA3
:10528000001204F1580000EB820080F8481000BFC3
:1052900094F98F0200EB400202EB001204F1580077
:1052A00000EB82012046FEF709FCB7E000BF00BF1B
:1052B00000BF00BF00BF00BF00BF00BF00BF00BFF6
:1052C00000BF00BF00BFAFF2EC71284602F051F8FA
:1052D00008B900206060A1E0AFF2E471284602F056
:1052E00048F850B90020606040F29D20005D20F039
:1052F0000200801C40F29D2108558FE028782B2861
:1053000006D10021681CFEF700FF4FF41B71085105
:10531000AFF63801284602F02CF850B90020606042
:10532000012184F8701204F50B712046FEF78CFF02
:105330000FE0AFF64401284602F01BF848B9002000
:105340006060002184F8701204F50B712046FEF7AE
:105350007BFF63E00A2258A1284602F02EF830B9FC
:10536000002204F5F07105F10C00FEF73DFFAFF6E9
:105370009401284601F0FDFF08B9002060604DE06F
:10538000092250A1284602F018F830B9002204F58D
:10539000F97105F10B00FEF727FFAFF6C0012846B3
:1053A00001F0E7FF08B90020606037E00B2248A158
:1053B000284602F002F868B9E87A303800F0FF0AAF
:1053C000BAF1040F01D14548606551462046FEF709
:1053D000C0FE00BFAFF6FC01284601F0CAFF28B1AD
:1053E000AFF6EC01284601F0C4FF38B90020606038
:1053F00047F2305060652046FEF7AAFEAFF6101166
:10540000284601F0B6FF38B90020606047F23050FE
:1054100060652046FEF79BFE00E000BF00BFAFF6D0
:105420004411284601F0A5FF80B940F29D20005D9F
:1054300020F00200801C40F29D2108556068082879
:1054400004D060681D2801D000206060AFF66011B4
:10545000284601F08EFF28B1AFF65C11284601F016
:1054600088FFE8BB40F29D20005D20F0020138E09B
:105470002B43574A41503A004641494C0D0A00001F
:105480002B43574A41505F4355523A002B43574CE8
:1054900041503A00140A00202B435753415000005A
:1054A0002B434950535441002B4349504150000075
:1054B00053454E44204F4B002B4349505354414DCC
:1054C000414300002B43495041504D4143000000EF
:1054D0002B4349505550444154453A00E093040051
:1054E00004E040F29D20015500206060AFF60C21E1
:1054F000284601F03EFF48B90020606040F29D2040
:10550000005D20F0010140F29D20015500BFFFF732
:10551000DCB910B50446002010BD10B504460020CB
:1055200010BD2DE9F041044640F2FE77D4F89862B0
:1055300040F29D20005D20F0010140F29D200155C8
:105540001D206060B07838B13B4631462046B269D4
:10555000FEF7BCFA054606E03B4631462046B269F6
:10556000FFF7D7FF0546BD4200DD3D46002D08DDB3
:105570002946B06901F095FED4F894022844C4F895
:1055800094020221FBA001F08CFE01207075BDE8A1
:10559000F08170472DE9F041A2B00446606D10B96A
:1055A00047F230506065D4E91210401A616D8842AC
:1055B00041D92779002060600A2F3CD100BF00212B
:1055C00094F98F0200EB400202EB001204F1580044
:1055D00000F8221094F98F0200EB400202EB001257
:1055E00004F1580000EB8200817094F98F0200EB07
:1055F000400202EB001204F1580000EB820080F838
:10560000491094F98F0200EB400202EB001204F102
:10561000580000EB820080F8481000BF94F98F0218
:1056200000EB400202EB001204F1580000EB820193
:105630002046FEF7AAFA40F29D20005D00F001002E
:1056400000B30222CCA1CD4801F062FD051E06DBAD
:1056500095B902226946C94801F0D7FC0CE0002246
:10566000C5A1C74801F054FD051E05DB25B902227E
:105670006946C34801F0C9FC002D02DB2046FFF754
:1056800050FF00BF6068112818D194F82202A8B911
:105690000422AFF6B831B94801F03AFD00280DDB1D
:1056A000B64801F005FD0020606040F29D20005DDD
:1056B00020F00200801C40F29D21085505E0434681
:1056C000012202A92046FFF7EEF894F8220238B929
:1056D000802202A9A94801F079FDB0F10008EEDCB2
:1056E00005E04346002202A92046FFF7DCF894F8C3
:1056F000220248B9606838B9802202A9A04801F0A6
:1057000065FDB0F10008ECDC94F8220200287CD0A2
:1057100040F22920005D08B1984D00E0984D25E049
:10572000012201A9284601F070FC9DF804104FF4F5
:105730000A70005D00EB400202EB001204F1580019
:1057400000EB820082694FF40970005B11544FF442
:105750000970005B401C81B24FF409700153801C3A
:10576000005B401C81B240F2262001534FF40970C7
:10577000015B001D005D00EB400202EB001204F132
:10578000580000EB8200C068814204D2284601F034
:105790007BFC0028C4DC40F22620015B801C005DFD
:1057A00000EB400202EB001204F1580000EB820013
:1057B000C06881425DD3002084F822024FF4097052
:1057C000015B001D005D00EB400202EB001204F1E2
:1057D000580000EB8200818301214FF40A70005DC4
:1057E00000EB400202EB001204F1580000EB8200D3
:1057F00081774FF40A70005D00EB400101EB00116E
:1058000004F1580000EB810000E033E090F849001B
:1058100008B34FF40A71095D01EB410202EB01127A
:1058200004F1580101EB8201886956A101F07CFD69
:10583000061E10D0103600213046FEF766FC4FF4ED
:105840000A71095D01EB410202EB011204F15801FA
:1058500001EB8201086201214FF40A70005D00EB48
:10586000400202EB001204F1580000EB8200C17705
:1058700000BF00BF2046FEF7DFFB00BF002084F81A
:10588000A00222B0BDE8F08110B5044600BF40F28E
:105890009D20005D00F0010078B1022236A137485A
:1058A00001F036FC002808DB40F29D20005D20F06E
:1058B000010140F29D20015505E02046FFF76AFEF8
:1058C00060680028E3D100BF00BF002084F8A00278
:1058D00010BD2DE9F04104460D4616461F4600BF97
:1058E000606840B12046FFF755FE00BF072084F8EE
:1058F000A002BDE8F08100BF112D02D11F4801F0C8
:10590000D7FB46B1304601F02DFD1FFA80F8414625
:10591000304601F0C6FC656000202072394604F173
:10592000080001F041FDE06CA06400BF002084F895
:10593000A00200BFDDE710B5044617A319A2172186
:105940002046FFF7C6FF94F8A00278B904F5277443
:10595000207820F010002070207820F020002070A7
:10596000207820F040002070A4F5277494F8A0025D
:1059700010BD00005C3000003E200000000400204C
:10598000EC030020436F6E74656E742D4C656E677A
:1059900074683A20000000002B43495041505F4397
:1059A0005552000041542B43495041505F435552DA
:1059B0003F0D0A0010B50446AFF2F843FEA21921CC
:1059C0002046FFF786FF94F8A00228B994F89C02BD
:1059D00020F0800084F89C0294F8A00210BD10B55D
:1059E0000446AFF22C53F8A218212046FFF771FFAE
:1059F00094F8A00228B994F89C0220F0080084F8DA
:105A00009C0294F8A00210BD10B50446AFF2785382
:105A1000F1A20C212046FFF75CFF10B194F8A00220
:105A200010BD2046FFF730FFFAE730B585B00446D9
:105A30000D462A46EBA1684601F064FDEEA36A46D6
:105A400005212046FFF745FF18B194F8A00205B0E4
:105A500030BD84F8F8512046FFF716FF94F8F9019D
:105A6000A84204D000BF012084F8A002EFE720463E
:105A7000FFF7CAFFEBE77FB504460D4600BF60683D
:105A800040B12046FFF786FD00BF072084F8A00242
:105A900004B070BD00BF2A46DAA1684601F032FDAD
:105AA000DDA36A4607212046FFF713FF10B194F8E3
:105AB000A002EDE72046FFF7E7FE40F29D20005DE3
:105AC000C0F3400020B900BF012084F8A002DFE746
:105AD00000BF002084F8A00200BFD9E77FB50446CC
