:020000040800F2
:10000000C8AC0020AD010008A1210008452100086E
:100010009D210008E5040008B95E0008000000000A
:10002000000000000000000000000000BF01000808
:100030005D08000800000000C3010008B553000877
:10004000C7010008C7010008C7010008C701000870
:10005000C7010008C7010008C7010008C701000860
:10006000C7010008C7010008C70100085D070008B4
:100070006D0700087D0700088D0700089D07000830
:10008000AD070008BD070008C70100080000000018
:10009000000000000000000000000000C701000890
:1000A000C7010008C7010008C7010008C701000810
:1000B000C7010008C7010008C7010008C701000800
:1000C000C7010008C7010008C7010008C7010008F0
:1000D000C70100083D5E0008615E000800000000E6
:1000E000C7010008C7010008C701000800000000A0
:1000F000000000000000000000000000CD07000824
:1001000000000000C7010008C7010008C70100087F
:1001100000000000000000000000000000000000DF
:10012000DD070008ED070008FD0700080D080008BE
:100130001D08000800000000000000000000000092
:10014000000000000000000000000000C7010008DF
:100150002D0800083D0800084D0800088D5E0008C5
:10016000C7010008C70100080000000000000000EF
:10017000000000000000000000000000000000007F
:1001800000000000C701000800000000000000009F
:10019000C7010008C7010008DFF80CD000F09EF886
:1001A00000480047CD630008C8AC002006488047DF
:1001B00006480047FEE7FEE7FEE7FEE7FEE7FEE74C
:1001C000FEE7FEE7FEE7FEE7BD53000899010008E1
:1001D00040EA01039B0703D009E008C9121F08C0C9
:1001E000042AFAD203E011F8013B00F8013B521E49
:1001F000F9D27047D2B201E000F8012B491EFBD2C0
:1002000070470022F6E710B513460A460446194621
:10021000FFF7F0FF204610BD10B5044604E00B7850
:1002200000F8013B03B1491C521EF8D2204610BD14
:10023000421C10F8011B0029FBD1801A704710B531
:10024000002200E0521C835C8C5CA34201D1002B95
:10025000F8D1D8B2E1B2401A10BD30B50546002041
:10026000034600E05B1C934205D2EC5CC85C201A9C
:1002700001D1002CF6D130BD2DE9F05F05460020FC
:1002800092469B4688460646814640241BE0284607
:1002900041464746224600F042F853465A46C01AA5
:1002A000914110D311461846224600F029F82D1A24
:1002B00067EB01084F4622460120002100F020F89C
:1002C00017EB00094E41201EA4F10104DFDC484673
:1002D00031462A464346BDE8F09F0000064C074DD4
:1002E00006E0E06840F0010394E807009847103406
:1002F000AC42F6D3FFF754FF90660008B0660008E2
:10030000202A04DB203A00FA02F1002070479140D5
:10031000C2F1200320FA03F3194390407047202ACA
:1003200004DB203A21FA02F00021704721FA02F39F
:10033000D040C2F12002914008431946704730B5C1
:100340000146002409B9002030BD4A688B689A42F2
:1003500000D10C68934200D99C1A9A4202D9D51A4E
:100360000868441B601EEFE730B503460BB9002058
:1003700030BD59689A68914200D10024914200D959
:100380008C1A8A4202D9551A1868441B2046EFE796
:1003900070B504460D4616460CB9012070BD1821F3
:1003A0002046FFF72EFF2560E6600A206074E068B3
:1003B00068B9284606F0D8F8E060E06818B900206F
:1003C00020600120EAE7207C40F002002074207CBD
:1003D00040F0010020740020E0E72DE9F0470446DA
:1003E000884615464FF0000904B115B90020BDE854
:1003F000F0872168A068884201D30020A0602046D1
:10040000FFF7B2FF0746AF4203D20FB90020EEE775
:100410003D46A1682068461AAE4200D92E46D4E96E
:100420000220811832464046FFF7D2FEB144A06850
:100430003044A060AD1B35B108EB09002A46E168E5
:10044000FFF7C6FEA5602168A068884201D300209E
:10045000A06009EB0500CAE700B9704700214160C0
:10046000816000BFF9E72DE9F0470446894615464B
:100470004FF0000804B115B90020BDE8F087D4E9B9
:100480000010884201D3002060602046FFF757FF2C
:100490000746AF4203D20FB90020EEE73D46D4E94C
:1004A0000001461AAE4200D92E466268E1688818FB
:1004B00032464946FFF78CFEB044606830446060C5
:1004C000AD1B35B109EB08012A46E068FFF780FE55
:1004D0006560D4E90010884201D30020606008EB19
:1004E0000500CAE700BFFEE71CB50446208830B10E
:1004F000572808D05D2822D0682878D148E000BF6E
:100500005720208000BF3C4800F0B8FD08B1002013
:100510001CBD00BF0020502138A30246CDE90010C9
:100520003949354800F0F6F938490870002855D1A6
:1005300037A005F0C3FC00BF5D20208000BF2E481F
:1005400000F09CFD08B10020E2E700BF2A4800F05F
:10055000BFFA2E49087008460078002837D137A026
:1005600005F0ACFC002042493923424ACDE9001095
:1005700025480168204800F073F9244908700028D4
:1005800021D13DA005F09AFC00BF6820208000BF6B
:10059000194800F073FD08B10020B9E700BF164804
:1005A00000F096FA194908700846007828B93048D2
:1005B00001683B4805F082FC15E01448017839A039
:1005C00005F07CFC0FE03EA005F078FC0BE00F4846
:1005D000017846A005F072FC05E008E00B480178C0
:1005E0004DA005F06BFC00205B49087000BF00BF08
:1005F0000020208003208BE7580100206578616D82
:10060000706C652E636F6D004C0000204800002068
:10061000436F6E6E656374696F6E20746F206578CA
:10062000616D706C652E636F6D20686173207374EB
:100630006172746564210D0A00000000436F6E6EE4
:10064000656374696F6E20746F206578616D706C7E
:10065000652E636F6D20686173206265656E20731F
:1006600075636365737366756C6C210D0A00000019
:1006700050000020F8650008446174612073656EC5
:1006800064696E6720686173207374617274656455
:10069000207375636365737366756C6C790D0A00FE
:1006A00034660008446174612077657265206E6F5E
:1006B000742073656E743A2025640D0A00000000F2
:1006C00050726F626C656D7320747279696E672009
:1006D000746F2073746172742073656E64696E67E1
:1006E0002064617461210D0A0000000050726F6285
:1006F0006C656D7320746F20636F6E6E656374201C
:10070000746F206578616D706C652E636F6D3A2033
:1007100025640D0A0000000050726F626C656D73F5
:1007200020747279696E6720746F207374617274BB
:1007300020636F6E6E656374696F6E20746F2073D3
:10074000657276657220617320636C69656E743AB8
:100750002025640D0A0000005400002010B5024856
:1007600004F047FF10BD00001060024010B50248C1
:1007700004F03FFF10BD00002860024010B50248A1
:1007800004F037FF10BD00004060024010B5024881
:1007900004F02FFF10BD00005860024010B5024861
:1007A00004F027FF10BD00007060024010B5024841
:1007B00004F01FFF10BD00008860024010B5024821
:1007C00004F017FF10BD0000A060024010B5024801
:1007D00004F00FFF10BD0000B860024010B50248E1
:1007E00004F007FF10BD00001064024010B502487D
:1007F00004F0FFFE10BD00002864024010B502485E
:1008000004F0F7FE10BD00004064024010B502483D
:1008100004F0EFFE10BD00005864024010B502481D
:1008200004F0E7FE10BD00007064024010B50248FD
:1008300004F0DFFE10BD00008864024010B50248DD
:1008400004F0D7FE10BD0000A064024010B50248BD
:1008500004F0CFFE10BD0000B864024070470000F5
:100860002DE9F04704460D4616461F46DDE9089A75
:1008700000BF0DB106B127B900BF04202071BDE84B
:10088000F08700BF00BFA08920B994F8E400C0F34E
:10089000400018B100BF09202071F0E700BF00BF81
:1008A000A08908B92068606143F20500A08100BFFB
:1008B0001748C560C0F810900660876100BF42F21B
:1008C0001070E061BAF1000F09D194F8E40020F053
:1008D000010084F8E40000BF00202071CFE794F805
:1008E000E40020F00100401C84F8E40042F21071A2
:1008F000204600F087FE8046B8F1060F01D10620A1
:10090000BDE794F81880002020764046B7E7000045
:10091000F40600202DE9F04704460D4690461E4699
:10092000DDE9089A00BF1DB116B1B9F1000F04D17D
:1009300000BF04202071BDE8F08700BF00BFA08980
:1009400020B994F8E400C0F3400018B100BF0920BA
:100950002071F0E700BF00BFA08908B9206860617E
:1009600043F20300A08100BF16484561066049EAD2
:1009700008401449886100BF4EF66020E061BAF17A
:10098000000F09D194F8E40020F0010084F8E4009D
:1009900000BF00202071CEE794F8E40020F00100B1
:1009A000401C84F8E4004EF66021204600F02AFE48
:1009B0000746062F00D1BEE7277E00202076384666
:1009C000B9E70000F40600202DE9F04105460C4689
:1009D00035B1012D14D0062D06D0072D1BD109E00D
:1009E0000FA005F06BFA17E02668317811A005F02A
:1009F00065FA11E02668317817A005F05FFA0BE080
:100A00002668D4F80480208987B2327839461BA042
:100A100005F054FA00E000BF00BF0020BDE8F081FF
:100A2000537461636B2069732049444C45210D0A5E
:100A300000000000436F6E6E656374696F6E202561
:100A400064206A75737420626563616D65206163FB
:100A500074697665210D0A00436F6E6E6563746973
:100A60006F6E20256420776173206A75737420632C
:100A70006C6F736564210D0A00000000256420621C
:100A800079746573206F6620646174612072656398
:100A90006569766564206F6E20636F6E6E65637442
:100AA000696F6E2025640D0A0000000002460020D8
:100AB0007047000070B504460D462A46214603489B
:100AC000FFF7D1FC0646B0B270BD0000580200200E
:100AD0000146087E00220A76704700002DE9F041A9
:100AE00004460F4616463225DFF8F883FE480460B8
:100AF0004FF480712046FFF784FBC4F8EC6016B910
:100B0000FA48C4F8EC0000BF002000BF09E0F84A32
:100B100000EB800304F1740101EB8301CA60411C06
:100B2000C8B20528F3DB00BF00202060F14A40F284
:100B3000FF314046FFF72CFCA76004F1080000F0ED
:100B4000A5FA20B100BF02202071BDE8F08100BFEE
:100B50000020E9490880E9490880E949088000BF88
:100B600094F8E40020F00100401C84F8E4004FF405
:100B70007A70E0612BE000BFA08908B9206860614D
:100B800041F20200A08100BFE169204600F03AFD79
:100B900000BF0020A08100BFD7490880D749088046
:100BA000D749088000BF94F8E40000F0010030B994
:100BB00094F8E40020F00200801C84F8E4001C217A
:100BC000D048FFF71EFB00BF207E00B903E0281EBF
:100BD000A5F10105CFD100BF6420E0612BE000BF8B
:100BE000A08908B92068606141F20100A08100BFBE
:100BF000E169204600F006FD00BF0020A08100BF93
:100C0000BD490880BD490880BD49088000BF94F8EF
:100C1000E40000F0010030B994F8E40020F0020094
:100C2000801C84F8E4001C21B648FFF7EAFA00BFF4
:100C3000207E00B903E0281EA5F10105CFD100BF39
:100C40002BE000BFA08908B92068606141F2030071
:100C5000A08100BFE169204600F0D4FC00BF002065
:100C6000A08100BFA4490880A4490880A449088045
:100C700000BF94F8E40000F0010030B994F8E400FB
:100C800020F00200801C84F8E4001C219D48FFF73E
:100C9000B8FA00BF207E00B903E0281EA5F10105C7
:100CA000CFD100BF2EE000BFA08908B920686061E5
:100CB00042F20100A08100BF032092498861E169EE
:100CC000204600F09FFC00BF0020A08100BF8A49A1
:100CD00008808A4908808A49088000BF94F8E400A7
:100CE00000F0010030B994F8E40020F00200801C0C
:100CF00084F8E4001C218348FFF783FA00BF207EBC
:100D000000B903E0281EA5F10105CCD100BF2EE0FB
:100D100000BFA08908B92068606143F20D00A0817E
:100D200000BF012077498861E169204600F06AFC34
:100D300000BF0020A08100BF6F4908806F49088074
:100D40006F49088000BF94F8E40000F0010030B95A
:100D500094F8E40020F00200801C84F8E4001C21D8
:100D60006848FFF74EFA00BF207E00B903E0281E56
:100D7000A5F10105CCD100BF2EE000BFA08908B9C4
:100D80002068606143F21400A08100BF01205D492A
:100D90008861E169204600F035FC00BF0020A08199
:100DA00000BF55490880554908805549088000BF53
:100DB00094F8E40000F0010030B994F8E40020F069
:100DC0000200801C84F8E4001C214E48FFF719FA49
:100DD00000BF207E00B903E0281EA5F10105CCD19B
:100DE00000BF2EE000BFA08908B92068606142F210
:100DF0000110A08100BF012042498861E1692046BD
:100E000000F000FC00BF0020A08100BF3A4908802C
:100E10003A4908803A49088000BF94F8E40000F09D
:100E2000010030B994F8E40020F00200801C84F83E
:100E3000E4001C213348FFF7E4F900BF207E00B92D
:100E400003E0281EA5F10105CCD100BF2EE000BFB4
:100E5000A08908B92068606142F20210A08100BF39
:100E6000012028498861E169204600F0CBFB00BFE2
:100E70000020A08100BF2049088020490880204927
:100E8000088000BF94F8E40000F0010030B994F845
:100E9000E40020F00200801C84F8E4001C211948C2
:100EA000FFF7AFF900BF207E00B903E0281EA5F1CF
:100EB0000105CCD100BF41E000BFA08908B920687E
:100EC000606142F20310A08100BF01200D498861DA
:100ED000E169204600F096FB00BF0020A08100BF22
:100EE000054911E0580200205C000020AD0A00080E
:100EF0001007002070020020600000206200002027
:100F000064000020F40600200880584908805849F1
:100F1000088000BF94F8E40000F0010030B994F8B4
:100F2000E40020F00200801C84F8E4001C215148F9
:100F3000FFF767F900BF207E00B903E0281EA5F186
:100F40000105B9D100BF2EE000BFA08908B9206813
:100F5000606142F20410A08100BF01204549886110
:100F6000E169204600F04EFB00BF0020A08100BFD9
:100F7000414908803D4908803D49088000BF94F8F8
:100F8000E40000F0010030B994F8E40020F0020021
:100F9000801C84F8E4001C213648FFF732F900BFBA
:100FA000207E00B903E0281EA5F10105CCD100BFC9
:100FB0002BE000BFA08908B92068606142F20910E7
:100FC000A08100BFE169204600F01CFB00BF0020AB
:100FD000A08100BF2849088024490880244908804E
:100FE00000BF94F8E40000F0010030B994F8E40088
:100FF00020F00200801C84F8E4001C211D48FFF74B
:1010000000F900BF207E00B903E0281EA5F101050C
:10101000CFD100BF00BF0020A08100BF16490880CB
:10102000124908801249088000BF94F8E40000F0DB
:10103000010030B994F8E40020F00200801C84F82C
:10104000E4001C210B48FFF7DCF800BF14F8E40FA4
:1010500020F001002070207820F0020004F8E4095C
:1010600000BF207E2071207E6FE50000620000201E
:1010700064000020F40600206000002001468889FA
:1010800008B1012070470020FCE700001CB50446B1
:1010900000210948226804F06FFD00200121034669
:1010A0000A46CDE90010054804F052FB012003492F
:1010B000886100201CBD00000010014000000240BB
:1010C00070B506460C4615462A462146024804F0ED
:1010D0008CFD002070BD0000001001400246012977
:1010E00003D10804034B986102E00120014B986191
:1010F000002070470000024070B504460026A08919
:1011000078B994F8E400C0F3400050B114F8E40F4B
:1011100020F002002070A268E43C04F1F0010020FD
:101120009047A08978B994F8E80000F0010050B128
:1011300014F8E80F20F0010020706268E83C04F128
:10114000F00102209047A08978B994F8E800C0F334
:10115000400050B114F8E80F20F0020020706268DF
:10116000E83C04F1F00103209047A08978B994F895
:10117000E800C0F3800050B114F8E80F20F004003C
:1011800020706268E83C04F1F001042090470026DA
:1011900080E006EB860104F1740000EB8105A08974
:1011A000D0B994F8E400C0F34000A8B9E87CC0F3DB
:1011B000001088B1E87C20F01000E874C4F8F0500A
:1011C000F420E9680151298AF8200151D4F8EC2073
:1011D00004F1F00101209047A089A0B994F8E4003F
:1011E000C0F3400078B9E87CC0F3800058B1E87CD7
:1011F00020F00400E874C4F8F050D4F8EC2004F1B6
:10120000F00108209047A089A0B994F8E400C0F349
:10121000400078B9E87CC0F3C00058B1E87C20F009
:101220000800E874C4F8F050D4F8EC2004F1F001A0
:1012300009209047A089A0B994F8E400C0F34000C9
:1012400078B9E87C00F0010058B1E87C20F001009A
:10125000E874C4F8F050D4F8EC2004F1F001062052
:101260009047A089A0B994F8E400C0F3400078B991
:10127000E87CC0F3400058B1E87C20F00200E8743C
:10128000C4F8F050D4F8EC2004F1F00107209047A6
:10129000701CC6B2052EFFF47CAF00BF0020207189
:1012A00070BD00002DE9F04704460D4616469846ED
:1012B000DDE9089A00BF05B126B900BF04202071FE
:1012C000BDE8F08700BF00BFA08920B994F8E40012
:1012D000C0F3400018B100BF09202071F0E700BF43
:1012E00000BFA08908B92068606142F20200A081B5
:1012F00000BFB9F1000F01D017A000E017A01849F6
:101300000860084645608660C0F80C8000BF47F260
:101310003050E061BAF1000F09D194F8E40020F0F8
:10132000010084F8E40000BF00202071C8E794F8B1
:10133000E40020F00100401C84F8E40047F2305142
:10134000204600F05FF90746062F00D1B8E7277E58
:10135000002020763846B3E7444546004355520006
:10136000F4060020F8B504469A4D4FF4FA76A089A9
:1013700060B120686169401AE169884206D994F831
:10138000FC0020F00200801C84F8FC0015E194F8B9
:10139000D80000287ED0E020005B0028FAD0A08989
:1013A00078B900BFA08908B92068606143F21500D0
:1013B000A08100BF94F8E40020F00100401C84F8F4
:1013C000E4009DF80010DC200059C268E220005BB8
:1013D0001154E220005B401C81B2E2200153E02066
:1013E000005B401E81B2E0200153005B18BB00206F
:1013F00084F8D800A08943F2150188421BD100BFB0
:101400000020A08100BF7449088074490880744995
:10141000088000BF94F8E40000F0010030B994F8AF
:10142000E40020F00200801C84F8E4001C216D48D8
:10143000FEF7E7FE00BFE220005B40F2B3518842B6
:1014400003DAE020005B002836D1DC200059C4F824
:10145000F000DC200059C168F4200151E220015B5A
:10146000DC2000590182E220015BF8200151E020DC
:10147000005B20B9E020005B90B9A08980B9D4F866
:10148000EC2004F1F00101209047DC21095901F121
:10149000130000E011E0C97C21F01001017008E0A8
:1014A000DC21095901F11300C97C21F01001103130
:1014B00001700021E220015377E09DF80000202810
:1014C00003DB9DF800007E2807DD9DF800000D2855
:1014D00003D09DF800000A2861D19DF800000A2879
:1014E0001BD100BF9DF800103F4802780078401CD7
:1014F0003D4B1870581C81540021401E0278401C3E
:10150000815400BF411E204603F004FC00BF0020B0
:1015100035490870487000BF40E09DF80000202861
:101520000ED1324800783E280AD1314800780A2886
:1015300006D194F8FC0020F00400001D84F8FC00A3
:1015400000BF9DF80010284802780078401C264B08
:101550001870581C81540021401E0278401C815490
:1015600000BF9DF800003A2817D1184600780428DB
:1015700013DD184640782B280FD104221DA1581CDA
:10158000FEF76BFE48B91849204603F0C3FB00BFC5
:10159000002015490870487000BF00BF05E000BF7B
:1015A000002011490870487000BF104800781049A9
:1015B00008709DF800000D4908703EB1012269468F
:1015C0002846FEF70AFF00287FF4E1AE204603F02C
:1015D000B5FEF8BD58020020600000206200002027
:1015E00064000020F4060020700600207400002033
:1015F000750000202B4950440000000002680A4496
:101600000260704770B504460D46E56100BF204694
:10161000FFF7A8FEA0890028F9D194F8E400C0F3F0
:1016200040000028F3D100BF207E2071207E70BDD5
:1016300038B504465C20009017E020782C2805D0AF
:101640002078222802D020785C2806D10122694621
:10165000084800680830FFF733FD2146641C01226A
:10166000044800680830FFF72BFD20780028E4D1FB
:1016700038BD00005C000020014800687047000091
:101680000400002010B52E480068401C2C4908605A
:101690002C48006820B12B480068401E294908608A
:1016A000002444E0284850F8240000283DD0264873
:1016B00050F824000078C0F34000B0B3224850F83E
:1016C0002400806840B1204850F824008068401E03
:1016D0001D4951F8241088601B4850F82400806888
:1016E00018BB194B53F824301969174B53F82400D1
:1016F00053F82430DA689047134850F824004168C2
:10170000114850F8240081600F4850F824000078F8
:1017100000F0010048B90C4850F82400007820F08F
:101720000201094850F824000170601CC4B2064848
:10173000001F0078A042B5DC03F0A4FE10BD00003D
:101740000400002000000020A400002010B50D4877
:10175000006840F400700B4908600846006840F4D7
:10176000806008600846006840F4807008600320CC
:1017700000F086F80F2000F007F800F017F80020BE
:1017800010BD0000003C024070B5044600F0E4F9D2
:101790004FF47A71B0FBF1F5284600F081FC00228D
:1017A0002146501E00F02DF8002070BD704700004B
:1017B00000BF00F01F0201219140034A430942F893
:1017C000231000BF7047000080E200E000BF00F07F
:1017D0001F0201219140034A430942F8231000BF30
:1017E0007047000080E100E000BF00F01F0201210F
:1017F00091404209920002F1E022C2F8001100BFBC
:1018000070472DE9F05F80460D461646002700F030
:10181000C9FC074639462A46334601F00700C0F1A5
:10182000070ABAF1040F02D94FF0040A01E0C0F12F
:10183000070AD14600F1040ABAF1070F02D24FF0AD
:10184000000A01E0A0F1030AD4464FF0010A0AFAA7
:1018500009FAAAF1010A0AEA020A0AFA0CFA4FF096
:10186000010B0BFA0CFBABF1010B0BEA030B4AEA81
:101870000B042146404600F09DFCBDE8F09F0000AF
:1018800000BF00F00702064B19684FF6FF0319402E
:10189000044B0B4343EA0221014B196000BF704720
:1018A0000CED00E00000FA0570B504460E46002578
:1018B000A748006800F00F00B0426FD2A4490E7034
:1018C0000846006800F00F00B04201D0012070BD52
:1018D000207800F00200022807D19E48006820F01E
:1018E000F000A16808439B490860207800F00100DF
:1018F00000283ED06068012807D196480838006863
:10190000C0F34040B8B90120E1E76068022802D086
:101910006068032807D18F4808380068C0F340602A
:1019200048B90120D3E78B4808380068C0F340006D
:1019300008B90120CBE78748006820F00300616800
:10194000084384490860FFF797FE05466068012850
:1019500010D108E0FFF790FE401B41F28831884229
:1019600001D90320B3E77B48006800F00C0004288D
:10197000F0D1CDE06068022811D108E0FFF77CFECD
:10198000401B41F28831884201D903209FE771480A
:10199000006800F00C000828F0D1B9E024E060688D
:1019A000032810D108E0FFF767FE401B41F28831A1
:1019B000884201D903208AE76648006800F00C00DD
:1019C0000328F0D1A4E008E0FFF756FE401B41F2E7
:1019D0008831884201D9032079E75E48006800F029
:1019E0000C000028F0D193E0207800F002000228DB
:1019F00007D15848006820F0F000A1680843554915
:101A00000860207800F00100002877D06068012885
:101A100007D1504808380068C0F34040B8B90120E9
:101A200055E76068022802D06068032807D149485A
:101A300008380068C0F3406048B9012047E74548CE
:101A400008380068C0F3400008B901203FE741486A
:101A5000006820F00300616808433E490860FFF712
:101A60000BFE05466068012810D108E0FFF704FE70
:101A7000401B41F28831884201D9032027E73548CD
:101A8000006800F00C000428F0D137E060680228FC
:101A900010D108E0FFF7F0FD401B41F28831884289
:101AA00001D9032013E72B48006800F00C00082838
:101AB000F0D123E06068032810D108E0FFF7DCFDD7
:101AC000401B41F28831884201D90320FFE62148BA
:101AD000006800F00C000328F0D10FE008E0FFF7E9
:101AE000CBFD401B41F28831884201D90320EEE64C
:101AF0001848006800F00C000028F0D114490E705E
:101B00000846006800F00F00B04201D00120DEE678
:101B1000207800F00400042807D10E48006820F463
:101B2000E050E16808430B490860207800F00800A5
:101B3000082808D10748006820F46040216940EA7D
:101B4000C100044908600F20FFF71EFE0020BEE61A
:101B5000003C02400838024010B500F045F8094941
:101B6000096801F0F001F02292FAA2F2B2FA82F2D0
:101B7000D140054A515CC8400449086008460068E5
:101B800010BD000008380240D4650008580000204D
:101B900010B5FFF7E1FF0749096801F4E0514FF480
:101BA000E05292FAA2F2B2FA82F2D140024A515CB9
:101BB000C84010BD08380240D465000810B5FFF7D2
:101BC000CBFF0749096801F460414FF4604292FA83
:101BD000A2F2B2FA82F2D140024A515CC84010BD72
:101BE00008380240D465000870B5002100220023A7
:101BF0000020274C246804F00C0424B1042C04D0E9
:101C0000082C41D103E0234840E023483EE0204C2B
:101C1000241F246804F03F011D4C241F246804F491
:101C2000800484B11C4CB4FBF1F5194C241F2468CA
:101C300047F6C076344096FAA6F6B6FA86F6F44031
:101C400005FB04F20FE0134CB4FBF1F5104C241F1C
:101C5000246847F6C076344096FAA6F6B6FA86F6B9
:101C6000F44005FB04F20A4C241F246804F44034B9
:101C70004FF4403595FAA5F5B5FA85F5EC40641CAE
:101C80006300B2FBF3F001E0024800BF00BF70BD8B
:101C9000083802400024F40000127A0038B50446E7
:101CA0000025207800F00100002866D0F648006882
:101CB00000F00C0004280DD0F348006800F00C0080
:101CC000082813D1F048001F006800F48000B0F528
:101CD000800F0BD1EC4808380068C0F34040002862
:101CE0004BD06068002848D1012038BD0020E6496B
:101CF000891F0870FFF7C0FC054608E0FFF7BCFC31
:101D0000401B41F28831884201D90320EDE7DE48CB
:101D100008380068C0F340400028EFD12079DA4944
:101D2000891F08706068A0B1FFF7A6FC054608E0AF
:101D3000FFF7A2FC401B41F28831884201D9032001
:101D4000D3E7D14808380068C0F340400028EFD0FE
:101D500013E0FFF791FC054608E0FFF78DFC401B00
:101D600041F28831884201D90320BEE7C6480838CD
:101D70000068C0F340400028EFD1207800F0020056
:101D8000022869D1C048006800F00C0058B1BE4874
:101D9000006800F00C00082821D1BB48001F006833
:101DA00000F48000D8B9B84808380068C0F3400093
:101DB00020B1E068012801D0012096E7B248083838
:101DC000006820F0F800F82292FAA2F2B2FA82F249
:101DD000216991400843AC49083908603CE0E0685B
:101DE00028B30120A9490860FFF746FC054606E034
:101DF000FFF742FC401B642801D9032075E7A24885
:101E000008380068C0F340000028F1D09E48083828
:101E1000006820F0F800F82292FAA2F2B2FA82F2F8
:101E200021699140084398490839086014E000206E
:101E300096490860FFF720FC054606E0FFF71CFC0A
:101E4000401B642801D903204FE78F4808380068F9
:101E5000C0F340000028F1D1207800F008000828E5
:101E60002CD16069A8B1012089490860FFF704FC02
:101E7000054606E0FFF700FC401B642801D903205B
:101E800033E781486C300068C0F340000028F1D08F
:101E900014E000207E490860FFF7EEFB054606E0EF
:101EA000FFF7EAFB401B642801D903201DE77648B1
:101EB0006C300068C0F340000028F1D1207800F0B9
:101EC000040004286DD100BF6F483830006840F02E
:101ED00080506D49383108600846006800F0805035
:101EE000009000BF00BF6B48006840F480706949F3
:101EF0000860FFF7C1FB054606E0FFF7BDFB401B8E
:101F0000642801D90320F0E66248006800F480707C
:101F10000028F2D000205C4968310870FFF7ACFB64
:101F2000054608E0FFF7A8FB401B41F288318842D4
:101F300001D90320D9E6544868300068C0F3400056
:101F40000028EFD1207A504968310870A068A0B10C
:101F5000FFF792FB054608E0FFF78EFB401B41F2BE
:101F60008831884201D90320BFE6474868300068BD
:101F7000C0F340000028EFD013E0FFF77DFB0546DB
:101F800008E0FFF779FB401B41F28831884201D914
:101F90000320AAE63C4868300068C0F340000028EF
:101FA000EFD1A069F0B33848006800F00C000828B1
:101FB00072D0A069022850D1002034490866FFF78A
:101FC0005BFB054606E0FFF757FB401B642801D981
:101FD00003208AE62C4808380068C0F340600028D7
:101FE000F1D1D4E90701084347F6C07292FAA2F290
:101FF000B2FA82F2616A914008430122A16AC2EBFF
:1020000051014FF4403292FAA2F2B2FA82F29140B8
:1020100008434FF0706292FAA2F2B2FA82F2E16AD9
:10202000914000E03AE008431749091F0860012089
:1020300016490866FFF720FB054606E0FFF71CFB84
:10204000401B642801D903204FE60F480838006878
:10205000C0F340600028F1D020E000200B49086662
:10206000FFF70AFB054606E0FFF706FB401B642866
:1020700001D9032039E6044808380068C0F34060FD
:102080000028F1D10AE007E008380240000047428A
:10209000800E474200700040012026E6002024E622
:1020A00070B504462546681EB0F1807F01D301203B
:1020B0000FE0681E4FF0E02148610F214FF0FF3024
:1020C00000F078F800204FF0E021886107200861D7
:1020D000002070BD10B504460CB9012010BDA069E8
:1020E00000B100E000BF94F8390028B9002084F85E
:1020F0003800204600F025F8022084F839002068D6
:10210000C06820F400502168C860204603F084FDB8
:102110002068006920F490402168086120684069C7
:1021200020F02A00216848612068C06840F400500F
:102130002168C8600020E063012084F83900002095
:10214000CCE7704700BFFEE70146302905DB39299F
:1021500003DCA1F13000C0B27047612905DB6629BC
:1021600003DCA1F15700C0B2F6E7412905DB46299F
:1021700003DCA1F13700C0B2EEE70020ECE700007D
:1021800070B505460C46224602A1284603F0A6FE7D
:1021900070BD0000253032580000000000BFFEE78F
:1021A0007047000002480068C0F30220704700003A
:1021B0000CED00E010B5002807DA0A07140E054AF6
:1021C00000F00F031B1FD45403E00A07130E024A4A
:1021D000135410BD18ED00E000E400E070B50546B2
:1021E0000C46224602A1284603F078FE70BD00008E
:1021F000256400007CB505460C46288840F209326B
:10220000811A90427ED008DC70B1A0F2E22080B347
:102210000E2878D0192877D1B7E0152975D029294B
:1022200074D03629F7D17AE2A08941F201018842BF
:102230004FD100BF0020C4F8FC002068606100BFDF
:102240000222FAA1FA4800680830FEF739FF02229C
:10225000F8A1F74800680830FEF732FF002241F28B
:102260000101204603F09EF800BF40F2E2202880E2
:1022700000BF94F8FC0000F0010030B994F8FC00B5
:10228000C0F3400008B900207CBD00BF94F8FC00FA
:1022900000F0010080F00100207600BF0020A08146
:1022A00000BFE5490880E5490880E549088000BF8E
:1022B00094F8E40000F0010030B994F8E40020F054
:1022C0000200801C84F8E4001C21DE48FDF799FF21
:1022D00055E2A08941F2020188427DD100BF002071
:1022E000C4F8FC002068606100BF0622D6A1D04877
:1022F00000680830FEF7E4FE0222CEA1CC48006858
:10230000083004E098E00FE03AE20FE181E1FEF7E7
:10231000D7FE002241F20201204603F043F800BF3D
:102320004FF43C70288000BF94F8FC00C0F3C0005C
:1023300030B994F8FC00C0F3400008B90020A3E7CE
:1023400000BF94F8FC00C0F3C00080F001002076CC
:10235000207E70B3012104F10800FEF7BFFE4FF4A8
:102360007A60BB49086000BFB9490868411EB84A95
:1023700011600028F8D1002104F10800FEF7AEFE3C
:1023800000BF40F2FB20288000BF94F8FC00C0F39F
:10239000C00030B994F8FC00C0F3400008B9002038
:1023A00072E700BF94F8FC00C0F3C00080F00100A9
:1023B000207600BF0020A08100BF9F4908809F4970
:1023C00008809F49088000BF94F8E40000F00100F5
:1023D00040B994F8E40000E009E020F00200801C1D
:1023E00084F8E4001C219748FDF70BFFC7E1A089A2
:1023F00041F2030188424FD100BF0020C4F8FC0025
:102400002068606100BF062292A1894800680830F8
:10241000FEF756FE022287A1854800680830FEF7C5
:102420004FFE002241F20301204602F0BBFF00BF35
:1024300040F20930288000BF94F8FC0000F0010051
:1024400030B994F8FC00C0F3400008B900201BE745
:1024500000BF94F8FC0000F0010080F0010020763D
:1024600000BF0020A08100BF734908807349088025
:102470007349088000BF94F8E40000F0010030B90F
:1024800094F8E40020F00200801C84F8E4001C2191
:102490006C48FDF7B6FE72E1A08941F2070188425F
:1024A0007ED1684881696846FFF798FE00BF00202A
:1024B000C4F8FC002068606100BF082267A15C4886
:1024C00000680830FEF7FCFD5E490868FDF7B0FEC5
:1024D00086B25C4832460168554800680830FEF70D
:1024E000EFFD012260A1524800680830FEF7E8FDC8
:1024F0006846FDF79DFE86B2324669464C48006844
:102500000830FEF7DDFD082258A149480068083070
:10251000FEF7D6FD022247A1454800680830FEF7C5
:10252000CFFD00BF40F21E30288000BF94F8FC00B1
:1025300000F0010030B994F8FC00C0F3400008B985
:102540000020A1E600BF94F8FC0000F0010080F03C
:1025500001002076207E48B94748FDF77DFF3948C5
:102560008069A06004F10800FEF790FD00BF002024
:10257000A08100BF30490880304908803049088078
:1025800000BF94F8E40000F0010030B994F8E400D2
:1025900020F00200801C84F8E4001C21294800E09F
:1025A00002E0FDF72EFEEAE0A08941F20A0188422E
:1025B0006AD1244881696846FFF710FE00BF0020F9
:1025C000C4F8FC002068606100BF0B222BA11848F2
:1025D00000680830FEF774FD6846FDF729FE86B2F4
:1025E00032466946124800680830FEF769FD02224B
:1025F00010A10F4800680830FEF762FD002241F28A
:102600000A01204602F0CEFE00BF40F232302880A0
:1026100000BF94F8FC0000F0010030B994F8FC0011
:10262000C0F3400008B900202EE62EE0415400001F
:102630005C0000200D0A0000600000206200002005
:1026400064000020F406002041542B525354000033
:102650006800002041542B474D52000041542B5537
:102660004152545F000000003D0000002C382C3126
:102670002C302C30000000005802002041542B5216
:1026800046504F5745523D0023E000BF94F8FC00F0
:1026900000F0010080F00100207600BF0020A08142
:1026A00000BF3A4908803A4908803A49088000BF8B
:1026B00094F8E40000F0010030B994F8E40020F050
:1026C0000200801C84F8E4001C213348FDF799FDCA
:1026D00055E0A08941F20601884250D100BF002098
:1026E000C4F8FC002068606100BF0A222BA12E48BC
:1026F00000680830FEF7E4FC0222AFF2C8012A4865
:1027000000680830FEF7DCFC002241F2060120469A
:1027100002F048FE00BF40F23F30288000BF94F82E
:10272000FC00C0F3C00030B994F8FC00C0F34000D6
:1027300008B90020A8E500BF94F8FC00C0F3C00071
:1027400080F00100207600BF0020A08100BF0F496B
:1027500008800F4908800F49088000BF94F8E40002
:1027600000F0010030B994F8E40020F00200801C71
:1027700084F8E4001C210848FDF743FD00BF00BFBA
:1027800000BF0020288003207EE5000060000020BC
:102790006200002064000020F406002041542B5207
:1027A0004553544F524500005C0000202DE9FC4188
:1027B00005460C46288840F22F52811A90427DD05F
:1027C00015DC40F2D742A0EB0201904277D007DC43
:1027D000E0B1A0F2BD4000284DD00C2870D1ABE094
:1027E0000C296ED01A296DD04329F7D1E4E25A2979
:1027F00069D006DC1B2967D0222966D04C29EDD18F
:10280000F0E3682971D07429E8D1EDE3A08943F29F
:102810000D0188426BD1FE4881696846FFF7DEFCF6
:1028200000BF0020C4F8FC002068606100BF0A22DD
:10283000F8A1FB4800680830FEF742FC6846FDF747
:10284000F7FC87B23A466946F54800680830FEF75B
:1028500037FC0222F3A1F24800680830FEF730FC92
:10286000002243F20D01204602F09CFD00BF40F221
:10287000BD40288000BF94F8FC0000F0010038B98A
:1028800094F8FC00C0F3400010B90020BDE8FC81C2
:1028900000BF94F8FC0000F0010080F001002076F9
:1028A00000BF0020A08100BFDF490880DF49088009
:1028B000DF49088000BF94F8E40007E0EFE2A0E001
:1028C000C9E3F3E057E1F9E380E3AAE300F0010094
:1028D00030B994F8E40020F00200801C84F8E40091
:1028E0001C21CB48FDF78DFCA2E2E9E3FFE7A089BC
:1028F00043F2140188424FD100BF0020C4F8FC000D
:102900002068606100BF0D22CAA1C5480068083078
:10291000FEF7D6FB0222C3A1C14800680830FEF7CB
:10292000CFFB002243F21401204602F03BFD00BF22
:1029300040F2C940288000BF94F8FC0000F001007C
:1029400030B994F8FC00C0F3400008B900209DE7BE
:1029500000BF94F8FC0000F0010080F00100207638
:1029600000BF0020A08100BFAF490880AF490880A8
:10297000AF49088000BF94F8E40000F0010030B9CE
:1029800094F8E40020F00200801C84F8E4001C218C
:102990009F48FDF736FCA7E7A08943F20111884262
:1029A0005FD19B4881696846FFF718FC00BF002093
:1029B000C4F8FC002068606100BF0F22A1A1984804
:1029C00000680830FEF77CFB6846FDF731FC87B2F3
:1029D0003A466946924800680830FEF771FB0222C9
:1029E00090A18F4800680830FEF76AFB002243F28E
:1029F0000E01204602F0D6FC00BF40F2D7402880EE
:102A000000BF94F8FC0000F0010030B994F8FC001D
:102A1000C0F3400008B9002038E700BF94F8FC007C
:102A200000F0010080F00100207600BF0020A081AE
:102A300000BF7D4908807D4908807D49088000BF2E
:102A400094F8E40000F0010030B994F8E40020F0BC
:102A50000200801C84F8E4001C216D48FDF7D1FBC6
:102A600042E7A08943F2021188424FD100BF002003
:102A7000C4F8FC002068606100BF0E2275A16848A0
:102A800000680830FEF71CFB022266A1644800685B
:102A90000830FEF715FB002243F20E01204602F03B
:102AA00081FC00BF40F2E340288000BF94F8FC00A6
:102AB00000F0010030B994F8FC00C0F3400008B900
:102AC0000020E3E600BF94F8FC0000F0010080F075
:102AD0000100207600BF0020A08100BF524908807D
:102AE000524908805249088000BF94F8E40000F081
:102AF000010030B994F8E40020F00200801C84F852
:102B0000E4001C214248FDF77CFBEDE6A08943F27E
:102B1000110188425FD13E4881696846FFF75EFB3C
:102B200000BF0020C4F8FC002068606100BF0A22DA
:102B30004CA13B4800680830FEF7C2FA6846FDF732
:102B400077FB87B23A466946354800680830FEF799
:102B5000B7FA022233A1324800680830FEF7B0FA13
:102B6000002243F20E01204602F01CFC00BF40F29E
:102B7000F140288000BF94F8FC0000F0010030B95B
:102B800094F8FC00C0F3400008B900207EE600BFC6
:102B900094F8FC0000F0010080F00100207600BFF6
:102BA0000020A08100BF20490880204908802049DA
:102BB000088000BF94F8E40000F0010030B994F8F8
:102BC000E40020F00200801C84F8E4001C2110487E
:102BD000FDF717FB88E6A08943F2030188427DD107
:102BE000A089E081002646E006EB860104F174002E
:102BF00000EB8100807C00F00100C8BB06EB860181
:102C000004F1740000EB810001494969086034E077
:102C1000F406002041542B4349504D55583D0000C7
:102C20005C0000200D0A000060000020620000200F
:102C30006400002041542B43495044494E464F3DC7
:102C40003100000041542B434950534552564552E0
:102C50003D312C0041542B43495053455256455267
:102C60003D30000041542B43495053544F3D000028
:102C7000FFE7701CC6B2052EB6DB00BFF648406900
:102C8000006810B901202076B5E0F348406900687B
:102C9000807C20F00200801CEF4949690968887433
:102CA00031466846FFF79AFA00BF0020C4F8FC00DE
:102CB0002068606100BF0C22E8A1EC480068083081
:102CC000FEF7FEF96846FDF7B3FA87B23A46694661
:102CD000E64800680830FEF7F3F900E0A9E00222B8
:102CE000E3A1E24800680830FEF7EAF9DA488069B3
:102CF000000C38B90322DFA1DC4800680830FEF779
:102D0000DFF91AE0D44880690121B1EB104F07D1F7
:102D10000322D9A1D54800680830FEF7D1F90CE0AC
:102D2000CD4880690221B1EB104F06D10322D3A117
:102D3000CE4800680830FEF7C3F90322D0A1CB4883
:102D400000680830FEF7BCF9C3490868FDF770FA5F
:102D500087B2C1483A460168C44800680830FEF7A7
:102D6000AFF90222C7A1C14800680830FEF7A8F9F0
:102D7000B948806981B26846FFF730FA6846FDF7C6
:102D800057FA87B23A466946B84800680830FEF7F5
:102D900097F90222AFF27411B44800680830FEF7C8
:102DA0008FF9002243F20301204602F0FBFA00BF34
:102DB00040F21A50288000BF94F8FC0000F0010097
:102DC00030B994F8FC00C0F3400008B900205DE57C
:102DD00000BF94F8FC0000F0010080F001002076B4
:102DE000207E38B100BF00209B494969096888747A
:102DF00000BF00E000BFE089A08100BF0020A081EB
:102E000000BFA1490880A1490880A149088000BFEE
:102E100094F8E40000F0010030B994F8E40020F0E8
:102E20000200801C84F8E4001C218B48FDF7E9F9BE
:102E30007CE3A08943F20B01884260D18648816916
:102E40006846FFF7CBF900BF0020C4F8FC002068FB
:102E5000606100BF0C228FA1844800680830FEF733
:102E60002FF96846FDF7E4F987B23A4669467F488C
:102E700000680830FEF724F90222AFF258217B489F
:102E800000680830FEF71CF9002243F20E012046CC
:102E900002F088FA00BF40F22F50288000BF94F85B
:102EA000FC0000F0010030B994F8FC00C0F34000D1
:102EB00008B90020EAE400BF94F8FC0000F001002B
:102EC00080F00100207600BF0020A08100BF6E4985
:102ED00008806E4908806E49088000BF94F8E400BD
:102EE00000F0010030B994F8E40020F00200801CEA
:102EF00084F8E4001C215848FDF783F916E3A08903
:102F000043F2050188426ED1A089E08152480069F0
:102F100018B1002050490969086003206149087010
:102F200000BF4D488069B0F5006F02D94FF40060D2
:102F300001E0494880695C49086000BF0020C4F88E
:102F4000FC002068606100BF0B2258A14748006860
:102F50000830FEF7B5F84048C06801786846FFF7CA
:102F60003DF96846FDF764F987B23A4669463F483D
:102F700000680830FEF7A4F801224FA13B48006822
:102F80000830FEF79DF8484801686846FFF726F9C3
:102F90006846FDF74DF987B23A46694633480068FE
:102FA0000830FEF78DF80222AFF288312F48006812
:102FB0000830FEF785F8002243F20501204602F0B2
:102FC000F1F900BF40F24A50288000BF94F8FC009D
:102FD000C0F3800048B994F8FC00C0F3400020B969
:102FE000002053E419E1E2E041E200BF94F8FC0064
:102FF000C0F3800070B300BF0020C4F8FC0020685C
:10300000606100BF2848008882B2134801681748F1
:1030100000680830FEF754F800BF40F25150288095
:1030200000BFFD20005D00F0010058B9FD20005DEB
:10303000C0F3400030B994F8FC00C0F3400008B978
:10304000002023E400BFFD20005D00F00100B0B3CC
:10305000002037E046E06AE2F406002041542B43AA
:10306000495053544152543D000000005C00002080
:103070002C220000544350005544500053534C0040
:10308000222C2200222C0000600000206200002080
:103090006400002041542B434950434C4F53453D5D
:1030A000000000006C0000207000002041542B4301
:1030B000495053454E443D002C00000017E100E00C
:1030C0007FE10B202076207E98B9FE48006980B110
:1030D000FC4800690068FC4909680844F949096925
:1030E000086006E094F8FC00C0F3400008B101203D
:1030F0002076207E88B90320F4490870F148806961
:10310000F1490968401AEF49886108460068EE49AC
:1031100009680844EB4908600DE0FD20005DC0F33C
:10312000400028B1E9480078401EE849087002E0F4
:103130000020E6490870E348806920B1E348007840
:1031400000287FF4EEAEE148007848B1DD48C06861
:10315000C07C20F00400001DDA49C968C87408E08A
:10316000D848C068C07C20F008000830D549C9683C
:10317000C874E089A08100BF0020A08100BFD449AD
:103180000880D4490880D449088000BF94F8E4003E
:1031900000F0010030B994F8E40020F00200801C37
:1031A00084F8E4001C21C748FDF72BF8BEE1A08994
:1031B00043F20401884260D1C24881696846FFF742
:1031C0000DF800BF0020C4F8FC002068606100BF5B
:1031D0000E22C2A1C54800680830FDF771FF68469D
:1031E000FDF726F887B23A466946C04800680830BD
:1031F000FDF766FF0222AFF2D451BC4800680830E8
:10320000FDF75EFF002243F20401204602F0CAF8F7
:1032100000BF40F27B50288000BF94F8FC0000F013
:10322000010030B994F8FC00C0F3400008B9002058
:1032300047E400BF94F8FC0000F0010080F00100BA
:10324000207600BF0020A08100BFA1490880A149CD
:103250000880A149088000BF94F8E40000F0010054
:1032600030B994F8E40020F00200801C84F8E400F7
:103270001C219448FCF7C5FF58E1A08943F20201E4
:10328000884264D100BF0020C4F8FC00206860615F
:1032900000BF0E2296A1954800680830FDF710FF88
:1032A00088490868FCF7C4FF87B286483A46016837
:1032B0008E4800680830FDF703FF012290A18B487B
:1032C00000680830FDF7FCFE0222AFF2A8618748D3
:1032D00000680830FDF7F4FE002243F202012046A8
:1032E00002F060F800BF40F28950288000BF94F8D7
:1032F000FC0000F0010030B994F8FC00C0F340007D
:1033000008B9002042E400BF94F8FC0000F001007E
:1033100080F00100207600BF0020A08100BF6C4932
:1033200008806C4908806C49088000BF94F8E4006C
:1033300000F0010030B994F8E40020F00200801C95
:1033400084F8E4001C215F48FCF75BFFEEE0A089F5
:1033500043F21201884264D100BF0020C4F8FC008F
:103360002068606100BF092266A1604800680830DB
:10337000FDF7A6FE53490868FCF75AFF87B251488B
:103380003A460168594800680830FDF799FE012265
:103390005BA1564800680830FDF792FE0222AFF2AA
:1033A0007C71524800680830FDF78AFE002243F223
:1033B0001201204601F0F6FF00BF40F2975028802E
:1033C00000BF94F8FC0000F0010030B994F8FC0054
:1033D000C0F3400008B90020F9E400BF94F8FC00F5
:1033E00000F0010080F00100207600BF0020A081E5
:1033F00000BF37490880374908803749088000BF37
:1034000094F8E40000F0010030B994F8E40020F0F2
:103410000200801C84F8E4001C212A48FCF7F1FE1D
:1034200084E0A08943F2130188427FD100BF0020CD
:10343000C4F8FC002068606100BF0B2234A12B4857
:1034400000680830FDF73CFE0222AFF6280127484D
:1034500000680830FDF734FE002243F213012046D5
:1034600001F0A0FF00BF40F2A350288000BF94F8F5
:10347000FC0000F0010030B994F8FC00C0F34000FB
:1034800008B90020A3E400BF94F8FC0000F001009C
:1034900080F00100207600BF0020A08100BF0C4911
:1034A00008800C4908800C49088000BF94F8E400AB
:1034B00000F0010090BB94F8E40020F00200801CB2
:1034C0002DE033E0F4060020700000206C000020A6
:1034D00060000020620000206400002041542B4363
:1034E000495053534C53495A453D00005C0000205D
:1034F00041542B434950444F4D41494E3D22000019
:103500002200000041542B50494E473D220000004C
:1035100041542B43495550444154450001E084F83F
:10352000E4001C210448FCF76CFE00BF00BF00BF94
:103530000020288003204AE4F40600202DE9FE4301
:1035400005460C463A2000900627288840F20342A0
:10355000811A90427ED022DC40F28732A0EB020139
:10356000904278D012DC40F26332A0EB020190422C
:1035700072D006DC68B3A0F25730002841F0F38126
:103580005DE00C2969D01829F8D166E119297CD0B1
:1035900035297BD051297AD06D29EFD1E9E356291D
:1035A00000F04B8708DC0D2972D02D2971D03D2900
:1035B00070D04929E2D1F6E3622900F094876F299F
:1035C00000F0E7878D2901F004819E29D6D101F012
:1035D00099B9A08942F2010188426FD1F848816906
:1035E00001A8FEF7FBFD00BF0020C4F8FC00206826
:1035F000606100BF0A22F3A1F54800680830FDF7BA
:103600005FFD01A8FCF714FE1FFA80F8424601A9ED
:10361000EF4800680830FDF753FD0222EDA1EC48A9
:1036200000680830FDF74CFD002242F201012046FF
:1036300001F0B8FE00BF40F25730288000BF94F878
:10364000FC0000F0010060B994F8FC00C0F34000F9
:1036500038B903E0FAE355E155E0A9E00020BDE800
:10366000FE8300BF94F8FC0000F0010080F0010030
:10367000207600BF0020A08100BFD7490880D7492D
:103680000880D749088000BF05E012E2B0E252E3AB
:10369000DDE3FDE3FDE394F8E40000F0010030B960
:1036A00094F8E40020F00200801C84F8E4001C215F
:1036B000C348FCF7A6FD01F055B9FFE7A08942F227
:1036C000011188424FD100BF0020C4F8FC002068DF
:1036D000606100BF1122C3A1BD4800680830FDF73A
:1036E000EFFC0222BBA1BA4800680830FDF7E8FCF5
:1036F000002242F20B01204601F054FE00BF40F2CE
:103700006330288000BF94F8FC0000F0010030B95D
:1037100094F8FC00C0F3400008B900209FE700BF08
:1037200094F8FC0000F0010080F00100207600BF5A
:103730000020A08100BFA8490880A8490880A849A6
:10374000088000BF94F8E40000F0010030B994F85C
:10375000E40020F00200801C84F8E4001C2198485A
:10376000FCF74FFDA7E7A08942F2021188424FD132
:1037700000BF0020C4F8FC002068606100BF102278
:103780009DA1934800680830FDF79AFC022291A1A0
:103790008F4800680830FDF793FC002242F20C01CC
:1037A000204601F0FFFD00BF40F26F30288000BFCF
:1037B00094F8FC0000F0010030B994F8FC00C0F36C
:1037C000400008B900204AE700BF94F8FC0000F070
:1037D000010080F00100207600BF0020A08100BF22
:1037E0007D4908807D4908807D49088000BF94F8A4
:1037F000E40000F0010030B994F8E40020F0020089
:10380000801C84F8E4001C216D48FCF7FAFC52E7A8
:10381000A08942F2031188424FD100BF0020C4F8B2
:10382000FC002068606100BF0E2278A16848006833
:103830000830FDF745FC022266A1654800680830A3
:10384000FDF73EFC002242F20D01204601F0AAFDE8
:1038500000BF40F27B30288000BF94F8FC0000F0ED
:10386000010030B994F8FC00C0F3400008B9002012
:10387000F5E600BF94F8FC0000F0010080F00100C4
:10388000207600BF0020A08100BF53490880534923
:1038900008805349088000BF94F8E40000F001005C
:1038A00030B994F8E40020F00200801C84F8E400B1
:1038B0001C214348FCF7A5FCFDE6A08942F2041157
:1038C00088424FD100BF0020C4F8FC00206860612E
:1038D00000BF0D2251A13E4800680830FDF7F0FB03
:1038E00002223CA13A4800680830FDF7E9FB0022BB
:1038F00042F20E01204601F055FD00BF40F2873034
:10390000288000BF94F8FC0000F0010030B994F862
:10391000FC00C0F3400008B90020A0E600BF94F806
:10392000FC0000F0010080F00100207600BF0020C4
:10393000A08100BF284908802849088028490880BC
:1039400000BF94F8E40000F0010030B994F8E400FE
:1039500020F00200801C84F8E4001C211848FCF7C9
:1039600050FCA8E6A08942F20511884268D11448AB
:10397000466800BF0020C4F8FC002068606100BFFA
:103980000D222AA1124800680830FDF799FB0C4966
:103990000868FCF74DFC1FFA80F8094842460168A8
:1039A0000B4800680830FDF78BFB022223A1084872
:1039B00000680830FDF784FB06273A20009059E0A4
:1039C000F406002041542B43574D4F44453D000021
:1039D0005C0000200D0A0000600000206200002052
:1039E0006400002041542B4349505354414D4143FE
:1039F0005F4355523F00000041542B434950415012
:103A00004D41435F4355523F0000000041542B435A
:103A100049505354415F4355523F000041542B439A
:103A2000495041505F4355523F00000041542B43E1
:103A300049505354414D41435F0000003D22000076
:103A40006FE016F8011B01A8FEF79AFB01A8FCF72E
:103A5000EFFB1FFA80F8424601A9FD4800680830D4
:103A6000FDF72EFB37B101226946F948006808309E
:103A7000FDF726FB381EA7F10101CFB2E1D10122EB
:103A8000F4A1F34800680830FDF71AFB0222AFF2F8
:103A9000BC01EF4800680830FDF712FB002242F23B
:103AA0000B01204601F07EFC00BF4FF468702880B7
:103AB00000BF94F8FC0000F0010030B994F8FC005D
:103AC000C0F3400008B90020C9E500BF94F8FC002D
:103AD00000F0010080F001002076207E28B956F821
:103AE000061C216336F8020CA08600BF0020A081CE
:103AF00000BFD9490880D9490880D949088000BF4A
:103B000094F8E40000F0010030B994F8E40020F0EB
:103B10000200801C84F8E4001C21D248FCF771FBF1
:103B2000C9E5A08942F2061188427CD1CD48466899
:103B300000BF0020C4F8FC002068606100BF0C22B8
:103B4000C9A1C34800680830FDF7BAFAC54908683A
:103B5000FCF76EFB1FFA80F8C24842460168BC4879
:103B600000680830FDF7ACFA0222AFF23011B84815
:103B700000680830FDF7A4FA06273A20009018E004
:103B800016F8011B01A8FEF7FBFA01A8FCF750FB91
:103B90001FFA80F8424601A9AD4800680830FDF7D9
:103BA0008FFA37B101226946A94800680830FDF74D
:103BB00087FA381EA7F10101CFB2E1D10122A5A1F8
:103BC000A34800680830FDF77BFA0222AFF2FC112F
:103BD0009F4800680830FDF773FA002242F20C019A
:103BE000204601F0DFFB00BF4FF46F70288000BF5C
:103BF00094F8FC0000F0010030B994F8FC00C0F328
:103C0000400008B900202AE500BF94F8FC0000F04D
:103C1000010080F001002076207E48B956F8061C8D
:103C2000C4F8421000E01FE036F8020CA4F8460089
:103C300000BF0020A08100BF874908808749088015
:103C40008749088000BF94F8E40000F0010030B913
:103C500094F8E40020F00200801C84F8E4001C21A9
:103C60008048FCF7CEFA26E5A08942F20B11884283
:103C70007ED17C48466800BF0020C4F8FC00206864
:103C8000606100BF0A227CA1714800680830FDF71E
:103C900017FA74490868FCF7CBFA1FFA80F87148E4
:103CA000424601686A4800680830FDF709FA0222B6
:103CB000AFF27821664800680830FDF701FA042762
:103CC0002E20009018E016F8011B01A8FEF786FAD6
:103CD00001A8FCF7ADFA1FFA80F8424601A95C483A
:103CE00000680830FDF7ECF937B101226946584801
:103CF00000680830FDF7E4F9381EA7F10101CFB2E2
:103D0000E1D1012253A1524800680830FDF7D8F9EB
:103D10000222AFF240314E4800680830FDF7D0F97A
:103D2000002242F20D01204601F03CFB00BF4FF49F
:103D30007670288000BF94F8FC0000F0010030B9D4
:103D400094F8FC00C0F3400008B9002087E400BFED
:103D500094F8FC0000F0010080F001002076207E45
:103D600010B956F8040C606200BF0020A08101E089
:103D70001AE0A6E000BF3849088038490880384971
:103D8000088000BF94F8E40000F0010030B994F816
:103D9000E40020F00200801C84F8E4001C2131487B
:103DA000FCF72FFA87E4DAE2A08942F20C1188428C
:103DB00070D12C48466800BF0020C4F8FC00206881
:103DC000606100BF09222FA1214800680830FDF77B
:103DD00077F924490868FCF72BFA1FFA80F8214884
:103DE000424601681A4800680830FDF769F9022266
:103DF000AFF2B831164800680830FDF761F90427C2
:103E00002E20009018E016F8011B01A8FEF7E6F935
:103E100001A8FCF70DFA1FFA80F8424601A90C48E8
:103E200000680830FDF74CF937B1012269460848AF
:103E300000680830FDF744F9381EA7F10101CFB240
:103E4000E1D1012203A10248006824E094E0CBE024
:103E50005C000020220000006000002062000020C2
:103E600064000020F406002041542B434950415087
:103E70004D41435F0000000041542B4349505354CF
:103E8000415F000041542B43495041505F00000006
:103E900066E1E2E14AE00830FDF712F90222AFF2F2
:103EA000CC41FE4800680830FDF70AF9002242F2D2
:103EB0000D01204601F076FA00BF4FF47D70288096
:103EC00000BF94F8FC0000F0010030B994F8FC0049
:103ED000C0F3400008B9002020E400BF94F8FC00C3
:103EE00000F0010080F001002076207E10B956F825
:103EF000040C606200BF0020A08100BFE849088078
:103F0000E8490880E849088000BF94F8E40000F020
:103F1000010030B994F8E40020F00200801C84F81D
:103F2000E4001C21E148FCF76CF91BE4A08942F293
:103F3000071188427ED100BF0020C4F8FC00206831
:103F4000606100BF1122DAA1D44800680830FDF793
:103F5000B7F80222AFF28451D04800680830FDF76C
:103F6000AFF8002242F20301204601F01BFA00BF25
:103F700040F20340288000BF94F8FC0000F00100EC
:103F800030B994F8FC00C0F3400008B900201AE4EE
:103F900000BF94F8FC0000F0010080F001002076E2
:103FA000207E00B135E000BF0020C4F8FC0020688E
:103FB000606100BF0822C3A1B84800680830FDF75F
:103FC0007FF80222AFF2F451B44800680830FDF7E0
:103FD00077F8002242F20401204601F0E3F900BF25
:103FE0004FF48260288000BF94F8FC0000F00100CC
:103FF00030B994F8FC00C0F3400008B9002037E461
:1040000000BF94F8FC0000F0010080F00100207671
:1040100000BF00BF0020A08100BFA1490880A149C6
:104020000880A149088000BF94F8E40000F0010076
:1040300040B900E00BE094F8E40020F00200801C9E
:1040400084F8E4001C219948FCF7DBF834E4A089EB
:1040500042F2020188427DD19448C66800BF002028
:10406000C4F8FC002068606100BF092298A18B4859
:1040700000680830FDF724F88C490868FCF7D8F888
:104080001FFA80F889484246016884480068083071
:10409000FDF716F80222AFF25C6180480068083034
:1040A000FDF70EF881494868FDF7C2FA03228BA19B
:1040B0007A4800680830FDF703F87C498868FDF706
:1040C000B7FA0122AFF27421744800680830FCF797
:1040D000F7FF86B3022282A1704800680830FCF71F
:1040E000EFFF06273A20009018E016F8011B01A800
:1040F000FEF746F801A8FCF79BF81FFA80F8424645
:1041000001A9664800680830FCF7DAFF37B10122E0
:104110006946624800680830FCF7D2FF381EA7F1F4
:104120000101CFB2E1D10122AFF2D8215B48006892
:104130000830FCF7C5FF0222AFF2687157480068EB
:104140000830FCF7BDFF002242F20201204601F0D8
:1041500029F900E05BE000BF4FF48660288000BFD3
:1041600094F8FC0000F0010030B994F8FC00C0F3B2
:10417000400008B90020A7E400BF94F8FC0000F05C
:10418000010080F001002076207E20BB00BF0020CF
:10419000A08100BF42490880424908804249088006
:1041A00000BF94F8E40000F0010030B994F8E40096
:1041B00020F00200801C84F8E4001C213B48FCF73E
:1041C00020F800BF00BFA08908B92068606142F2F2
:1041D0000310A081C6E300BF0020A08100BF3049CA
:1041E0000880304908803049088000BF94F8E40016
:1041F00000F0010030B994F8E40020F00200801CC7
:1042000084F8E4001C212948FBF7FBFFAAE3A089FE
:1042100042F2050188427CD100BF0020C4F8FC00B6
:104220002068606100BF08222EA11C480068083089
:10423000FCF746FF0222AFF6640118480068083018
:10424000FCF73EFF002242F20501204601F0AAF8E9
:1042500000BF4FF48860288000BF94F8FC0000F095
:10426000010030B994F8FC00C0F3400008B9002008
:104270002AE400BF94F8FC0000F0010080F0010087
:10428000207600BF0020A08100BF054908800549B5
:1042900008800549088000BF2AE03AE05C00002061
:1042A000600000206200002064000020F40600206E
:1042B00041542B43574C41504F50543D312C3132D7
:1042C0003700000041542B43574C41500000000080
:1042D00041542B43574A41505F000000222C2200DA
:1042E0002C22000041542B43575141500000000044
:1042F00094F8E40000F0010030B994F8E40020F0F4
:104300000200801C84F8E4001C21FC48FBF779FFC4
:1043100028E3A08942F20811884250D100BF002052
:10432000C4F8FC002068606100BF0D22F4A1F848C9
:1043300000680830FCF7C4FE0222AFF66811F448AA
:1043400000680830FCF7BCFE002242F20201204661
:1043500001F028F800BF40F24C40288000BF94F8DC
:10436000FC0000F0010030B994F8FC00C0F34000FC
:1043700008B9002047E400BF94F8FC0000F00100F9
:1043800080F00100207600BF0020A08100BFE1493D
:104390000880E1490880E149088000BF94F8E40002
:1043A00000F0010030B994F8E40020F00200801C15
:1043B00084F8E4001C21D148FBF723FFD2E2A08956
:1043C00042F20A01884268D100BF0020C4F8FC0014
:1043D0002068606100BF0E22D1A1CD48006808307E
:1043E000FCF76EFEC549896909B1D1A100E0D1A1F0
:1043F0000846FBF71DFF1FFA80F8C048806908B126
:10440000CBA000E0CBA001464246C148006808307E
:10441000FCF756FE0222AFF64421BD480068083082
:10442000FCF74EFE002242F20A01204600F0BAFFDD
:1044300000BF40F25940288000BF94F8FC0000F013
:10444000010030B994F8FC00C0F3400008B9002026
:104450007CE400BF94F8FC0000F0010080F0010053
:10446000207600BF0020A08100BFAA490880AA4989
:104470000880AA49088000BF94F8E40000F0010019
:1044800030B994F8E40020F00200801C84F8E400C5
:104490001C219A48FBF7B5FE64E2A08942F20701AD
:1044A000884250D100BF0020C4F8FC002068606141
:1044B00000BF0822A0A1964800680830FCF700FE63
:1044C0000222AFF6F021924800680830FCF7F8FDB0
:1044D000002242F20701204600F064FF00BF40F2D4
:1044E0006540288000BF94F8FC0000F0010030B95E
:1044F00094F8FC00C0F3400008B9002026E400BF97
:1045000094F8FC0000F0010080F00100207600BF6C
:104510000020A08100BF7F4908807F4908807F4933
:10452000088000BF94F8E40000F0010030B994F86E
:10453000E40020F00200801C84F8E4001C216F4895
:10454000FBF75FFE0EE2A08942F20911884250D1CA
:1045500000BF0020C4F8FC002068606100BF0D228D
:1045600078A16B4800680830FCF7AAFD0222AFF67C
:104570009C31674800680830FCF7A2FD002242F237
:104580000601204600F00EFF00BF40F27240288076
:1045900000BF94F8FC0000F0010030B994F8FC0072
:1045A000C0F3400008B9002096E400BF94F8FC0076
:1045B00000F0010080F00100207600BF0020A08103
:1045C00000BF54490880544908805449088000BFFE
:1045D00094F8E40000F0010030B994F8E40020F011
:1045E0000200801C84F8E4001C214448FBF709FE0B
:1045F000B8E1A08942F20A1188427DD100BF0020B3
:10460000C4F8FC002068606100BF092251A1404845
:1046100000680830FCF754FD38490868FBF708FECD
:104620001FFA80F83548424601683948006808306A
:10463000FCF746FD0222AFF6FC3135480068083031
:10464000FCF73EFD2D494868FCF7F2FF0322AFF26C
:1046500074312F4800680830FCF732FD274949685B
:1046600001F11400FCF7E4FF02223DA12848006894
:104670000830FCF725FD2148406890F8291001A872
:10468000FDF7ACFD01A8FBF7D3FD1FFA80F8424609
:1046900001A91F4800680830FCF712FD012231A172
:1046A0001B4800680830FCF70BFD1448406890F880
:1046B000281001A8FDF792FD01A8FBF7B9FD1FFA2C
:1046C00080F8424601A9124800680830FCF7F8FC5F
:1046D000012224A10E4800680830FCF7F1FC0748CD
:1046E000406890F82A1001A8FDF778FD01A8FBF7B3
:1046F0009FFD1FFA80F837E0C2E00000F4060020BA
:1047000041542B43574A41505F4355523F000000EC
:104710005C00002060000020620000206400002097
:1047200041542B43574155544F434F4E4E3D00008B
:10473000310000003000000041542B43574C4946E3
:104740000000000041542B43575341505F435552E2
:104750003F00000041542B43575341505F0000007D
:10476000222C00002C000000424601A9804800686D
:104770000830FCF7A5FC0122AFF218017C48006864
:104780000830FCF79DFC7B48406890F82B1001A88E
:10479000FDF724FD01A8FBF74BFD1FFA80F8424608
:1047A00001A9734800680830FCF78AFC0222AFF6C2
:1047B000DC516F4800680830FCF782FC002242F2AE
:1047C0000601204600F0EEFD00BF4FF49260288005
:1047D00000BF94F8FC0000F0010030B994F8FC0030
:1047E000C0F3400008B9002009E400BF94F8FC00C1
:1047F00000F0010080F001002076207ED8B100BFDB
:104800000020A08100BF5C4908805C4908805C49A9
:10481000088000BF94F8E40000F0010030B994F87B
:10482000E40020F00200801C84F8E4001C215148C0
:10483000FBF7E7FC96E000BF0020A08100BF4E49D7
:1048400008804E4908804E49088000BF94F8E40073
:1048500000F0010030B994F8E40020F00200801C60
:1048600084F8E4001C214348FBF7CBFC00BF00BFE9
:10487000A08908B92068606142F20910A08171E046
:10488000A08942F2130188426CD100BF0020C4F815
:10489000FC002068606100BF07223AA1344800682C
:1048A0000830FCF70DFC3349896911B1AFF2801172
:1048B00001E0AFF280110846FBF7BAFC1FFA80F85E
:1048C0002C48806910B1AFF2981001E0AFF29C1053
:1048D00001464246264800680830FCF7F1FB0222F8
:1048E000AFF61071224800680830FCF7E9FB00229F
:1048F00042F21301204600F055FD00BF40F2A140F6
:10490000288000BF94F8FC0000F0010030B994F852
:10491000FC00C0F3400008B900202CE400BF94F86C
:10492000FC0000F0010080F00100207600BF0020B4
:10493000A08100BF104908801049088010490880F4
:1049400000BF94F8E40000F0010030B994F8E400EE
:1049500020F00200801C84F8E4001C210548FBF7CD
:1049600050FC00BF00BF00BF0020288003207FE470
:104970005C000020F406002060000020620000209F
:104980006400002041542B5750533D00F8B50746B2
:104990000C46154600E0641C207810B120782228CF
:1049A000F9D1207800B9F8BD641C002605E014F8A0
:1049B000012B3046711CCEB22A54207840B12078A9
:1049C0002228F4D160782C28F1D1A0782228EED1C9
:1049D00000223046711CCEB22A54E41C002305F19B
:1049E00015022146384600F05AF91334694620462C
:1049F00000F06EF9E8769DF80000401C044469461A
:104A0000204600F065F900B2A88300BFCBE7F8B5F7
:104A100006460C4615462078282800D1641C222121
:104A20002846FBF7EEFB6946204600F051F9287056
:104A30009DF80000401C04442078222800D1641C0A
:104A40000020009015E02078222803D160782C28DF
:104A500000D111E09DF80000142804D22178681CD0
:104A60009DF8002081549DF80000401CC0B20090C9
:104A7000641C20780028E6D100BFA41C69462046AB
:104A800000F026F900B2E8829DF80000401C0444C2
:104A90002078222800D1641C002305F11802214649
:104AA000304600F0FCF813346946204600F010F957
:104AB000A8779DF80000401C04446946204600F099
:104AC00007F940B2E8779DF80000401C04446946AD
:104AD000204600F0FDF885F820009DF80000401CFD
:104AE0000444F8BDF8B506460C4615466B462A4602
:104AF0002146304600F08FF89DF80000401C044429
:104B00006B462A1D2146304600F0C9F8F8BDF8B5BD
:104B100007460C4615462C212846FBF772FB00265B
:104B200005E014F8012B3046711CCEB22A542078CF
:104B300040B120782228F4D160782C28F1D1A078D7
:104B40002228EED100223046711CCEB22A54E41C39
:104B5000002607E014F8012B3046711CCEB205F197
:104B600014010A54207828B120782228F2D16078E4
:104B70002C28EFD100223046711CCEB205F1140171
:104B80000A54A41C6946204600F0A2F82835687033
:104B90009DF80000401C04446946204600F098F847
:104BA00028709DF80000401C04446946204600F02F
:104BB0008FF8A8709DF80000401C04446946204608
:104BC00000F086F8E870283DF8BD2DE9F041044674
:104BD0000D460026002707E036012078FDF7B4FADD
:104BE0000644641C781CC7B22078302802DB207889
:104BF0003928F1DD2078612802DB20786628EBDD9A
:104C00002078412802DB20784628E5DD05B12F70A9
:104C10003046BDE8F0812DE9F84380460D46164642
:104C20001C4604270020009004B1207013E0694660
:104C3000284600F04DF806F8010B9DF80000401CD6
:104C4000054444B120789DF800100844207017B145
:104C50002078401C2070381EA7F10101CFB2E6D1A8
:104C6000BDE8F883F8B506460D46144600202060DE
:104C70006060A0606946284600F02AF800EB8001D9
:104C800006F1740000EB810060609DF80000401C9C
:104C900005446946284600F01BF82081F8BD2DE93F
:104CA000F04180460C4615461E46062706E00021C8
:104CB0002046FFF78AFF05F8010BE41C381EA7F118
:104CC0000101CFB2F3D10EB111203070BDE8F081F7
:104CD00070B5024600250024002310782D2803D14A
:104CE0000125521C601CC4B207E0107830380A2637
:104CF00003FB0603521C601CC4B21078302802DB90
:104D000010783928F1DD01B10C700DB1584270BD39
:104D10001846FCE72DE9F0470446884608F10105EE
:104D20000026002728780D2804D168780A2801D1A8
:104D3000BDE8F087FDA12846FBF781FA00B90026FF
:104D4000FAA12846FBF77BFA08B9012000E0002011
:104D5000064696B9F7A12846FBF771FA08B9012073
:104D600000E00020074647B9F4A12846FBF767FAA0
:104D700008B9012000E00020074666B95FB9F2A13A
:104D80002846FBF75CFA30B994F8FC0020F00800E4
:104D9000083084F8FC00A08941F20301884241D127
:104DA0002878412802D0287861280FD1E848006887
:104DB00060B105F10B00FBF73BFAA0F10209E449F1
:104DC0004A46086805F10B01FBF726FA28785328B4
:104DD00002D0287873280FD1DD48406860B105F112
:104DE0000C00FBF725FAA0F10209D9494A464868A8
:104DF00005F10C01FBF710FA2878432802D0287837
:104E000063280FD1D248806860B105F10D00FBF72F
:104E10000FFAA0F10209CE494A46886805F10D0152
:104E2000FBF7FAF9A08942F20B01884219D12878E0
:104E30002B2816D10A22C7A12846FBF70EFA80B903
:104E4000002304F1300205F110012046FFF727FF8F
:104E5000BF48C06828B1BE48C068216B0160A18E00
:104E60008180A08942F20C0188421BD128782B282E
:104E700018D10922BAA12846FBF7EFF990B900230F
:104E800004F1420205F10F012046FFF708FFB04888
:104E9000C06838B1AE48C068D4F842100160B4F8B8
:104EA00046108180A08942F20D01884232D12878D3
:104EB0002B282FD10822ADA12846FBF7CEF948BBFD
:104EC000287B69280FD1002304F1240205F1100189
:104ED0002046FFF7A0FE9E48C068D8B19C48C06835
:104EE000616A016016E0287B672808D1002304F17D
:104EF000280205F115012046FFF78DFE0AE0287B08
:104F00006E2807D1002304F12C0205F1150120467B
:104F1000FFF781FEA08942F20E01884232D1287843
:104F20002B282FD1072294A12846FBF796F948BBDE
:104F3000E87A69280FD1002304F1360205F10F0148
:104F40002046FFF768FE8248C068D8B18048C06834
:104F5000616A016016E0E87A672808D1002304F14D
:104F60003A0205F114012046FFF755FE0AE0E87AFF
:104F70006E2807D1002304F13E0205F114012046FA
:104F8000FFF749FEA08942F2070188421DD1287827
:104F900030281ADB2878392817DC6D48006900882A
:104FA0006B498969884210D269482946C2682046FF
:104FB000FFF798FD6648C0680A306549C860084632
:104FC00000690088401C0969088028782B2822D1B4
:104FD000A08942F2040188421DD1062268A1284618
:104FE000FBF73BF9B8B95A48006900885849896904
:104FF000884210D25648E91DC2682046FFF707FDD7
:105000005348C06822305249C86008460069008889
:10501000401C09690860A08942F2060188420BD150
:10502000062259A12846FBF718F928B904F14802CD
:10503000E91D2046FFF76BFDA08942F2020188427C
:1050400013D153A12846FBF7FAF808B901270CE061
:105050000A2251A12846FBF700F930B93C4805F176
:105060000A01C2682046FFF791FCA08943F21201B1
:1050700088420FD128782B280CD16878302809DB9A
:105080006878392806DC0021681CFFF721FE3049CA
:10509000C968086043A12846FBF7D1F898B9A089F0
:1050A00042F20201884206D1FD20005D20F004009A
:1050B000001DFD21085594F8E80020F00100401C77
:1050C00084F8E80030E03CA12846FBF7B8F898B92E
:1050D000A08942F20201884206D1FD20005D20F045
:1050E00008000830FD21085594F8E80020F002007F
:1050F000801C84F8E80017E034A12846FBF79FF8ED
:1051000090B9A08942F20201884206D1FD20005DDB
:1051100020F010001030FD21085594F8E80020F030
:105120000400001D84F8E800082257E04F4B0D0AE8
:10513000000000004552524F520D0A00627573790B
:1051400020702E2E2E0D0A0072656164790D0A0002
:10515000F40600202B4349505354414D4143000075
:105160002B43495041504D41430000002B434950CF
:105170005354415F000000002B43495041505F00F1
:105180002B43574C415000002B43575341500000D4
:105190004641494C0D0A00002B43574A41505F439A
:1051A000555200005749464920434F4E4E454354FF
:1051B00045440D0A00000000574946492044495320
:1051C000434F4E4E45435445440D0A005749464906
:1051D00020474F542049500D0A00000047A1681C89
:1051E000FBF73BF8A8B92978303901EB810204F1CB
:1051F000740101EB8200297830390170817C21F043
:105200000101491C8174C17C21F00101491CC17458
:1052100017E007223CA1681CFBF71FF888B9297822
:10522000303901EB810204F1740101EB8200C17C91
:1052300021F00201891CC17400BF0021817400BFEC
:1052400000BFA08943F2050188421AD1072230A18C
:105250002846FBF702F838B9FD20005D20F0010078
:10526000401CFD2108550CE009222BA12846FAF725
:10527000F4FF30B9FD20005D20F00200801CFD210C
:105280000855A08943F2020188420DD10A2225A1C6
:105290002846FAF7E2FF38B92548002305F10B014B
:1052A000C2682046FFF7B7FC042222A12846FAF77D
:1052B000D4FF40B904F1D802691D2046FFF7D2FCA3
:1052C000012084F8D8005EB114F8FC0F20F0010032
:1052D000401C2070207820F0020004F8FC090BE04C
:1052E00057B114F8FC0F20F001002070207820F056
:1052F0000200801C04F8FC0900BF19E52C434F4E46
:105300004E454354000000002C434C4F534544008D
:1053100053454E44204F4B0053454E44204641498F
:105320004C0000002B434950444F4D41494E000072
:10533000F40600202B4950440000000010B504463C
:10534000A089B0F5805F07DBA089B0F5005F03DAC4
:1053500021461148FCF74EFFA089B0F5005F07DB3E
:10536000A089B0F5405F03DA21460C48FEF7E6F865
:10537000A089B0F5405F07DBA089B0F5804F03DA64
:1053800021460748FDF712FA2046FBF7B5FE00BF9D
:105390000020207110BD000060000020620000208D
:1053A00064000020034699811A6118685861002042
:1053B0001876704710B5FCF765F910BD1448006801
:1053C00040F47000124908601248006840F0010083
:1053D0001049086000200F49083108600D48006836
:1053E0000D4908400B4908600C48091D0860081F5A
:1053F000006820F48020091F0860002005490C3156
:1054000008604FF000600249803908607047000072
:1054100088ED00E000380240FFFFF6FE1030002467
:1054200070B5034600240BB9002070BD58881D8854
:10543000A84201DB002058801BE05D889888401E50
:10544000854206D0988828B95D881888401E854214
:1054500000D113E011F8015B5E88701C58809868D9
:105460008555601CC4B258881D88A84201DB002005
:105470005880101EA2F10105AAB2DED100BF20465D
:10548000D3E7000010B501210148FCF7B7F810BDC3
:10549000580100200F48006820F080700D4A10600D
:1054A0001046006840F0807010600B48006820F0E3
:1054B0000100094A10601046006840F001001060C9
:1054C000002050601046416800BF00BF024840689D
:1054D000401A7047FCED00E0001000E01CB5002011
:1054E000012103460246CDE900104903014800F0BE
:1054F0002FF91CBD0008024009480068C0F3403085
:1055000080F0010030B10748007830B9012005492A
:10551000087070470020034908700020F9E7000078
:1055200010080240080000201CB5032000210B4693
:105530000122CDE900102021034800F009F94FF4C1
:105540000010014988611CBD0000024030B50246D0
:105550000B460E4CA24207D20D490D4C0834141BC9
:105560001825B4FBF5F006E008490839074C141B70
:105570001825B4FBF5F0042801D3091D001F03F022
:105580003D04044D2D5CAC400C6030BD1064024005
:1055900008600240E46500087047704770B5024635
:1055A0000C460021002300200E4DAA4207D20E4BCC
:1055B0000D4D1035551B1826B5FBF6F106E0094BCD
:1055C000103B084D551B1826B5FBF6F1042901D3F5
:1055D0001B1D091F1868054D6D5CE84000F03D007B
:1055E00070BD00001064024000600240E4650008E5
:1055F000704770B504463D212046FFF7CFFF85B2C6
:105600003D212046FFF7A2FF05F0200030B12068C1
:1056100000F0100010B1204600F029F805F010004D
:1056200030B1206800F0080010B12046FFF7E0FF1D
:1056300005F0080030B1206800F0040010B12046E9
:1056400000F016F805F0040030B1206800F0020008
:1056500010B12046FFF7A0FF05F0010030B16069EE
:1056600000F0800010B12046FFF797FF70BD704733
:10567000704701464FF40030081AC0F38F2070477E
:1056800000B502461046FFF7F4FF012101FA00F0D1
:105690000249096808430149086000BD30380240EA
:1056A0002DE9F04304460E461546DDE907892046FC
:1056B000FFF7DFFFC7B2002243E0012090403040F7
:1056C00000B93CE0214830F817000121914008431F
:1056D0001E4921F81700E0684FEA420C032101FA45
:1056E0000CF18843510008FA01F10843E06020689A
:1056F0004FEA420C032101FA0CF18843510005FAEC
:1057000001F108432060012D01D0022D16D16168FE
:105710000120904080B221EA000003FA02F189B230
:1057200008436060A0684FEA420C032101FA0CF1C3
:105730008843510009FA01F10843A06000BF501CE2
:10574000C2B2102AB9DBBDE8F0830000840000205B
:105750002DE9FC4305460C4616461F46DDE909893E
:105760000CB9BDE8FC832846FFF78AFF3B4632466A
:1057700021462846CDE90089FFF792FF00BFF0E7F8
:105780002DE9FC4705460E4617469846DDE90A9A7C
:105790000EB9BDE8FC872846FFF772FF00241AE027
:1057A0000120A040304000B914E0E10805F12000DC
:1057B00050F821006107CA0E0F219140884361070C
:1057C000C90E0AFA01F10843E20805F1200141F887
:1057D000220000BF641C102CE2D33B46022231465B
:1057E0002846CDE90089FFF75BFF00BFD1E7000045
:1057F00000B593B000BF2648006840F080502449AF
:1058000008600846006800F08050019000BF00BFAB
:1058100000BF2048006840F440401E490860084628
:10582000006800F44040019000BF00BF01200290DA
:105830000390002005904FF4800109910220089008
:1058400008210A914FF4C8710B9104210C91072192
:105850000D9102A8FCF722FA10B1012013B000BD8F
:1058600002200F900020109007200E900E9840F01C
:1058700008000E904FF480501190002012900621E5
:105880000EA8FCF711F808B10120E7E70020E5E7D2
:1058900040380240007000401CB504464CB9072057
:1058A000032101230022CDE9001049020A48FFF735
:1058B00067FF012C09D10720032101230022CDE934
:1058C0000010C0210548FFF75BFF032C03D107211F
:1058D000034800F089F91CBD0000024000040240AA
:1058E0000010014001B501216846FBF7E3F808BD4F
:1058F0001CB504464CB90720032101230022CDE941
:1059000000100C210A48FFF73BFF012C09D10720AA
:10591000032101230022CDE9001060210548FFF793
:105920002FFF032C03D10721034800F05DF91CBDB4
:1059300000000240000C0240004400401CB5044638
:105940004CB90820032101230022CDE90010C02119
:105950000448FFF715FF032C03D10821024800F08B
:1059600043F91CBD000802400014014038B505464B
:105970000C461E48056000BF0068006800901B4888
:1059800000684068009000BF00BF00BF1748006873
:1059900000680090154800684068009000BF00BF94
:1059A00000BF124800680068009010480068406816
:1059B000009000BF00BF00BF0C4800680068009066
:1059C0000A4800684068009000BF00BF00BF074859
:1059D000006800680090054800684068009000BFBB
:1059E00000BF2046FBF7E4FE38BD00001801002090
:1059F0000146064A914200D10020054A914200D159
:105A00000120044A914200D1062070470010014055
:105A100000440040001401402DE9F04F91B00446CD
:105A20000D4616461F46DDE91BABDDF868904A4877
:105A300084421FD100BF4948006840F01000474928
:105A400008600846006800F01000009000BF00BF2A
:105A500042482038006840F0100040492039086072
:105A60000846006820F0100008602846FFF714FF81
:105A70004FF025083A48844221D100BF3748001F23
:105A8000006840F400303549091F08600846006886
:105A900000F40030009000BF00BF30482438006898
:105AA00040F400302D49243908600846006820F48D
:105AB000003008602846FFF71BFF4FF026082948F2
:105AC00084421FD100BF2548006840F020002349D0
:105AD00008600846006800F02000009000BF00BF8A
