:020000040800F2
:100000005850002069020008911E0008351E0008A3
:100010008D1E0008A5050008657F0008000000008F
:10002000000000000000000000000000AD0100081A
:10003000A90600080000000001020008A5730008DE
:10004000830200088302000883020008830200087C
:10005000830200088302000883020008830200086C
:10006000830200088302000883020008A905000833
:10007000B9050008C9050008D9050008E905000808
:10008000F9050008090600088302000800000000C6
:1000900000000000000000000000000083020008D3
:1000A000830200088302000883020008830200081C
:1000B000830200088302000883020008830200080C
:1000C00083020008830200088302000883020008FC
:1000D00083020008E97E00080D7F00080000000090
:1000E0008302000883020008830200080000000069
:1000F00000000000000000000000000019060008D9
:100100000000000083020008830200088302000848
:1001100000000000000000000000000000000000DF
:100120002906000839060008490600085906000893
:100130006906000800000000000000000000000048
:100140000000000000000000000000008302000822
:10015000790600088906000899060008397F00081A
:100160008302000883020008000000000000000075
:10017000000000000000000000000000000000007F
:1001800000000000830200080000000000000000E2
:100190008302000883020008DFF80CD000F0FCF8AE
:1001A000004800474D8C0008585000202B4B196820
:1001B0000868B0E8F04F80F30988BFF36F8F4FF005
:1001C000000080F3118870470000000006480068B6
:1001D000006880F3088862B661B6BFF34F8FBFF343
:1001E0006F8F00DF00BF00BF08ED00E0DFF80C00FC
:1001F000016841F470010160704700BF88ED00E0C4
:10020000EFF30980BFF36F8F144B1A681EF0100FC5
:1002100008BF20ED108A20E9F04F106008B44FF0BD
:10022000500080F31188BFF34F8FBFF36F8F09F039
:10023000A9FA4FF0000080F3118808BC196808681B
:10024000B0E8F04F1EF0100F08BFB0EC108A80F33A
:100250000988BFF36F8F704700BF00BF8800002080
:10026000EFF30580704700000648804706480047C6
:10027000FEE7FEE7FEE7FEE7FEE7FEE7FEE7FEE756
:10028000FEE7FEE7AD7300089901000840EA0103AC
:100290009B0703D009E008C9121F08C0042AFAD23C
:1002A00003E011F8013B00F8013B521EF9D2704700
:1002B000D2B201E000F8012B491EFBD270470022A8
:1002C000F6E710B513460A4604461946FFF7F0FF55
:1002D000204610BD10B5044604E00B7800F8013B41
:1002E00003B1491C521EF8D2204610BD421C10F822
:1002F000011B0029FBD1801A704710B5002200E0D5
:10030000521C835C8C5CA34201D1002BF8D1D8B283
:10031000E1B2401A10BD30B505460020034600E0AA
:100320005B1C934205D2EC5CC85C201A01D1002C06
:10033000F6D130BD2DE9F05F0546002092469B4680
:1003400088460646814640241BE0284641464746EB
:10035000224600F042F853465A46C01A914110D343
:1003600011461846224600F029F82D1A67EB0108BD
:100370004F4622460120002100F020F817EB00092B
:100380004E41201EA4F10104DFDC484631462A46D6
:100390004346BDE8F09F0000064C074D06E0E068CC
:1003A00040F0010394E8070098471034AC42F6D3BC
:1003B000FFF7F6FE54A1000874A10008202A04DB10
:1003C000203A00FA02F1002070479140C2F1200368
:1003D00020FA03F3194390407047202A04DB203AA7
:1003E00021FA02F00021704721FA02F3D040C2F155
:1003F0002002914008431946704730B50146002459
:1004000009B9002030BD4A688B689A4201D10C6856
:1004100006E0934201D99C1A02E0D51A0868441BF1
:10042000601EEFE730B5014609B9002030BD4A68CB
:100430008B689A4201D1002406E09A4201D9D41A6D
:1004400002E09D1A0868441B2046EFE770B5044699
:100450000D4616460CB9012070BD18212046FFF745
:100460002EFF2560E6600A206074E06868B92846BF
:1004700008F046FCE060E06818B900202060012028
:10048000EAE7207C40F002002074207C40F001006C
:1004900020740020E0E72DE9F04704468946154620
:1004A0004FF00008CA4604B115B90020BDE8F08736
:1004B0002168A068884201D30020A0602046FFF791
:1004C000B1FF0746AF4203D20FB90020EEE73D4629
:1004D000A1682068461AAE4200D92E46D4E902200F
:1004E000811832465046FFF7D1FEB044A068304430
:1004F000A060AD1B35B10AEB08002A46E168FFF7A2
:10050000C5FEA5602168A068884201D30020A060D4
:1005100008EB0500CAE700B970470021416081601F
:1005200000BFF9E72DE9F0470446894615464FF02C
:100530000008CA4604B115B90020BDE8F087D4E927
:100540000010884201D3002060602046FFF755FF6D
:100550000746AF4203D20FB90020EEE73D46D4E98B
:100560000001461AAE4200D92E466268E16888183A
:1005700032465146FFF78AFEB044606830446060FE
:10058000AD1B35B10AEB08012A46E068FFF77EFE95
:100590006560D4E90010884201D30020606008EB58
:1005A0000500CAE700BFFEE710B5024807F041F8B2
:1005B00010BD00001060024010B5024807F039F885
:1005C00010BD00002860024010B5024807F031F865
:1005D00010BD00004060024010B5024807F029F845
:1005E00010BD00005860024010B5024807F021F825
:1005F00010BD00007060024010B5024807F019F805
:1006000010BD00008860024010B5024807F011F8E4
:1006100010BD0000A060024010B5024807F009F8C4
:1006200010BD0000B860024010B5024807F001F8A4
:1006300010BD00001064024010B5024806F0F9FF3A
:1006400010BD00002864024010B5024806F0F1FF1A
:1006500010BD00004064024010B5024806F0E9FFFA
:1006600010BD00005864024010B5024806F0E1FFDA
:1006700010BD00007064024010B5024806F0D9FFBA
:1006800010BD00008864024010B5024806F0D1FF9A
:1006900010BD0000A064024010B5024806F0C9FF7A
:1006A00010BD0000B86402407047000070B50446F9
:1006B0000D461CB903A007F057FC00E000BF00BFC7
:1006C000002070BD537461636B2069732049444CF2
:1006D00045210D0A0000000002460020704700007E
:1006E00070B504460D462A4621460348FFF71AFF17
:1006F00086B2304670BD0000B80300202DE9FC41F1
:1007000004460E461546284F4FF4A2712046FFF7C7
:10071000D6FDC4F8305115B92448C4F8300100BFE3
:10072000002000BF07E0224A04F1780101EB4011EC
:10073000CA60411CC8B20528F5DB00BF002020605C
:100740001C4A4FF480713846FFF780FE012001906B
:10075000A66001AA04F10801002000F02DF810B1F4
:100760009DF8040020B100BF02202071BDE8FC818B
:1007700000BF012000906A4604F12401042000F02B
:100780001BF810B19DF8000018B100BF03202071C4
:10079000ECE700BF00BF204607F00AFC20712046AE
:1007A00007F006FCE2E70000B8030020D9060008C5
:1007B00070050020D00300202DE9FC4106460C46C0
:1007C0001546082E6CD2DFE806F0041C6B27334375
:1007D000515F2746032133483A6807F003FA0020A7
:1007E000012103460A46CDE900102F4806F0D0FF4C
:1007F00001202D4988610DB1002028700120BDE83D
:10080000FC812746BA882748396807F043FA0DB1BA
:10081000002028700120F2E72178012903D1080483
:10082000214A906102E001201F4A90610120E6E721
:100830002746384608F09FFA1C49086035B108463B
:10084000006808B9012000E0002028700120D6E7E8
:100850002746384608F095FA35B11448006808B9BB
:10086000012000E0002028700120C8E727464FF44F
:100870007A710E48006808F0B9FA08B1012000E06A
:10088000002028700120BAE727460848006808F0D1
:1008900085FA08B1012000E0002028700120AEE7B1
:1008A0000020ACE70010014000000240840000205E
:1008B0000EB500246C4A4FF4E1316C48FFF71EFF7F
:1008C0006B49087018B96BA007F04EFB04E068484C
:1008D000017870A007F048FB012000210B4675A2AB
:1008E000CDE9001078A1614800F028FB604908704C
:1008F00018B979A007F038FB04E05D4801787CA0C6
:1009000007F032FB00240BE004EBC40000EB041002
:10091000824901EB4001824840F82410601CC4B2B7
:10092000032CF1DB01227E49091F504800F05CFADC
:100930004F490870002822D17AA007F015FB7848AB
:10094000001F01787DA007F00FFB7548001F90F98C
:1009500001107FA007F008FB7148001F416881A0CB
:1009600007F002FB6E48001F816883A007F0FCFAC5
:100970006B48001FC16885A007F0F6FA04E03C4808
:10098000017887A007F0F0FA01206549091F087077
:10099000022048700122354800F08EFA3449087070
:1009A00018B988A007F0E0FA04E0314801787CA08B
:1009B00007F0DAFA01225A49091F2C4800F014FA0C
:1009C0002B490870002822D156A007F0CDFA5448D0
:1009D000001F017859A007F0C7FA5148001F90F98D
:1009E00001105BA007F0C0FA4D48001F41685DA0F0
:1009F00007F0BAFA4A48001F81685FA007F0B4FA0E
:100A00004748001FC16861A007F0AEFA04E018482B
:100A1000017863A007F0A8FA24E0144800F00CF96C
:100A200006F08AFD00281DD001226C490F4800F015
:100A30000FFA0F49087080B96848007A6749C97988
:100A4000664A9279CDE900210290644883888278D1
:100A5000417863A007F088FA04E0054801786BA0AC
:100A600007F082FAD9E70000AD060008C4010020B3
:100A700054000020455350206D6F64756C652069EB
:100A80006E6974207375636365737366756C6C79D6
:100A9000210D0A0045535020496E69742065727219
:100AA0006F722E205374617475733A2025640D0A99
:100AB000000000006D616A65726C655F696E746547
:100AC000726E6574000000004D616A65726C65208D
:100AD0005769466900000000436F6E6E6563746578
:100AE0006420746F206E6574776F726B0D0A00005E
:100AF00050726F626C656D7320747279696E6720D5
:100B0000746F20636F6E6E65637420746F206E6502
:100B100074776F726B3A2025640D0A00220300205F
:100B20000C030020534E545020636F6E666967209B
:100B300072656365697665640D0A0000534E545012
:100B400020656E61626C65643A2025640D0A0000C0
:100B5000534E54502074696D657A6F6E653A202546
:100B6000640D0A00534E54502073657276657220EE
:100B7000313A2025730D0A00534E5450207365728C
:100B800076657220323A2025730D0A00534E545078
:100B90002073657276657220333A2025730D0A0042
:100BA00050726F626C656D7320746F20676574207E
:100BB000534E545020636F6E6669673A2025640D6A
:100BC0000A000000534E545020636F6E6669672020
:100BD000656E61626C65640D0A00000018030020F8
:100BE000446174652074696D65207265636569761A
:100BF00065643A2025642E25642E25642025643AF8
:100C000025643A2564210D0A0000000050726F62CD
:100C10006C656D7320747279696E6720746F2067DC
:100C200065742063757272656E742074696D653ABF
:100C30002025640D0A00000070B504460026A08936
:100C400080B994F82801C0F3400058B194F8280105
:100C500020F0020084F82801D4F8302104F59A71BC
:100C600000209047A08980B994F82C0100F0010081
:100C700058B194F82C0120F0010084F82C01D4F82C
:100C8000302104F59A7102209047A08980B994F828
:100C90002C01C0F3400058B194F82C0120F0020060
:100CA00084F82C01D4F8302104F59A710320904780
:100CB000A08980B994F82C01C0F3800058B194F851
:100CC0002C0120F0040084F82C01D4F8302104F524
:100CD0009A710420904700267FE004F1780000EB31
:100CE0004615A089D8B994F82801C0F34000B0B9DE
:100CF000687FC0F3001090B1687F20F01000687723
:100D0000C4F834514FF49C70E9680151298A001DE0
:100D10000151D4F8302104F59A7101209047A0893F
:100D2000A0B994F82801C0F3400078B9687FC0F3F7
:100D3000800058B1687F20F004006877C4F834510F
:100D4000D4F8302104F59A7108209047A089A0B901
:100D500094F82801C0F3400078B9687FC0F3C00060
:100D600058B1687F20F008006877C4F83451D4F88F
:100D7000302104F59A7109209047A089A0B994F810
:100D80002801C0F3400078B9687F00F0010058B135
:100D9000687F20F001006877C4F83451D4F830211E
:100DA00004F59A7106209047A089A0B994F828010B
:100DB000C0F3400078B9687FC0F3400058B1687F45
:100DC00020F002006877C4F83451D4F8302104F5DB
:100DD0009A7107209047701CC6B2052EFFF47DAFB4
:100DE00000BF0020207170BDF8B504460D461646C0
:100DF00000BF1DB900BF04202071F8BD00BF00BFB7
:100E0000A08920B994F82801C0F3400018B100BFB0
:100E100009202071F1E700BF00BF012000906A4661
:100E200004F124010620FFF7C7FCA08908B9206857
:100E3000606143F20410A08100BF0448C5604FF414
:100E40007A723146204607F06FFCD6E75405002041
:100E5000F8B504460D46164600BF1DB900BF042074
:100E60002071F8BD00BF00BFA08920B994F8280107
:100E7000C0F3400018B100BF09202071F1E700BFA6
:100E800000BF012000906A4604F124010620FFF70C
:100E900093FCA08908B92068606143F21800A08122
:100EA00000BF0448C5604FF47A723146204607F00F
:100EB0003BFCD6E754050020F8B504460D4616461F
:100EC00000BF65B1287870B1287840B195F901006C
:100ED00010F10B0F03DB95F901000D2803DD00BFB6
:100EE00004202071F8BD00BF00BFA08920B994F88C
:100EF0002801C0F3400018B100BF09202071F1E7BC
:100F000000BF00BF012000906A4604F124010620C2
:100F1000FFF752FCA08908B92068606143F2031012
:100F2000A08100BF044805604FF47A723146204624
:100F300007F0FAFBD6E70000540500202DE9F8433E
:100F400004460D4616461F46DDE9088900BF05B177
:100F500026B900BF04202071BDE8F88300BF00BFA0
:100F6000A08920B994F82801C0F3400018B100BF4F
:100F700009202071F0E700BF00BF012000906A4601
:100F800004F124010620FFF717FCA08908B92068A6
:100F9000606142F20200A08100BFB8F1000F01D0F1
:100FA00007A000E007A00849086008464560866081
:100FB000C76047F230524946204607F0B5FBCBE701
:100FC0004445460043555200540500207CB5044674
:100FD000B54D4FF4FA76A08960B120686169401A76
:100FE000E169884206D994F8400120F00200801C93
:100FF00084F8400145E194F81C0100287ED04FF4AC
:101000009270005B0028F9D0A089B8B900BF012018
:1010100000906A4604F124010620FFF7CDFBA08969
:1010200008B92068606143F21500A08100BF94F800
:10103000280120F00100401C84F828019DF80410CC
:101040004FF490700059C2684FF49370005B1154D4
:101050004FF49370005B401C81B24FF493700153C6
:10106000801E005B401E81B24FF492700153005B02
:1010700058BB002084F81C01A08943F21501884266
:1010800023D100BF012000906A4604F1240107200B
:10109000FFF792FB0020A08100BF844908808449AB
:1010A00008808449088000BF94F8280100F00100FE
:1010B00030B994F8280120F00200801C84F828013F
:1010C0001C217D48FFF7FBF800BF4FF49370005BD5
:1010D00040F2B351884204DA4FF49270005B00286A
:1010E00041D14FF490700059C4F834014FF490701E
:1010F0000059C1684FF49C70015100E034E04FF496
:101100009370015B801F005901824FF49370015B63
:101110004FF49E7001514FF49270005B28B94FF468
:101120009270005B88B9A08978B9D4F8302104F5B1
:101130009A71012090474FF49071095901F11D00F7
:10114000497F21F01001017009E04FF490710959B5
:1011500001F11D00497F21F01001103101700021C3
:101160004FF49370015378E09DF80400202803DBCE
:101170009DF804007E2807DD9DF804000D2803D0AB
:101180009DF804000A2862D19DF804000A281BD1AA
:1011900000BF9DF80410494802780078401C474B76
:1011A0001870581C81540021401E0278401C815444
:1011B00000BF411E204605F0D5FA00BF00203F4980
:1011C0000870487000BF41E09DF8040020280FD14E
:1011D0003B4800783E280BD13A4800780A2807D1CE
:1011E00094F8400120F00400001D84F840012CE038
:1011F00000BF9DF80410314802780078401C2F4B46
:101200001870581C81540021401E0278401C8154E3
:1012100000BF9DF804003A2817D11846007804282A
:1012200013DD184640782B280FD1042226A1581C24
:10123000FFF771F848B92149204605F093FA00BF3D
:1012400000201E490870487000BF00BF05E000BFC5
:1012500000201A490870487000BF194800781949E1
:1012600008709DF80400164908704FF490700059FA
:1012700038B14FF490700059407FC0F3001000B1B6
:101280000CE0301EA6F101018EB207D0012201A9A7
:101290002846FFF700F900287FF4ADAE00BF2046D6
:1012A00006F040F87CBD0000B80300206400002078
:1012B000660000206800002054050020D1040020B2
:1012C00080000020810000202B49504400000000D5
:1012D00002680A440260704702E00248FFF776FEA7
:1012E000FBE70000C401002070B504460D46E5612F
:1012F00000BF2046FFF7A0FCA0890028F9D194F890
:101300002801C0F340000028F3D100BF207E2071E7
:10131000207E70BD38B504465C2000901DE020782A
:101320002C2805D02078222802D020785C2809D1EA
:1013300000BF0C49C1F800D0012088808A1DFFF74A
:101340003BFA00BF00BF07480460641C0120054948
:1013500088808A1DFFF730FA00BF20780028DED190
:1013600038BD00006C000020014800687047000094
:101370000400002010B52E480068401C2C4908606D
:101380002C48006820B12B480068401E294908609D
:10139000002444E0284850F8240000283DD0264886
:1013A00050F824000078C0F34000B0B3224850F851
:1013B0002400806840B1204850F824008068401E16
:1013C0001D4951F8241088601B4850F8240080689B
:1013D00018BB194B53F824301969174B53F82400E4
:1013E00053F82430DA689047134850F824004168D5
:1013F000114850F8240081600F4850F8240000780C
:1014000000F0010048B90C4850F82400007820F0A2
:101410000201094850F824000170601CC4B206485B
:10142000001F0078A042B5DC06F04AF810BD0000AD
:1014300004000020000000201001002010B50D481D
:10144000006840F400700B4908600846006840F4EA
:10145000806008600846006840F4807008600320DF
:1014600000F086F80F2000F007F800F017F80020D1
:1014700010BD0000003C024070B5044600F0E4F9E5
:101480004FF47A71B0FBF1F5284600F081FC0022A0
:101490002146501E00F02DF8002070BD704700005E
:1014A00000BF00F01F0201219140034A430942F8A6
:1014B000231000BF7047000080E200E000BF00F092
:1014C0001F0201219140034A430942F8231000BF43
:1014D0007047000080E100E000BF00F01F02012122
:1014E00091404209920002F1E022C2F8001100BFCF
:1014F00070472DE9F05F80460D461646002700F044
:10150000C9FC074639462A46334601F00700C0F1B8
:10151000070ABAF1040F02D94FF0040A01E0C0F142
:10152000070AD14600F1040ABAF1070F02D24FF0C0
:10153000000A01E0A0F1030AD4464FF0010A0AFABA
:1015400009FAAAF1010A0AEA020A0AFA0CFA4FF0A9
:10155000010B0BFA0CFBABF1010B0BEA030B4AEA94
:101560000B042146404600F09DFCBDE8F09F0000C2
:1015700000BF00F00702064B19684FF6FF03194041
:10158000044B0B4343EA0221014B196000BF704733
:101590000CED00E00000FA0570B504460E4600258B
:1015A000A748006800F00F00B0426FD2A4490E7047
:1015B0000846006800F00F00B04201D0012070BD65
:1015C000207800F00200022807D19E48006820F031
:1015D000F000A16808439B490860207800F00100F2
:1015E00000283ED06068012807D196480838006876
:1015F000C0F34040B8B90120E1E76068022802D09A
:101600006068032807D18F4808380068C0F340603D
:1016100048B90120D3E78B4808380068C0F3400080
:1016200008B90120CBE78748006820F00300616813
:10163000084384490860FFF797FE05466068012863
:1016400010D108E0FFF790FE401B41F2883188423C
:1016500001D90320B3E77B48006800F00C000428A0
:10166000F0D1CDE06068022811D108E0FFF77CFEE0
:10167000401B41F28831884201D903209FE771481D
:10168000006800F00C000828F0D1B9E024E06068A0
:10169000032810D108E0FFF767FE401B41F28831B4
:1016A000884201D903208AE76648006800F00C00F0
:1016B0000328F0D1A4E008E0FFF756FE401B41F2FA
:1016C0008831884201D9032079E75E48006800F03C
:1016D0000C000028F0D193E0207800F002000228EE
:1016E00007D15848006820F0F000A1680843554928
:1016F0000860207800F00100002877D06068012899
:1017000007D1504808380068C0F34040B8B90120FC
:1017100055E76068022802D06068032807D149486D
:1017200008380068C0F3406048B9012047E74548E1
:1017300008380068C0F3400008B901203FE741487D
:10174000006820F00300616808433E490860FFF725
:101750000BFE05466068012810D108E0FFF704FE83
:10176000401B41F28831884201D9032027E73548E0
:10177000006800F00C000428F0D137E0606802280F
:1017800010D108E0FFF7F0FD401B41F2883188429C
:1017900001D9032013E72B48006800F00C0008284B
:1017A000F0D123E06068032810D108E0FFF7DCFDEA
:1017B000401B41F28831884201D90320FFE62148CD
:1017C000006800F00C000328F0D10FE008E0FFF7FC
:1017D000CBFD401B41F28831884201D90320EEE65F
:1017E0001848006800F00C000028F0D114490E7071
:1017F0000846006800F00F00B04201D00120DEE68C
:10180000207800F00400042807D10E48006820F476
:10181000E050E16808430B490860207800F00800B8
:10182000082808D10748006820F46040216940EA90
:10183000C100044908600F20FFF71EFE0020BEE62D
:10184000003C02400838024010B500F045F8094954
:10185000096801F0F001F02292FAA2F2B2FA82F2E3
:10186000D140054A515CC8400449086008460068F8
:1018700010BD000008380240F0A000086000002001
:1018800010B5FFF7E1FF0749096801F4E0514FF493
:10189000E05292FAA2F2B2FA82F2D140024A515CCC
:1018A000C84010BD08380240F0A0000810B5FFF78E
:1018B000CBFF0749096801F460414FF4604292FA96
:1018C000A2F2B2FA82F2D140024A515CC84010BD85
:1018D00008380240F0A0000870B500210022002363
:1018E0000020274C246804F00C0424B1042C04D0FC
:1018F000082C41D103E0234840E023483EE0204C3F
:10190000241F246804F03F011D4C241F246804F4A4
:10191000800484B11C4CB4FBF1F5194C241F2468DD
:1019200047F6C076344096FAA6F6B6FA86F6F44044
:1019300005FB04F20FE0134CB4FBF1F5104C241F2F
:10194000246847F6C076344096FAA6F6B6FA86F6CC
:10195000F44005FB04F20A4C241F246804F44034CC
:101960004FF4403595FAA5F5B5FA85F5EC40641CC1
:101970006300B2FBF3F001E0024800BF00BF70BD9E
:10198000083802400024F40000127A0038B50446FA
:101990000025207800F00100002866D0F648006895
:1019A00000F00C0004280DD0F348006800F00C0093
:1019B000082813D1F048001F006800F48000B0F53B
:1019C000800F0BD1EC4808380068C0F34040002875
:1019D0004BD06068002848D1012038BD0020E6497E
:1019E000891F0870FFF7C0FC054608E0FFF7BCFC44
:1019F000401B41F28831884201D90320EDE7DE48DF
:101A000008380068C0F340400028EFD12079DA4957
:101A1000891F08706068A0B1FFF7A6FC054608E0C2
:101A2000FFF7A2FC401B41F28831884201D9032014
:101A3000D3E7D14808380068C0F340400028EFD011
:101A400013E0FFF791FC054608E0FFF78DFC401B13
:101A500041F28831884201D90320BEE7C6480838E0
:101A60000068C0F340400028EFD1207800F0020069
:101A7000022869D1C048006800F00C0058B1BE4887
:101A8000006800F00C00082821D1BB48001F006846
:101A900000F48000D8B9B84808380068C0F34000A6
:101AA00020B1E068012801D0012096E7B24808384B
:101AB000006820F0F800F82292FAA2F2B2FA82F25C
:101AC000216991400843AC49083908603CE0E0686E
:101AD00028B30120A9490860FFF746FC054606E047
:101AE000FFF742FC401B642801D9032075E7A24898
:101AF00008380068C0F340000028F1D09E4808383C
:101B0000006820F0F800F82292FAA2F2B2FA82F20B
:101B100021699140084398490839086014E0002081
:101B200096490860FFF720FC054606E0FFF71CFC1D
:101B3000401B642801D903204FE78F48083800680C
:101B4000C0F340000028F1D1207800F008000828F8
:101B50002CD16069A8B1012089490860FFF704FC15
:101B6000054606E0FFF700FC401B642801D903206E
:101B700033E781486C300068C0F340000028F1D0A2
:101B800014E000207E490860FFF7EEFB054606E002
:101B9000FFF7EAFB401B642801D903201DE77648C4
:101BA0006C300068C0F340000028F1D1207800F0CC
:101BB000040004286DD100BF6F483830006840F041
:101BC00080506D49383108600846006800F0805048
:101BD000009000BF00BF6B48006840F48070694906
:101BE0000860FFF7C1FB054606E0FFF7BDFB401BA1
:101BF000642801D90320F0E66248006800F4807090
:101C00000028F2D000205C4968310870FFF7ACFB77
:101C1000054608E0FFF7A8FB401B41F288318842E7
:101C200001D90320D9E6544868300068C0F3400069
:101C30000028EFD1207A504968310870A068A0B11F
:101C4000FFF792FB054608E0FFF78EFB401B41F2D1
:101C50008831884201D90320BFE6474868300068D0
:101C6000C0F340000028EFD013E0FFF77DFB0546EE
:101C700008E0FFF779FB401B41F28831884201D927
:101C80000320AAE63C4868300068C0F34000002802
:101C9000EFD1A069F0B33848006800F00C000828C4
:101CA00072D0A069022850D1002034490866FFF79D
:101CB0005BFB054606E0FFF757FB401B642801D994
:101CC00003208AE62C4808380068C0F340600028EA
:101CD000F1D1D4E90701084347F6C07292FAA2F2A3
:101CE000B2FA82F2616A914008430122A16AC2EB12
:101CF00051014FF4403292FAA2F2B2FA82F29140CC
:101D000008434FF0706292FAA2F2B2FA82F2E16AEC
:101D1000914000E03AE008431749091F086001209C
:101D200016490866FFF720FB054606E0FFF71CFB97
:101D3000401B642801D903204FE60F48083800688B
:101D4000C0F340600028F1D020E000200B49086675
:101D5000FFF70AFB054606E0FFF706FB401B642879
:101D600001D9032039E6044808380068C0F3406010
:101D70000028F1D10AE007E008380240000047429D
:101D8000800E474200700040012026E6002024E635
:101D900070B504462546681EB0F1807F01D301204E
:101DA0000FE0681E4FF0E02148610F214FF0FF3037
:101DB00000F078F800204FF0E021886107200861EA
:101DC000002070BD10B504460CB9012010BDA069FB
:101DD00000B100E000BF94F8390028B9002084F871
:101DE0003800204600F025F8022084F839002068E9
:101DF000C06820F400502168C860204605F062FFEA
:101E00002068006920F490402168086120684069DA
:101E100020F02A00216848612068C06840F4005022
:101E20002168C8600020E063012084F839000020A8
:101E3000CCE7704700BFFEE70146302905DB3929B2
:101E400003DCA1F13000C0B27047612905DB6629CF
:101E500003DCA1F15700C0B2F6E7412905DB4629B2
:101E600003DCA1F13700C0B2EEE70020ECE7000090
:101E700070B505460C46224602A1284606F084F8B5
:101E800070BD0000253032580000000000BFFEE7A2
:101E90007047000002480068C0F30220704700004D
:101EA0000CED00E010B5002807DA0A07140E054A09
:101EB00000F00F031B1FD45403E00A07130E024A5D
:101EC000135410BD18ED00E000E400E070B50546C5
:101ED0000C46224602A1284606F056F870BD0000C6
:101EE000256C7500FEB505460C460126288840F293
:101EF0008142811A90427DD019DCB0F5866F7AD08C
:101F00000ADC48B3A0F20E40002852D0102873D04B
:101F10001E2840F0DE872CE1A0F23B4000286CD068
:101F20000E286BD024286AD03928F2D117E345292E
:101F300066D008DC05297DD014297CD021297BD0EE
:101F40003629E6D1FEE3572977D0662900F0EE86E0
:101F50007829DED100F083BFA08941F201018842D7
:101F60006DD100BF0020C4F840012068606100BF4F
:101F700000BFFEA0FE490860022088808A1D012063
:101F8000FEF71AFC00BF00BFFAA0F9490860022062
:101F900088808A1D0120FEF70FFC00BF002241F25D
:101FA0000101204605F0EEF900BF40F20E40288006
:101FB00000BF94F8400100F0010030B994F84001EE
:101FC000C0F3400008B90020FEBD00BF94F84001F6
:101FD00000F0010080F00100207600BF0120009099
:101FE0006A4604F124010720FEF7E6FB0020A081E9
:101FF00000BF06E01AE3D1E060E006E16CE125E213
:10200000F4E3DD490880DD490880DD49088000BF30
:1020100094F8280100F0010030B994F8280120F06C
:102020000200801C84F828011C21D648FEF747F9DD
:1020300000F04FBF13E379E3FEE3FEE3FFE7A0897F
:1020400041F20501884272D1CE48816901A8FFF7AB
:102050003DFF00BF0020C4F840012068606100BF60
:1020600000BFC9A0C2490860032088808A1D0120E2
:10207000FEF7A2FB00BF00BF01A8BD490860FEF744
:1020800035F9BB4988808A1D0120FEF795FB00BF0A
:1020900000BFB8A0B6490860022088808A1D0120D0
:1020A000FEF78AFB00BF002241F20501204605F041
:1020B00069F900BF40F21E40288000BF94F840013B
:1020C00000F0010030B994F84001C0F3400008B9B5
:1020D000002079E700BF94F8400100F0010080F093
:1020E0000100207600BF012000906A4604F124011F
:1020F0000720FEF761FB0020A08100BF9E490880F9
:102100009E4908809E49088000BF94F8280100F08D
:10211000010030B994F8280120F00200801C84F8F6
:1021200028011C219748FEF7CAF881E7FFE7A0893C
:1021300041F20201884274D100BF0020C4F840017E
:102140002068606100BF00BF0020C4F84001206823
:10215000606100BF01208D49087000220320FEF756
:102160002BFB20688A49086000BF40F22C40288081
:1021700000BF206886490968401A022801D800205B
:1021800022E700BF00208149087000220320FEF7EB
:1021900013FB00BF4FF48660288000BF94F8400115
:1021A000C0F3C00030B994F84001C0F3400008B952
:1021B000002009E700BF94F84001C0F3C00080F0A0
:1021C00001002076207E68B300BF72A068490860D5
:1021D000062088808A1D0120FEF7EEFA00BF00BFAE
:1021E00064A063490860022088808A1D0120FEF7F0
:1021F000E3FA00BF002241F20201204605F0C2F8D6
:1022000000BF40F23B40288000BF94F84001C0F37B
:10221000C00040B994F84001C0F3400018B9002054
:10222000D2E62CE007E000BF94F84001C0F3C00004
:1022300080F00100207600BF012000906A4604F182
:1022400024010720FEF7B8FA0020A08100BF4A4908
:1022500008804A4908804A49088000BF94F828014C
:1022600000F0010030B994F8280120F00200801C31
:1022700084F828011C214348FEF721F8D8E6A089FC
:1022800041F2030188425FD100BF0020C4F8400141
:102290002068606100BF00BF40A03549086006208B
:1022A00088808A1D0120FEF787FA00BF00BF31A099
:1022B0002F490860022088808A1D0120FEF77CFAE1
:1022C00000BF002241F20301204605F05BF800BF89
:1022D00040F24940288000BF94F8400100F001001E
:1022E00030B994F84001C0F3400008B900206BE613
:1022F00000BF94F8400100F0010080F0010020765A
:1023000000BF012000906A4604F124010720FEF777
:1023100053FA0020A08100BF1749088017490880A0
:102320001749088000BF94F8280100F0010030B977
:1023300094F8280120F00200801C84F828011C2158
:102340001048FDF7BCFF73E6A08941F207018842FF
:102350007DD10C48816901A8FFF7B8FD00BF0020BE
:10236000C4F840012068606100BF1BE041540000D8
:102370006C0000200D0A00006400002066000020B0
:1023800068000020540500204154450078000020DA
:102390007400002041542B525354000041542B47E9
:1023A0004D52000000BFFBA0FD4908600820888056
:1023B0008A1D0120FEF700FA00BF00BFF94800683F
:1023C000F7490860F7490868FDF790FFF4498880ED
:1023D0008A1D0120FEF7F0F900BF00BFF2A0F0490E
:1023E0000860012088808A1DFEF7E6F900BF00BF63
:1023F00001A8EB490860FDF779FFE94988808A1D4B
:102400000120FEF7D9F900BF00BFE8A0E449086049
:10241000082088808A1D0120FEF7CEF900BF00BF8A
:10242000AFF2B000DE490860022088808A1D0120DA
:10243000FEF7C2F900BF002241F20701204604F076
:10244000A1FF00BF40F25F40288000BF00E046E0EF
:1024500094F8400100F0010030B994F84001C0F355
:10246000400008B90020AFE500BF94F8400100F03B
:10247000010080F001002076207E60B9CE48FEF792
:102480004AF8C8488069A0606A4604F10801002043
:10249000FEF792F900BF00BF012000906A4604F1E8
:1024A00024010720FEF788F90020A08100BFC3495E
:1024B0000880C3490880C349088000BF94F82801F8
:1024C00000F0010030B994F8280120F00200801CCF
:1024D00084F828011C21B348FDF7F1FEA8E5A08986
:1024E00041F20A01884273D1AE48816901A8FFF721
:1024F000EDFC00BF0020C4F840012068606100BF0F
:1025000000BFB1A0A64908600B2088808A1D012069
:10251000FEF752F900BF00BF01A8A1490860FDF70E
:10252000E5FE9F4988808A1D0120FEF745F900BF1E
:1025300000BFAFF2C0109A490860022088808A1D4F
:102540000120FEF739F900BF002241F20A012046BE
:1025500004F018FF00BF40F27440288000BF94F8D8
:10256000400100F0010030B994F84001C0F3400090
:1025700008B9002028E500BF94F8400100F00100F0
:1025800080F00100207600BF012000906A4604F12F
:1025900024010720FEF710F90020A08100BF874921
:1025A0000880874908808749088000BF94F828017F
:1025B00000F0010030B994F8280120F00200801CDE
:1025C00084F828011C217748FDF779FE30E5FFE704
:1025D000A08941F2060188427AD100BF0020C4F8E8
:1025E00040012068606100BF00BF7AA06C490860AC
:1025F0000A2088808A1D0120FEF7DEF800BF00BF98
:10260000AFF2902066490860022088808A1D012070
:10261000FEF7D2F800BF002241F20601204604F086
:10262000B1FE00BF40F28140288000BF94F8400115
:1026300000F0010030B994F84001C0F3400008B93F
:102640000020C1E400BF94F8400100F0010080F0D8
:102650000100207600BF40F28640288000BF94F839
:102660004001C0F3C00030B994F84001C0F340000D
:1026700008B90020A8E400BF94F84001C0F3C000EE
:1026800008B90120207600BF012000906A4604F1BD
:1026900024010720FEF790F80020A08100BF4749E1
:1026A0000880474908804749088000BF94F82801FE
:1026B00000F0010030B994F8280120F00200801CDD
:1026C00084F828011C213748FDF7F9FDB0E4FFE745
:1026D000A08941F20C0188425BD100BF0020C4F800
:1026E00040012068606100BF00BF3DA02C49086028
:1026F0000A2088808A1D0120FEF75EF800BF00BF17
:10270000AFF2903026490860022088808A1D01209F
:10271000FEF752F800BF002241F20C01204604F0FF
:1027200031FE00BF40F29540288000BF94F8400180
:1027300000F0010038B994F84001C0F3400010B92E
:10274000002041E43EE100BF94F84001C0F3C00026
:1027500080F00100207600BF012000906A4604F15D
:1027600024010720FEF728F80020A08100BF1349AC
:102770000880134908801349088000BF94F8280195
:1027800000F0010098BB94F8280120F00200801CA2
:102790002EE034E041542B554152545F00000000BC
:1027A0006C000020540500203D0000002C382C3126
:1027B0002C302C3000000000B80300206400002002
:1027C000660000206800002041542B5246504F57AD
:1027D00045523D0041542B524553544F5245000041
:1027E00041542B53595352414D3F000064E101E0E5
:1027F00084F828011C21FD48FDF761FD69E3A089EB
:1028000041F20D01884263D100BF0020C4F84001AD
:102810002068606100BF00BFF5A0F84908600A2089
:1028200088808A1D0120FDF7C7FF00BF00BFAFF2FF
:10283000BC40F249086001E012E0D3E10220888048
:102840008A1D0120FDF7B8FF00BF002241F20D01F3
:10285000204604F097FD00BF40F2A240288000BF50
:1028600094F8400100F0010030B994F84001C0F341
:10287000400008B900202CE400BF94F84001C0F3E8
:10288000C00080F00100207600BF012000906A4661
:1028900004F124010720FDF78FFF0020A08100BF75
:1028A000D7490880D7490880D749088000BF94F8E5
:1028B000280100F0010030B994F8280120F002004E
:1028C000801C84F828011C21C848FDF7F8FC00E3AF
:1028D000A08941F20E0188427ED100BF0020C4F8D9
:1028E00040012068606100BF00BFC8A0C349086004
:1028F0000F2088808A1D0120FDF75EFF00BFBB48C6
:10290000816901A8FFF7E2FA00BF01A8BB4908608E
:10291000FDF7ECFCB94988808A1D0120FDF74CFFCA
:1029200000BF00BFBDA0B5490860012088808A1D96
:10293000FDF742FF00BFAD480068417801A8FFF7EE
:10294000C5FA00BF01A8AD490860FDF7CFFCAB494F
:1029500088808A1D0120FDF72FFF00BF00BFAFA0B8
:10296000A6490860012088808A1DFDF725FF00BF69
:102970009E480068817801A8FFF7A8FA00BF01A867
:102980009E490860FDF7B2FC9C4988808A1D0120A1
:10299000FDF712FF00BF00BFAFF228609749086043
:1029A000022088808A1D0120FDF706FF00BF00225B
:1029B00041F20E01204604F0E5FC00BF40F2B740B2
:1029C000288000BF94F8400100F0010040B994F85D
:1029D0004001C0F3400000E02EE008B900201FE4F1
:1029E00000BF94F8400100F0010080F00100207663
:1029F00000BF012000906A4604F124010720FDF782
:102A0000DBFE0020A08100BF7D4908807D49088051
:102A10007D49088000BF94F8280100F0010030B91A
:102A200094F8280120F00200801C84F828011C2161
:102A30006E48FDF744FC4CE2A08941F20F01884248
:102A400073D100BF0020C4F840012068606100BF5E
:102A500000BF73A0694908600F2088808A1D01208B
:102A6000FDF7AAFE00BF6148816901A8FFF72EFAB1
:102A700000BF01A861490860FDF738FC5F49888004
:102A80008A1D0120FDF798FE00BF00BFAFF21C7049
:102A90005A490860022088808A1D0120FDF78CFEBB
:102AA00000BF002241F20F01204604F06BFC00BF82
:102AB00040F2C640288000BF94F8400100F00100B9
:102AC00030B994F84001C0F3400008B900200EE48A
:102AD00000BF94F8400100F0010080F00100207672
:102AE00000BF012000906A4604F124010720FDF791
:102AF00063FE0020A08100BF414908804149088051
:102B00004149088000BF94F8280100F0010030B965
:102B100094F8280120F00200801C84F828011C2170
:102B20003248FDF7CCFBD4E1FFE7A08941F2100168
:102B300088425AD100BF0020C4F84001206860617B
:102B400000BF00BF3AA02D4908600E2088808A1D72
:102B50000120FDF731FE00BF2448816901A8FFF77D
:102B6000B5F900BF01A825490860FDF7BFFB23495F
:102B700088808A1D0120FDF71FFE00BF00BF27A02F
:102B80001E490860012088808A1DFDF715FE00BFE0
:102B900016480068C17801A8FFF798F900BF01A89E
:102BA00016490860FDF7A2FB144988808A1D0120A0
:102BB000FDF702FE00BF00BFAFF648000F490860F6
:102BC000022088808A1D0120FDF7F6FD00BF00224B
:102BD00041F21001204604F0D5FB00BF4FF49B608A
:102BE000288000BF94F840012AE05FE054050020EF
:102BF00041542B5359534144433F00006C00002083
:102C000064000020660000206800002041542B531F
:102C10005953494F5345544346473D002C0000004B
:102C200041542B535953494F4745544346473D0060
:102C300041542B5359534750494F4449523D00008A
:102C400000F0010030B994F84001C0F3400008B929
:102C5000002008E400BF94F8400100F0010080F07B
:102C60000100207600BF012000906A4604F1240193
:102C70000720FDF7A1FD0020A08100BF9749088033
:102C8000974908809749088000BF94F8280100F010
:102C9000010030B994F8280120F00200801C84F86B
:102CA00028011C219048FDF70AFB12E1A08941F29E
:102CB0001301884273D100BF0020C4F8400120688E
:102CC000606100BF00BF89A08C4908600F20888028
:102CD0008A1D0120FDF770FD00BF8348816901A8AE
:102CE000FFF7F4F800BF01A884490860FDF7FEFA79
:102CF000824988808A1D0120FDF75EFD00BF00BF6C
:102D0000AFF690107D490860022088808A1D01205E
:102D1000FDF752FD00BF002241F21301204604F0EE
:102D200031FB00BF40F2E740288000BF94F840012B
:102D300000F0010030B994F84001C0F3400008B938
:102D4000002017E400BF94F8400100F0010080F07B
:102D50000100207600BF012000906A4604F12401A2
:102D60000720FDF729FD0020A08100BF5B490880F6
:102D70005B4908805B49088000BF94F8280100F097
:102D8000010030B994F8280120F00200801C84F87A
:102D900028011C215448FDF792FA9AE0FFE7A08928
:102DA00041F2120188427DD100BF0020C4F84001E9
:102DB0002068606100BF00BF51A05049086010202A
:102DC00088808A1D0120FDF7F7FC00BF4648806916
:102DD000C1B201A8FFF77AF800BF01A8474908600F
:102DE000FDF784FA454988808A1D0120FDF7E4FC3F
:102DF00000BF00BFAFF2DC104049086001208880AE
:102E00008A1DFDF7D9FC00BF37488069C0F3072150
:102E100001A8FFF75BF800BF01A838490860FDF77B
:102E200065FA364988808A1D0120FDF7C5FC00BF80
:102E300000BFAFF6C02031490860022088808A1D9B
:102E40000120FDF7B9FC00BF002241F2130120462A
:102E500004F098FA00BF40F2F940288000BF94F8CF
:102E6000400100F0010030B994F84001C0F3400087
:102E700008B9002065E400BF94F8400100F00100AB
:102E800080F00100207600BF012000906A4604F126
:102E900024010720FDF790FC0020A08100BF0F490E
:102EA000088000E015E00E4908800E49088000BF48
:102EB00094F8280100F0010030B994F8280120F0BE
:102EC0000200801C84F828011C210748FDF7F7F94F
:102ED00000BF002600202880032032E46400002088
:102EE00066000020680000205405002041542B5348
:102EF00059534750494F524541443D006C00002012
:102F000041542B5359534750494F57524954453D0B
:102F1000000000002DE9FE4305460C464FF0010875
:102F2000288840F27672811A90427DD025DC40F2EA
:102F3000E462A0EB0201904277D011DC40F2BC6267
:102F4000A0EB0201904271D005DCC0B3B0F5D66FA2
:102F500041F05E8478E00E2969D01A29F8D1BDE1EC
:102F60004F297DD004DC0A297BD04429F0D1FDE330
:102F7000622977D06829EBD1F9E3A22901F08F818A
:102F800010DC402900F09C8705DC07296BD0322932
:102F9000DED100F014BF4C2900F0F9879629D7D173
:102FA00001F017B9AE2901F0E081D72901F0CC82F8
:102FB000E62901F07383F429CAD101F0F1BBFFE7E0
:102FC000A08943F20D0188427ED1FE48816901A8A3
:102FD000FEF77CFF00BF0020C4F84001206860615C
:102FE00000BF00BFF8A0FB4908600A2088808A1D46
:102FF0000120FDF7E1FB00BF00BF01A8F549086013
:10300000FDF774F9F34988808A1D0120FDF7D4FB90
:1030100000BF00BFF0A0EF490860022088808A1D31
:103020000120FDF7C9FB03E0FEE300E279E0EFE0F9
:1030300000BF002243F20D01204604F0A3F900BFB7
:103040004FF4D660288000BF94F8400100F00100E2
:1030500060B994F84001C0F3400038B9002003E0A3
:10306000F4E34DE2FEE3FEE3BDE8FE8300BF94F827
:10307000400100F0010080F00100207600BF012037
:1030800000906A4604F124010720FDF795FB00201B
:10309000A08100BFD1490880D1490880D14908806A
:1030A00000BF94F8280100F0010030B994F828011D
:1030B00020F00200801C84F828011C21C148FDF783
:1030C000FEF801F0A5BBFFE7A08943F21401884296
:1030D0005FD100BF0020C4F840012068606100BFDC
:1030E00000BFC1A0BB4908600D2088808A1D012057
:1030F000FDF762FB00BF00BFB7A0B6490860022021
:1031000088808A1D0120FDF757FB00BF002243F293
:103110001401204604F036F900BF40F2BC6028805C
:1031200000BF94F8400100F0010030B994F840016C
:10313000C0F3400008B9002091E700BF94F84001B7
:1031400000F0010080F00100207600BF0120009017
:103150006A4604F124010720FDF72EFB0020A08120
:1031600000BF9E4908809E4908809E49088000BF94
:1031700094F8280100F0010030B994F8280120F0FB
:103180000200801C84F828011C218E48FDF797F866
:1031900097E7A08943F20111884272D18948816979
:1031A00001A8FEF793FE00BF0020C4F8400120688C
:1031B000606100BF00BF90A0864908600F20888032
:1031C0008A1D0120FDF7F8FA00BF00BF01A8814960
:1031D0000860FDF78BF87F4988808A1D0120FDF784
:1031E000EBFA00BF00BF7CA07A490860022088800B
:1031F0008A1D0120FDF7E0FA00BF002243F20E0114
:10320000204604F0BFF800BF40F2CA60288000BF2B
:1032100094F8400100F0010030B994F84001C0F387
:10322000400008B900201AE700BF94F8400100F000
:10323000010080F00100207600BF012000906A4666
:1032400004F124010720FDF7B7FA0020A08100BF98
:1032500062490880624908806249088000BF94F88A
:10326000280100F0010030B994F8280120F0020094
:10327000801C84F828011C215248FDF720F820E723
:10328000FFE7A08943F2021188425FD100BF00200E
:10329000C4F840012068606100BF00BF5AA04D49DA
:1032A00008600E2088808A1D0120FDF785FA00BF86
:1032B00000BF49A047490860022088808A1D01207C
:1032C000FDF77AFA00BF002243F20E01204604F017
:1032D00059F800BF40F2D660288000BF94F8400142
:1032E00000F0010030B994F84001C0F3400008B983
:1032F0000020B4E600BF94F8400100F0010080F027
:103300000100207600BF012000906A4604F12401EC
:103310000720FDF751FA0020A08100BF2F49088047
:103320002F4908802F49088000BF94F8280100F039
:10333000010030B994F8280120F00200801C84F8C4
:1033400028011C211F48FCF7BAFFBAE6A08943F206
:103350001101884266D11B48816901A8FEF7B6FDBC
:1033600000BF0020C4F840012068606100BF00BFBA
:1033700029A0184908600A2088808A1D0120FDF7CD
:103380001BFA00BF00BF01A812490860FCF7AEFF9E
:10339000104988808A1D0120FDF70EFA00BF00BF8A
:1033A0000DA00C490860022088808A1D0120FDF7CD
:1033B00003FA00BF002243F20E01204603F0E2FFB1
:1033C00000BF30E05405002041542B4349504D5577
:1033D000583D00006C0000200D0A00006400002031
:1033E000660000206800002041542B4349504449A6
:1033F0004E464F3D3100000041542B434950534548
:10340000525645523D312C0041542B4349505345AF
:10341000525645523D30000041542B4349505354BD
:103420004F3D00003BE040F2E460288000BF94F88C
:10343000400100F0010030B994F84001C0F34000B1
:1034400008B900200BE600BF94F8400100F001002D
:1034500080F00100207600BF012000906A4604F150
:1034600024010720FDF7A8F90020A08100BFFE4934
:103470000880FE490880FE49088000BF94F82801B2
:1034800000F0010030B994F8280120F00200801CFF
:1034900084F828011C21F748FCF711FF11E6A089E8
:1034A00043F2030188427DD1A089E08100BF00BFC3
:1034B0000020C4F840012068606100BF00BFEEA09A
:1034C000F14908600C2088808A1D0120FDF774F9FD
:1034D00000BF00BFAFF20010EB49086002208880F7
:1034E0008A1D0120FDF768F900BF002243F20101A7
:1034F000204603F047FF00BF40F2EE60288000BF87
:1035000094F8400100F0010030B994F84001C0F394
:10351000400008B90020A2E500BF00BF94F84001B8
:10352000C0F3400010B101202076CFE10020D74940
:10353000087029E004F17800D449097800EB4110C3
:10354000007F00F0010038B194F81801CF490A78E3
:1035500001219140084090B9CC48017804F17800ED
:10356000CA4A127800EB4210017004F17800C74992
:10357000097800EB4110BF494969086008E0C34879
:103580000078401CC1490870C04800780528D1DB8C
:1035900000BFB8484069006818B1BC4800780528E9
:1035A00004D100E0B8E1012020768FE1B1488069C4
:1035B000C0F30740022823D10020B44908701BE063
:1035C00004F17800B149097800EB4110007F00F068
:1035D000010060B104F17800AC49097800EB4110BA
:1035E000007FC0F3800010B10C2020766EE1A74868
:1035F0000078401CA5490870A44800780528DFDB46
:103600009C4840690068007F20F00200801C9949B6
:1036100049690968087797488069C0F3074002281C
:1036200001D1012000E00020924949690968097F21
:1036300060F382018F4840690068017700BF002075
:10364000C4F840012068606100BF00BF90A08E49AF
:1036500008600C2088808A1D0120FDF7ADF800BFAE
:10366000844840690068017801A8FEF72FFC00BF7C
:1036700001A885490860FCF739FE834988808A1DC6
:103680000120FDF799F800BF00BF85A07E490860C2
:10369000012088808A1DFDF78FF800BF754880697A
:1036A000C0F3074050B900BF7EA0774908600420EE
:1036B00088808A1D0120FDF77FF821E06D48806930
:1036C000C0F3074001280AD100BF78A06E49086006
:1036D000042088808A1D0120FDF76EF810E06548FF
:1036E0008069C0F3074002280AD100BF71A0664973
:1036F0000860042088808A1D0120FDF75DF800BF66
:1037000000BF6EA060490860032088808A1D0120E8
:10371000FDF752F800BF00BF564800685A490860DC
:1037200054490868FCF7E2FD574988808A1D01204A
:10373000FDF742F800BF00BF61A0534908600220B6
:1037400088808A1D0120FDF737F800BF494880694D
:1037500081B201A8FEF7BAFB00BF01A84A49086080
:10376000FCF7C4FD484988808A1D01E01BE054E154
:103770000120FDF721F800BF00BFAFF2A43042499D
:103780000860022088808A1D0120FDF715F800BF1F
:10379000002243F20301204603F0F4FD00BF4FF482
:1037A000E560288000BF94F8400100F0010030B9C6
:1037B00094F84001C0F3400008B900204FE400BF76
:1037C00094F8400100F0010080F001002076207E96
:1037D00080B100BF274840690068067825494969DB
:1037E00008682021FCF76BFD2248406900680670DC
:1037F00000BF6BE000BF00BF0020C4F8400120689C
:10380000606100BF00BF1CA01F4908600C208880B9
:103810008A1D0120FCF7D0FF00BF00BFAFF2484077
:1038200019490860022000E0A4E188808A1D012077
:10383000FCF7C2FF00BF002243F20101204603F063
:10384000A1FD00BF40F23370288000BF94F8400112
:1038500000F00100B0BB94F84001C0F3400088BB09
:10386000002069E49AE0B1E16400002066000020D5
:10387000680000205405002041542B434950535404
:1038800041545553000000006C00002079000020D6
:1038900041542B43495053544152543D00000000C1
:1038A0002C000000225443500000000022554450D8
:1038B000000000002253534C00000000222C220084
:1038C000222C0000FFE700BF00BF00BFE089A081FD
:1038D00000BF012000906A4604F124010720FCF794
:1038E0006BFF0020A08100BFFE490880FE490880D0
:1038F000FE49088000BF94F8280100F0010030B9AB
:1039000094F8280120F00200801C84F828011C2172
:10391000F748FCF7D4FC3BE4A08943F20B01884252
:103920007ED1A089E08100BF0020C4F8400120685A
:10393000606100BFEE48816901A8FEF7C7FA00BFC9
:10394000ECA0F04908600C2088808A1D0120FCF75B
:1039500033FF00BF00BF01A8EA490860FCF7C6FCBE
:10396000E84988808A1D0120FCF726FF00BF00BFC0
:10397000AFF29C50E3490860022088808A1D012034
:10398000FCF71AFF00BF002243F20B01204603F0B0
:10399000F9FC00BF40F24670288000BF94F8400157
:1039A00000F0010030B994F84001C0F3400008B9BC
:1039B000002038E400BF94F8400100F0010080F0DE
:1039C0000100207600BF00BF0020C4F8400120683D
:1039D000606100BF00BFAFF26010CA4908600C20F0
:1039E00088808A1D0120FCF7E7FE00BF00BFAFF210
:1039F0001860C4490860022088808A1D0120FCF7F5
:103A0000DBFE00BF002243F20101204603F0BAFCB6
:103A100000BF40F24C70288000BF94F8400100E0E5
:103A200031E000F0010030B994F84001C0F34000EB
:103A300008B900205DE400BF00BFE089A08100BF9D
:103A4000012000906A4604F124010720FCF7B4FE2F
:103A50000020A08100BFA3490880A3490880A34992
:103A6000088000BF94F8280100F0010030B994F8F4
:103A7000280120F00200801C84F828011C219C48A9
:103A8000FCF71DFC61E4A08943F2050188427DD169
:103A9000A089E0819648006918B10020944909691D
:103AA000086003209849087000BF91488069B0F50C
:103AB000006F02D94FF4006001E08D48806993499E
:103AC000086000BF0020C4F840012068606100BFAA
:103AD00000BF8FA08B4908600B2088808A1D0120C1
:103AE000FCF76AFE00BF8248C068017801A8FEF7B3
:103AF000EDF900BF01A883490860FCF7F7FB814995
:103B000088808A1D0120FCF757FE00BF00BFAFF27E
:103B100070207C490860012088808A1DFCF74CFEDB
:103B200000BF7A48016801A8FEF7D0F900BF01A8DC
:103B300074490860FCF7DAFB724988808A1D01200D
:103B4000FCF73AFE00BF00BFAFF274706D49086029
:103B5000022088808A1D0120FCF72EFE00BF002273
:103B600043F20501204603F00DFC00BF40F27670E1
:103B7000288000BF94F84001C0F3800038B994F861
:103B80004001C0F3400010B900205BE4D7E000BF63
:103B900094F84001C0F38000A0B300BF0020C4F837
:103BA00040012068606100BF00BF5148006855496E
:103BB00008605648008888808A1D0120FCF7FCFDBB
:103BC00000BF00BF40F27D70288000BF40F241106E
:103BD000005D00F0010060B940F24110005DC0F3EB
:103BE000400030B994F84001C0F3400008B900200B
:103BF00028E400BF40F24110005D00F0010010B168
:103C0000002001E010E00B202076207E98B9384893
:103C1000006980B13648006900683C490968084479
:103C200033490969086006E094F84001C0F3400098
:103C300008B101202076207E88B90320324908701F
:103C40002B48806931490968401A2949886108462A
:103C500000682E4909680844254908600EE040F2D2
:103C60004110005DC0F3400028B127480078401E95
:103C70002549087002E00020234908701C4880692B
:103C800020B12148007800287FF40FAF1E4800784B
:103C900048B11748C068407F20F00400001D144957
:103CA000C968487708E01248C068407F20F00800E3
:103CB00008300F49C9684877E089A08100BF01201A
:103CC00000906A4604F124010720FCF775FD0020EE
:103CD000A08100BF03490880034908800349088088
:103CE00000BF1BE064000020660000206800002088
:103CF0005405002041542B434950434C4F53453DFC
:103D0000000000006C0000207A0000207C000020F1
:103D100041542B43495053454E443D0094F82801EB
:103D200000F0010030B994F8280120F00200801C56
:103D300084F828011C21FE48FCF7C1FAEBE5A089B4
:103D400043F20401884273D1F948816901A8FEF762
:103D5000BDF800BF0020C4F840012068606100BFCA
:103D600000BFF4A0F74908600E2088808A1D01205A
:103D7000FCF722FD00BF00BF01A8F2490860FCF774
:103D8000B5FAF04988808A1D0120FCF715FD00BFB7
:103D900000BFAFF6BC10EB490860022088808A1D86
:103DA0000120FCF709FD00BF002243F20401204678
:103DB00003F0E8FA00BF4FF4F560288000BF94F8E4
:103DC000400100F0010030B994F84001C0F3400018
:103DD00008B90020F2E400BF94F8400100F00100AF
:103DE00080F00100207600BF012000906A4604F1B7
:103DF00024010720FCF7E0FC0020A08100BFD2498D
:103E00000880D2490880D249088000BF94F8280170
:103E100000F0010030B994F8280120F00200801C65
:103E200084F828011C21C248FCF749FA73E5FFE732
:103E3000A08943F2120188427BD100BF0020C4F860
:103E400040012068606100BF00BFC2A0BD4908609A
:103E5000092088808A1D0120FCF7AEFC00BF00BF4E
:103E6000B3480068B7490860B1490868FCF73EFAF2
:103E7000B44988808A1D0120FCF79EFC00BF00BF6A
:103E8000B6A0B0490860012088808A1DFCF794FC28
:103E900000BF00BFAFF6C020AA490860022088809A
:103EA0008A1D0120FCF788FC00BF002243F21201AA
:103EB000204603F067FA00BF40F2B670288000BFCA
:103EC00094F8400100F0010030B994F84001C0F3CB
:103ED000400008B9002071E400BF94F8400100F0F0
:103EE000010080F00100207600BF012000906A46AA
:103EF00004F124010720FCF75FFC0020A08100BF33
:103F000091490880914908809149088000BF94F840
:103F1000280100F0010030B994F8280120F00200D7
:103F2000801C84F828011C218148FCF7C8F9F2E4C0
:103F3000FFE7A08943F21301884260D100BF00204F
:103F4000C4F840012068606100BF00BF84A07D49C3
:103F500008600B2088808A1D0120FCF72DFC00BF23
:103F600000BFAFF68C3077490860022088808A1D38
:103F70000120FCF721FC00BF002243F21301204680
:103F800003F000FA00BF40F2C270288000BF94F82E
:103F9000400100F0010030B994F84001C0F3400046
:103FA00008B900200AE400BF94F8400100F00100C5
:103FB00080F00100207600BF012000906A4604F1E5
:103FC00024010720FCF7F8FB0020A08100BF5E4918
:103FD00008805E4908805E49088000BF94F8280187
:103FE00000F0010030B994F8280120F00200801C94
:103FF00084F828011C214E48FCF761F98BE4A08964
:1040000043F2031188426CD100BF0020C4F8400184
:104010002068606100BF00BF54A04A4908600E20BC
:1040200088808A1D0120FCF7C7FB00BF404800685C
:10403000007808B1012000E00020014601A8FDF74A
:1040400045FF00BF01A83F490860FCF74FF93D4913
:1040500088808A1D0120FCF7AFFB00BF3448006850
:104060000078E8B33248006890F9012043A101A824
:1040700003F08AFF00BFAFF2D87032490860012018
:1040800088808A1DFCF798FB00BF00BF01A82D495E
:104090000860FCF72BF92B4988808A1D0120FCF76A
:1040A0008BFB00BF00203649087077E0204800688D
:1040B000001D3349097850F82100B8B31C4909683C
:1040C000091D2F4A127851F82200FCF70FF968B346
:1040D00000BF2CA01B490860022088808A1D01E0D7
:1040E00060E0AEE00120FCF767FB00BF00BF1048B6
:1040F0000068001D2249097850F821001149086024
:104100000B490968091D1E4A127851F82200FCF774
:10411000EDF80C4988808A1D0120FCF74DFB00BF9B
:1041200000BF0EA00749086001202DE031E000002B
:104130005405002041542B43495053534C53495A82
:10414000453D00006C000020640000206600002057
:104150006800002041542B50494E473D220000008A
:1041600041542B43495550444154450041542B433D
:104170004950534E54504346473D000025640000CB
:10418000790000202C22000088808A1DFCF714FB97
:1041900000BFFE480078401CFC490870FB480078CE
:1041A000032883D300BFAFF6D050F949086002203E
:1041B00088808A1D0120FCF7FFFA00BF002243F22D
:1041C0000311204603F0DEF800BF40F60C00288003
:1041D00000BF94F8400100F0010030B994F84001AC
:1041E000C0F3400008B9002024E400BF94F8400167
:1041F00000F0010080F00100207600BF0120009057
:104200006A4604F124010720FCF7D6FA0020A081B9
:1042100000BFE0490880E0490880E049088000BF0D
:1042200094F8280100F0010030B994F8280120F03A
:104230000200801C84F828011C21D948FCF73FF8B3
:10424000E6E2A08943F20411884260D100BF002059
:10425000C4F840012068606100BF00BFD1A0CC4914
:1042600008600E2088808A1D0120FCF7A5FA00BF97
:1042700000BFAFF69C60C6490860022088808A1D96
:104280000120FCF799FA00BF002243F204112046F6
:1042900003F078F800BF40F61800288000BF94F8BB
:1042A000400100F0010030B994F84001C0F3400033
:1042B00008B9002069E400BF94F8400100F0010053
:1042C00080F00100207600BF012000906A4604F1D2
:1042D00024010720FCF770FA0020A08100BFAD493F
:1042E0000880AD490880AD49088000BF94F82801D6
:1042F00000F0010030B994F8280120F00200801C81
:1043000084F828011C21A648FBF7D9FF80E2A08988
:1043100043F21801884260D100BF0020C4F8400178
:104320002068606100BF00BFA2A0994908600F200B
:1043300088808A1D0120FCF73FFA00BF00BFAFF65E
:10434000687093490860022088808A1D0120FCF76C
:1043500033FA00BF002243F21801204603F012F89E
:1043600000BF40F62400288000BF94F8400100F010
:10437000010030B994F84001C0F3400008B90020B2
:1043800036E400BF94F8400100F0010080F0010025
:10439000207600BF012000906A4604F12401072026
:1043A000FCF70AFA0020A08100BF7A4908807A4908
:1043B00008807A49088000BF94F8280100F00100C5
:1043C00030B994F8280120F00200801C84F82801FC
:1043D0001C217348FBF773FF1AE2A08943F2051111
:1043E00088427CD100BF0020C4F840012068606191
:1043F00000BF00BF73A0664908600A2088808A1D3C
:104400000120FCF7D9F900BF00BF6548006860498A
:10441000086063490868FBF769FF5D4988808A1D69
:104420000120FCF7C9F900BF00BF69A05849086026
:10443000012088808A1DFCF7BFF900BF00BF5848E3
:104440004768787808B1012000E00020014601A803
:10445000FDF73CFD00BF01A84D490860FBF746FF92
:104460004B4988808A1D0120FCF7A6F900BF002077
:10447000464908704DE0B81C4449097850F82100BD
:1044800070B300BFAFF20430414908600220888059
:104490008A1D0120FCF790F900BF002626E0B81C19
:1044A0003A4A127800EB8200815D01A8FDF70EFD0B
:1044B00000BF01A836490860FBF718FF344988801F
:1044C0008A1D0120FCF778F900BF032E0CD000BF35
:1044D00040A02F490860012088808A1D01E094E0F7
:1044E00012E0FCF769F900BF701CC6B2042ED6DBDF
:1044F00000BFAFF2983026490860012088808A1DED
:10450000FCF75AF900BF00BF20480078401C1F4943
:1045100008701E4800780228ADD300BF00BF2EA04F
:104520001B490860022088808A1D0120FCF744F99D
:1045300000BF002243F20511204602F023FF00BF16
:1045400040F64D00288000BF94F8400100F00100C3
:1045500030B994F84001C0F3400008B9002039E4B4
:1045600000BF94F8400100F0010080F001002076C7
:1045700000BF012000906A4604F124010720FCF7E7
:104580001BF90020A08100BF024927E0790000202C
:104590006C000020640000206600002068000020FD
:1045A0005405002041542B434950534E5450434628
:1045B000473F000041542B434950534E54505449F7
:1045C0004D453F0041542B434950444E535F00003A
:1045D0003D0000002E0000000D0A000008808F49F9
:1045E00008808F49088000BF94F8280100F001007E
:1045F00030B994F8280120F00200801C84F82801CA
:104600001C218848FBF75BFE02E1A08943F20611FA
:1046100088427CD100BF0020C4F84001206860615E
:1046200000BF00BFAFF264007F4908600A208880A5
:104630008A1D0120FCF7C0F800BF00BF7948006860
:104640007949086077490868FBF750FE7649888009
:104650008A1D0120FCF7B0F800BF00BF73A07249AB
:104660000860012088808A1DFCF7A6F800BF00BF03
:10467000AFF29C006C490860022088808A1D0120EE
:10468000FCF79AF800BF002243F20611204602F020
:1046900079FE00BF40F65C00288000BF94F840011E
:1046A00000F0010030B994F84001C0F3400008B9AF
:1046B000002010E400BF94F8400100F0010080F0F9
:1046C0000100207600BF012000906A4604F1240119
:1046D0000720FCF771F80020A08100BF5449088032
:1046E0004E4908804E49088000BF94F8280100F028
:1046F000010030B994F8280120F00200801C84F8F1
:1047000028011C214748FBF7DAFD81E0FFE7A0897B
:1047100043F2020188427BD100BF0020C4F840016F
:104720002068606100BF00BF42A03F4908600E20C2
:1047300088808A1D0120FCF73FF800BF00BF394880
:1047400000683949086037490868FBF7CFFD3649EA
:1047500088808A1D0120FCF72FF800BF00BFAFF250
:10476000046031490860012088808A1DFCF724F824
:1047700000BF00BFAFF2A0102B4908600220888064
:104780008A1D0120FCF718F800BF002243F2020145
:10479000204602F0F7FD00BF40F66A00288000BF07
:1047A00094F8400100F0010030B994F84001C0F3E2
:1047B000400008B9002017E500BF94F8400100F060
:1047C000010080F00100207600BF012000906A46C1
:1047D00004F124010720FBF7EFFF0020A08100BFB8
:1047E000134908800D4908800D49088000BF94F8DE
:1047F000280100F0010030B994F8280120F00200EF
:10480000801C84F828011C210648FBF758FD00BFD6
:104810004FF00008002028800320E5E46600002017
:1048200068000020540500206C0000203F000000BC
:104830006400002041542B434950444F4D41494EA0
:104840003D2200002DE9FF4105460C463A2001902B
:1048500006274FF00108288840F2E652811A90425C
:1048600000F09F8626DC40F24152A0EB020190420C
:104870007DD012DC40F21D52A0EB0201904277D0B5
:1048800006DCD0B3A0F21150002841F0E6847AE0B3
:104890000C296ED01829F8D1A9E167296AD004DC67
:1048A000192968D03529F0D1B0E3872979D0972923
:1048B000EBD1EFE3632901F0CA8111DC3D2901F05E
:1048C0004E8006DC202900F078873129DDD100F008
:1048D000E0BF4A2901F0EE805629D6D101F051B946
:1048E000812901F0C682922901F0A283A12901F059
:1048F0001584AE29C9D101F078BCFFE7A08942F246
:10490000010188427CD1FD48816902A8FDF7DEFAE9
:1049100000BF0020C4F840012068606100BF00BFF4
:10492000F7A0FA4908600A2088808A1D0120FBF759
:1049300043FF00BF00BF02A8F4490860FBF7D6FCA4
:10494000F24988808A1D0120FBF736FF00BF00BFB7
:10495000EFA0EE490860022088808A1D0120FBF745
:104960002BFF00BF002242F20101204604E0A3E138
:1049700073E0D7E0F4E38AE202F004FD00BF40F206
:104980001150288000BF94F8400100F0010048B9A0
:1049900094F84001C0F3400020B9002004B0BDE805
:1049A000F081DFE300BF94F8400100F0010080F0E7
:1049B0000100207600BF012000906A4604F1240126
:1049C0000720FBF7F9FE0020A08100BFD149088035
:1049D000D1490880D149088000BF94F8280100F02F
:1049E000010030B994F8280120F00200801C84F8FE
:1049F00028011C21C148FBF762FC01F02EBCFFE737
:104A0000A08942F2011188425FD100BF0020C4F8A2
:104A100040012068606100BF00BFC1A0BB490860C1
:104A2000112088808A1D0120FBF7C6FE00BF00BF51
:104A3000B7A0B6490860022088808A1D0120FBF7D4
:104A4000BBFE00BF002242F20B01204602F09AFC9E
:104A500000BF40F21D50288000BF94F8400100F0D4
:104A6000010030B994F84001C0F3400008B90020BB
:104A700094E700BF94F8400100F0010080F00100CD
:104A8000207600BF012000906A4604F1240107202F
:104A9000FBF792FE0020A08100BF9E4908809E493E
:104AA00008809E49088000BF94F8280100F00100AA
:104AB00030B994F8280120F00200801C84F8280105
:104AC0001C218E48FBF7FBFB97E7A08942F20211FD
:104AD00088425FD100BF0020C4F8400120686061B7
:104AE00000BF00BF93A089490860102088808A1DFC
:104AF0000120FBF761FE00BF00BF85A0834908606D
:104B0000022088808A1D0120FBF756FE00BF00228C
:104B100042F20C01204602F035FC00BF40F2295061
:104B2000288000BF94F8400100F0010030B994F8EB
:104B30004001C0F3400008B900202FE700BF94F8FF
:104B4000400100F0010080F00100207600BF01204C
:104B500000906A4604F124010720FBF72DFE002097
:104B6000A08100BF6B4908806B4908806B490880B1
:104B700000BF94F8280100F0010030B994F8280132
:104B800020F00200801C84F828011C215B48FBF700
:104B900096FB32E7A08942F2031188425FD100BF41
:104BA0000020C4F840012068606100BF00BF66A01B
:104BB000564908600E2088808A1D0120FBF7FCFD05
:104BC00000BF00BF52A051490860022088808A1DA2
:104BD0000120FBF7F1FD00BF002242F20D0120464B
:104BE00002F0D0FB00BF40F23550288000BF94F89F
:104BF000400100F0010030B994F84001C0F34000DA
:104C000008B90020CAE600BF94F8400100F0010096
:104C100080F00100207600BF012000906A4604F178
:104C200024010720FBF7C8FD0020A08100BF3949FF
:104C30000880394908803949088000BF94F8280164
:104C400000F0010030B994F8280120F00200801C27
:104C500084F828011C212948FBF731FBCDE6A08907
:104C600042F2041188427FD100BF0020C4F8400105
:104C70002068606100BF00BF37A0244908600D2094
:104C800088808A1D0120FBF797FD00BF00BF20A090
:104C90001E490860022088808A1D0120FBF78CFDD8
:104CA00000BF002242F20E01204602F06BFB00BF63
:104CB00040F24150288000BF94F8400100F001000C
:104CC00030B994F84001C0F3400008B9002065E60F
:104CD00000BF94F8400100F0010080F00100207650
:104CE00000BF012000906A4604F124010720FBF771
:104CF00063FD0020A08100BF064936E05405002076
:104D000041542B43574D4F44453D00006C0000205B
:104D10000D0A0000640000206600002068000020EA
:104D200041542B4349505354414D41435F435552E5
:104D30003F00000041542B43495041504D41435FD7
:104D40004355523F0000000041542B4349505354F7
:104D5000415F4355523F000041542B43495041505D
:104D60005F4355523F00000016E00880FE4908806E
:104D7000FE49088000BF94F8280100F0010030B916
:104D800094F8280120F00200801C84F828011C21DE
:104D9000F748FBF794FA30E6A08942F20511884201
:104DA0007DD1F348466800BF0020C4F84001206868
:104DB000606100BF00BFEFA0F24908600D2088804D
:104DC0008A1D0120FBF7F8FC00BF00BFE84800681F
:104DD000EC490860E6490868FBF788FAE9498880E9
:104DE0008A1D0120FBF7E8FC00BF00BFE6A0E549F3
:104DF0000860022088808A1D0120FBF7DDFC00BFCF
:104E000006273A2001901CE016F8011B02A8FDF7C6
:104E10002FF800BF02A8DB490860FBF767FAD94901
:104E200088808A1D0120FBF7C7FC00BF4FB100BF7F
:104E300001A8D4490860012088808A1DFBF7BCFCCA
:104E400000BF381EA7F10101CFB2DDD100BFCFA056
:104E5000CC490860012088808A1DFBF7ADFC00BFAB
:104E600000BFAFF25410C7490860022088808A1D35
:104E70000120FBF7A1FC00BF002242F20B012046FB
:104E800002F080FA00BF40F25A50288000BF94F828
:104E9000400100F0010040B994F8400100E03AE020
:104EA000C0F3400008B9002078E500BF94F8400145
:104EB00000F0010080F001002076207E38B9AC4877
:104EC00040680168C4F846108088A4F84A0000BF12
:104ED000012000906A4604F124010720FBF76CFCD6
:104EE0000020A08100BFAA4908809F4908809F49EF
:104EF000088000BF94F8280100F0010030B994F850
:104F0000280120F00200801C84F828011C21984808
:104F1000FBF7D5F971E5A08942F2061188427DD1EF
:104F20009348466800BF0020C4F8400120686061D3
:104F300000BF00BF97A0934908600C2088808A1D9D
:104F40000120FBF739FC00BF00BF894800688D498C
:104F5000086087490868FBF7C9F98A4988808A1D73
:104F60000120FBF729FC00BF00BF87A0854908602E
:104F7000022088808A1D0120FBF71EFC00BF062747
:104F80003A2001901CE016F8011B02A8FCF770FF04
:104F900000BF02A87B490860FBF7A8F9794988801F
:104FA0008A1D0120FBF708FC00BF4FB100BF01A81C
:104FB00074490860012088808A1DFBF7FDFB00BF53
:104FC000381EA7F10101CFB2DDD100BF6FA06D493E
:104FD0000860012088808A1DFBF7EEFB00BF00BF40
:104FE000AFF2D42067490860022088808A1D012022
:104FF000FBF7E2FB00BF002242F20C01204602F068
:10500000C1F900BF40F27650288000BF94F84001FB
:1050100000F0010040B994F8400100E03BE0C0F32B
:10502000400008B90020B9E400BF94F8400100F046
:10503000010080F001002076207E38B94C4840689D
:105040000168C4F846108088A4F84A0000BF012017
:1050500000906A4604F124010720FBF7ADFB002015
:10506000A08100BF4A4908803F4908803F49088025
:1050700000BF94F8280100F0010030B994F828012D
:1050800020F00200801C84F828011C213848FBF71E
:1050900016F9B2E445E2A08942F20B11884260D1D0
:1050A0003348466800BF0020C4F8400120686061B2
:1050B00000BF00BF3BA0334908600A2088808A1DDA
:1050C0000120FBF779FB00BF00BF294800682D498C
:1050D000086027490868FBF709F92A4988808A1D72
:1050E0000120FBF769FB00BF00BF27A0254908602E
:1050F000022088808A1D0120FBF75EFB00BF042789
:105100002E2001901CE016F8011B02A8FCF7DEFE21
:1051100000BF02A81B490860FBF7E8F8194988801E
:105120008A1D0120FBF748FB00BF4FB100BF01A85B
:1051300014490860012088808A1DFBF73DFB00BFF1
:10514000381EA7F10101CFB2DDD100BF0FA00D497C
:105150000860012088808A1DFBF72EFB00BF27E036
:10516000ACE0F4E070E10000660000206800002080
:105170005405002041542B4349505354414D414361
:105180005F0000006C0000203D22000022000000B3
:105190006400002041542B43495041504D41435F2E
:1051A0000000000041542B4349505354415F00001C
:1051B000FE48806800286AD0FC48866800BFFCA0D2
:1051C000FC490860022088808A1D0120FBF7F4FA60
:1051D00000BF04271CE016F8011B02A8FCF776FEAE
:1051E00000BF02A8F3490860FBF780F8F149888006
:1051F0008A1D0120FBF7E0FA00BF4FB100BF01A8F4
:10520000EC490860012088808A1DFBF7D5FA00BFB1
:10521000381EA7F10101CFB2DDD100BFE6A0E549FC
:105220000860032088808A1D0120FBF7C5FA00BFB3
:1052300004271CE016F8011B02A8FCF747FE00BF7C
:1052400002A8DC490860FBF751F8DA4988808A1D1A
:105250000120FBF7B1FA00BF4FB100BF01A8D5494B
:105260000860012088808A1DFBF7A6FA00BF381E5F
:10527000A7F10101CFB2DDD100BFAFF2F000CD49FF
:105280000860012088808A1DFBF796FA00BF00BFE6
:10529000AFF28450C7490860022088808A1D01202F
:1052A000FBF78AFA00BF002242F20D01204602F00D
:1052B00069F800BF4FF4B560288000BF94F8400142
:1052C00000F0010030B994F84001C0F3400008B983
:1052D000002032E400BF94F8400100F0010080F0AB
:1052E00001002076207E70B9B04840680068A06256
:1052F000AE48806838B1AD4880680068E062AB486D
:1053000080684068206300BF012000906A4604F175
:1053100024010720FBF750FA0020A08100BFA74915
:105320000880A7490880A749088000BF94F8280191
:1053300000F0010030B994F8280120F00200801C30
:1053400084F828011C219948FAF7B9FF21E4A089C3
:1053500042F20C1188427DD19448466800BF00207B
:10536000C4F840012068606100BF00BF96A0914969
:105370000860092088808A1D0120FBF71DFA00BF04
:1053800000BF8A4800688B49086088490868FAF7B6
:10539000ADFF884988808A1D0120FBF70DFA00BF08
:1053A00000BFAFF21C2083490860022088808A1D5C
:1053B0000120FBF701FA00BF04272E2001901CE01A
:1053C00016F8011B02A8FCF781FD00BF02A879496D
:1053D0000860FAF78BFF774988808A1D0120FBF768
:1053E000EBF900BF4FB100BF01A87249086001206E
:1053F00088808A1DFBF7E0F900BF381EA7F1010184
:10540000CFB2DDD100BFAFF27C206A490860012035
:1054100088808A1DFBF7D0F900BF00BFAFF2107083
:1054200064490860022088808A1D0120FBF7C4F9C6
:1054300000BF002242F20D01204601F0A3FF00BF91
:105440004FF4B960288000BF94F8400100F00100DB
:1054500040B900E037E094F84001C0F3400008B9DB
:10546000002034E400BF94F8400100F0010080F017
:1054700001002076207E10B956F8040CA06200BF0F
:10548000012000906A4604F124010720FBF794F9FB
:105490000020A08100BF4949088049490880494946
:1054A000088000BF94F8280100F0010030B994F89A
:1054B000280120F00200801C84F828011C213B48B0
:1054C000FAF7FDFE67E4A08942F2071188426BD12A
:1054D00000BF0020C4F840012068606100BF00BF29
:1054E0003CA034490860112088808A1D0120FBF708
:1054F00063F900BF00BFAFF2E8702E4908600220D8
:1055000088808A1D0120FBF757F900BF002242F274
:105510000301204601F036FF00BF4FF4BB60288036
:1055200000BF94F8400100F0010030B994F8400148
:10553000C0F3400008B90020B6E400BF94F8400171
:1055400000F0010080F001002076207E00B164E0D0
:1055500000BF0020C4F840012068606100BF00BFA8
:1055600021A014490860082088808A1D0120FBF7CB
:1055700023F900BF00BFAFF668000E4908600220A3
:1055800088808A1D0120FBF717F900BF002242F234
:105590000401204601F0F6FE00BF40F2E6502880EC
:1055A00000BF94F8400125E05BE0000054050020B6
:1055B0002C2200006C000020222C2200640000201D
:1055C000660000206800002041542B4349504150A0
:1055D0005F00000041542B43574C41504F50543D05
:1055E000312C31323700000041542B43574C41508D
:1055F0000000000000F0010030B994F84001C0F351
:10560000400008B900204FE400BF94F8400100F0CA
:10561000010080F00100207600BF00BF0120009053
:105620006A4604F124010720FBF7C6F80020A08198
:1056300000BFF9490880F9490880F949088000BF8E
:1056400094F8280100F0010030B994F8280120F006
:105650000200801C84F828011C21F248FAF72FFE72
:1056600058E4A08942F2020188427DD1ED48C66823
:1056700000BF0020C4F840012068606100BF00BF87
:10568000E9A0EC490860092088808A1D0120FBF709
:1056900093F800BF00BFE3480068E6490860E149AD
:1056A0000868FAF723FEE34988808A1D0120FBF78A
:1056B00083F800BF00BFAFF23050DE49086002201F
:1056C00088808A1D0120FBF777F800BFD54948681C
:1056D000FBF720FE00BFAFF22010D6490860032080
:1056E00088808A1D0120FBF767F800BFCD498868D4
:1056F000FBF710FE00BFAFF26C50CE4908600120EE
:1057000088808A1DFBF758F800BF76B300BFAFF260
:105710006010C8490860022088808A1D0120FBF7BC
:105720004BF800BF06273A2001901CE016F8011B39
:1057300002A8FCF79DFB00BF02A8BE490860FAF76B
:10574000D5FDBC4988808A1D0120FBF735F800BFD4
:105750004FB100BF01A8B7490860012088808A1DA9
:10576000FBF72AF800BF01E065E00FE0381EA7F163
:105770000101CFB2DAD100BFAFF2F050AD490860FD
:10578000012088808A1DFBF717F800BF00BFAFF625
:105790008020A8490860022088808A1D0120FBF72C
:1057A0000BF800BF002242F20201204601F0EAFDA0
:1057B00000BF40F20660288000BF94F8400100F06E
:1057C000010030B994F84001C0F3400008B900204E
:1057D00029E400BF94F8400100F0010080F00100CE
:1057E0002076207E18B942F20310A08151E400BF58
:1057F000012000906A4604F124010720FAF7DCFF3B
:105800000020A08100BF8449088084490880844921
:10581000088000BF94F8280100F0010030B994F826
:10582000280120F00200801C84F828011C217D48FA
:10583000FAF745FD2DE4A08942F20501884260D1C6
:1058400000BF0020C4F840012068606100BF00BFB5
:1058500079A078490860082088808A1D0120FAF71D
:10586000ABFF00BF00BFAFF658307249086002209E
:1058700088808A1D0120FAF79FFF00BF002242F2B4
:105880000501204601F07EFD00BF40F21760288030
:1058900000BF94F8400100F0010030B994F84001D5
:1058A000C0F3400008B9002013E500BF94F84001A0
:1058B00000F0010080F00100207600BF0120009080
:1058C0006A4604F124010720FAF776FF0020A08140
:1058D00000BF51490880514908805149088000BFE4
:1058E00094F8280100F0010030B994F8280120F064
:1058F0000200801C84F828011C214A48FAF7DFFCCA
:1059000024E5A08942F20811884260D100BF00203E
:10591000C4F840012068606100BF00BF49A045494C
:1059200008600D2088808A1D0120FAF745FF00BF1E
:1059300000BFAFF624403F490860022088808A1DDE
:105940000120FAF739FF00BF002242F2020120468F
:1059500001F018FD00BF40F22360288000BF94F8DA
:10596000400100F0010030B994F84001C0F340005C
:1059700008B90020ADE400BF94F8400100F0010038
:1059800080F00100207600BF012000906A4604F1FB
:1059900024010720FAF710FF0020A08100BF1E4954
:1059A00008801E4908801E49088000BF94F828011D
:1059B00000F0010030B994F8280120F00200801CAA
:1059C00084F828011C211748FAF779FCBEE4A08965
:1059D00042F20A01884279D100BF0020C4F8400198
:1059E0002068606100BF00BF1AA0124908600E2045
:1059F00088808A1D0120FAF7DFFE00BF00BF09483A
:105A0000806908B117A000E017A00A49086005499D
:105A1000896959B313A12CE06400002066000020BE
:105A2000680000205405002041542B43574A415040
:105A30005F0000006C00002041542B43575141503F
:105A40000000000041542B43574A41505F435552D8
:105A50003F00000041542B43574155544F434F4E94
:105A60004E3D00003100000030000000FFE7AFF2C3
:105A700008010846FAF73AFCFE4988808A1D012091
:105A8000FAF79AFE00BF00BFAFF67C50F9490860F4
:105A9000022088808A1D0120FAF78EFE00BF0022B6
:105AA00042F20A01204601F06DFC00BF4FF4C660CF
:105AB000288000BF94F8400100F0010038B994F844
:105AC0004001C0F3400010B90020CAE42BE000BF41
:105AD00094F8400100F0010080F00100207600BF42
