:020000040800F2
:10000000D000012069020008E522000889220008CA
:10001000E1220008AD050008E160000800000000D2
:10002000000000000000000000000000AD0100081A
:10003000B10600080000000001020008095600088F
:10004000830200088302000883020008830200087C
:10005000830200088302000883020008830200086C
:10006000830200088302000883020008B10500082B
:10007000C1050008D1050008E1050008F1050008E8
:1000800001060008110600088302000800000000B5
:1000900000000000000000000000000083020008D3
:1000A000830200088302000883020008830200081C
:1000B000830200088302000883020008830200080C
:1000C00083020008830200088302000883020008FC
:1000D00083020008656000088960000800000000D5
:1000E0008302000883020008830200080000000069
:1000F00000000000000000000000000021060008D1
:100100000000000083020008830200088302000848
:1001100000000000000000000000000000000000DF
:100120003106000841060008510600086106000873
:100130007106000800000000000000000000000040
:100140000000000000000000000000008302000822
:100150008106000891060008A1060008B5600008A5
:100160008302000883020008000000000000000075
:10017000000000000000000000000000000000007F
:1001800000000000830200080000000000000000E2
:100190008302000883020008DFF80CD000F002F9A7
:1001A0000048004705660008D00001202B4B196865
:1001B0000868B0E8F04F80F30988BFF36F8F4FF005
:1001C000000080F3118870470000000006480068B6
:1001D000006880F3088862B661B6BFF34F8FBFF343
:1001E0006F8F00DF00BF00BF08ED00E0DFF80C00FC
:1001F000016841F470010160704700BF88ED00E0C4
:10020000EFF30980BFF36F8F144B1A681EF0100FC5
:1002100008BF20ED108A20E9F04F106008B44FF0BD
:10022000500080F31188BFF34F8FBFF36F8F06F03C
:1002300059FF4FF0000080F3118808BC1968086866
:10024000B0E8F04F1EF0100F08BFB0EC108A80F33A
:100250000988BFF36F8F704700BF00BF7C0000208C
:10026000EFF30580704700000648804706480047C6
:10027000FEE7FEE7FEE7FEE7FEE7FEE7FEE7FEE756
:10028000FEE7FEE7115600089901000840EA010365
:100290009B0703D009E008C9121F08C0042AFAD23C
:1002A00003E011F8013B00F8013B521EF9D2704700
:1002B000D2B201E000F8012B491EFBD270470022A8
:1002C000F6E710B513460A4604461946FFF7F0FF55
:1002D000204610BD30B505462A460B4612F8010BE4
:1002E00013F8014B08B1A042F8D01CB1002802D08D
:1002F0006D1CF1E7284630BD421C10F8011B002997
:10030000FBD1801A704710B5002200E0521C835CBC
:100310008C5CA34201D1002BF8D1D8B2E1B2401AD3
:1003200010BD30B505460020034600E05B1C93423B
:1003300005D2EC5CC85C201A01D1002CF6D130BD8E
:100340002DE9F05F0546002092469B46884606460A
:10035000814640241BE0284641464746224600F09D
:1003600042F853465A46C01A914110D311461846D6
:10037000224600F029F82D1A67EB01084F46224665
:100380000120002100F020F817EB00094E41201E4B
:10039000A4F10104DFDC484631462A464346BDE865
:1003A000F09F0000064C074D06E0E06840F00103B6
:1003B00094E8070098471034AC42F6D3FFF7F0FEFC
:1003C000347C0008547C0008202A04DB203A00FA20
:1003D00002F1002070479140C2F1200320FA03F39C
:1003E000194390407047202A04DB203A21FA02F09A
:1003F0000021704721FA02F3D040C2F1200291405F
:1004000008431946704730B50146002409B9002059
:1004100030BD4A688B689A4200D10C68934200D97B
:100420009C1A9A4202D9D51A0868441B601EEFE74D
:1004300030B503460BB9002030BD59689A68914227
:1004400000D10024914200D98C1A8A4202D9551A4F
:100450001868441B2046EFE770B504460D46164663
:100460000CB9012070BD18212046FFF728FF256038
:10047000E6600A206074E06868B9284606F01CF956
:10048000E060E06818B9002020600120EAE7207CE5
:1004900040F002002074207C40F001002074002015
:1004A000E0E72DE9F0470446884615464FF000097D
:1004B00004B115B90020BDE8F0872168A068884222
:1004C00001D30020A0602046FFF7B2FF0746AF42ED
:1004D00003D20FB90020EEE73D46A1682068461A16
:1004E000AE4200D92E46D4E9022081183246404659
:1004F000FFF7CCFEB144A0683044A060AD1B35B11D
:1005000008EB09002A46E168FFF7C0FEA5602168F4
:10051000A068884201D30020A06009EB0500CAE76B
:1005200000B9704700214160816000BFF9E72DE903
:10053000F0470446894615464FF0000804B115B946
:100540000020BDE8F087D4E90010884201D30020E4
:1005500060602046FFF757FF0746AF4203D20FB94E
:100560000020EEE73D46D4E90001461AAE4200D92C
:100570002E466268E168881832464946FFF786FED3
:10058000B044606830446060AD1B35B109EB0801D0
:100590002A46E068FFF77AFE6560D4E900108842D9
:1005A00001D30020606008EB0500CAE700BFFEE74A
:1005B00010B5024805F031F910BD0000106002408E
:1005C00010B5024805F029F910BD0000286002406E
:1005D00010B5024805F021F910BD0000406002404E
:1005E00010B5024805F019F910BD0000586002402E
:1005F00010B5024805F011F910BD0000706002400E
:1006000010B5024805F009F910BD000088600240ED
:1006100010B5024805F001F910BD0000A0600240CD
:1006200010B5024805F0F9F810BD0000B8600240AE
:1006300010B5024805F0F1F810BD0000106402404A
:1006400010B5024805F0E9F810BD0000286402402A
:1006500010B5024805F0E1F810BD0000406402400A
:1006600010B5024805F0D9F810BD000058640240EA
:1006700010B5024805F0D1F810BD000070640240CA
:1006800010B5024805F0C9F810BD000088640240AA
:1006900010B5024805F0C1F810BD0000A06402408A
:1006A00010B5024805F0B9F810BD0000B86402406A
:1006B000704700002DE9F04104460D46174600BF83
:1006C00025B900BF04202071BDE8F08100BF00BF44
:1006D000A08928B941F65050005DC0F3400018B120
:1006E00000BF09202071EFE700BF00BF04F1240024
:1006F00000F076FE30B140F2EA711AA005F0F2FC8B
:100700000620E1E7A08908B92068606143F20B0088
:10071000A08100BF28781749886100BF5FB941F602
:100720005050005D20F0010141F65050015500BFCE
:1007300000202071C8E741F65050005D20F0010014
:10074000401C41F65051085542F21071204600F00D
:10075000F9FF0646062E00D1B6E7267E0020207659
:100760003046B1E754696D656F75742121202564A9
:1007700000000000C02300202DE9F04704460D468C
:1007800016461F46DDE9089A00BF0DB106B127B92C
:1007900000BF04202071BDE8F08700BF00BFA08922
:1007A00028B941F65050005DC0F3400018B100BFB9
:1007B00009202071EFE700BF00BF04F1240000F022
:1007C0000FFE30B140F2DD711EA005F08BFC06205B
:1007D000E1E7A08908B92068606143F20500A081C3
:1007E00000BF1C48C560C0F810900660876100BF5C
:1007F000BAF1000F0BD141F65050005D20F001011D
:1008000041F65050015500BF00202071C3E741F66A
:100810005050005D20F00100401C41F65051085539
:1008200042F21071204600F08DFF8046B8F1060FAD
:1008300001D10620AFE794F81880002020764046CA
:10084000A9E7000054696D656F7574212120256446
:1008500000000000C02300202DE9FC4106460D46A3
:100860000A2E50D2DFE806F005154F4F4F4F090F03
:10087000384827A005F036FC46E02C68217829A0EE
:1008800005F030FC40E02C6821782FA005F02AFC10
:100890003AE02C686F6835A0A96805F023FC3A4857
:1008A00000F0AAFAB8B939A13846FFF713FD28B10C
:1008B000002221463448FFF7FDFE0CE000203649B7
:1008C0004FF49A73354ACDE9001021462E48FFF7C0
:1008D00053FF3349087017E02C68217831A005F0E8
:1008E00001FC002221462848FFF7E4FE80464146ED
:1008F00032A005F0F7FB07E02C68002221462248D1
:10090000FFF7D8FE00E000BF00BF0020BDE8FC817B
:10091000537461636B2069732049444C45210D0A6F
:1009200000000000436F6E6E656374696F6E202572
:1009300064206A75737420626563616D652061630C
:1009400074697665210D0A00436F6E6E6563746984
:100950006F6E20256420776173206A75737420633D
:100960006C6F736564210D0A0000000044617461BE
:100970002072656365697665643A20256420627932
:100980007465730D0A000000B80100202F666176BF
:1009900069636F6E000000004C000020747A00084C
:1009A00044000020446174612073656E7420636F9D
:1009B0006E6E3A2025640D0A00000000436C6F73D0
:1009C0006520636F6E6E20726573703A2025640D2A
:1009D0000A000000024600207047000070B504467F
:1009E0000D462A4621460348FFF7A1FD0646B0B250
:1009F00070BD0000241F00202DE9F04104460F4681
:100A000016463225DFF8C083F048046041F66C5189
:100A10002046FFF754FC41F6585006510EB9EC49F8
:100A2000015100202060EB4A40F2FF314046FFF7C1
:100A300013FDA76004F1080000F0E6F920B100BF43
:100A400002202071BDE8F08104F1240000F0AAFC2E
:100A500018B100BF03202071F4E700BF0020DE4979
:100A60000880DE490880DE49088000BF41F650500A
:100A7000005D20F00100401C41F6505108554FF434
:100A80007A70E0611BE000BF04F1240000F0A8FCD4
:100A900030B140F2BF51D3A005F024FB0620D1E7CE
:100AA000A08908B92068606141F20200A08100BFFE
:100AB000E169204600F046FE207E00B903E0281ED2
:100AC000A5F10105DFD100BF6420E0611BE000BF9C
:100AD00004F1240000F084FC30B140F2C751C1A001
:100AE00005F000FB0620ADE7A08908B92068606129
:100AF00041F20100A08100BFE169204600F022FE22
:100B0000207E00B903E0281EA5F10105DFD100BF5A
:100B10001EE000BF04F1240000F062FC30B140F29E
:100B2000DA51B0A005F0DEFA06208BE7A08908B9FB
:100B30002068606142F20100A08100BF0320AD493E
:100B40008861E169204600F0FDFD207E00B903E0E8
:100B5000281EA5F10105DCD100BF1EE000BF04F195
:100B6000240000F03DFC30B140F2E2519DA005F0C0
:100B7000B9FA062066E7A08908B92068606143F2E7
:100B80000D00A08100BF01209A498861E1692046DB
:100B900000F0D8FD207E00B903E0281EA5F1010574
:100BA000DCD100BF1EE000BF04F1240000F018FCFF
:100BB00030B140F2EA518BA005F094FA062041E7EB
:100BC000A08908B92068606143F21400A08100BFC9
:100BD000012088498861E169204600F0B3FD207E4C
:100BE00000B903E0281EA5F10105DCD100BF1EE01D
:100BF00000BF04F1240000F0F3FB30B140F2F251E9
:100C000078A005F06FFA06201CE7A08908B92068D3
:100C1000606142F20110A08100BF01207549886126
:100C2000E169204600F08EFD207E00B903E0281E19
:100C3000A5F10105DCD100BF1EE000BF04F12400D6
:100C400000F0CEFB30B140F2FA5166A005F04AFA4E
:100C50000620F7E6A08908B92068606142F2021018
:100C6000A08100BF012063498861E169204600F04E
:100C700069FD207E00B903E0281EA5F10105DCD145
:100C800000BF1EE000BF04F1240000F0A9FB30B15A
:100C900040F2026153A005F025FA0620D2E6A089B1
:100CA00008B92068606142F20310A08100BF0120F2
:100CB00050498861E169204600F044FD207E00B97A
:100CC00003E0281EA5F10105DCD100BF1EE000BF36
:100CD00004F1240000F084FB30B140F20A6141A02D
:100CE00005F000FA0620ADE6A08908B92068606129
:100CF00042F20410A08100BF01203E498861E169F1
:100D0000204600F01FFD207E00B903E0281EA5F15B
:100D10000105DCD100BF1BE000BF04F1240000F09E
:100D20005FFB30B140F212612EA005F0DBF9062026
:100D300088E6A08908B92068606142F20910A081A4
:100D400000BFE169204600F0FDFC207E00B903E011
:100D5000281EA5F10105DFD100BF00BF04F124006A
:100D600000F030FB0020A08100BF1B4908801B4918
:100D700008801B49088000BF41F65050005D00F01C
:100D8000010040B941F65050005D20F00200801C87
:100D900041F6505108551C211648FFF790FA00BF44
:100DA00041F65050005D20F0010141F650500155D0
:100DB000005D20F0020141F65050015500BF207E39
:100DC0002071207E3EE60000241F00205C000020F1
:100DD000D50900083C1F00206000002062000020B0
:100DE0006400002054696D656F75742121202564AD
:100DF00000000000C02300200146888908B10120BE
:100E000070470020FCE700001CB50446002107489D
:100E1000226804F0C5FF0020012103460A46CDE9FF
:100E20000010034804F0A8FD00201CBD0010014084
:100E30000000024070B506460C4615462A4621467B
:100E4000024804F0E6FF002070BD000000100140E1
:100E50000246012903D10804034B986102E00120F6
:100E6000014B986100207047000002401CB5244AE5
:100E70004FF4E1312348FFF7BFFD2349087018B94B
:100E800022A005F02FF904E01F48017827A005F003
:100E900029F9012000210B462CA2CDE9001030A138
:100EA000184800F009FA1849087018B930A005F080
:100EB00019F904E01448017833A005F013F9012270
:100EC0005021104800F096F90F49087070B90D488C
:100ED00090F82B0000900B4890F82A3090F82920C9
:100EE00090F82810334805F0FDF804E00648017832
:100EF00031A005F0F7F802E0024800F073F8FBE7D4
:100F000059080008B8010020440000204553502033
:100F10006D6F64756C6520696E69742073756363A9
:100F200065737366756C6C79210D0A00455350200A
:100F3000496E6974206572726F722E2053746174E9
:100F400075733A2025640D0A000000006D616A6522
:100F5000726C655F696E7465726E65740000000086
:100F60004D616A65726C6520576946690000000032
:100F7000436F6E6E656374656420746F206E657474
:100F8000776F726B0D0A000050726F626C656D7343
:100F900020747279696E6720746F20636F6E6E655E
:100FA000637420746F206E6574776F726B3A2025BE
:100FB000640D0A00D07B000850726F626C656D731F
:100FC00020747279696E6720746F20656E61626C3F
:100FD0006520736572766572206D6F64653A2025B1
:100FE000640D0A0070B504460026A089A0B941F638
:100FF0005050005DC0F3400070B141F65050005DAC
:1010000020F0020141F65050015541F65850025966
:10101000001D211800209047A08998B941F654502E
:10102000005D00F0010068B141F65450005D20F011
:10103000010141F654500155001D0259001D2118AF
:1010400002209047A08998B941F65450005DC0F342
:10105000400068B141F65450005D20F0020141F6B5
:1010600054500155001D0259001D211803209047BE
:10107000A08998B941F65450005DC0F3800068B172
:1010800041F65450005D20F0040141F654500155E2
:10109000001D0259001D2118042090470026A1E0E0
:1010A00040F2E120704304F1780101EB4005A08992
:1010B00030BB41F65050005DC0F3400000BB95F8D6
:1010C000C105C0F30010D8B195F8C10520F010009B
:1010D00085F8C10541F65C50055105F1090041F65E
:1010E0005C5121444860B5F8BE0541F65C5121448D
:1010F000886041F658500259001D21180120904780
:10110000A089C8B941F65050005DC0F3400098B9BD
:1011100095F8C105C0F3800070B195F8C10520F0C5
:10112000040085F8C10541F65C500551001F0259C5
:10113000001D211808209047A089C8B941F65050D9
:10114000005DC0F3400098B995F8C105C0F3C00038
:1011500070B195F8C10520F0080085F8C10541F689
:101160005C500551001F0259001D211809209047AD
:10117000A089C8B941F65050005DC0F3400098B94D
:1011800095F8C10500F0010070B195F8C10520F097
:10119000010085F8C10541F65C500551001F025958
:1011A000001D211806209047A089C8B941F650506B
:1011B000005DC0F3400098B995F8C105C0F3400048
:1011C00070B195F8C10520F0020085F8C10541F61F
:1011D0005C500551001F0259001D2118072090473F
:1011E000701CC6B2052EFFF45BAF00BF002020715B
:1011F00070BD00002DE9F04104460D46174600BFC2
:10120000002D04DC00BF04202071BDE8F08100BF88
:1012100000BFA08928B941F65050005DC0F34000DE
:1012200018B100BF09202071EFE700BF00BF04F133
:10123000240000F0D5F830B140F26E7119A004F02E
:1012400051FF0620E1E7A08908B92068606143F2F8
:101250000110A08100BF1748856100BF5FB941F64A
:101260005050005D20F0010141F65050015500BF83
:1012700000202071C9E741F65050005D20F00100C8
:10128000401C41F6505108554FF47A71204600F049
:1012900059FA0646062E00D1B7E7267E00202076B2
:1012A0003046B2E754696D656F757421212025645D
:1012B00000000000C02300202DE9F04704460D4641
:1012C00016469846DDE9089A00BF05B126B900BF69
:1012D00004202071BDE8F08700BF00BFA08928B9B5
:1012E00041F65050005DC0F3400018B100BF092026
:1012F0002071EFE700BF00BF04F1240000F070F898
:1013000030B14FF4F56120A004F0ECFE0620E1E7D7
:10131000A08908B92068606142F20200A08100BF84
:10132000B9F1000F01D01CA000E01CA01C4908600E
:10133000084645608660C0F80C8000BFBAF1000F17
:101340000BD141F65050005D20F0010141F65050A4
:10135000015500BF00202071BCE741F65050005DF0
:1013600020F00100401C41F65051085542F2107126
:10137000204600F0E7F90746062F00D1AAE7277EAE
:10138000002020763846A5E754696D656F75742195
:1013900021202564000000004445460043555200CA
:1013A000C023002010B50446204605F0C0F90449CA
:1013B00008600846006808B9012010BD0020FCE75D
:1013C0007800002010B504460448006805F0B6F91E
:1013D00008B1012010BD0020FCE7000078000020CB
:1013E00010B504464FF47A710448006805F0CEF950
:1013F00008B1012010BD0020FCE7000078000020AB
:10140000F8B50446BB4D4FF4FA76A08970B1206858
:101410006169401AE169884208D941F66850005D67
:1014200020F00200801C41F66851085555E141F654
:101430004450005D00287DD041F64450204400898E
:101440000028F8D0A089E8B900BF04F12400FFF714
:10145000C7FF30B140F23A61A7A004F043FE062076
:10146000F8BDA08908B92068606143F21500A08129
:1014700000BF41F65050005D20F00100401C41F6D5
:10148000505108559DF8001041F6445020444068E2
:10149000093041F6445222445289815441F6445065
:1014A00020444089401C41F644512144488141F682
:1014B000445020440089401E41F644512144088193
:1014C00041F644502044008958BB002141F6445065
:1014D0000155A08943F21501884222D100BF04F1D1
:1014E0002400FFF76FFF0020A08100BF864908801D
:1014F000864908808649088000BF41F65050005D4B
:1015000000F0010040B941F65050005D20F00200AB
:10151000801C41F6505108551C217E48FEF7CFFE35
:1015200000BF41F644502044408940F2B351884204
:1015300007DA00E04FE041F64450204400890028DB
:1015400048D141F644502044416841F65C50015175
:1015500041F6445020444068093041F65C51214432
:10156000486041F644502044408941F644512144AA
:101570004968A1F8BE0541F644502044408941F62F
:101580005C512144886041F644502044008988B170
:1015900041F658500259001D21180120904741F68C
:1015A00044512144496801F2C150017821F01001F1
:1015B00001700AE041F644512144496801F2C150EA
:1015C000017821F0100110310170002041F64451E2
:1015D0002144488179E09DF80000202803DB9DF834
:1015E00000007E2807DD9DF800000D2803D09DF83F
:1015F00000000A2863D19DF800000A281BD100BF13
:101600009DF80010444802780078401C424B187046
:10161000581C81540021401E0278401C815400BF98
:10162000411E204603F0B6FC00BF00203A49087076
:10163000487000BF42E09DF80000202810D13748D4
:1016400000783E280CD1364800780A2808D141F6A7
:101650006850005D20F00400001D41F668510855F7
:1016600000BF9DF800102C4802780078401C2A4BDF
:101670001870581C81540021401E0278401C81546F
:1016800000BF9DF800003A2817D1184600780428BA
:1016900013DD184640782B280FD1042221A1581CB5
:1016A000FEF73FFE48B91C49204603F073FC00BF1B
:1016B000002019490870487000BF00BF05E000BF56
:1016C000002015490870487000BF1448007814497C
:1016D00008709DF80000114908703EB1012269466A
:1016E0002846FEF7DEFE00287FF4A1AE204603F078
:1016F00053FFB5E6241F002054696D656F75742192
:10170000212025640000000060000020620000200D
:1017100064000020C02300203C230020740000202F
:10172000750000202B4950440000000002680A4464
:101730000260704702E00248FFF762FEFBE700002C
:10174000B801002070B504460D46E56100BF204693
:10175000FFF748FCA0890028F9D141F65050005D00
:10176000C0F340000028F2D100BF207E2071207E0F
:1017700070BD000038B504465C20009017E020786A
:101780002C2805D02078222802D020785C2806D189
:1017900001226946084800680830FFF74BFB2146E4
:1017A000641C0122044800680830FFF743FB2078DE
:1017B0000028E4D138BD00005C000020014800682A
:1017C000704700000400002010B52E480068401C3F
:1017D0002C4908602C48006820B12B480068401E46
:1017E00029490860002444E0284850F824000028D3
:1017F0003DD0264850F824000078C0F34000B0B334
:10180000224850F82400806840B1204850F8240055
:101810008068401E1D4951F8241088601B4850F80C
:101820002400806818BB194B53F824301969174BF2
:1018300053F8240053F82430DA689047134850F8DE
:1018400024004168114850F8240081600F4850F886
:101850002400007800F0010048B90C4850F824003A
:10186000007820F00201094850F824000170601C43
:10187000C4B20648001F0078A042B5DC03F02CFF7C
:1018800010BD000004000020000000200401002022
:1018900010B50D48006840F400700B490860084618
:1018A000006840F4806008600846006840F480707A
:1018B0000860032000F086F80F2000F007F800F021
:1018C00017F8002010BD0000003C024070B504462F
:1018D00000F0E4F94FF47A71B0FBF1F5284600F01E
:1018E00081FC00222146501E00F02DF8002070BD22
:1018F0007047000000BF00F01F0201219140034A21
:10190000430942F8231000BF7047000080E200E066
:1019100000BF00F01F0201219140034A430942F831
:10192000231000BF7047000080E100E000BF00F01E
:101930001F02012191404209920002F1E022C2F807
:10194000001100BF70472DE9F05F80460D46164636
:10195000002700F0C9FC074639462A46334601F005
:101960000700C0F1070ABAF1040F02D94FF0040AC8
:1019700001E0C0F1070AD14600F1040ABAF1070FED
:1019800002D24FF0000A01E0A0F1030AD4464FF062
:10199000010A0AFA09FAAAF1010A0AEA020A0AFA8B
:1019A0000CFA4FF0010B0BFA0CFBABF1010B0BEA3D
:1019B000030B4AEA0B042146404600F09DFCBDE8BB
:1019C000F09F000000BF00F00702064B19684FF6B9
:1019D000FF031940044B0B4343EA0221014B1960FA
:1019E00000BF70470CED00E00000FA0570B504463A
:1019F0000E460025A748006800F00F00B0426FD2E5
:101A0000A4490E700846006800F00F00B04201D0F3
:101A1000012070BD207800F00200022807D19E4806
:101A2000006820F0F000A16808439B490860207816
:101A300000F0010000283ED06068012807D19648D8
:101A400008380068C0F34040B8B90120E1E7606899
:101A5000022802D06068032807D18F480838006840
:101A6000C0F3406048B90120D3E78B4808380068CC
:101A7000C0F3400008B90120CBE78748006820F098
:101A800003006168084384490860FFF797FE054634
:101A90006068012810D108E0FFF790FE401B41F27A
:101AA0008831884201D90320B3E77B48006800F001
:101AB0000C000428F0D1CDE06068022811D108E0C4
:101AC000FFF77CFE401B41F28831884201D9032098
:101AD0009FE77148006800F00C000828F0D1B9E0D9
:101AE00024E06068032810D108E0FFF767FE401B80
:101AF00041F28831884201D903208AE766480068AC
:101B000000F00C000328F0D1A4E008E0FFF756FE37
:101B1000401B41F28831884201D9032079E75E48B1
:101B2000006800F00C000028F0D193E0207800F06D
:101B30000200022807D15848006820F0F000A16890
:101B4000084355490860207800F00100002877D04C
:101B50006068012807D1504808380068C0F3404049
:101B6000B8B9012055E76068022802D060680328F0
:101B700007D1494808380068C0F3406048B90120DF
:101B800047E7454808380068C0F3400008B901201D
:101B90003FE74148006820F00300616808433E4980
:101BA0000860FFF70BFE05466068012810D108E0C9
:101BB000FFF704FE401B41F28831884201D903201F
:101BC00027E73548006800F00C000428F0D137E022
:101BD0006068022810D108E0FFF7F0FD401B41F2D9
:101BE0008831884201D9032013E72B48006800F0B0
:101BF0000C000828F0D123E06068032810D108E029
:101C0000FFF7DCFD401B41F28831884201D90320F7
:101C1000FFE62148006800F00C000328F0D10FE037
:101C200008E0FFF7CBFD401B41F28831884201D923
:101C30000320EEE61848006800F00C000028F0D100
:101C400014490E700846006800F00F00B04201D041
:101C50000120DEE6207800F00400042807D10E48B9
:101C6000006820F4E050E16808430B4908602078E0
:101C700000F00800082808D10748006820F46040F8
:101C8000216940EAC100044908600F20FFF71EFEE9
:101C90000020BEE6003C02400838024010B500F0CB
:101CA00045F80949096801F0F001F02292FAA2F220
:101CB000B2FA82F2D140054A515CC840044908603A
:101CC0000846006810BD000008380240507A00083D
:101CD0005800002010B5FFF7E1FF0749096801F43B
:101CE000E0514FF4E05292FAA2F2B2FA82F2D140FD
:101CF000024A515CC84010BD08380240507A0008C2
:101D000010B5FFF7CBFF0749096801F460414FF4B4
:101D1000604292FAA2F2B2FA82F2D140024A515CD7
:101D2000C84010BD08380240507A000870B5002144
:101D3000002200230020274C246804F00C0424B166
:101D4000042C04D0082C41D103E0234840E0234870
:101D50003EE0204C241F246804F03F011D4C241F4A
:101D6000246804F4800484B11C4CB4FBF1F5194CD4
:101D7000241F246847F6C076344096FAA6F6B6FAD1
:101D800086F6F44005FB04F20FE0134CB4FBF1F5CA
:101D9000104C241F246847F6C076344096FAA6F605
:101DA000B6FA86F6F44005FB04F20A4C241F2468B8
:101DB00004F440344FF4403595FAA5F5B5FA85F5AD
:101DC000EC40641C6300B2FBF3F001E0024800BF8A
:101DD00000BF70BD083802400024F40000127A00F1
:101DE00038B504460025207800F00100002866D0B0
:101DF000F648006800F00C0004280DD0F348006895
:101E000000F00C00082813D1F048001F006800F40F
:101E10008000B0F5800F0BD1EC4808380068C0F3A3
:101E2000404000284BD06068002848D1012038BDD0
:101E30000020E649891F0870FFF7C0FC054608E04E
:101E4000FFF7BCFC401B41F28831884201D90320D6
:101E5000EDE7DE4808380068C0F340400028EFD1C5
:101E60002079DA49891F08706068A0B1FFF7A6FCE5
:101E7000054608E0FFF7A2FC401B41F2883188428A
:101E800001D90320D3E7D14808380068C0F34040A7
:101E90000028EFD013E0FFF791FC054608E0FFF7BC
:101EA0008DFC401B41F28831884201D90320BEE7F6
:101EB000C64808380068C0F340400028EFD12078B9
:101EC00000F00200022869D1C048006800F00C0050
:101ED00058B1BE48006800F00C00082821D1BB486A
:101EE000001F006800F48000D8B9B84808380068BE
:101EF000C0F3400020B1E068012801D0012096E73E
:101F0000B2480838006820F0F800F82292FAA2F2ED
:101F1000B2FA82F2216991400843AC49083908605D
:101F20003CE0E06828B30120A9490860FFF746FCBF
:101F3000054606E0FFF742FC401B642801D9032058
:101F400075E7A24808380068C0F340000028F1D0C7
:101F50009E480838006820F0F800F82292FAA2F2B1
:101F6000B2FA82F221699140084398490839086021
:101F700014E0002096490860FFF720FC054606E0C3
:101F8000FFF71CFC401B642801D903204FE78F4852
:101F900008380068C0F340000028F1D1207800F034
:101FA000080008282CD16069A8B10120894908607F
:101FB000FFF704FC054606E0FFF700FC401B642821
:101FC00001D9032033E781486C300068C0F340003A
:101FD0000028F1D014E000207E490860FFF7EEFBF6
:101FE000054606E0FFF7EAFB401B642801D9032001
:101FF0001DE776486C300068C0F340000028F1D13E
:10200000207800F0040004286DD100BF6F483830FC
:10201000006840F080506D4938310860084600681B
:1020200000F08050009000BF00BF6B48006840F493
:10203000807069490860FFF7C1FB054606E0FFF7BD
:10204000BDFB401B642801D90320F0E6624800680C
:1020500000F480700028F2D000205C4968310870DC
:10206000FFF7ACFB054608E0FFF7A8FB401B41F279
:102070008831884201D90320D9E654486830006885
:10208000C0F340000028EFD1207A50496831087031
:10209000A068A0B1FFF792FB054608E0FFF78EFBB2
:1020A000401B41F28831884201D90320BFE64748EE
:1020B00068300068C0F340000028EFD013E0FFF75D
:1020C0007DFB054608E0FFF779FB401B41F28831B4
:1020D000884201D90320AAE63C4868300068C0F372
:1020E00040000028EFD1A069F0B33848006800F044
:1020F0000C00082872D0A069022850D10020344971
:102100000866FFF75BFB054606E0FFF757FB401B41
:10211000642801D903208AE62C4808380068C0F3F7
:1021200040600028F1D1D4E90701084347F6C072A6
:1021300092FAA2F2B2FA82F2616A91400843012255
:10214000A16AC2EB51014FF4403292FAA2F2B2FA04
:1021500082F2914008434FF0706292FAA2F2B2FA12
:1021600082F2E16A914000E03AE008431749091F12
:102170000860012016490866FFF720FB054606E0C7
:10218000FFF71CFB401B642801D903204FE60F48D2
:1021900008380068C0F340600028F1D020E000203B
:1021A0000B490866FFF70AFB054606E0FFF706FB4A
:1021B000401B642801D9032039E604480838006828
:1021C000C0F340600028F1D10AE007E0083802407F
:1021D00000004742800E474200700040012026E682
:1021E000002024E670B504462546681EB0F1807FC5
:1021F00001D301200FE0681E4FF0E02148610F215C
:102200004FF0FF3000F078F800204FF0E0218861B7
:1022100007200861002070BD10B504460CB90120EC
:1022200010BDA06900B100E000BF94F8390028B9E2
:10223000002084F83800204600F025F8022084F8B9
:1022400039002068C06820F400502168C86020462A
:1022500003F0F6FD2068006920F4904021680861D1
:102260002068406920F02A00216848612068C06821
:1022700040F400502168C8600020E063012084F829
:1022800039000020CCE7704700BFFEE70146302947
:1022900005DB392903DCA1F13000C0B270476129A8
:1022A00005DB662903DCA1F15700C0B2F6E741293E
:1022B00005DB462903DCA1F13700C0B2EEE70020C0
:1022C000ECE7000070B505460C46224602A1284600
:1022D00003F018FF70BD00002530325800000000E8
:1022E00000BFFEE77047000002480068C0F302200C
:1022F000704700000CED00E010B5002807DA0A076F
:10230000140E054A00F00F031B1FD45403E00A0704
:10231000130E024A135410BD18ED00E000E400E073
:1023200070B505460C46224602A1284603F0EAFE97
:1023300070BD0000256400007CB505460C46288869
:1023400040F2E722811A90427DD007DC68B1B0F5F7
:10235000357F2ED0B0F5387F76D181E0152974D045
:10236000292973D03629F7D1EAE1A08941F2010188
:10237000884258D100BF002141F66850015100BF8A
:102380000222F6A1F64800680830FEF753FD02224B
:10239000F4A1F34800680830FEF74CFD002241F23A
:1023A0000101204603F028F900BF4FF43570288062
:1023B00000BF41F66850005D00F0010038B941F6F9
:1023C0006850005DC0F3400008B900207CBD00BF2C
:1023D00041F66850005D00F0010080F001002076B9
:1023E00000BF04F12400FEF7EDFF0020A08100BF34
:1023F000DD490880DD490880DD49088000BF41F6DD
:102400005050005D00F0010040B941F65050005DB1
:1024100020F00200801C41F6505108551C21D5487F
:10242000FDF74DFFF5E1A08941F20201884264D138
:1024300000BF002141F66850015100BF2068CE491D
:102440000860012103E01EE0E4E19FE01AE104F1ED
:102450000800FEF7FDFC00BF4FF43870288000BF75
:102460002068C5490968401A0A2801D30020ADE751
:1024700000BF002104F10800FEF7EAFC00BF40F2B3
:10248000E720288000BF41F66850005DC0F3C0001F
:1024900038B941F66850005DC0F3400008B900202B
:1024A00094E700BF41F66850005DC0F3C00080F0C3
:1024B0000100207600BF04F12400FEF783FF002016
:1024C000A08100BFA8490880A8490880A8490880C1
:1024D00000BF41F65050005D00F0010040B941F6E8
:1024E0005050005D20F00200801C41F6505108550C
:1024F0001C21A048FDF7E3FE8BE1A08941F2070112
:1025000088427CD19B4881696846FFF709FF00BF7C
:10251000002141F66850015100BF082297A1904860
:1025200000680830FEF786FC92490868FDF7E4FE73
:1025300086B2904832460168894800680830FEF744
:1025400079FC012290A1864800680830FEF772FCF1
:102550006846FDF7D1FE86B232466946804800687B
:102560000830FEF767FC082288A17D480068083023
:10257000FEF760FC02227BA1794800680830FEF774
:1025800059FC00BF4FF43F70288000BF41F66850EF
:10259000005D00F0010038B941F66850005DC0F3FD
:1025A000400008B9002011E700BF41F66850005D07
:1025B00000F0010080F001002076207E48B97648C6
:1025C000FDF7AEFF6B488069A06004F10800FEF7DC
:1025D0001BFC00BF04F12400FEF7F4FE0020A081E4
:1025E00000BF61490880614908806149088000BFD7
:1025F00041F65050005D00F0010050B900E00DE0E0
:1026000041F65050005D20F00200801C41F6505110
:1026100008551C215748FDF752FEFAE0A08941F207
:102620000A01884268D1534881696846FFF778FEFD
:1026300000BF002141F66850015100BF0B2257A195
:10264000474800680830FEF7F5FB6846FDF754FE82
:1026500086B232466946424800680830FEF7EAFB17
:10266000022240A13E4800680830FEF7E3FB00224A
:1026700041F20A01204602F0BFFF00BF4FF4447050
:10268000288000BF41F66850005D00F0010038B9B5
:1026900041F66850005DC0F3400008B9002095E69F
:1026A00000BF41F66850005D00F0010080F00100BD
:1026B000207600BF04F12400FEF784FE0020A081F4
:1026C00000BF29490880294908802949088000BF9E
:1026D00041F65050005D00F0010040B941F6505005
:1026E000005D20F00200801C41F6505108551C216D
:1026F0002048FDF7E4FD8CE0A08941F20601884204
:102700007ED100BF002141F66850015100BF0A226E
:1027100025A1134800680830FEF78CFB022211A1A6
:102720000F4800680830FEF785FB002241F20601E1
:10273000204602F061FF00BF40F21D30288000BF3C
:1027400041F66850005DC0F3C00098BB41F6685088
:10275000005DC0F3400068BB002037E64154000034
:102760005C0000200D0A00006000002062000020D4
:1027700064000020C02300206800002041542B5535
:102780004152545F000000003D0000002C382C3105
:102790002C302C3000000000241F002041542B520C
:1027A00046504F5745523D0041542B524553544FCC
:1027B00052450000FFE700BF41F66850005DC0F3DE
:1027C000C00080F00100207600BF04F12400FEF775
:1027D000F9FD0020A08100BF11490880114908803F
:1027E0001149088000BF41F65050005D00F0010023
:1027F00050B941F65050005D20F00200801C00E00E
:1028000007E041F6505108551C210848FDF757FDD7
:1028100000BF00BF00BF002028800320D6E50000D5
:10282000600000206200002064000020C02300201F
:102830002DE9FC4105460C46288840F2FF42811AEA
:1028400090427DD015DC40F2A742A0EB02019042FD
:1028500077D007DCE0B1A0F28D4000284CD00C28E6
:1028600070D1B3E00C296ED01A296DD04329F7D16D
:1028700014E35A2969D006DC1B2967D0222966D0C7
:102880004C29EDD1FEE368297AD07429E8D1FAE326
:10289000A08943F20D01884274D1FD4881696846E0
:1028A000FFF73EFD00BF002141F66850015100BF17
:1028B0000A22F8A1FA4800680830FEF7BBFA684619
:1028C000FDF71AFD87B23A466946F54800680830B8
:1028D000FEF7B0FA0222F3A1F14800680830FEF7D3
:1028E000A9FA002243F20D01204602F085FE00BF46
:1028F00040F28D40288000BF41F66850005D00F036
:10290000010040B941F66850005DC0F3400010B9C5
:102910000020BDE8FC8100BF41F66850005D00F07A
:10292000010080F00100207600BF04F12400FEF7D2
:1029300049FD0020A08100BFDB490880DB4907E09A
:1029400029E3B1E0D9E30DE17AE1D7E3C6E3D6E3C9
:102950000880D749088000BF41F65050005D00F064
:10296000010040B941F65050005D20F00200801C8B
:1029700041F6505108551C21C548FDF7A0FCD4E292
:10298000F1E3FFE7A08943F21401884258D100BF68
:10299000002141F66850015100BF0D22C5A1C04879
:1029A00000680830FEF746FA0222BEA1BC48006863
:1029B0000830FEF73FFA002243F21401204602F0ED
:1029C0001BFE00BF40F29940288000BF41F66850CE
:1029D000005D00F0010038B941F66850005DC0F3B9
:1029E000400008B9002094E700BF41F66850005D40
:1029F00000F0010080F00100207600BF04F1240007
:102A0000FEF7E0FC0020A08100BFA7490880A7498D
:102A10000880A749088000BF41F65050005D00F0D3
:102A2000010040B941F65050005D20F00200801CCA
:102A300041F6505108551C219548FDF740FC9EE792
:102A4000A08943F20111884268D1914881696846A2
:102A5000FFF766FC00BF002141F66850015100BF3E
:102A60000F2298A18E4800680830FEF7E3F9684607
:102A7000FDF742FC87B23A4669468948006808304B
:102A8000FEF7D8F9022287A1854800680830FEF7D2
:102A9000D1F9002243F20E01204602F0ADFD00BF45
:102AA00040F2A740288000BF41F66850005D00F06A
:102AB000010038B941F66850005DC0F3400008B924
:102AC000002026E700BF41F66850005D00F00100DD
:102AD00080F00100207600BF04F12400FEF772FCB4
:102AE0000020A08100BF70490880704908807049AB
:102AF000088000BF41F65050005D00F0010040B971
:102B000041F65050005D20F00200801C41F650510B
:102B100008551C215E48FDF7D2FB30E7A08943F23F
:102B20000211884258D100BF002141F6685001517E
:102B300000BF0E2267A15A4800680830FEF77AF9F4
:102B4000022258A1564800680830FEF773F90022A7
:102B500043F20E01204602F04FFD00BF40F2B340A9
:102B6000288000BF41F66850005D00F0010038B9D0
:102B700041F66850005DC0F3400008B90020C8E687
:102B800000BF41F66850005D00F0010080F00100D8
:102B9000207600BF04F12400FEF714FC0020A08181
:102BA00000BF41490880414908804149088000BF71
:102BB00041F65050005D00F0010040B941F6505020
:102BC000005D20F00200801C41F6505108551C2188
:102BD0002F48FDF774FBD2E6A08943F21101884229
:102BE00055D12B4881696846FFF79AFB00BF002149
:102BF00041F66850015100BF0A223AA128480068F6
:102C00000830FEF717F96846FDF776FB87B23A46BB
:102C10006946234800680830FEF70CF9022221A11A
:102C20001F4800680830FEF705F9002243F20E0144
:102C3000204602F0E1FC00BF40F2C140288000BF06
:102C400041F66850005D00F0010038B941F6685067
:102C5000005DC0F3400008B900205AE600BF41F60D
:102C60006850005D00F0010080F00100207600BF98
:102C700004F12400FEF7A6FB0020A08100BF0A4952
:102C800008800A4908800A49088000BF30E043E014
:102C9000C023002041542B4349504D55583D00005E
:102CA0005C0000200D0A000060000020620000208F
:102CB0006400002041542B43495044494E464F3D47
:102CC0003100000041542B43495053455256455260
:102CD0003D312C0041542B434950534552564552E7
:102CE0003D30000041542B43495053544F3D0000A8
:102CF00041F65050005D00F0010040B941F65050DF
:102D0000005D20F00200801C41F6505108551C2146
:102D1000FB48FDF7D4FA32E6A08943F2030188426A
:102D20007ED1A089E081002616E040F2E1207043C8
:102D300004F1780101EB400090F8C00500F00100BB
:102D400040B940F2E120704301EB4000EC49496991
:102D5000086003E0701CC6B2052EE6DB00BFE84841
:102D60004069006810B901202076BAE0E448406963
:102D7000006890F8C00520F00200801CE049496915
:102D8000096881F8C00531466846FFF7C9FA00BFF7
:102D9000002141F66850015100BF0C22D9A1DD4845
:102DA00000680830FEF746F86846FDF7A5FA87B2D6
:102DB0003A466946D74800680830FEF73BF80222D9
:102DC000D5A1D44800680830FEF734F8CC488069B3
:102DD000000C38B90322D1A1CE4800680830FEF7B4
:102DE00029F81AE0C64880690121B1EB104F07D1DC
:102DF0000322CBA1C74800680830FEF71BF80CE09F
:102E0000BF4880690221B1EB104F06D10322C5A152
:102E1000C04800680830FEF70DF80322C2A100E0A8
:102E200084E0BC4800680830FEF704F8B44908683C
:102E3000FDF762FA87B2B2483A460168B5480068C1
:102E40000830FDF7F7FF0222B8A1B2480068083049
:102E5000FDF7F0FFAA48806981B26846FFF760FA83
:102E60006846FDF749FA87B23A466946A9480068BC
:102E70000830FDF7DFFF0222AFF2D811A548006845
:102E80000830FDF7D7FF002243F20301204602F08D
:102E9000B3FB00BF40F2EA40288000BF41F6685013
:102EA000005D00F0010038B941F66850005DC0F3E4
:102EB000400008B900202CE500BF41F66850005DD5
:102EC00000F0010080F001002076207E40B100BFBC
:102ED00000208B494969096881F8C00500BF00E0FE
:102EE00000BFE089A08100BF04F12400FEF76AFA68
:102EF0000020A08100BF8E4908808E4908808E493D
:102F0000088000BF41F65050005D00F0010040B95C
:102F100041F65050005D20F00200801C41F65051F7
:102F200008551C217648FDF7CAF9BBE3A08943F296
:102F30000B01884269D1724881696846FFF7F0F950
:102F400000BF002141F66850015100BF0C227BA157
:102F5000704800680830FDF76DFF6846FDF7CCF952
:102F600087B23A4669466B4800680830FDF762FF51
:102F70000222AFF2D021674800680830FDF75AFFFF
:102F8000002243F20E01204602F036FB00BF40F261
:102F9000FF40288000BF41F66850005D00F001004E
:102FA00038B941F66850005DC0F3400008B9002010
:102FB000AFE400BF41F66850005D00F0010080F012
:102FC0000100207600BF04F12400FEF7FBF9002089
:102FD000A08100BF5649088056490880564908809C
:102FE00000BF41F65050005D00F0010040B941F6CD
:102FF0005050005D20F00200801C41F650510855F1
:103000001C213F48FDF75BF94CE3A08943F2050121
:10301000884271D1A089E0813948006918B1002047
:1030200037490969086003204849087000BF3448DF
:103030008069B0F5006F02D94FF4006001E03048BC
:1030400080694349086000BF002141F66850015182
:1030500000BF0B223FA12F4800680830FDF7EAFEB1
:103060002748C06801786846FFF75AF96846FDF7B7
:1030700043F987B23A466946264800680830FDF7AA
:10308000D9FE01E066E1D3E2012235A121480068C2
:103090000830FDF7CFFE2E4801686846FFF740F97B
:1030A0006846FDF729F987B23A466946194800682B
:1030B0000830FDF7BFFE0222AFF218411548006844
:1030C0000830FDF7B7FE002243F20501204602F06A
:1030D00093FA00BF40F21A50288000BF41F66850B2
:1030E000005DC0F38000E8BB41F66850005DC0F3AE
:1030F0004000B8BB00200CE4F7E0D4E29DE14FE0D3
:10310000C023002041542B43495053544152543D55
:10311000000000005C0000202C22000054435000FE
:103120005544500053534C00222C2200222C000006
:1031300060000020620000206400002041542B4306
:103140004950434C4F53453D000000006C000020A7
:103150007000002041542B43495053454E443D00DC
:103160002C00000000E0DBE100BF41F66850005D8C
:10317000C0F38000A0B300BF002141F668500151A8
:1031800000BFFE48008882B2FD480168FD48006823
:103190000830FDF74FFE00BF40F22150288000BFED
:1031A00041F668502044407800F0010070B941F6C3
:1031B000685020444078C0F3400038B941F6685068
:1031C000005DC0F3400008B900200CE400BF41F6E8
:1031D00068502044407800F0010010B1002001E068
:1031E00010E00B202076207EA0B9E548006988B168
:1031F000E34800690068E14909680844E049096951
:10320000086007E041F66850005DC0F3400008B177
:1032100001202076207E88B90320DB490870D84839
:103220008069D6490968401AD5498861084600680E
:10323000D24909680844D24908600FE041F6685055
:1032400020444078C0F3400028B1CF480078401EA9
:10325000CD49087002E00020CB490870C848806959
:1032600020B1C948007800287FF4E1AEC648007854
:1032700058B1C348C06890F8C10520F00400001D93
:10328000BF49C96881F8C1050AE0BD48C06890F827
:10329000C10520F008000830B949C96881F8C105A6
:1032A000E089A08100BF04F12400FEF78BF8002024
:1032B000A08100BFB5490880B5490880B54908809C
:1032C00000BF41F65050005D00F0010040B941F6EA
:1032D0005050005D20F00200801C41F6505108550E
:1032E0001C21A748FCF7EBFFDCE1A08943F20401B5
:1032F000884269D1A24881696846FFF711F800BF8A
:10330000002141F66850015100BF0E22A2A19D4844
:1033100000680830FDF78EFD6846FCF7EDFF87B2C8
:103320003A466946974800680830FDF783FD022257
:10333000AFF29061934800680830FDF77BFD0022F2
:1033400043F20401204602F057F900BF40F24B500F
:10335000288000BF41F66850005D00F0010038B9D8
:1033600041F66850005DC0F3400008B9002006E453
:1033700000BF41F66850005D00F0010080F00100E0
:10338000207600BF04F12400FEF71CF80020A08185
:1033900000BF7E4908807E4908807E49088000BFC2
:1033A00041F65050005D00F0010040B941F6505028
:1033B000005D20F00200801C41F6505108551C2190
:1033C0006F48FCF77CFF6DE1A08943F2020188425F
:1033D0006DD100BF002141F66850015100BF0E229F
:1033E00071A1684800680830FDF724FD6449086849
:1033F000FCF782FF87B262483A460168614800687C
:103400000830FDF717FD01226BA15E480068083007
:10341000FDF710FD0222AFF274715A4800680830BF
:10342000FDF708FD002243F20201204602F0E4F815
:1034300000BF40F25950288000BF41F66850005D3F
:1034400000F0010038B941F66850005DC0F340005B
:1034500008B900202FE500BF41F66850005D00F07C
:10346000010080F00100207600BF04F12400FDF788
:10347000A9FF0020A08100BF44490880444908807A
:103480004449088000BF41F65050005D00F0010043
:1034900040B941F65050005D20F00200801C41F61A
:1034A000505108551C213648FCF709FFFAE0A08965
:1034B00043F2120188425FD100BF002141F66850FB
:1034C000015100BF09223DA12E4800680830FDF7D8
:1034D000B1FC2B490868FCF70FFF87B228483A4631
:1034E0000168284800680830FDF7A4FC012232A1D9
:1034F000244800680830FDF79DFC0222AFF65C010D
:10350000204800680830FDF795FC002243F21201C4
:10351000204602F071F800BF40F26750288000BFDB
:1035200041F66850005D00F0010038B941F668507E
:10353000005DC0F3400008B90020BCE400BF41F6C4
:103540006850005D00F0010080F00100207600BFAF
:1035500004F12400FDF736FF0020A08100BF0B49D5
:1035600008800B4908800B49088000BF41F6505085
:10357000005D00F0010027E035E000007000002051
:10358000C02300205C0000206C00002060000020B0
:10359000620000206400002041542B4349505353E3
:1035A0004C53495A453D000041542B434950444F28
:1035B0004D41494E3D2200002200000041542B5055
:1035C000494E473D2200000040B941F65050005D91
:1035D00020F00200801C41F6505108551C2134484F
:1035E000FCF76DFE5EE0A08943F21301884259D1D9
:1035F00000BF002141F66850015100BF0B222DA1F0
:103600002F4800680830FDF715FC0222AFF66C1158
:103610002B4800680830FDF70DFC002243F213012F
:10362000204601F0E9FF00BF40F27350288000BF40
:1036300041F66850005D00F0010038B941F668506D
:10364000005DC0F3400008B9002034E400BF41F63B
:103650006850005D00F0010080F00100207600BF9E
:1036600004F12400FDF7AEFE0020A08100BF154943
:103670000880154908801549088000BF41F6505060
:10368000005D00F0010040B941F65050005D20F0AF
:103690000200801C41F6505108551C210448FCF7DB
:1036A0000EFE00BF00BF00BF0020288003207FE483
:1036B000C023002041542B434955504441544500F8
:1036C0005C000020600000206200002064000020F8
:1036D0002DE9FE4305460C463A200090062728882F
:1036E00040F2E132811A90427ED022DC40F2653213
:1036F000A0EB0201904278D012DC40F24132A0EB04
:103700000201904272D006DC68B3A0F23530002886
:1037100041F065825CE00C2969D01829F8D180E17C
:1037200019297DD035297CD051297BD06D29EFD145
:10373000FEE3492900F0A18708DC0D2973D0202978
:1037400072D0302971D03C29E2D1F2E3552900F042
:10375000F487622901F05080802901F0728190295C
:10376000D6D101F001BAA08942F20101884278D194
:10377000F848816901A8FEF7D3FD00BF002141F69A
:103780006850015100BF0A22F3A1F64800680830D2
:10379000FDF750FB01A8FCF7AFFD1FFA80F8424689
:1037A00001A9F04800680830FDF744FB0222EEA1B1
:1037B000EC4800680830FDF73DFB002242F20101B1
:1037C000204601F019FF00BF40F23530288000BFCD
:1037D00041F66850005D00F0010068B941F668509C
:1037E000005DC0F3400003E0E6E378E15DE0BAE0AD
:1037F00010B90020BDE8FE8300BF41F66850005DAF
:1038000000F0010080F00100207600BF04F12400E8
:10381000FDF7D8FD0020A08100BFD449088005E055
:1038200033E2DBE288E3C8E3ECE3ECE3D049088071
:10383000D049088000BF41F65050005D00F0010003
:1038400040B941F65050005D20F00200801C41F666
:10385000505108551C21BF48FCF731FD01F0BEB99D
:10386000FFE7A08942F20111884258D100BF002130
:1038700041F66850015100BF1122BFA1B94800684C
:103880000830FDF7D7FA0222B7A1B6480068083021
:10389000FDF7D0FA002242F20B01204601F0ACFE07
:1038A00000BF40F24130288000BF41F66850005D03
:1038B00000F0010038B941F66850005DC0F34000E7
:1038C00008B9002096E700BF41F66850005D00F09F
:1038D000010080F00100207600BF04F12400FDF714
:1038E00071FD0020A08100BFA0490880A049088088
:1038F000A049088000BF41F65050005D00F0010073
:1039000040B941F65050005D20F00200801C41F6A5
:10391000505108551C218F48FCF7D1FC9EE7A08927
:1039200042F20211884258D100BF002141F668508E
:10393000015100BF102295A18A4800680830FDF7A8
:1039400079FA022288A1874800680830FDF772FAE8
:10395000002242F20C01204601F04EFE00BF40F270
:103960004D30288000BF41F66850005D00F0010036
:1039700038B941F66850005DC0F3400008B9002036
:1039800038E700BF41F66850005D00F0010080F0AC
:103990000100207600BF04F12400FDF713FD002094
:1039A000A08100BF71490880714908807149088071
:1039B00000BF41F65050005D00F0010040B941F6F3
:1039C0005050005D20F00200801C41F65051085517
:1039D0001C216048FCF773FC40E7A08942F2031108
:1039E000884258D100BF002141F66850015100BF04
:1039F0000E226BA15B4800680830FDF71BFA02221B
:103A000059A1584800680830FDF714FA002242F224
:103A10000D01204601F0F0FD00BF40F25930288032
:103A200000BF41F66850005D00F0010038B941F672
:103A30006850005DC0F3400008B90020DAE600BF1E
:103A400041F66850005D00F0010080F00100207632
:103A500000BF04F12400FDF7B5FC0020A08100BFE9
:103A600042490880424908804249088000BF41F627
:103A70005050005D00F0010040B941F65050005D2B
:103A800020F00200801C41F6505108551C2131489D
:103A9000FCF715FCE2E6A08942F20411884258D1F5
:103AA00000BF002141F66850015100BF0D2240A126
:103AB0002C4800680830FDF7BDF902222AA12948E8
:103AC00000680830FDF7B6F9002242F20E012046E8
:103AD00001F092FD00BF40F26530288000BF41F642
:103AE0006850005D00F0010038B941F66850005D93
:103AF000C0F3400008B900207CE600BF41F66850E2
:103B0000005D00F0010080F00100207600BF04F1AC
:103B10002400FDF757FC0020A08100BF1349088056
:103B2000134908801349088000BF41F65050005DDA
:103B300000F0010040B941F65050005D20F0020055
:103B4000801C41F6505108551C210248FCF7B7FB78
:103B500084E635E0C023002041542B43574D4F44A9
:103B6000453D00005C0000200D0A000060000020C0
:103B7000620000206400002041542B4349505354FC
:103B8000414D41435F4355523F00000041542B4398
:103B9000495041504D41435F4355523F00000000A2
:103BA00041542B4349505354415F4355523F000009
:103BB00041542B43495041505F4355523F00000050
:103BC000A08942F2051188427ED1FC48466800BFB8
:103BD000002141F66850015100BF0D22F8A1FC48B8
:103BE00000680830FDF726F9F4490868FCF784FB03
:103BF0001FFA80F8F14842460168F548006808302D
:103C0000FDF718F90222F3A1F14800680830FDF72A
:103C100011F906273A20009018E016F8011B01A8B8
:103C2000FEF750FB01A8FCF767FB1FFA80F842463D
:103C300001A9E74800680830FDF7FCF837B1012218
:103C40006946E34800680830FDF7F4F8381EA7F12C
:103C50000101CFB2E1D10122DFA1DD4800680830C7
:103C6000FDF7E8F80222AFF20011D94800680830E9
:103C7000FDF7E0F8002242F20B01204601F0BCFC07
:103C800000BF40F27E30288000BF41F66850005DE2
:103C900000F0010038B941F66850005DC0F3400003
:103CA00008B90020A6E500BF41F66850005D00F0AD
:103CB000010080F001002076207E38B956F8061CFD
:103CC000616336F8020C00E023E0208700BF04F1B6
:103CD0002400FDF777FB0020A08100BFBF490880CA
:103CE000BF490880BF49088000BF41F65050005DC1
:103CF00000F0010040B941F65050005D20F0020094
:103D0000801C41F6505108551C21AC48FCF7D7FAED
:103D1000A4E5A08942F2061188427DD1A7484668F1
:103D200000BF002141F66850015100BF0C22AEA136
:103D3000A74800680830FDF77DF8A0490868FCF73F
:103D4000DBFA1FFA80F89D4842460168A0480068E7
:103D50000830FDF76FF802229EA19D4800680830E8
:103D6000FDF768F806273A20009018E016F8011BC6
:103D700001A8FEF7A7FA01A8FCF7BEFA1FFA80F81F
:103D8000424601A9924800680830FDF753F837B160
:103D9000012269468E4800680830FDF74BF8381E4E
:103DA000A7F10101CFB2E1D101228BA188480068BF
:103DB0000830FDF73FF80222AFF254218448006832
:103DC0000830FDF737F8002242F20C01204601F0DE
:103DD00013FC00BF40F29A30288000BF41F66850C3
:103DE000005D00F0010038B941F66850005DC0F395
:103DF000400008B90020FDE400BF41F66850005DB6
:103E000000F0010080F001002076207E48B956F8CD
:103E1000061CC4F8461000E026E036F8020CA4F8B0
:103E20004A0000BF04F12400FDF7CCFA0020A08175
:103E300000BF6A4908806A4908806A49088000BF53
:103E400041F65050005D00F0010040B941F650507D
:103E5000005D20F00200801C41F6505108551C21E5
:103E60005648FCF72CFAF9E4A08942F20B1188427B
:103E700070D15248466800BF002141F66850015198
:103E800000BF0A225CA1524800680830FCF7D2FF4C
:103E90004A490868FCF730FA1FFA80F8474842465A
:103EA00001684B4800680830FCF7C4FF022249A1B2
:103EB000474800680830FCF7BDFF04272E2000901B
:103EC00018E016F8011B01A8FEF72AFA01A8FCF772
:103ED00013FA1FFA80F8424601A93D4800680830ED
:103EE000FCF7A8FF37B1012269463948006808305D
:103EF000FCF7A0FF381EA7F10101CFB2E1D10122EA
:103F000035A1334800680830FCF794FF0222AFF275
:103F1000A8312F4800680830FCF78CFF002242F2DD
:103F20000D01204601F068FB00BF40F2B63001E011
:103F3000D1E02BE3288000BF41F66850005D00F01F
:103F4000010040B941F66850005DC0F3400010B96F
:103F500000204FE458E000BF41F66850005D00F0DB
:103F6000010080F001002076207E10B956F8040C84
:103F7000A06200BF04F12400FDF724FA0020A08114
:103F800000BF16490880164908801649088000BFFE
:103F900041F65050005D00F0010040B941F650502C
:103FA000005D20F00200801C41F6505108551C2194
:103FB0000248FCF784F951E4F2E02BE1C023002031
:103FC00041542B4349505354414D41435F0000003D
:103FD0005C0000203D220000220000006000002064
:103FE000620000206400002041542B43495041509E
:103FF0004D41435F0000000041542B43495053544E
:10400000415F000095E162E2A08942F20C11884212
:104010006FD1FE48466800BF002141F6685001514B
:1040200000BF0922FAA1FD4800680830FCF702FF32
:10403000F6490868FCF760F91FFA80F8F348424631
:104040000168F64800680830FCF7F4FE0222AFF27F
:104050007C01F24800680830FCF7ECFE04272E20B3
:10406000009018E016F8011B01A8FEF759F901A805
:10407000FCF742F91FFA80F8424601A9E7480068B8
:104080000830FCF7D7FE37B101226946E3480068E3
:104090000830FCF7CFFE381EA7F10101CFB2E1D105
:1040A0000122AFF2CC01DD4800680830FCF7C2FE07
:1040B0000222AFF24C51D94800680830FCF7BAFE32
:1040C000002242F20D01204601F096FA00BF40F2B4
:1040D000D230288000BF41F66850005D00F001003A
:1040E00040B941F66850005DC0F3400010B90020AF
:1040F00046E430E000BF41F66850005D00F001008A
:1041000080F001002076207E10B956F8040CA062E1
:1041100000BF04F12400FDF755F90020A08100BF85
:10412000BF490880BF490880BF49088000BF41F6E9
:104130005050005D00F0010040B941F65050005D64
:1041400020F00200801C41F6505108551C21AF4858
:10415000FCF7B5F840E4A08942F2071188427DD10E
:1041600000BF002141F66850015100BF1122AFA1EC
:10417000AA4800680830FCF75DFE0222AFF2186121
:10418000A64800680830FCF755FE002242F2030101
:10419000204601F031FA00BF40F2E130288000BF34
:1041A00041F66850005D00F0010038B941F66850F2
:1041B000005DC0F3400008B900203FE400BF41F6B5
:1041C0006850005D00F0010080F001002076207E44
:1041D00000B137E000BF002141F66850015100BF37
:1041E000082297A18D4800680830FCF723FE0222C0
:1041F000AFF28C61894800680830FCF71BFE002292
:1042000042F20401204601F0F7F900BF40F2EE301F
:10421000288000BF41F66850005D00F0010038B909
:1042200041F66850005DC0F3400008B9002005E485
:1042300000BF41F66850005D00F0010080F0010011
:10424000207600BF00BF04F12400FDF7BBF800207A
:10425000A08100BF72490880724900E017E0088021
:104260007149088000BF41F65050005D00F0010028
:1042700040B941F65050005D20F00200801C41F62C
:10428000505108551C216148FCF719F860E4A089D9
:1042900042F2020188427DD100BF002141F6685000
:1042A000015100BF092269A15C4800680830FCF791
:1042B000C1FD56490868FCF71FF81FFA80F85348FB
:1042C00042460168554800680830FCF7B3FD0222F9
:1042D000AFF20031514800680830FCF7ABFD4B49A4
:1042E0004868FDF747FA03225BA14C480068083094
:1042F000FCF7A0FD45498868FDF73CFA0122AFF2C2
:104300002831464800680830FCF794FD0222AFF2DD
:10431000A871424800680830FCF78CFD002242F288
:104320000201204601F068F900BF40F201402880F8
:1043300000BF41F66850005D00F0010038B941F659
:104340006850005DC0F3400008B90020AAE400BF37
:1043500041F66850005D00F0010080F00100207619
:10436000207E88BB00BF04F12400FDF72BF800205D
:10437000A08100BF2A4908802A4908802A4908806C
:1043800000BF41F65050005D00F0010050B941F609
:10439000505000E076E0005D20F00200801C41F605
:1043A000505108551C211948FBF789FF00BF00BF79
:1043B00004F12400FDF714F838B140F2074127A0BA
:1043C00001F090FE06206DE407E0A08908B920689E
:1043D000606142F20310A08147E200BF04F12400B3
:1043E000FCF7F0FF0020A08100BF0D4908800D49B7
:1043F00008800D49088000BF41F65050005D00F074
:10440000010098BB41F65050005D30E0C023002011
:1044100041542B43495041505F0000005C00002094
:1044200060000020620000206400002041542B4303
:10443000574C41504F50543D312C31323700000021
:1044400041542B43574C41500000000041542B4332
:10445000574A41505F000000222C220054696D65CC
:104460006F757421212025640000000005E020F014
:104470000200801C41F6505108551C21FC48FBF7F6
:104480001EFFABE3A08942F20501884259D100BF6B
:10449000002141F66850015100BF0822F5A1F848FB
:1044A00000680830FCF7C6FC0222AFF64411F4485D
:1044B00000680830FCF7BEFC002242F205012046ED
:1044C00001F09AF800BF40F21140288000BF41F689
:1044D0006850005D00F0010038B941F66850005D99
:1044E000C0F3400008B9002085E400BF41F66850E1
:1044F000005D00F0010080F00100207600BF04F1B3
:104500002400FCF75FFF0020A08100BFDD49088088
:10451000DD490880DD49088000BF41F65050005D4C
:1045200000F0010040B941F65050005D20F002005B
:10453000801C41F6505108551C21CD48FBF7BFFEA9
:104540004CE3A08942F20811884259D100BF0021F2
:1045500041F66850015100BF0D22CDA1C848006846
:104560000830FCF767FC0222AFF60421C44800685B
:104570000830FCF75FFC002242F20201204601F005
:104580003BF800BF40F21D40288000BF41F6685054
:10459000005D00F0010038B941F66850005DC0F3DD
:1045A000400008B9002026E400BF41F66850005DD5
:1045B00000F0010080F00100207600BF04F124002B
:1045C000FCF700FF0020A08100BFAE490880AE4983
:1045D0000880AE49088000BF41F65050005D00F0F1
:1045E000010040B941F65050005D20F00200801CEF
:1045F00041F6505108551C219D48FBF760FEEDE245
:10460000A08942F20A01884272D100BF002141F61E
:104610006850015100BF0E22A1A1994800680830DE
:10462000FCF708FC9249896909B1A1A100E0A1A1A8
:104630000846FBF761FE1FFA80F88D48806908B1D3
:104640009BA000E09BA0014642468D4800680830D0
:10465000FCF7F0FB0222AFF6F02189480068083031
:10466000FCF7E8FB002242F20A01204600F0C4FFFA
:1046700000BF40F22A40288000BF41F66850005D2C
:1046800000F0010038B941F66850005DC0F3400009
:1046900008B900205DE400BF41F66850005D00F0FD
:1046A000010080F00100207600BF04F12400FCF737
:1046B00089FE0020A08100BF7249088072490880ED
:1046C0007249088000BF41F65050005D00F00100C3
:1046D00040B941F65050005D20F00200801C41F6C8
:1046E000505108551C216248FBF7E9FD76E2FFE7CF
:1046F000A08942F20701884259D100BF002141F64A
:104700006850015100BF08226BA15D480068083065
:10471000FCF790FB0222AFF6B03159480068083030
:10472000FCF788FB002242F20701204600F064FFFC
:1047300000BF40F23640288000BF41F66850005D5F
:1047400000F0010038B941F66850005DC0F3400048
:1047500008B90020CCE400BF41F66850005D00F0CD
:10476000010080F00100207600BF04F12400FCF776
:1047700029FE0020A08100BF4249088042490880EC
:104780004249088000BF41F65050005D00F0010032
:1047900040B941F65050005D20F00200801C41F607
:1047A000505108551C213248FBF789FD16E2A089BB
:1047B00042F20911884259D100BF002141F66850E8
:1047C000015100BF0D223FA12D4800680830FCF7C1
:1047D00031FB0222AFF67041294800680830FCF72F
:1047E00029FB002242F20601204600F005FF00BF2F
:1047F00040F24340288000BF41F66850005D00F061
:10480000010038B941F66850005DC0F3400008B9B6
:1048100000206DE400BF41F66850005D00F001002B
:1048200080F00100207600BF04F12400FCF7CAFDEF
:104830000020A08100BF1349088013490880134954
:10484000088000BF41F65050005D00F0010040B903
:1048500041F65050005D20F00200801C41F650519E
:1048600008551C210248FBF72AFDB7E132E00000A1
:10487000C023002041542B435751415000000000F9
:104880005C00002060000020620000206400002026
:1048900041542B43574A41505F4355523F0000005B
:1048A00041542B43574155544F434F4E4E3D00000A
:1048B000310000003000000041542B43574C494662
:1048C0000000000041542B43575341505F43555261
:1048D0003F000000A08942F20A1188427ED100BF49
:1048E000002141F66850015100BF0922BEA1C14814
:1048F00000680830FCF79EFABF490868FBF7FCFC2B
:104900001FFA80F8BC4842460168BA48006808307F
:10491000FCF790FA0222AFF64411B648006808305E
:10492000FCF788FAB4494868FCF724FF0322AFF289
:10493000D841B04800680830FCF77CFAAE494968B5
:1049400001F11400FCF716FF0222ACA1A94800688F
:104950000830FCF76FFAA848406890F8291001A8C1
:10496000FDF7DEFC01A8FBF7C7FC1FFA80F8424602
:1049700001A9A04800680830FCF75CFA0122A0A158
:104980009C4800680830FCF755FA9B48406890F84E
:10499000281001A8FDF7C4FC01A8FBF7ADFC1FFA25
:1049A00080F8424601A9934800680830FCF742FAB3
:1049B000012293A18F4800680830FCF73BFA8E482B
:1049C000406890F82A1001A8FDF7AAFC01A8FBF79F
:1049D00093FC1FFA80F8424601A900E083E0854875
:1049E00000680830FCF726FA012285A1814800689A
:1049F0000830FCF71FFA8048406890F82B1001A897
:104A0000FDF78EFC01A8FBF777FC1FFA80F8424601
:104A100001A9784800680830FCF70CFA0222AFF6CA
:104A2000B861744800680830FCF704FA002242F2CA
:104A30000601204600F0E0FD00BF40F26140288002
:104A400000BF41F66850005D00F0010038B941F642
:104A50006850005DC0F3400008B9002076E400BF54
:104A600041F66850005D00F0010080F00100207602
:104A7000207E10B300BF04F12400FCF7A3FC00204B
:104A8000A08100BF5F4908805F4908805F490880B6
:104A900000BF41F65050005D00F0010040B941F602
:104AA0005050005D20F00200801C41F65051085526
:104AB0001C215148FBF703FC90E000BF04F12400E7
:104AC000FCF78EFC38B14FF48D61AFF2706001F0ED
:104AD00009FB06203AE4A08908B92068606142F227
:104AE0000910A0817AE0A08942F21301884275D1B1
:104AF00000BF002141F66850015100BF072244A1C8
:104B00003C4800680830FCF795F93B49896911B1C8
:104B1000AFF2642101E0AFF264210846FBF7ECFB41
:104B20001FFA80F83448806910B1AFF27C2001E0B0
:104B3000AFF28020014642462E4800680830FCF75C
:104B400079F90222AFF6E0712A4800680830FCF7D4
:104B500071F9002242F21301204600F04DFD00BF22
:104B600040F27140288000BF41F66850005D00F0BF
:104B7000010038B941F66850005DC0F3400008B943
:104B8000002020E400BF41F66850005D00F0010005
:104B900080F00100207600BF04F12400FCF712FC35
:104BA0000020A08100BF17490880174908801749D5
:104BB000088000BF41F65050005D00F0010040B990
:104BC00041F65050005D20F00200801C41F650512B
:104BD00008551C210848FBF772FB00BF00BF00BF4F
:104BE0000020288003207FE441542B435753415039
:104BF0005F0000005C000020C0230020222C000089
:104C00002C000000600000206200002064000020F2
:104C100041542B5750533D00F8B507460C461546F6
:104C200000E0641C207810B120782228F9D1207887
:104C300000B9F8BD641C002605E014F8012B3046CD
:104C4000711CCEB22A54207840B120782228F4D1A9
:104C500060782C28F1D1A0782228EED100223046AD
:104C6000711CCEB22A54E41C002305F11502214622
:104C7000384600F053F913346946204600F067F9CE
:104C8000E8769DF80000401C04446946204600F088
:104C90005EF900B2A88300BFCBE7F8B506460C4624
:104CA00015462078282800D1641C6946204600F06B
:104CB0004EF928709DF80000401C044420782228FA
:104CC00000D1641C0020009011E02078222803D13C
:104CD00060782C2800D10DE02178681C9DF8002018
:104CE00081549DF80000401CC0B20090641C2078E4
:104CF0000028EAD100BFA41C6946204600F027F92D
:104D000000B2E8829DF80000401C0444207822286C
:104D100000D1641C002305F118022146304600F042
:104D2000FDF813346946204600F011F9A8779DF884
:104D30000000401C04446946204600F008F940B2D7
:104D4000E8779DF80000401C04446946204600F0C6
:104D5000FEF885F820009DF80000401C0444F8BDD2
:104D6000F8B506460C4615466B462A46214630469F
:104D700000F08FF89DF80000401C04446B462A1D8B
:104D80002146304600F0CAF8F8BDF8B507460C4693
:104D900015462C212846FBF792FA002605E014F868
:104DA000012B3046711CCEB22A54207840B12078B5
:104DB0002228F4D160782C28F1D1A0782228EED1D5
:104DC00000223046711CCEB22A54E41C002607E0B3
:104DD00014F8012B3046711CCEB205F114010A54AF
:104DE000207828B120782228F2D160782C28EFD1C1
:104DF00000223046711CCEB205F114010A54A41CE5
:104E00006946204600F0A3F8283568709DF8000038
:104E1000401C04446946204600F099F828709DF82B
:104E20000000401C04446946204600F090F8A87039
:104E30009DF80000401C04446946204600F087F8B5
:104E4000E870283DF8BD2DE9F04104460D460026E6
:104E5000002707E036012078FDF718FA0644641CA5
:104E6000781CC7B22078302802DB20783928F1DDA1
:104E70002078612802DB20786628EBDD2078412845
:104E800002DB20784628E5DD05B12F703046BDE80D
:104E9000F0812DE9F84380460D4616461C4604274E
:104EA0000020009004B1207013E06946284600F00D
:104EB0004EF806F8010B9DF80000401C054444B173
:104EC00020789DF800100844207017B12078401C0D
:104ED0002070381EA7F10101CFB2E6D1BDE8F883FA
:104EE000F8B506460D461446002020606060A060BC
:104EF0006946284600F02BF840F2E121484306F1CC
:104F0000780101EB400060609DF80000401C054402
:104F10006946284600F01BF82081F8BD2DE9F041D4
:104F200080460C4615461E46062706E00021204610
:104F3000FFF789FF05F8010BE41C381EA7F10101FA
:104F4000CFB2F3D10EB111203070BDE8F08170B551
:104F5000024600250024002310782D2803D10125C6
:104F6000521C601CC4B207E0107830380A2603FBDC
:104F70000603521C601CC4B21078302802DB107883
:104F80003928F1DD01B10C700DB1584270BD1846E1
:104F9000FCE700002DE9F0410446884608F10105D0
:104FA0000026002728780D2804D168780A2801D126
:104FB000BDE8F081FEA12846FBF7A5F900B900265F
:104FC000FBA12846FBF79FF908B9012000E000206B
:104FD000064696B9F8A12846FBF795F908B90120CD
:104FE00000E00020074647B9F5A12846FBF78BF9FA
:104FF00008B9012000E00020074676B96FB9F3A197
:105000002846FBF780F940B941F66850005D20F072
:105010000800083041F668510855A08942F20B019A
:10502000884219D128782B2816D10A22E9A12846CE
:10503000FBF777F980B9002304F1340205F1100180
:105040002046FFF76BFFE648C06828B1E448C06817
:10505000616B0160218F8180A08942F20C0188423E
:105060001BD128782B2818D10922DEA12846FBF76E
:1050700058F990B9002304F1460205F10F012046CA
:10508000FFF74CFFD648C06838B1D548C068D4F89F
:1050900046100160B4F84A108180A08942F20D01E7
:1050A000884232D128782B282FD10822D0A1284637
:1050B000FBF737F948BB287B69280FD1002304F19F
:1050C000280205F110012046FFF7E3FEC448C0683E
:1050D000D8B1C348C068A16A016016E0287B672880
:1050E00008D1002304F12C0205F115012046FFF739
:1050F000D0FE0AE0287B6E2807D1002304F130029D
:1051000005F115012046FFF7C4FEA08942F20E0109
:10511000884232D128782B282FD10722B7A12846E0
:10512000FBF7FFF848BBE87A69280FD1002304F1A8
:105130003A0205F10F012046FFF7ABFEA848C06810
:10514000D8B1A748C068A16A016016E0E87A67286C
:1051500008D1002304F13E0205F114012046FFF7B7
:1051600098FE0AE0E87A6E2807D1002304F1420293
:1051700005F114012046FFF78CFEA08942F20701D9
:1051800088421DD1287830281ADB2878392817DC86
:1051900093480069008892498969884210D29048F2
:1051A0002946C2682046FFF7DBFD8D48C0680A30FB
:1051B0008B49C860084600690088401C096908607E
:1051C00028782B2822D1A08942F2040188421DD1DF
:1051D00006228CA12846FBF7A4F8B8B980480069DC
:1051E00000887F498969884210D27D48E91DC268DC
:1051F0002046FFF752FD7A48C06822307849C860DF
:10520000084600690088401C09690860A08942F2CC
:10521000060188420BD106227CA12846FBF781F8C3
:1052200028B904F14C02E91D2046FFF7AEFDA08924
:1052300042F20201884213D176A12846FBF763F8B7
:1052400008B901270CE00A2274A12846FBF769F887
:1052500030B9634805F10A01C2682046FFF7DCFC5B
:10526000A08943F2120188420FD128782B280CD153
:105270006878302809DB6878392806DC0021681C4A
:10528000FFF765FE5649C968086067A12846FBF725
:105290003AF8C8B9A08942F2020188420AD141F61F
:1052A00068502044407820F00400001D41F6685109
:1052B0002144487041F65450005D20F00100401C2C
:1052C00041F6545108553CE05CA12846FBF71BF819
:1052D000C8B9A08942F2020188420AD141F6685059
:1052E0002044407820F00800083041F668512144FD
:1052F000487041F65450005D20F00200801C41F6D9
:10530000545108551DE052A12846FAF7FCFFC0B9D8
:10531000A08942F2020188420AD141F66850204435
:10532000407820F01000103041F668512144487058
:1053300041F65450005D20F00400001D41F6545128
:105340000855082246A1681CFAF7EBFFD8B929785E
:10535000303940F2E12211FB02F204F1780101EB55
:10536000420029783039017090F8C01521F0010110
:10537000491C80F8C01590F8C11521F00101491CA5
:1053800080F8C11581E0072238A1681CFAF7C9FF2F
:1053900060B92978303940F2E12211FB02F204F1C0
:1053A000780101EB420090F8C11563E06DE0000068
:1053B0004F4B0D0A000000004552524F520D0A009B
:1053C0006275737920702E2E2E0D0A00726561644D
:1053D000790D0A002B4349505354414D414300007D
:1053E000C02300202B43495041504D414300000051
:1053F0002B4349505354415F000000002B43495058
:1054000041505F002B43574C415000002B435753F2
:10541000415000004641494C0D0A00002B43574AB9
:1054200041505F43555200005749464920434F4E73
:105430004E45435445440D0A000000005749464973
:1054400020444953434F4E4E45435445440D0A00B2
:105450005749464920474F542049500D0A00000043
:105460002C434F4E4E454354000000002C434C4FFC
:105470005345440021F00201891C80F8C11500BF8A
:10548000002180F8C01500BF00BFA08943F20501CC
:10549000884222D1072235A12846FAF742FF58B99F
:1054A00041F668502044407820F00100401C41F64D
:1054B00068512144487010E009222EA12846FAF7CD
:1054C00030FF50B941F668502044407820F0020087
:1054D000801C41F6685121444870A08943F20201C2
:1054E00088420DD10A2226A12846FAF71AFF38B9B8
:1054F0002648002305F10B01C2682046FFF7C9FCCE
:10550000042223A12846FAF70CFF50B941F6445073
:105510002218691D2046FFF7E3FC012141F64450A3
:10552000015586B141F66850005D20F00100401C35
:1055300041F6685108550846005D20F0020141F629
:10554000685001550FE077B141F66850005D20F0DA
:10555000010141F668500155005D20F00200801CF9
:1055600041F66851085500BF22E5000053454E44FE
:10557000204F4B0053454E44204641494C0000000B
:105580002B434950444F4D41494E0000C023002059
:105590002B4950440000000010B50446A089B0F526
:1055A000805F07DBA089B0F5005F03DA21460F4872
:1055B000FCF7C2FEA089B0F5005F07DBA089B0F55B
:1055C000405F03DA21460A48FEF782F8A089B0F569
:1055D000405F07DBA089B0F5804F03DA214605481C
:1055E000FDF726F900BF0020207110BD60000020EB
:1055F0006200002064000020034699811A61186847
:10560000586100201876704710B5FCF7DDF810BD22
:105610001448006840F4700012490860124800689D
:1056200040F001001049086000200F49083108606F
:105630000D4800680D4908400B4908600C48091DD9
:105640000860081F006820F48020091F08600020FF
:1056500005490C3108604FF000600249803908604C
:105660007047000088ED00E000380240FFFFF6FEC2
:105670001030002470B5034600240BB9002070BD23
:1056800058881D88A84201DB002058801BE05D88F7
:105690009888401E854206D0988828B95D88188869
:1056A000401E854200D113E011F8015B5E88701C3A
:1056B000588098688555601CC4B258881D88A842D7
:1056C00001DB00205880101EA2F10105AAB2DED134
:1056D00000BF2046D3E7000010B501210248FCF7C7
:1056E00025F801F089F810BDB80100200F480068C6
:1056F00020F080700D4A10601046006840F0807005
:1057000010600B48006820F00100094A1060104644
:10571000006840F0010010600020506010464168B1
:1057200000BF00BF02484068401A7047FCED00E02F
:10573000001000E01CB50020012103460246CDE91F
:1057400000104903014800F017F91CBD0008024091
:105750001CB5032000210B460122CDE900102021B9
:10576000034800F009F94FF40010014988611CBD9D
:105770000000024030B502460B460E4CA24207D252
:105780000D490D4C0834141B1825B4FBF5F006E048
:1057900008490839074C141B1825B4FBF5F00428F8
:1057A00001D3091D001F03F03D04044D2D5CAC40E6
:1057B0000C6030BD1064024008600240607A00084E
:1057C0007047704770B502460C4600210023002048
:1057D0000E4DAA4207D20E4B0D4D1035551B182603
:1057E000B5FBF6F106E0094B103B084D551B18269A
:1057F000B5FBF6F1042901D31B1D091F1868054DDF
:105800006D5CE84000F03D0070BD00001064024097
:1058100000600240607A0008704770B504463D2180
:105820002046FFF7CFFF85B23D212046FFF7A2FFBC
:1058300005F0200030B1206800F0100010B12046C3
:1058400000F029F805F0100030B1206800F00800E1
:1058500010B12046FFF7E0FF05F0080030B12068E6
:1058600000F0040010B1204600F016F805F0040026
:1058700030B1206800F0020010B12046FFF7A0FF11
:1058800005F0010030B1606900F0800010B12046E1
:10589000FFF797FF70BD7047704701464FF4003027
:1058A000081AC0F38F20704700B502461046FFF774
:1058B000F4FF012101FA00F0024909680843014997
:1058C000086000BD303802402DE9F04304460E4622
:1058D0001546DDE907892046FFF7DFFFC7B2002242
:1058E00043E001209040304000B93CE0214830F8CE
:1058F00017000121914008431E4921F81700E06874
:105900004FEA420C032101FA0CF18843510008FAD6
:1059100001F10843E06020684FEA420C032101FADC
:105920000CF18843510005FA01F108432060012D74
:1059300001D0022D16D161680120904080B221EA89
:10594000000003FA02F189B208436060A0684FEAE0
:10595000420C032101FA0CF18843510009FA01F1CC
:105960000843A06000BF501CC2B2102AB9DBBDE8DA
:10597000F0830000E40000202DE9FC4305460C46BE
:1059800016461F46DDE909890CB9BDE8FC832846A7
:10599000FFF78AFF3B46324621462846CDE900897B
:1059A000FFF792FF00BFF0E72DE9FC4705460E46E2
:1059B00017469846DDE90A9A0EB9BDE8FC872846E5
:1059C000FFF772FF00241AE00120A040304000B928
:1059D00014E0E10805F1200050F821006107CA0E2B
:1059E0000F21914088436107C90E0AFA01F108436B
:1059F000E20805F1200141F8220000BF641C102CD0
:105A0000E2D33B46022231462846CDE90089FFF722
:105A10005BFF00BFD1E7000000B593B000BF264890
:105A2000006840F08050244908600846006800F093
:105A30008050019000BF00BF00BF2048006840F4C4
:105A400040401E4908600846006800F4404001904C
:105A500000BF00BF012002900390002005904FF48A
:105A6000800109910220089008210A914FF4C87121
:105A70000B9104210C9107210D9102A8FCF7B0F9BC
:105A800010B1012013B000BD02200F900020109033
:105A900007200E900E9840F008000E904FF48050B2
:105AA00011900020129006210EA8FBF79FFF08B16D
:105AB0000120E7E70020E5E74038024000700040A1
:105AC0001CB504464CB90720032101230022CDE96F
:105AD000001049020A48FFF767FF012C09D107208F
