:020000040800F2
:10000000704F002069020008692200080D220008D4
:1000100065220008A50500084D65000800000000E5
:10002000000000000000000000000000AD0100081A
:10003000A906000800000000010200088D59000810
:10004000830200088302000883020008830200087C
:10005000830200088302000883020008830200086C
:10006000830200088302000883020008A905000833
:10007000B9050008C9050008D9050008E905000808
:10008000F9050008090600088302000800000000C6
:1000900000000000000000000000000083020008D3
:1000A000830200088302000883020008830200081C
:1000B000830200088302000883020008830200080C
:1000C00083020008830200088302000883020008FC
:1000D00083020008D1640008F564000800000000F5
:1000E0008302000883020008830200080000000069
:1000F00000000000000000000000000019060008D9
:100100000000000083020008830200088302000848
:1001100000000000000000000000000000000000DF
:100120002906000839060008490600085906000893
:100130006906000800000000000000000000000048
:100140000000000000000000000000008302000822
:10015000790600088906000899060008216500084C
:100160008302000883020008000000000000000075
:10017000000000000000000000000000000000007F
:1001800000000000830200080000000000000000E2
:100190008302000883020008DFF80CD000F0FCF8AE
:1001A00000480047716A0008704F00202B4B196807
:1001B0000868B0E8F04F80F30988BFF36F8F4FF005
:1001C000000080F3118870470000000006480068B6
:1001D000006880F3088862B661B6BFF34F8FBFF343
:1001E0006F8F00DF00BF00BF08ED00E0DFF80C00FC
:1001F000016841F470010160704700BF88ED00E0C4
:10020000EFF30980BFF36F8F144B1A681EF0100FC5
:1002100008BF20ED108A20E9F04F106008B44FF0BD
:10022000500080F31188BFF34F8FBFF36F8F07F03B
:100230008FF94FF0000080F3118808BC1968086836
:10024000B0E8F04F1EF0100F08BFB0EC108A80F33A
:100250000988BFF36F8F704700BF00BF9000002078
:10026000EFF30580704700000648804706480047C6
:10027000FEE7FEE7FEE7FEE7FEE7FEE7FEE7FEE756
:10028000FEE7FEE7955900089901000840EA0103DE
:100290009B0703D009E008C9121F08C0042AFAD23C
:1002A00003E011F8013B00F8013B521EF9D2704700
:1002B000D2B201E000F8012B491EFBD270470022A8
:1002C000F6E710B513460A4604461946FFF7F0FF55
:1002D000204610BD10B5044604E00B7800F8013B41
:1002E00003B1491C521EF8D2204610BD421C10F822
:1002F000011B0029FBD1801A704710B5002200E0D5
:10030000521C835C8C5CA34201D1002BF8D1D8B283
:10031000E1B2401A10BD30B505460020034600E0AA
:100320005B1C934205D2EC5CC85C201A01D1002C06
:10033000F6D130BD2DE9F05F0546002092469B4680
:1003400088460646814640241BE0284641464746EB
:10035000224600F042F853465A46C01A914110D343
:1003600011461846224600F029F82D1A67EB0108BD
:100370004F4622460120002100F020F817EB00092B
:100380004E41201EA4F10104DFDC484631462A46D6
:100390004346BDE8F09F0000064C074D06E0E068CC
:1003A00040F0010394E8070098471034AC42F6D3BC
:1003B000FFF7F6FE5C7F00087C7F0008202A04DB44
:1003C000203A00FA02F1002070479140C2F1200368
:1003D00020FA03F3194390407047202A04DB203AA7
:1003E00021FA02F00021704721FA02F3D040C2F155
:1003F0002002914008431946704730B50146002459
:1004000009B9002030BD4A688B689A4201D10C6856
:1004100006E0934201D99C1A02E0D51A0868441BF1
:10042000601EEFE730B5014609B9002030BD4A68CB
:100430008B689A4201D1002406E09A4201D9D41A6D
:1004400002E09D1A0868441B2046EFE770B5044699
:100450000D4616460CB9012070BD18212046FFF745
:100460002EFF2560E6600A206074E06868B92846BF
:1004700006F058FBE060E06818B900202060012019
:10048000EAE7207C40F002002074207C40F001006C
:1004900020740020E0E72DE9F04704468946154620
:1004A0004FF00008CA4604B115B90020BDE8F08736
:1004B0002168A068884201D30020A0602046FFF791
:1004C000B1FF0746AF4203D20FB90020EEE73D4629
:1004D000A1682068461AAE4200D92E46D4E902200F
:1004E000811832465046FFF7D1FEB044A068304430
:1004F000A060AD1B35B10AEB08002A46E168FFF7A2
:10050000C5FEA5602168A068884201D30020A060D4
:1005100008EB0500CAE700B970470021416081601F
:1005200000BFF9E72DE9F0470446894615464FF02C
:100530000008CA4604B115B90020BDE8F087D4E927
:100540000010884201D3002060602046FFF755FF6D
:100550000746AF4203D20FB90020EEE73D46D4E98B
:100560000001461AAE4200D92E466268E16888183A
:1005700032465146FFF78AFEB044606830446060FE
:10058000AD1B35B10AEB08012A46E068FFF77EFE95
:100590006560D4E90010884201D30020606008EB58
:1005A0000500CAE700BFFEE710B5024805F035FBBD
:1005B00010BD00001060024010B5024805F02DFB90
:1005C00010BD00002860024010B5024805F025FB70
:1005D00010BD00004060024010B5024805F01DFB50
:1005E00010BD00005860024010B5024805F015FB30
:1005F00010BD00007060024010B5024805F00DFB10
:1006000010BD00008860024010B5024805F005FBEF
:1006100010BD0000A060024010B5024805F0FDFAD0
:1006200010BD0000B860024010B5024805F0F5FAB0
:1006300010BD00001064024010B5024805F0EDFA4C
:1006400010BD00002864024010B5024805F0E5FA2C
:1006500010BD00004064024010B5024805F0DDFA0C
:1006600010BD00005864024010B5024805F0D5FAEC
:1006700010BD00007064024010B5024805F0CDFACC
:1006800010BD00008864024010B5024805F0C5FAAC
:1006900010BD0000A064024010B5024805F0BDFA8C
:1006A00010BD0000B86402407047000070B50446F9
:1006B0000D461CB903A005F04BFF00E000BF00BFD2
:1006C000002070BD537461636B2069732049444CF2
:1006D00045210D0A0000000002460020704700007E
:1006E00070B504460D462A4621460348FFF71AFF17
:1006F00086B2304670BD0000100300202DE9F041A5
:1007000004460F4616463225DFF8F483FD480460A0
:100710004FF4A2712046FFF7D2FDC4F8306116B93C
:10072000F948C4F8300100BF002000BF07E0F74AD5
:1007300004F1780101EB4011CA60411CC8B20528E0
:10074000F5DB00BF00202060F14A4FF48071404685
:10075000FFF77CFEA76004F1080000F055FB20B114
:1007600000BF02202071BDE8F08104F1240000F0F8
:1007700003FE18B100BF03202071F4E700BF002082
:10078000E4490880E4490880E449088000BF94F8FF
:10079000280120F00100401C84F8280141F2883033
:1007A000E06137E000BF04F1240000F003FE08B16F
:1007B0000620D8E7A08908B92068606141F20200EC
:1007C000A08100BFE169204600F080FF00BF04F176
:1007D000240000F0E1FD0020A08100BFCD49088089
:1007E000CD490880CD49088000BF94F8280100F069
:1007F000010030B994F8280120F00200801C84F830
:1008000028011C21C648FFF75AFD00BF207E00B911
:1008100002E06D1E002DC5D100BF6420E06137E00D
:1008200000BF04F1240000F0C5FD08B106209AE7DE
:10083000A08908B92068606141F20100A08100BF71
:10084000E169204600F042FF00BF04F1240000F0FF
:10085000A3FD0020A08100BFAE490880AE490880FA
:10086000AE49088000BF94F8280100F0010030B9BB
:1008700094F8280120F00200801C84F828011C2133
:10088000A748FFF71CFD00BF207E00B902E06D1EE7
:10089000002DC5D100BF37E000BF04F1240000F0F7
:1008A00089FD08B106205EE7A08908B9206860616B
:1008B00041F20300A08100BFE169204600F006FF7D
:1008C00000BF04F1240000F067FD0020A08100BFFC
:1008D00090490880904908809049088000BF94F8AA
:1008E000280100F0010030B994F8280120F002003E
:1008F000801C84F828011C218948FFF7E0FC00BF18
:10090000207E00B902E06D1E002DC5D100BF3AE087
:1009100003208349886100BF04F1240000F04AFDF0
:1009200008B106201FE7A08908B92068606142F27B
:100930000100A08100BFE169204600F0C7FE00BFB2
:1009400004F1240000F028FD0020A08100BF7149BF
:100950000880714908807149088000BF94F8280117
:1009600000F0010030B994F8280120F00200801C4A
:1009700084F828011C216A48FFF7A1FC00BF207EF3
:1009800000B902E06D1E002DC2D100BF3AE0012087
:100990006349886100BF04F1240000F00BFD08B139
:1009A0000620E0E6A08908B92068606143F20D00E6
:1009B000A08100BFE169204600F088FE00BF04F17D
:1009C000240000F0E9FC0020A08100BF514908800C
:1009D000514908805149088000BF94F8280100F06F
:1009E000010030B994F8280120F00200801C84F83E
:1009F00028011C214A48FFF762FC00BF207E00B995
:100A000002E06D1E002DC2D100BF3AE00120444932
:100A1000886100BF04F1240000F0CCFC08B106207E
:100A2000A1E6A08908B92068606143F21400A081A2
:100A300000BFE169204600F049FE00BF04F1240038
:100A400000F0AAFC0020A08100BF32490880324992
:100A500008803249088000BF94F8280100F00100A6
:100A600030B994F8280120F00200801C84F8280195
:100A70001C212B48FFF723FC00BF207E00B902E0B9
:100A80006D1E002DC2D100BF4DE000BF04F1240057
:100A900000F090FC08B1062065E6A08908B920683E
:100AA000606142F20110A08100BF01201C498861F1
:100AB000E169204600F00AFE00BF04F1240000F0C6
:100AC0006BFC0020A08100BF1249088012490880F9
:100AD0001249088000BF94F8280100F0010030B9E5
:100AE00094F8280120F00200801C84F828011C21C1
:100AF0000B48FFF7E4FB00BF207E98B915E000002B
:100B0000100300206C000020D9060008C804002053
:100B100028030020700000207200002074000020D4
:100B2000AC0400206D1E002DAFD100BF3AE000BF25
:100B300004F1240000F03EFC08B1062013E6A08971
:100B400008B92068606142F20210A08100BF012054
:100B5000A9498861E169204600F0B8FD00BF04F1B1
:100B6000240000F019FC0020A08100BFA3490880E8
:100B7000A3490880A349088000BF94F8280100F029
:100B8000010030B994F8280120F00200801C84F89C
:100B900028011C219848FFF792FB00BF207E00B976
:100BA00002E06D1E002DC2D100BF3AE000BF04F18B
:100BB000240000F0FFFB08B10620D4E5A08908B9A5
:100BC0002068606142F20310A08100BF01208A49C1
:100BD0008861E169204600F079FD00BF04F124003E
:100BE00000F0DAFB0020A08100BF8449088084491E
:100BF00008808449088000BF94F8280100F00100B3
:100C000030B994F8280120F00200801C84F82801F3
:100C10001C217948FFF753FB00BF207E00B902E09A
:100C20006D1E002DC2D100BF3AE000BF04F12400C8
:100C300000F0C0FB08B1062095E5A08908B920683E
:100C4000606142F20410A08100BF01206A498861FE
:100C5000E169204600F03AFD00BF04F1240000F0F5
:100C60009BFB0020A08100BF644908806449088084
:100C70006449088000BF94F8280100F0010030B9F1
:100C800094F8280120F00200801C84F828011C211F
:100C90005948FFF714FB00BF207E00B902E06D1E2B
:100CA000002DC2D100BF37E000BF04F1240000F0E6
:100CB00081FB08B1062056E5A08908B9206860616B
:100CC00042F20910A08100BFE169204600F0FEFC5D
:100CD00000BF04F1240000F05FFB0020A08100BFF2
:100CE00046490880464908804649088000BF94F874
:100CF000280100F0010030B994F8280120F002002A
:100D0000801C84F828011C213B48FFF7D8FA00BF5B
:100D1000207E00B902E06D1E002DC5D100BF36E077
:100D200000BF04F1240000F045FB08B106201AE5DD
:100D3000A08908B92068606143F20210A08100BF59
:100D4000E169204600F0C2FC0020207600BF04F1DB
:100D5000240000F021FB0020A08100BF274908806B
:100D6000274908802749088000BF94F8280100F02F
:100D7000010030B994F8280120F00200801C84F8AA
:100D800028011C211C48FFF79AFA00BF01E0002D42
:100D9000C6D100BF00BF04F1240000F0FDFA00201E
:100DA000A08100BF154908801549088015490880B1
:100DB00000BF94F8280100F0010030B994F8280130
:100DC00020F00200801C84F828011C210A48FFF74B
:100DD00076FA00BF94F8280120F0010084F8280179
:100DE00094F8280120F0020084F8280100BF207E3A
:100DF0002071207EB7E40000AC04002070000020C9
:100E000072000020740000201CB5044603210C4829
:100E1000226805F0DBF90B48007870B10020012151
:100E200003460A46CDE90010074804F0A5FF01205B
:100E30000549886100200349087000201CBD00009E
:100E4000001001408C0000200000024070B50646F2
:100E50000C4615462A462146024805F00FFA0020A6
:100E600070BD0000001001400246012903D10804B2
:100E7000034B986102E00120014B9861002070470C
:100E8000000002401CB5224A4FF4E1312148FFF72F
:100E900035FC2149087018B920A005F059FB04E081
:100EA0001D48017825A005F053FB012000210B46C9
:100EB0002AA2CDE900102EA1164800F0F5F9164936
:100EC000087018B92EA005F043FB04E01248017821
:100ED00031A005F03DFB1AE00E4800F00DF904F0DA
:100EE0001FFE002813D00123364A37A1094800F01D
:100EF000A9F80949087028B93248016835A005F0F9
:100F000027FB04E00448017841A005F021FBE3E75A
:100F1000AD060008CC0100205400002045535020AD
:100F20006D6F64756C6520696E6974207375636399
:100F300065737366756C6C79210D0A0045535020FA
:100F4000496E6974206572726F722E2053746174D9
:100F500075733A2025640D0A000000006D616A6512
:100F6000726C655F696E7465726E65740000000076
:100F70004D616A65726C6520576946690000000022
:100F8000436F6E6E656374656420746F206E657464
:100F9000776F726B0D0A000050726F626C656D7333
:100FA00020747279696E6720746F20636F6E6E654E
:100FB000637420746F206E6574776F726B3A2025AE
:100FC000640D0A00580000206578616D706C652E14
:100FD000636F6D0050696E67696E67206578616D3B
:100FE000706C652E636F6D2077617320737563631A
:100FF00065737366756C20696E202564206D696C5D
:101000006C697365636F6E6473210D0A00000000E4
:1010100050726F626C656D7320747279696E6720AF
:10102000746F2070696E67206578616D706C652ED5
:10103000636F6D20646F6D61696E3A2025640D0ADF
:10104000000000002DE9F04104460E461546984682
:1010500000BF06B125B900BF04202071BDE8F081B2
:1010600000BF00BFA08920B994F82801C0F3400058
:1010700018B100BF09202071F0E700BF00BF04F1E4
:10108000240000F097F908B10620E7E7A08908B925
:101090002068606143F21200A08100BF0020286038
:1010A00014480660C56000BF42F21070E061B8F1FC
:1010B000000F09D194F8280120F0010084F82801DC
:1010C00000BF00202071C9E794F8280120F001003A
:1010D000401C84F8280142F21071204600F0F6FA14
:1010E0000746062F00D1B9E7277E00202076384634
:1010F000B4E70000AC04002070B504460026A089C7
:1011000080B994F82801C0F3400058B194F8280140
:1011100020F0020084F82801D4F8302104F59A71F7
:1011200000209047A08980B994F82C0100F00100BC
:1011300058B194F82C0120F0010084F82C01D4F867
:10114000302104F59A7102209047A08980B994F863
:101150002C01C0F3400058B194F82C0120F002009B
:1011600084F82C01D4F8302104F59A7103209047BB
:10117000A08980B994F82C01C0F3800058B194F88C
:101180002C0120F0040084F82C01D4F8302104F55F
:101190009A710420904700267FE004F1780000EB6C
:1011A0004615A089D8B994F82801C0F34000B0B919
:1011B000687FC0F3001090B1687F20F0100068775E
:1011C000C4F834514FF49C70E9680151298A001D1C
:1011D0000151D4F8302104F59A7101209047A0897B
:1011E000A0B994F82801C0F3400078B9687FC0F333
:1011F000800058B1687F20F004006877C4F834514B
:10120000D4F8302104F59A7108209047A089A0B93C
:1012100094F82801C0F3400078B9687FC0F3C0009B
:1012200058B1687F20F008006877C4F83451D4F8CA
:10123000302104F59A7109209047A089A0B994F84B
:101240002801C0F3400078B9687F00F0010058B170
:10125000687F20F001006877C4F83451D4F8302159
:1012600004F59A7106209047A089A0B994F8280146
:10127000C0F3400078B9687FC0F3400058B1687F80
:1012800020F002006877C4F83451D4F8302104F516
:101290009A7107209047701CC6B2052EFFF47DAFEF
:1012A00000BF0020207170BD2DE9F04704460D46B7
:1012B00016469846DDE9089A00BF05B126B900BF79
:1012C00004202071BDE8F08700BF00BFA08920B9CD
:1012D00094F82801C0F3400018B100BF0920207124
:1012E000F0E700BF00BF04F1240000F063F808B18C
:1012F0000620E7E7A08908B92068606142F2020091
:10130000A08100BFB9F1000F01D018A000E018A023
:1013100018490860084645608660C0F80C8000BF28
:1013200047F23050E061BAF1000F09D194F828017A
:1013300020F0010084F8280100BF00202071C1E7DF
:1013400094F8280120F00100401C84F8280147F29D
:101350003051204600F0BAF90746062F00D1B1E718
:10136000277E002020763846ACE700004445460042
:1013700043555200AC04002010B50446204605F049
:101380000CFC044908600846006808B9012010BD3B
:101390000020FCE78800002010B5044604480068DF
:1013A00005F002FC08B1012010BD0020FCE70000A0
:1013B0008800002010B504464FF47A710448006894
:1013C00005F01AFC08B1012010BD0020FCE7000068
:1013D00088000020F8B50446AC4D4FF4FA76A08999
:1013E00060B120686169401AE169884206D994F8C1
:1013F000400120F00200801C84F8400134E194F8A0
:101400001C0100287ED04FF49270005B0028F9D0B8
:10141000A089B0B900BF04F12400FFF7CBFF08B1E9
:101420000620F8BDA08908B92068606143F2150064
:10143000A08100BF94F8280120F00100401C84F82E
:1014400028019DF800104FF490700059C2684FF4C5
:101450009370005B11544FF49370005B401C81B299
:101460004FF493700153801E005B401E81B24FF415
:1014700092700153005B38BB002084F81C01A089E6
:1014800043F2150188421FD100BF04F12400FFF789
:1014900083FF0020A08100BF7D4908807D4908802E
:1014A0007D49088000BF94F8280100F0010030B9A0
:1014B00094F8280120F00200801C84F828011C21E7
:1014C0007648FEF7FCFE00BF4FF49370005B40F2DD
:1014D000B351884204DA4FF49270005B002841D186
:1014E0004FF490700059C4F834014FF490700059D3
:1014F000C1684FF49C7001514FF49370015B801FE1
:10150000005900E02FE001824FF49370015B4FF42B
:101510009E7001514FF49270005B28B94FF49270A5
:10152000005B88B9A08978B9D4F8302104F59A71A4
:10153000012090474FF49071095901F11D00497F36
:1015400021F01001017009E04FF49071095901F187
:101550001D00497F21F010011031017000214FF46E
:101560009370015378E09DF80000202803DB9DF87C
:1015700000007E2807DD9DF800000D2803D09DF8AF
:1015800000000A2862D19DF800000A281BD100BF84
:101590009DF80010424802780078401C404B1870BB
:1015A000581C81540021401E0278401C815400BF09
:1015B000411E204603F02AFE00BF00203849087073
:1015C000487000BF41E09DF8000020280FD1354849
:1015D00000783E280BD1344800780A2807D194F8C7
:1015E000400120F00400001D84F840012CE000BF01
:1015F0009DF800102A4802780078401C284B18708B
:10160000581C81540021401E0278401C815400BFA8
:101610009DF800003A2817D118460078042813DDF9
:10162000184640782B280FD1042220A1581CFEF721
:1016300072FE48B91A49204603F0E8FD00BF0020B9
:1016400017490870487000BF00BF05E000BF0020C8
:1016500013490870487000BF12480078124908709A
:101660009DF800000F490870301EA6F101018EB2EE
:1016700007D0012269462846FEF70DFF00287FF4B7
:10168000BEAE204604F042F9CBE600001003002075
:10169000700000207200002074000020AC040020C4
:1016A0002904002084000020850000202B4950449C
:1016B0000000000002680A440260704702E002482D
:1016C000FFF788FEFBE70000CC01002070B5044660
:1016D0000D46E56100BF2046FFF70EFDA0890028FA
:1016E000F9D194F82801C0F340000028F3D100BFDD
:1016F000207E2071207E70BD38B504465C200090AD
:1017000017E020782C2805D02078222802D02078D5
:101710005C2806D101226946084800680830FFF7B6
:1017200095FB2146641C0122044800680830FFF73D
:101730008DFB20780028E4D138BD00006C0000202B
:1017400001480068704700000400002010B52E48D2
:101750000068401C2C4908602C48006820B12B48C8
:101760000068401E29490860002444E0284850F8D9
:10177000240000283DD0264850F824000078C0F30B
:101780004000B0B3224850F82400806840B120489F
:1017900050F824008068401E1D4951F824108860CC
:1017A0001B4850F82400806818BB194B53F82430AC
:1017B0001969174B53F8240053F82430DA6890471E
:1017C000134850F824004168114850F82400816003
:1017D0000F4850F82400007800F0010048B90C4888
:1017E00050F82400007820F00201094850F8240045
:1017F0000170601CC4B20648001F0078A042B5DC2E
:1018000004F052F910BD0000040000200000002088
:101810001801002010B50D48006840F400700B4915
:1018200008600846006840F4806008600846006868
:1018300040F480700860032000F086F80F2000F06C
:1018400007F800F017F8002010BD0000003C02402F
:1018500070B5044600F0E4F94FF47A71B0FBF1F58D
:10186000284600F081FC00222146501E00F02DF891
:10187000002070BD7047000000BF00F01F02012172
:101880009140034A430942F8231000BF704700000B
:1018900080E200E000BF00F01F0201219140034AF6
:1018A000430942F8231000BF7047000080E100E0C8
:1018B00000BF00F01F02012191404209920002F195
:1018C000E022C2F8001100BF70472DE9F05F8046AA
:1018D0000D461646002700F0C9FC074639462A4641
:1018E000334601F00700C0F1070ABAF1040F02D92C
:1018F0004FF0040A01E0C0F1070AD14600F1040AE2
:10190000BAF1070F02D24FF0000A01E0A0F1030A7A
:10191000D4464FF0010A0AFA09FAAAF1010A0AEAC2
:10192000020A0AFA0CFA4FF0010B0BFA0CFBABF1AE
:10193000010B0BEA030B4AEA0B042146404600F078
:101940009DFCBDE8F09F000000BF00F00702064BC1
:1019500019684FF6FF031940044B0B4343EA022179
:10196000014B196000BF70470CED00E00000FA0564
:1019700070B504460E460025A748006800F00F0029
:10198000B0426FD2A4490E700846006800F00F0004
:10199000B04201D0012070BD207800F00200022882
:1019A00007D19E48006820F0F000A16808439B49D9
:1019B0000860207800F0010000283ED0606801280F
:1019C00007D1964808380068C0F34040B8B90120F4
:1019D000E1E76068022802D06068032807D18F48D9
:1019E00008380068C0F3406048B90120D3E78B484D
:1019F00008380068C0F3400008B90120CBE78748E9
:101A0000006820F003006168084384490860FFF71C
:101A100097FE05466068012810D108E0FFF790FEA8
:101A2000401B41F28831884201D90320B3E77B484B
:101A3000006800F00C000428F0D1CDE060680228B6
:101A400011D108E0FFF77CFE401B41F2883188424B
:101A500001D903209FE77148006800F00C000828B6
:101A6000F0D1B9E024E06068032810D108E0FFF766
:101A700067FE401B41F28831884201D903208AE782
:101A80006648006800F00C000328F0D1A4E008E0EC
:101A9000FFF756FE401B41F28831884201D90320EE
:101AA00079E75E48006800F00C000028F0D193E070
:101AB000207800F00200022807D15848006820F082
:101AC000F000A168084355490860207800F0010043
:101AD000002877D06068012807D15048083800688E
:101AE000C0F34040B8B9012055E76068022802D031
:101AF0006068032807D1494808380068C0F340608F
:101B000048B9012047E7454808380068C0F340005D
:101B100008B901203FE74148006820F003006168F0
:101B200008433E490860FFF70BFE05466068012840
:101B300010D108E0FFF704FE401B41F288318842D3
:101B400001D9032027E73548006800F00C0004287D
:101B5000F0D137E06068022810D108E0FFF7F0FD0F
:101B6000401B41F28831884201D9032013E72B48FA
:101B7000006800F00C000828F0D123E0606803281A
:101B800010D108E0FFF7DCFD401B41F288318842AC
:101B900001D90320FFE62148006800F00C0003286B
:101BA000F0D10FE008E0FFF7CBFD401B41F2883198
:101BB000884201D90320EEE61848006800F00C00C6
:101BC0000028F0D114490E700846006800F00F009C
:101BD000B04201D00120DEE6207800F004000428A5
:101BE00007D10E48006820F4E050E16808430B4933
:101BF0000860207800F00800082808D1074800682D
:101C000020F46040216940EAC100044908600F20C7
:101C1000FFF71EFE0020BEE6003C024008380240EE
:101C200010B500F045F80949096801F0F001F0220B
:101C300092FAA2F2B2FA82F2D140054A515CC8404F
:101C4000044908600846006810BD000008380240DA
:101C5000BC7E00086800002010B5FFF7E1FF0749CF
:101C6000096801F4E0514FF4E05292FAA2F2B2FA9C
:101C700082F2D140024A515CC84010BD083802408F
:101C8000BC7E000810B5FFF7CBFF0749096801F4D7
:101C900060414FF4604292FAA2F2B2FA82F2D1406D
:101CA000024A515CC84010BD08380240BC7E0008A2
:101CB00070B50021002200230020274C246804F086
:101CC0000C0424B1042C04D0082C41D103E0234897
:101CD00040E023483EE0204C241F246804F03F01EC
:101CE0001D4C241F246804F4800484B11C4CB4FBF4
:101CF000F1F5194C241F246847F6C076344096FA53
:101D0000A6F6B6FA86F6F44005FB04F20FE0134C93
:101D1000B4FBF1F5104C241F246847F6C07634401C
:101D200096FAA6F6B6FA86F6F44005FB04F20A4CDB
:101D3000241F246804F440344FF4403595FAA5F587
:101D4000B5FA85F5EC40641C6300B2FBF3F001E0EA
:101D5000024800BF00BF70BD083802400024F400F4
:101D600000127A0038B504460025207800F0010002
:101D7000002866D0F648006800F00C0004280DD05A
:101D8000F348006800F00C00082813D1F048001F49
:101D9000006800F48000B0F5800F0BD1EC480838E3
:101DA0000068C0F3404000284BD06068002848D14C
:101DB000012038BD0020E649891F0870FFF7C0FCEC
:101DC000054608E0FFF7BCFC401B41F28831884221
:101DD00001D90320EDE7DE4808380068C0F3404031
:101DE0000028EFD12079DA49891F08706068A0B116
:101DF000FFF7A6FC054608E0FFF7A2FC401B41F2F6
:101E00008831884201D90320D3E7D14808380068D7
:101E1000C0F340400028EFD013E0FFF791FC0546E7
:101E200008E0FFF78DFC401B41F28831884201D960
:101E30000320BEE7C64808380068C0F340400028C9
:101E4000EFD1207800F00200022869D1C048006874
:101E500000F00C0058B1BE48006800F00C000828E3
:101E600021D1BB48001F006800F48000D8B9B848F1
:101E700008380068C0F3400020B1E068012801D0B4
:101E8000012096E7B2480838006820F0F800F822F0
:101E900092FAA2F2B2FA82F2216991400843AC4967
:101EA000083908603CE0E06828B30120A9490860CF
:101EB000FFF746FC054606E0FFF742FC401B64289E
:101EC00001D9032075E7A24808380068C0F3400034
:101ED0000028F1D09E480838006820F0F800F82269
:101EE00092FAA2F2B2FA82F221699140084398492B
:101EF0000839086014E0002096490860FFF720FCCC
:101F0000054606E0FFF71CFC401B642801D90320AE
:101F10004FE78F4808380068C0F340000028F1D12F
:101F2000207800F0080008282CD16069A8B10120B1
:101F300089490860FFF704FC054606E0FFF700FC4E
:101F4000401B642801D9032033E781486C300068C6
:101F5000C0F340000028F1D014E000207E49086062
:101F6000FFF7EEFB054606E0FFF7EAFB401B64289F
:101F700001D903201DE776486C300068C0F34000AB
:101F80000028F1D1207800F0040004286DD100BFB2
:101F90006F483830006840F080506D493831086033
:101FA0000846006800F08050009000BF00BF6B48FA
:101FB000006840F4807069490860FFF7C1FB05467E
:101FC00006E0FFF7BDFB401B642801D90320F0E6C3
:101FD0006248006800F480700028F2D000205C495C
:101FE00068310870FFF7ACFB054608E0FFF7A8FB77
:101FF000401B41F28831884201D90320D9E6544878
:1020000068300068C0F340000028EFD1207A5049C2
:1020100068310870A068A0B1FFF792FB054608E0A0
:10202000FFF78EFB401B41F28831884201D9032023
:10203000BFE6474868300068C0F340000028EFD092
:1020400013E0FFF77DFB054608E0FFF779FB401B37
:1020500041F28831884201D90320AAE63C48683021
:102060000068C0F340000028EFD1A069F0B3384801
:10207000006800F00C00082872D0A069022850D136
:10208000002034490866FFF75BFB054606E0FFF7D2
:1020900057FB401B642801D903208AE62C480838E6
:1020A0000068C0F340600028F1D1D4E9070108437B
:1020B00047F6C07292FAA2F2B2FA82F2616A9140D5
:1020C00008430122A16AC2EB51014FF4403292FA57
:1020D000A2F2B2FA82F2914008434FF0706292FA93
:1020E000A2F2B2FA82F2E16A914000E03AE00843DB
:1020F0001749091F0860012016490866FFF720FBF1
:10210000054606E0FFF71CFB401B642801D90320AD
:102110004FE60F4808380068C0F340600028F1D04F
:1021200020E000200B490866FFF70AFB054606E0A1
:10213000FFF706FB401B642801D9032039E6044859
:1021400008380068C0F340600028F1D10AE007E0D9
:102150000838024000004742800E474200700040AD
:10216000012026E6002024E670B504462546681EB8
:10217000B0F1807F01D301200FE0681E4FF0E02115
:1021800048610F214FF0FF3000F078F800204FF049
:10219000E021886107200861002070BD10B5044669
:1021A0000CB9012010BDA06900B100E000BF94F897
:1021B000390028B9002084F83800204600F025F8BE
:1021C000022084F839002068C06820F4005021689B
:1021D000C860204604F06AF82068006920F4904046
:1021E000216808612068406920F02A002168486160
:1021F0002068C06840F400502168C8600020E06397
:10220000012084F839000020CCE7704700BFFEE7CA
:102210000146302905DB392903DCA1F13000C0B2C9
:102220007047612905DB662903DCA1F15700C0B2C4
:10223000F6E7412905DB462903DCA1F13700C0B2EE
:10224000EEE70020ECE7000070B505460C4622469C
:1022500002A1284604F08CF970BD000025303258E8
:102260000000000000BFFEE7704700000248006861
:10227000C0F30220704700000CED00E010B500280C
:1022800007DA0A07140E054A00F00F031B1FD45487
:1022900003E00A07130E024A135410BD18ED00E0C4
:1022A00000E400E070B505460C46224602A128462F
:1022B00004F05EF970BD0000257500002DE9FC41B9
:1022C00005460C460127288840F25D32811A90426B
:1022D0007ED008DC80B1A0F2423090B30D2878D0D7
:1022E000102877D19CE00E2975D0242974D0382984
:1022F00073D04529F5D1A2E2A08941F201018842BB
:1023000054D100BF0020C4F840012068606100BFC4
:102310000222FEA1FE4800680830FEF797FD022267
:10232000FCA1FB4800680830FEF790FD002241F256
:102330000101204603F01AFB00BF40F24230288022
:1023400000BF94F8400100F0010038B994F8400152
:10235000C0F3400010B90020BDE8FC8100BF94F834
:10236000400100F0010080F00100207600BF04F180
:102370002400FFF711F80020A08100BFE649088083
:10238000E6490880E649088000BF94F8280100F07B
:10239000010030B994F8280120F00200801C84F874
:1023A00028011C21DF48FDF78AFF7CE2A08941F269
:1023B000020188426FD100BF0020C4F840012068AC
:1023C000606100BF00BF0020C4F84001206805E044
:1023D00055E012E068E2ACE02FE1D4E1606100BFBB
:1023E000012104F10800FEF73FFD2068CE49086096
:1023F00000BF40F24F30288000BF2068CA490968FA
:10240000401A022801D80020A6E700BF002104F1ED
:102410000800FEF729FD00BF40F25230288000BFBF
:1024200094F84001C0F3C00030B994F84001C0F303
:10243000400008B900208FE700BF94F84001C0F3C6
:10244000C00080F001002076207E68B30622B7A18C
:10245000AF4800680830FEF7F9FC0222ADA1AC4895
:1024600000680830FEF7F2FC002241F2020120462B
:1024700003F07CFA00BF40F25D30288000BF94F882
:102480004001C0F3C00038B994F84001C0F34000E7
:1024900010B9002060E727E000BF94F84001C0F3C6
:1024A000C00080F00100207600BF04F12400FEF798
:1024B00073FF0020A08100BF9749088097490880DA
:1024C0009749088000BF94F8280100F0010030B956
:1024D00094F8280120F00200801C84F828011C21B7
:1024E0009048FDF7ECFEDEE1A08941F2030188424D
:1024F00053D100BF0020C4F840012068606100BFD4
:1025000006228CA1824800680830FEF79FFC022258
:1025100080A17F4800680830FEF798FC002241F255
:102520000301204603F022FA00BF40F26B302880FE
:1025300000BF94F8400100F0010030B994F8400168
:10254000C0F3400008B9002006E700BF94F840013E
:1025500000F0010080F00100207600BF04F12400AB
:10256000FEF71AFF0020A08100BF6B4908806B496D
:1025700008806B49088000BF94F8280100F0010032
:1025800030B994F8280120F00200801C84F828015A
:102590001C216448FDF793FE85E1A08941F2070103
:1025A00088427CD15F4881696846FFF77BFE00BFA7
:1025B0000020C4F840012068606100BF08225FA1CC
:1025C000534800680830FEF741FC56490868FDF79B
:1025D0008DFE86B25348324601684D480068083087
:1025E000FEF734FC012258A1494800680830FEF784
:1025F0002DFC6846FDF77AFE86B2324669464448AD
:1026000000680830FEF722FC082250A1404800680C
:102610000830FEF71BFC02223EA13D48006808304E
:10262000FEF714FC002241F20701204603F09EF958
:1026300000BF40F28130288000BF94F8400100F0D4
:10264000010030B994F84001C0F3400008B90020FF
:1026500082E600BF94F8400100F0010080F0010024
:102660002076207E48B93C48FDF755FF2D4880690B
:10267000A06004F10800FEF7C7FB00BF04F12400CE
:10268000FEF78AFE0020A08100BF2349088023496D
:1026900008802349088000BF94F8280100E00EE07C
:1026A00000F0010030B994F8280120F00200801CED
:1026B00084F828011C211B48FDF701FEF3E0A089E6
:1026C00041F20A0188427DD1164881696846FFF7C8
:1026D000E9FD00BF0020C4F840012068606100BF30
:1026E0000B221EA10A4800680830FEF7AFFB6846BF
:1026F000FDF7FCFD86B232466946054800680830A1
:10270000FEF7A4FB022203A101482DE04154000082
:102710006C0000200D0A00007000002072000020F4
:1027200074000020AC0400207800002041542B529B
:102730005354000041542B474D52000041542B5537
:102740004152545F000000003D0000002C382C3145
:102750002C302C30000000001003002041542B527C
:1027600046504F5745523D0000680830FEF76EFB5B
:10277000002241F20A01204603F0F8F800BF40F2BF
:102780009530288000BF94F8400100F0010030B976
:1027900094F84001C0F3400008B90020DCE500BF18
:1027A00094F8400100F0010080F00100207600BFA5
:1027B00004F12400FEF7F0FD0020A08100BF3D4998
:1027C000088000E015E03C4908803C49088000BFD3
:1027D00094F8280100F0010030B994F8280120F0A5
:1027E0000200801C84F828011C213548FDF767FD94
:1027F00059E0A08941F20601884254D100BF00206F
:10280000C4F840012068606100BF0A222DA1304851
:1028100000680830FEF71AFB0222AFF208112C48BC
:1028200000680830FEF712FB002241F20601204644
:1028300003F09CF800BF40F2A230288000BF94F85B
:102840004001C0F3C00030B994F84001C0F340002B
:1028500008B9002080E500BF94F84001C0F3C00033
:1028600080F00100207600BF04F12400FEF794FD03
:102870000020A08100BF0F4908800F4908800F4940
:10288000088000BF94F8280100F0010030B994F8E6
:10289000280120F00200801C84F828011C2108482F
:1028A000FDF70DFD00BF00BF00BF002700202880FE
:1028B000032051E570000020720000207400002009
:1028C000AC04002041542B524553544F5245000054
:1028D0006C0000202DE9FC4105460C4601272888A4
:1028E00040F2A652811A90426FD018DC40F2495251
:1028F000A0EB0201904269D00ADC20B3A0F2235081
:10290000002855D00C287CD01A2840F0DD871FE124
:102910000E2977D0182976D05229F6D194E375295B
:1029200072D008DC132970D019296FD043296ED0DA
:102930004A29EAD1FAE383296AD0912969D09D29ED
:10294000E3D100F08CBFA08943F20D01884271D120
:10295000FB4881696846FFF7A5FC00BF0020C4F86A
:1029600040012068606100BF0A22F6A1F8480068B3
:102970000830FEF76BFA6846FDF7B8FC86B23246BF
:102980006946F34800680830FEF760FA0222F1A1B8
:10299000EF4800680830FEF759FA002243F20D01B3
:1029A000204602F0E3FF00BF40F22350288000BF22
:1029B00094F8400100F0010048B994F84001C0F3D8
:1029C000400020B90020BDE8FC817EE319E100BF92
:1029D00094F8400100F0010080F00100207600BF73
:1029E00004F12400FEF7D8FC0020A08100BFDA49E2
:1029F0000880DA490880DA49088000BF94F8280185
:102A000008E03CE066E1F4E1CAE3C8E3C9E3FFE3C0
:102A1000FFE3FFE300F0010030B994F8280120F053
:102A20000200801C84F828011C21C548FDF747FCE2
:102A30007BE3FFE7A08943F21401884253D100BF32
:102A40000020C4F840012068606100BF0D22C5A1CC
:102A5000BF4800680830FEF7F9F90222BDA1BC4862
:102A600000680830FEF7F2F9002243F21401204614
:102A700002F07CFF00BF40F22F50288000BF94F886
:102A8000400100F0010030B994F84001C0F340006B
:102A900008B9002097E700BF94F8400100F001005A
:102AA00080F00100207600BF04F12400FEF774FCE2
:102AB0000020A08100BFA8490880A8490880A84933
:102AC000088000BF94F8280100F0010030B994F8A4
:102AD000280120F00200801C84F828011C2198485D
:102AE000FDF7EDFBA4E7A08943F20111884263D111
:102AF000934881696846FFF7D5FB00BF0020C4F802
:102B000040012068606100BF0F229AA190480068D0
:102B10000830FEF79BF96846FDF7E8FB86B23246BF
:102B200069468B4800680830FEF790F9022289A1B7
:102B3000874800680830FEF789F9002243F20E0149
:102B4000204602F013FF00BF40F23D50288000BF36
:102B500094F8400100F0010030B994F84001C0F34E
:102B6000400008B900202EE700BF94F8400100F0B3
:102B7000010080F00100207600BF04F12400FEF780
:102B80000BFC0020A08100BF7349088073490880B6
:102B90007349088000BF94F8280100F0010030B9A3
:102BA00094F8280120F00200801C84F828011C21E0
:102BB0006348FDF784FB3BE7A08943F2021188429A
:102BC00053D100BF0020C4F840012068606100BFFD
:102BD0000E226CA15E4800680830FEF737F9022229
:102BE0005CA15B4800680830FEF730F9002243F230
:102BF0000E01204602F0BAFE00BF40F24950288084
:102C000000BF94F8400100F0010030B994F8400191
:102C1000C0F3400008B90020D5E600BF94F8400199
:102C200000F0010080F00100207600BF04F12400D4
:102C3000FEF7B2FB0020A08100BF4749088047494A
:102C400008804749088000BF94F8280100F001007F
:102C500030B994F8280120F00200801C84F8280183
:102C60001C213748FDF72BFBE2E6A08943F2110156
:102C7000884263D1324881696846FFF713FB00BF81
:102C80000020C4F840012068606100BF0A2241A111
:102C90002F4800680830FEF7D9F86846FDF726FB94
:102CA00086B2324669462A4800680830FEF7CEF8F8
:102CB000022228A1264800680830FEF7C7F8002243
:102CC00043F20E01204602F051FE00BF40F2575081
:102CD000288000BF94F8400100F0010030B994F85A
:102CE0004001C0F3400008B900206CE600BF94F832
:102CF000400100F0010080F00100207600BF04F1E7
:102D00002400FEF749FB0020A08100BF1249088083
:102D1000124908801249088000BF94F8280100F089
:102D2000010030B994F8280120F00200801C84F8DA
:102D300028011C210248FDF7C2FA79E630E00000C4
:102D4000AC04002041542B4349504D55583D0000E0
:102D50006C0000200D0A00007000002072000020AE
:102D60007400002041542B43495044494E464F3D86
:102D70003100000041542B434950534552564552AF
:102D80003D312C0041542B43495053455256455236
:102D90003D30000041542B43495053544F3D0000F7
:102DA000A08943F20301884277D1A089E08100BF66
:102DB00000BF0020C4F840012068606100BF0C2201
:102DC000F8A1FC4800680830FEF740F80222AFF294
:102DD0007C01F84800680830FEF738F8002243F21A
:102DE0000101204602F0C2FD00BF40F26150288080
:102DF00000BF94F8400100F0010030B994F84001A0
:102E0000C0F3400008B90020DDE500BF00BF94F822
:102E10004001C0F3400010B10120207664E10020A1
:102E2000E549087029E004F17800E349097800EBEE
:102E30004110007F00F0010038B194F81801DE491C
:102E40000A7801219140084090B9DB48017804F1EB
:102E50007800D94A127800EB4210017004F1780032
:102E6000D549097800EB4110D4494969086008E068
:102E7000D1480078401CD0490870CF480078052818
:102E8000D1DB00BFCD484069006818B1CA4800785E
:102E9000052803D10120207626E148E1C748806952
:102EA000C0F30740022823D10020C34908701BE06B
:102EB00004F17800C049097800EB4110007F00F070
:102EC000010060B104F17800BB49097800EB4110C2
:102ED000007FC0F3800010B10C20207604E1B648DA
:102EE0000078401CB4490870B34800780528DFDB3F
:102EF000B24840690068007F20F00200801CAF49A2
:102F0000496909680877AD488069C0F3074002281D
:102F100001D1012000E00020A84949690968097F22
:102F200060F38201A54840690068017700BF002076
:102F3000C4F840012068606100BF0C22A0A19D4838
:102F400000680830FDF782FF9C48406900680178FE
:102F50006846FFF7A7F96846FDF7C8F986B232461A
:102F60006946944800680830FDF770FF012298A177
:102F7000904800680830FDF769FF90488069C0F309
:102F8000074038B9042293A18A4800680830FDF749
:102F90005DFF1AE089488069C0F30740012807D126
:102FA00004228EA1834800680830FDF74FFF0CE033
:102FB00082488069C0F30740022806D1042289A113
:102FC0007C4800680830FDF741FF032287A179485B
:102FD00000680830FDF73AFF78490868FDF786F980
:102FE00086B2764832460168724800680830FDF7BC
:102FF0002DFF02227EA16F4800680830FDF726FFF2
:103000006E48806981B26846FFF74CF96846FDF763
:103010006DF986B232466946664800680830FDF7A9
:1030200015FF0222AFF2D421624800680830FDF794
:103030000DFF002243F20301204602F097FC00BF7F
:1030400040F29B50288000BF94F8400100F001003E
:1030500030B994F84001C0F3400008B90020B2E450
:1030600000BF94F8400100F0010080F001002076DC
:10307000207E40B100BF5149496908682021FDF711
:103080001EF900BF30E000BF00BF0020C4F84001BF
:103090002068606100BF0C2242A1464800680830E9
:1030A000FDF7D4FE0222AFF25431424800680830E6
:1030B000FDF7CCFE002243F20101204602F056FC4F
:1030C00000BF40F2A650288000BF94F8400100F0F5
:1030D000010030B994F84001C0F3400008B9002065
:1030E00071E400BF00BF00BFE089A08100BF04F110
:1030F0002400FEF751F90020A08100BF3D4908805F
:103100003D4908803D49088000BF94F8280100F03F
:10311000010030B994F8280120F00200801C84F8E6
:1031200028011C212548FDF7CAF8CCE36CE1A089F1
:1031300043F20B0188426ED1A089E08100BF0020DC
:10314000C4F840012068606100BF1C48816968467E
:10315000FFF7A8F80C222AA1164800680830FDF7EE
:1031600075FE6846FDF7C2F886B2324669461148D8
:1031700000680830FDF76AFE0222AFF228410D48D0
:1031800000680830FDF762FE002243F20B01204682
:1031900002F0ECFB00BF40F2B950288000BF3BE0DA
:1031A00000E270E041542B4349505354415455536D
:1031B000000000006C0000207C000020AC04002017
:1031C00041542B43495053544152543D0000000098
:1031D0002C000000225443500000000022554450AF
:1031E000000000002253534C00000000222C22005B
:1031F000222C0000700000207200002074000020CB
:1032000041542B434950434C4F53453D000000006F
:10321000D1E05AE2C9E266E094F8400100F0010012
:1032200030B994F84001C0F3400008B9002031E4FF
:1032300000BF94F8400100F0010080F0010020760A
:1032400000BF00BF0020C4F840012068606100BFDB
:103250000C22AFF2B001FE4800680830FDF7F6FD21
:103260000222AFF21051FA4800680830FDF7EEFD77
:10327000002243F20101204602F078FB00BF40F239
:10328000BF50288000BF94F8400100F0010030B921
:1032900094F84001C0F3400008B9002063E400BF87
:1032A00000BFE089A08100BF04F12400FEF774F89C
:1032B0000020A08100BFE7490880E7490880E7496E
:1032C000088000BF94F8280100F0010030B994F89C
:1032D000280120F00200801C84F828011C21E0480D
:1032E000FCF7EDFFEFE2A08943F2050188426ED1C1
:1032F000A089E081DA48006918B10020D84909693D
:1033000008600320D749087000BFD5488069B0F530
:10331000006F02D94FF4006001E0D1488069D249C2
:10332000086000BF0020C4F840012068606100BF51
:103330000B22CEA1C64800680830FDF787FDC848BB
:10334000C06801786846FEF7ADFF6846FCF7CEFF1F
:1033500086B232466946BE4800680830FDF776FD01
:103360000122AFF29411BA4800680830FDF76EFDF3
:10337000BD4801686846FEF795FF6846FCF7B6FF52
:1033800086B232466946B24800680830FDF75EFDF5
:103390000222AFF24061AE4800680830FDF756FDEA
:1033A000002243F20501204602F0E0FA00BF40F29D
:1033B000E950288000BF94F84001C0F3800038B97C
:1033C00094F84001C0F3400010B9002024E4B3E0B9
:1033D00000BF94F84001C0F3800088B300BF002014
:1033E000C4F840012068606100BF9F48008882B235
:1033F0009B480168964800680830FDF727FD00BF2C
:103400004FF4BE60288000BF40F24110005D00F024
:10341000010060B940F24110005DC0F3400030B9D6
:1034200094F84001C0F3400008B900205DE400BFFB
:1034300040F24110005D00F0010010B1002001E0F9
:1034400010E00B202076207E98B98548006980B175
:10345000834800690068844909680844804909690B
:10346000086006E094F84001C0F3400008B1012074
:103470002076207E88B903207A49087078488069D0
:1034800079490968401A7649886108460068764992
:1034900009680844724908600EE040F24110005D7E
:1034A000C0F3400028B16F480078401E6D49087095
:1034B00002E000206B4908706948806920B16948C2
:1034C000007800287FF421AF6648007848B164484E
:1034D000C068407F20F00400001D6149C96848773A
:1034E00008E05F48C068407F20F0080008305C4971
:1034F000C9684877E089A08100BF04F12400FDF786
:103500004BFF0020A08100BF52490880524908802B
:103510005249088000BF94F8280100F0010030B93A
:1035200094F8280120F00200801C84F828011C2156
:103530004B48FCF7C4FEC6E1A08943F2040188426F
:1035400064D1474881696846FEF7ACFE00BF0020A1
:10355000C4F840012068606100BF0E2246A13C48CB
:1035600000680830FDF772FC6846FCF7BFFE86B2C3
:1035700032466946364800680830FDF767FC02228B
:10358000AFF63001324800680830FDF75FFC0022DA
:1035900043F20401204602F0E9F900BF40F21B604B
:1035A000288000BF94F8400100F0010030B994F881
:1035B0004001C0F3400008B9002025E400BF94F8A2
:1035C000400100F0010080F00100207600BF04F10E
:1035D0002400FDF7E1FE0020A08100BF1D49088006
:1035E0001D4908801D49088000BF94F8280100F09B
:1035F000010030B994F8280120F00200801C84F802
:1036000028011C211648FCF75AFE5CE1A08943F210
:10361000020188427DD100BF0020C4F8400120682B
:10362000606100BF0E2218A1094800680830FDF74C
:103630000DFC0B490868FCF759FE86B20848324673
:103640000168034800680830FDF700FC012223E010
:103650006C00002070000020720000207400002028
:10366000AC0400207D0000208000002041542B434A
:10367000495053454E443D0041542B434950535308
:103680004C53495A453D000041542B434950444F47
:103690004D41494E3D2200008EA18F480068083000
:1036A000FDF7D4FB0222AFF654118B4800680830B6
:1036B000FDF7CCFB002243F20201204602F056F94E
:1036C00000BF40F22960288000BF94F8400100F05C
:1036D000010030B994F84001C0F3400008B900205F
:1036E000BDE400BF94F8400100F0010080F001004B
:1036F000207600BF04F12400FDF74EFE0020A081DB
:1037000000BF76490880764908807649088000BF66
:1037100000E010E094F8280100F0010030B994F8BE
:10372000280120F00200801C84F828011C216E482A
:10373000FCF7C5FDC7E0A08943F21201884268D1B9
:1037400000BF0020C4F840012068606100BF09226A
:1037500066A1614800680830FDF778FB6249086897
:10376000FCF7C4FD86B26048324601685A480068DA
:103770000830FDF76BFB012256A15748006808305E
:10378000FDF764FB0222AFF634215348006808308D
:10379000FDF75CFB002243F21201204602F0E6F83E
:1037A00000BF40F23760288000BF94F8400100F06D
:1037B000010030B994F84001C0F3400008B900207E
:1037C0004DE400BF94F8400100F0010080F00100DA
:1037D000207600BF04F12400FDF7DEFD0020A0816B
:1037E00000BF3E4908803E4908803E49088000BF2E
:1037F00094F8280100F0010030B994F8280120F075
:103800000200801C84F828011C213748FCF757FD72
:1038100059E0A08943F21301884254D100BF00202F
:10382000C4F840012068606100BF0B2232A12A4821
:1038300000680830FDF70AFB0222AFF6E8212648AF
:1038400000680830FDF702FB002243F21301204616
:1038500002F08CF800BF40F24360288000BF94F86B
:10386000400100F0010030B994F84001C0F340007D
:1038700008B9002034E400BF94F8400100F00100D2
:1038800080F00100207600BF04F12400FDF784FDE4
:103890000020A08100BF114908801149088011490A
:1038A000088000BF94F8280100F0010030B994F8B6
:1038B000280120F00200801C84F828011C210A48FD
:1038C000FCF7FDFC00BF00BF00BF002700202880E0
:1038D000032005E4220000006C000020700000209E
:1038E0007200002074000020AC04002041542B50D2
:1038F000494E473D2200000041542B434955504456
:10390000415445002DE9FE4305460C463A200090FF
:1039100006274FF00109288840F26742811A904239
:103920007ED022DC40F2EA32A0EB0201904278D055
:1039300012DC40F2C632A0EB0201904272D006DCEB
:1039400068B3A0F2BA30002841F029825DE00C296A
:1039500069D01829F8D172E119297DD035297CD098
:1039600051297BD06D29EFD1F5E3582900F061870B
:1039700008DC0E2973D02E2972D03F2971D04B2933
:10398000E2D1EAE3642900F0AE87712901F00580F5
:103990008F2901F02781A029D6D101F0CBB9A089C8
:1039A00042F20101884273D1FE48816901A8FEF705
:1039B00079FC00BF0020C4F840012068606100BFAE
:1039C0000A22F9A1FB4800680830FDF73FFA01A878
:1039D000FCF78CFC1FFA80F8424601A9F548006804
:1039E0000830FDF733FA0222F3A1F24800680830EC
:1039F000FDF72CFA002242F20101204601F0B6FF49
:103A000000BF40F2BA30288000BF94F8400100F0B7
:103A1000010060B994F84001C0F3400038B903E0F8
:103A2000F8E365E159E0B1E00020BDE8FE8300BFA6
:103A300094F8400100F0010080F00100207600BF02
:103A400004F12400FDF7A8FC0020A08100BFDB49A1
:103A50000880DB49088005E027E2C9E26FE3DAE38A
:103A6000FAE3FAE3D749088000BF94F8280100F090
:103A7000010030B994F8280120F00200801C84F87D
:103A800028011C21C748FCF71AFC01F087B9FFE7A1
:103A9000A08942F20111884253D100BF0020C4F82E
:103AA00040012068606100BF1122C7A1C1480068C1
:103AB0000830FDF7CBF90222BFA1BE4800680830EC
:103AC000FDF7C4F9002242F20B01204601F04EFF3F
:103AD00000BF40F2C630288000BF94F8400100F0DB
:103AE000010030B994F84001C0F3400008B900204B
:103AF0009BE700BF94F8400100F0010080F0010056
:103B0000207600BF04F12400FDF746FC0020A081D0
:103B100000BFAA490880AA490880AA49088000BFB6
:103B200094F8280100F0010030B994F8280120F041
:103B30000200801C84F828011C219A48FCF7BFFB76
:103B4000A3E7A08942F20211884253D100BF0020AE
:103B5000C4F840012068606100BF10229FA1954811
:103B600000680830FDF772F9022293A191480068BD
:103B70000830FDF76BF9002242F20C01204601F0FB
:103B8000F5FE00BF40F2D230288000BF94F840011B
:103B900000F0010030B994F84001C0F3400008B9CA
:103BA000002042E700BF94F8400100F0010080F0DF
:103BB0000100207600BF04F12400FDF7EDFB00209A
:103BC000A08100BF7D4908807D4908807D4908802B
:103BD00000BF94F8280100F0010030B994F82801E2
:103BE00020F00200801C84F828011C216D48FCF79D
:103BF00066FB4AE7A08942F20311884253D100BF15
:103C00000020C4F840012068606100BF0E2278A146
:103C1000684800680830FDF719F9022266A1654876
:103C200000680830FDF712F9002242F20D0120462B
:103C300001F09CFE00BF40F2DE30288000BF94F807
:103C4000400100F0010030B994F84001C0F3400099
:103C500008B90020E9E600BF94F8400100F0010037
:103C600080F00100207600BF04F12400FDF794FBF2
:103C70000020A08100BF5149088051490880514966
:103C8000088000BF94F8280100F0010030B994F8D2
:103C9000280120F00200801C84F828011C214148E2
:103CA000FCF70DFBF1E6A08942F20411884253D1E2
:103CB00000BF0020C4F840012068606100BF0D22F1
:103CC0004FA13C4800680830FDF7C0F802223AA135
:103CD000384800680830FDF7B9F8002242F20E01BA
:103CE000204601F043FE00BF40F2EA30288000BFCA
:103CF00094F8400100F0010030B994F84001C0F39D
:103D0000400008B9002090E600BF94F8400100F0A0
:103D1000010080F00100207600BF04F12400FDF7CF
:103D20003BFB0020A08100BF244908802449088073
:103D30002449088000BF94F8280100F0010030B940
:103D400094F8280120F00200801C84F828011C212E
:103D50001448FCF7B4FA98E6A08942F205118842AB
:103D60007ED11048466800BF0020C4F8400120689A
:103D7000606100BF0D2226A10E4800680830FDF7E3
:103D800065F808490868FCF7B1FA1FFA80F8054899
:103D900042460168074800680830FDF757F80222DC
:103DA0001FA13FE0AC04002041542B43574D4F442A
:103DB000453D00006C0000200D0A0000700000204E
:103DC000720000207400002041542B43495053548A
:103DD000414D41435F4355523F00000041542B4346
:103DE000495041504D41435F4355523F0000000050
:103DF00041542B4349505354415F4355523F0000B7
:103E000041542B43495041505F4355523F000000FD
:103E100041542B4349505354414D41435F000000EE
:103E20003D220000FC4800680830FDF70FF8062727
:103E30003A2000901AE016F8011B01A8FEF704FAD8
:103E400001A8FCF753FA1FFA80F8424601A9F2488C
:103E500000680830FCF7FAFF47B10122694600E02C
:103E60005FE0ED4800680830FCF7F0FF381EA7F16E
:103E70000101CFB2DFD10122E8A1E7480068083094
:103E8000FCF7E4FF0222AFF2D001E34800680830FB
:103E9000FCF7DCFF002242F20B01204601F066FD38
:103EA00000BF40F20340288000BF94F8400100F0BA
:103EB000010030B994F84001C0F3400008B9002077
:103EC000B3E500BF94F8400100F0010080F001006C
:103ED0002076207E28B956F8061C616336F8020C5D
:103EE000208700BF04F12400FDF756FA0020A081CE
:103EF00000BFCB490880CB490880CB49088000BF70
:103F000094F8280100F0010030B994F8280120F05D
:103F10000200801C84F828011C21C448FCF7CFF95A
:103F2000B3E5A08942F2061188427CD1BF484668B9
:103F300000BF0020C4F840012068606100BF0C226F
:103F4000BBA1B54800680830FCF780FFB749086896
:103F5000FCF7CCF91FFA80F8B44842460168AE4835
:103F600000680830FCF772FF0222AFF24C11AA4839
:103F700000680830FCF76AFF06273A20009018E036
:103F800016F8011B01A8FEF75FF901A8FCF7AEF9CE
:103F90001FFA80F8424601A99F4800680830FCF7E4
:103FA00055FF37B1012269469B4800680830FCF78D
:103FB0004DFF381EA7F10101CFB2E1D1012297A137
:103FC000954800680830FCF741FF0222AFF2182143
:103FD000914800680830FCF739FF002242F20C01DA
:103FE000204601F0C3FC00BF40F21F40288000BF04
:103FF00094F8400100F0010030B994F84001C0F39A
:10400000400008B9002010E500BF94F8400100F01E
:10401000010080F001002076207E48B956F8061C89
:10402000C4F8461000E023E036F8020CA4F84A0079
:1040300000BF04F12400FDF7AFF90020A08100BF0C
:1040400077490880774908807749088000BF94F84D
:10405000280100F0010030B994F8280120F0020096
:10406000801C84F828011C217048FCF728F90CE515
:10407000A08942F20B1188426ED16C48466800BF9D
:104080000020C4F840012068606100BF0A226CA1D2
:10409000614800680830FCF7D9FE64490868FCF7FD
:1040A00025F91FFA80F86148424601685A480068BD
:1040B0000830FCF7CBFE0222AFF29C215648006884
:1040C0000830FCF7C3FE04272E20009018E016F8F5
:1040D000011B01A8FEF7E6F801A8FCF707F91FFA93
:1040E00080F8424601A94C4800680830FCF7AEFE53
:1040F00037B101226946484800680830FCF7A6FE3F
:10410000381EA7F10101CFB2E1D1012243A14248FB
:1041100000680830FCF79AFE0222AFF264313E4894
:1041200000680830FCF792FE002242F20D012046A2
:1041300001F01CFC00BF40F23B40288000BF94F817
:10414000400100F0010048B994F84001C0F340007C
:1041500020B9002069E4BCE02DE0F8E200BF94F84B
:10416000400100F0010080F001002076207E10B9AF
:1041700056F8040CA06200BF04F12400FDF70CF90E
:104180000020A08100BF26490880264908802649D2
:10419000088000BF94F8280100F0010030B994F8BD
:1041A000280120F00200801C84F828011C211F48EF
:1041B000FCF785F869E4A08942F20C1188427DD1B0
:1041C0001A48466800BF0020C4F8400120686061BA
:1041D00000BF09221DA1104800680830FCF736FE18
:1041E00012490868FCF782F81FFA80F80F48424627
:1041F0000168094800680830FCF728FE0222AFF287
:10420000E031054800680830FCF720FE04272E2026
:1042100000903CE0BCE0F3E06C00002022000000D5
:10422000700000207200002074000020AC04002008
:1042300041542B43495041504D41435F0000000021
:1042400041542B4349505354415F000041542B4388
:10425000495041505F00000092E1F1E116F8011B66
:1042600001A8FEF71FF801A8FCF740F81FFA80F834
:10427000424601A9F84800680830FCF7E7FD37B16D
:1042800001226946F44800680830FCF7DFFD381E5B
:10429000A7F10101CFB2E1D10122AFF28001EE48D6
:1042A00000680830FCF7D2FD0222AFF2F441EA4880
:1042B00000680830FCF7CAFD002200E042E042F24C
:1042C0000D01204601F052FB00BF40F2574028800C
:1042D00000BF94F8400100F0010030B994F84001AB
:1042E000C0F3400008B900205BE400BF94F840012F
:1042F00000F0010080F001002076207E10B956F811
:10430000040CA06200BF04F12400FDF745F8002072
:10431000A08100BFD1490880D1490880D1490880D7
:1043200000BF94F8280100F0010030B994F828018A
:1043300020F00200801C84F828011C21CA48FBF7E9
:10434000BEFF56E4A08942F2071188427DD100BF2A
:104350000020C4F840012068606100BF1122C3A1A1
:10436000BD4800680830FCF771FD0222AFF2B85179
:10437000B94800680830FCF769FD002242F20301E9
:10438000204601F0F3FA00BF40F26740288000BFEA
:1043900094F8400100F0010030B994F84001C0F3F6
:1043A000400008B9002055E400BF94F8400100F037
:1043B000010080F001002076207E00B135E000BFD2
:1043C0000020C4F840012068606100BF0822ACA151
:1043D000A14800680830FCF739FD0222AFF22861DD
:1043E0009D4800680830FCF731FD002242F20401CC
:1043F000204601F0BBFA00BF40F27540288000BFA4
:1044000094F8400100F0010030B994F84001C0F385
:10441000400008B900201DE400BF94F8400100F0FE
:10442000010080F00100207600BF00BF04F12400ED
:10443000FCF7B2FF0020A08100BF884908808849AE
:1044400008808849088000BF00E010E094F8280147
:1044500000F0010030B994F8280120F00200801C1F
:1044600084F828011C218048FBF729FF1AE4A08961
:1044700042F2020188427DD17B48C66800BF00201D
:10448000C4F840012068606100BF09227FA1724822
:1044900000680830FCF7DAFC73490868FBF726FF70
:1044A0001FFA80F87048424601686B48006808307F
:1044B000FCF7CCFC0222AFF2986167480068083034
:1044C000FCF7C4FC68494868FDF716F9032272A19D
:1044D000614800680830FCF7B9FC63498868FDF75B
:1044E0000BF90122AFF2CC215B4800680830FCF7E1
:1044F000ADFC86B3022269A1574800680830FCF77A
:10450000A5FC06273A20009018E016F8011B01A828
:10451000FDF79AFE01A8FBF7E9FE1FFA80F8424674
:1045200001A94D4800680830FCF790FC37B1012222
:104530006946494800680830FCF788FC381EA7F136
:104540000101CFB2E1D10122AFF23031424800681F
:104550000830FCF77BFC0222AFF2A4713E480068F1
:104560000830FCF773FC002242F20201204601F001
:10457000FDF900E03EE000BF40F29540288000BF1A
:1045800094F8400100F0010030B994F84001C0F304
:10459000400008B9002093E400BF94F8400100F007
:1045A000010080F001002076207E18B942F203104D
:1045B000A081F3E300BF04F12400FCF7EDFE00202E
:1045C000A08100BF25490880254908802549088029
:1045D00000BF94F8280100F0010030B994F82801D8
:1045E00020F00200801C84F828011C211E48FBF7E3
:1045F00066FED3E3A08942F2050188427DD100BF67
:104600000020C4F840012068606100BF082224A196
:10461000114800680830FCF719FC0222AFF6680167
:104620000D4800680830FCF711FC002242F2050139
:10463000204601F09BF900BF40F2A640288000BF51
:1046400094F8400100F0010080BB94F84001C0F3F1
:10465000400058BB002033E46C00002070000020B4
:104660007200002074000020AC04002041542B4351
:10467000574C41504F50543D312C313237000000DF
:1046800041542B43574C41500000000041542B43F0
:10469000574A41505F000000222C22002C220000CB
:1046A00041542B435751415000000000FFE700BF29
:1046B00094F8400100F0010080F00100207600BF76
:1046C00004F12400FCF768FE0020A08100BFFE4931
:1046D0000880FE490880FE49088000BF94F8280140
:1046E00000F0010030B994F8280120F00200801C8D
:1046F00084F828011C21F74800E002E0FBF7DFFD09
:104700004CE3A08942F20811884254D100BF002036
:10471000C4F840012068606100BF0D22EEA1F2489C
:1047200000680830FCF792FB0222AFF67411EE48E5
:1047300000680830FCF78AFB002242F202012046A2
:1047400001F014F900BF40F2B240288000BF94F895
:10475000400100F0010030B994F84001C0F340007E
:1047600008B900204FE400BF94F8400100F00100B8
:1047700080F00100207600BF04F12400FCF70CFE5D
:104780000020A08100BFD0490880D0490880D049CE
:10479000088000BF94F8280100F0010030B994F8B7
:1047A000280120F00200801C84F828011C21C9483F
:1047B000FBF785FDF2E2A08942F20A0188426CD142
:1047C00000BF0020C4F840012068606100BF0E22D5
:1047D000C6A1C54800680830FCF738FBBD498969A7
:1047E00009B1C6A100E0C6A10846FBF77FFD1FFA8C
:1047F00080F8B848806908B1C0A000E0C0A00146B8
:104800004246B94800680830FCF720FB0222AFF6A8
:104810005821B54800680830FCF718FB002242F226
:104820000A01204601F0A2F800BF40F2BF402880F4
:1048300000BF94F8400100F0010030B994F8400145
:10484000C0F3400008B9002084E400BF94F84001A0
:1048500000F0010080F00100207600BF04F1240088
:10486000FCF79AFD0020A08100BF97490880974976
:1048700008809749088000BF94F8280100F00100E3
:1048800030B994F8280120F00200801C84F8280137
:104890001C219048FBF713FD80E2A08942F207013A
:1048A000884254D100BF0020C4F8400120686061F4
:1048B00000BF082293A18C4800680830FCF7C6FAB4
:1048C0000222AFF60C31884800680830FCF7BEFAC7
:1048D000002242F20701204601F048F800BF40F2F2
:1048E000CB40288000BF94F8400100F0010030B9AF
:1048F00094F84001C0F3400008B900202AE400BF4A
:1049000094F8400100F0010080F00100207600BF23
:1049100004F12400FCF740FD0020A08100BF6A499B
:1049200008806A4908806A49088000BF94F8280115
:1049300000F0010030B994F8280120F00200801C3A
:1049400084F828011C216348FBF7B9FC26E2A08902
:1049500042F20911884254D100BF0020C4F840013E
:104960002068606100BF0D2269A15F4800680830BF
:10497000FCF76CFA0222AFF6C0315B4800680830E1
:10498000FCF764FA002242F20601204600F0EEFF36
:1049900000BF4FF49B60288000BF94F8400100F0F6
:1049A000010030B994F84001C0F3400008B900207C
:1049B0009AE400BF94F8400100F0010080F001008B
:1049C000207600BF04F12400FCF7E6FC0020A08163
:1049D00000BF3D4908803D4908803D49088000BF2F
:1049E00094F8280100F0010030B994F8280120F073
:1049F0000200801C84F828011C213648FBF75FFC6C
:104A0000CCE1A08942F20A1188425BD100BF0020AC
:104A1000C4F840012068606100BF092240A132480B
:104A200000680830FCF712FA2A490868FBF75EFCB8
:104A30001FFA80F82748424601682B480068083072
:104A4000FCF704FA0222AFF6284127480068083034
:104A5000FCF7FCF91F494868FCF74EFE0322AFF251
:104A6000C831214800680830FCF7F0F91949496855
:104A700001F11400FCF740FE02222CA11A48006844
:104A80000830FCF7E3F91348406890F8291001A8B2
:104A9000FDF708FC01A8FBF729FC1FFA80F8424645
:104AA00001A9114800680830FCF7D0F9012220A1C3
:104AB0000D4800680830FCF7C9F90648406890F8CE
:104AC000281037E0F4E000007000002072000020A1
:104AD00074000020AC04002041542B43574A41503D
:104AE0005F4355523F0000006C00002041542B43AF
:104AF000574155544F434F4E4E3D0000310000008A
:104B00003000000041542B43574C49460000000040
:104B100041542B43575341505F4355523F000000CF
:104B200041542B43575341505F000000222C00009A
:104B30002C00000001A8FDF7B5FB01A8FBF7D6FB90
:104B40001FFA80F8424601A9984800680830FCF72F
:104B50007DF90122AFF22801944800680830FCF783
:104B600075F99348406890F82A1001A8FDF79AFB60
:104B700001A8FBF7BBFB1FFA80F8424601A98B484E
:104B800000680830FCF762F90122AFF25C01874847
:104B900000680830FCF75AF98548406890F82B10F7
:104BA00001A8FDF77FFB01A8FBF7A0FB1FFA80F827
:104BB000424601A97D4800680830FCF747F9022207
:104BC000AFF60C61794800680830FCF73FF9002225
:104BD00042F20601204600F0C9FE00BF40F2F64056
:104BE000288000BF94F8400100F0010030B994F82B
:104BF0004001C0F3400008B900200CE400BF94F865
:104C0000400100F0010080F001002076207EF8B124
:104C100000BF04F12400FCF7BFFB0020A08100BF0F
:104C200064490880644908806449088000BF94F89A
:104C3000280100F0010030B994F8280120F00200AA
:104C4000801C84F828011C215948FBF738FBA5E09B
:104C500000BF04F12400FCF79FFB0020A08100BFEF
:104C600054490880544908805449088000BF94F88A
:104C7000280100F0010030B994F8280120F002006A
:104C8000801C84F828011C214948FBF718FB00BF51
:104C900000BF04F12400FCF78DFB08B106207AE484
:104CA000A08908B92068606142F20910A08175E00E
:104CB000A08942F21301884270D100BF0020C4F8DD
:104CC00040012068606100BF07223DA137480068AD
:104CD0000830FCF7BBF83649896911B1AFF2E4112D
:104CE00001E0AFF2E4110846FBF700FB1FFA80F881
:104CF0002F48806910B1AFF2FC1001E0AFF2002044
:104D000001464246294800680830FCF79FF8022215
:104D1000AFF65C71254800680830FCF797F8002270
:104D200042F21301204600F021FE00BF40F207507E
:104D3000288000BF94F8400100F0010030B994F8D9
:104D40004001C0F3400008B9002024E400BF94F8FB
:104D5000400100F0010080F00100207600BF04F166
:104D60002400FCF719FB0020A08100BF1149088036
:104D7000114908801149088000BF94F8280100F00B
:104D8000010030B994F8280120F00200801C84F85A
:104D900028011C210648FBF792FA00BF00BF00BFA4
:104DA0004FF0000900202880032054E46C0000200C
:104DB000AC0400207000002072000020740000206D
:104DC00041542B5750533D002DE9F8430546884682
:104DD0001446002620783038C6B298F80000012129
:104DE000B140084388F80000A41C00E0641C20784F
:104DF00010B120782C28F9D1641C641C002710E025
:104E00006946204600F0E0F9C1B205F1780000EBF8
:104E10004610001DC1559DF80000401C0444781C3C
:104E2000C7B2042FECDB641C6946204600F0CCF9C5
:104E300081B205F1780000EB461041809DF800003A
:104E4000401C04446946204600F0BEF981B205F1D9
:104E5000780000EB461001819DF80000401C0444DE
:104E60002078303808B9012000E0002005F17801F1
:104E700001EB4611097F60F3410105F1780000EB79
:104E800046100177BDE8F883F8B507460C4615468D
:104E900000E0641C207810B120782228F9D1207815
:104EA00000B9F8BD641C002605E014F8012B30465B
:104EB000711CCEB22A54207840B120782228F4D137
:104EC00060782C28F1D1A0782228EED1002230463B
:104ED000711CCEB22A54E41C002305F115022146B0
:104EE000384600F058F913346946204600F06CF952
:104EF000E8769DF80000401C04446946204600F016
:104F000063F900B2A88300BFCBE7F8B506460C46AC
:104F100015462078282800D1641C22212846FBF75A
:104F2000CEF96946204600F04FF928709DF8000040
:104F3000401C04442078222800D1641C00200090EA
:104F400015E02078222803D160782C2800D111E0C8
:104F50009DF80000142804D22178681C9DF80020D8
:104F600081549DF80000401CC0B20090641C207861
:104F70000028E6D100BFA41C6946204600F024F9B1
:104F800000B2E8829DF80000401C044420782228EA
:104F900000D1641C002305F118022146304600F0C0
:104FA000FAF813346946204600F00EF9A8779DF808
:104FB0000000401C04446946204600F005F940B258
:104FC000E8779DF80000401C04446946204600F044
:104FD000FBF885F820009DF80000401C0444F8BD53
:104FE000F8B506460C4615466B462A46214630461D
:104FF00000F08FF89DF80000401C04446B462A1D09
:105000002146304600F0C7F8F8BDF8B507460C4613
:1050100015462C212846FBF752F9002605E014F826
:10502000012B3046711CCEB22A54207840B1207832
:105030002228F4D160782C28F1D1A0782228EED152
:1050400000223046711CCEB22A54E41C002607E030
:1050500014F8012B3046711CCEB205F114010A542C
:10506000207828B120782228F2D160782C28EFD13E
:1050700000223046711CCEB205F114010A54A41C62
:105080006946204600F0A0F8283568709DF80000B9
:10509000401C04446946204600F096F828709DF8AC
:1050A0000000401C04446946204600F08DF8A870BA
:1050B0009DF80000401C04446946204600F084F836
:1050C000E870283DF8BD2DE9F04104460D46002664
:1050D000002707E036012078FDF79AF80644641CA3
:1050E000781CC7B22078302802DB20783928F1DD1F
:1050F0002078612802DB20786628EBDD20784128C3
:1051000002DB20784628E5DD05B12F703046BDE88A
:10511000F0812DE9F84380460D4616461C460427CB
:105120000020009004B1207013E06946284600F08A
:105130004BF806F8010B9DF80000401C054444B1F3
:1051400020789DF800100844207017B12078401C8A
:105150002070381EA7F10101CFB2E6D1BDE8F88377
:10516000F8B506460D461446002020606060A06039
:105170006946284600F028F806F1780101EB401056
:1051800060609DF80000401C05446946284600F018
:105190001BF82081F8BD2DE9F04180460C461546EC
:1051A0001E46062706E000212046FFF78CFF05F883
:1051B000010BE41C381EA7F10101CFB2F3D10EB1EF
:1051C00011203070BDE8F08170B502460025002442
:1051D000002310782D2803D10125521C601CC4B275
:1051E00007E0107830380A2603FB0603521C601CC7
:1051F000C4B21078302802DB10783928F1DD01B113
:105200000C700DB1584270BD1846FCE72DE9F0470F
:105210000446884608F101050027B94698F8006061
:1052200028780D2804D168780A2801D1BDE8F087D4
:10523000FEA12846FBF761F808B9012000E0002034
:105240000746A7B9FBA12846FBF757F808B9012084
:1052500000E000208146B9F1000F08D1F7A12846EF
:10526000FBF74BF808B9012000E00020814677B930
:10527000B9F1000F0BD1F4A12846FBF73EF830B985
:1052800094F8400120F00800083084F84001A0891B
:1052900041F20301884246D12878412802D028787B
:1052A000612812D1EA48006878B10D2E0DDDA6F113
:1052B0000D02E749086805F10B01FBF70BF8002127
:1052C000E3480268A6F10D0011542878532802D053
:1052D0002878732810D1DE48406868B1A6F10E0224
:1052E000DB49486805F10C01FAF7F4FF0021D848C2
:1052F0004268A6F10E0011542878432802D028787D
:10530000632810D1D248806868B1A6F10F02D04955
:10531000886805F10D01FAF7DDFF0021CC488268AD
:10532000A6F10F001154A08942F20B01884219D155
:1053300028782B2816D10A22C6A12846FAF7EBFFB7
:1053400080B9002304F1340205F110012046FFF773
:1053500022FFBF48C06828B1BD48C068616B0160CA
:10536000218F8180A08942F20C0188421BD12878CC
:105370002B2818D10922BAA12846FAF7CCFF90B9F8
:10538000002304F1460205F10F012046FFF703FF59
:10539000AF48C06838B1AE48C068D4F84610016064
:1053A000B4F84A108180A08942F20D01884232D1BE
:1053B00028782B282FD10822ACA12846FAF7ABFF7A
:1053C00048BB287B69280FD1002304F1280205F18E
:1053D00010012046FFF79DFE9D48C068D8B19C484B
:1053E000C068A16A016016E0287B672808D1002305
:1053F00004F12C0205F115012046FFF78AFE0AE0B0
:10540000287B6E2807D1002304F1300205F1150135
:105410002046FFF77EFEA08942F20E01884232D17B
:1054200028782B282FD1072293A12846FAF773FF5B
:1054300048BBE87A69280FD1002304F13A0205F14C
:105440000F012046FFF765FE8148C068D8B180484B
:10545000C068A16A016016E0E87A672808D10023D5
:1054600004F13E0205F114012046FFF752FE0AE066
:10547000E87A6E2807D1002304F1420205F11401F5
:105480002046FFF746FEA08942F2070188421DD15F
:10549000287830281ADB2878392817DC6C4800690E
:1054A00000886B498969884210D269482946C268D8
:1054B0002046FFF795FD6648C0680A306449C86019
:1054C000084600690088401C0969088028782B2854
:1054D00022D1A08942F2040188421DD1062268A18E
:1054E0002846FAF718FFB8B95948006900885849A2
:1054F0008969884210D25648E91DC2682046FFF7E4
:1055000004FD5348C06822305149C860084600690C
:105510000088401C09690860A08942F2060188429F
:105520000CD1062258A12846FAF7F5FE30B904F14D
:105530004C0205F10C012046FFF767FDA08942F2FD
:105540000201884214D152A12846FAF7D6FE10B9BA
:105550004FF001090CE00A224FA12846FAF7DBFEC2
:1055600030B93B4805F10A01C2682046FFF78CFCC0
:10557000A08943F2120188420FD128782B280CD140
:105580006878302809DB6878392806DC0021681C37
:10559000FFF71AFE2E49C968086042A12846FAF7AB
:1055A000ACFEA8B9A08942F20201884208D140F2BB
:1055B0004110005D20F00400001D40F2411108552B
:1055C00094F82C0120F00100401C84F82C018FE09D
:1055D00039A12846FAF791FEA8B9A08942F2020142
:1055E000884208D140F24110005D20F008000830E8
:1055F00040F24111085594F82C0120F00200801C63
:1056000084F82C0174E031A12846FAF776FE58B9E7
:10561000A08942F20201884263D140F24110005D4C
:1056200020F01000103059E062E05AE04F4B0D0AB4
:10563000000000004552524F520D0A006275737906
:1056400020702E2E2E0D0A0072656164790D0A00FD
:10565000AC0400202B4349505354414D41430000BA
:105660002B43495041504D41430000002B434950CA
:105670005354415F000000002B43495041505F00EC
:105680002B43574C415000002B43575341500000CF
:105690004641494C0D0A00002B43574A41505F4395
:1056A000555200005749464920434F4E4E454354FA
:1056B00045440D0A0000000057494649204449531B
:1056C000434F4E4E4543540D0A000000574946498A
:1056D00020474F542049500D0A00000040F241116C
:1056E000085594F82C0120F00400001D84F82C01CA
:1056F000082273A1681CFAF70EFE98B92978303990
:1057000004F1780202EB4110297830390170017FF1
:1057100021F00101491C0177417F21F00101491C61
:10572000417719E0072269A1681CFAF7F4FD98B9DE
:105730002878303804F1780101EB401A00BF2021AD
:105740005046FAF7BCFD00BF9AF81D0020F0020099
:10575000801C8AF81D0000BFA08943F20101884225
:1057600032D10A225BA12846FAF7D5FD38B905F1F6
:105770000B0204F219112046FFF726FB24E01FB3A9
:10578000002000BF19E094F8191101228240114055
:1057900001228240914201D1012100E0002104F167
:1057A000780202EB4012127F61F3000204F17801EB
:1057B00001EB40110A77411CC8B20528E3DB94F8DD
:1057C000191184F8181100BFA08943F2050188421D
:1057D0001ED1072242A12846FAF79DFD48B940F2A2
:1057E0004110005D20F00100401C40F241110855BD
:1057F0000EE009223CA12846FAF78DFD40B940F29F
:105800004110005D20F00200801C40F2411108555B
:10581000A08943F2020188420DD10A2235A128460F
:10582000FAF779FD38B93648002305F10B01C26853
:105830002046FFF76EFC042232A12846FAF76BFDE2
:10584000E8B904F58E72691D2046FFF789FC012036
:1058500084F81C014FF490700059406920B9216808
:105860004FF49070005981614FF49071095901F122
:1058700014004A694FF49271095B114401606FB1E1
:1058800094F8400120F00100401C84F8400194F895
:10589000400120F0020084F840010FE0B9F1000F50
:1058A0000CD094F8400120F0010084F8400194F8F5
:1058B000400120F00200801C84F8400100BFB5E4E4
:1058C0002C434F4E4E454354000000002C434C4F98
:1058D000534544002B434950535441545553000001
:1058E00053454E44204F4B0053454E4420464149BA
:1058F0004C0000002B434950444F4D41494E00009D
:10590000AC0400202B4950440000000010B50446B0
:10591000A089B0F5805F07DBA089B0F5005F03DAEE
:1059200021460F48FCF7CAFCA089B0F5005F07DBF1
:10593000A089B0F5405F03DA21460A48FDF7E2FF8F
:10594000A089B0F5405F07DBA089B0F5804F03DA8E
:1059500021460548FCF7BEFF00BF0020207110BDA6
:10596000700000207200002074000020034699811E
:105970001A61186858610020187643F201008142CC
:1059800002D1002083F819010020704710B5FBF701
:10599000DDFE10BD1448006840F470001249086034
:1059A0001248006840F001001049086000200F49CB
:1059B000083108600D4800680D4908400B4908602F
:1059C0000C48091D0860081F006820F48020091F8A
:1059D0000860002005490C3108604FF00060024962
:1059E000803908607047000088ED00E00038024010
:1059F000FFFFF6FE1030002430B5014609B9002043
:105A000030BD4A688B689A4200D10C68934200D935
:105A10009C1A9A4202D9D51A0868441B601EEFE707
:105A20002DE9F0470446894615464FF0000804B1B9
:105A300015B90020BDE8F087D4E90010884201D3F1
:105A4000002060602046FFF7D7FF0746AF4203D231
:105A50000FB90020EEE73D46D4E90001461AAE42F8
:105A600000D92E466268E168881832464946FAF73E
:105A70000DFCB044606830446060AD1B55B100203F
:105A800060606368E268D01809EB08012A46FAF7FB
:105A9000FDFB6560D4E90010884201D300206060FE
:105AA00008EB0500C6E7000010B501210248FBF72E
:105AB00001FE01F0D7F810BDCC0100200F480068AE
:105AC00020F080700D4A10601046006840F0807031
:105AD00010600B48006820F00100094A1060104671
