:020000040800F2
:10000000F0000120690200083D230008E1220008F9
:1000100039230008990500084D620008000000001F
:10002000000000000000000000000000AD0100081A
:100030009D06000800000000010200084557000866
:10004000830200088302000883020008830200087C
:10005000830200088302000883020008830200086C
:100060008302000883020008830200089D0500083F
:10007000AD050008BD050008CD050008DD05000838
:10008000ED050008FD0500088302000800000000DF
:1000900000000000000000000000000083020008D3
:1000A000830200088302000883020008830200081C
:1000B000830200088302000883020008830200080C
:1000C00083020008830200088302000883020008FC
:1000D00083020008D1610008F561000800000000FB
:1000E0008302000883020008830200080000000069
:1000F0000000000000000000000000000D060008E5
:100100000000000083020008830200088302000848
:1001100000000000000000000000000000000000DF
:100120001D0600082D0600083D0600084D060008C3
:100130005D06000800000000000000000000000054
:100140000000000000000000000000008302000822
:100150006D0600087D0600088D0600082162000873
:100160008302000883020008000000000000000075
:10017000000000000000000000000000000000007F
:1001800000000000830200080000000000000000E2
:100190008302000883020008DFF80CD000F0F8F8B2
:1001A0000048004771670008F00001202B4B1968D8
:1001B0000868B0E8F04F80F30988BFF36F8F4FF005
:1001C000000080F3118870470000000006480068B6
:1001D000006880F3088862B661B6BFF34F8FBFF343
:1001E0006F8F00DF00BF00BF08ED00E0DFF80C00FC
:1001F000016841F470010160704700BF88ED00E0C4
:10020000EFF30980BFF36F8F144B1A681EF0100FC5
:1002100008BF20ED108A20E9F04F106008B44FF0BD
:10022000500080F31188BFF34F8FBFF36F8F07F03B
:100230000FF84FF0000080F3118808BC19680868B7
:10024000B0E8F04F1EF0100F08BFB0EC108A80F33A
:100250000988BFF36F8F704700BF00BF7C0000208C
:10026000EFF30580704700000648804706480047C6
:10027000FEE7FEE7FEE7FEE7FEE7FEE7FEE7FEE756
:10028000FEE7FEE74D5700089901000840EA010328
:100290009B0703D009E008C9121F08C0042AFAD23C
:1002A00003E011F8013B00F8013B521EF9D2704700
:1002B000D2B201E000F8012B491EFBD270470022A8
:1002C000F6E710B513460A4604461946FFF7F0FF55
:1002D000204610BD421C10F8011B0029FBD1801ADA
:1002E000704710B5002200E0521C835C8C5CA34276
:1002F00001D1002BF8D1D8B2E1B2401A10BD0346AB
:1003000011F8012B00F8012B002AF9D1184670478B
:1003100030B505460020034600E05B1C934205D241
:10032000EC5CC85C201A01D1002CF6D130BD2DE95F
:10033000F05F0546002092469B4688460646814669
:1003400040241BE0284641464746224600F041F83B
:1003500053465A46C01A914110D3114618462246B8
:1003600000F028F82D1A67EB01084F4622460120BD
:10037000002100F01FF817EB00094E41201EA4F1E8
:100380000104DFDC484631462A464346BDE8F09F7B
:10039000064C074D06E0E06840F0010394E80700D2
:1003A00098471034AC42F6D3FFF7FAFE207C0008E1
:1003B000407C0008202A04DB203A00FA02F10020E9
:1003C00070479140C2F1200320FA03F31943904093
:1003D0007047202A04DB203A21FA02F000217047FE
:1003E00021FA02F3D040C2F120029140084319469D
:1003F000704730B50146002409B9002030BD4A6875
:100400008B689A4200D10C68934200D99C1A9A4298
:1004100002D9D51A0868441B601EEFE730B50346C1
:100420000BB9002030BD59689A68914200D1002470
:10043000914200D98C1A8A4202D9551A1868441B75
:100440002046EFE770B504460D4616460CB901206C
:1004500070BD18212046FFF732FF2560E6600A20B4
:100460006074E06868B9284606F0DCF9E060E0688E
:1004700018B9002020600120EAE7207C40F002004B
:100480002074207C40F0010020740020E0E72DE97A
:10049000F0470446884615464FF0000904B115B9E7
:1004A0000020BDE8F0872168A068884201D30020C1
:1004B000A0602046FFF7B2FF0746AF4203D20FB954
:1004C0000020EEE73D46A1682068461AAE4200D9FA
:1004D0002E46D4E90220811832464046FFF7D6FE68
:1004E000B144A0683044A060AD1B35B108EB0900F1
:1004F0002A46E168FFF7CAFEA5602168A068884225
:1005000001D30020A06009EB0500CAE700B97047DD
:1005100000214160816000BFF9E72DE9F047044602
:10052000894615464FF0000804B115B90020BDE812
:10053000F087D4E90010884201D300206060204693
:10054000FFF757FF0746AF4203D20FB90020EEE78F
:100550003D46D4E90001461AAE4200D92E466268F3
:10056000E168881832464946FFF790FEB04460685B
:1005700030446060AD1B35B109EB08012A46E068E4
:10058000FFF784FE6560D4E90010884201D30020A3
:10059000606008EB0500CAE700BFFEE710B502483F
:1005A00005F0F1F910BD00001060024010B50248DE
:1005B00005F0E9F910BD00002860024010B50248BE
:1005C00005F0E1F910BD00004060024010B502489E
:1005D00005F0D9F910BD00005860024010B502487E
:1005E00005F0D1F910BD00007060024010B502485E
:1005F00005F0C9F910BD00008860024010B502483E
:1006000005F0C1F910BD0000A060024010B502481D
:1006100005F0B9F910BD0000B860024010B50248FD
:1006200005F0B1F910BD00001064024010B5024899
:1006300005F0A9F910BD00002864024010B5024879
:1006400005F0A1F910BD00004064024010B5024859
:1006500005F099F910BD00005864024010B5024839
:1006600005F091F910BD00007064024010B5024819
:1006700005F089F910BD00008864024010B50248F9
:1006800005F081F910BD0000A064024010B50248D9
:1006900005F079F910BD0000B86402407047000011
:1006A0002DE9F04704460E4617461D46DDF820901A
:1006B00000BF0EB107B125B900BF04202071BDE80D
:1006C000F08700BF00BFA08928B941F65050005DF7
:1006D000C0F3400018B100BF09202071EFE700BF50
:1006E00000BF04F1240000F0B3FE08B10620E6E7E5
:1006F000A08908B92068606142F20700A08100BFAC
:10070000002028601648C6600561876100BFB9F106
:10071000000F0BD141F65050005D20F0010141F671
:100720005050015500BF00202071C8E741F65050DD
:10073000005D20F00100401C41F65051085542F286
:100740001071204601F02AF88046B8F1060F01D159
:100750000620B4E794F81880002020764046AEE7E3
:10076000E02300202DE9F04104460D461746984647
:1007700000BF25B900BF04202071BDE8F08100BF93
:1007800000BFA08928B941F65050005DC0F3400079
:1007900018B100BF09202071EFE700BF00BF04F1CE
:1007A000240000F055FE08B10620E6E7A08908B94C
:1007B0002068606142F20A10A08100BF0FB117A04B
:1007C00000E017A0174908600846456000BFB8F16F
:1007D000000F0BD141F65050005D20F0010141F6B1
:1007E0005050015500BF00202071C6E741F650501F
:1007F000005D20F00100401C41F6505108554FF4B7
:100800007A71204600F0CAFF0646062E00D1B4E7F2
:10081000267E002020763046AFE7000044454600A3
:1008200043555200E023002070B504460D461CB924
:1008300003A005F00DFD00E000BF00BF002070BD6B
:10084000537461636B2069732049444C45210D0A40
:1008500000000000024600207047000070B504460A
:100860000D462A4621460348FFF757FE0646B0B21A
:1008700070BD0000441F00202DE9F04104460F46E2
:1008800016463225DFF8F883FE48046041F66C51C5
:100890002046FFF714FD41F6585006510EB9FA49AB
:1008A000015100202060F94A40F2FF314046FFF735
:1008B000C9FDA76004F1080000F04AFB20B100BFA9
:1008C00002202071BDE8F08104F1240000F0A2FDB7
:1008D00018B100BF03202071F4E700BF0020EC49ED
:1008E0000880EC490880EC49088000BF41F6505070
:1008F000005D20F00100401C41F6505108554FF4B6
:100900007A70E06139E000BF04F1240000F0A0FD3E
:1009100008B10620D6E7A08908B92068606141F2D5
:100920000200A08100BFE169204600F037FF00BF50
:1009300004F1240000F07EFD0020A08100BFD44916
:100940000880D4490880D449088000BF41F650503F
:10095000005D00F0010040B941F65050005D20F00C
:100960000200801C41F6505108551C21CB48FFF76E
:10097000A6FC00BF207E00B903E0281EA5F10105FA
:10098000C1D100BF6420E06139E000BF04F1240060
:1009900000F05EFD08B1062094E7A08908B9206840
:1009A000606141F20100A08100BFE169204600F0D2
:1009B000F5FE00BF04F1240000F03CFD0020A08102
:1009C00000BFB3490880B3490880B349088000BF1D
:1009D00041F65050005D00F0010040B941F6505022
:1009E000005D20F00200801C41F6505108551C218A
:1009F000AA48FFF764FC00BF207E00B903E0281E70
:100A0000A5F10105C1D100BF39E000BF04F1240008
:100A100000F01EFD08B1062054E7A08908B920683F
:100A2000606141F20300A08100BFE169204600F04F
:100A3000B5FE00BF04F1240000F0FCFC0020A08102
:100A400000BF93490880934908809349088000BFFC
:100A500041F65050005D00F0010040B941F65050A1
:100A6000005D20F00200801C41F6505108551C2109
:100A70008A48FFF724FC00BF207E00B903E0281E4F
:100A8000A5F10105C1D100BF3CE000BF04F1240085
:100A900000F0DEFC08B1062014E7A08908B9206840
:100AA000606142F20100A08100BF03207B498861A0
:100AB000E169204600F072FE00BF04F1240000F05E
:100AC000B9FC0020A08100BF7149088071490880ED
:100AD0007149088000BF41F65050005D00F00100F0
:100AE00040B941F65050005D20F00200801C41F6F4
:100AF000505108551C216948FFF7E1FB00BF207EDB
:100B000000B903E0281EA5F10105BED100BF3CE0FD
:100B100000BF04F1240000F09BFC08B10620D1E6E0
:100B2000A08908B92068606143F20D00A08100BF70
:100B300001205A498861E169204600F02FFE00BF7C
:100B400004F1240000F076FC0020A08100BF504991
:100B50000880504908805049088000BF41F6505035
:100B6000005D00F0010040B941F65050005D20F0FA
:100B70000200801C41F6505108551C214748FFF7E0
:100B80009EFB00BF207E00B903E0281EA5F10105F1
:100B9000BED100BF3CE000BF04F1240000F058FCCF
:100BA00008B106208EE6A08908B92068606143F28A
:100BB0001400A08100BF012038498861E169204606
:100BC00000F0ECFD00BF04F1240000F033FC002035
:100BD000A08100BF2E4908802E4908802E49088038
:100BE00000BF41F65050005D00F0010040B941F6F1
:100BF0005050005D20F00200801C41F65051085515
:100C00001C212648FFF75BFB00BF207E00B903E0F4
:100C1000281EA5F10105BED100BF4DE000BF04F1C3
:100C2000240000F015FC08B106204BE6A08908B9A5
:100C30002068606142F20110A08100BF01201749C5
:100C40008861E169204600F0A9FD00BF04F124009D
:100C500000F0F0FB0020A08100BF0D4908800D4985
:100C600008800D49088000BF41F65050005D00F03B
:100C70000100C8B941F65050005D20F002000FE0BD
:100C8000441F00205C000020550800085C1F002065
:100C9000600000206200002064000020E0230020AB
:100CA000801C41F6505108551C21A548FFF707FB51
:100CB00000BF207E00B903E0281EA5F10105ADD1DB
:100CC00000BF3CE000BF04F1240000F0C1FB08B10C
:100CD0000620F7E5A08908B92068606142F2021099
:100CE000A08100BF012096498861E169204600F09B
:100CF00055FD00BF04F1240000F09CFB0020A08102
:100D000000BF90490880904908809049088000BF42
:100D100041F65050005D00F0010040B941F65050DE
:100D2000005D20F00200801C41F6505108551C2146
:100D30008348FFF7C4FA00BF207E00B903E0281EF5
:100D4000A5F10105BED100BF3CE000BF04F12400C5
:100D500000F07EFB08B10620B4E5A08908B9206840
:100D6000606142F20310A08100BF012074498861D4
:100D7000E169204600F012FD00BF04F1240000F0FC
:100D800059FB0020A08100BF6E4908806E49088091
:100D90006E49088000BF41F65050005D00F0010030
:100DA00040B941F65050005D20F00200801C41F631
:100DB000505108551C216248FFF781FA00BF207E80
:100DC00000B903E0281EA5F10105BED100BF3CE03B
:100DD00000BF04F1240000F03BFB08B1062071E5E0
:100DE000A08908B92068606142F20410A08100BFA8
:100DF000012053498861E169204600F0CFFC00BF23
:100E000004F1240000F016FB0020A08100BF4D4932
:100E100008804D4908804D49088000BF41F6505078
:100E2000005D00F0010040B941F65050005D20F037
:100E30000200801C41F6505108551C214048FFF724
:100E40003EFA00BF207E00B903E0281EA5F101058F
:100E5000BED100BF39E000BF04F1240000F0F8FA71
:100E600008B106202EE5A08908B92068606142F229
:100E70000910A08100BFE169204600F08FFC00BF8F
:100E800004F1240000F0D6FA0020A08100BF2D4913
:100E900008802D4908802D49088000BF41F6505038
:100EA000005D00F0010040B941F65050005D20F0B7
:100EB0000200801C41F6505108551C212048FFF7C4
:100EC000FEF900BF207E00B903E0281EA5F1010550
:100ED000C1D100BF00BF04F1240000F0ABFA002034
:100EE000A08100BF1749088017490880174908806A
:100EF00000BF41F65050005D00F0010040B941F6DE
:100F00005050005D20F00200801C41F65051085501
:100F10001C210B48FFF7D3F900BF41F65050005D8C
:100F200020F0010141F650500155005D20F0020112
:100F300041F65050015500BF207E2071207EC1E453
:100F4000E0230020600000206200002064000020F8
:100F50001CB5044600210748226804F0D7FF002092
:100F6000012103460A46CDE90010034804F0BAFD0A
:100F700000201CBD001001400000024070B5064674
:100F80000C4615462A462146024804F0F8FF002088
:100F900070BD0000001001400246012903D1080481
:100FA000034B986102E00120014B986100207047DB
:100FB000000002401CB53F4A4FF4E1313E48FFF7C4
:100FC0005BFC3E49087018B93DA005F041F904E00A
:100FD0003A48017842A005F03BF90021364880F8F4
:100FE0007710032180F8761045A14C30FFF787F980
:100FF00046A131486030FFF782F903212E4880F87E
:1010000074100123002200F14C01FFF7ABFB2B49C8
:10101000087018B940A005F01BF904E027480178D2
:101020004CA005F015F944E0234800F0EBF804F07B
:101030002DFC00283DD00120534B03225349009042
:101040001D48FFF72DFB1D490870002831D14E487F
:10105000006800282AD000244B4801684CA005F005
:10106000F7F800BF1DE004EB8400484901EB4000A5
:10107000C07804EB8401454A02EB41018978CDE94F
:10108000001004EB8400114601EB4000437804EBB0
:10109000840011F81020214648A005F0D9F8601C02
:1010A000C4B2394800688442DDD302E04AA005F0AA
:1010B000CFF8B9E729080008B8010020480000204F
:1010C000455350206D6F64756C6520696E6974209E
:1010D0007375636365737366756C6C79210D0A00B3
:1010E00045535020496E6974206572726F722E20CC
:1010F0005374617475733A2025640D0A0000000072
:101100004553505F41505F52544F53006D797061A9
:101110007373776F7264000041636365737320704B
:101120006F696E742073657474696E677320617281
:1011300065207365742E20596F75206D6179206369
:101140006F6E6E65637420746F204150206E6F77F0
:101150000D0A000050726F626C656D7320747279B5
:10116000696E6720746F20736574206163636573B3
:101170007320706F696E742073657474696E677321
:101180003A2025640D0A00004C000020241F002096
:1011900025642073746174696F6E28732920666FEB
:1011A000756E64206F6E20736F6674204163636593
:1011B000737320506F696E740D0A00004465766980
:1011C00063652025643A2025642E25642E25642E2F
:1011D00025640D0A000000004E6F2073746174696D
:1011E0006F6E7320636F6E6E656374656420746FD9
:1011F000206F75722041636365737320506F696E51
:10120000740D0A0070B504460026A089A0B941F605
:101210005050005DC0F3400070B141F65050005D89
:1012200020F0020141F65050015541F65850025944
:10123000001D211800209047A08998B941F654500C
:10124000005D00F0010068B141F65450005D20F0EF
:10125000010141F654500155001D0259001D21188D
:1012600002209047A08998B941F65450005DC0F320
:10127000400068B141F65450005D20F0020141F693
:1012800054500155001D0259001D2118032090479C
:10129000A08998B941F65450005DC0F3800068B150
:1012A00041F65450005D20F0040141F654500155C0
:1012B000001D0259001D2118042090470026A1E0BE
:1012C00040F2E120704304F1780101EB4005A08970
:1012D00030BB41F65050005DC0F3400000BB95F8B4
:1012E000C105C0F30010D8B195F8C10520F0100079
:1012F00085F8C10541F65C50055105F1090041F63C
:101300005C5121444860B5F8BE0541F65C5121446A
:10131000886041F658500259001D2118012090475D
:10132000A089C8B941F65050005DC0F3400098B99B
:1013300095F8C105C0F3800070B195F8C10520F0A3
:10134000040085F8C10541F65C500551001F0259A3
:10135000001D211808209047A089C8B941F65050B7
:10136000005DC0F3400098B995F8C105C0F3C00016
:1013700070B195F8C10520F0080085F8C10541F667
:101380005C500551001F0259001D2118092090478B
:10139000A089C8B941F65050005DC0F3400098B92B
:1013A00095F8C10500F0010070B195F8C10520F075
:1013B000010085F8C10541F65C500551001F025936
:1013C000001D211806209047A089C8B941F6505049
:1013D000005DC0F3400098B995F8C105C0F3400026
:1013E00070B195F8C10520F0020085F8C10541F6FD
:1013F0005C500551001F0259001D2118072090471D
:10140000701CC6B2052EFFF45BAF00BF0020207138
:1014100070BD000010B50446204605F03EFA0449B0
:1014200008600846006808B9012010BD0020FCE7EC
:101430007800002010B504460448006805F034FA2E
:1014400008B1012010BD0020FCE70000780000205A
:1014500010B504464FF47A710448006805F04CFA60
:1014600008B1012010BD0020FCE70000780000203A
:10147000F8B50446B94D4FF4FA76A08970B12068EA
:101480006169401AE169884208D941F66850005DF7
:1014900020F00200801C41F66851085550E141F6E9
:1014A0004450005D00287DD041F64450204400891E
:1014B0000028F8D0A089C0B900BF04F12400FFF7CC
:1014C000C7FF08B10620F8BDA08908B9206860618F
:1014D00043F21500A08100BF41F65050005D20F09E
:1014E0000100401C41F6505108559DF8001041F68E
:1014F000445020444068093041F644522244528905
:10150000815441F6445020444089401C41F64451E6
:101510002144488141F6445020440089401E41F650
:1015200044512144088141F644502044008958BB6D
:10153000002141F644500155A08943F2150188422B
:1015400022D100BF04F12400FFF774FF0020A08126
:1015500000BF83490880834908808349088000BF11
:1015600041F65050005D00F0010040B941F6505086
:10157000005D20F00200801C41F6505108551C21EE
:101580007A48FEF79CFE00BF41F644502044408953
:1015900040F2B351884207DA41F6445020440089B2
:1015A000002800E04AE048D141F644502044416818
:1015B00041F65C50015141F64450204440680930E6
:1015C00041F65C512144486041F644502044408932
:1015D00041F6445121444968A1F8BE0541F6445002
:1015E0002044408941F65C512144886041F64450D2
:1015F0002044008988B141F658500259001D211835
:101600000120904741F644512144496801F2C150FC
:10161000017821F0100101700AE041F644512144A3
:10162000496801F2C150017821F0100110310170B8
:10163000002041F644512144488179E09DF80000A2
:10164000202803DB9DF800007E2807DD9DF80000C0
:101650000D2803D09DF800000A2863D19DF80000F2
:101660000A281BD100BF9DF800104148027800787D
:10167000401C3F4B1870581C81540021401E0278BA
:10168000401C815400BF411E204603F021FD00BFD5
:10169000002037490870487000BF42E09DF8000004
:1016A000202810D1334800783E280CD132480078E9
:1016B0000A2808D141F66850005D20F00400001DA2
:1016C00041F66851085500BF9DF80010284802787F
:1016D0000078401C264B1870581C81540021401E75
:1016E0000278401C815400BF9DF800003A2817D1B1
:1016F00018460078042813DD184640782B280FD1AF
:1017000004221EA1581CFEF703FE48B918492046C2
:1017100003F0DEFC00BF002015490870487000BFD0
:1017200000BF05E000BF002011490870487000BFED
:1017300010480078104908709DF800000D490870A5
:101740003EB1012269462846FEF7A1FE00287FF43B
:10175000A6AE204603F0BEFFB5E60000441F002001
:10176000600000206200002064000020E0230020D0
:101770005C23002074000020750000202B49504499
:101780000000000002680A440260704702E002485C
:10179000FFF76EFEFBE70000B801002070B50446BD
:1017A0000D46E56100BF2046FFF72CFDA08900280B
:1017B000F9D141F65050005DC0F340000028F2D14D
:1017C00000BF207E2071207E70BD000038B5044629
:1017D0005C20009017E020782C2805D02078222863
:1017E00002D020785C2806D10122694608480068AA
:1017F0000830FFF7C3FB2146641C0122044800683F
:101800000830FFF7BBFB20780028E4D138BD00008A
:101810005C000020014800687047000004000020C0
:1018200010B52E480068401C2C4908602C48006800
:1018300020B12B480068401E29490860002444E07C
:10184000284850F8240000283DD0264850F82400AD
:101850000078C0F34000B0B3224850F824008068FC
:1018600040B1204850F824008068401E1D4951F8BE
:10187000241088601B4850F82400806818BB194B5E
:1018800053F824301969174B53F8240053F82430C7
:10189000DA689047134850F824004168114850F81E
:1018A000240081600F4850F82400007800F0010007
:1018B00048B90C4850F82400007820F0020109488B
:1018C00050F824000170601CC4B20648001F007864
:1018D000A042B5DC03F09EFF10BD00000400002014
:1018E000000000200401002010B50D48006840F4FD
:1018F00000700B4908600846006840F4806008608A
:101900000846006840F480700860032000F086F804
:101910000F2000F007F800F017F8002010BD0000BD
:10192000003C024070B5044600F0E4F94FF47A71CF
:10193000B0FBF1F5284600F081FC00222146501E44
:1019400000F02DF8002070BD7047000000BF00F0CF
:101950001F0201219140034A430942F8231000BFAE
:101960007047000080E200E000BF00F01F0201218C
:101970009140034A430942F8231000BF704700001A
:1019800080E100E000BF00F01F0201219140420908
:10199000920002F1E022C2F8001100BF70472DE969
:1019A000F05F80460D461646002700F0C9FC07464A
:1019B00039462A46334601F00700C0F1070ABAF15A
:1019C000040F02D94FF0040A01E0C0F1070AD14622
:1019D00000F1040ABAF1070F02D24FF0000A01E049
:1019E000A0F1030AD4464FF0010A0AFA09FAAAF153
:1019F000010A0AEA020A0AFA0CFA4FF0010B0BFA82
:101A00000CFBABF1010B0BEA030B4AEA0B0421467A
:101A1000404600F09DFCBDE8F09F000000BF00F0D4
:101A20000702064B19684FF6FF031940044B0B439E
:101A300043EA0221014B196000BF70470CED00E042
:101A40000000FA0570B504460E460025A748006858
:101A500000F00F00B0426FD2A4490E700846006833
:101A600000F00F00B04201D0012070BD207800F0DE
:101A70000200022807D19E48006820F0F000A1680B
:101A800008439B490860207800F0010000283ED000
:101A90006068012807D1964808380068C0F34040C4
:101AA000B8B90120E1E76068022802D06068032825
:101AB00007D18F4808380068C0F3406048B901205A
:101AC000D3E78B4808380068C0F3400008B901200C
:101AD000CBE78748006820F0030061680843844929
:101AE0000860FFF797FE05466068012810D108E0FE
:101AF000FFF790FE401B41F28831884201D9032054
:101B0000B3E77B48006800F00C000428F0D1CDE07A
:101B10006068022811D108E0FFF77CFE401B41F20B
:101B20008831884201D903209FE77148006800F09E
:101B30000C000828F0D1B9E024E06068032810D137
:101B400008E0FFF767FE401B41F28831884201D967
:101B500003208AE76648006800F00C000328F0D1F3
:101B6000A4E008E0FFF756FE401B41F288318842AE
:101B700001D9032079E75E48006800F00C000028D6
:101B8000F0D193E0207800F00200022807D15848F5
:101B9000006820F0F000A1680843554908602078EB
:101BA00000F00100002877D06068012807D1504874
:101BB00008380068C0F34040B8B9012055E76068B4
:101BC000022802D06068032807D149480838006815
:101BD000C0F3406048B9012047E74548083800682D
:101BE000C0F3400008B901203FE74148006820F0F9
:101BF0000300616808433E490860FFF70BFE054695
:101C00006068012810D108E0FFF704FE401B41F294
:101C10008831884201D9032027E73548006800F061
:101C20000C000428F0D137E06068022810D108E0E9
:101C3000FFF7F0FD401B41F28831884201D90320B3
:101C400013E72B48006800F00C000828F0D123E0CF
:101C50006068032810D108E0FFF7DCFD401B41F26B
:101C60008831884201D90320FFE62148006800F04E
:101C70000C000328F0D10FE008E0FFF7CBFD401B7C
:101C800041F28831884201D90320EEE61848006805
:101C900000F00C000028F0D114490E7008460068CE
:101CA00000F00F00B04201D00120DEE6207800F005
:101CB0000400042807D10E48006820F4E050E168D1
:101CC00008430B490860207800F00800082808D174
:101CD0000748006820F46040216940EAC1000449D7
:101CE00008600F20FFF71EFE0020BEE6003C024009
:101CF0000838024010B500F045F80949096801F0BC
:101D0000F001F02292FAA2F2B2FA82F2D140054A30
:101D1000515CC840044908600846006810BD0000D6
:101D200008380240BC7B00085800002010B5FFF7BF
:101D3000E1FF0749096801F4E0514FF4E05292FADB
:101D4000A2F2B2FA82F2D140024A515CC84010BD00
:101D500008380240BC7B000810B5FFF7CBFF0749ED
:101D6000096801F460414FF4604292FAA2F2B2FABB
:101D700082F2D140024A515CC84010BD083802408E
:101D8000BC7B000870B50021002200230020274CF6
:101D9000246804F00C0424B1042C04D0082C41D194
:101DA00003E0234840E023483EE0204C241F246801
:101DB00004F03F011D4C241F246804F4800484B106
:101DC0001C4CB4FBF1F5194C241F246847F6C0766F
:101DD000344096FAA6F6B6FA86F6F44005FB04F20D
:101DE0000FE0134CB4FBF1F5104C241F246847F6A8
:101DF000C076344096FAA6F6B6FA86F6F44005FBAD
:101E000004F20A4C241F246804F440344FF4403593
:101E100095FAA5F5B5FA85F5EC40641C6300B2FBB4
:101E2000F3F001E0024800BF00BF70BD0838024077
:101E30000024F40000127A0038B50446002520780A
:101E400000F00100002866D0F648006800F00C00A1
:101E500004280DD0F348006800F00C00082813D1C6
:101E6000F048001F006800F48000B0F5800F0BD12F
:101E7000EC4808380068C0F3404000284BD0606848
:101E8000002848D1012038BD0020E649891F08708C
:101E9000FFF7C0FC054608E0FFF7BCFC401B41F221
:101EA0008831884201D90320EDE7DE480838006810
:101EB000C0F340400028EFD12079DA49891F08702B
:101EC0006068A0B1FFF7A6FC054608E0FFF7A2FC9A
:101ED000401B41F28831884201D90320D3E7D14821
:101EE00008380068C0F340400028EFD013E0FFF747
:101EF00091FC054608E0FFF78DFC401B41F288315C
:101F0000884201D90320BEE7C64808380068C0F3FC
:101F100040400028EFD1207800F00200022869D16B
:101F2000C048006800F00C0058B1BE48006800F0DE
:101F30000C00082821D1BB48001F006800F4800075
:101F4000D8B9B84808380068C0F3400020B1E0684C
:101F5000012801D0012096E7B2480838006820F037
:101F6000F800F82292FAA2F2B2FA82F221699140C4
:101F70000843AC49083908603CE0E06828B3012018
:101F8000A9490860FFF746FC054606E0FFF742FC5A
:101F9000401B642801D9032075E7A248083800686F
:101FA000C0F340000028F1D09E480838006820F0B7
:101FB000F800F82292FAA2F2B2FA82F22169914074
:101FC000084398490839086014E0002096490860E1
:101FD000FFF720FC054606E0FFF71CFC401B6428C9
:101FE00001D903204FE78F4808380068C0F340004C
:101FF0000028F1D1207800F0080008282CD1606971
:10200000A8B1012089490860FFF704FC054606E0F5
:10201000FFF700FC401B642801D9032033E7814807
:102020006C300068C0F340000028F1D014E00020BC
:102030007E490860FFF7EEFB054606E0FFF7EAFB86
:10204000401B642801D903201DE776486C300068E6
:10205000C0F340000028F1D1207800F004000428EB
:102060006DD100BF6F483830006840F080506D4936
:10207000383108600846006800F08050009000BFCA
:1020800000BF6B48006840F4807069490860FFF742
:10209000C1FB054606E0FFF7BDFB401B642801D9E4
:1020A0000320F0E66248006800F480700028F2D057
:1020B00000205C4968310870FFF7ACFB054608E07A
:1020C000FFF7A8FB401B41F28831884201D9032069
:1020D000D9E6544868300068C0F340000028EFD1CA
:1020E000207A504968310870A068A0B1FFF792FBD0
:1020F000054608E0FFF78EFB401B41F2883188421D
:1021000001D90320BFE6474868300068C0F34000AB
:102110000028EFD013E0FFF77DFB054608E0FFF74E
:1021200079FB401B41F28831884201D90320AAE69D
:102130003C4868300068C0F340000028EFD1A06937
:10214000F0B33848006800F00C00082872D0A0698D
:10215000022850D1002034490866FFF75BFB054692
:1021600006E0FFF757FB401B642801D903208AE6ED
:102170002C4808380068C0F340600028F1D1D4E949
:102180000701084347F6C07292FAA2F2B2FA82F24D
:10219000616A914008430122A16AC2EB51014FF4E8
:1021A000403292FAA2F2B2FA82F2914008434FF022
:1021B000706292FAA2F2B2FA82F2E16A914000E011
:1021C0003AE008431749091F0860012016490866CC
:1021D000FFF720FB054606E0FFF71CFB401B6428C9
:1021E00001D903204FE60F4808380068C0F340606B
:1021F0000028F1D020E000200B490866FFF70AFB19
:10220000054606E0FFF706FB401B642801D90320C2
:1022100039E6044808380068C0F340600028F1D16E
:102220000AE007E00838024000004742800E4742BB
:1022300000700040012026E6002024E670B5044628
:102240002546681EB0F1807F01D301200FE0681E93
:102250004FF0E02148610F214FF0FF3000F078F897
:1022600000204FF0E021886107200861002070BD48
:1022700010B504460CB9012010BDA06900B100E002
:1022800000BF94F8390028B9002084F838002046AF
:1022900000F025F8022084F839002068C06820F496
:1022A00000502168C860204603F080FE2068006965
:1022B00020F49040216808612068406920F02A00DD
:1022C000216848612068C06840F400502168C860F7
:1022D0000020E063012084F839000020CCE770473B
:1022E00000BFFEE70146302905DB392903DCA1F1F7
:1022F0003000C0B27047612905DB662903DCA1F11B
:102300005700C0B2F6E7412905DB462903DCA1F1FD
:102310003700C0B2EEE70020ECE7000070B50546DC
:102320000C46224602A1284603F0A2FF70BD000021
:10233000253032580000000000BFFEE77047000063
:1023400002480068C0F30220704700000CED00E076
:1023500010B5002807DA0A07140E054A00F00F032B
:102360001B1FD45403E00A07130E024A135410BD76
:1023700018ED00E000E400E070B505460C4622468A
:1023800002A1284603F074FF70BD00002564000020
:102390007CB505460C46288840F2EE22811A904210
:1023A0007DD006DC60B1A0F2CF2068B3122877D1CF
:1023B0008FE0152975D0292974D03629F7D170E21C
:1023C000A08941F20101884258D100BF002141F6A5
:1023D0006850015100BF0222FDA1FE48006808308C
:1023E000FEF7CCFD0222FCA1FA4800680830FEF797
:1023F000C5FD002241F20101204603F09BF900BF18
:1024000040F2CF20288000BF41F66850005D00F008
:10241000010038B941F66850005DC0F3400008B9CA
:1024200000207CBD00BF41F66850005D00F0010057
:1024300080F00100207600BF04F12400FEF7FAFFCF
:102440000020A08100BFE5490880E5490880E549F2
:10245000088000BF41F65050005D00F0010040B917
:1024600041F65050005D20F00200801C41F65051B2
:1024700008551C21DC48FDF722FF4CE2A08941F2FF
:10248000020188425FD100BF002141F6685001512E
:1024900000BF012104F10800FEF77EFD03E076E0B5
:1024A0003AE2F7E072E14FF47A60D049086000BF89
:1024B000CE490868411ECD4A11600028F8D100219C
:1024C00004F10800FEF768FD00BF40F2E12028801B
:1024D00000BF41F66850005DC0F3C00038B941F656
:1024E0006850005DC0F3400008B9002099E700BFC4
:1024F00041F66850005DC0F3C00080F00100207616
:1025000000BF04F12400FEF795FF0020A08100BF6A
:10251000B2490880B2490880B249088000BF41F63C
:102520005050005D00F0010040B941F65050005D90
:1025300020F00200801C41F6505108551C21AA4889
:10254000FDF7BDFEE7E1A08941F20301884258D1C1
:1025500000BF002141F66850015100BF0622A4A12E
:102560009C4800680830FEF709FD02229AA19948AC
:1025700000680830FEF702FD002241F20301204608
:1025800003F0D8F800BF40F2EE20288000BF41F6EB
:102590006850005D00F0010038B941F66850005DF8
:1025A000C0F3400008B900203BE700BF41F6685087
:1025B000005D00F0010080F00100207600BF04F112
:1025C0002400FEF737FF0020A08100BF8349088068
:1025D000834908808349088000BF41F65050005D60
:1025E00000F0010040B941F65050005D20F00200BB
:1025F000801C41F6505108551C217B48FDF75FFEB9
:1026000089E1A08941F2070188427CD1764881693D
:102610006846FFF7B1FE00BF002141F66850015146
:1026200000BF082274A16B4800680830FEF7A6FCC2
:102630006D490868FDF74EFE86B26B483246016868
:10264000644800680830FEF799FC01226DA16148DA
:1026500000680830FEF792FC6846FDF73BFE86B244
:10266000324669465B4800680830FEF787FC08225E
:1026700065A1584800680830FEF780FC022256A188
:10268000544800680830FEF779FC00BF40F2033080
:10269000288000BF41F66850005D00F0010038B9A5
:1026A00041F66850005DC0F3400008B90020B8E66C
:1026B00000BF41F66850005D00F0010080F00100AD
:1026C0002076207E48B95348FDF720FF46488069B0
:1026D000A06004F10800FEF73BFC00BF04F12400F9
:1026E000FEF7A8FE0020A08100BF3C4908803C49BD
:1026F00008803C49088000BF41F65050005D00F062
:10270000010050B900E00DE041F65050005D20F0AE
:102710000200801C41F6505108551C213248FDF73B
:10272000CEFDF8E0A08941F20A0188427AD12E4814
:1027300081696846FFF720FE00BF002141F668501E
:10274000015100BF0B2234A1224800680830FEF777
:1027500015FC6846FDF7BEFD86B2324669461D4847
:1027600000680830FEF70AFC02221BA11948006825
:102770000830FEF703FC002241F20A01204602F075
:10278000D9FF00BF40F21730288000BF41F66850E3
:10279000005D00F0010038B941F66850005DC0F3FB
:1027A000400008B900203CE600BF41F66850005DDB
:1027B00000F0010080F00100207600BF04F1240049
:1027C000FEF738FE0020A08100BF044908802AE0FF
:1027D000415400005C0000200D0A00006000002051
:1027E0006200002064000020E02300206800002038
:1027F00041542B474D52000041542B554152545FD8
:10280000000000003D0000002C382C312C302C3012
:1028100000000000441F002041542B5246504F57E7
:1028200045523D0018E03F4908803F49088000BFFD
:1028300041F65050005D00F0010040B941F65050A3
:10284000005D20F00200801C41F6505108551C210B
:102850003648FDF734FD5EE0A08941F2060188426A
:1028600059D100BF002141F66850015100BF0A2232
:102870002FA1324800680830FEF780FB0222AFF239
:10288000A8012E4800680830FEF778FB002241F2CC
:102890000601204602F04EFF00BF4FF44970288029
:1028A00000BF41F66850005DC0F3C00038B941F682
:1028B0006850005DC0F3400008B90020B1E500BFDA
:1028C00041F66850005DC0F3C00080F00100207642
:1028D00000BF04F12400FEF7ADFD0020A08100BF81
:1028E000174908800F4908800F49088000BF41F64A
:1028F0005050005D00F0010040B941F65050005DBD
:1029000020F00200801C41F6505108551C21074858
:10291000FDF7D5FC00BF00BF00BF002028800320CA
:102920007FE500006200002064000020E02300201A
:1029300041542B524553544F524500005C00002037
:10294000600000202DE9FC4105460C46288840F235
:102950000752811A90427DD015DC40F2AF42A0EBC5
:102960000201904277D007DCE0B1A0F29540002848
:102970004CD00C2870D1B3E00C296ED01A296DD040
:102980004329F7D114E35A2969D006DC1B2967D003
:10299000222966D04C29EDD1FEE368297AD074292A
:1029A000E8D1FAE3A08943F20D01884274D1FD48D1
:1029B00081696846FFF7E0FC00BF002141F66850DE
:1029C000015100BF0A22F8A1FA4800680830FEF75A
:1029D000D5FA6846FDF77EFC87B23A466946F54867
:1029E00000680830FEF7CAFA0222F3A1F148006835
:1029F0000830FEF7C3FA002243F20D01204602F030
:102A000099FE00BF40F29540288000BF41F6685013
:102A1000005D00F0010040B941F66850005DC0F370
:102A2000400010B90020BDE8FC8100BF41F66850AD
:102A3000005D00F0010080F00100207600BF04F18D
:102A40002400FEF7F7FC0020A08100BFDB490880CE
:102A5000DB4907E029E3B1E0D9E30DE17AE1D7E30F
:102A6000C6E3D6E30880D749088000BF41F650503E
:102A7000005D00F0010040B941F65050005D20F0CB
:102A80000200801C41F6505108551C21C548FDF735
:102A900016FCD4E2F1E3FFE7A08943F21401884277
:102AA00058D100BF002141F66850015100BF0D22EE
:102AB000C5A1C04800680830FEF760FA0222BEA136
:102AC000BC4800680830FEF759FA002243F21401AE
:102AD000204602F02FFE00BF40F2A140288000BF38
:102AE00041F66850005D00F0010038B941F66850C9
:102AF000005DC0F3400008B9002094E700BF41F634
:102B00006850005D00F0010080F00100207600BFF9
:102B100004F12400FEF78EFC0020A08100BFA7492D
:102B20000880A7490880A749088000BF41F6505097
:102B3000005D00F0010040B941F65050005D20F00A
:102B40000200801C41F6505108551C219548FDF7A4
:102B5000B6FB9EE7A08943F20111884268D19148F3
:102B600081696846FFF708FC00BF002141F6685004
:102B7000015100BF0F2298A18E4800680830FEF76F
:102B8000FDF96846FDF7A6FB87B23A4669468948D3
:102B900000680830FEF7F2F9022287A18548006834
:102BA0000830FEF7EBF9002243F20E01204602F056
:102BB000C1FD00BF40F2AF40288000BF41F6685021
:102BC000005D00F0010038B941F66850005DC0F3C7
:102BD000400008B9002026E700BF41F66850005DBC
:102BE00000F0010080F00100207600BF04F1240015
:102BF000FEF720FC0020A08100BF704908807049CA
:102C000008807049088000BF41F65050005D00F018
:102C1000010040B941F65050005D20F00200801CD8
:102C200041F6505108551C215E48FDF748FB30E73E
:102C3000A08943F20211884258D100BF002141F619
:102C40006850015100BF0E2267A15A480068083041
:102C5000FEF794F9022258A1564800680830FEF7A2
:102C60008DF9002243F20E01204602F063FD00BF01
:102C700040F2BB40288000BF41F66850005D00F084
:102C8000010038B941F66850005DC0F3400008B952
:102C90000020C8E600BF41F66850005D00F001006A
:102CA00080F00100207600BF04F12400FEF7C2FB93
:102CB0000020A08100BF4149088041490880414966
:102CC000088000BF41F65050005D00F0010040B99F
:102CD00041F65050005D20F00200801C41F650513A
:102CE00008551C212F48FDF7EAFAD2E6A08943F2E5
:102CF0001101884255D12B4881696846FFF73CFB9A
:102D000000BF002141F66850015100BF0A223AA1DC
:102D1000284800680830FEF731F96846FDF7DAFA0E
:102D200087B23A466946234800680830FEF726F91C
:102D3000022221A11F4800680830FEF71FF9002277
:102D400043F20E01204602F0F5FC00BF40F2C940FC
:102D5000288000BF41F66850005D00F0010038B9DE
:102D600041F66850005DC0F3400008B900205AE603
:102D700000BF41F66850005D00F0010080F00100E6
:102D8000207600BF04F12400FEF754FB0020A08150
:102D900000BF0A4908800A4908800A49088000BF24
:102DA00030E043E0E023002041542B4349504D558F
:102DB000583D00005C0000200D0A0000600000206B
:102DC000620000206400002041542B4349504449D4
:102DD0004E464F3D3100000041542B43495053456E
:102DE000525645523D312C0041542B4349505345D6
:102DF000525645523D30000041542B4349505354E4
:102E00004F3D000041F65050005D00F0010040B918
:102E100041F65050005D20F00200801C41F65051F8
:102E200008551C21FB48FDF74AFA32E6A08943F217
:102E3000030188427ED1A089E081002616E040F29D
:102E4000E120704304F1780101EB400090F8C005E7
:102E500000F0010040B940F2E120704301EB400076
:102E6000EC494969086003E0701CC6B2052EE6DB38
:102E700000BFE8484069006810B901202076BAE038
:102E8000E4484069006890F8C00520F00200801C0A
:102E9000E0494969096881F8C00531466846FFF78D
:102EA0006BFA00BF002141F66850015100BF0C22AF
:102EB000D9A1DD4800680830FEF760F86846FDF7E4
:102EC00009FA87B23A466946D74800680830FEF7E3
:102ED00055F80222D5A1D44800680830FEF74EF814
:102EE000CC488069000C38B90322D1A1CE480068D3
:102EF0000830FEF743F81AE0C64880690121B1EBBB
:102F0000104F07D10322CBA1C74800680830FEF755
:102F100035F80CE0BF4880690221B1EB104F06D1B3
:102F20000322C5A1C04800680830FEF727F8032235
:102F3000C2A100E084E0BC4800680830FEF71EF83B
:102F4000B4490868FDF7C6F987B2B2483A46016845
:102F5000B54800680830FEF711F80222B8A1B2485F
:102F600000680830FEF70AF8AA48806981B268460E
:102F7000FFF702FA6846FDF7ADF987B23A466946AF
:102F8000A94800680830FDF7F9FF0222AFF2D81116
:102F9000A54800680830FDF7F1FF002243F2030165
:102FA000204602F0C7FB00BF40F2F240288000BF7D
:102FB00041F66850005D00F0010038B941F66850F4
:102FC000005DC0F3400008B900202CE500BF41F6C9
:102FD0006850005D00F0010080F001002076207E46
:102FE00040B100BF00208B494969096881F8C005DC
:102FF00000BF00E000BFE089A08100BF04F1240011
:10300000FEF718FA0020A08100BF8E4908808E4983
:1030100008808E49088000BF41F65050005D00F0E6
:10302000010040B941F65050005D20F00200801CC4
:1030300041F6505108551C217648FDF740F9BBE395
:10304000A08943F20B01884269D1724881696846C0
:10305000FFF792F900BF002141F66850015100BF0F
:103060000C227BA1704800680830FDF787FF684696
:10307000FDF730F987B23A4669466B480068083078
:10308000FDF77CFF0222AFF2D021674800680830CC
:10309000FDF774FF002243F20E01204602F04AFBC6
:1030A00000BF40F20750288000BF41F66850005D25
:1030B00000F0010038B941F66850005DC0F34000EF
:1030C00008B90020AFE400BF41F66850005D00F091
:1030D000010080F00100207600BF04F12400FEF71B
:1030E000A9F90020A08100BF5649088056490880F0
:1030F0005649088000BF41F65050005D00F00100C5
:1031000040B941F65050005D20F00200801C41F6AD
:10311000505108551C213F48FDF7D1F84CE3A089D8
:1031200043F20501884271D1A089E08139480069E4
:1031300018B1002037490969086003204849087020
:1031400000BF34488069B0F5006F02D94FF40060C9
:1031500001E0304880694349086000BF002141F622
:103160006850015100BF0B223FA12F480068083072
:10317000FDF704FF2748C06801786846FFF7FCF8B0
:103180006846FDF7A7F887B23A46694626480068C0
:103190000830FDF7F3FE01E066E1D3E2012235A13C
:1031A000214800680830FDF7E9FE2E4801686846AE
:1031B000FFF7E2F86846FDF78DF887B23A466946B0
:1031C000194800680830FDF7D9FE0222AFF2184115
:1031D000154800680830FDF7D1FE002243F20501D2
:1031E000204602F0A7FA00BF40F22250288000BF1C
:1031F00041F66850005DC0F38000E8BB41F66850BE
:10320000005DC0F34000B8BB00200CE4F7E0D4E25E
:103210009DE14FE0E023002041542B43495053549B
:103220004152543D000000005C0000202C220000B0
:10323000544350005544500053534C00222C22005C
:10324000222C0000600000206200002064000020AA
:1032500041542B434950434C4F53453D000000001F
:103260006C0000207000002041542B43495053450E
:103270004E443D002C00000000E0DBE100BF41F6C1
:103280006850005DC0F38000A0B300BF002141F68C
:103290006850015100BFFE48008882B2FD480168B5
:1032A000FD4800680830FDF769FE00BF40F2295074
:1032B000288000BF41F668502044407800F00100AB
:1032C00070B941F6685020444078C0F3400038B9E6
:1032D00041F66850005DC0F3400008B900200CE4DE
:1032E00000BF41F668502044407800F0010010B162
:1032F000002001E010E00B202076207EA0B9E548F8
:10330000006988B1E34800690068E1490968084438
:10331000E0490969086007E041F66850005DC0F3C4
:10332000400008B101202076207E88B90320DB49C7
:103330000870D8488069D6490968401AD54988611B
:1033400008460068D24909680844D24908600FE07D
:1033500041F6685020444078C0F3400028B1CF487F
:103360000078401ECD49087002E00020CB4908706B
:10337000C848806920B1C948007800287FF4E1AED0
:10338000C648007858B1C348C06890F8C10520F01D
:103390000400001DBF49C96881F8C1050AE0BD48A5
:1033A000C06890F8C10520F008000830B949C96824
:1033B00081F8C105E089A08100BF04F12400FEF777
:1033C00039F80020A08100BFB5490880B5490880C0
:1033D000B549088000BF41F65050005D00F0010083
:1033E00040B941F65050005D20F00200801C41F6CB
:1033F000505108551C21A748FCF761FFDCE1A0896A
:1034000043F20401884269D1A24881696846FEF707
:10341000B3FF00BF002141F66850015100BF0E22EA
:10342000A2A19D4800680830FDF7A8FD6846FCF79A
:1034300051FF87B23A466946974800680830FDF761
:103440009DFD0222AFF29061934800680830FDF7BD
:1034500095FD002243F20401204602F06BF900BF03
:1034600040F25350288000BF41F66850005D00F0E4
:10347000010038B941F66850005DC0F3400008B95A
:10348000002006E400BF41F66850005D00F0010036
:1034900080F00100207600BF04F12400FDF7CAFF90
:1034A0000020A08100BF7E4908807E4908807E49B7
:1034B000088000BF41F65050005D00F0010040B9A7
:1034C00041F65050005D20F00200801C41F6505142
:1034D00008551C216F48FCF7F2FE6DE1A08943F20C
:1034E000020188426DD100BF002141F668500151B0
:1034F00000BF0E2271A1684800680830FDF73EFD4C
:1035000064490868FCF7E6FE87B262483A460168FB
:10351000614800680830FDF731FD01226BA15E486B
:1035200000680830FDF72AFD0222AFF274715A4894
:1035300000680830FDF722FD002243F20201204618
:1035400002F0F8F800BF40F26150288000BF41F659
:103550006850005D00F0010038B941F66850005D28
:10356000C0F3400008B900202FE500BF41F66850C5
:10357000005D00F0010080F00100207600BF04F142
:103580002400FDF757FF0020A08100BF44490880B8
:10359000444908804449088000BF41F65050005D0E
:1035A00000F0010040B941F65050005D20F00200EB
:1035B000801C41F6505108551C213648FCF77FFE0F
:1035C000FAE0A08943F2120188425FD100BF0021D6
:1035D00041F66850015100BF09223DA12E48006804
:1035E0000830FDF7CBFC2B490868FCF773FE87B267
:1035F00028483A460168284800680830FDF7BEFCB4
:10360000012232A1244800680830FDF7B7FC0222ED
:10361000AFF65C01204800680830FDF7AFFC0022DF
:1036200043F21201204602F085F800BF40F26F50CD
:10363000288000BF41F66850005D00F0010038B9F5
:1036400041F66850005DC0F3400008B90020BCE4BA
:1036500000BF41F66850005D00F0010080F00100FD
:10366000207600BF04F12400FDF7E4FE0020A081D5
:1036700000BF0B4908800B4908800B49088000BF38
:1036800041F65050005D00F0010027E035E00000F9
:1036900070000020E02300205C0000206C0000206F
:1036A00060000020620000206400002041542B4391
:1036B000495053534C53495A453D000041542B4304
:1036C0004950444F4D41494E3D2200002200000028
:1036D00041542B50494E473D2200000040B941F66D
:1036E0005050005D20F00200801C41F650510855FA
:1036F0001C213448FCF7E3FD5EE0A08943F213018E
:10370000884259D100BF002141F66850015100BFE5
:103710000B222DA12F4800680830FDF72FFC022254
:10372000AFF66C112B4800680830FDF727FC00222B
:1037300043F21301204601F0FDFF00BF40F27B5031
:10374000288000BF41F66850005D00F0010038B9E4
:1037500041F66850005DC0F3400008B9002034E431
:1037600000BF41F66850005D00F0010080F00100EC
:10377000207600BF04F12400FDF75CFE0020A0814C
:1037800000BF15490880154908801549088000BF09
:1037900041F65050005D00F0010040B941F6505034
:1037A000005D20F00200801C41F6505108551C219C
:1037B0000448FCF784FD00BF00BF00BF0020288044
:1037C00003207FE4E023002041542B43495550441B
:1037D000415445005C000020600000206200002091
:1037E000640000202DE9FE4305460C463A20009077
:1037F00006272888B0F57A7F7ED01FDCB0F55B7F86
:103800007BD010DCB0F5527F78D005DCA8B3B0F5E2
:103810004F7F41F0808266E0B0F5557F6FD0B0F504
:10382000587FF6D188E1A0F28530002868D01C28A6
:1038300067D0382866D05428EBD1FDE340F23142FE
:10384000811A904200F099870ADCA0F2F530002836
:103850007ED013287DD023287CD02F28D9D1ECE32B
:103860000C2900F0EA87192901F04680372901F078
:1038700068814829CDD101F013BAFFE7A08942F24F
:103880000101884278D1F948816901A8FEF774FDE9
:1038900000BF002141F66850015100BF0A22F4A187
:1038A000F64800680830FDF769FB01A8FCF712FD37
:1038B0001FFA80F8424601A9F04800680830FDF779
:1038C0005DFB0222EEA1ED4800680830FDF756FBD3
:1038D000002242F20101204601F02CFF00BF4FF40C
:1038E0004F70288000BF41F66850005D00F0010075
:1038F00080B941F6685006E0EAE37BE160E0BDE0B4
:103900004FE2F7E2A4E3005DC0F3400010B90020ED
:10391000BDE8FE8300BF41F66850005D00F0010085
:1039200080F00100207600BF04F12400FDF782FD45
:103930000020A08100BFD3490880D3490880D34923
:10394000088000BF41F65050005D00F0010003E028
:10395000BFE3FCE3FCE30FE040B941F65050005DEB
:1039600020F00200801C41F6505108551C21BF4830
:10397000FCF7A5FC01F0CEB9A08942F20111884202
:1039800058D100BF002141F66850015100BF1122FB
:10399000BFA1BA4800680830FDF7F0FA0222B8A1CA
:1039A000B64800680830FDF7E9FA002242F20B0140
:1039B000204601F0BFFE00BF4FF45270288000BFC8
:1039C00041F66850005D00F0010038B941F66850DA
:1039D000005DC0F3400008B9002099E700BF41F640
:1039E0006850005D00F0010080F00100207600BF0B
:1039F00004F12400FDF71EFD0020A08100BFA149B5
:103A00000880A1490880A149088000BF41F65050B4
:103A1000005D00F0010040B941F65050005D20F01B
:103A20000200801C41F6505108551C218F48FCF7BC
:103A300046FC9FE7A08942F20211884258D100BF9C
:103A4000002141F66850015100BF102295A18B481A
:103A500000680830FDF792FA022289A187480068C1
:103A60000830FDF78BFA002242F20C01204601F0EB
:103A700061FE00BF4FF45570288000BF41F66850CA
:103A8000005D00F0010038B941F66850005DC0F3F8
:103A9000400008B900203BE700BF41F66850005DD8
:103AA00000F0010080F00100207600BF04F1240046
:103AB000FDF7C0FC0020A08100BF72490880724958
:103AC00008807249088000BF41F65050005D00F048
:103AD000010040B941F65050005D20F00200801C0A
:103AE00041F6505108551C216048FCF7E8FB41E7BE
:103AF000A08942F20311884258D100BF002141F64B
:103B00006850015100BF0E226BA15C48006808306C
:103B1000FDF734FA02225AA1584800680830FDF730
:103B20002DFA002242F20D01204601F003FE00BFF3
:103B30004FF45870288000BF41F66850005D00F0D7
:103B4000010038B941F66850005DC0F3400008B983
:103B50000020DDE600BF41F66850005D00F0010086
:103B600080F00100207600BF04F12400FDF762FC24
:103B70000020A08100BF4349088043490880434991
:103B8000088000BF41F65050005D00F0010040B9D0
:103B900041F65050005D20F00200801C41F650516B
:103BA00008551C213148FCF78AFBE3E6A08942F264
:103BB0000411884258D100BF002141F668500151DC
:103BC00000BF0D2240A12D4800680830FDF7D6F94E
:103BD00002222BA1294800680830FDF7CFF9002206
:103BE00042F20E01204601F0A5FD00BF4FF45B70CC
:103BF000288000BF41F66850005D00F0010038B930
:103C000041F66850005DC0F3400008B900207FE62F
:103C100000BF41F66850005D00F0010080F0010037
:103C2000207600BF04F12400FDF704FC0020A081F1
:103C300000BF14490880144908801449088000BF57
:103C400041F65050005D00F0010040B941F650507F
:103C5000005D20F00200801C41F6505108551C21E7
:103C60000248FCF72CFB85E636E00000E02300204C
:103C700041542B43574D4F44453D00005C0000200C
:103C80000D0A000060000020620000206400002097
:103C900041542B4349505354414D41435F43555286
:103CA0003F00000041542B43495041504D41435F78
:103CB0004355523F0000000041542B434950535498
:103CC000415F4355523F000041542B4349504150FE
:103CD0005F4355523F000000A08942F2051188421F
:103CE0007ED1FC48466800BF002141F66850015172
:103CF00000BF0D22F8A1FC4800680830FDF73EF92E
:103D0000F4490868FCF7E6FA1FFA80F8F1484246E1
:103D10000168F54800680830FDF730F90222F3A188
:103D2000F14800680830FDF729F906273A2000908D
:103D300018E016F8011B01A8FEF7F0FA01A8FCF73D
:103D4000C9FA1FFA80F8424601A9E748006808301E
:103D5000FDF714F937B101226946E34800680830DD
:103D6000FDF70CF9381EA7F10101CFB2E1D1012214
:103D7000DFA1DD4800680830FDF700F90222AFF24C
:103D80000011D94800680830FDF7F8F8002242F227
:103D90000B01204601F0CEFC00BF40F285302880A8
:103DA00000BF41F66850005D00F0010038B941F6EF
:103DB0006850005DC0F3400008B90020A8E500BFCE
:103DC00041F66850005D00F0010080F001002076AF
:103DD000207E38B956F8061C616336F8020C00E004
:103DE00023E0208700BF04F12400FDF723FB00201F
:103DF000A08100BFBF490880BF490880BF49088033
:103E000000BF41F65050005D00F0010040B941F69E
:103E10005050005D20F00200801C41F650510855C2
:103E20001C21AC48FCF74BFAA4E5A08942F206112C
:103E300088427DD1A748466800BF002141F66850FE
:103E4000015100BF0C22AEA1A74800680830FDF761
:103E500095F8A0490868FCF73DFA1FFA80F89D48DC
:103E600042460168A04800680830FDF787F8022242
:103E70009EA19D4800680830FDF780F806273A208B
:103E8000009018E016F8011B01A8FEF747FA01A8F8
:103E9000FCF720FA1FFA80F8424601A99248006810
:103EA0000830FDF76BF837B1012269468E4800688B
:103EB0000830FDF763F8381EA7F10101CFB2E1D158
:103EC00001228BA1884800680830FDF757F80222CC
:103ED000AFF25421844800680830FDF74FF8002203
:103EE00042F20C01204601F025FC00BF40F2A13057
:103EF000288000BF41F66850005D00F0010038B92D
:103F000041F66850005DC0F3400008B90020FFE4AE
:103F100000BF41F66850005D00F0010080F0010034
:103F20002076207E48B956F8061CC4F8461000E0FA
:103F300026E036F8020CA4F84A0000BF04F1240081
:103F4000FDF778FA0020A08100BF6A4908806A491D
:103F500008806A49088000BF41F65050005D00F0BB
:103F6000010040B941F65050005D20F00200801C75
:103F700041F6505108551C215648FCF7A0F9F9E4C8
:103F8000A08942F20B11884270D15248466800BFA6
:103F9000002141F66850015100BF0A225CA152483D
:103FA00000680830FCF7EAFF4A490868FCF792F914
:103FB0001FFA80F84748424601684B4800680830BD
:103FC000FCF7DCFF022249A1474800680830FCF7F3
:103FD000D5FF04272E20009018E016F8011B01A839
:103FE000FEF7CAF901A8FCF775F91FFA80F84246F6
:103FF00001A93D4800680830FCF7C0FF37B1012235
:104000006946394800680830FCF7B8FF381EA7F148
:104010000101CFB2E1D1012235A133480068083057
:10402000FCF7ACFF0222AFF2A8312F48006808303D
:10403000FCF7A4FF002201E0DAE027E342F20D01E1
:10404000204601F077FB00BF40F2BD30288000BF62
:1040500041F66850005D00F0010040B941F668503B
:10406000005DC0F3400010B9002051E456E000BFED
:1040700041F66850005D00F0010080F001002076FC
:10408000207E10B956F8040CA06200BF04F1240091
:10409000FDF7D0F90020A08100BF1649088016491D
:1040A00008801649088000BF41F65050005D00F0BE
:1040B000010040B941F65050005D20F00200801C24
:1040C00041F6505108551C210248FCF7F8F851E41C
:1040D000F3E02CE1E023002041542B43495053549A
:1040E000414D41435F0000005C0000203D22000084
:1040F0002200000060000020620000206400002018
:1041000041542B43495041504D41435F0000000052
:1041100041542B4349505354415F0000A08942F25F
:104120000C11884272D1FE48466800BF002141F65A
:104130006850015100BF0922FAA1FD48006808300B
:10414000FCF71CFFF6490868FCF7C4F801E07DE1C4
:104150003DE21FFA80F8F24842460168F4480068E0
:104160000830FCF70BFF0222AFF28001F048006834
:104170000830FCF703FF04272E20009018E016F803
:10418000011B01A8FEF7F8F801A8FCF7A3F81FFA35
:1041900080F8424601A9E64800680830FCF7EEFEC8
:1041A00037B101226946E24800680830FCF7E6FEB4
:1041B000381EA7F10101CFB2E1D10122AFF2D00147
:1041C000DB4800680830FCF7D9FE0222AFF25051FC
:1041D000D74800680830FCF7D1FE002242F20D01FA
:1041E000204601F0A7FA00BF40F2D930288000BF76
:1041F00041F66850005D00F0010040B941F668509A
:10420000005DC0F3400010B9002044E430E000BF7E
:1042100041F66850005D00F0010080F0010020765A
:10422000207E10B956F8040CA06200BF04F12400EF
:10423000FDF700F90020A08100BFBE490880BE49FB
:104240000880BE49088000BF41F65050005D00F074
:10425000010040B941F65050005D20F00200801C82
:1042600041F6505108551C21AD48FCF728F83EE4B2
:10427000A08942F2071188427ED100BF002141F699
:104280006850015100BF1122ADA1A9480068083053
:10429000FCF774FE0222AFF21861A54800680830EE
:1042A000FCF76CFE002242F20301204601F042FAC4
:1042B00000BF4FF47A70288000BF41F66850005D5F
:1042C00000F0010038B941F66850005DC0F34000CD
:1042D00008B900203DE400BF41F66850005D00F0E1
:1042E000010080F001002076207E00B137E000BFA1
:1042F000002141F66850015100BF082295A18C4869
:1043000000680830FCF73AFE0222AFF28C61884860
:1043100000680830FCF732FE002242F20401204619
:1043200001F008FA00BF40F2F530288000BF41F6E6
:104330006850005D00F0010038B941F66850005D3A
:10434000C0F3400008B9002061E400BF41F66850A6
:10435000005D00F0010080F00100207600BF00BF8A
:1043600004F12400FDF766F80020A08100BF714928
:1043700008807149088000E016E07049088000BF9D
:1043800041F65050005D00F0010040B941F6505038
:10439000005D20F00200801C41F6505108551C21A0
:1043A0005F48FBF78CFF5EE4A08942F2020188427D
:1043B0007ED100BF002141F66850015100BF0922A3
:1043C00067A15B4800680830FCF7D8FD54490868CD
:1043D000FBF780FF1FFA80F85148424601685448B5
:1043E00000680830FCF7CAFD0222AFF200315048E5
:1043F00000680830FCF7C2FD49494868FDF7E6F956
:1044000003225AA14A4800680830FCF7B7FD444926
:104410008868FDF7DBF90122AFF22C3144480068CF
:104420000830FCF7ABFD0222AFF2AC7140480068E7
:104430000830FCF7A3FD002242F20201204601F001
:1044400079F900BF4FF48160288000BF41F66850C1
:10445000005D00F0010038B941F66850005DC0F31E
:10446000400008B90020A9E400BF41F66850005D93
:1044700000F0010080F001002076207EA0BB00BF8C
:1044800004F12400FCF7D6FF0020A08100BF2949D9
:104490000880294908802949088000BF41F650500A
:1044A000005D00F0010050B941F65050005D00E0A1
:1044B00068E020F00200801C41F6505108551C2194
:1044C0001748FBF7FCFE00BF00BF04F12400FCF717
:1044D000BFFF08B1062071E4A08908B920686061B7
:1044E00042F20310A08140E2FFE700BF04F1240084
:1044F000FCF7A0FF0020A08100BF0E4908800E49F4
:1045000008800E49088000BF41F65050005D00F061
:10451000010068BB41F65050005D20F0020028E029
:10452000E023002041542B43495041505F000000DC
:104530005C00002060000020620000206400002079
:1045400041542B43574C41504F50543D312C313244
:104550003700000041542B43574C415000000000ED
:1045600041542B43574A41505F000000222C220047
:1045700003E0801C41F6505108551C21FC48FBF714
:104580009EFEC7E3A08942F20501884259D100BFCF
:10459000002141F66850015100BF0822F5A1F848FA
:1045A00000680830FCF7EAFC0222AFF62C11F44850
:1045B00000680830FCF7E2FC002242F205012046C8
:1045C00001F0B8F800BF4FF48360288000BF41F6C7
:1045D0006850005D00F0010038B941F66850005D98
:1045E000C0F3400008B9002091E400BF41F66850D4
:1045F000005D00F0010080F00100207600BF04F1B2
:104600002400FCF717FF0020A08100BFDD490880CF
:10461000DD490880DD49088000BF41F65050005D4B
:1046200000F0010040B941F65050005D20F002005A
:10463000801C41F6505108551C21CD48FBF73FFE28
:1046400068E3A08942F20811884259D100BF0021D5
:1046500041F66850015100BF0D22CDA1C848006845
:104660000830FCF78BFC0222AFF6EC11C44800685E
:104670000830FCF783FC002242F20201204601F0E0
:1046800059F800BF40F22440288000BF41F668502E
:10469000005D00F0010038B941F66850005DC0F3DC
:1046A000400008B9002032E400BF41F66850005DC8
:1046B00000F0010080F00100207600BF04F124002A
:1046C000FCF7B8FE0020A08100BFAE490880AE49CB
:1046D0000880AE49088000BF41F65050005D00F0F0
:1046E000010040B941F65050005D20F00200801CEE
:1046F00041F6505108551C219D48FBF7E0FD09E3A8
:10470000A08942F20A01884272D100BF002141F61D
:104710006850015100BF0E22A1A1994800680830DD
:10472000FCF72CFC9249896909B1A1A100E0A1A183
:104730000846FBF7CFFD1FFA80F88D48806908B165
:104740009BA000E09BA0014642468D4800680830CF
:10475000FCF714FC0222AFF6D82189480068083023
:10476000FCF70CFC002242F20A01204600F0E2FFB6
:1047700000BF40F23140288000BF41F66850005D24
:1047800000F0010038B941F66850005DC0F3400008
:1047900008B9002069E400BF41F66850005D00F0F0
:1047A000010080F00100207600BF04F12400FCF736
:1047B00041FE0020A08100BF724908807249088034
:1047C0007249088000BF41F65050005D00F00100C2
:1047D00040B941F65050005D20F00200801C41F6C7
:1047E000505108551C216248FBF769FD92E2FFE732
:1047F000A08942F20701884259D100BF002141F649
:104800006850015100BF08226BA15D480068083064
:10481000FCF7B4FB0222AFF6983159480068083023
:10482000FCF7ACFB002242F20701204600F082FFB9
:1048300000BF40F23D40288000BF41F66850005D57
:1048400000F0010038B941F66850005DC0F3400047
:1048500008B9002009E400BF41F66850005D00F08F
:10486000010080F00100207600BF04F12400FCF775
:10487000E1FD0020A08100BF424908804249088034
:104880004249088000BF41F65050005D00F0010031
:1048900040B941F65050005D20F00200801C41F606
:1048A000505108551C213248FBF709FD32E2A0891E
:1048B00042F20911884259D100BF002141F66850E7
:1048C000015100BF0D223FA12D4800680830FCF7C0
:1048D00055FB0222AFF65841294800680830FCF722
:1048E0004DFB002242F20601204600F023FF00BFEC
:1048F00040F24A40288000BF41F66850005D00F059
:10490000010038B941F66850005DC0F3400008B9B5
:1049100000207AE400BF41F66850005D00F001001D
:1049200080F00100207600BF04F12400FCF782FD36
:104930000020A08100BF1349088013490880134953
:10494000088000BF41F65050005D00F0010040B902
:1049500041F65050005D20F00200801C41F650519D
:1049600008551C210248FBF7AAFCD3E132E0000005
:10497000E023002041542B435751415000000000D8
:104980005C00002060000020620000206400002025
:1049900041542B43574A41505F4355523F0000005A
:1049A00041542B43574155544F434F4E4E3D000009
:1049B000310000003000000041542B43574C494661
:1049C0000000000041542B43575341505F43555260
:1049D0003F000000A08942F20A1188427ED100BF48
:1049E000002141F66850015100BF0922CCA1CF48F7
:1049F00000680830FCF7C2FACD490868FBF76AFC8A
:104A00001FFA80F8CA4842460168C8480068083062
:104A1000FCF7B4FA0222AFF62C11C4480068083043
:104A2000FCF7ACFAC2494868FCF7D0FE0322AFF2AB
:104A3000C441BE4800680830FCF7A0FABC49496888
:104A400001F11400FCF7C2FE0222BAA1B7480068C7
:104A50000830FCF793FAB648406890F8291001A88E
:104A6000FDF78AFC01A8FBF735FC1FFA80F84246E7
:104A700001A9AE4800680830FCF780FA0122AEA117
:104A8000AA4800680830FCF779FAA948406890F80D
:104A9000281001A8FDF770FC01A8FBF71BFC1FFA0A
:104AA00080F8424601A9A14800680830FCF766FA80
:104AB0000122A1A19D4800680830FCF75FFA9C48DC
:104AC000406890F82A1001A8FDF756FC01A8FBF7F2
:104AD00001FC1FFA80F8424601A900E0A0E09348DB
:104AE00000680830FCF74AFA012293A18F48006859
:104AF0000830FCF743FA8E48406890F82B1001A864
:104B0000FDF73AFC01A8FBF7E5FB1FFA80F84246E7
:104B100001A9864800680830FCF730FA0222AFF697
:104B2000A061824800680830FCF728FA002242F2AF
:104B30000601204600F0FEFD00BF4FF48D60288086
:104B400000BF41F66850005D00F0010038B941F641
:104B50006850005DC0F3400008B9002083E400BF46
:104B600041F66850005D00F0010080F00100207601
:104B7000207E10B300BF04F12400FCF75BFC002092
:104B8000A08100BF6D4908806D4908806D4908808B
:104B900000BF41F65050005D00F0010040B941F601
:104BA0005050005D20F00200801C41F65051085525
:104BB0001C215F48FBF783FBACE000BF04F124003D
:104BC000FCF738FC0020A08100BF5C4908805C49EC
:104BD00008805C49088000BF41F65050005D00F03D
:104BE000010040B941F65050005D20F00200801CE9
:104BF00041F6505108551C214D48FBF760FB00BFA2
:104C000000BF04F12400FCF723FC08B106202AE4CD
:104C1000A08908B92068606142F20910A08179E09A
:104C2000A08942F21301884274D100BF002141F6ED
:104C30006850015100BF072243A13C48006808307A
:104C4000FCF79CF93A49896911B1AFF29C2101E066
:104C5000AFF2A0210846FBF73DFB1FFA80F834486D
:104C6000806910B1AFF2B82001E0AFF2B820014680
:104C700042462E4800680830FCF780F9022234A131
:104C80002A4800680830FCF779F9002242F2130143
:104C9000204600F04FFD00BF40F27940288000BF61
:104CA00041F66850005D00F0010038B941F66850E7
:104CB000005DC0F3400008B900200CE400BF41F6DD
:104CC0006850005D00F0010080F00100207600BF18
:104CD00004F12400FCF7AEFB0020A08100BF1749BF
:104CE0000880174908801749088000BF41F65050D6
:104CF000005D00F0010040B941F65050005D20F029
:104D00000200801C41F6505108551C210848FBF751
:104D1000D6FA00BF00BF00BF00202880032063E454
:104D200041542B43575341505F0000005C0000206A
:104D3000E0230020222C00002C0000006000002056
:104D4000620000206400002041542B5750533D0066
:104D50000D0A0000F8B507460C46154600E0641C35
:104D6000207810B120782228F9D1207800B9F8BD38
:104D7000641C002605E014F8012B3046711CCEB2ED
:104D80002A54207840B120782228F4D160782C2849
:104D9000F1D1A0782228EED100223046711CCEB28B
:104DA0002A54E41C002305F115022146384600F080
:104DB00053F913346946204600F067F9E8769DF808
:104DC0000000401C04446946204600F05EF900B231
:104DD000A88300BFCBE7F8B506460C4615462078F9
:104DE000282800D1641C6946204600F04EF928703E
:104DF0009DF80000401C04442078222800D1641C47
:104E00000020009011E02078222803D160782C281F
:104E100000D10DE02178681C9DF8002081549DF898
:104E20000000401CC0B20090641C20780028EAD129
:104E300000BFA41C6946204600F027F900B2E882B2
:104E40009DF80000401C04442078222800D1641CF6
:104E5000002305F118022146304600F0FDF8133416
:104E60006946204600F011F9A8779DF80000401C23
:104E700004446946204600F008F940B2E8779DF8FE
:104E80000000401C04446946204600F0FEF885F806
:104E900020009DF80000401C0444F8BDF8B506460B
:104EA0000C4615466B462A462146304600F08FF8E0
:104EB0009DF80000401C04446B462A1D21463046E4
:104EC00000F0CAF8F8BDF8B507460C4615462C2187
:104ED0002846FBF7F4F9002605E014F8012B3046CC
:104EE000711CCEB22A54207840B120782228F4D107
:104EF00060782C28F1D1A0782228EED1002230460B
:104F0000711CCEB22A54E41C002607E014F8012BD1
:104F10003046711CCEB205F114010A54207828B134
:104F200020782228F2D160782C28EFD10022304658
:104F3000711CCEB205F114010A54A41C6946204626
:104F400000F0A3F8283568709DF80000401C044468
:104F50006946204600F099F828709DF80000401C32
:104F600004446946204600F090F8A8709DF80000BF
:104F7000401C04446946204600F087F8E870283D4C
:104F8000F8BD2DE9F04104460D460026002707E054
:104F900036012078FDF7A6F90644641C781CC7B2D8
:104FA0002078302802DB20783928F1DD207861284C
:104FB00002DB20786628EBDD2078412802DB2078B0
:104FC0004628E5DD05B12F703046BDE8F0812DE9BA
:104FD000F84380460D4616461C46042700200090E4
:104FE00004B1207013E06946284600F04EF806F838
:104FF000010B9DF80000401C054444B120789DF849
:1050000000100844207017B12078401C2070381E12
:10501000A7F10101CFB2E6D1BDE8F883F8B50646A5
:105020000D461446002020606060A0606946284656
:1050300000F02BF840F2E121484306F1780101EB42
:10504000400060609DF80000401C05446946284609
:1050500000F01BF82081F8BD2DE9F04180460C4698
:1050600015461E46062706E000212046FFF789FF69
:1050700005F8010BE41C381EA7F10101CFB2F3D1F2
:105080000EB111203070BDE8F08170B502460025E8
:105090000024002310782D2803D10125521C601C08
:1050A000C4B207E0107830380A2603FB0603521C0E
:1050B000601CC4B21078302802DB10783928F1DD8A
:1050C00001B10C700DB1584270BD1846FCE70000EC
:1050D0002DE9F0410446884608F101050026002725
:1050E00028780D2804D168780A2801D1BDE8F0811C
:1050F000FEA12846FBF7F5F800B90026FBA12846DB
:10510000FBF7EFF808B9012000E00020064696B949
:10511000F8A12846FBF7E5F808B9012000E00020D7
:10512000074647B9F5A12846FBF7DBF808B9012087
:1051300000E00020074676B96FB9F3A12846FBF7D7
:10514000D0F840B941F66850005D20F00800083002
:1051500041F668510855A08942F20B01884219D1E5
:1051600028782B2816D10A22E9A12846FBF7D0F887
:1051700080B9002304F1340205F110012046FFF745
:105180006BFFE648C06828B1E448C068616B016005
:10519000218F8180A08942F20C0188421BD128789E
:1051A0002B2818D10922DEA12846FBF7B1F890B9C7
:1051B000002304F1460205F10F012046FFF74CFFE2
:1051C000D648C06838B1D548C068D4F846100160E8
:1051D000B4F84A108180A08942F20D01884232D190
:1051E00028782B282FD10822D0A12846FBF790F849
:1051F00048BB287B69280FD1002304F1280205F160
:1052000010012046FFF7E3FEC448C068D8B1C34888
:10521000C068A16A016016E0287B672808D10023D6
:1052200004F12C0205F115012046FFF7D0FE0AE03B
:10523000287B6E2807D1002304F1300205F1150107
:105240002046FFF7C4FEA08942F20E01884232D107
:1052500028782B282FD10722B7A12846FBF758F82A
:1052600048BBE87A69280FD1002304F13A0205F11E
:105270000F012046FFF7ABFEA848C068D8B1A74889
:10528000C068A16A016016E0E87A672808D10023A7
:1052900004F13E0205F114012046FFF798FE0AE0F2
:1052A000E87A6E2807D1002304F1420205F11401C7
:1052B0002046FFF78CFEA08942F2070188421DD1EB
:1052C000287830281ADB2878392817DC93480069B9
:1052D000008892498969884210D290482946C2685C
:1052E0002046FFF7DBFD8D48C0680A308B49C86057
:1052F000084600690088401C0969086028782B2846
:1053000022D1A08942F2040188421DD106228CA13B
:105310002846FAF7FDFFB8B98048006900887F4940
:105320008969884210D27D48E91DC2682046FFF78E
:1053300052FD7A48C06822307849C8600846006942
:105340000088401C09690860A08942F20601884271
:105350000BD106227CA12846FAF7DAFF28B904F11E
:105360004C02E91D2046FFF7AEFDA08942F2020182
:10537000884213D176A12846FAF7B3FF08B901276E
:105380000CE00A2274A12846FAF7C2FF30B963483C
:1053900005F10A01C2682046FFF7DCFCA08943F250
:1053A000120188420FD128782B280CD16878302838
:1053B00009DB6878392806DC0021681CFFF765FEE8
:1053C0005649C968086067A12846FAF78AFFC8B934
:1053D000A08942F2020188420AD141F66850204475
:1053E000407820F00400001D41F6685121444870C7
:1053F00041F65450005D20F00100401C41F654512C
:1054000008553CE05CA12846FAF76BFFC8B9A089B3
:1054100042F2020188420AD141F6685020444078A5
:1054200020F00800083041F668512144487041F6E8
:105430005450005D20F00200801C41F65451085584
:105440001DE052A12846FAF74CFFC0B9A08942F2EC
:10545000020188420AD141F668502044407820F089
:105460001000103041F668512144487041F6545004
:10547000005D20F00400001D41F65451085508223B
:1054800046A1681CFAF744FFD8B92978303940F2B0
:10549000E12211FB02F204F1780101EB42002978CC
:1054A0003039017090F8C01521F00101491C80F8D5
:1054B000C01590F8C11521F00101491C80F8C115F3
:1054C00081E0072238A1681CFAF722FF60B9297829
:1054D000303940F2E12211FB02F204F1780101EBD4
:1054E000420090F8C11563E06DE000004F4B0D0ADB
:1054F000000000004552524F520D0A006275737948
:1055000020702E2E2E0D0A0072656164790D0A003E
:105510002B4349505354414D41430000E0230020A8
:105520002B43495041504D41430000002B4349500B
:105530005354415F000000002B43495041505F002D
:105540002B43574C415000002B4357534150000010
:105550004641494C0D0A00002B43574A41505F43D6
:10556000555200005749464920434F4E4E4543543B
:1055700045440D0A0000000057494649204449535C
:10558000434F4E4E45435445440D0A005749464942
:1055900020474F542049500D0A0000002C434F4E25
:1055A0004E454354000000002C434C4F53454400EB
:1055B00021F00201891C80F8C11500BF002180F88C
:1055C000C01500BF00BFA08943F20501884222D167
:1055D000072235A12846FAF79BFE58B941F66850D4
:1055E0002044407820F00100401C41F668512144DD
:1055F000487010E009222EA12846FAF789FE50B91A
:1056000041F668502044407820F00200801C41F6AA
:10561000685121444870A08943F2020188420DD1AB
:105620000A2226A12846FAF773FE38B92648002335
:1056300005F10B01C2682046FFF7C9FC042223A133
:105640002846FAF765FE50B941F644502218691D04
:105650002046FFF7E3FC012141F64450015586B195
:1056600041F66850005D20F00100401C41F6685191
:1056700008550846005D20F0020141F668500155CA
:105680000FE077B141F66850005D20F0010141F66E
:1056900068500155005D20F00200801C41F6685101
:1056A000085500BF22E5000053454E44204F4B00F3
:1056B00053454E44204641494C0000002B4349507D
:1056C000444F4D41494E0000E02300202B495044F7
:1056D0000000000010B50446A089B0F5805F07DB2C
:1056E000A089B0F5005F03DA21460F48FCF750FEB1
:1056F000A089B0F5005F07DBA089B0F5405F03DA51
:1057000021460A48FEF76EF8A089B0F5405F07DB36
:10571000A089B0F5804F03DA21460548FDF712F95C
:1057200000BF0020207110BD60000020620000203A
:1057300064000020034699811A61186858610020AE
:105740001876704710B5FCF76BF810BD1448006868
:1057500040F47000124908601248006840F00100EF
:105760001049086000200F49083108600D480068A2
:105770000D4908400B4908600C48091D0860081FC6
:10578000006820F48020091F0860002005490C31C2
:1057900008604FF0006002498039086070470000DF
:1057A00088ED00E000380240FFFFF6FE10300024D4
:1057B00070B5034600240BB9002070BD58881D88C1
:1057C000A84201DB002058801BE05D889888401EBD
:1057D000854206D0988828B95D881888401E854281
:1057E00000D113E011F8015B5E88701C5880986846
:1057F0008555601CC4B258881D88A84201DB002072
:105800005880101EA2F10105AAB2DED100BF2046C9
:10581000D3E7000010B501210248FBF7B3FF01F008
:10582000A1F810BDB80100200F48006820F080707A
:105830000D4A10601046006840F0807010600B4800
:10584000006820F00100094A10601046006840F02E
:1058500001001060002050601046416800BF00BF8A
:1058600002484068401A7047FCED00E0001000E07C
:105870001CB50020012103460246CDE90010490372
:10588000014800F02FF91CBD0008024009480068DB
:10589000C0F3403080F0010030B10748007830B9E3
:1058A0000120054908707047002003490870002056
:1058B000F9E7000010080240080000201CB5032092
:1058C00000210B460122CDE900102021034800F001
:1058D00009F94FF40010014988611CBD0000024025
:1058E00030B502460B460E4CA24207D20D490D4C74
:1058F0000834141B1825B4FBF5F006E008490839F4
:10590000074C141B1825B4FBF5F0042801D3091D1E
:10591000001F03F03D04044D2D5CAC400C6030BD15
:105920001064024008600240CC7B0008704770475A
:1059300070B502460C460021002300200E4DAA42FD
:1059400007D20E4B0D4D1035551B1826B5FBF6F141
:1059500006E0094B103B084D551B1826B5FBF6F128
:10596000042901D31B1D091F1868054D6D5CE84013
:1059700000F03D0070BD0000106402400060024075
:10598000CC7B0008704770B504463D212046FFF7E8
:10599000CFFF85B23D212046FFF7A2FF05F0200092
:1059A00030B1206800F0100010B1204600F029F856
:1059B00005F0100030B1206800F0080010B120465A
:1059C000FFF7E0FF05F0080030B1206800F00400A8
:1059D00010B1204600F016F805F0040030B1206840
:1059E00000F0020010B12046FFF7A0FF05F0010013
:1059F00030B1606900F0800010B12046FFF797FFDA
:105A000070BD7047704701464FF40030081AC0F36C
:105A10008F20704700B502461046FFF7F4FF0121C2
:105A200001FA00F00249096808430149086000BD15
:105A3000303802402DE9F04304460E461546DDE9B4
:105A400007892046FFF7DFFFC7B2002243E00120AD
:105A50009040304000B93CE0214830F81700012167
:105A6000914008431E4921F81700E0684FEA420CB4
:105A7000032101FA0CF18843510008FA01F10843AF
:105A8000E06020684FEA420C032101FA0CF18843E0
:105A9000510005FA01F108432060012D01D0022DCB
:105AA00016D161680120904080B221EA000003FA1B
:105AB00002F189B208436060A0684FEA420C0321FA
:105AC00001FA0CF18843510009FA01F10843A06082
:105AD00000BF501CC2B2102AB9DBBDE8F083000041
