:020000040800F2
:1000000098C40020690200080D220008B1210008F0
:1000100009220008C5050008B561000800000000BD
:10002000000000000000000000000000AD0100081A
:10003000C90600080000000001020008E15600089F
:10004000830200088302000883020008830200087C
:10005000830200088302000883020008830200086C
:10006000830200088302000883020008C905000813
:10007000D9050008E9050008F90500080906000887
:100080001906000829060008830200080000000085
:1000900000000000000000000000000083020008D3
:1000A000830200088302000883020008830200081C
:1000B000830200088302000883020008830200080C
:1000C00083020008830200088302000883020008FC
:1000D00083020008396100085D610008000000002B
:1000E0008302000883020008830200080000000069
:1000F00000000000000000000000000039060008B9
:100100000000000083020008830200088302000848
:1001100000000000000000000000000000000000DF
:100120004906000859060008690600087906000813
:100130008906000800000000000000000000000028
:100140000000000000000000000000008302000822
:1001500099060008A9060008B90600088961000888
:100160008302000883020008000000000000000075
:10017000000000000000000000000000000000007F
:1001800000000000830200080000000000000000E2
:100190008302000883020008DFF80CD000F00EF99B
:1001A00000480047C966000898C400202B4B196816
:1001B0000868B0E8F04F80F30988BFF36F8F4FF005
:1001C000000080F3118870470000000006480068B6
:1001D000006880F3088862B661B6BFF34F8FBFF343
:1001E0006F8F00DF00BF00BF08ED00E0DFF80C00FC
:1001F000016841F470010160704700BF88ED00E0C4
:10020000EFF30980BFF36F8F144B1A681EF0100FC5
:1002100008BF20ED108A20E9F04F106008B44FF0BD
:10022000500080F31188BFF34F8FBFF36F8F06F03C
:100230006FFB4FF0000080F3118808BC1968086854
:10024000B0E8F04F1EF0100F08BFB0EC108A80F33A
:100250000988BFF36F8F704700BF00BF7000002098
:10026000EFF30580704700000648804706480047C6
:10027000FEE7FEE7FEE7FEE7FEE7FEE7FEE7FEE756
:10028000FEE7FEE7E95600089901000840EA01038D
:100290009B0703D009E008C9121F08C0042AFAD23C
:1002A00003E011F8013B00F8013B521EF9D2704700
:1002B000D2B201E000F8012B491EFBD270470022A8
:1002C000F6E710B513460A4604461946FFF7F0FF55
:1002D000204610BD30B505462A460B4612F8010BE4
:1002E00013F8014B08B1A042F8D01CB1002802D08D
:1002F0006D1CF1E7284630BD10B5044604E00B78CC
:1003000000F8013B03B1491C521EF8D2204610BD33
:10031000421C10F8011B0029FBD1801A704710B550
:10032000002200E0521C835C8C5CA34201D1002BB4
:10033000F8D1D8B2E1B2401A10BD30B50546002060
:10034000034600E05B1C934205D2EC5CC85C201ABB
:1003500001D1002CF6D130BD2DE9F05F054600201B
:1003600092469B4688460646814640241BE0284626
:1003700041464746224600F042F853465A46C01AC4
:10038000914110D311461846224600F029F82D1A43
:1003900067EB01084F4622460120002100F020F8BB
:1003A00017EB00094E41201EA4F10104DFDC484692
:1003B00031462A464346BDE8F09F0000064C074DF3
:1003C00006E0E06840F0010394E807009847103425
:1003D000AC42F6D3FFF7E4FE146B0008346B000860
:1003E000202A04DB203A00FA02F1002070479140F5
:1003F000C2F1200320FA03F3194390407047202AEA
:1004000004DB203A21FA02F00021704721FA02F3BE
:10041000D040C2F12002914008431946704730B5E0
:100420000146002409B9002030BD4A688B689A4211
:1004300000D10C68934200D99C1A9A4202D9D51A6D
:100440000868441B601EEFE730B503460BB9002077
:1004500030BD59689A68914200D10024914200D978
:100460008C1A8A4202D9551A1868441B2046EFE7B5
:1004700070B504460D4616460CB9012070BD182112
:100480002046FFF71CFF2560E6600A206074E068E4
:1004900068B9284606F006FAE060E06818B900205E
:1004A00020600120EAE7207C40F002002074207CDC
:1004B00040F0010020740020E0E72DE9F0470446F9
:1004C000884615464FF0000904B115B90020BDE873
:1004D000F0872168A068884201D30020A0602046F0
:1004E000FFF7B2FF0746AF4203D20FB90020EEE795
:1004F0003D46A1682068461AAE4200D92E46D4E98E
:100500000220811832464046FFF7C0FEB144A06881
:100510003044A060AD1B35B108EB09002A46E16804
:10052000FFF7B4FEA5602168A068884201D30020CF
:10053000A06009EB0500CAE700B9704700214160DF
:10054000816000BFF9E72DE9F0470446894615466A
:100550004FF0000804B115B90020BDE8F087D4E9D8
:100560000010884201D3002060602046FFF757FF4B
:100570000746AF4203D20FB90020EEE73D46D4E96B
:100580000001461AAE4200D92E466268E16888181A
:1005900032464946FFF77AFEB044606830446060F6
:1005A000AD1B35B109EB08012A46E068FFF76EFE86
:1005B0006560D4E90010884201D30020606008EB38
:1005C0000500CAE700BFFEE710B5024805F08FF945
:1005D00010BD00001060024010B5024805F087F918
:1005E00010BD00002860024010B5024805F07FF9F8
:1005F00010BD00004060024010B5024805F077F9D8
:1006000010BD00005860024010B5024805F06FF9B7
:1006100010BD00007060024010B5024805F067F997
:1006200010BD00008860024010B5024805F05FF977
:1006300010BD0000A060024010B5024805F057F957
:1006400010BD0000B860024010B5024805F04FF937
:1006500010BD00001064024010B5024805F047F9D3
:1006600010BD00002864024010B5024805F03FF9B3
:1006700010BD00004064024010B5024805F037F993
:1006800010BD00005864024010B5024805F02FF973
:1006900010BD00007064024010B5024805F027F953
:1006A00010BD00008864024010B5024805F01FF933
:1006B00010BD0000A064024010B5024805F017F913
:1006C00010BD0000B8640240704700002DE9F04101
:1006D00004460D46174600BF25B900BF042020710F
:1006E000BDE8F08100BF00BFA08928B941F64C5099
:1006F000005DC0F3400018B100BF09202071EFE792
:1007000000BF00BFA08908B92068606143F20B00F8
:10071000A08100BF28781549886100BF42F210709F
:10072000E0615FB941F64C50005D20F0010141F6F7
:100730004C50015500BF00202071D1E741F64C50CC
:10074000005D20F00100401C41F64C51085542F27A
:100750001071204600F08AFF0646062E00D1BFE742
:10076000267E002020763046BAE700008C23002049
:100770002DE9F04704460D4616461F46DDE9089A66
:1007800000BF0DB106B127B900BF04202071BDE83C
:10079000F08700BF00BFA08928B941F64C50005D2A
:1007A000C0F3400018B100BF09202071EFE700BF7F
:1007B00000BFA08908B92068606143F20500A081EC
:1007C00000BF1948C560C0F810900660876100BF7F
:1007D00042F21070E061BAF1000F0BD141F64C50BB
:1007E000005D20F0010141F64C50015500BF002092
:1007F0002071CCE741F64C50005D20F00100401C18
:1008000041F64C51085542F21071204600F02EFF7F
:100810008046B8F1060F01D10620B8E794F8188099
:10082000002020764046B2E78C2300202DE9FC41D1
:1008300006460D460A2E50D2DFE806F005154F4F4A
:100840004F4F090F384827A005F0B6FC46E02C684A
:10085000217829A005F0B0FC40E02C6821782FA079
:1008600005F0AAFC3AE02C686F6835A0A96805F08D
:10087000A3FC3A4800F090FBB8B939A13846FFF71D
:1008800029FD28B1002221463448FFF71FFF0CE064
:10089000002036494FF49A73354ACDE900102146BD
:1008A0002E48FFF765FF3349087017E02C68217860
:1008B00031A005F081FC002221462848FFF706FF01
:1008C0008046414632A005F077FC07E02C68002204
:1008D00021462248FFF7FAFE00E000BF00BF0020DB
:1008E000BDE8FC81537461636B2069732049444CFB
:1008F00045210D0A00000000436F6E6E6563746948
:100900006F6E202564206A75737420626563616D63
:100910006520616374697665210D0A00436F6E6E10
:10092000656374696F6E20256420776173206A7532
:10093000737420636C6F736564210D0A00000000FE
:10094000446174612072656365697665643A202547
:10095000642062797465730D0A000000880100202C
:100960002F66617669636F6E000000004C00002006
:100970009469000844000020446174612073656E2E
:100980007420636F6E6E3A2025640D0A000000002B
:10099000436C6F736520636F6E6E20726573703A7F
:1009A0002025640D0A000000024600207047000068
:1009B00070B504460D462A4621460348FFF7C3FD9D
:1009C0000646B0B270BD0000F01E00202DE9F041D7
:1009D00004460F4616463225DFF8E083F8480460E7
:1009E00041F668512046FFF76AFC41F65450065123
:1009F0000EB9F449015100202060F34A40F2FF3162
:100A00004046FFF735FDA76004F1080000F0CCFA7E
:100A100020B100BF02202071BDE8F08100BF00209E
:100A2000EA490880EA490880EA49088000BF41F69F
:100A30004C50005D20F00100401C41F64C5108551F
:100A40004FF47A70E0612EE000BFA08908B92068F9
:100A5000606141F20200A08100BFE169204600F020
:100A600005FE00BF0020A08100BFD8490880D849FA
:100A70000880D849088000BF41F64C50005D00F066
:100A8000010040B941F64C50005D20F00200801C8E
:100A900041F64C5108551C21CF48FFF710FC00BF10
:100AA000207E00B903E0281EA5F10105CCD100BFCE
:100AB0006420E0612EE000BFA08908B92068606171
:100AC00041F20100A08100BFE169204600F0CEFDA7
:100AD00000BF0020A08100BFBC490880BC4908803D
:100AE000BC49088000BF41F64C50005D00F0010099
:100AF00040B941F64C50005D20F00200801C41F6E8
:100B00004C5108551C21B448FFF7D9FB00BF207E8B
:100B100000B903E0281EA5F10105CCD100BF2EE0ED
:100B200000BFA08908B92068606141F20300A0817C
:100B300000BFE169204600F099FD00BF0020A081C0
:100B400000BFA2490880A2490880A249088000BFCE
:100B500041F64C50005D00F0010040B941F64C50A8
:100B6000005D20F00200801C41F64C5108551C210C
:100B70009948FFF7A4FB00BF207E00B903E0281EC0
:100B8000A5F10105CCD100BF31E000BFA08908B9B3
:100B90002068606142F20100A08100BF03208E49FD
:100BA0008861E169204600F061FD00BF0020A0815E
:100BB00000BF86490880864908808649088000BFB2
:100BC00041F64C50005D00F0010040B941F64C5038
:100BD000005D20F00200801C41F64C5108551C219C
:100BE0007D48FFF76CFB00BF207E00B903E0281EA4
:100BF000A5F10105C9D100BF31E000BFA08908B946
:100C00002068606143F20D00A08100BF012072499D
:100C10008861E169204600F029FD00BF0020A08125
:100C200000BF6A4908806A4908806A49088000BF95
:100C300041F64C50005D00F0010040B941F64C50C7
:100C4000005D20F00200801C41F64C5108551C212B
:100C50006148FFF734FB00BF207E00B903E0281E87
:100C6000A5F10105C9D100BF31E000BFA08908B9D5
:100C70002068606143F21400A08100BF0120564942
:100C80008861E169204600F0F1FC00BF0020A081EE
:100C900000BF4E4908804E4908804E49088000BF79
:100CA00041F64C50005D00F0010040B941F64C5057
:100CB000005D20F00200801C41F64C5108551C21BB
:100CC0004548FFF7FCFA00BF207E00B903E0281E6C
:100CD000A5F10105C9D100BF31E000BFA08908B965
:100CE0002068606142F20110A08100BF01203A49F2
:100CF0008861E169204600F0B9FC00BF0020A081B6
:100D000000BF32490880324908803249088000BF5C
:100D100041F64C50005D00F0010040B941F64C50E6
:100D2000005D20F00200801C41F64C5108551C214A
:100D30002948FFF7C4FA00BF207E00B903E0281E4F
:100D4000A5F10105C9D100BF31E000BFA08908B9F4
:100D50002068606142F20210A08100BF01201E499C
:100D60008861E169204600F081FC00BF0020A0817D
:100D700000BF16490880164908801649088000BF40
:100D800041F64C50005D00F0010040B941F64C5076
:100D9000005D20F00200801C41F64C5108551C21DA
:100DA0000D48FFF78CFA00BF207E00B903E0281E33
:100DB000A5F10105C9D100BF42E00000F01E0020EE
:100DC00054000020A9090008081F00205800002036
:100DD0005A0000205C0000208C23002000BFA08966
:100DE00008B92068606142F20310A08100BF0120B1
:100DF00065498861E169204600F038FC00BF0020A9
:100E0000A08100BF6149088061490880614908806C
:100E100000BF41F64C50005D00F0010040B941F6C2
:100E20004C50005D20F00200801C41F64C510855EA
:100E30001C215548FFF743FA00BF207E00B903E0AC
:100E4000281EA5F10105C9D100BF31E000BFA0896E
:100E500008B92068606142F20410A08100BF01203F
:100E600049498861E169204600F000FC00BF00208C
:100E7000A08100BF45490880454908804549088050
:100E800000BF41F64C50005D00F0010040B941F652
:100E90004C50005D20F00200801C41F64C5108557A
:100EA0001C213948FFF70BFA00BF207E00B903E090
:100EB000281EA5F10105C9D100BF2EE000BFA08901
:100EC00008B92068606142F20910A08100BFE169A1
:100ED000204600F0CBFB00BF0020A08100BF2B49C3
:100EE00008802B4908802B49088000BF41F64C50F0
:100EF000005D00F0010040B941F64C50005D20F06B
:100F00000200801C41F64C5108551C211E48FFF779
:100F1000D6F900BF207E00B903E0281EA5F1010527
:100F2000CCD100BF00BF0020A08100BF17490880BE
:100F3000174908801749088000BF41F64C50005DF2
:100F400000F0010040B941F64C50005D20F0020075
:100F5000801C41F64C5108551C210B48FFF7AFF996
:100F600000BF41F64C50005D20F0010141F64C50AD
:100F70000155005D20F0020141F64C50015500BFC3
:100F8000207E2071207E47E58C2300205800002021
:100F90005A0000205C0000200146888908B1012029
:100FA00070470020FCE700001CB5044600210948FA
:100FB000226804F05FFF0020012103460A46CDE9C4
:100FC0000010054804F042FD01200349886100201B
:100FD0001CBD0000001001400000024070B5064634
:100FE0000C4615462A462146024804F07CFF0020A4
:100FF00070BD0000001001400246012903D1080421
:10100000034B986102E00120014B9861002070477A
:101010000000024070B504460026A089A0B941F640
:101020004C50005DC0F3400070B141F64C50005D83
:1010300020F0020141F64C50015541F6545002593E
:10104000001D211800209047A08998B941F6505002
:10105000005D00F0010068B141F65050005D20F0E5
:10106000010141F650500155001D0259001D211883
:1010700002209047A08998B941F65050005DC0F316
:10108000400068B141F65050005D20F0020141F689
:1010900050500155001D0259001D21180320904792
:1010A000A08998B941F65050005DC0F3800068B146
:1010B00041F65050005D20F0040141F650500155BA
:1010C000001D0259001D2118042090470026A1E0B0
:1010D00040F2E120704304F1740101EB4005A08966
:1010E00030BB41F64C50005DC0F3400000BB95F8AA
:1010F000C105C0F30010D8B195F8C10520F010006B
:1011000085F8C10541F65850055105F1090041F631
:10111000585121444860B5F8BE0541F65851214464
:10112000886041F654500259001D21180120904753
:10113000A089C8B941F64C50005DC0F3400098B991
:1011400095F8C105C0F3800070B195F8C10520F095
:10115000040085F8C10541F658500551001F025999
:10116000001D211808209047A089C8B941F64C50AD
:10117000005DC0F3400098B995F8C105C0F3C00008
:1011800070B195F8C10520F0080085F8C10541F659
:1011900058500551001F0259001D21180920904781
:1011A000A089C8B941F64C50005DC0F3400098B921
:1011B00095F8C10500F0010070B195F8C10520F067
:1011C000010085F8C10541F658500551001F02592C
:1011D000001D211806209047A089C8B941F64C503F
:1011E000005DC0F3400098B995F8C105C0F3400018
:1011F00070B195F8C10520F0020085F8C10541F6EF
:1012000058500551001F0259001D21180720904712
:10121000701CC6B2052EFFF45BAF00BF002020712A
:1012200070BD00002DE9F04104460D46174600BF91
:10123000002D04DC00BF04202071BDE8F08100BF58
:1012400000BFA08928B941F64C50005DC0F34000B2
:1012500018B100BF09202071EFE700BF00BFA089CF
:1012600008B92068606143F20110A08100BF1548F1
:10127000856100BF4FF47A70E0615FB941F64C5070
:10128000005D20F0010141F64C50015500BF0020E7
:101290002071D2E741F64C50005D20F00100401C67
:1012A00041F64C5108554FF47A71204600F0DEF9B2
:1012B0000646062E00D1C0E7267E00202076304666
:1012C000BBE700008C2300202DE9F04704460D46C3
:1012D00016469846DDE9089A00BF05B126B900BF59
:1012E00004202071BDE8F08700BF00BFA08928B9A5
:1012F00041F64C50005DC0F3400018B100BF09201A
:101300002071EFE700BF00BFA08908B920686061C5
:1013100042F20200A08100BFB9F1000F01D019A074
:1013200000E019A019490860084645608660C0F8C9
:101330000C8000BF47F23050E061BAF1000F0AD1D3
:101340008010005D20F0010141F64C50015500BFB6
:1013500000202071C6E741F64C50005D20F00100EE
:10136000401C41F64C5108558900204600F07EF99A
:101370000746062F00D1B5E7277E002020763846A5
:10138000B0E7000044454600435552008C2300203E
:10139000F8B50446A94D4FF4FA76A08970B12068DB
:1013A0006169401AE169884208D941F66450005DDC
:1013B00020F00200801C41F66451085530E14FF4E2
:1013C000EA50005D00287DD041F64850005B0028BF
:1013D000F9D0A08988B900BFA08908B920686061E8
:1013E00043F21500A08100BF41F64C50005D20F093
:1013F0000100401C41F64C5108559DF8002041F673
:1014000044500059093041F64A51095B425441F6B3
:101410004A50005B401C81B241F64A500153801E85
:10142000005B401E81B241F648500153005B38BB5F
:1014300000214FF4EA500155A08943F2150188427A
:101440001ED100BF0020A08100BF7D4908807D49DA
:1014500008807D49088000BF41F64C50005D00F0D7
:10146000010040B941F64C50005D20F00200801CA4
:1014700041F64C5108551C217448FEF720FF00BF6F
:1014800041F64A50005B40F2B351884204DA41F61B
:101490004850005B002840D141F64450015941F6C4
:1014A0005850015141F644500059093041F6585105
:1014B0002144486041F64A50015B801F0059A0F862
:1014C000BE1500E02AE041F64A50005B41F6585153
:1014D0002144886041F64850005B80B141F6545089
:1014E0000259001D21180120904741F64451095925
:1014F00001F2C150017821F01001017009E041F6BC
:101500004451095901F2C150017821F01001103104
:101510000170002141F64A50015379E09DF8000026
:10152000202803DB9DF800007E2807DD9DF80000E1
:101530000D2803D09DF800000A2863D19DF8000013
:101540000A281BD100BF9DF800104148027800789E
:10155000401C3F4B1870581C81540021401E0278DB
:10156000401C815400BF411E204603F037FD00BFE0
:10157000002037490870487000BF42E09DF8000025
:10158000202810D1334800783E280CD1324800780A
:101590000A2808D141F66450005D20F00400001DC7
:1015A00041F66451085500BF9DF8001028480278A4
:1015B0000078401C264B1870581C81540021401E96
:1015C0000278401C815400BF9DF800003A2817D1D2
:1015D00018460078042813DD184640782B280FD1D0
:1015E00004221EA1581CFEF7A8FE48B9184920463F
:1015F00003F0F4FC00BF002015490870487000BFDC
:1016000000BF05E000BF002011490870487000BF0E
:1016100010480078104908709DF800000D490870C6
:101620003EB1012269462846FEF747FF00287FF4B5
:10163000C6AE204604F018F8F8BD0000F01E0020E9
:10164000580000205A0000205C0000208C2300205D
:10165000082300206C0000206D0000202B4950441E
:101660000000000002680A440260704770B504463A
:101670000D46E56100BF2046FFF78AFEA0890028DD
:10168000F9D141F64C50005DC0F340000028F2D182
:1016900000BF207E2071207E70BD000038B504465A
:1016A0005C20009017E020782C2805D02078222894
:1016B00002D020785C2806D10122694608480068DB
:1016C0000830FFF78BFC2146641C012204480068A7
:1016D0000830FFF783FC20780028E4D138BD0000F3
:1016E00054000020014800687047000004000020FA
:1016F00010B52E480068401C2C4908602C48006832
:1017000020B12B480068401E29490860002444E0AD
:10171000284850F8240000283DD0264850F82400DE
:101720000078C0F34000B0B3224850F8240080682D
:1017300040B1204850F824008068401E1D4951F8EF
:10174000241088601B4850F82400806818BB194B8F
:1017500053F824301969174B53F8240053F82430F8
:10176000DA689047134850F824004168114850F84F
:10177000240081600F4850F82400007800F0010038
:1017800048B90C4850F82400007820F002010948BC
:1017900050F824000170601CC4B20648001F007895
:1017A000A042B5DC04F004F810BD000004000020E5
:1017B00000000020D400002010B50D48006840F45F
:1017C00000700B4908600846006840F480600860BB
:1017D0000846006840F480700860032000F086F836
:1017E0000F2000F007F800F017F8002010BD0000EF
:1017F000003C024070B5044600F0E4F94FF47A7101
:10180000B0FBF1F5284600F081FC00222146501E75
:1018100000F02DF8002070BD7047000000BF00F000
:101820001F0201219140034A430942F8231000BFDF
:101830007047000080E200E000BF00F01F020121BD
:101840009140034A430942F8231000BF704700004B
:1018500080E100E000BF00F01F0201219140420939
:10186000920002F1E022C2F8001100BF70472DE99A
:10187000F05F80460D461646002700F0C9FC07467B
:1018800039462A46334601F00700C0F1070ABAF18B
:10189000040F02D94FF0040A01E0C0F1070AD14653
:1018A00000F1040ABAF1070F02D24FF0000A01E07A
:1018B000A0F1030AD4464FF0010A0AFA09FAAAF184
:1018C000010A0AEA020A0AFA0CFA4FF0010B0BFAB3
:1018D0000CFBABF1010B0BEA030B4AEA0B042146AC
:1018E000404600F09DFCBDE8F09F000000BF00F006
:1018F0000702064B19684FF6FF031940044B0B43D0
:1019000043EA0221014B196000BF70470CED00E073
:101910000000FA0570B504460E460025A748006889
:1019200000F00F00B0426FD2A4490E700846006864
:1019300000F00F00B04201D0012070BD207800F00F
:101940000200022807D19E48006820F0F000A1683C
:1019500008439B490860207800F0010000283ED031
:101960006068012807D1964808380068C0F34040F5
:10197000B8B90120E1E76068022802D06068032856
:1019800007D18F4808380068C0F3406048B901208B
:10199000D3E78B4808380068C0F3400008B901203D
:1019A000CBE78748006820F003006168084384495A
:1019B0000860FFF797FE05466068012810D108E02F
:1019C000FFF790FE401B41F28831884201D9032085
:1019D000B3E77B48006800F00C000428F0D1CDE0AC
:1019E0006068022811D108E0FFF77CFE401B41F23D
:1019F0008831884201D903209FE77148006800F0D0
:101A00000C000828F0D1B9E024E06068032810D168
:101A100008E0FFF767FE401B41F28831884201D998
:101A200003208AE76648006800F00C000328F0D124
:101A3000A4E008E0FFF756FE401B41F288318842DF
:101A400001D9032079E75E48006800F00C00002807
:101A5000F0D193E0207800F00200022807D1584826
:101A6000006820F0F000A16808435549086020781C
:101A700000F00100002877D06068012807D15048A5
:101A800008380068C0F34040B8B9012055E76068E5
:101A9000022802D06068032807D149480838006846
:101AA000C0F3406048B9012047E74548083800685E
:101AB000C0F3400008B901203FE74148006820F02A
:101AC0000300616808433E490860FFF70BFE0546C6
:101AD0006068012810D108E0FFF704FE401B41F2C6
:101AE0008831884201D9032027E73548006800F093
:101AF0000C000428F0D137E06068022810D108E01B
:101B0000FFF7F0FD401B41F28831884201D90320E4
:101B100013E72B48006800F00C000828F0D123E000
:101B20006068032810D108E0FFF7DCFD401B41F29C
:101B30008831884201D90320FFE62148006800F07F
:101B40000C000328F0D10FE008E0FFF7CBFD401BAD
:101B500041F28831884201D90320EEE61848006836
:101B600000F00C000028F0D114490E7008460068FF
:101B700000F00F00B04201D00120DEE6207800F036
:101B80000400042807D10E48006820F4E050E16802
:101B900008430B490860207800F00800082808D1A5
:101BA0000748006820F46040216940EAC100044908
:101BB00008600F20FFF71EFE0020BEE6003C02403A
:101BC0000838024010B500F045F80949096801F0ED
:101BD000F001F02292FAA2F2B2FA82F2D140054A62
:101BE000515CC840044908600846006810BD000008
:101BF00008380240706900085000002010B5FFF757
:101C0000E1FF0749096801F4E0514FF4E05292FA0C
:101C1000A2F2B2FA82F2D140024A515CC84010BD31
:101C2000083802407069000810B5FFF7CBFF07497C
:101C3000096801F460414FF4604292FAA2F2B2FAEC
:101C400082F2D140024A515CC84010BD08380240BF
:101C50007069000870B50021002200230020274C85
:101C6000246804F00C0424B1042C04D0082C41D1C5
:101C700003E0234840E023483EE0204C241F246832
:101C800004F03F011D4C241F246804F4800484B137
:101C90001C4CB4FBF1F5194C241F246847F6C076A0
:101CA000344096FAA6F6B6FA86F6F44005FB04F23E
:101CB0000FE0134CB4FBF1F5104C241F246847F6D9
:101CC000C076344096FAA6F6B6FA86F6F44005FBDE
:101CD00004F20A4C241F246804F440344FF44035C5
:101CE00095FAA5F5B5FA85F5EC40641C6300B2FBE6
:101CF000F3F001E0024800BF00BF70BD08380240A9
:101D00000024F40000127A0038B50446002520783B
:101D100000F00100002866D0F648006800F00C00D2
:101D200004280DD0F348006800F00C00082813D1F7
:101D3000F048001F006800F48000B0F5800F0BD160
:101D4000EC4808380068C0F3404000284BD0606879
:101D5000002848D1012038BD0020E649891F0870BD
:101D6000FFF7C0FC054608E0FFF7BCFC401B41F252
:101D70008831884201D90320EDE7DE480838006841
:101D8000C0F340400028EFD12079DA49891F08705C
:101D90006068A0B1FFF7A6FC054608E0FFF7A2FCCB
:101DA000401B41F28831884201D90320D3E7D14852
:101DB00008380068C0F340400028EFD013E0FFF778
:101DC00091FC054608E0FFF78DFC401B41F288318D
:101DD000884201D90320BEE7C64808380068C0F32E
:101DE00040400028EFD1207800F00200022869D19D
:101DF000C048006800F00C0058B1BE48006800F010
:101E00000C00082821D1BB48001F006800F48000A6
:101E1000D8B9B84808380068C0F3400020B1E0687D
:101E2000012801D0012096E7B2480838006820F068
:101E3000F800F82292FAA2F2B2FA82F221699140F5
:101E40000843AC49083908603CE0E06828B3012049
:101E5000A9490860FFF746FC054606E0FFF742FC8B
:101E6000401B642801D9032075E7A24808380068A0
:101E7000C0F340000028F1D09E480838006820F0E8
:101E8000F800F82292FAA2F2B2FA82F221699140A5
:101E9000084398490839086014E000209649086012
:101EA000FFF720FC054606E0FFF71CFC401B6428FA
:101EB00001D903204FE78F4808380068C0F340007D
:101EC0000028F1D1207800F0080008282CD16069A2
:101ED000A8B1012089490860FFF704FC054606E027
:101EE000FFF700FC401B642801D9032033E7814839
:101EF0006C300068C0F340000028F1D014E00020EE
:101F00007E490860FFF7EEFB054606E0FFF7EAFBB7
:101F1000401B642801D903201DE776486C30006817
:101F2000C0F340000028F1D1207800F0040004281C
:101F30006DD100BF6F483830006840F080506D4967
:101F4000383108600846006800F08050009000BFFB
:101F500000BF6B48006840F4807069490860FFF773
:101F6000C1FB054606E0FFF7BDFB401B642801D915
:101F70000320F0E66248006800F480700028F2D088
:101F800000205C4968310870FFF7ACFB054608E0AB
:101F9000FFF7A8FB401B41F28831884201D903209A
:101FA000D9E6544868300068C0F340000028EFD1FB
:101FB000207A504968310870A068A0B1FFF792FB01
:101FC000054608E0FFF78EFB401B41F2883188424E
:101FD00001D90320BFE6474868300068C0F34000DD
:101FE0000028EFD013E0FFF77DFB054608E0FFF780
:101FF00079FB401B41F28831884201D90320AAE6CF
:102000003C4868300068C0F340000028EFD1A06968
:10201000F0B33848006800F00C00082872D0A069BE
:10202000022850D1002034490866FFF75BFB0546C3
:1020300006E0FFF757FB401B642801D903208AE61E
:102040002C4808380068C0F340600028F1D1D4E97A
:102050000701084347F6C07292FAA2F2B2FA82F27E
:10206000616A914008430122A16AC2EB51014FF419
:10207000403292FAA2F2B2FA82F2914008434FF053
:10208000706292FAA2F2B2FA82F2E16A914000E042
:102090003AE008431749091F0860012016490866FD
:1020A000FFF720FB054606E0FFF71CFB401B6428FA
:1020B00001D903204FE60F4808380068C0F340609C
:1020C0000028F1D020E000200B490866FFF70AFB4A
:1020D000054606E0FFF706FB401B642801D90320F4
:1020E00039E6044808380068C0F340600028F1D1A0
:1020F0000AE007E00838024000004742800E4742ED
:1021000000700040012026E6002024E670B5044659
:102110002546681EB0F1807F01D301200FE0681EC4
:102120004FF0E02148610F214FF0FF3000F078F8C8
:1021300000204FF0E021886107200861002070BD79
:1021400010B504460CB9012010BDA06900B100E033
:1021500000BF94F8390028B9002084F838002046E0
:1021600000F025F8022084F839002068C06820F4C7
:1021700000502168C860204603F0CCFE206800694A
:1021800020F49040216808612068406920F02A000E
:10219000216848612068C06840F400502168C86028
:1021A0000020E063012084F839000020CCE770476C
:1021B00000BFFEE70146302905DB392903DCA1F128
:1021C0003000C0B27047612905DB662903DCA1F14C
:1021D0005700C0B2F6E7412905DB462903DCA1F12F
:1021E0003700C0B2EEE70020ECE7000070B505460E
:1021F0000C46224602A1284603F0EEFF70BD000007
:10220000253032580000000000BFFEE77047000094
:1022100002480068C0F30220704700000CED00E0A7
:1022200010B5002807DA0A07140E054A00F00F035C
:102230001B1FD45403E00A07130E024A135410BDA7
:1022400018ED00E000E400E070B505460C462246BB
:1022500002A1284603F0C0FF70BD00002564000005
:102260007CB505460C46288840F20932811A904216
:102270007ED008DC70B1A0F2E22088B30E2878D0BE
:10228000192877D1C2E0152975D0292974D03629AB
:10229000F7D1A2E2A08941F20101884256D100BFE4
:1022A000002141F6645001512068606100BF0222A4
:1022B000FDA1FE4800680830FEF790FE0222FCA156
:1022C000FA4800680830FEF789FE002241F2010159
:1022D000204603F0FDF900BF40F2E220288000BF55
:1022E00041F66450005D00F0010038B941F66450D9
:1022F000005DC0F3400008B900207CBD00BF41F67E
:102300006450005D00F0010080F00100207600BF05
:102310000020A08100BFE7490880E7490880E7491D
:10232000088000BF41F64C50005D00F0010040B94C
:1023300041F64C50005D20F00200801C41F64C51EB
:1023400008551C21DE48FDF7BAFF7CE2A08941F266
:10235000020188427DD100BF002141F66450015145
:102360002068606100BF0622D6A1D048006804E062
:10237000AAE017E068E228E1D1E10830FEF72EFE7E
:102380000222CBA1C94800680830FEF727FE0022D0
:1023900041F20201204603F09BF900BF4FF43C706C
:1023A000288000BF41F66450005DC0F3C00038B91A
:1023B00041F66450005DC0F3400008B900209CE77E
:1023C00000BF41F66450005DC0F3C00080F0010022
:1023D0002076207E88B3012104F10800FEF70CFE70
:1023E0004FF47A60B949086000BFB8490868411ED7
:1023F000B64A11600028F8D1002104F10800FEF768
:10240000FBFD00BF40F2FB20288000BF41F6645076
:10241000005DC0F3C00038B941F66450005DC0F300
:10242000400008B9002068E700BF41F66450005D35
:10243000C0F3C00080F00100207600BF0020A08122
:1024400000BF9C4908809C4908809C49088000BFC7
:1024500000E013E041F64C50005D00F0010040B98F
:1024600041F64C50005D20F00200801C41F64C51BA
:1024700008551C219248FDF722FFE4E1A08941F2B2
:102480000301884256D100BF002141F6645001513A
:102490002068606100BF06228DA184480068083072
:1024A000FEF79CFD022282A1804800680830FEF7FA
:1024B00095FD002241F20301204603F009F900BF17
:1024C00040F20930288000BF41F66450005D00F002
:1024D000010038B941F66450005DC0F3400008B90E
:1024E00000200AE700BF41F66450005D00F00100E3
:1024F00080F00100207600BF0020A08100BF6D4960
:1025000008806D4908806D49088000BF41F64C5035
:10251000005D00F0010040B941F64C50005D20F034
:102520000200801C41F64C5108551C216448FDF7FF
:10253000C6FE88E1A08941F2070188427DD160484A
:1025400081696846FFF780FE00BF002141F66450B4
:1025500001512068606100BF08225FA153480068F4
:102560000830FEF73BFD56490868FDF7D1FE86B2FC
:102570005348324601684D4800680830FEF72EFD8A
:10258000012258A1494800680830FEF727FD684637
:10259000FDF7BEFE86B23246694644480068083000
:1025A000FEF71CFD082250A1404800680830FEF7E5
:1025B00015FD02223EA13D4800680830FEF70EFDE1
:1025C00000BF40F21E30288000BF41F66450005D1D
:1025D00000F0010038B941F66450005DC0F34000DE
:1025E00008B9002089E600BF41F66450005D00F0A4
:1025F000010080F001002076207E48B93D48FDF7BB
:102600009BFF2F488069A06004F10800FEF7CCFC16
:1026100000BF0020A08100BF26490880264908800D
:102620002649088000BF41F64C50005D00F00100D3
:1026300050B941F64C50005D00E00AE020F0020085
:10264000801C41F64C5108551C211D48FDF737FEF2
:10265000F9E0A08941F20A0188426ED118488169E7
:102660006846FFF7F1FD00BF002141F664500151BB
:102670002068606100BF0B221FA10C480068083071
:10268000FEF7ACFC6846FDF743FE86B2324669466B
:10269000064800680830FEF7A1FC022204A10348A6
:1026A000006808302EE00000415400005400002073
:1026B0000D0A0000580000205A0000205C00002095
:1026C0008C23002041542B52535400006000002002
:1026D00041542B474D52000041542B554152545FF9
:1026E000000000003D0000002C382C312C302C3034
:1026F00000000000F01E002041542B5246504F575E
:1027000045523D00FEF76AFC002241F20A012046D4
:1027100002F0DEFF00BF40F23230288000BF41F6F9
:102720006450005D00F0010040B941F66450005D66
:10273000C0F3400010B90020DFE527E000BF41F6FC
:102740006450005D00F0010080F00100207600BFC1
:102750000020A08100BF3F4908803F4908803F49D1
:10276000088000BF41F64C50005D00F0010040B908
:1027700041F64C50005D20F00200801C41F64C51A7
:1027800008551C213648FDF79AFD5CE0A08941F20E
:102790000601884257D100BF002141F66450015123
:1027A0002068606100BF0A222EA13148006808300D
:1027B000FEF714FC0222AFF208112D480068083021
:1027C000FEF70CFC002241F20601204602F080FFD9
:1027D00000BF40F23F30288000BF41F66450005DEA
:1027E000C0F3C00038B941F66450005DC0F340004A
:1027F00008B9002081E500BF41F66450005DC0F3D8
:10280000C00080F00100207600BF0020A08100BF42
:1028100010490880104908801049088000BF41F61F
:102820004C50005D00F0010040B941F64C50005D95
:1028300020F00200801C41F64C5108551C2108482C
:10284000FDF73DFD00BF00BF00BF00202880032032
:1028500053E50000580000205A0000205C000020D2
:102860008C23002041542B524553544F52450000B5
:10287000540000202DE9FC4105460C46288840F212
:102880002F52811A90427DD015DC40F2D742A0EB46
:102890000201904277D007DCE0B1A0F2BD400028F1
:1028A0004ED00C2870D1B3E00C296ED01A296DD00F
:1028B0004329F7D10CE35A2969D006DC1B2967D0DC
:1028C000222966D04C29EDD1FEE3682978D07429FD
:1028D000E8D1FAE3A08943F20D01884272D1FE48A3
:1028E00081696846FFF7B0FC00BF002141F66450E3
:1028F00001512068606100BF0A22F8A1FA4800680F
:102900000830FEF76BFB6846FDF702FD87B23A46DA
:102910006946F54800680830FEF760FB0222F3A123
:10292000F14800680830FEF759FB002243F20D0120
:10293000204602F0CDFE00BF40F2BD40288000BF1F
:1029400041F66450005D00F0010040B941F664506A
:10295000005DC0F3400010B90020BDE8FC8100BF5D
:1029600041F66450005D00F0010080F00100207627
:1029700000BF0020A08100BFDD490880DD4908803C
:10298000DD4907E01FE3AFE0CDE309E174E1FDE3DA
:10299000BAE3FDE3088000BF41F64C50005D00F053
:1029A000010040B941F64C50005D20F00200801C4F
:1029B00041F64C5108551C21C748FDF780FCCAE27E
:1029C000E7E3FFE7A08943F21401884256D100BF34
:1029D000002141F6645001512068606100BF0D2262
:1029E000C6A1C14800680830FEF7F8FA0222BFA16C
:1029F000BD4800680830FEF7F1FA002243F21401E6
:102A0000204602F065FE00BF40F2C940288000BFAA
:102A100041F66450005D00F0010038B941F66450A1
:102A2000005DC0F3400008B9002096E700BF41F602
:102A30006450005D00F0010080F00100207600BFCE
:102A40000020A08100BFAA490880AA490880AA499D
:102A5000088000BF41F64C50005D00F0010040B915
:102A600041F64C50005D20F00200801C41F64C51B4
:102A700008551C219848FDF722FCA0E7A08943F2E5
:102A80000111884266D1944881696846FFF7DCFBF2
:102A900000BF002141F6645001512068606100BF11
:102AA0000F229AA1904800680830FEF797FA68460E
:102AB000FDF72EFC87B23A4669468B48006808301D
:102AC000FEF78CFA022289A1874800680830FEF7D9
:102AD00085FA002243F20E01204602F0F9FD00BF04
:102AE00040F2D740288000BF41F66450005D00F0FE
:102AF000010038B941F66450005DC0F3400008B9E8
:102B000000202AE700BF41F66450005D00F001009C
:102B100080F00100207600BF0020A08100BF744932
:102B20000880744908807449088000BF41F64C5001
:102B3000005D00F0010040B941F64C50005D20F00E
:102B40000200801C41F64C5108551C216248FDF7DB
:102B5000B6FB34E7A08943F20211884256D100BF88
:102B6000002141F6645001512068606100BF0E22CF
:102B70006AA15D4800680830FEF730FA02225BA1C6
:102B8000594800680830FEF729FA002243F20E0186
:102B9000204602F09DFD00BF40F2E340288000BFC8
:102BA00041F66450005D00F0010038B941F6645010
:102BB000005DC0F3400008B90020CEE600BF41F63A
:102BC0006450005D00F0010080F00100207600BF3D
:102BD0000020A08100BF4649088046490880464938
:102BE000088000BF41F64C50005D00F0010040B984
:102BF00041F64C50005D20F00200801C41F64C5123
:102C000008551C213448FDF75AFBD8E6A08943F249
:102C1000110188425ED1304881696846FFF714FB94
:102C200000BF002141F6645001512068606100BF7F
:102C30000A223EA12C4800680830FEF7CFF968460A
:102C4000FDF766FB87B23A466946274800680830B8
:102C5000FEF7C4F9022225A1234800680830FEF7D8
:102C6000BDF9002243F20E01204602F031FD00BF03
:102C700040F2F140288000BF41F66450005D00F052
:102C8000010038B941F66450005DC0F3400008B956
:102C9000002062E600BF41F66450005D00F00100D4
:102CA00080F00100207600BF0020A08100BF104905
:102CB0000880104908801049088000BF41F64C5038
:102CC000005D00F0010030B941F64C50005D20F08D
:102CD000020031E039E033E08C23002041542B43E3
:102CE00049504D55583D0000540000200D0A000089
:102CF000580000205A0000205C00002041542B4363
:102D0000495044494E464F3D3100000041542B4349
:102D100049505345525645523D312C0041542B43A6
:102D200049505345525645523D30000041542B43C3
:102D3000495053544F3D0000801C41F64C510855FA
:102D40001C21F948FDF7BBFA39E6A08943F20301DB
:102D5000884270D1A089E081002616E040F2E1208F
:102D6000704304F1740101EB400090F8C00500F0DD
:102D7000010040B940F2E120704301EB4000EA4914
:102D80004969086003E0701CC6B2052EE6DB00BF8F
:102D9000E5484069006810B901202076BBE0E248B0
:102DA0004069006890F8C00520F00200801CDE49F0
:102DB0004969096881F8C00531466846FFF744FA59
:102DC00000BF002141F6645001512068606100BFDE
:102DD0000C22D6A1D94800680830FEF7FFF86846F3
:102DE000FDF796FA87B23A466946D448006808303B
:102DF000FEF7F4F80222D2A1D04800680830FEF7AE
:102E0000EDF8C9488069000C38B90322CDA1CB4840
:102E100000680830FEF7E2F81BE0C3488069012132
:102E2000B1EB104F08D10322C7A1C4480068083095
:102E3000FEF7D4F80DE08FE0BB4880690221B1EBCA
:102E4000104F06D10322C1A1BC4800680830FEF72C
:102E5000C5F80322BEA1B94800680830FEF7BEF8E5
:102E6000B1490868FDF754FA87B2AF483A4601689D
:102E7000B24800680830FEF7B1F80222B5A1AF48A9
:102E800000680830FEF7AAF8A748806981B2684652
:102E9000FFF7DAF96846FDF73BFA87B23A4669462A
:102EA000A64800680830FEF799F80222AFF2C41174
:102EB000A24800680830FEF791F8002243F20301AF
:102EC000204602F005FC00BF40F21A50288000BFE7
:102ED00041F66450005D00F0010038B941F66450DD
:102EE000005DC0F3400008B9002036E500BF41F6A0
:102EF0006450005D00F0010080F001002076207E2B
:102F000040B100BF002088494969096881F8C005BF
:102F100000BF00E000BFE089A08100BF0020A081C9
:102F200000BF8D4908808D4908808D49088000BF09
:102F300041F64C50005D00F0010040B941F64C50A4
:102F4000005D20F00200801C41F64C5108551C2108
:102F50007548FDF7B4F9B1E3A08943F20B0188424B
:102F600067D1714881696846FFF76EF900BF00219B
:102F700041F6645001512068606100BF0C2279A1C4
:102F80006E4800680830FEF729F86846FDF7C0F97A
:102F900087B23A466946694800680830FEF71EF86D
:102FA0000222AFF2B821654800680830FEF716F833
:102FB000002243F20E01204602F08AFB00BF40F2DD
:102FC0002F50288000BF41F66450005D00F00100E2
:102FD00038B941F66450005DC0F3400008B90020E4
:102FE000BBE400BF41F66450005D00F0010080F0DA
:102FF0000100207600BF0020A08100BF5649088054
:10300000564908805649088000BF41F64C50005D83
:1030100000F0010040B941F64C50005D20F0020084
:10302000801C41F64C5108551C213F48FDF747F9DB
:1030300044E3A08943F20501884273D1A089E0816D
:103040003948006918B10020374909690860032030
:103050004849087000BF34488069B0F5006F02D954
:103060004FF4006001E0304880694349086000BFC8
:10307000002141F6645001512068606100BF0B22BD
:103080003EA12E4800680830FDF7A8FF2648C0681A
:1030900001786846FFF7D8F86846FDF739F987B236
:1030A0003A466946254800680830FDF797FF012237
:1030B00035A1224800680830FDF790FF2E480168CE
:1030C0006846FFF7C1F801E05AE1C1E26846FDF742
:1030D0001FF987B23A466946184800680830FDF77C
:1030E0007DFF0222AFF2FC31144800680830FDF782
:1030F00075FF002243F20501204602F0E9FA00BF05
:1031000040F24A50288000BF41F66450005DC0F391
:103110008000E0BB41F66450005DC0F34000B0BBEE
:1031200000201AE4F5E0CAE28C23002041542B432E
:10313000495053544152543D0000000054000020B7
:103140002C220000544350005544500053534C006F
:10315000222C2200222C0000580000205A000020BF
:103160005C00002041542B434950434C4F53453D94
:1031700000000000640000206800002041542B4340
:10318000495053454E443D002C00000069E101E0E8
:103190001EE0D7E100BF41F66450005DC0F380003F
:1031A000B0B300BF002141F6645001512068606156
:1031B00000BFFE48008882B2FD480168FD480068F3
:1031C0000830FDF70BFF00BF40F25150288000BFD0
:1031D00041F664502044407800F0010070B941F697
:1031E000645020444078C0F3400038B941F6645040
:1031F000005DC0F3400008B9002016E400BF41F6AE
:1032000064502044407800F0010010B1002001E03B
:1032100010E00B202076207EA0B9E548006988B137
:10322000E34800690068E14909680844E049096920
:10323000086007E041F66450005DC0F3400008B14B
:1032400001202076207E88B90320DB490870D84809
:103250008069D6490968401AD549886108460068DE
:10326000D24909680844D24908600FE041F6645029
:1032700020444078C0F3400028B1CF480078401E79
:10328000CD49087002E00020CB490870C848806929
:1032900020B1C948007800287FF4DDAEC648007828
:1032A00058B1C348C06890F8C10520F00400001D63
:1032B000BF49C96881F8C1050AE0BD48C06890F8F7
:1032C000C10520F008000830B949C96881F8C10576
:1032D000E089A08100BF0020A08100BFB74908801D
:1032E000B7490880B749088000BF41F64C50005DDF
:1032F00000F0010040B941F64C50005D20F00200A2
:10330000801C41F64C5108551C21A948FCF7D7FFF9
:10331000D4E1A08943F20401884267D1A4488169BD
:103320006846FEF791FF00BF002141F6645001514D
:103330002068606100BF0E22A3A19E48006808308B
:10334000FDF74CFE6846FCF7E3FF87B23A46694654
:10335000984800680830FDF741FE0222AFF2746120
:10336000944800680830FDF739FE002243F204015A
:10337000204602F0ADF900BF40F27B50288000BF2C
:1033800041F66450005D00F0010038B941F6645028
:10339000005DC0F3400008B900200EE400BF41F614
:1033A0006450005D00F0010080F00100207600BF55
:1033B0000020A08100BF814908808149088081499F
:1033C000088000BF41F64C50005D00F0010040B99C
:1033D00041F64C50005D20F00200801C41F64C513B
:1033E00008551C217248FCF76AFF67E1A08943F287
:1033F000020188426BD100BF002141F664500151A7
:103400002068606100BF0E2273A16A48006808301E
:10341000FDF7E4FD66490868FCF77AFF87B2644867
:103420003A460168634800680830FDF7D7FD01227D
:103430006DA1604800680830FDF7D0FD0222AFF2B0
:1034400054715C4800680830FDF7C8FD002243F263
:103450000201204602F03CF900BF40F2895028806A
:1034600000BF41F66450005D00F0010038B941F63C
:103470006450005DC0F3400008B9002009E400BFBB
:1034800041F66450005D00F0010080F001002076FC
:1034900000BF0020A08100BF48490880484908803B
:1034A0004849088000BF41F64C50005D00F0010023
:1034B00040B941F64C50005D20F00200801C41F6FE
:1034C0004C5108551C213A48FCF7F9FEF6E0A0895A
:1034D00043F21201884267D100BF002141F66450D7
:1034E00001512068606100BF092240A13148006895
:1034F0000830FDF773FD2E490868FCF709FF87B215
:103500002B483A4601682B4800680830FDF766FDF5
:10351000012235A1274800680830FDF75FFD02222F
:10352000AFF63801234800680830FDF757FD002248
:1035300043F21201204602F0CBF800BF40F2975050
:10354000288000BF41F66450005D00F0010038B9EA
:1035500041F66450005DC0F3400008B90020C4E4A7
:1035600000BF41F66450005D00F0010080F00100F2
:10357000207600BF0020A08100BF104908801049BC
:1035800008801049088000BF41F64C50005D00F0F3
:10359000010040B941F64C50005D20F00200801C53
:1035A00041F64C51085527E02BE000006800002050
:1035B0008C230020540000206400002058000020CC
:1035C0005A0000205C00002041542B4349505353C3
:1035D0004C53495A453D000041542B434950444FF8
:1035E0004D41494E3D2200002200000041542B5025
:1035F000494E473D220000001C213348FCF75FFE86
:103600005CE0A08943F21301884257D100BF00213A
:1036100041F6645001512068606100BF0B222BA16C
:103620002D4800680830FDF7D9FC0222AFF644119E
:10363000294800680830FDF7D1FC002243F213014D
:10364000204602F045F800BF40F2A350288000BF9A
:1036500041F66450005D00F0010038B941F6645055
:10366000005DC0F3400008B900203EE400BF41F611
:103670006450005D00F0010080F00100207600BF82
:103680000020A08100BF1549088015490880154910
:10369000088000BF41F64C50005D00F0010040B9C9
:1036A00041F64C50005D20F00200801C41F64C5168
:1036B00008551C210448FCF702FE00BF00BF00BFF4
:1036C00000202880032010E48C23002041542B4349
:1036D00049555044415445005400002058000020F2
:1036E0005A0000205C0000202DE9FE4305460C46F0
:1036F0003A2000900627288840F20342811A90421F
:103700007ED022DC40F28732A0EB0201904278D0DA
:1037100012DC40F26332A0EB0201904272D006DC70
:1037200068B3A0F25730002841F074825EE00C29A3
:1037300069D01829F8D17CE1192965D035297DD0C7
:1037400051297CD06D29EFD1FEE3562900F0A987DD
:1037500008DC0D2974D02D2973D03D2972D0492958
:10376000E2D1F2E3622900F0FA876F2901F0548078
:103770008D2901F075819E29D6D101F014BAA08956
:1037800042F20101884276D1FB48816901A8FEF727
:103790005BFD00BF002141F664500151206860616B
:1037A00000BF0A22F5A1F84800680830FDF716FCB2
:1037B00001A8FCF7ADFD1FFA80F8424601A9F248C6
:1037C00000680830FDF70AFC0222F0A1EE4800680C
:1037D0000830FDF703FC002242F20101204601F00F
:1037E00077FF00BF40F25730288000BF41F6645099
:1037F000005D00F0010070B941F66450005D04E026
:10380000D5E372E15DE0B8E045E2C0F3400010B9F5
:103810000020BDE8FE8300BF41F66450005D00F06B
:10382000010080F00100207600BF0020A08100BFD1
:10383000D7490880D7490880D74904E0D0E277E328
:10384000FDE3FDE3FDE3088000BF41F64C50005D61
:1038500000F0010040B941F64C50005D20F002003C
:10386000801C41F64C5108551C21C348FCF727FD2C
:1038700001F0CFB9FFE7A08942F20111884256D189
:1038800000BF002141F6645001512068606100BF13
:103890001122C2A1BC4800680830FDF79FFB02223C
:1038A000BAA1B94800680830FDF798FB002242F23F
:1038B0000B01204601F00CFF00BF40F2633028806E
:1038C00000BF41F66450005D00F0010038B941F6D8
:1038D0006450005DC0F3400008B9002099E700BFC4
:1038E00041F66450005D00F0010080F00100207698
:1038F00000BF0020A08100BFA5490880A54908801D
:10390000A549088000BF41F64C50005D00F0010061
:1039100040B941F64C50005D20F00200801C41F699
:103920004C5108551C219448FCF7C9FCA0E7A0891C
:1039300042F20211884256D100BF002141F6645084
:1039400001512068606100BF102299A18E48006873
:103950000830FDF743FB02228CA18B480068083039
:10396000FDF73CFB002242F20C01204601F0B0FEC4
:1039700000BF40F26F30288000BF41F66450005D08
:1039800000F0010038B941F66450005DC0F340001A
:1039900008B900203DE700BF41F66450005D00F02B
:1039A000010080F00100207600BF0020A08100BF50
:1039B00077490880774908807749088000BF41F639
:1039C0004C50005D00F0010040B941F64C50005DE4
:1039D00020F00200801C41F64C5108551C2166481D
:1039E000FCF76DFC44E7A08942F20311884256D1EE
:1039F00000BF002141F6645001512068606100BFA2
:103A00000E2270A1604800680830FDF7E7FA022234
:103A10005EA15D4800680830FDF7E0FA002242F23E
:103A20000D01204601F054FE00BF40F27B3028809B
:103A300000BF41F66450005D00F0010038B941F666
:103A40006450005DC0F3400008B90020E1E600BF0B
:103A500041F66450005D00F0010080F00100207626
:103A600000BF0020A08100BF494908804949088063
:103A70004949088000BF41F64C50005D00F001004C
:103A800040B941F64C50005D20F00200801C41F628
:103A90004C5108551C213848FCF711FCE8E6A08978
:103AA00042F20411884256D100BF002141F6645011
:103AB00001512068606100BF0D2246A132480068B4
:103AC0000830FDF78BFA022230A12F480068083039
:103AD000FDF784FA002242F20E01204601F0F8FDC3
:103AE00000BF40F28730288000BF41F66450005D7F
:103AF00000F0010038B941F66450005DC0F34000A9
:103B000008B9002085E600BF41F66450005D00F072
:103B1000010080F00100207600BF0020A08100BFDE
:103B20001B4908801B4908801B49088000BF41F6DB
:103B30004C50005D00F0010040B941F64C50005D72
:103B400020F00200801C41F64C5108551C210A4807
:103B5000FCF7B5FB8CE6A08942F2051188427DD1C5
:103B60000548466800BF002141F6645001512068B5
:103B7000606100BF0D2235E08C23002041542B43AF
:103B8000574D4F44453D0000540000200D0A0000F1
:103B9000580000205A0000205C00002041542B43B4
:103BA00049505354414D41435F4355523F0000003B
:103BB00041542B43495041504D41435F4355523F7F
:103BC0000000000041542B4349505354415F43557A
:103BD000523F000041542B43495041505F435552DE
:103BE0003F000000F2A1F64800680830FDF7F6F942
:103BF000F4490868FCF78CFB1FFA80F8F14842464C
:103C00000168EF4800680830FDF7E8F90222EEA1EC
:103C1000EB4800680830FDF7E1F906273A200090EC
:103C200018E016F8011B01A8FEF7E0FA01A8FCF75E
:103C30006FFB1FFA80F8424601A9E148006808308E
:103C4000FDF7CCF937B101226946DD48006808303C
:103C5000FDF7C4F9381EA7F1010100E059E0CFB229
:103C6000DFD10122D9A1D64800680830FDF7B6F9A6
:103C70000222AFF2E801D24800680830FDF7AEF941
:103C8000002242F20B01204601F022FD00BF4FF45A
:103C90006870288000BF41F66450005D00F00100AC
:103CA00038B941F66450005DC0F3400008B9002007
:103CB000AFE500BF41F66450005D00F0010080F008
:103CC00001002076207E28B956F8061C216336F8BC
:103CD000020CA08600BF0020A08100BFBC49088064
:103CE000BC490880BC49088000BF41F64C50005DCB
:103CF00000F0010040B941F64C50005D20F0020098
:103D0000801C41F64C5108551C21AE48FCF7D7FAEF
:103D1000AEE5A08942F2061188426FD1A9484668F3
:103D200000BF002141F6645001512068606100BF6E
:103D30000C22AAA1A24800680830FDF74FF9A1495A
:103D40000868FCF7E5FA1FFA80F89E4842460168C9
:103D50009B4800680830FDF741F902229AA1984873
:103D600000680830FDF73AF906273A20009018E07D
:103D700016F8011B01A8FEF739FA01A8FCF7C8FAEA
:103D80001FFA80F8424601A98D4800680830FDF707
:103D900025F937B101226946894800680830FDF7E6
:103DA0001DF9381EA7F10101CFB2E1D1012287A18F
:103DB000834800680830FDF711F90222AFF2342180
:103DC0007F4800680830FDF709F9002242F20C0133
:103DD000204601F07DFC00BF4FF46F70288000BFCB
:103DE00041F66450005D00F0010040B941F66450B6
:103DF000005DC0F3400010B900200AE531E000BFCB
:103E000041F66450005D00F0010080F00100207672
:103E1000207E38B956F8061CC4F8421036F8020C59
:103E2000A4F8460000BF0020A08100BF68490880B8
:103E3000684908806849088000BF41F64C50005D21
:103E400000F0010040B941F64C50005D20F0020046
:103E5000801C41F64C5108551C215A48FCF72FFA9A
:103E600006E5A08942F20B1188426FD15548466899
:103E700000BF002141F6645001512068606100BF1D
:103E80000A225AA14E4800680830FDF7A7F84D49AC
:103E90000868FCF73DFA1FFA80F84A484246016874
:103EA000474800680830FDF799F8022246A14448C7
:103EB00000680830FDF792F804272E20009018E0E3
:103EC00016F8011B01A8FEF7BFF901A8FCF720FABC
:103ED0001FFA80F8424601A9394800680830FDF70A
:103EE0007DF837B101226946354800680830FDF792
:103EF00075F8381EA7F10101CFB2E1D1012233A13B
:103F00002F4800680830FDF769F80222AFF28431CB
:103F10002B4800680830FDF761F8002242F20D01DD
:103F2000204601F0D5FB00BF4FF47670288000BF1B
:103F300041F66450005D00F0010058B941F664504C
:103F4000005DC0F3400002E0C3E035E354E008B98F
:103F500000205EE400BF41F66450005D00F0010007
:103F600080F001002076207E10B956F8040C6062C3
:103F700000BF0020A08100BF1549088015490880B6
:103F80001549088000BF41F64C50005D00F001006B
:103F900040B941F64C50005D20F00200801C41F613
:103FA0004C5108551C210748FCF789F960E4F3E0FF
:103FB00041542B4349505354414D41435F0000004D
:103FC000540000208C2300203D220000220000002D
:103FD000580000205A0000205C00002041542B4370
:103FE000495041504D41435F0000000041542B4374
:103FF00049505354415F0000A08942F20C1188429D
:1040000075D1FE48466800BF002141F66450015159
:104010002068606100BF0922F9A1FC4800680830EF
:10402000FCF7DCFFF5490868FCF772F91FFA80F825
:10403000F24842460168F5480068083002E0E7E0CF
:10404000A9E15CE2FCF7CAFF0222AFF28401EF486B
:1040500000680830FCF7C2FF04272E20009018E00B
:1040600016F8011B01A8FEF7EFF801A8FCF750F9BC
:104070001FFA80F8424601A9E44800680830FCF7BE
:10408000ADFF37B101226946E04800680830FCF70F
:10409000A5FF381EA7F10101CFB2E1D10122AFF295
:1040A000D401DA4800680830FCF798FF0222AFF22A
:1040B0002451D64800680830FCF790FF002242F2F5
:1040C0000D01204601F004FB00BF4FF47D702880F5
:1040D00000BF41F66450005D00F0010040B941F6B8
:1040E0006450005DC0F3400010B9002052E42CE0A1
:1040F00000BF41F66450005D00F0010080F0010057
:104100002076207E10B956F8040C606200BF0020B3
:10411000A08100BFBE490880BE490880BE49088012
:1041200000BF41F64C50005D00F0010040B941F67F
:104130004C50005D20F00200801C41F64C510855A7
:104140001C21AE48FCF7BBF84CE4A08942F20711F1
:1041500088427DD100BF002141F6645001512068A2
:10416000606100BF1122ADA1A84800680830FCF7CB
:1041700035FF0222AFF2EC51A44800680830FCF78A
:104180002DFF002242F20301204601F0A1FA00BFF8
:1041900040F20340288000BF41F66450005D00F00B
:1041A000010038B941F66450005DC0F3400008B921
:1041B00000204BE400BF41F66450005D00F00100B8
:1041C00080F001002076207E00B139E000BF0021A0
:1041D00041F6645001512068606100BF082294A13B
:1041E0008A4800680830FCF7F9FE0222AFF26461E9
:1041F000864800680830FCF7F1FE002242F2040114
:10420000204601F065FA00BF4FF48260288000BFAD
:1042100041F66450005D00F0010038B941F6645089
:10422000005DC0F3400008B900200FE400BF41F674
:104230006450005D00F0010080F00100207600BFB6
:1042400000BF0020A08100BF71490880714900E0D3
:1042500017E008807049088000BF41F64C50005DAF
:1042600000F0010040B941F64C50005D20F0020022
:10427000801C41F64C5108551C216048FCF71FF882
:104280000CE4A08942F2020188427CD15B48C668F6
:1042900000BF002141F6645001512068606100BFF9
:1042A000092266A1594800680830FCF797FE534977
:1042B0000868FCF72DF81FFA80F85048424601685C
:1042C000524800680830FCF789FE0222AFF208313C
:1042D0004E4800680830FCF781FE48494868FDF701
:1042E000DDF9032258A1494800680830FCF776FE42
:1042F00042498868FDF7D2F90122AFF230314348D4
:1043000000680830FCF76AFE86B302224FA13F48DE
:1043100000680830FCF762FE06273A20009018E09B
:1043200016F8011B01A8FDF761FF01A8FBF7F0FFDC
:104330001FFA80F8424601A9344800680830FCF7AB
:104340004DFE37B101226946304800680830FCF75D
:1043500045FE381EA7F10101CFB2E1D10122AFF233
:1043600094312A4800680830FCF738FE0222AFF288
:10437000E471264800680830FCF730FE002242F263
:104380000201204600E093E001F0A2F900BF4FF4E3
:104390008660288000BF41F66450005D00F0010097
:1043A00038B941F66450005DC0F3400008B9002000
:1043B0007EE400BF41F66450005D00F0010080F033
:1043C00001002076207EB8B900BF0020A08100BF88
:1043D0000F4908800F4908800F49088000BF41F647
:1043E0004C50005D00F0010038B941F64C50005DC2
:1043F00020F00200801C2BE03BE02CE08C2300200E
:1044000041542B43495041505F00000054000020AC
:10441000580000205A0000205C00002041542B432B
:10442000574C41504F50543D312C31323700000031
:1044300041542B43574C41500000000041542B4342
:10444000574A41505F000000222C22002C2200001D
:1044500041F64C5108551C21F648FBF730FF00BFD0
:1044600000BFA08908B92068606142F20310A081F2
:10447000CFE300BF0020A08100BFEF490880EF49D3
:104480000880EF49088000BF41F64C50005D00F005
:10449000010040B941F64C50005D20F00200801C44
:1044A00041F64C5108551C21E248FBF708FFB0E3E8
:1044B000A08942F20501884257D100BF002141F690
:1044C000645001512068606100BF0822DDA1E0480E
:1044D00000680830FCF782FD0222AFF65011DC487C
:1044E00000680830FCF77AFD002242F20501204600
:1044F00001F0EEF800BF4FF48860288000BF41F65D
:104500006450005D00F0010038B941F66450005D70
:10451000C0F3400008B900206FE400BF41F66450CA
:10452000005D00F0010080F00100207600BF002057
:10453000A08100BFC0490880C0490880C0490880E8
:1045400000BF41F64C50005D00F0010040B941F65B
:104550004C50005D20F00200801C41F64C51085583
:104560001C21B448FBF7ABFE53E3A08942F20811CB
:10457000884257D100BF002141F6645001512068A4
:10458000606100BF0D22B3A1B14800680830FCF79C
:1045900025FD0222AFF60C21AD4800680830FCF77B
:1045A0001DFD002242F20201204601F091F800BFF9
:1045B00040F24C40288000BF41F66450005D00F09E
:1045C000010038B941F66450005DC0F3400008B9FD
:1045D000002012E400BF41F66450005D00F00100CD
:1045E00080F00100207600BF0020A08100BF92492A
:1045F0000880924908809249088000BF41F64C50DB
:10460000005D00F0010040B941F64C50005D20F023
:104610000200801C41F64C5108551C218548FBF7CF
:104620004EFEF6E2A08942F20A01884270D100BF34
:10463000002141F6645001512068606100BF0E22E4
:1046400088A1834800680830FCF7C8FC794989696B
:1046500009B188A100E088A10846FBF759FE1FFABE
:1046600080F87448806908B182A000E082A0014609
:104670004246774800680830FCF7B0FC0222AFF6EB
:10468000F421734800680830FCF7A8FC002242F2CD
:104690000A01204601F01CF800BF40F25940288072
:1046A00000BF41F66450005D00F0010038B941F6EA
:1046B0006450005DC0F3400008B9002049E400BF29
:1046C00041F66450005D00F0010080F001002076AA
:1046D00000BF0020A08100BF5749088057490880CB
:1046E0005749088000BF41F64C50005D00F00100C2
:1046F00040B941F64C50005D20F00200801C41F6AC
:104700004C5108551C214B48FBF7D9FD81E2FFE7CE
:10471000A08942F20701884257D100BF002141F62B
:10472000645001512068606100BF082253A14848CD
:1047300000680830FCF752FC0222AFF6B031444862
:1047400000680830FCF74AFC002242F207012046CC
:1047500000F0BEFF00BF40F26540288000BF41F678
:104760006450005D00F0010038B941F66450005D0E
:10477000C0F3400008B90020B8E400BF41F664501F
:10478000005D00F0010080F00100207600BF0020F5
:10479000A08100BF2849088028490880284908804E
:1047A00000BF41F64C50005D00F0010040B941F6F9
:1047B0004C50005D20F00200801C41F64C51085521
:1047C0001C211C48FBF77BFD23E2A08942F2091162
:1047D00088427DD100BF002141F66450015120681C
:1047E000606100BF0D2228A1194800680830FCF75D
:1047F000F5FB0222AFF66C41154800680830FCF763
:10480000EDFB002242F20601204600F061FF00BFEE
:1048100040F27240288000BF41F66450005D00F015
:104820000100C8BB41F66450005DC0F3400098BB76
:1048300000205BE48C230020580000205A00002058
:104840005C00002041542B435751415000000000B0
:104850005400002041542B43574A41505F43555266
:104860003F00000041542B43574155544F434F4E96
:104870004E3D0000310000003000000041542B4349
:10488000574C49460000000041542B4357534150B8
:104890005F4355523F000000FFE700BF41F6645000
:1048A000005D00F0010080F00100207600BF0020D4
:1048B000A08100BFDA490880DA490880DA49088017
:1048C00000BF41F64C50005D00F0010050B900E01F
:1048D0000DE041F64C50005D20F00200801C41F6D6
:1048E0004C5108551C21D148FBF7E9FC91E1A08906
:1048F00042F20A1188427CD100BF002141F6645087
:1049000001512068606100BF0922C9A1CB4800683D
:104910000830FCF763FBC5490868FBF7F9FC1FFA90
:1049200080F8C24842460168C44800680830FCF775
:1049300055FB0222AFF67011C04800680830FCF742
:104940004DFBBA494868FCF7A9FE0322AFF20851B3
:10495000BA4800680830FCF741FBB449496801F1E6
:104960001400FCF79BFE0222B5A1B4480068083091
:10497000FCF734FBAD48406890F8291001A8FDF71A
:1049800063FC01A8FBF7C4FC1FFA80F8424601A9AA
:10499000AA4800680830FCF721FB0122A9A1A7481A
:1049A00000680830FCF71AFBA048406890F828100F
:1049B00001A8FDF749FC01A8FBF7AAFC1FFA80F843
:1049C000424601A99D4800680830FCF707FB012218
:1049D0009CA19A4800680830FCF700FB93484068A7
:1049E00090F82A1001A8FDF72FFC01A8FBF790FC16
:1049F00000E095E01FFA80F8424601A98F48006860
:104A00000830FCF7EBFA01228EA18C4800680830D0
:104A1000FCF7E4FA8548406890F82B1001A8FDF7F0
:104A200013FC01A8FBF774FC1FFA80F8424601A9A9
:104A3000824800680830FCF7D1FA0222AFF6B46170
:104A40007E4800680830FCF7C9FA002242F20601ED
:104A5000204600F03DFE00BF4FF49260288000BF6A
:104A600041F66450005D00F0010038B941F6645031
:104A7000005DC0F3400008B9002099E400BF41F692
:104A80006450005D00F0010080F001002076207E7F
:104A9000F0B100BF0020A08100BF614908806149DA
:104AA00008806149088000BF41F64C50005D00F06D
:104AB000010040B941F64C50005D20F00200801C1E
:104AC00041F64C5108551C215848FBF7F8FBA0E073
:104AD00000BF0020A08100BF5149088051490880D3
:104AE0005149088000BF41F64C50005D00F00100C4
:104AF00040B941F64C50005D20F00200801C41F6A8
:104B00004C5108551C214948FBF7D9FB00BF00BF99
:104B1000A08908B92068606142F20910A08178E09C
:104B2000A08942F21301884273D100BF002141F6EF
:104B3000645001512068606100BF072242A13F48D4
:104B400000680830FCF74AFA3849896911B1AFF2B8
:104B5000DC2101E0AFF2E0210846FBF7D9FB1FFAA8
:104B600080F83248806910B1AFF2F82001E0AFF26E
:104B7000F82001464246314800680830FCF72EFA1A
:104B80000222AFF6F8712D4800680830FCF726FACB
:104B9000002242F21301204600F09AFD00BF40F2CD
:104BA000A140288000BF41F66450005D00F0010084
:104BB00038B941F66450005DC0F3400008B90020E8
:104BC000AAE400BF41F66450005D00F0010080F0EF
:104BD0000100207600BF0020A08100BF104908809E
:104BE000104908801049088000BF41F64C50005D14
:104BF00000F0010040B941F64C50005D20F0020089
:104C0000801C41F64C5108551C210848FBF757FB06
:104C100000BF00BF00BF0020288003207CE400000C
:104C2000580000205A0000205C0000208C23002047
:104C300041542B43575341505F0000005400002063
:104C4000222C00002C00000041542B5750533D00F3
:104C5000F8B507460C46154600E0641C207810B1F4
:104C600020782228F9D1207800B9F8BD641C0026EC
:104C700005E014F8012B3046711CCEB22A5420787E
:104C800040B120782228F4D160782C28F1D1A07886
:104C90002228EED100223046711CCEB22A54E41CE8
:104CA000002305F115022146384600F05BF9133464
:104CB0006946204600F06FF9E8769DF80000401C38
:104CC00004446946204600F066F900B2A88300BF9C
:104CD000CBE7F8B506460C4615462078282800D1C3
:104CE000641C22212846FBF7EAFA6946204600F0B8
:104CF00052F928709DF80000401C044420782228B6
:104D000000D1641C0020009015E02078222803D1F7
:104D100060782C2800D111E09DF80000142804D2FE
:104D20002178681C9DF8002081549DF80000401CEB
:104D3000C0B20090641C20780028E6D100BFA41CFB
:104D40006946204600F027F900B2E8829DF800008D
:104D5000401C04442078222800D1641C002305F163
:104D600018022146304600F0FDF81334694620460B
:104D700000F011F9A8779DF80000401C0444694632
:104D8000204600F008F940B2E8779DF80000401C8A
:104D900004446946204600F0FEF885F820009DF89E
:104DA0000000401C0444F8BDF8B506460C46154604
:104DB0006B462A462146304600F08FF89DF80000E9
:104DC000401C04446B462A1D2146304600F0CAF8B8
:104DD000F8BDF8B507460C4615462C212846FBF7CA
:104DE0006EFA002605E014F8012B3046711CCEB295
:104DF0002A54207840B120782228F4D160782C28D9
:104E0000F1D1A0782228EED100223046711CCEB21A
:104E10002A54E41C002607E014F8012B3046711CCC
:104E2000CEB205F114010A54207828B12078222846
:104E3000F2D160782C28EFD100223046711CCEB21E
:104E400005F114010A54A41C6946204600F0A3F899
:104E5000283568709DF80000401C044469462046CF
:104E600000F099F828709DF80000401C0444694641
:104E7000204600F090F8A8709DF80000401C044403
:104E80006946204600F087F8E870283DF8BD2DE916
:104E9000F04104460D460026002707E03601207841
:104EA000FDF788F90644641C781CC7B220783028C6
:104EB00002DB20783928F1DD2078612802DB2078B8
:104EC0006628EBDD2078412802DB20784628E5DDE6
:104ED00005B12F703046BDE8F0812DE9F8438046DA
:104EE0000D4616461C4604270020009004B1207091
:104EF00013E06946284600F04EF806F8010B9DF8CD
:104F00000000401C054444B120789DF8001008447E
:104F1000207017B12078401C2070381EA7F10101C5
:104F2000CFB2E6D1BDE8F883F8B506460D46144683
:104F3000002020606060A0606946284600F02BF8E1
:104F400040F2E121484306F1740101EB400060604A
:104F50009DF80000401C05446946284600F01BF8F7
:104F60002081F8BD2DE9F04180460C4615461E46CD
:104F7000062706E000212046FFF789FF05F8010B10
:104F8000E41C381EA7F10101CFB2F3D10EB11120FC
:104F90003070BDE8F08170B5024600250024002382
:104FA00010782D2803D10125521C601CC4B207E0E3
:104FB000107830380A2603FB0603521C601CC4B26A
:104FC0001078302802DB10783928F1DD01B10C703F
:104FD0000DB1584270BD1846FCE700002DE9F047BE
:104FE0000446884608F101050026002728780D2888
:104FF00004D168780A2801D1BDE8F087F8A12846D5
:10500000FBF78DF900B90026F5A12846FBF787F9D3
:1050100008B9012000E00020064696B9F2A1284612
:10502000FBF77DF908B9012000E00020074647B9E9
:10503000EFA12846FBF773F908B9012000E0002032
:10504000074676B96FB9EDA12846FBF768F940B974
:1050500041F66450005D20F00800083041F66451CC
:105060000855A08941F20301884241D1287841289E
:1050700002D0287861280FD1E248006860B105F1BC
:105080000B00FBF745F9A0F10209DE494A46086822
:1050900005F10B01FBF730F92878532802D0287866
:1050A00073280FD1D748406860B105F10C00FBF7B9
:1050B0002FF9A0F10209D3494A46486805F10C01CD
:1050C000FBF71AF92878432802D0287863280FD1F3
:1050D000CC48806860B105F10D00FBF719F9A0F12B
:1050E0000209C8494A46886805F10D01FBF704F931
:1050F000A08942F20B01884219D128782B2816D1B9
:105100000A22C1A12846FBF718F980B9002304F14F
:10511000300205F110012046FFF724FFB948C068AE
:1051200028B1B848C068216B0160A18E8180A08938
:1051300042F20C0188421BD128782B2818D1092271
:10514000B4A12846FBF7F9F890B9002304F1420214
:1051500005F10F012046FFF705FFAA48C06838B1E6
:10516000A848C068D4F842100160B4F846108180A5
:10517000A08942F20D01884232D128782B282FD104
:105180000822A7A12846FBF7D8F848BB287B692846
:105190000FD1002304F1240205F110012046FFF78E
:1051A0009CFE9848C068D8B19648C068616A0160A2
:1051B00016E0287B672808D1002304F1280205F1B6
:1051C00015012046FFF789FE0AE0287B6E2807D1EB
:1051D000002304F12C0205F115012046FFF77DFEA6
:1051E000A08942F20E01884232D128782B282FD193
:1051F00007228EA12846FBF7A0F848BBE87A692869
:105200000FD1002304F1360205F10F012046FFF70C
:1052100064FE7C48C068D8B17A48C068616A0160A1
:1052200016E0E87A672808D1002304F13A0205F174
:1052300014012046FFF751FE0AE0E87A6E2807D1F4
:10524000002304F13E0205F114012046FFF745FE5C
:10525000A08942F2070188421DD1287830281ADB44
:105260002878392817DC674800690088654989690A
:10527000884210D263482946C2682046FFF794FD51
:105280006048C0680A305F49C86008460069008805
:10529000401C0969088028782B2822D1A08942F275
:1052A000040188421DD1062262A12846FBF745F879
:1052B000B8B954480069008852498969884210D2B7
:1052C0005048E91DC2682046FFF703FD4D48C068FD
:1052D00022304C49C860084600690088401C0969B2
:1052E0000860A08942F2060188420BD1062253A130
:1052F0002846FBF722F828B904F14802E91D2046A8
:10530000FFF767FDA08942F20201884213D14DA147
:105310002846FBF704F808B901270CE00A224BA144
:105320002846FBF70AF830B9364805F10A01C26889
:105330002046FFF78DFCA08943F2120188420FD16D
:1053400028782B280CD16878302809DB6878392830
:1053500006DC0021681CFFF71EFE2A49C9680860A8
:105360003DA12846FAF7DBFFC8B9A08942F2020145
:1053700088420AD141F664502044407820F004006D
:10538000001D41F664512144487041F65050005DC3
:1053900020F00100401C41F6505108558EE033A129
:1053A0002846FAF7BCFFC8B9A08942F20201884238
:1053B0000AD141F664502044407820F008000830BB
:1053C00041F664512144487041F65050005D20F090
:1053D0000200801C41F6505108556FE050E000007B
:1053E0004F4B0D0A000000004552524F520D0A006B
:1053F0006275737920702E2E2E0D0A00726561641D
:10540000790D0A008C2300202B4349505354414D01
:10541000414300002B43495041504D41430000009F
:105420002B4349505354415F000000002B43495027
:1054300041505F002B43574C415000002B435753C2
:10544000415000004641494C0D0A00002B43574A89
:1054500041505F43555200005749464920434F4E43
:105460004E45435445440D0A000000005749464943
:1054700020444953434F4E4E45435445440D0A0082
:1054800065A12846FAF74BFFC0B9A08942F2020194
:1054900088420AD141F664502044407820F0100040
:1054A000103041F664512144487041F65050005D7F
:1054B00020F00400001D41F65051085508225AA161
:1054C000681CFAF73AFFD8B92978303940F2E1225E
:1054D00011FB02F204F1740101EB4200297830392A
:1054E000017090F8C01521F00101491C80F8C01529
:1054F00090F8C11521F00101491C80F8C1151CE08C
:1055000007224CA1681CFAF718FFB0B92978303986
:1055100040F2E12211FB02F204F1740101EB4200BE
:1055200090F8C11521F00201891C80F8C11500BF57
:10553000002180F8C01500BF00BFA08943F205011B
:10554000884222D107223DA12846FAF7F6FE58B933
:1055500041F664502044407820F00100401C41F6A0
:1055600064512144487010E0092236A12846FAF718
:10557000E4FE50B941F664502044407820F0020027
:10558000801C41F6645121444870A08943F2020115
:1055900088420DD10A222EA12846FAF7CEFE38B94C
:1055A0002E48002305F10B01C2682046FFF795FC49
:1055B00004222BA12846FAF7C0FE48B904F5EA52A6
:1055C000691D2046FFF7B0FC01214FF4EA50015558
:1055D00086B141F66450005D20F00100401C41F6A8
:1055E000645108550846005D20F0020141F6645000
:1055F00001550FE077B141F66450005D20F00101E4
:1056000041F664500155005D20F00200801C41F617
:105610006451085500BFEFE45749464920474F54AD
:105620002049500D0A0000002C434F4E4E45435474
:10563000000000002C434C4F5345440053454E445A
:10564000204F4B0053454E44204641494C0000003A
:105650002B434950444F4D41494E00008C230020BC
:105660002B4950440000000010B50446A089B0F555
:10567000805F07DBA089B0F5005F03DA214611489F
:10568000FCF7EEFDA089B0F5005F07DBA089B0F55F
:10569000405F03DA21460C48FEF726F8A089B0F5F2
:1056A000405F07DBA089B0F5804F03DA2146074849
:1056B000FDF7E0F82046FBF7ADFC00BF00202071AD
:1056C00010BD0000580000205A0000205C0000209F
:1056D000034699811A61186858610020187670474E
:1056E00010B5FCF705F810BD1448006840F47000D0
:1056F000124908601248006840F001001049086033
:1057000000200F49083108600D4800680D49084025
:105710000B4908600C48091D0860081F006820F448
:105720008020091F0860002005490C3108604FF0F7
:1057300000600249803908607047000088ED00E091
:1057400000380240FFFFF6FE1030002470B503461B
:1057500000240BB9002070BD58881D88A84201DBC9
:10576000002058801BE05D889888401E854206D046
:10577000988828B95D881888401E854200D113E0BA
:1057800011F8015B5E88701C588098688555601C14
:10579000C4B258881D88A84201DB00205880101E22
:1057A000A2F10105AAB2DED100BF2046D3E7000076
:1057B00010B501210148FBF755FF10BD88010020FD
:1057C0000F48006820F080700D4A10601046006895
:1057D00040F0807010600B48006820F00100094A1A
:1057E00010601046006840F001001060002050601A
:1057F0001046416800BF00BF02484068401A704729
:10580000FCED00E0001000E01CB500200121034683
:105810000246CDE900104903014800F017F91CBD0C
:10582000000802401CB5032000210B460122CDE9EF
:1058300000102021034800F009F94FF4001001493D
:1058400088611CBD0000024030B502460B460E4C7C
:10585000A24207D20D490D4C0834141B1825B4FB85
:10586000F5F006E008490839074C141B1825B4FB6D
:10587000F5F0042801D3091D001F03F03D04044D79
:105880002D5CAC400C6030BD1064024008600240EA
:10589000806900087047704770B502460C460021C9
:1058A000002300200E4DAA4207D20E4B0D4D10359D
:1058B000551B1826B5FBF6F106E0094B103B084DC9
:1058C000551B1826B5FBF6F1042901D31B1D091F32
:1058D0001868054D6D5CE84000F03D0070BD0000AB
:1058E000106402400060024080690008704770B593
:1058F00004463D212046FFF7CFFF85B23D212046DB
:10590000FFF7A2FF05F0200030B1206800F0100082
:1059100010B1204600F029F805F0100030B12068E1
:1059200000F0080010B12046FFF7E0FF05F0080086
:1059300030B1206800F0040010B1204600F016F8E5
:1059400005F0040030B1206800F0020010B12046DC
:10595000FFF7A0FF05F0010030B1606900F08000A2
:1059600010B12046FFF797FF70BD704770470146A2
:105970004FF40030081AC0F38F20704700B502467C
:105980001046FFF7F4FF012101FA00F0024909680F
:1059900008430149086000BD303802402DE9F0435A
:1059A00004460E461546DDE907892046FFF7DFFF6E
:1059B000C7B2002243E001209040304000B93CE0F3
:1059C000214830F817000121914008431E4921F871
:1059D0001700E0684FEA420C032101FA0CF18843FA
:1059E000510008FA01F10843E06020684FEA420CD8
:1059F000032101FA0CF18843510005FA01F1084333
:105A00002060012D01D0022D16D161680120904047
:105A100080B221EA000003FA02F189B20843606013
:105A2000A0684FEA420C032101FA0CF188435100AF
:105A300009FA01F10843A06000BF501CC2B2102A4D
:105A4000B9DBBDE8F0830000B40000202DE9FC4381
:105A500005460C4616461F46DDE909890CB9BDE826
:105A6000FC832846FFF78AFF3B46324621462846FC
:105A7000CDE90089FFF792FF00BFF0E72DE9FC4771
:105A800005460E4617469846DDE90A9A0EB9BDE866
:105A9000FC872846FFF772FF00241AE00120A0408F
:105AA000304000B914E0E10805F1200050F8210071
:105AB0006107CA0E0F21914088436107C90E0AFA97
:105AC00001F10843E20805F1200141F8220000BF7E
:105AD000641C102CE2D33B46022231462846CDE915
