:020000040800F2
:10000000D0280020AD010008191E0008BD1D000801
:10001000151E0008E5040008C16300080000000088
:10002000000000000000000000000000BF01000808
:10003000E905000800000000C3010008715800082D
:10004000C7010008C7010008C7010008C701000870
:10005000C7010008C7010008C7010008C701000860
:10006000C7010008C7010008C7010008E90400082B
:10007000F904000809050008190500082905000809
:100080003905000849050008C70100080000000004
:10009000000000000000000000000000C701000890
:1000A000C7010008C7010008C7010008C701000810
:1000B000C7010008C7010008C7010008C701000800
:1000C000C7010008C7010008C7010008C7010008F0
:1000D000C7010008456300086963000800000000CC
:1000E000C7010008C7010008C701000800000000A0
:1000F000000000000000000000000000590500089A
:1001000000000000C7010008C7010008C70100087F
:1001100000000000000000000000000000000000DF
:100120006905000879050008890500089905000897
:10013000A905000800000000000000000000000009
:10014000000000000000000000000000C7010008DF
:10015000B9050008C9050008D9050008956300081D
:10016000C7010008C70100080000000000000000EF
:10017000000000000000000000000000000000007F
:1001800000000000C701000800000000000000009F
:10019000C7010008C7010008DFF80CD000F09EF886
:1001A00000480047D5680008D0280020064880474E
:1001B00006480047FEE7FEE7FEE7FEE7FEE7FEE74C
:1001C000FEE7FEE7FEE7FEE7795800089901000820
:1001D00040EA01039B0703D009E008C9121F08C0C9
:1001E000042AFAD203E011F8013B00F8013B521E49
:1001F000F9D27047D2B201E000F8012B491EFBD2C0
:1002000070470022F6E710B513460A460446194621
:10021000FFF7F0FF204610BD10B5044604E00B7850
:1002200000F8013B03B1491C521EF8D2204610BD14
:10023000421C10F8011B0029FBD1801A704710B531
:10024000002200E0521C835C8C5CA34201D1002B95
:10025000F8D1D8B2E1B2401A10BD30B50546002041
:10026000034600E05B1C934205D2EC5CC85C201A9C
:1002700001D1002CF6D130BD2DE9F05F05460020FC
:1002800092469B4688460646814640241BE0284607
:1002900041464746224600F042F853465A46C01AA5
:1002A000914110D311461846224600F029F82D1A24
:1002B00067EB01084F4622460120002100F020F89C
:1002C00017EB00094E41201EA4F10104DFDC484673
:1002D00031462A464346BDE8F09F0000064C074DD4
:1002E00006E0E06840F0010394E807009847103406
:1002F000AC42F6D3FFF754FF786A0008986A00080A
:10030000202A04DB203A00FA02F1002070479140D5
:10031000C2F1200320FA03F3194390407047202ACA
:1003200004DB203A21FA02F00021704721FA02F39F
:10033000D040C2F12002914008431946704730B5C1
:100340000146002409B9002030BD4A688B689A42F2
:1003500000D10C68934200D99C1A9A4202D9D51A4E
:100360000868441B601EEFE730B503460BB9002058
:1003700030BD59689A68914200D10024914200D959
:100380008C1A8A4202D9551A1868441B2046EFE796
:1003900070B504460D4616460CB9012070BD1821F3
:1003A0002046FFF72EFF2560E6600A206074E068B3
:1003B00068B9284606F018FBE060E06818B900202C
:1003C00020600120EAE7207C40F002002074207CBD
:1003D00040F0010020740020E0E72DE9F0470446DA
:1003E000884615464FF0000904B115B90020BDE854
:1003F000F0872168A068884201D30020A0602046D1
:10040000FFF7B2FF0746AF4203D20FB90020EEE775
:100410003D46A1682068461AAE4200D92E46D4E96E
:100420000220811832464046FFF7D2FEB144A06850
:100430003044A060AD1B35B108EB09002A46E168E5
:10044000FFF7C6FEA5602168A068884201D300209E
:10045000A06009EB0500CAE700B9704700214160C0
:10046000816000BFF9E72DE9F0470446894615464B
:100470004FF0000804B115B90020BDE8F087D4E9B9
:100480000010884201D3002060602046FFF757FF2C
:100490000746AF4203D20FB90020EEE73D46D4E94C
:1004A0000001461AAE4200D92E466268E1688818FB
:1004B00032464946FFF78CFEB044606830446060C5
:1004C000AD1B35B109EB08012A46E068FFF780FE55
:1004D0006560D4E90010884201D30020606008EB19
:1004E0000500CAE700BFFEE710B5024805F005FBAE
:1004F00010BD00001060024010B5024805F0FDFA82
:1005000010BD00002860024010B5024805F0F5FA61
:1005100010BD00004060024010B5024805F0EDFA41
:1005200010BD00005860024010B5024805F0E5FA21
:1005300010BD00007060024010B5024805F0DDFA01
:1005400010BD00008860024010B5024805F0D5FAE1
:1005500010BD0000A060024010B5024805F0CDFAC1
:1005600010BD0000B860024010B5024805F0C5FAA1
:1005700010BD00001064024010B5024805F0BDFA3D
:1005800010BD00002864024010B5024805F0B5FA1D
:1005900010BD00004064024010B5024805F0ADFAFD
:1005A00010BD00005864024010B5024805F0A5FADD
:1005B00010BD00007064024010B5024805F09DFABD
:1005C00010BD00008864024010B5024805F095FA9D
:1005D00010BD0000A064024010B5024805F08DFA7D
:1005E00010BD0000B86402407047024602B900E046
:1005F00000BF00BF00207047024600207047000087
:1006000070B504460D462A4621460348FFF72BFFE6
:100610000646B0B270BD0000141F00200146087EDF
:1006200000220A76704700002DE9F04104460F468B
:1006300016463225DFF8F883FE48046041F6B051D3
:100640002046FFF7DEFD41F69C5006510EB9FA49EF
:10065000015100202060F94A4FF480714046FFF7B5
:1006600097FEA76004F1080000F0F2FA20B100BF85
:1006700002202071BDE8F08100BF0020F049088011
:10068000F0490880F049088000BF41F69450005DB1
:1006900020F00100401C41F69451085541F2883089
:1006A000E0612FE000BFA08908B92068606141F2D5
:1006B0000200A08100BFE169204600F0DDFD00BF1F
:1006C0000020A08100BFDE490880DE490880DE49A5
:1006D000088000BF41F69450005D00F0010040B971
:1006E00041F69450005D20F00200801C41F69451C8
:1006F00008551C21D548FFF784FD00BF207E00B9B6
:1007000002E06D1E002DCDD100BF6420E0612FE01E
:1007100000BFA08908B92068606141F20100A08192
:1007200000BFE169204600F0A7FD00BF0020A081C6
:1007300000BFC3490880C3490880C349088000BF7F
:1007400041F69450005D00F0010040B941F694502C
:10075000005D20F00200801C41F6945108551C21D8
:10076000BA48FFF74EFD00BF207E00B902E06D1EC3
:10077000002DCDD100BF2FE000BFA08908B92068AF
:10078000606141F20300A08100BFE169204600F0F2
:1007900073FD00BF0020A08100BFA9490880A949BE
:1007A0000880A949088000BF41F69450005D00F020
:1007B000010040B941F69450005D20F00200801C19
:1007C00041F6945108551C21A048FFF71AFD00BFBF
:1007D000207E00B902E06D1E002DCDD100BF32E0B9
:1007E00003209A49886100BFA08908B92068606128
:1007F00042F20100A08100BFE169204600F03CFD0B
:1008000000BF0020A08100BF8D4908808D4908806D
:100810008D49088000BF41F69450005D00F0010052
:1008200040B941F69450005D20F00200801C41F672
:10083000945108551C218548FFF7E3FC00BF207E3A
:1008400000B902E06D1E002DCAD100BF32E00120C8
:100850007E49886100BFA08908B92068606143F2C1
:100860000D00A08100BFE169204600F005FD00BF3A
:100870000020A08100BF7249088072490880724937
:10088000088000BF41F69450005D00F0010040B9BF
:1008900041F69450005D20F00200801C41F6945116
:1008A00008551C216948FFF7ACFC00BF207E00B949
:1008B00002E06D1E002DCAD100BF32E00120634965
:1008C000886100BFA08908B92068606143F2140004
:1008D000A08100BFE169204600F0CEFC00BF0020EF
:1008E000A08100BF564908805649088056490880B3
:1008F00000BF41F69450005D00F0010040B941F6A0
:100900009450005D20F00200801C41F6945108557F
:100910001C214E48FFF775FC00BF207E00B902E0A5
:100920006D1E002DCAD100BF32E000BFA08908B9FA
:100930002068606142F20110A08100BF012043499C
:100940008861E169204600F097FC00BF0020A0818B
:1009500000BF3B4908803B4908803B49088000BFF5
:1009600041F69450005D00F0010040B941F694500A
:10097000005D20F00200801C41F6945108551C21B6
:100980003248FFF73EFC00BF207E00B902E06D1E3A
:10099000002DCAD100BF32E000BFA08908B920688D
:1009A000606142F20210A08100BF012027498861E6
:1009B000E169204600F060FC00BF0020A08100BF7C
:1009C0001F4908801F4908801F49088000BF41F661
:1009D0009450005D00F0010040B941F69450005D74
:1009E00020F00200801C41F6945108551C21174844
:1009F000FFF707FC00BF207E00B902E06D1E002D4E
:100A0000CAD100BF43E000BFA08908B92068606177
:100A100042F20310A08100BF01200C498861E16906
:100A2000204600F029FC00BF0020A08100BF0FE09D
:100A3000141F002068000020F90500082C1F00206A
:100A40006C0000206E00002070000020B02000200C
:100A500077490880774908807749088000BF41F6C8
:100A60009450005D00F0010040B941F69450005DE3
:100A700020F00200801C41F6945108551C216F485B
:100A8000FFF7BFFB00BF207E00B902E06D1E002D06
:100A9000B9D100BF32E000BFA08908B92068606109
:100AA00042F20410A08100BF012064498861E1691D
:100AB000204600F0E1FB00BF0020A08100BF5C49A0
:100AC00008805C4908805C49088000BF41F694506A
:100AD000005D00F0010040B941F69450005D20F047
:100AE0000200801C41F6945108551C215348FFF721
:100AF00088FB00BF207E00B902E06D1E002DCAD128
:100B000000BF2FE000BFA08908B92068606142F2F1
:100B10000910A08100BFE169204600F0ADFB00BFD5
:100B20000020A08100BF4249088042490880424914
:100B3000088000BF41F69450005D00F0010040B90C
:100B400041F69450005D20F00200801C41F6945163
:100B500008551C213948FFF754FB00BF207E00B91F
:100B600002E06D1E002DCDD100BF2CE000BFA0899A
:100B700008B92068606143F20210A08100BFE169FA
:100B8000204600F079FB00BF0020A08100BF28496B
:100B90000880284908802849088000BF41F6945001
:100BA000005D00F0010040B941F69450005D20F076
:100BB0000200801C41F6945108551C211F48FFF784
:100BC00020FB00BF01E0002DD0D100BF00BF0020FE
:100BD000A08100BF16490880164908801649088080
:100BE00000BF41F69450005D00F0010040B941F6AD
:100BF0009450005D20F00200801C41F6945108558D
:100C00001C210E48FFF7FDFA00BF41F69450005D2D
:100C100020F0010141F694500155005D20F00201E1
:100C200041F69450015500BF207E2071207E21E5C1
:100C30006C0000206E00002070000020B02000201A
:100C40000146888908B1012070470020FCE70000B8
:100C50001CB5044600210948226805F011FA00205D
:100C6000012103460A46CDE90010054804F0F4FFCF
:100C700001200349886100201CBD000000100140D4
:100C80000000024070B506460C4615462A4621462D
:100C9000024805F02EFA002070BD0000001001404F
:100CA0000246012903D10804034B986102E00120A8
:100CB000014B986100207047000002402DE9F0418F
:100CC00004460E461546984600BF06B125B900BF3A
:100CD00004202071BDE8F08100BF00BFA08928B9C1
:100CE00041F69450005DC0F3400018B100BF0920E8
:100CF0002071EFE700BF00BFA08908B920686061DC
:100D000043F21200A08100BF002028601648066050
:100D1000C56000BF42F21070E061B8F1000F0BD166
:100D200041F69450005D20F0010141F694500155C8
:100D300000BF00202071CDE741F69450005D20F007
:100D40000100401C41F69451085542F210712046B2
:100D500000F092FA0746062F00D1BBE7277E00205D
:100D600020763846B6E70000B020002070B5044673
:100D70000026A089A0B941F69450005DC0F3400060
:100D800070B141F69450005D20F0020141F694509C
:100D9000015541F69C50025904F5ED510020904751
:100DA000A08998B941F69850005D00F0010068B143
:100DB00041F69850005D20F0010141F69850015530
:100DC000001D025904F5ED5102209047A08998B901
:100DD00041F69850005DC0F3400068B141F698506C
:100DE000005D20F0020141F698500155001D0259A6
:100DF00004F5ED5103209047A08998B941F6985029
:100E0000005DC0F3800068B141F69850005D20F0AD
:100E1000040141F698500155001D025904F5ED51A9
:100E2000042090470026A0E0C6EB461000EB4001EE
:100E300004F1740000EB0115A08920BB41F6945029
:100E4000005DC0F34000F0B995F8CD05C0F3001087
:100E5000C8B195F8CD0520F0100085F8CD054FF408
:100E6000ED50055105F10B0041F6A4510851B5F8BC
:100E7000C01541F6A850015141F69C50025904F5A5
:100E8000ED5101209047A089C8B941F69450005D0A
:100E9000C0F3400098B995F8CD05C0F3800070B15B
:100EA00095F8CD0520F0040085F8CD054FF4ED5000
:100EB0000551001F025904F5ED5108209047A08903
:100EC000C8B941F69450005DC0F3400098B995F858
:100ED000CD05C0F3C00070B195F8CD0520F0080035
:100EE00085F8CD054FF4ED500551001F025904F56A
:100EF000ED5109209047A089C8B941F69450005D92
:100F0000C0F3400098B995F8CD0500F0010070B12C
:100F100095F8CD0520F0010085F8CD054FF4ED5092
:100F20000551001F025904F5ED5106209047A08994
:100F3000C8B941F69450005DC0F3400098B995F8E7
:100F4000CD05C0F3400070B195F8CD0520F002004A
:100F500085F8CD054FF4ED500551001F025904F5F9
:100F6000ED5107209047701CC6B2052EFFF45CAF10
:100F700000BF0020207170BDF8B50446B24D4FF49B
:100F8000FA76A08970B120686169401AE1698842E7
:100F900008D941F6AC50005D20F00200801C41F6FB
:100FA000AC51085543E141F68850005D00287DD0E2
:100FB00041F68850204400890028F8D0A08988B9DB
:100FC00000BFA08908B92068606143F21500A081C4
:100FD00000BF41F69450005D20F00100401C41F636
:100FE000945108559DF8001041F6885020444068FF
:100FF0000B3041F6885222445289815441F6885080
:1010000020444089401C41F688512144488141F6E2
:10101000885020440089401E41F6885121440881AF
:1010200041F688502044008938BB002141F68850A1
:101030000155A08943F2150188421ED100BF00204E
:10104000A08100BF814908808149088081490880CA
:1010500000BF41F69450005D00F0010040B941F638
:101060009450005D20F00200801C41F69451085518
:101070001C217948FFF7C5F800BF41F6885020448D
:10108000408940F2B351884205DA41F68850204445
:101090000089002848D141F68850204441684FF427
:1010A000ED50015141F68850204400E03DE0406899
:1010B0000B3041F6A451085141F688502044408934
:1010C00041F6885121444968A1F8C00541F688508D
:1010D0002044418941F6A850015141F688502044EE
:1010E000008988B141F69C50025904F5ED51012068
:1010F000904741F688512144496801F2CD5001786A
:1011000021F0100101700AE041F68851214449683C
:1011100001F2CD50017821F0100110310170002052
:1011200041F688512144488179E09DF8000020284B
:1011300003DB9DF800007E2807DD9DF800000D28E8
:1011400003D09DF800000A2863D19DF800000A280A
:101150001BD100BF9DF80010404802780078401C69
:101160003E4B1870581C81540021401E0278401CD0
:10117000815400BF411E204603F07CFF00BF0020C9
:1011800036490870487000BF42E09DF800002028F2
:1011900010D1334800783E280CD1324800780A2814
:1011A00008D141F6AC50005D20F00400001D41F66E
:1011B000AC51085500BF9DF800102848027800780F
:1011C000401C264B1870581C81540021401E027888
:1011D000401C815400BF9DF800003A2817D11846E2
:1011E0000078042813DD184640782B280FD10422FC
:1011F0001DA1581CFFF731F848B91849204603F0E3
:1012000039FF00BF002015490870487000BF00BFBB
:1012100005E000BF002011490870487000BF104869
:101220000078104908709DF800000D4908703EB123
:10123000012269462846FFF7D0F800287FF4B3AEB4
:10124000204604F0CFFAF8BD141F00206C000020E7
:101250006E00002070000020B02000202D20002013
:1012600080000020810000202B4950440000000035
:1012700002680A440260704770B504460D46E56195
:1012800000BF2046FFF778FEA0890028F9D141F67B
:101290009450005DC0F340000028F2D100BF207ED2
:1012A0002071207E70BD000038B504465C2000909F
:1012B00017E020782C2805D02078222802D020782A
:1012C0005C2806D101226946084800680830FFF70B
:1012D000D9FC2146641C0122044800680830FFF74D
:1012E000D1FC20780028E4D138BD0000680000203F
:1012F00001480068704700000400002010B52E4827
:101300000068401C2C4908602C48006820B12B481C
:101310000068401E29490860002444E0284850F82D
:10132000240000283DD0264850F824000078C0F35F
:101330004000B0B3224850F82400806840B12048F3
:1013400050F824008068401E1D4951F82410886020
:101350001B4850F82400806818BB194B53F8243000
:101360001969174B53F8240053F82430DA68904772
:10137000134850F824004168114850F82400816057
:101380000F4850F82400007800F0010048B90C48DC
:1013900050F82400007820F00201094850F8240099
:1013A0000170601CC4B20648001F0078A042B5DC82
:1013B00004F0ECFA10BD0000040000200000002042
:1013C000B000002010B50D48006840F400700B49D3
:1013D00008600846006840F48060086008460068BD
:1013E00040F480700860032000F086F80F2000F0C1
:1013F00007F800F017F8002010BD0000003C024084
:1014000070B5044600F0E4F94FF47A71B0FBF1F5E1
:10141000284600F081FC00222146501E00F02DF8E5
:10142000002070BD7047000000BF00F01F020121C6
:101430009140034A430942F8231000BF704700005F
:1014400080E200E000BF00F01F0201219140034A4A
:10145000430942F8231000BF7047000080E100E01C
:1014600000BF00F01F02012191404209920002F1E9
:10147000E022C2F8001100BF70472DE9F05F8046FE
:101480000D461646002700F0C9FC074639462A4695
:10149000334601F00700C0F1070ABAF1040F02D980
:1014A0004FF0040A01E0C0F1070AD14600F1040A36
:1014B000BAF1070F02D24FF0000A01E0A0F1030ACF
:1014C000D4464FF0010A0AFA09FAAAF1010A0AEA17
:1014D000020A0AFA0CFA4FF0010B0BFA0CFBABF103
:1014E000010B0BEA030B4AEA0B042146404600F0CD
:1014F0009DFCBDE8F09F000000BF00F00702064B16
:1015000019684FF6FF031940044B0B4343EA0221CD
:10151000014B196000BF70470CED00E00000FA05B8
:1015200070B504460E460025A748006800F00F007D
:10153000B0426FD2A4490E700846006800F00F0058
:10154000B04201D0012070BD207800F002000228D6
:1015500007D19E48006820F0F000A16808439B492D
:101560000860207800F0010000283ED06068012863
:1015700007D1964808380068C0F34040B8B9012048
:10158000E1E76068022802D06068032807D18F482D
:1015900008380068C0F3406048B90120D3E78B48A1
:1015A00008380068C0F3400008B90120CBE787483D
:1015B000006820F003006168084384490860FFF771
:1015C00097FE05466068012810D108E0FFF790FEFD
:1015D000401B41F28831884201D90320B3E77B48A0
:1015E000006800F00C000428F0D1CDE0606802280B
:1015F00011D108E0FFF77CFE401B41F288318842A0
:1016000001D903209FE77148006800F00C0008280A
:10161000F0D1B9E024E06068032810D108E0FFF7BA
:1016200067FE401B41F28831884201D903208AE7D6
:101630006648006800F00C000328F0D1A4E008E040
:10164000FFF756FE401B41F28831884201D9032042
:1016500079E75E48006800F00C000028F0D193E0C4
:10166000207800F00200022807D15848006820F0D6
:10167000F000A168084355490860207800F0010097
:10168000002877D06068012807D1504808380068E2
:10169000C0F34040B8B9012055E76068022802D085
:1016A0006068032807D1494808380068C0F34060E3
:1016B00048B9012047E7454808380068C0F34000B2
:1016C00008B901203FE74148006820F00300616845
:1016D00008433E490860FFF70BFE05466068012895
:1016E00010D108E0FFF704FE401B41F28831884228
:1016F00001D9032027E73548006800F00C000428D2
:10170000F0D137E06068022810D108E0FFF7F0FD63
:10171000401B41F28831884201D9032013E72B484E
:10172000006800F00C000828F0D123E0606803286E
:1017300010D108E0FFF7DCFD401B41F28831884200
:1017400001D90320FFE62148006800F00C000328BF
:10175000F0D10FE008E0FFF7CBFD401B41F28831EC
:10176000884201D90320EEE61848006800F00C001A
:101770000028F0D114490E700846006800F00F00F0
:10178000B04201D00120DEE6207800F004000428F9
:1017900007D10E48006820F4E050E16808430B4987
:1017A0000860207800F00800082808D10748006881
:1017B00020F46040216940EAC100044908600F201C
:1017C000FFF71EFE0020BEE6003C02400838024043
:1017D00010B500F045F80949096801F0F001F02260
:1017E00092FAA2F2B2FA82F2D140054A515CC840A4
:1017F000044908600846006810BD0000083802402F
:10180000546A00086400002010B5FFF7E1FF0749A3
:10181000096801F4E0514FF4E05292FAA2F2B2FAF0
:1018200082F2D140024A515CC84010BD08380240E3
:10183000546A000810B5FFF7CBFF0749096801F4A7
:1018400060414FF4604292FAA2F2B2FA82F2D140C1
:10185000024A515CC84010BD08380240546A000872
:1018600070B50021002200230020274C246804F0DA
:101870000C0424B1042C04D0082C41D103E02348EB
:1018800040E023483EE0204C241F246804F03F0140
:101890001D4C241F246804F4800484B11C4CB4FB48
:1018A000F1F5194C241F246847F6C076344096FAA7
:1018B000A6F6B6FA86F6F44005FB04F20FE0134CE8
:1018C000B4FBF1F5104C241F246847F6C076344071
:1018D00096FAA6F6B6FA86F6F44005FB04F20A4C30
:1018E000241F246804F440344FF4403595FAA5F5DC
:1018F000B5FA85F5EC40641C6300B2FBF3F001E03F
:10190000024800BF00BF70BD083802400024F40048
:1019100000127A0038B504460025207800F0010056
:10192000002866D0F648006800F00C0004280DD0AE
:10193000F348006800F00C00082813D1F048001F9D
:10194000006800F48000B0F5800F0BD1EC48083837
:101950000068C0F3404000284BD06068002848D1A0
:10196000012038BD0020E649891F0870FFF7C0FC40
:10197000054608E0FFF7BCFC401B41F28831884275
:1019800001D90320EDE7DE4808380068C0F3404085
:101990000028EFD12079DA49891F08706068A0B16A
:1019A000FFF7A6FC054608E0FFF7A2FC401B41F24A
:1019B0008831884201D90320D3E7D148083800682C
:1019C000C0F340400028EFD013E0FFF791FC05463C
:1019D00008E0FFF78DFC401B41F28831884201D9B5
:1019E0000320BEE7C64808380068C0F3404000281E
:1019F000EFD1207800F00200022869D1C0480068C9
:101A000000F00C0058B1BE48006800F00C00082837
:101A100021D1BB48001F006800F48000D8B9B84845
:101A200008380068C0F3400020B1E068012801D008
:101A3000012096E7B2480838006820F0F800F82244
:101A400092FAA2F2B2FA82F2216991400843AC49BB
:101A5000083908603CE0E06828B30120A949086023
:101A6000FFF746FC054606E0FFF742FC401B6428F2
:101A700001D9032075E7A24808380068C0F3400088
:101A80000028F1D09E480838006820F0F800F822BD
:101A900092FAA2F2B2FA82F221699140084398497F
:101AA0000839086014E0002096490860FFF720FC20
:101AB000054606E0FFF71CFC401B642801D9032003
:101AC0004FE78F4808380068C0F340000028F1D184
:101AD000207800F0080008282CD16069A8B1012006
:101AE00089490860FFF704FC054606E0FFF700FCA3
:101AF000401B642801D9032033E781486C3000681B
:101B0000C0F340000028F1D014E000207E490860B6
:101B1000FFF7EEFB054606E0FFF7EAFB401B6428F3
:101B200001D903201DE776486C300068C0F34000FF
:101B30000028F1D1207800F0040004286DD100BF06
:101B40006F483830006840F080506D493831086087
:101B50000846006800F08050009000BF00BF6B484E
:101B6000006840F4807069490860FFF7C1FB0546D2
:101B700006E0FFF7BDFB401B642801D90320F0E617
:101B80006248006800F480700028F2D000205C49B0
:101B900068310870FFF7ACFB054608E0FFF7A8FBCB
:101BA000401B41F28831884201D90320D9E65448CC
:101BB00068300068C0F340000028EFD1207A504917
:101BC00068310870A068A0B1FFF792FB054608E0F5
:101BD000FFF78EFB401B41F28831884201D9032078
:101BE000BFE6474868300068C0F340000028EFD0E7
:101BF00013E0FFF77DFB054608E0FFF779FB401B8C
:101C000041F28831884201D90320AAE63C48683075
:101C10000068C0F340000028EFD1A069F0B3384855
:101C2000006800F00C00082872D0A069022850D18A
:101C3000002034490866FFF75BFB054606E0FFF726
:101C400057FB401B642801D903208AE62C4808383A
:101C50000068C0F340600028F1D1D4E907010843CF
:101C600047F6C07292FAA2F2B2FA82F2616A914029
:101C700008430122A16AC2EB51014FF4403292FAAB
:101C8000A2F2B2FA82F2914008434FF0706292FAE7
:101C9000A2F2B2FA82F2E16A914000E03AE008432F
:101CA0001749091F0860012016490866FFF720FB45
:101CB000054606E0FFF71CFB401B642801D9032002
:101CC0004FE60F4808380068C0F340600028F1D0A4
:101CD00020E000200B490866FFF70AFB054606E0F6
:101CE000FFF706FB401B642801D9032039E60448AE
:101CF00008380068C0F340600028F1D10AE007E02E
:101D00000838024000004742800E47420070004001
:101D1000012026E6002024E670B504462546681E0C
:101D2000B0F1807F01D301200FE0681E4FF0E02169
:101D300048610F214FF0FF3000F078F800204FF09D
:101D4000E021886107200861002070BD10B50446BD
:101D50000CB9012010BDA06900B100E000BF94F8EB
:101D6000390028B9002084F83800204600F025F812
:101D7000022084F839002068C06820F400502168EF
:101D8000C860204604F0CCF92068006920F4904037
:101D9000216808612068406920F02A0021684861B4
:101DA0002068C06840F400502168C8600020E063EB
:101DB000012084F839000020CCE7704700BFFEE71F
:101DC0000146302905DB392903DCA1F13000C0B21E
:101DD0007047612905DB662903DCA1F15700C0B219
:101DE000F6E7412905DB462903DCA1F13700C0B243
:101DF000EEE70020ECE7000070B505460C462246F1
:101E000002A1284604F0EEFA70BD000025303258D9
:101E10000000000000BFFEE77047000002480068B5
:101E2000C0F30220704700000CED00E010B5002860
:101E300007DA0A07140E054A00F00F031B1FD454DB
:101E400003E00A07130E024A135410BD18ED00E018
:101E500000E400E070B505460C46224602A1284683
:101E600004F0C0FA70BD00002564000070B504469F
:101E70000125208820B1512806D0572840D11BE0E9
:101E800000BF5120208000BF2048FEF7D9FE08B1D6
:101E9000002070BD00BF00231D4A1EA11B48FEF795
:101EA0000DFF1F490870002821D11EA004F08AFAF6
:101EB00000BF5720208000BF1448FEF7C1FE08B1C4
:101EC0000020E6E700BF1148FEF7A8FB14490870A0
:101ED0000846007828B90E4801681DA004F072FA7F
:101EE0000AE00F48017821A004F06CFA04E00C48E5
:101EF000017826A004F066FA00202F49087000BF80
:101F000000BF0025002020800320C2E764010020DC
:101F1000600000206578616D706C652E636F6D00E8
:101F20005E0000204E6574776F726B207363616E84
:101F300020686173207374617274656420737563C3
:101F40006365737366756C6C79210D0A000000007F
:101F500050696E67207375636365737366756C2073
:101F6000696E202564206D730D0A000050696E674C
:101F7000206661696C656420776974682065727297
:101F80006F723A2025640D0A0000000050726F62E3
:101F90006C656D73207769746820737461727469FD
:101FA0006E672070696E672070726F64656375720A
:101FB000653A2025640D0A005A0000202DE9FC41F5
:101FC00005460C460127288840F26732811A904264
:101FD0007CD008DC70B1A0F23F3088B30E2876D0F8
:101FE0001A2875D1CBE0162973D02A2972D0372947
:101FF000F7D1B2E2A08941F20101884257D100BF76
:10200000002141F6AC5001512068606100BF0222FE
:10201000FDA1FE4800680830FEF734FE0222FCA154
:10202000FA4800680830FEF72DFE002241F2010157
:10203000204603F00BFC00BF40F23F30288000BF79
:1020400041F6AC50005D00F0010040B941F6AC50E3
:10205000005DC0F3400010B90020BDE8FC8100BF66
:1020600041F6AC50005D00F0010080F001002076E8
:1020700000BF0020A08100BFE6490880E649088033
:10208000E649088000BF41F69450005D00F0010071
:1020900040B941F69450005D20F00200801C41F6EA
:1020A000945108551C21DE48FEF7ABF88BE2A0895D
:1020B00041F20201884271D100BF002141F6AC50CB
:1020C00001512068606100BF062204E0B5E01AE01B
:1020D0007AE239E1E3E1D3A1CC4800680830FEF7A9
:1020E000D1FD0222CAA1C94800680830FEF7CAFD26
:1020F000002241F20201204603F0A8FB00BF40F29B
:102100004D30288000BF41F6AC50005DC0F3C000E8
:1021100038B941F6AC50005DC0F3400008B900206A
:102120009BE700BF41F6AC50005DC0F3C00080F0FB
:1021300001002076207E80B300BF002141F6AC5024
:1021400001512068606100BF012104F10800FEF721
:10215000A7FD4FF47A60B549086000BFB34908682D
:10216000411EB24A11600028F8D1002104F1080094
:10217000FEF796FD00BF40F25930288000BF41F6BF
:10218000AC50005DC0F3C00048B941F6AC50005DF2
:10219000C0F3400018B900205FE709E027E000BF66
:1021A00041F6AC50005DC0F3C00080F00100207625
:1021B00000BF0020A08100BF964908809649088092
:1021C0009649088000BF41F69450005D00F0010080
:1021D00040B941F69450005D20F00200801C41F6A9
:1021E000945108551C218E48FEF70BF8EBE1A089AD
:1021F00041F20301884256D100BF002141F6AC50A4
:1022000001512068606100BF062289A17F480068F3
:102210000830FEF737FD02227DA17C4800680830B7
:10222000FEF730FD002241F20301204603F00EFBD1
:1022300000BF40F26730288000BF41F6AC50005D1F
:1022400000F0010038B941F6AC50005DC0F3400029
:1022500008B9002001E700BF41F6AC50005D00F076
:10226000010080F00100207600BF0020A08100BFA7
:1022700068490880684908806849088000BF41F6BD
:102280009450005D00F0010040B941F69450005DAB
:1022900020F00200801C41F6945108551C21604832
:1022A000FDF7AFFF8FE1A08941F2070188427DD1A0
:1022B0005B4881696846FFF7CDFD00BF002141F60C
:1022C000AC5001512068606100BF08225AA14F48FC
:1022D00000680830FEF7D6FC51490868FDF7A8FFF2
:1022E00086B24F4832460168484800680830FEF719
:1022F000C9FC012253A1454800680830FEF7C2FC22
:102300006846FDF795FF86B2324669463F48006849
:102310000830FEF7B7FC08224BA13C4800680830A3
:10232000FEF7B0FC02223AA1384800680830FEF7F8
:10233000A9FC002241F20701204603F087FA00BF02
:1023400040F27D30288000BF41F6AC50005D00F0C7
:10235000010038B941F6AC50005DC0F3400008B947
:1023600000207AE600BF41F6AC50005D00F00100AD
:1023700080F001002076207E48B93648FEF76CF8E0
:1023800027488069A06004F10800FEF761FC00BFE7
:102390000020A08100BF1F4908801F4908801F49F5
:1023A000088000BF41F69450005D00E010E000F0AE
:1023B000010040B941F69450005D20F00200801CFD
:1023C00041F6945108551C211548FDF71AFFFAE013
:1023D000A08941F20A0188426FD11148816968469B
:1023E000FFF738FD00BF002141F6AC5001512068D5
:1023F000606100BF0B2218A1044800680830FEF796
:1024000041FC68462EE000004154000068000020B6
:102410000D0A00006C0000206E00002070000020FB
:10242000B020002041542B5253540000740000206F
:1024300041542B474D52000041542B554152545F9B
:10244000000000003D0000002C382C312C302C30D6
:1024500000000000141F002041542B5246504F57DB
:1024600045523D00FDF7E4FE86B2324669465948C2
:1024700000680830FEF706FC0222AFF26C015548F6
:1024800000680830FEF7FEFB002241F20A012046F8
:1024900003F0DCF900BF40F29130288000BF41F624
:1024A000AC50005D00F0010040B941F6AC50005D59
:1024B000C0F3400010B90020CFE527E000BF41F68F
:1024C000AC50005D00F0010080F00100207600BFFC
:1024D0000020A08100BF4049088040490880404951
:1024E000088000BF41F69450005D00F0010040B943
:1024F00041F69450005D20F00200801C41F694519A
:1025000008551C213748FDF77CFE5CE0A08941F2AC
:102510000601884257D100BF002141F6AC5001515D
:102520002068606100BF0A222FA12A480068083095
:10253000FEF7A8FB0222AFF22811264800680830F7
:10254000FEF7A0FB002241F20601204603F07EF9CF
:1025500000BF40F29E30288000BF41F6AC50005DC5
:10256000C0F3C00038B941F6AC50005DC0F3400084
:1025700008B9002071E500BF41F6AC50005DC0F322
:10258000C00080F00100207600BF0020A08100BFC5
:1025900011490880114908801149088000BF41F69F
:1025A0009450005D00F0010040B941F69450005D88
:1025B00020F00200801C41F6945108551C21094866
:1025C000FDF71FFE00BF00BF00BF002700202880CE
:1025D000032042E5680000206C0000206E0000200F
:1025E00070000020B020002041542B524553544F1E
:1025F000524500002DE9FC4105460C46012728887C
:10260000B0F5B46F78D018DC40F24352A0EB020171
:10261000904272D00ADC50B3A0F21D5000285CD06A
:102620000C286BD01A2841F031802CE10E297DD086
:1026300018297CD05229F6D1CAE340F20162811AEE
:10264000904275D00ADCA0F2AF50002871D0062865
:1026500070D021286FD02828E5D1FCE30E296BD05B
:102660001C2900F07F872829DDD100F0D8BFA08980
:1026700043F20D01884274D1FD4881696846FFF735
:10268000E9FB00BF002141F6AC50015120686061B8
:1026900000BF0A22F7A1FA4800680830FEF7F2FAF4
:1026A0006846FDF7C5FD86B232466946F4480068C3
:1026B0000830FEF7E7FA0222F2A1F148006808307C
:1026C000FEF7E0FA002243F20D01204603F0BEF8C7
:1026D00000BF40F21D50288000BF41F6AC50005DA5
:1026E00000F0010058B941F6AC50005DC0F3400065
:1026F00028B90020BDE8FC81B2E320E157E000BF2B
:1027000041F6AC50005D00F0010080F00100207641
:1027100000BF0020A08100BFDB490880DB490880A2
:10272000DB49088000BF41F6945006E073E105E202
:10273000F6E3F6E3F6E3F6E3F6E3005D00F001000E
:1027400040B941F69450005D20F00200801C41F633
:10275000945108551C21C648FDF753FD00F095BF64
:10276000FFE7A08943F21401884256D100BF00213F
:1027700041F6AC5001512068606100BF0D22C5A137
:10278000BF4800680830FEF77DFA0222BDA1BC48B0
:1027900000680830FEF776FA002243F21401204662
:1027A00003F054F800BF40F22950288000BF41F6E2
:1027B000AC50005D00F0010038B941F6AC50005D4E
:1027C000C0F3400008B9002094E700BF41F6AC50C8
:1027D000005D00F0010080F00100207600BF0020C5
:1027E000A08100BFA8490880A8490880A84908809E
:1027F00000BF41F69450005D00F0010040B941F681
:102800009450005D20F00200801C41F69451085560
:102810001C219748FDF7F5FCA0E7A08943F20111C0
:10282000884266D1924881696846FFF713FB00BF72
:10283000002141F6AC5001512068606100BF0F22B9
:1028400098A18F4800680830FEF71CFA6846FDF72B
:10285000EFFC86B232466946894800680830FEF7C8
:1028600011FA022287A1864800680830FEF70AFAAA
:10287000002243F20E01204602F0E8FF00BF40F2C2
:102880003750288000BF41F6AC50005D00F00100D9
:1028900038B941F6AC50005DC0F3400008B90020E3
:1028A00028E700BF41F6AC50005D00F0010080F069
:1028B0000100207600BF0020A08100BF724908807F
:1028C000724908807249088000BF41F69450005D4B
:1028D00000F0010040B941F69450005D20F0020084
:1028E000801C41F6945108551C216148FDF789FC74
:1028F00034E7A08943F20211884256D100BF00217B
:1029000041F6AC5001512068606100BF0E2269A100
:102910005B4800680830FEF7B5F9022259A1584813
:1029200000680830FEF7AEF9002243F20E0120469F
:1029300002F08CFF00BF40F24350288000BF41F6F8
:10294000AC50005D00F0010038B941F6AC50005DBC
:10295000C0F3400008B90020CCE600BF41F6AC50FF
:10296000005D00F0010080F00100207600BF002033
:10297000A08100BF44490880444908804449088038
:1029800000BF41F69450005D00F0010040B941F6EF
:102990009450005D20F00200801C41F694510855CF
:1029A0001C213348FDF72DFCD8E6A08943F2110124
:1029B00088425CD12E4881696846FFF74BFA00BF18
:1029C000002141F6AC5001512068606100BF0A222D
:1029D0003CA12B4800680830FEF754F96846FDF723
:1029E00027FC86B232466946254800680830FEF763
:1029F00049F9022223A1224800680830FEF742F973
:102A0000002243F20E01204602F020FF00BF40F2F8
:102A10005150288000BF41F6AC50005D00F001002D
:102A200038B941F6AC50005DC0F3400008B9002051
:102A300060E600BF41F6AC50005D00F0010080F0A0
:102A40000100207600BF0020A08100BF0E49088051
:102A50000E4908800E49088000BF41F69450005D81
:102A600000F00100A0BB41F69450005D31E03BE076
:102A7000B020002041542B4349504D55583D000093
:102A8000680000200D0A00006C0000206E0000208D
:102A90007000002041542B43495044494E464F3D5D
:102AA0003100000041542B43495053455256455282
:102AB0003D312C0041542B43495053455256455209
:102AC0003D30000041542B43495053544F3D0000CA
:102AD00005E020F00200801C41F6945108551C21AD
:102AE000F848FDF78EFB39E6A08943F203018842DE
:102AF00073D1A089E08100BF00BF002141F6AC5036
:102B000001512068606100BF0C22EFA1F24800680B
:102B10000830FEF7B7F80222AFF29801EE480068DD
:102B20000830FEF7AFF8002243F20101204602F020
:102B30008DFE00BF40F25B50288000BF41F6AC50D4
:102B4000005D00F0010038B941F6AC50005DC0F303
:102B5000400008B90020CDE500BF00BF41F6AC50F1
:102B6000005DC0F3400010B10120207689E1002013
:102B7000DA49087037E0D9480078C0EB401000EB24
:102B8000400104F1740000EB011090F8CC0500F056
:102B9000010040B141F68450005DD0490A7801211E
:102BA00091400840D0B9CD4801780078C0EB401082
:102BB00000EB400204F1740000EB02100170C74802
:102BC0000078C0EB401000EB400104F1740000EB12
:102BD0000110BC494969086009E0A6E1BF480078D6
:102BE000401CBE490870BD4800780528C3DB00BF03
:102BF000B4484069006818B1B8480078052802D187
:102C0000012020763DE1AF488069C0F307400228EB
:102C10002DD10020B149087025E0B0480078C0EB04
:102C2000401000EB400104F1740000EB011090F83B
:102C3000CC0500F0010088B1A8480078C0EB401036
:102C400000EB400104F1740000EB011090F8CC059A
:102C5000C0F3800010B10C20207612E19F4800786C
:102C6000401C9E4908709D4800780528D5DB954892
:102C70004069006890F8CC0520F00200801C914962
:102C80004969096881F8CC058E488069C0F307401E
:102C9000022801D1012000E000208A494969096821
:102CA00091F8CC1560F3820186484069006880F88D
:102CB000CC1500BF002141F6AC5001512068606185
:102CC00000BF0C2286A1844800680830FDF7DAFFB7
:102CD0007C484069006801786846FFF7BBF86846A1
:102CE000FDF7A6FA86B2324669467B48006808308E
:102CF000FDF7C8FF01227EA1774800680830FDF784
:102D0000C1FF70488069C0F3074038B9042279A137
:102D1000714800680830FDF7B5FF1AE0694880691E
:102D2000C0F30740012807D1042274A16A48006853
:102D30000830FDF7A7FF0CE062488069C0F3074048
:102D4000022806D104226FA1634800680830FDF70D
:102D500099FF03226DA1604800680830FDF792FFDB
:102D600058490868FDF764FA86B256483246016849
:102D7000594800680830FDF785FF022264A15648D3
:102D800000680830FDF77EFF4E48806981B26846D2
:102D9000FFF760F86846FDF74BFA86B2324669469F
:102DA0004D4800680830FDF76DFF0222AFF22C316C
:102DB000494800680830FDF765FF002243F203012F
:102DC000204602F043FD00BF40F29550288000BF2E
:102DD00041F6AC50005D00F0010038B941F6AC504E
:102DE000005DC0F3400008B9002083E400BF41F655
:102DF000AC50005D00F0010080F001002076207EE4
:102E000048B100BF2F49496908684FF4BA61FDF71E
:102E1000F8F900BF35E000BF00BF002141F6AC501B
:102E200001512068606100BF0C2227A12A48006878
:102E30000830FDF727FF0222AFF2B83126480068BC
:102E40000830FDF71FFF002243F20101204602F087
:102E5000FDFC00BF00E0A4E14FF4B460288000BF97
:102E600041F6AC50005D00F0010038B941F6AC50BD
:102E7000005DC0F3400008B900203BE400BF00BF84
:102E800000BFE089A08100BF0020A08100BF2149D0
:102E90000880214908802149088000BF41F69450EC
:102EA000005D00F0010040B941F69450005D20F053
:102EB0000200801C41F6945108551C210148FDF781
:102EC000A0F9E2E3B020002041542B434950535471
:102ED0004154555300000000680000207800002095
:102EE00041542B43495053544152543D000000007B
:102EF0002C00000022544350000000002255445092
:102F0000000000002253534C00000000222C22003D
:102F1000222C00006C0000206E00002070000020B9
:102F20003CE23BE075E00FE1ABE2A08943F20B012C
:102F300088427CD1A089E081FE4881696846FEF71D
:102F400089FF00BF002141F6AC500151206860614B
:102F500000BF0C22F8A1FC4800680830FDF792FE83
:102F60006846FDF765F986B232466946F64800685C
:102F70000830FDF787FE0222AFF2F841F248006800
:102F80000830FDF77FFE002243F20E01204602F0DA
:102F90005DFC00BF40F2AF50288000BF41F6AC504E
:102FA000005D00F0010038B941F6AC50005DC0F39F
:102FB000400008B9002007E400BF41F6AC50005DB6
:102FC00000F0010080F00100207600BF00BF00216A
:102FD00041F6AC5001512068606100BF0C22AFF295
:102FE0001811D94800680830FDF74CFE0222AFF2F4
:102FF0006C51D54800680830FDF744FE002243F2CA
:103000000101204602F022FC00BF40F2B5502880AA
:1030100000BF41F6AC50005D00F0010040B941F640
:10302000AC50005DC0F3400010B9002038E422E04D
:1030300000BF00BFE089A08100BF0020A08100BFC9
:10304000C2490880C2490880C249088000BF41F6D1
:103050009450005D00F0010040B941F69450005DCD
:1030600020F00200801C41F6945108551C21B14803
:10307000FDF7C7F809E3A08943F20501884271D141
:10308000A089E081AB48006918B10020A94909690D
:1030900008600320B049087000BFA6488069B0F5F9
:1030A000006F02D94FF4006001E0A2488069AB498B
:1030B000086000BF002141F6AC50015120686061FA
:1030C00000BF0B22A6A1A04800680830FDF7DAFD7A
:1030D0009848C06801786846FEF7BCFE6846FDF770
:1030E000A7F886B232466946974800680830FDF76F
:1030F000C9FD0122AFF20821934800680830FDF7AE
:10310000C1FD964801686846FEF7A4FE6846FDF7D3
:103110008FF886B2324669468B4800680830FDF762
:10312000B1FD0222AFF2A461874800680830FDF7C4
:10313000A9FD002243F20501204602F087FB00BFF3
:103140004FF4BA60288000BF41F6AC50005DC0F378
:10315000800040B941F6AC50005DC0F3400010B9AA
:10316000002065E4BEE000BF41F6AC50005DC0F356
:103170008000B0B300BF002141F6AC50015120687F
:10318000606100BF7548008882B26A4801686E4875
:1031900000680830FDF776FD00BF40F2D750288068
:1031A00000BF41F6AC502044407800F0010070B9F7
:1031B00041F6AC5020444078C0F3400038B941F6A5
:1031C000AC50005DC0F3400008B9002030E400BFFF
:1031D00041F6AC502044407800F0010010B10020CE
:1031E00001E010E00B202076207EA0B95148006954
:1031F00088B15048006900685849096808444D4939
:103200000969086007E041F6AC50005DC0F340007A
:1032100008B101202076207E88B903204E4908702D
:10322000444880694D490968401A42498861084606
:1032300000684A49096808443E4908600FE041F6C1
:10324000AC5020444078C0F3400028B14248007898
:10325000401E4149087002E000203F49087035488F
:10326000806920B13C48007800287FF416AF3A48C6
:10327000007858B12F48C06890F8CD0520F00400C0
:10328000001D2C49C96881F8CD050AE02948C068AD
:1032900090F8CD0520F0080008302649C96881F86B
:1032A000CD05E089A08100BF0020A08100BF274993
:1032B0000880274908802749088000BF41F69450BC
:1032C000005D00F0010040B941F69450005D20F02F
:1032D0000200801C41F6945108551C211548FCF74A
:1032E00090FFD2E1A08943F2040188427ED11148C7
:1032F00081696846FEF7AEFD00BF002141F6AC5083
:1033000001512068606100BF0E2218A10E480068BC
:103310000830FDF7B7FC6846FCF78AFF86B23246F4
:103320006946094800680830FDF7ACFC0222AFF698
:10333000AC0123E0B020002041542B434950434CC2
:103340004F53453D00000000680000206C00002045
:103350006E00002070000020790000207C0000201A
:1033600041542B43495053454E443D0041542B4357
:10337000495053534C53495A453D0000C6480068D4
:103380000830FDF77FFC002243F20401204602F0E2
:103390005DFA00BF40F20160288000BF41F6AC50EA
:1033A000005D00F0010038B941F6AC50005DC0F39B
:1033B000400008B9002018E500BF41F6AC50005DA0
:1033C00000F0010080F00100207600BF0020A08105
:1033D00000BFB2490880B2490880B249088000BFE6
:1033E00041F69450005D00F0010000E00EE040B9AD
:1033F00041F69450005D20F00200801C41F694518B
:1034000008551C21A848FCF7FCFE3EE1A08943F2C8
:10341000020188426BD100BF002141F6AC5001513E
:103420002068606100BF0E22A0A19B4800680830A0
:10343000FDF728FC9C490868FCF7FAFE86B29A481A
:1034400032460168944800680830FDF71BFC0122F1
:103450009AA1914800680830FDF714FC0222AFF6EB
:10346000DC118D4800680830FDF70CFC002243F2A7
:103470000201204602F0EAF900BF40F20F60288006
:1034800000BF41F6AC50005D00F0010038B941F6D4
:10349000AC50005DC0F3400008B90020A5E400BFB7
:1034A00041F6AC50005D00F0010080F00100207694
:1034B00000BF0020A08100BF7849088078490880BB
:1034C0007849088000BF41F69450005D00F001008B
:1034D00040B941F69450005D20F00200801C41F696
:1034E000945108551C217048FCF78BFECDE0A08953
:1034F00043F2120188426BD100BF002141F6AC506B
:1035000001512068606100BF09226DA16248006816
:103510000830FDF7B7FB64490868FCF789FE86B2FE
:103520006148324601685C4800680830FDF7AAFB34
:10353000012262A1584800680830FDF7A3FB02226F
:10354000AFF6C021544800680830FDF79BFB00220D
:1035500043F21201204602F079F900BF40F21D60EB
:10356000288000BF41F6AC50005D00F0010038B982
:1035700041F6AC50005DC0F3400008B9002034E4CF
:1035800000BF41F6AC50005D00F0010080F001008A
:10359000207600BF0020A08100BF4049088040493C
:1035A00008804049088000BF41F69450005D00F05B
:1035B000010040B941F69450005D20F00200801CEB
:1035C00041F6945108551C213748FCF71AFE5CE07F
:1035D000A08943F21301884257D100BF002141F670
:1035E000AC5001512068606100BF0B2237A12A480E
:1035F00000680830FDF746FB0222AFF67831264816
:1036000000680830FDF73EFB002243F2130120461C
:1036100002F01CF900BF40F22960288000BF41F68B
:10362000AC50005D00F0010038B941F6AC50005DCF
:10363000C0F3400008B900201FE400BF41F6AC50C1
:10364000005D00F0010080F00100207600BF002046
:10365000A08100BF114908801149088011490880E4
:1036600000BF41F69450005D00F0010040B941F602
:103670009450005D20F00200801C41F694510855E2
:103680001C210948FCF7BDFD00BF00BF00BF00279B
:103690000020288003208EE4680000206C000020B9
:1036A0006E00002070000020B020002041542B4309
:1036B0004950444F4D41494E3D2200002200000038
:1036C00041542B50494E473D2200000041542B43AA
:1036D00049555044415445002DE9FE4305460C46EA
:1036E0003A20009006274FF00109288840F26242F4
:1036F000811A90427ED022DC40F2E632A0EB020139
:10370000904278D012DC40F2C232A0EB020190422B
:1037100072D006DC68B3A0F2B630002841F05582C2
:103720005EE00C2969D01829F8D17CE1192965D00F
:1037300035297DD051297CD06D29EFD1FEE3572961
:1037400000F0868708DC0D2974D02D2973D03E291E
:1037500072D04A29E2D1F2E3632900F0D7877029B9
:1037600001F031808E2901F056819F29D6D101F0D8
:10377000F5B9A08942F20101884276D1FE488169FB
:1037800001A8FEF767FB00BF002141F6AC500151D4
:103790002068606100BF0A22F8A1FB480068083079
:1037A000FDF770FA01A8FCF743FD1FFA80F84246C6
:1037B00001A9F54800680830FDF764FA0222F3A178
:1037C000F14800680830FDF75DFA002242F201017D
:1037D000204602F03BF800BF40F2B630288000BF20
:1037E00041F6AC50005D00F0010070B941F6AC50FC
:1037F000005D04E0FAE372E15DE0B8E04DE2C0F3A1
:10380000400010B90020BDE8FE8300BF41F6AC5077
:10381000005D00F0010080F00100207600BF002074
:10382000A08100BFDA490880DA490880DA4904E05B
:10383000D8E27FE3DBE3FDE3FDE3088000BF41F670
:103840009450005D00F0010040B941F69450005DD5
:1038500020F00200801C41F6945108551C21C648F6
:10386000FCF7CFFC01F0B0B9FFE7A08942F20111EB
:10387000884256D100BF002141F6AC50015120686A
:10388000606100BF1122C5A1BF4800680830FDF784
:10389000F9F90222BDA1BC4800680830FDF7F2F931
:1038A000002242F20B01204601F0D0FF00BF40F29F
:1038B000C230288000BF41F6AC50005D00F001002E
:1038C00038B941F6AC50005DC0F3400008B90020A3
:1038D00099E700BF41F6AC50005D00F0010080F0B8
:1038E0000100207600BF0020A08100BFA849088009
:1038F000A8490880A849088000BF41F69450005D9F
:1039000000F0010040B941F69450005D20F0020043
:10391000801C41F6945108551C219748FCF771FC16
:10392000A0E7A08942F20211884256D100BF0021CF
:1039300041F6AC5001512068606100BF10229CA18B
:10394000914800680830FDF79DF902228FA18E484A
:1039500000680830FDF796F9002242F20C0120467B
:1039600001F074FF00BF40F2CE30288000BF41F666
:10397000AC50005D00F0010038B941F6AC50005D7C
:10398000C0F3400008B900203DE700BF41F6AC504D
:10399000005D00F0010080F00100207600BF0020F3
:1039A000A08100BF7A4908807A4908807A49088056
:1039B00000BF41F69450005D00F0010040B941F6AF
:1039C0009450005D20F00200801C41F6945108558F
:1039D0001C216948FCF715FC44E7A08942F2031159
:1039E000884256D100BF002141F6AC5001512068F9
:1039F000606100BF0E2273A1634800680830FDF7C4
:103A000041F9022261A1604800680830FDF73AF9E7
:103A1000002242F20D01204601F018FF00BF40F2E3
:103A2000DA30288000BF41F6AC50005D00F00100A4
:103A300038B941F6AC50005DC0F3400008B9002031
:103A4000E1E600BF41F6AC50005D00F0010080F0FF
:103A50000100207600BF0020A08100BF4C490880F3
:103A60004C4908804C49088000BF41F69450005DE5
:103A700000F0010040B941F69450005D20F00200D2
:103A8000801C41F6945108551C213B48FCF7B9FBBA
:103A9000E8E6A08942F20411884256D100BF002115
:103AA00041F6AC5001512068606100BF0D2249A170
:103AB000354800680830FDF7E5F8022233A13248A6
:103AC00000680830FDF7DEF8002242F20E012046C1
:103AD00001F0BCFE00BF40F2E630288000BF41F696
:103AE000AC50005D00F0010038B941F6AC50005D0B
:103AF000C0F3400008B9002085E600BF41F6AC5095
:103B0000005D00F0010080F00100207600BF002081
:103B1000A08100BF1E4908801E4908801E490880F8
:103B200000BF41F69450005D00F0010040B941F63D
:103B30009450005D20F00200801C41F6945108551D
:103B40001C210D48FCF75DFB8CE6A08942F20511B3
:103B500088427DD10848466800BF002141F6AC503C
:103B600001512068606100BF0D221EA10648006857
:103B70000830FDF787F83DE0B020002041542B438A
:103B8000574D4F44453D0000680000200D0A0000DD
:103B90006C0000206E0000207000002041542B4378
:103BA00049505354414D41435F4355523F0000003B
:103BB00041542B43495041504D41435F4355523F7F
:103BC0000000000041542B4349505354415F43557A
:103BD000523F000041542B43495041505F435552DE
:103BE0003F00000041542B4349505354414D414341
:103BF0005F000000FE490868FCF71AFB1FFA80F816
:103C0000FB4842460168FB4800680830FDF73AF877
:103C10000222F9A1F74800680830FDF733F80627BB
:103C20003A2000901AE016F8011B01A8FEF7E4F80C
:103C300001A8FCF7FDFA1FFA80F8424601A9ED48F9
:103C400000680830FDF71EF847B10122694600E020
:103C500061E0E84800680830FDF714F8381EA7F165
:103C60000101CFB2DFD10122E4A1E24800680830AF
:103C7000FDF708F80222AFF2EC01DE4800680830D8
:103C8000FDF700F8002242F20B01204601F0DEFDB4
:103C900000BF40F2FF30288000BF41F6AC50005D0D
:103CA00000F0010038B941F6AC50005DC0F34000AF
:103CB00008B90020A7E500BF41F6AC50005D00F058
:103CC000010080F001002076207E28B956F8061CFD
:103CD000216336F8020CA08600BF0020A08100BF3F
:103CE000C7490880C7490880C749088000BF41F616
:103CF0009450005D00F0010040B941F69450005D21
:103D000020F00200801C41F6945108551C21B8484F
:103D1000FCF777FAA6E5A08942F2061188426FD136
:103D2000B348466800BF002141F6AC5001512068FD
:103D3000606100BF0C22B5A1AE4800680830FCF7F6
:103D4000A1FFAB490868FCF773FA1FFA80F8A8488E
:103D500042460168A74800680830FCF793FF02223A
:103D6000A5A1A44800680830FCF78CFF06273A207C
:103D7000009018E016F8011B01A8FEF73DF801A815
:103D8000FCF756FA1FFA80F8424601A999480068E4
:103D90000830FCF777FF37B1012269469548006883
:103DA0000830FCF76FFF381EA7F10101CFB2E1D157
:103DB000012292A18F4800680830FCF763FF0222BD
:103DC000AFF238218B4800680830FCF75BFF002217
:103DD00042F20C01204601F039FD00BF40F21B40C9
:103DE000288000BF41F6AC50005D00F0010040B9F2
:103DF00041F6AC50005DC0F3400010B9002002E570
:103E000031E000BF41F6AC50005D00F0010080F0F1
:103E100001002076207E38B956F8061CC4F84210FE
:103E200036F8020CA4F8460000BF0020A08100BFB5
:103E300073490880734908807349088000BF41F6C0
:103E40009450005D00F0010040B941F69450005DCF
:103E500020F00200801C41F6945108551C21644852
:103E6000FCF7CFF9FEE4A08942F20B11884267D13A
:103E70005F48466800BF002141F6AC500151206800
:103E8000606100BF0A2265A15A4800680830FCF74B
:103E9000F9FE57490868FCF7CBF91FFA80F8544837
:103EA00042460168534800680830FCF7EBFE0222E6
:103EB00051A1504800680830FCF7E4FE04272E208A
:103EC000009018E016F8011B01A8FDF7C3FF01A838
:103ED000FCF7AEF91FFA80F8424601A94548006890
:103EE0000830FCF7CFFE37B101226946414800682F
:103EF0000830FCF7C7FE381EA7F10101CFB2E1D1AF
:103F000001223EA13B4800680830FCF7BBFE0222BC
:103F1000AFF28831374800680830FCF7B3FE002262
:103F200042F20D01204601F091FC00BF40F2374003
:103F3000288000BF41F6AC50005D02E0CBE012E308
:103F400037E000F0010038B941F6AC50005DC0F335
:103F5000400008B9002056E400BF41F6AC50005DB7
:103F600000F0010080F001002076207E10B956F8A4
:103F7000040C606200BF0020A08100BF20490880BF
:103F8000204908802049088000BF41F69450005D18
:103F900000F0010040B941F69450005D20F00200AD
:103FA000801C41F6945108551C211148FCF729F951
:103FB00058E4A08942F20C1188427DD10C48466831
:103FC00000BF002141F6AC5001512068606100BF84
:103FD000092215A1074800680830FCF753FE044980
:103FE0000868FCF725F91FFA80F825E0D5E010E114
:103FF000B0200020680000203D22000022000000C8
:104000006C0000206E0000207000002041542B4303
:10401000495041504D41435F0000000041542B4343
:1040200049505354415F000041542B434950415083
:104030005F000000B0E138E2FD4842460168FD48FB
:1040400000680830FCF71EFE0222AFF25401F94866
:1040500000680830FCF716FE04272E20009018E0B8
:1040600016F8011B01A8FDF7F5FE01A8FCF7E0F822
:104070001FFA80F8424601A9EE4800680830FCF7B4
:1040800001FE37B101226946EA4800680830FCF7B2
:10409000F9FD381EA7F10101CFB2E1D10122AFF243
:1040A000A401E44800680830FCF7ECFD0222AFF2FE
:1040B0002451E048006800E048E00830FCF7E2FDE9
:1040C000002242F20D01204601F0C0FB00BF40F289
:1040D0005340288000BF41F6AC50005D00F0010065
:1040E00038B941F6AC50005DC0F3400008B900207B
:1040F0004AE400BF41F6AC50005D00F0010080F0E2
:1041000001002076207E10B956F8040C606200BFD2
:104110000020A08100BFC8490880C8490880C8495C
:10412000088000BF41F69450005D00F0010040B9E6
:1041300041F69450005D20F00200801C41F694513D
:1041400008551C21BA48FCF75CF845E4A08942F206
:10415000071188427ED100BF002141F6AC500151C9
:104160002068606100BF1122B6A1B2480068083023
:10417000FCF788FD0222AFF2EC51AE48006808302F
:10418000FCF780FD002242F20301204601F05EFBB5
:1041900000BF40F26240288000BF41F6AC50005D95
:1041A00000F0010038B941F6AC50005DC0F34000AA
:1041B00008B9002044E400BF41F6AC50005D00F0B7
:1041C000010080F001002076207E00B139E000BFC0
:1041D000002141F6AC5001512068606100BF082207
:1041E0009DA1944800680830FCF74CFD0222AFF214
:1041F0006461904800680830FCF744FD002242F2F8
:104200000401204601F022FB00BF40F26F402880ED
:1042100000BF41F6AC50005D00F0010038B941F636
:10422000AC50005DC0F3400008B9002008E400BFB6
:1042300041F6AC50005D00F0010080F001002076F6
:1042400000BF00BF0020A08100BF7B4908807B49E0
:10425000088000E016E07A49088000BF41F69450DB
:10426000005D00F0010040B941F69450005D20F07F
:104270000200801C41F6945108551C216C48FBF744
:10428000C0FF05E4A08942F2020188427ED168485D
:10429000C66800BF002141F6AC5001512068606142
:1042A00000BF09226FA1634800680830FCF7EAFCF0
:1042B0005F490868FBF7BCFF1FFA80F85C4842467C
:1042C00001685C4800680830FCF7DCFC0222AFF2B1
:1042D000D821584800680830FCF7D4FC5449486895
:1042E000FCF7E2FF032262A1524800680830FCF7A5
:1042F000C9FC4F498868FCF7D7FF0122AFF20431AF
:104300004C4800680830FCF7BDFC86B3022259A176
:10431000484800680830FCF7B5FC06273A200090B2
:1043200018E016F8011B01A8FDF766FD01A8FBF7D0
:104330007FFF1FFA80F8424601A93E480068083016
:10434000FCF7A0FC37B1012269463A480068083002
:10435000FCF798FC381EA7F10101CFB2E1D1012290
:10436000AFF26831334800680830FCF78BFC02225A
:10437000AFF2E8712F4800680830FCF783FC002298
:1043800042F20201204601F061FA00E040E000BF85
:1043900040F28F40288000BF41F6AC50005D00F035
:1043A000010038B941F6AC50005DC0F3400008B9D7
:1043B00000207FE400BF41F6AC50005D00F001003A
:1043C00080F001002076207E18B942F20310A0810F
:1043D000FAE300BF0020A08100BF174908801749F9
:1043E00008801749088000BF41F69450005D00F036
:1043F000010040B941F69450005D20F00200801C9D
:1044000041F6945108551C210948FBF7FAFEDBE3FD
:10441000A08942F2050188427ED100BF002141F609
:10442000AC5001512068606100BF082224E0000008
:10443000B0200020680000206C0000206E000020EA
:104440007000002041542B43574C41504F50543D75
:10445000312C31323700000041542B43574C41502E
:104460000000000041542B43574A41505F000000B8
:10447000222C22002C220000FBA1FE4800680830FC
:10448000FCF700FC0222AFF6FC01FA480068083095
:10449000FCF7F8FB002242F20501204601F0D6F9B4
:1044A00000BF4FF49460288000BF41F6AC50005D1F
:1044B00000F0010038B941F6AC50005DC0F3400097
:1044C00008B900209BE400BF41F6AC50005D00F04D
:1044D000010080F00100207600BF0020A08100BF15
:1044E000E5490880E5490880E549088000BF41F6B4
:1044F0009450005D00F0010040B941F69450005D19
:1045000020F00200801C41F6945108551C21DD4822
:10451000FBF777FE58E3FFE7A08942F208118842D3
:1045200057D100BF002141F6AC50015120686061B5
:1045300000BF0D22D4A1CF4800680830FCF7A2FBD1
:104540000222AFF6B811CB4800680830FCF79AFB9E
:10455000002242F20201204601F078F900BF40F249
:10456000AC40288000BF41F6AC50005D00F0010077
:1045700038B941F6AC50005DC0F3400008B90020E6
:104580003DE400BF41F6AC50005D00F0010080F05A
:104590000100207600BF0020A08100BFB64908803E
:1045A000B6490880B649088000BF41F69450005DC6
:1045B00000F0010040B941F69450005D20F0020087
:1045C000801C41F6945108551C21AE48FBF719FE9A
:1045D000FAE2A08942F20A01884270D100BF0021AC
:1045E00041F6AC5001512068606100BF0E22AAA1C3
:1045F000A04800680830FCF745FBA249896909B169
:10460000A9A100E0A9A10846FBF712FE1FFA80F855
:104610009C48806908B1A4A000E0A4A001464246DD
:10462000944800680830FCF72DFB0222AFF6A42165
:10463000904800680830FCF725FB002242F20A018E
:10464000204601F003F900BF40F2B940288000BFC6
:1046500041F6AC50005D00F0010038B941F6AC50B5
:10466000005DC0F3400008B9002074E400BF41F6CB
:10467000AC50005D00F0010080F00100207600BF2A
:104680000020A08100BF7C4908807C4908807C49CB
:10469000088000BF41F69450005D00F0010040B971
:1046A00041F69450005D20F00200801C41F69451C8
:1046B00008551C217348FBF7A4FD85E2FFE7A0899C
:1046C00042F20701884257D100BF002141F6AC50A9
:1046D00001512068606100BF082275A1654800682B
:1046E0000830FCF7CFFA0222AFF66031614800686B
:1046F0000830FCF7C7FA002242F20701204601F019
:10470000A5F800BF40F2C540288000BF41F6AC507C
:10471000005D00F0010038B941F6AC50005DC0F317
:10472000400008B9002016E400BF41F6AC50005D1F
:1047300000F0010080F00100207600BF0020A08181
:1047400000BF4D4908804D4908804D49088000BF91
:1047500041F69450005D00F0010040B941F69450DC
:10476000005D20F00200801C41F6945108551C2188
:104770004448FBF746FD27E2A08942F2091188422E
:1047800057D100BF002141F6AC5001512068606153
:1047900000BF0D2249A1374800680830FCF772FAC3
:1047A0000222AFF61841334800680830FCF76AFA75
:1047B000002242F20601204601F048F800BF40F214
:1047C000D240288000BF41F6AC50005D00F00100EF
:1047D00038B941F6AC50005DC0F3400008B9002084
:1047E00086E400BF41F6AC50005D00F0010080F0AF
:1047F0000100207600BF0020A08100BF1E49088074
:104800001E4908801E49088000BF41F69450005D93
:1048100000F0010040B941F69450005D20F0020024
:10482000801C41F6945108551C211648FBF7E9FC01
:10483000CAE1A08942F20A1188427CD100BF00215E
:1048400041F6AC5001512068606100BF09221FA1F0
:10485000084800680830FCF715FA0A490868FBF7B1
:10486000E7FC1FFA80F837E041542B435751415081
:1048700000000000680000206C0000206E00002096
:1048800070000020B020002041542B43574A415073
:104890005F4355523F00000041542B43574155544C
:1048A0004F434F4E4E3D00003100000030000000ED
:1048B00041542B43574C49460000000041542B43C0
:1048C000575341505F4355523F00000041542B4322
:1048D000575341505F000000BF4842460168BF483F
:1048E00000680830FCF7CEF90222AFF6F401BB48AD
:1048F00000680830FCF7C6F9B7494868FCF7D4FCF3
:104900000322AFF29441B54800680830FCF7BAF9C9
:10491000B149496801F11400FCF7C6FC0222B0A1BC
:10492000AE4800680830FCF7ADF9AB48406890F835
:10493000291001A800E0CEE0FDF78CFA01A8FBF7F2
:1049400077FC1FFA80F8424601A9A44800680830A5
:10495000FCF798F90122A3A1A04800680830FCF7F1
:1049600091F99D48406890F8281001A8FDF772FA67
:1049700001A8FBF75DFC1FFA80F8424601A99748A1
:1049800000680830FCF77EF9012296A19348006880
:104990000830FCF777F99048406890F82A1001A891
:1049A000FDF758FA01A8FBF743FC1FFA80F84246CE
:1049B00001A98A4800680830FCF764F9012289A13E
:1049C000864800680830FCF75DF98348406890F835
:1049D0002B1001A8FDF73EFA01A8FBF729FC1FFAEE
:1049E00080F8424601A97D4800680830FCF74AF982
:1049F0000222AFF66861794800680830FCF742F996
:104A0000002242F20601204600F020FF00BF4FF4D2
:104A10009E60288000BF41F6AC50005D00F00100B0
:104A200038B941F6AC50005DC0F3400008B9002031
:104A3000BFE400BF41F6AC50005D00F0010080F023
:104A400001002076207EF0B100BF0020A08100BFD1
:104A500065490880654908806549088000BF41F6BE
:104A60009450005D00F0010040B941F69450005DA3
:104A700020F00200801C41F6945108551C21564834
:104A8000FBF7BFFBA0E000BF0020A08100BF56499C
:104A90000880564908805649088000BF41F6945066
:104AA000005D00F0010040B941F69450005D20F037
:104AB0000200801C41F6945108551C214648FBF722
:104AC000A0FB00BF00BFA08908B92068606142F266
:104AD0000910A08178E0A08942F21301884273D1C5
:104AE00000BF002141F6AC5001512068606100BF59
:104AF000072240A1394800680830FCF7C3F836495E
:104B0000896911B1AFF2602101E0AFF2602108467E
:104B1000FBF78EFB1FFA80F82F48806910B1AFF2C7
:104B2000782001E0AFF27C20014642462B48006825
:104B30000830FCF7A7F80222AFF6B07127480068EA
:104B40000830FCF79FF8002242F21301204600F0E3
:104B50007DFE00BF40F20150288000BF41F6AC50FE
:104B6000005D00F0010038B941F6AC50005DC0F3C3
:104B7000400008B900201CE400BF41F6AC50005DC5
:104B800000F0010080F00100207600BF0020A0812D
:104B900000BF15490880154908801549088000BFE5
:104BA00041F69450005D00F0010040B941F6945088
:104BB000005D20F00200801C41F6945108551C2134
:104BC0000548FBF71EFB00BF00BF00BF4FF0000908
:104BD00000202880032075E4B02000206800002019
:104BE000222C00002C0000006C0000206E00002031
:104BF0007000002041542B5750533D002DE9F843DD
:104C0000054688461446002620783038C6B298F803
:104C100000000121B140084388F80000A41C00E016
:104C2000641C207810B120782C28F9D1641C641CF5
:104C3000002714E06946204600F0FAF9C1B2C6EB3D
:104C4000461000EB400205F1740000EB0210001D5D
:104C5000C1559DF80000401C0444781CC7B2042FC5
:104C6000E8DB641C6946204600F0E2F981B2C6EB3D
:104C7000461000EB400205F1740000EB0210418089
:104C80009DF80000401C04446946204600F0D0F91D
:104C900081B2C6EB461000EB400205F1740000EB58
:104CA000021001819DF80000401C04442078303837
:104CB00008B9012000E00020C6EB461101EB4102DB
:104CC00005F1740101EB021191F8CC1560F341017B
:104CD000C6EB461000EB400205F1740000EB021039
:104CE00080F8CC15BDE8F883F8B507460C461546A4
:104CF00000E0641C207810B120782228F9D12078B7
:104D000000B9F8BD641C002605E014F8012B3046FC
:104D1000711CCEB22A54207840B120782228F4D1D8
:104D200060782C28F1D1A0782228EED100223046DC
:104D3000711CCEB22A54E41C002305F11502214651
:104D4000384600F05CF913346946204600F070F9EB
:104D5000E8769DF80000401C04446946204600F0B7
:104D600067F900B2A88300BFCBE7F8B506460C464A
:104D700015462078282800D1641C22212846FBF7FC
:104D800040FA6946204600F053F928709DF800006B
:104D9000401C04442078222800D1641C002000908C
:104DA00015E02078222803D160782C2800D111E06A
:104DB0009DF80000142804D22178681C9DF800207A
:104DC00081549DF80000401CC0B20090641C207803
:104DD0000028E6D100BFA41C6946204600F028F94F
:104DE00000B2E8829DF80000401C0444207822288C
:104DF00000D1641C002305F118022146304600F062
:104E0000FEF813346946204600F012F9A8779DF8A1
:104E10000000401C04446946204600F009F940B2F5
:104E2000E8779DF80000401C04446946204600F0E5
:104E3000FFF885F820009DF80000401C0444F8BDF0
:104E4000F8B506460C4615466B462A4621463046BE
:104E500000F08FF89DF80000401C04446B462A1DAA
:104E60002146304600F0CBF8F8BDF8B507460C46B1
:104E700015462C212846FBF7C4F9002605E014F856
:104E8000012B3046711CCEB22A54207840B12078D4
:104E90002228F4D160782C28F1D1A0782228EED1F4
:104EA00000223046711CCEB22A54E41C002607E0D2
:104EB00014F8012B3046711CCEB205F114010A54CE
:104EC000207828B120782228F2D160782C28EFD1E0
:104ED00000223046711CCEB205F114010A54A41C04
:104EE0006946204600F0A4F8283568709DF8000057
:104EF000401C04446946204600F09AF828709DF84A
:104F00000000401C04446946204600F091F8A87057
:104F10009DF80000401C04446946204600F088F8D3
:104F2000E870283DF8BD2DE9F04104460D46002605
:104F3000002707E036012078FCF742FF0644641C96
:104F4000781CC7B22078302802DB20783928F1DDC0
:104F50002078612802DB20786628EBDD2078412864
:104F600002DB20784628E5DD05B12F703046BDE82C
:104F7000F0812DE9F84380460D4616461C4604276D
:104F80000020009004B1207013E06946284600F02C
:104F90004FF806F8010B9DF80000401C054444B191
:104FA00020789DF800100844207017B12078401C2C
:104FB0002070381EA7F10101CFB2E6D1BDE8F88319
:104FC000F8B506460D461446002020606060A060DB
:104FD0006946284600F02CF8C0EB401000EB400179
:104FE00006F1740000EB011060609DF80000401CA9
:104FF00005446946284600F01BF82081F8BD2DE9DC
:10500000F04180460C4615461E46062706E0002164
:105010002046FFF788FF05F8010BE41C381EA7F1B6
:105020000101CFB2F3D10EB111203070BDE8F08193
:1050300070B5024600250024002310782D2803D1E6
:105040000125521C601CC4B207E0107830380A26D3
:1050500003FB0603521C601CC4B21078302802DB2C
:1050600010783928F1DD01B10C700DB1584270BDD6
:105070001846FCE72DE9F0470446894609F1010589
:105080000027B8462846FBF7D3F8C6B228780D2883
:1050900004D168780A2801D1BDE8F087FAA1284632
:1050A000FBF7CDF808B9012000E000200746A7B9BA
:1050B000F7A12846FBF7C3F808B9012000E000205B
:1050C0008046B8F1000F08D1F3A12846FBF7B7F8E6
:1050D00008B9012000E00020804687B9B8F1000F30
:1050E0000DD1F0A12846FBF7AAF840B941F6AC5023
:1050F000005D20F00800083041F6AC510855A08949
:1051000041F20301884246D12878412802D028780C
:10511000612812D1E548006878B10D2E0DDDA6F1A9
:105120000D02E249086805F10B01FBF775F8002153
:10513000DE480268A6F10D0011542878532802D0E9
:105140002878732810D1D948406868B1A6F10E02BA
:10515000D649486805F10C01FBF75EF80021D348F9
:105160004268A6F10E0011542878432802D028780E
:10517000632810D1CD48806868B1A6F10F02CB49F1
:10518000886805F10D01FBF747F80021C7488268E0
:10519000A6F10F001154A08942F20B01884219D1E7
:1051A00028782B2816D10A22C1A12846FBF755F8EA
:1051B00080B9002304F1300205F110012046FFF709
:1051C0001EFFBA48C06828B1B848C068216B0160AA
:1051D000A18E8180A08942F20C0188421BD12878DF
:1051E0002B2818D10922B5A12846FBF736F890B92B
:1051F000002304F1420205F10F012046FFF7FFFEF4
:10520000AA48C06838B1A948C068D4F84210016003
:10521000B4F846108180A08942F20D01884232D153
:1052200028782B282FD10822A7A12846FBF715F8AC
:1052300048BB287B69280FD1002304F1240205F123
:1052400010012046FFF795FE9848C068D8B19748EE
:10525000C068616A016016E0287B672808D10023D6
:1052600004F1280205F115012046FFF782FE0AE04D
:10527000287B6E2807D1002304F12C0205F11501CB
:105280002046FFF776FEA08942F20E01884232D115
:1052900028782B282FD107228EA12846FAF7DDFF88
:1052A00048BBE87A69280FD1002304F1360205F1E2
:1052B0000F012046FFF75DFE7C48C068D8B17B48EF
:1052C000C068616A016016E0E87A672808D10023A7
:1052D00004F13A0205F114012046FFF74AFE0AE004
:1052E000E87A6E2807D1002304F13E0205F114018B
:1052F0002046FFF73EFEA08942F2070188421DD1F9
:10530000287830281ADB2878392817DC67480069A4
:10531000008866498969884210D264482946C26873
:105320002046FFF78DFD6148C0680A305F49C860BC
:10533000084600690088401C0969088028782B28E5
:1053400022D1A08942F2040188421DD1062263A124
:105350002846FAF782FFB8B95448006900885349D3
:105360008969884210D25148E91DC2682046FFF77A
:10537000FCFC4E48C06822304C49C86008460069B1
:105380000088401C09690860A08942F20601884231
:105390000CD1062253A12846FAF75FFF30B904F179
:1053A000480205F10C012046FFF75FFDA08942F29B
:1053B0000201884214D14DA12846FAF740FF10B9E6
:1053C0004FF001080CE00A224AA12846FAF745FFEF
:1053D00030B9364805F10A01C2682046FFF784FC5F
:1053E000A08943F2120188420FD128782B280CD1D2
:1053F0006878302809DB6878392806DC0021681CC9
:10540000FFF716FE2949C96808603DA12846FAF74A
:1054100016FFC8B9A08942F2020188420AD141F6BA
:10542000AC502044407820F00400001D41F6AC51FF
:105430002144487041F69850005D20F00100401C66
:1054400041F6985108558DE032A12846FAF7F7FE4B
:10545000C8B9A08942F2020188420AD141F6AC5093
:105460002044407820F00800083041F6AC51214437
:10547000487041F69850005D20F00200801C41F613
:10548000985108556EE04FE04F4B0D0A00000000A8
:105490004552524F520D0A006275737920702E2EBC
:1054A0002E0D0A0072656164790D0A00B02000209B
:1054B0002B4349505354414D414300002B43495025
:1054C00041504D41430000002B4349505354415F2C
:1054D000000000002B43495041505F002B43574CC4
:1054E000415000002B435753415000004641494C66
:1054F0000D0A00002B43574A41505F4355520000AC
:105500005749464920434F4E4E45435445440D0AA2
:10551000000000005749464920444953434F4E4E2E
:105520004543540D0A00000097A12846FAF787FE6C
:10553000C0B9A08942F2020188420AD141F6AC50BA
:105540002044407820F01000103041F6AC51214446
:10555000487041F69850005D20F00400001D41F6AF
:105560009851085508228CA1681CFAF776FED8B924
:1055700029783039C1EB411101EB410204F174018A
:1055800001EB021029783039017090F8CC1521F028
:105590000101491C80F8CC1590F8CD1521F00101CE
:1055A000491C80F8CD151EE007227EA1681CFAF781
:1055B00054FEC0B928783038C0EB401000EB4001F1
:1055C00004F1740000EB011A00BF4FF4BA615046B9
:1055D000FAF717FE00BF9AF8CD0520F00200801CF4
:1055E0008AF8CD0500BFA08943F2010188423FD16E
:1055F0000A226EA12846FAF730FE40B905F10B02E7
:1056000041F6855021182046FFF7F8FA30E07FB3C5
:10561000002000BF24E041F68551095D012282404F
:10562000114001228240914201D1012100E000217C
:10563000C0EB401202EB420304F1740202EB0312CE
:1056400092F8CC2561F30002C0EB401101EB41035D
:1056500004F1740101EB031181F8CC25411CC8B29F
:105660000528D8DB41F685510A5D491E0A5500BF61
:10567000A08943F20501884222D107224EA1284683
:10568000FAF7EBFD58B941F6AC502044407820F0D1
:105690000100401C41F6AC512144487010E0092241
:1056A00047A12846FAF7D9FD50B941F6AC5020443D
:1056B000407820F00200801C41F6AC512144487033
:1056C000A08943F2020188420DD10A223FA1284657
:1056D000FAF7C3FD38B94048002305F10B01C26851
:1056E0002046FFF746FC04223CA12846FAF7B5FD08
:1056F00018BB41F688502218691D2046FFF760FC50
:10570000012141F68850015520444068D0F8C40575
:1057100030B9206841F6885121444968C1F8C8056C
:1057200041F688512144496801F2C45041F688523B
:105730002244128901681144016087B141F6AC50DE
:10574000005D20F00100401C41F6AC5108550846B0
:10575000005D20F0020141F6AC50015511E0B8F1B6
:10576000000F0ED041F6AC50005D20F0010141F673
:10577000AC500155005D20F00200801C41F6AC5198
:10578000085500BF88E400005749464920474F5458
:105790002049500D0A0000002C434F4E4E45435403
:1057A000000000002C434C4F534544002B4349500C
:1057B000535441545553000053454E44204F4B0021
:1057C00053454E44204641494C0000002B4349506C
:1057D000444F4D41494E0000B02000202B49504419
:1057E0000000000010B50446A089B0F5805F07DB1B
:1057F000A089B0F5005F03DA21461148FCF7DEFB13
:10580000A089B0F5005F07DBA089B0F5405F03DA3F
:1058100021460C48FDF760FFA089B0F5405F07DB2B
:10582000A089B0F5804F03DA21460748FCF7E2FE75
:105830002046FBF79BFA00BF0020207110BD00003E
:105840006C0000206E0000207000002010B50346A0
:1058500099811A61186858610020187643F2010096
:10586000814203D1002441F68550C454002010BD6C
:1058700010B5FBF743FD10BD1448006840F47000FC
:10588000124908601248006840F0010010490860A1
:1058900000200F49083108600D4800680D49084094
:1058A0000B4908600C48091D0860081F006820F4B7
:1058B0008020091F0860002005490C3108604FF066
:1058C00000600249803908607047000088ED00E000
:1058D00000380240FFFFF6FE1030002430B50146CC
:1058E00009B9002030BD4A688B689A4200D10C6823
:1058F000934200D99C1A9A4202D9D51A0868441BCF
:10590000601EEFE72DE9F0470446894615464FF043
:10591000000804B115B90020BDE8F087D4E90010F3
:10592000884201D3002060602046FFF7D7FF07467A
:10593000AF4203D20FB90020EEE73D46D4E90001A3
:10594000461AAE4200D92E466268E168881832468F
:105950004946FAF73DFCB044606830446060AD1BD6
:1059600055B1002060606368E268D01809EB080157
:105970002A46FAF72DFC6560D4E90010884201D36D
:105980000020606008EB0500C6E7000010B50121AB
:105990000148FBF76DFC10BD640100200F48006852
:1059A00020F080700D4A10601046006840F0807052
:1059B00010600B48006820F00100094A1060104692
:1059C000006840F0010010600020506010464168FF
:1059D00000BF00BF02484068401A7047FCED00E07D
:1059E000001000E01CB50020012103460246CDE96D
:1059F00000104903014800F02FF91CBD00080240C7
:105A000009480068C0F3403080F0010030B1074819
:105A1000007830B90120054908707047002003491B
:105A200008700020F9E7000010080240080000207C
:105A30001CB5032000210B460122CDE900102021D6
:105A4000034800F009F94FF40010014988611CBDBA
:105A50000000024030B502460B460E4CA24207D26F
:105A60000D490D4C0834141B1825B4FBF5F006E065
:105A700008490839074C141B1825B4FBF5F0042815
:105A800001D3091D001F03F03D04044D2D5CAC4003
:105A90000C6030BD1064024008600240646A000877
:105AA0007047704770B502460C4600210023002065
:105AB0000E4DAA4207D20E4B0D4D1035551B182620
:105AC000B5FBF6F106E0094B103B084D551B1826B7
:105AD000B5FBF6F1042901D31B1D091F1868054DFC
