:020000040800F2
:10000000D0C40020AD010008C11F00085D1D00081C
:10001000B51D0008E5040008955F00080000000019
:10002000000000000000000000000000BF01000808
:10003000E905000800000000C30100089154000811
:10004000C7010008C7010008C7010008C701000870
:10005000C7010008C7010008C7010008C701000860
:10006000C7010008C7010008C7010008E90400082B
:10007000F904000809050008190500082905000809
:100080003905000849050008C70100080000000004
:10009000000000000000000000000000C701000890
:1000A000C7010008C7010008C7010008C701000810
:1000B000C7010008C7010008C7010008C701000800
:1000C000C7010008C7010008C7010008C7010008F0
:1000D000C7010008195F00083D5F0008000000002C
:1000E000C7010008C7010008C701000800000000A0
:1000F000000000000000000000000000590500089A
:1001000000000000C7010008C7010008C70100087F
:1001100000000000000000000000000000000000DF
:100120006905000879050008890500089905000897
:10013000A905000800000000000000000000000009
:10014000000000000000000000000000C7010008DF
:10015000B9050008C9050008D9050008695F00084D
:10016000C7010008C70100080000000000000000EF
:10017000000000000000000000000000000000007F
:1001800000000000C701000800000000000000009F
:10019000C7010008C7010008DFF80CD000F09EF886
:1001A00000480047A9640008D0C4002006488047E2
:1001B00006480047FEE7FEE7FEE7FEE7FEE7FEE74C
:1001C000FEE7FEE7FEE7FEE7995400089901000804
:1001D00040EA01039B0703D009E008C9121F08C0C9
:1001E000042AFAD203E011F8013B00F8013B521E49
:1001F000F9D27047D2B201E000F8012B491EFBD2C0
:1002000070470022F6E710B513460A460446194621
:10021000FFF7F0FF204610BD10B5044604E00B7850
:1002200000F8013B03B1491C521EF8D2204610BD14
:10023000421C10F8011B0029FBD1801A704710B531
:10024000002200E0521C835C8C5CA34201D1002B95
:10025000F8D1D8B2E1B2401A10BD30B50546002041
:10026000034600E05B1C934205D2EC5CC85C201A9C
:1002700001D1002CF6D130BD2DE9F05F05460020FC
:1002800092469B4688460646814640241BE0284607
:1002900041464746224600F042F853465A46C01AA5
:1002A000914110D311461846224600F029F82D1A24
:1002B00067EB01084F4622460120002100F020F89C
:1002C00017EB00094E41201EA4F10104DFDC484673
:1002D00031462A464346BDE8F09F0000064C074DD4
:1002E00006E0E06840F0010394E807009847103406
:1002F000AC42F6D3FFF754FF9C660008BC660008CA
:10030000202A04DB203A00FA02F1002070479140D5
:10031000C2F1200320FA03F3194390407047202ACA
:1003200004DB203A21FA02F00021704721FA02F39F
:10033000D040C2F12002914008431946704730B5C1
:100340000146002409B9002030BD4A688B689A42F2
:1003500000D10C68934200D99C1A9A4202D9D51A4E
:100360000868441B601EEFE730B503460BB9002058
:1003700030BD59689A68914200D10024914200D959
:100380008C1A8A4202D9551A1868441B2046EFE796
:1003900070B504460D4616460CB9012070BD1821F3
:1003A0002046FFF72EFF2560E6600A206074E068B3
:1003B00068B9284606F002F9E060E06818B9002044
:1003C00020600120EAE7207C40F002002074207CBD
:1003D00040F0010020740020E0E72DE9F0470446DA
:1003E000884615464FF0000904B115B90020BDE854
:1003F000F0872168A068884201D30020A0602046D1
:10040000FFF7B2FF0746AF4203D20FB90020EEE775
:100410003D46A1682068461AAE4200D92E46D4E96E
:100420000220811832464046FFF7D2FEB144A06850
:100430003044A060AD1B35B108EB09002A46E168E5
:10044000FFF7C6FEA5602168A068884201D300209E
:10045000A06009EB0500CAE700B9704700214160C0
:10046000816000BFF9E72DE9F0470446894615464B
:100470004FF0000804B115B90020BDE8F087D4E9B9
:100480000010884201D3002060602046FFF757FF2C
:100490000746AF4203D20FB90020EEE73D46D4E94C
:1004A0000001461AAE4200D92E466268E1688818FB
:1004B00032464946FFF78CFEB044606830446060C5
:1004C000AD1B35B109EB08012A46E068FFF780FE55
:1004D0006560D4E90010884201D30020606008EB19
:1004E0000500CAE700BFFEE710B5024805F0EFF8C7
:1004F00010BD00001060024010B5024805F0E7F89A
:1005000010BD00002860024010B5024805F0DFF879
:1005100010BD00004060024010B5024805F0D7F859
:1005200010BD00005860024010B5024805F0CFF839
:1005300010BD00007060024010B5024805F0C7F819
:1005400010BD00008860024010B5024805F0BFF8F9
:1005500010BD0000A060024010B5024805F0B7F8D9
:1005600010BD0000B860024010B5024805F0AFF8B9
:1005700010BD00001064024010B5024805F0A7F855
:1005800010BD00002864024010B5024805F09FF835
:1005900010BD00004064024010B5024805F097F815
:1005A00010BD00005864024010B5024805F08FF8F5
:1005B00010BD00007064024010B5024805F087F8D5
:1005C00010BD00008864024010B5024805F07FF8B5
:1005D00010BD0000A064024010B5024805F077F895
:1005E00010BD0000B86402407047024602B900E046
:1005F00000BF00BF00207047024600207047000087
:1006000070B504460D462A4621460348FFF72BFFE6
:100610000646B0B270BD0000142000200146087EDE
:1006200000220A76704700002DE9F04104460F468B
:1006300016463225DFF8E083F848046041F6685139
:100640002046FFF7DEFD41F6545006510EB9F4493D
:10065000015100202060F34A40F2FF314046FFF78D
:1006600097FEA76004F1080000F0CCFA20B100BFAB
:1006700002202071BDE8F08100BF0020EA49088017
:10068000EA490880EA49088000BF41F64C50005D05
:1006900020F00100401C41F64C5108554FF47A708F
:1006A000E0612EE000BFA08908B92068606141F2D6
:1006B0000200A08100BFE169204600F0ADFD00BF4F
:1006C0000020A08100BFD8490880D8490880D849B7
:1006D000088000BF41F64C50005D00F0010040B9B9
:1006E00041F64C50005D20F00200801C41F64C5158
:1006F00008551C21CF48FFF784FD00BF207E00B9BC
:1007000003E0281EA5F10105CCD100BF6420E06103
:100710002EE000BFA08908B92068606141F20100A5
:10072000A08100BFE169204600F076FD00BF0020F7
:10073000A08100BFBC490880BC490880BC49088032
:1007400000BF41F64C50005D00F0010040B941F699
:100750004C50005D20F00200801C41F64C510855C1
:100760001C21B448FFF74DFD00BF207E00B903E017
:10077000281EA5F10105CCD100BF2EE000BFA08945
:1007800008B92068606141F20300A08100BFE169FF
:10079000204600F041FD00BF0020A08100BFA2491B
:1007A0000880A2490880A249088000BF41F64C5049
:1007B000005D00F0010040B941F64C50005D20F0B2
:1007C0000200801C41F64C5108551C219948FFF746
:1007D00018FD00BF207E00B903E0281EA5F1010529
:1007E000CCD100BF31E000BFA08908B920686061AA
:1007F00042F20100A08100BF03208E498861E169B7
:10080000204600F009FD00BF0020A08100BF8649FE
:100810000880864908808649088000BF41F64C5010
:10082000005D00F0010040B941F64C50005D20F041
:100830000200801C41F64C5108551C217D48FFF7F1
:10084000E0FC00BF207E00B903E0281EA5F10105F1
:10085000C9D100BF31E000BFA08908B9206860613C
:1008600043F20D00A08100BF012072498861E16957
:10087000204600F0D1FC00BF0020A08100BF6A49E3
:1008800008806A4908806A49088000BF41F64C50D8
:10089000005D00F0010040B941F64C50005D20F0D1
:1008A0000200801C41F64C5108551C216148FFF79D
:1008B000A8FC00BF207E00B903E0281EA5F10105B9
:1008C000C9D100BF31E000BFA08908B920686061CC
:1008D00043F21400A08100BF012056498861E169FC
:1008E000204600F099FC00BF0020A08100BF4E49C7
:1008F00008804E4908804E49088000BF41F64C50A0
:10090000005D00F0010040B941F64C50005D20F060
:100910000200801C41F64C5108551C214548FFF748
:1009200070FC00BF207E00B903E0281EA5F1010580
:10093000C9D100BF31E000BFA08908B9206860615B
:1009400042F20110A08100BF01203A498861E169AB
:10095000204600F061FC00BF0020A08100BF3249AA
:100960000880324908803249088000BF41F64C5067
:10097000005D00F0010040B941F64C50005D20F0F0
:100980000200801C41F64C5108551C212948FFF7F4
:1009900038FC00BF207E00B903E0281EA5F1010548
:1009A000C9D100BF31E000BFA08908B920686061EB
:1009B00042F20210A08100BF01201E498861E16956
:1009C000204600F029FC00BF0020A08100BF16498E
:1009D0000880164908801649088000BF41F64C502F
:1009E000005D00F0010040B941F64C50005D20F080
:1009F0000200801C41F64C5108551C210D48FFF7A0
:100A000000FC00BF207E00B903E0281EA5F101050F
:100A1000C9D100BF42E00000142000205C0000208B
:100A2000F90500082C200020600000206200002052
:100A300064000020B024002000BFA08908B920680D
:100A4000606142F20310A08100BF01206549886106
:100A5000E169204600F0E0FB00BF0020A08100BF5C
:100A600061490880614908806149088000BF41F6FA
:100A70004C50005D00F0010040B941F64C50005D63
:100A800020F00200801C41F64C5108551C215548AD
:100A9000FFF7B7FB00BF207E00B903E0281EA5F1D9
:100AA0000105C9D100BF31E000BFA08908B92068A5
:100AB000606142F20410A08100BF012049498861B1
:100AC000E169204600F0A8FB00BF0020A08100BF24
:100AD00045490880454908804549088000BF41F6DE
:100AE0004C50005D00F0010040B941F64C50005DF3
:100AF00020F00200801C41F64C5108551C21394859
:100B0000FFF77FFB00BF207E00B903E0281EA5F1A0
:100B10000105C9D100BF2EE000BFA08908B9206837
:100B2000606142F20910A08100BFE169204600F037
:100B300073FB00BF0020A08100BF2B4908802B4918
:100B400008802B49088000BF41F64C50005D00F042
:100B5000010040B941F64C50005D20F00200801CBD
:100B600041F64C5108551C211E48FFF74AFB00BFB7
:100B7000207E00B903E0281EA5F10105CCD100BFFD
:100B800000BF0020A08100BF1749088017490880D6
:100B90001749088000BF41F64C50005D00F001008D
:100BA00040B941F64C50005D20F00200801C41F637
:100BB0004C5108551C210B48FFF723FB00BF41F6A1
:100BC0004C50005D20F0010141F64C500155005D94
:100BD00020F0020141F64C50015500BF207E2071EB
:100BE000207E47E5B0240020600000206200002045
:100BF000640000200146888908B101207047002068
:100C0000FCE700001CB5044600210948226805F0F5
:100C100021F80020012103460A46CDE900100548CD
:100C200004F004FE01200349886100201CBD00007F
:100C3000001001400000024070B506460C46154603
:100C40002A462146024805F03EF8002070BD00000B
:100C5000001001400246012903D10804034B9861AA
:100C600002E00120014B9861002070470000024023
:100C700070B504460026A089A0B941F64C50005D2D
:100C8000C0F3400070B141F64C50005D20F002010D
:100C900041F64C50015541F654500259001D21189F
:100CA00000209047A08998B941F65050005D00F0AF
:100CB000010068B141F65050005D20F0010141F69D
:100CC00050500155001D0259001D21180220904767
:100CD000A08998B941F65050005DC0F3400068B15A
:100CE00041F65050005D20F0020141F65050015590
:100CF000001D0259001D211803209047A08998B9B2
:100D000041F65050005DC0F3800068B141F650508C
:100D1000005D20F0040141F650500155001D0259BC
:100D2000001D2118042090470026A1E040F2E12098
:100D3000704304F1740101EB4005A08930BB41F61A
:100D40004C50005DC0F3400000BB95F8C105C0F3F6
:100D50000010D8B195F8C10520F0100085F8C10544
:100D600041F65850055105F1090041F6585121440A
:100D70004860B5F8BE0541F658512144886041F6F7
:100D800054500259001D211801209047A089C8B96C
:100D900041F64C50005DC0F3400098B995F8C1058C
:100DA000C0F3800070B195F8C10520F0040085F80B
:100DB000C10541F658500551001F0259001D211868
:100DC00008209047A089C8B941F64C50005DC0F397
:100DD000400098B995F8C105C0F3C00070B195F80E
:100DE000C10520F0080085F8C10541F658500551AD
:100DF000001F0259001D211809209047A089C8B979
:100E000041F64C50005DC0F3400098B995F8C1051B
:100E100000F0010070B195F8C10520F0010085F8DF
:100E2000C10541F658500551001F0259001D2118F7
:100E300006209047A089C8B941F64C50005DC0F328
:100E4000400098B995F8C105C0F3400070B195F81D
:100E5000C10520F0020085F8C10541F65850055142
:100E6000001F0259001D211807209047701CC6B2B0
:100E7000052EFFF45BAF00BF0020207170BD0000A5
:100E80002DE9F04704460E4617461D46DDF8209032
:100E900000BF0EB107B125B900BF04202071BDE825
:100EA000F08700BF00BFA08928B941F64C50005D13
:100EB000C0F3400018B100BF09202071EFE700BF68
:100EC00000BFA08908B92068606142F20710A081C4
:100ED00000BF002028801848C6600561876100BFF8
:100EE00042F21070E061B9F1000F0BD141F64C50A5
:100EF000005D20F0010141F64C50015500BF00207B
:100F00002071CCE741F64C50005D20F00100401C00
:100F100041F64C51085542F21071204600F07CF920
:100F20008046B8F1060F01D10620B8E794F8188082
:100F3000002020764046B2E7B0240020F8B50446F1
:100F4000A94D4FF4FA76A08970B120686169401A02
:100F5000E169884208D941F66450005D20F0020042
:100F6000801C41F66451085530E14FF4EA50005DB1
:100F700000287DD041F64850005B0028F9D0A089B8
:100F800088B900BFA08908B92068606143F21500E4
:100F9000A08100BF41F64C50005D20F00100401CD4
:100FA00041F64C5108559DF8002041F64450005937
:100FB000093041F64A51095B425441F64A50005B00
:100FC000401C81B241F64A500153801E005B401E16
:100FD00081B241F648500153005B38BB00214FF409
:100FE000EA500155A08943F2150188421ED100BF85
:100FF0000020A08100BF7D4908807D4908807D498F
:10100000088000BF41F64C50005D00F0010040B97F
:1010100041F64C50005D20F00200801C41F64C511E
:1010200008551C217448FFF7ECF800BF41F64A5000
:10103000005B40F2B351884204DA41F64850005B4D
:10104000002840D141F64450015941F65850015111
:1010500041F644500059093041F658512144486046
:1010600041F64A50015B801F0059A0F8BE1500E010
:101070002AE041F64A50005B41F65851214488600D
:1010800041F64850005B80B141F654500259001DB2
:1010900021180120904741F64451095901F2C150ED
:1010A000017821F01001017009E041F6445109591D
:1010B00001F2C150017821F01001103101700021BE
:1010C00041F64A50015379E09DF80000202803DBE7
:1010D0009DF800007E2807DD9DF800000D2803D054
:1010E0009DF800000A2863D19DF800000A281BD152
:1010F00000BF9DF80010414802780078401C3F4B2B
:101100001870581C81540021401E0278401C8154E4
:1011100000BF411E204603F039FE00BF00203749C2
:101120000870487000BF42E09DF80000202810D1F0
:10113000334800783E280CD1324800780A2808D17C
:1011400041F66450005D20F00400001D41F664513A
:10115000085500BF9DF80010284802780078401C10
:10116000264B1870581C81540021401E0278401CE8
:10117000815400BF9DF800003A2817D11846007826
:10118000042813DD184640782B280FD104221EA115
:10119000581CFFF762F848B91849204603F0F6FDDD
:1011A00000BF002015490870487000BF00BF05E06F
:1011B00000BF002011490870487000BF1048007837
:1011C000104908709DF800000D4908703EB10122D9
:1011D00069462846FFF701F900287FF4C6AE20468D
:1011E00004F01AF9F8BD000014200020600000206F
:1011F0006200002064000020B02400202C24002085
:1012000074000020750000202B49504400000000AD
:1012100002680A440260704770B504460D46E561F5
:1012200000BF2046FFF78AFEA0890028F9D141F6C9
:101230004C50005DC0F340000028F2D100BF207E7A
:101240002071207E70BD000038B504465C200090FF
:1012500017E020782C2805D02078222802D020788A
:101260005C2806D101226946084800680830FFF76B
:10127000E3FC2146641C0122044800680830FFF7A3
:10128000DBFC20780028E4D138BD00005C000020A1
:1012900001480068704700000400002010B52E4887
:1012A0000068401C2C4908602C48006820B12B487D
:1012B0000068401E29490860002444E0284850F88E
:1012C000240000283DD0264850F824000078C0F3C0
:1012D0004000B0B3224850F82400806840B1204854
:1012E00050F824008068401E1D4951F82410886081
:1012F0001B4850F82400806818BB194B53F8243061
:101300001969174B53F8240053F82430DA689047D2
:10131000134850F824004168114850F824008160B7
:101320000F4850F82400007800F0010048B90C483C
:1013300050F82400007820F00201094850F82400F9
:101340000170601CC4B20648001F0078A042B5DCE2
:1013500004F006F910BD0000040000200000002089
:10136000A400002010B50D48006840F400700B493F
:1013700008600846006840F480600860084600681D
:1013800040F480700860032000F086F80F2000F021
:1013900007F800F017F8002010BD0000003C0240E4
:1013A00070B5044600F0E4F94FF47A71B0FBF1F542
:1013B000284600F081FC00222146501E00F02DF846
:1013C000002070BD7047000000BF00F01F02012127
:1013D0009140034A430942F8231000BF70470000C0
:1013E00080E200E000BF00F01F0201219140034AAB
:1013F000430942F8231000BF7047000080E100E07D
:1014000000BF00F01F02012191404209920002F149
:10141000E022C2F8001100BF70472DE9F05F80465E
:101420000D461646002700F0CDFD074639462A46F0
:10143000334601F00700C0F1070ABAF1040F02D9E0
:101440004FF0040A01E0C0F1070AD14600F1040A96
:10145000BAF1070F02D24FF0000A01E0A0F1030A2F
:10146000D4464FF0010A0AFA09FAAAF1010A0AEA77
:10147000020A0AFA0CFA4FF0010B0BFA0CFBABF163
:10148000010B0BEA030B4AEA0B042146404600F02D
:10149000A1FDBDE8F09F000000BF00F00702064B71
:1014A00019684FF6FF031940044B0B4343EA02212E
:1014B000014B196000BF70470CED00E00000FA0519
:1014C00070B504460E460025A748006800F00F00DE
:1014D000B0426FD2A4490E700846006800F00F00B9
:1014E000B04201D0012070BD207800F00200022837
:1014F00007D19E48006820F0F000A16808439B498E
:101500000860207800F0010000283ED060680128C3
:1015100007D1964808380068C0F34040B8B90120A8
:10152000E1E76068022802D06068032807D18F488D
:1015300008380068C0F3406048B90120D3E78B4801
:1015400008380068C0F3400008B90120CBE787489D
:10155000006820F003006168084384490860FFF7D1
:1015600097FE05466068012810D108E0FFF790FE5D
:10157000401B41F28831884201D90320B3E77B4800
:10158000006800F00C000428F0D1CDE0606802286B
:1015900011D108E0FFF77CFE401B41F28831884200
:1015A00001D903209FE77148006800F00C0008286B
:1015B000F0D1B9E024E06068032810D108E0FFF71B
:1015C00067FE401B41F28831884201D903208AE737
:1015D0006648006800F00C000328F0D1A4E008E0A1
:1015E000FFF756FE401B41F28831884201D90320A3
:1015F00079E75E48006800F00C000028F0D193E025
:10160000207800F00200022807D15848006820F036
:10161000F000A168084355490860207800F00100F7
:10162000002877D06068012807D150480838006842
:10163000C0F34040B8B9012055E76068022802D0E5
:101640006068032807D1494808380068C0F3406043
:1016500048B9012047E7454808380068C0F3400012
:1016600008B901203FE74148006820F003006168A5
:1016700008433E490860FFF70BFE054660680128F5
:1016800010D108E0FFF704FE401B41F28831884288
:1016900001D9032027E73548006800F00C00042832
:1016A000F0D137E06068022810D108E0FFF7F0FDC4
:1016B000401B41F28831884201D9032013E72B48AF
:1016C000006800F00C000828F0D123E060680328CF
:1016D00010D108E0FFF7DCFD401B41F28831884261
:1016E00001D90320FFE62148006800F00C00032820
:1016F000F0D10FE008E0FFF7CBFD401B41F288314D
:10170000884201D90320EEE61848006800F00C007A
:101710000028F0D114490E700846006800F00F0050
:10172000B04201D00120DEE6207800F00400042859
:1017300007D10E48006820F4E050E16808430B49E7
:101740000860207800F00800082808D107480068E1
:1017500020F46040216940EAC100044908600F207C
:10176000FFF71EFE0020BEE6003C024008380240A3
:1017700010B500F045F80949096801F0F001F022C0
:1017800092FAA2F2B2FA82F2D140054A515CC84004
:10179000044908600846006810BD0000083802408F
:1017A000286600085800002010B5FFF7E1FF074940
:1017B000096801F4E0514FF4E05292FAA2F2B2FA51
:1017C00082F2D140024A515CC84010BD0838024044
:1017D0002866000810B5FFF7CBFF0749096801F438
:1017E00060414FF4604292FAA2F2B2FA82F2D14022
:1017F000024A515CC84010BD083802402866000803
:1018000070B50021002200230020274C246804F03A
:101810000C0424B1042C04D0082C41D103E023484B
:1018200040E023483EE0204C241F246804F03F01A0
:101830001D4C241F246804F4800484B11C4CB4FBA8
:10184000F1F5194C241F246847F6C076344096FA07
:10185000A6F6B6FA86F6F44005FB04F20FE0134C48
:10186000B4FBF1F5104C241F246847F6C0763440D1
:1018700096FAA6F6B6FA86F6F44005FB04F20A4C90
:10188000241F246804F440344FF4403595FAA5F53C
:10189000B5FA85F5EC40641C6300B2FBF3F001E09F
:1018A000024800BF00BF70BD083802400024F400A9
:1018B00000127A0038B504460025207800F00100B7
:1018C000002866D0F648006800F00C0004280DD00F
:1018D000F348006800F00C00082813D1F048001FFE
:1018E000006800F48000B0F5800F0BD1EC48083898
:1018F0000068C0F3404000284BD06068002848D101
:10190000012038BD0020E649891F0870FFF7C0FCA0
:10191000054608E0FFF7BCFC401B41F288318842D5
:1019200001D90320EDE7DE4808380068C0F34040E5
:101930000028EFD12079DA49891F08706068A0B1CA
:10194000FFF7A6FC054608E0FFF7A2FC401B41F2AA
:101950008831884201D90320D3E7D148083800688C
:10196000C0F340400028EFD013E0FFF791FC05469C
:1019700008E0FFF78DFC401B41F28831884201D915
:101980000320BEE7C64808380068C0F3404000287E
:10199000EFD1207800F00200022869D1C048006829
:1019A00000F00C0058B1BE48006800F00C00082898
:1019B00021D1BB48001F006800F48000D8B9B848A6
:1019C00008380068C0F3400020B1E068012801D069
:1019D000012096E7B2480838006820F0F800F822A5
:1019E00092FAA2F2B2FA82F2216991400843AC491C
:1019F000083908603CE0E06828B30120A949086084
:101A0000FFF746FC054606E0FFF742FC401B642852
:101A100001D9032075E7A24808380068C0F34000E8
:101A20000028F1D09E480838006820F0F800F8221D
:101A300092FAA2F2B2FA82F22169914008439849DF
:101A40000839086014E0002096490860FFF720FC80
:101A5000054606E0FFF71CFC401B642801D9032063
:101A60004FE78F4808380068C0F340000028F1D1E4
:101A7000207800F0080008282CD16069A8B1012066
:101A800089490860FFF704FC054606E0FFF700FC03
:101A9000401B642801D9032033E781486C3000687B
:101AA000C0F340000028F1D014E000207E49086017
:101AB000FFF7EEFB054606E0FFF7EAFB401B642854
:101AC00001D903201DE776486C300068C0F3400060
:101AD0000028F1D1207800F0040004286DD100BF67
:101AE0006F483830006840F080506D4938310860E8
:101AF0000846006800F08050009000BF00BF6B48AF
:101B0000006840F4807069490860FFF7C1FB054632
:101B100006E0FFF7BDFB401B642801D90320F0E677
:101B20006248006800F480700028F2D000205C4910
:101B300068310870FFF7ACFB054608E0FFF7A8FB2B
:101B4000401B41F28831884201D90320D9E654482C
:101B500068300068C0F340000028EFD1207A504977
:101B600068310870A068A0B1FFF792FB054608E055
:101B7000FFF78EFB401B41F28831884201D90320D8
:101B8000BFE6474868300068C0F340000028EFD047
:101B900013E0FFF77DFB054608E0FFF779FB401BEC
:101BA00041F28831884201D90320AAE63C486830D6
:101BB0000068C0F340000028EFD1A069F0B33848B6
:101BC000006800F00C00082872D0A069022850D1EB
:101BD000002034490866FFF75BFB054606E0FFF787
:101BE00057FB401B642801D903208AE62C4808389B
:101BF0000068C0F340600028F1D1D4E90701084330
:101C000047F6C07292FAA2F2B2FA82F2616A914089
:101C100008430122A16AC2EB51014FF4403292FA0B
:101C2000A2F2B2FA82F2914008434FF0706292FA47
:101C3000A2F2B2FA82F2E16A914000E03AE008438F
:101C40001749091F0860012016490866FFF720FBA5
:101C5000054606E0FFF71CFB401B642801D9032062
:101C60004FE60F4808380068C0F340600028F1D004
:101C700020E000200B490866FFF70AFB054606E056
:101C8000FFF706FB401B642801D9032039E604480E
:101C900008380068C0F340600028F1D10AE007E08E
:101CA0000838024000004742800E47420070004062
:101CB000012026E6002024E670B504462546681E6D
:101CC000B0F1807F01D301200FE0681E4FF0E021CA
:101CD00048610F214FF0FF3000F07CF900204FF0F9
:101CE000E021886107200861002070BD10B504461E
:101CF0000CB9012010BDA06900B100E000BF94F84C
:101D0000390028B9002084F83800204600F025F872
:101D1000022084F839002068C06820F4005021684F
:101D2000C860204603F0E6FF2068006920F4904078
:101D3000216808612068406920F02A002168486114
:101D40002068C06840F400502168C8600020E0634B
:101D5000012084F839000020CCE7704700BFFEE77F
:101D60000146302905DB392903DCA1F13000C0B27E
:101D70007047612905DB662903DCA1F15700C0B279
:101D8000F6E7412905DB462903DCA1F13700C0B2A3
:101D9000EEE70020ECE7000070B505460C46224651
:101DA00002A1284604F008F970BD00002530325821
:101DB0000000000000BFFEE770B586B00546288829
:101DC00020B1522806D0582878D11EE000BF5220FA
:101DD000288000BF4448FEF70DFF10B1002006B078
:101DE00070BD00BF0020414B0A22414900903E488F
:101DF000FFF746F83F490870002866D13EA004F07E
:101E0000CBF800BF5820288000BF3748FEF7F2FE0D
:101E100008B10020E3E700BF3348FEF7FFFB354978
:101E2000087008460078002849D100242F4801880E
:101E30003C4804F0B1F800BF3BE004EB04102C492F
:101E400001EB4000407F04EB0411294A02EB410101
:101E5000097F04EB0412264B03EB4202D27E04EB13
:101E60000413234E06EB43039B7ECDE90232CDE9FA
:101E7000041004EB0410314601EB4000407E04EBFB
:101E80000411324602EB4101097ECDE9001004EB5A
:101E90000410114601EB4000B0F9163004EB0410B9
:101EA00001EB4000421C21461FA004F075F8601CA5
:101EB000C4B20E4800888442BFDB0BE00EE00D4840
:101EC000017829A004F068F804E00A48017830A0FD
:101ED00004F062F800203949087000BF00BF0020FC
:101EE000288003207BE700005801002054000020D8
:101EF000C01E0020520000204E6574776F726B2068
:101F00007363616E206861732073746172746564B9
:101F1000207375636365737366756C6C79210D0A44
:101F2000000000004C66000841502025643A204E15
:101F3000616D653A2025732C20525353493A202570
:101F4000642C204D41433A20253032583A25303216
:101F5000583A253032583A253032583A25303258DE
:101F60003A253032580D0A0050726F626C656D73FD
:101F70002077697468207363616E6E696E67206E86
:101F80006574776F726B3A2025640D0A00000000BB
:101F900050726F626C656D7320776974682073741A
:101FA000617274696E67206E6574776F726B2073EF
:101FB00063616E3A2025640D0A0000004E00002087
:101FC0007047000002480068C0F30220704700001C
:101FD0000CED00E010B5002807DA0A07140E054AD8
:101FE00000F00F031B1FD45403E00A07130E024A2C
:101FF000135410BD18ED00E000E400E070B5054694
:102000000C46224602A1284603F0D6FF70BD000010
:10201000256400007CB505460C46288840F20A324B
:10202000811A90427ED008DC70B1A0F2E32088B320
:102030000E2878D0192877D1C2E0152975D0292922
:1020400074D03629F7D1A2E2A08941F20101884279
:1020500056D100BF002141F66450015120686061F3
:1020600000BF0222FDA1FE4800680830FEF7E4FD33
:102070000222FCA1FA4800680830FEF7DDFD0022CC
:1020800041F20101204603F0FBF900BF40F2E320DA
:10209000288000BF41F66450005D00F0010038B9AF
:1020A00041F66450005DC0F3400008B900207CBDDB
:1020B00000BF41F66450005D00F0010080F00100B7
:1020C000207600BF0020A08100BFE7490880E749D3
:1020D0000880E749088000BF41F64C50005D00F0E1
:1020E000010040B941F64C50005D20F00200801C18
:1020F00041F64C5108551C21DE48FEF782F87CE27F
:10210000A08941F2020188427DD100BF002141F641
:10211000645001512068606100BF0622D6A1D048FA
:10212000006804E0AAE017E068E228E1D1E10830A5
:10213000FEF782FD0222CBA1C94800680830FEF7F5
:102140007BFD002241F20201204603F099F900BF15
:1021500040F2F120288000BF41F66450005DC0F3DA
:10216000C00038B941F66450005DC0F3400008B9C2
:1021700000209CE700BF41F66450005DC0F3C00042
:1021800080F001002076207E88B3012104F1080050
:10219000FEF760FD4FF47A60B949086000BFB849A6
:1021A0000868411EB64A11600028F8D1002104F1E8
:1021B0000800FEF74FFD00BF4FF43F70288000BFBE
:1021C00041F66450005DC0F3C00038B941F6645078
:1021D000005DC0F3400008B9002068E700BF41F689
:1021E0006450005DC0F3C00080F00100207600BFA5
:1021F0000020A08100BF9C4908809C4908809C4920
:10220000088000BF00E013E041F64C50005D00F094
:10221000010040B941F64C50005D20F00200801CE6
:1022200041F64C5108551C219248FDF7EAFFE4E1C4
:10223000A08941F20301884256D100BF002141F636
:10224000645001512068606100BF06228DA184485E
:1022500000680830FEF7F0FC022282A18048006886
:102260000830FEF7E9FC002241F20301204603F0AA
:1022700007F900BF40F20A30288000BF41F66450E1
:10228000005D00F0010038B941F66450005DC0F314
:10229000400008B900200AE700BF41F66450005D25
:1022A00000F0010080F00100207600BF0020A08136
:1022B00000BF6D4908806D4908806D49088000BFE6
:1022C00041F64C50005D00F0010040B941F64C5021
:1022D000005D20F00200801C41F64C5108551C2185
:1022E0006448FDF78EFF88E1A08941F2070188422A
:1022F0007DD1604881696846FFF780FE00BF0021FC
:1023000041F6645001512068606100BF08225FA15E
:10231000534800680830FEF78FFC56490868FDF7FF
:1023200087FF86B25348324601684D48006808303E
:10233000FEF782FC012258A1494800680830FEF7E8
:102340007BFC6846FDF774FF86B232466946444816
:1023500000680830FEF770FC082250A14048006871
:102360000830FEF769FC02223EA13D4800680830B3
:10237000FEF762FC00BF40F21F30288000BF41F62C
:102380006450005D00F0010038B941F66450005D12
:10239000C0F3400008B9002089E600BF41F6645050
:1023A000005D00F0010080F001002076207E48B939
:1023B0003D48FEF751F82F488069A06004F10800FD
:1023C000FEF720FC00BF0020A08100BF2649088046
:1023D000264908802649088000BF41F64C50005D20
:1023E00000F0010050B941F64C50005D00E00AE0F9
:1023F00020F00200801C41F64C5108551C211D485C
:10240000FDF7FFFEF9E0A08941F20A0188426ED192
:10241000184881696846FFF7F1FD00BF002141F6C9
:10242000645001512068606100BF0B221FA10C485D
:1024300000680830FEF700FC6846FDF7F9FE86B23A
:1024400032466946064800680830FEF7F5FB02226E
:1024500004A10348006808302EE000004154000049
:102460005C0000200D0A00006000002062000020D7
:1024700064000020B024002041542B52535400002B
:102480006800002041542B474D52000041542B5509
:102490004152545F000000003D0000002C382C31F8
:1024A0002C302C30000000001420002041542B520E
:1024B00046504F5745523D00FEF7BEFB002241F209
:1024C0000A01204602F0DCFF00BF40F233302880D2
:1024D00000BF41F66450005D00F0010040B941F6D4
:1024E0006450005DC0F3400010B90020DFE527E034
:1024F00000BF41F66450005D00F0010080F0010073
:10250000207600BF0020A08100BF3F4908803F49DE
:1025100008803F49088000BF41F64C50005D00F044
:10252000010040B941F64C50005D20F00200801CD3
:1025300041F64C5108551C213648FDF762FE5CE01F
:10254000A08941F20601884257D100BF002141F61F
:10255000645001512068606100BF0A222EA13148F9
:1025600000680830FEF768FB0222AFF208112D4820
:1025700000680830FEF760FB002241F206012046A9
:1025800002F07EFF00BF4FF45070288000BF41F67C
:102590006450005DC0F3C00038B941F66450005D7E
:1025A000C0F3400008B9002081E500BF41F6645047
:1025B000005DC0F3C00080F00100207600BF002065
:1025C000A08100BF10490880104908801049088088
:1025D00000BF41F64C50005D00F0010040B941F6EB
:1025E0004C50005D20F00200801C41F64C51085513
:1025F0001C210848FDF705FE00BF00BF00BF0020FA
:102600002880032053E500006000002062000020C5
:1026100064000020B024002041542B524553544FF5
:10262000524500005C0000202DE9FC4105460C46A7
:102630002888B0F5A66F6ED014DCB0F59B6F6BD018
:1026400007DC18B3A0F2BE40002855D00C287CD17E
:10265000BAE0A0F2E440002878D00E2877D03728DE
:10266000F5D111E340F28A52811A904270D008DC11
:10267000A0F24B5000286CD007286BD03128E6D14F
:10268000FEE30E2967D01A29E1D1FAE3A08943F2CB
:102690000D01884272D1FE4881696846FFF7AEFCA1
:1026A00000BF002141F6645001512068606100BF05
:1026B0000A22F8A1FA4800680830FEF7BDFA684619
:1026C000FDF7B6FD87B23A466946F548006808301E
:1026D000FEF7B2FA0222F3A1F14800680830FEF7D3
:1026E000ABFA002243F20D01204602F0C9FE00BF02
:1026F00040F2BE40288000BF41F66450005D00F00B
:10270000010050B941F66450005DC0F3400020B9AB
:102710000020BDE8FC8132E3C2E000BF41F6645016
:10272000005D00F0010080F00100207600BF002075
:10273000A08100BFDC490880DC490880DC490880B2
:1027400000BF41F64C50005D06E0FBE304E16FE1A1
:10275000F9E3B5E3F8E3F8E300F0010040B941F62E
:102760004C50005D20F00200801C41F64C51085591
:102770001C21C748FDF745FDC9E2FFE7A08943F2E8
:102780001401884256D100BF002141F66450015126
:102790002068606100BF0D22C6A1C14800680830F2
:1027A000FEF74AFA0222BFA1BD4800680830FEF7D2
:1027B00043FA002243F21401204602F061FE00BFFA
:1027C00040F2CA40288000BF41F66450005D00F02E
:1027D000010038B941F66450005DC0F3400008B90B
:1027E000002096E700BF41F66450005D00F0010054
:1027F00080F00100207600BF0020A08100BFAA4920
:102800000880AA490880AA49088000BF41F64C50B8
:10281000005D00F0010040B941F64C50005D20F031
:102820000200801C41F64C5108551C219848FDF7C8
:10283000E8FCA1E7A08943F20111884266D19448DF
:1028400081696846FFF7DAFB00BF002141F664505A
:1028500001512068606100BF0F229AA19048006872
:102860000830FEF7E9F96846FDF7E2FC87B23A4620
:1028700069468B4800680830FEF7DEF9022289A11C
:10288000874800680830FEF7D7F9002243F20E01AE
:10289000204602F0F5FD00BF4FF49B60288000BF8A
:1028A00041F66450005D00F0010038B941F6645013
:1028B000005DC0F3400008B900202AE700BF41F6E0
:1028C0006450005D00F0010080F00100207600BF40
:1028D0000020A08100BF74490880744908807449B1
:1028E000088000BF41F64C50005D00F0010040B987
:1028F00041F64C50005D20F00200801C41F64C5126
:1029000008551C216248FDF77CFC35E7A08943F29D
:102910000211884256D100BF002141F66450015196
:102920002068606100BF0E226AA15D48006808301F
:10293000FEF782F902225BA1594800680830FEF7D1
:102940007BF9002243F20E01204602F099FD00BF00
:1029500040F2E440288000BF41F66450005D00F082
:10296000010038B941F66450005DC0F3400008B979
:102970000020CEE600BF41F66450005D00F001008B
:1029800080F00100207600BF0020A08100BF4649F2
:102990000880464908804649088000BF41F64C50EF
:1029A000005D00F0010040B941F64C50005D20F0A0
:1029B0000200801C41F64C5108551C213448FDF79B
:1029C00020FCD9E6A08943F2110188425ED130484B
:1029D00081696846FFF712FB00BF002141F6645091
:1029E00001512068606100BF0A223EA12C480068A6
:1029F0000830FEF721F96846FDF71AFC87B23A461F
:102A00006946274800680830FEF716F9022225A11A
:102A1000234800680830FEF70FF9002243F20E0148
:102A2000204602F02DFD00BF40F2F240288000BF9A
:102A300041F66450005D00F0010038B941F6645081
:102A4000005DC0F3400008B9002062E600BF41F617
:102A50006450005D00F0010080F00100207600BFAE
:102A60000020A08100BF104908801049088010494B
:102A7000088000BF41F64C50005D00F0010030B905
:102A800041F64C50005D20F0020031E039E033E0C7
:102A9000B024002041542B4349504D55583D00006F
:102AA0005C0000200D0A0000600000206200002091
:102AB0006400002041542B43495044494E464F3D49
:102AC0003100000041542B43495053455256455262
:102AD0003D312C0041542B434950534552564552E9
:102AE0003D30000041542B43495053544F3D0000AA
:102AF000801C41F64C5108551C21F948FDF781FB1B
:102B00003AE6A08943F20301884270D1A089E081AE
:102B1000002616E040F2E120704304F1740101EB5D
:102B2000400090F8C00500F0010040B940F2E120FB
:102B3000704301EB4000EA494969086003E0701CFA
:102B4000C6B2052EE6DB00BFE5484069006810B953
:102B500001202076BBE0E2484069006890F8C0059B
:102B600020F00200801CDE494969096881F8C0052F
:102B700031466846FFF742FA00BF002141F6645033
:102B800001512068606100BF0C22D6A1D9480068BD
:102B90000830FEF751F86846FDF74AFB87B23A461F
:102BA0006946D44800680830FEF746F80222D2A1F0
:102BB000D04800680830FEF73FF8C9488069000C2B
:102BC00038B90322CDA1CB4800680830FEF734F8AD
:102BD0001BE0C34880690121B1EB104F08D10322EB
:102BE000C7A1C44800680830FEF726F80DE08FE062
:102BF000BB4880690221B1EB104F06D10322C1A16D
:102C0000BC4800680830FEF717F80322BEA1B94897
:102C100000680830FEF710F8B1490868FDF708FBB6
:102C200087B2AF483A460168B24800680830FEF7FC
:102C300003F80222B5A1AF4800680830FDF7FCFF99
:102C4000A748806981B26846FFF7D8F96846FDF762
:102C5000EFFA87B23A466946A64800680830FDF7A1
:102C6000EBFF0222AFF2C411A24800680830FDF762
:102C7000E3FF002243F20301204602F001FC00BF03
:102C800040F21B50288000BF41F66450005D00F008
:102C9000010038B941F66450005DC0F3400008B946
:102CA000002036E500BF41F66450005D00F00100F1
:102CB00080F001002076207E40B100BF00208849CE
:102CC0004969096881F8C00500BF00E000BFE089DC
:102CD000A08100BF0020A08100BF8D4908808D49E0
:102CE00008808D49088000BF41F64C50005D00F01F
:102CF000010040B941F64C50005D20F00200801CFC
:102D000041F64C5108551C217548FDF77AFAB1E39C
:102D1000A08943F20B01884267D1714881696846F6
:102D2000FFF76CF900BF002141F6645001512068A3
:102D3000606100BF0C2279A16E4800680830FDF781
:102D40007BFF6846FDF774FA87B23A4669466948E0
:102D500000680830FDF770FF0222AFF2B821654825
:102D600000680830FDF768FF002243F20E0120469C
:102D700002F086FB00BF4FF4A660288000BF41F63A
:102D80006450005D00F0010038B941F66450005D08
:102D9000C0F3400008B90020BBE400BF41F6645016
:102DA000005D00F0010080F00100207600BF0020EF
:102DB000A08100BF564908805649088056490880BE
:102DC00000BF41F64C50005D00F0010040B941F6F3
:102DD0004C50005D20F00200801C41F64C5108551B
:102DE0001C213F48FDF70DFA44E3A08943F2050199
:102DF000884273D1A089E0813948006918B1002068
:102E000037490969086003204849087000BF344801
:102E10008069B0F5006F02D94FF4006001E03048DE
:102E200080694349086000BF002141F664500151A8
:102E30002068606100BF0B223EA12E480068083068
:102E4000FDF7FAFE2648C06801786846FFF7D6F815
:102E50006846FDF7EDF987B23A46694625480068AD
:102E60000830FDF7E9FE012235A12248006808304C
:102E7000FDF7E2FE2E4801686846FFF7BFF801E063
:102E80005AE1C1E26846FDF7D3F987B23A4669468E
:102E9000184800680830FDF7CFFE0222AFF2FC317F
:102EA000144800680830FDF7C7FE002243F2050110
:102EB000204602F0E5FA00BF40F24B50288000BFE8
:102EC00041F66450005DC0F3800040B941F66450A3
:102ED000005DC0F3400010B900201AE4F5E035E0D1
:102EE000B024002041542B43495053544152543D87
:102EF000000000005C0000202C2200005443500021
:102F00005544500053534C00222C2200222C000028
:102F100060000020620000206400002041542B4328
:102F20004950434C4F53453D000000006C000020C9
:102F30007000002041542B43495053454E443D00FE
:102F40002C00000097E268E11EE0D7E100BF41F6E7
:102F50006450005DC0F38000B0B300BF002141F6B3
:102F6000645001512068606100BFFE48008882B251
:102F7000FD480168FD4800680830FDF75DFE00BFB0
:102F800040F25250288000BF41F6645020444078FF
:102F900000F0010070B941F6645020444078C0F35D
:102FA000400038B941F66450005DC0F3400008B9F4
:102FB000002016E400BF41F664502044407800F041
:102FC000010010B1002001E010E00B202076207EEF
:102FD000A0B9E548006988B1E34800690068E149A3
:102FE00009680844E0490969086007E041F664504F
:102FF000005DC0F3400008B101202076207E88B932
:103000000320DB490870D8488069D6490968401A0E
:10301000D549886108460068D24909680844D24900
:1030200008600FE041F6645020444078C0F340004F
:1030300028B1CF480078401ECD49087002E000203A
:10304000CB490870C848806920B1C9480078002879
:103050007FF4DDAEC648007858B1C348C06890F828
:10306000C10520F00400001DBF49C96881F8C105F1
:103070000AE0BD48C06890F8C10520F0080008309B
:10308000B949C96881F8C105E089A08100BF002065
:10309000A08100BFB7490880B7490880B7490880B8
:1030A00000BF41F64C50005D00F0010040B941F610
:1030B0004C50005D20F00200801C41F64C51085538
:1030C0001C21A948FDF79DF8D4E1A08943F2040131
:1030D000884267D1A44881696846FEF78FFF00BF28
:1030E000002141F6645001512068606100BF0E224A
:1030F000A3A19E4800680830FDF79EFD6846FDF7D5
:1031000097F887B23A466946984800680830FDF754
:1031100093FD0222AFF27461944800680830FDF715
:103120008BFD002243F20401204602F0A9F900BF02
:1031300040F27C50288000BF41F66450005D00F0F2
:10314000010038B941F66450005DC0F3400008B991
:1031500000200EE400BF41F66450005D00F0010065
:1031600080F00100207600BF0020A08100BF8149CF
:103170000880814908808149088000BF41F64C5091
:10318000005D00F0010040B941F64C50005D20F0B8
:103190000200801C41F64C5108551C217248FDF775
:1031A00030F867E1A08943F2020188426BD100BF89
:1031B000002141F6645001512068606100BF0E2279
:1031C00073A16A4800680830FDF736FD6649086853
:1031D000FDF72EF887B264483A46016863480068F4
:1031E0000830FDF729FD01226DA160480068083014
:1031F000FDF722FD0222AFF254715C4800680830EE
:10320000FDF71AFD002243F20201204602F038F9D0
:1032100000BF40F28A50288000BF41F66450005D34
:1032200000F0010038B941F66450005DC0F3400081
:1032300008B9002009E400BF41F66450005D00F0C9
:10324000010080F00100207600BF0020A08100BFB7
:1032500048490880484908804849088000BF41F62D
:103260004C50005D00F0010040B941F64C50005D4B
:1032700020F00200801C41F64C5108551C213A48B0
:10328000FCF7BFFFF6E0A08943F21201884267D144
:1032900000BF002141F6645001512068606100BF09
:1032A000092240A1314800680830FDF7C5FC2E49CD
:1032B0000868FCF7BDFF87B22B483A4601682B48E7
:1032C00000680830FDF7B8FC012235A127480068E6
:1032D0000830FDF7B1FC0222AFF638012348006840
:1032E0000830FDF7A9FC002243F21201204602F04B
:1032F000C7F800BF4FF4B360288000BF41F66450A8
:10330000005D00F0010038B941F66450005DC0F383
:10331000400008B90020C4E400BF41F66450005DDD
:1033200000F0010080F00100207600BF0020A081A5
:1033300000BF10490880104908801049088000BF6C
:1033400041F64C50005D00F0010040B941F64C5090
:10335000005D20F00200801C41F64C51085527E02A
:103360002BE0000070000020B02400205C00002052
:103370006C0000206000002062000020640000203B
:1033800041542B43495053534C53495A453D000037
:1033900041542B434950444F4D41494E3D2200007A
:1033A0002200000041542B50494E473D22000000AE
:1033B0001C213348FCF725FF5CE0A08943F2130190
:1033C000884257D100BF002141F664500151206866
:1033D000606100BF0B222BA12D4800680830FDF76B
:1033E0002BFC0222AFF64411294800680830FDF793
:1033F00023FC002243F21301204602F041F800BFF3
:1034000040F2A450288000BF41F66450005D00F0F7
:10341000010038B941F66450005DC0F3400008B9BE
:1034200000203EE400BF41F66450005D00F0010062
:1034300080F00100207600BF0020A08100BF154968
:103440000880154908801549088000BF41F64C5096
:10345000005D00F0010040B941F64C50005D20F0E5
:103460000200801C41F64C5108551C210448FCF711
:10347000C8FE00BF00BF00BF00202880032010E46A
:10348000B024002041542B43495550444154450039
:103490005C0000206000002062000020640000202A
:1034A0002DE9FE4305460C463A2000900627288861
:1034B00040F20442811A90427ED01FDCB0F5627F58
:1034C0007BD010DCB0F5597F78D005DC80B3B0F547
:1034D000567F41F0788263E0B0F55C7F6FD0B0F545
:1034E0005F7FF6D17FE1A0F2A130002868D01C28D0
:1034F00067D0382866D05428EBD1FCE3562900F079
:10350000A98708DC0D297DD02D297CD03D297BD0D1
:103510004929DED1F0E3622900F0FA876F2901F032
:1035200054808D2901F075819E29D2D101F014BA01
:10353000FFE7A08942F20101884276D1FE48816905
:1035400001A8FEF75BFD00BF002141F66450015168
:103550002068606100BF0A22F8A1FB4800680830BB
:10356000FDF76AFB01A8FCF763FE1FFA80F84246EC
:1035700001A9F54800680830FDF75EFB0222F3A1BF
:10358000F14800680830FDF757FB002242F20101C4
:10359000204601F075FF00BF4FF45670288000BF31
:1035A00041F66450005D00F0010080B941F66450BE
:1035B000005DC0F3400006E0F8E370E15BE0B6E0D8
:1035C0004BE2EFE296E310B90020BDE8FE8300BFB6
:1035D00041F66450005D00F0010080F001002076AB
:1035E00000BF0020A08100BFD9490880D9490880C8
:1035F000D949088000BF41F64C50005D00F0010041
:1036000068B903E0D3E3F5E3F5E30EE041F64C508F
:10361000005D20F00200801C41F64C5108551C2131
:10362000C548FCF7EEFD01F0CDB9A08942F20111C9
:10363000884256D100BF002141F6645001512068F4
:10364000606100BF1122C5A1BF4800680830FDF7C6
:10365000F3FA0222BDA1BC4800680830FDF7ECFA7D
:10366000002242F20B01204601F00AFF00BF4FF496
:103670005970288000BF41F66450005D00F00100E1
:1036800038B941F66450005DC0F3400008B900202D
:103690009BE700BF41F66450005D00F0010080F040
:1036A0000100207600BF0020A08100BFA84908804B
:1036B000A8490880A849088000BF41F64C50005D29
:1036C00000F0010040B941F64C50005D20F00200CE
:1036D000801C41F64C5108551C219748FCF791FD80
:1036E000A1E7A08942F20211884256D100BF002111
:1036F00041F6645001512068606100BF10229CA116
:10370000914800680830FDF797FA02228FA18E4891
:1037100000680830FDF790FA002242F20C012046C2
:1037200001F0AEFE00BF4FF45C70288000BF41F690
:103730006450005D00F0010038B941F66450005D4E
:10374000C0F3400008B900203FE700BF41F66450D5
:10375000005D00F0010080F00100207600BF002035
:10376000A08100BF7A4908807A4908807A49088098
:1037700000BF41F64C50005D00F0010040B941F639
:103780004C50005D20F00200801C41F64C51085561
:103790001C216948FCF735FD45E7A08942F2031179
:1037A000884256D100BF002141F664500151206883
:1037B000606100BF0E2273A1634800680830FDF706
:1037C0003BFA022261A1604800680830FDF734FA34
:1037D000002242F20D01204601F052FE00BF4FF4DC
:1037E0005F70288000BF41F66450005D00F001006A
:1037F00038B941F66450005DC0F3400008B90020BC
:10380000E3E600BF41F66450005D00F0010080F087
:103810000100207600BF0020A08100BF4C49088035
:103820004C4908804C49088000BF41F64C50005D6F
:1038300000F0010040B941F64C50005D20F002005C
:10384000801C41F64C5108551C213B48FCF7D9FC23
:10385000E9E6A08942F20411884256D100BF002156
:1038600041F6645001512068606100BF0D2249A1FA
:10387000354800680830FDF7DFF9022233A13248ED
:1038800000680830FDF7D8F9002242F20E01204608
:1038900001F0F6FD00BF4FF46270288000BF41F6D2
:1038A0006450005D00F0010038B941F66450005DDD
:1038B000C0F3400008B9002087E600BF41F664501D
:1038C000005D00F0010080F00100207600BF0020C4
:1038D000A08100BF1E4908801E4908801E4908803B
:1038E00000BF41F64C50005D00F0010040B941F6C8
:1038F0004C50005D20F00200801C41F64C510855F0
:103900001C210D48FCF77DFC8DE6A08942F20511D3
:1039100088427DD10848466800BF002141F66450C6
:1039200001512068606100BF0D221EA10648006899
:103930000830FDF781F93DE0B024002041542B43CD
:10394000574D4F44453D00005C0000200D0A00002B
:1039500060000020620000206400002041542B43DE
:1039600049505354414D41435F4355523F0000007D
:1039700041542B43495041504D41435F4355523FC1
:103980000000000041542B4349505354415F4355BC
:10399000523F000041542B43495041505F43555220
:1039A0003F00000041542B4349505354414D414383
:1039B0005F000000FE490868FCF73AFC1FFA80F837
:1039C000FB4842460168FB4800680830FDF734F9BF
:1039D0000222F9A1F74800680830FDF72DF9062703
:1039E0003A2000901AE016F8011B01A8FEF7D4F95E
:1039F00001A8FCF71DFC1FFA80F8424601A9ED481A
:103A000000680830FDF718F947B10122694600E067
:103A100061E0E84800680830FDF70EF9381EA7F1AC
:103A20000101CFB2DFD10122E4A1E24800680830F1
:103A3000FDF702F90222AFF2EC01DE48006808301F
:103A4000FDF7FAF8002242F20B01204601F018FDC2
:103A500000BF40F2A130288000BF41F66450005DF5
:103A600000F0010038B941F66450005DC0F3400039
:103A700008B90020A9E500BF41F66450005D00F0E0
:103A8000010080F001002076207E28B956F8061C3F
:103A9000216336F8020CA08600BF0020A08100BF81
:103AA000C7490880C7490880C749088000BF41F658
:103AB0004C50005D00F0010040B941F64C50005DF3
:103AC00020F00200801C41F64C5108551C21B848DA
:103AD000FCF797FBA7E5A08942F2061188426FD157
:103AE000B348466800BF002141F664500151206888
:103AF000606100BF0C22B5A1AE4800680830FDF738
:103B00009BF8AB490868FCF793FB1FFA80F8A848BC
:103B100042460168A74800680830FDF78DF8022288
:103B2000A5A1A44800680830FDF786F806273A20CA
:103B3000009018E016F8011B01A8FEF72DF901A866
:103B4000FCF776FB1FFA80F8424601A99948006805
:103B50000830FDF771F837B10122694695480068D1
:103B60000830FDF769F8381EA7F10101CFB2E1D1A5
:103B7000012292A18F4800680830FDF75DF802220B
:103B8000AFF238218B4800680830FDF755F8002265
:103B900042F20C01204601F073FC00BF40F2BD3040
:103BA000288000BF41F66450005D00F0010040B97C
:103BB00041F66450005DC0F3400010B9002004E5F8
:103BC00031E000BF41F66450005D00F0010080F07C
:103BD00001002076207E38B956F8061CC4F8421041
:103BE00036F8020CA4F8460000BF0020A08100BFF8
:103BF00073490880734908807349088000BF41F603
:103C00004C50005D00F0010040B941F64C50005DA1
:103C100020F00200801C41F64C5108551C216448DC
:103C2000FCF7EFFAFFE4A08942F20B11884272D14F
:103C30005F48466800BF002141F66450015120688A
:103C4000606100BF0A2265A15A4800680830FCF78D
:103C5000F3FF57490868FCF7EBFA1FFA80F854485D
:103C600042460168534800680830FCF7E5FF02222D
:103C700051A1504800680830FCF7DEFF04272E20D1
:103C8000009018E016F8011B01A8FEF7B7F901A88B
:103C9000FCF7CEFA1FFA80F8424601A945480068B1
:103CA0000830FCF7C9FF37B1012269464148006876
:103CB0000830FCF7C1FF381EA7F10101CFB2E1D1F6
:103CC00001223EA13B4800680830FCF7B5FF022204
:103CD000AFF28831374800680830FCF7ADFF0022AA
:103CE00042F20D01204601F0CBFB00BF40F2D9307B
:103CF000288000BF01E0CEE037E341F66450005D6C
:103D000000F0010040B941F66450005DC0F340008E
:103D100010B9002059E42CE000BF41F66450005D6A
:103D200000F0010080F001002076207E10B956F8E6
:103D3000040C606200BF0020A08100BF2049088001
:103D4000204908802049088000BF41F64C50005DA2
:103D500000F0010040B941F64C50005D20F0020037
:103D6000801C41F64C5108551C211148FCF749FABA
:103D700059E4A08942F20C1188427DD10C48466872
:103D800000BF002141F6645001512068606100BF0E
:103D9000092215A1074800680830FCF74DFF0449C7
:103DA0000868FCF745FA1FFA80F825E0D5E010E135
:103DB000B02400205C0000203D2200002200000012
:103DC00060000020620000206400002041542B436A
:103DD000495041504D41435F0000000041542B4386
:103DE00049505354415F000041542B4349504150C6
:103DF0005F000000B0E15BE2F84842460168F84825
:103E000000680830FCF718FF0222AFF25401F448B2
:103E100000680830FCF710FF04272E20009018E0FF
:103E200016F8011B01A8FEF7E9F801A8FCF700FA53
:103E30001FFA80F8424601A9E94800680830FCF7FB
:103E4000FBFE37B101226946E54800680830FCF7FF
:103E5000F3FE381EA7F10101CFB2E1D10122AFF28A
:103E6000A401DF4800680830FCF7E6FE0222AFF24A
:103E70002451DB48006800E048E00830FCF7DCFE35
:103E8000002242F20D01204601F0FAFA00BF40F292
:103E9000F530288000BF41F66450005D00F001005D
:103EA00038B941F66450005DC0F3400008B9002005
:103EB0004AE400BF41F66450005D00F0010080F06C
:103EC00001002076207E10B956F8040C606200BF15
:103ED0000020A08100BFC3490880C3490880C349AE
:103EE000088000BF41F64C50005D00F0010040B971
:103EF00041F64C50005D20F00200801C41F64C5110
:103F000008551C21B548FCF77CF945E4A08942F22C
:103F1000071188427ED100BF002141F66450015153
:103F20002068606100BF1122B1A1AD48006808306F
:103F3000FCF782FE0222AFF2EC51A948006808307B
:103F4000FCF77AFE002242F20301204601F098FAC3
:103F500000BF40F20440288000BF41F66450005D7D
:103F600000F0010038B941F66450005DC0F3400034
:103F700008B9002044E400BF41F66450005D00F041
:103F8000010080F001002076207E00B139E000BF02
:103F9000002141F6645001512068606100BF082291
:103FA00098A18F4800680830FCF746FE0222AFF265
:103FB00064618B4800680830FCF73EFE002242F244
:103FC0000401204601F05CFA00BF40F21140288055
:103FD00000BF41F66450005D00F0010038B941F6C1
:103FE0006450005DC0F3400008B9002008E400BF41
:103FF00041F66450005D00F0010080F00100207681
:1040000000BF00BF0020A08100BF7649088076492C
:10401000088000E016E07549088000BF41F64C506A
:10402000005D00F0010040B941F64C50005D20F009
:104030000200801C41F64C5108551C216748FCF7D2
:10404000E0F805E4A08942F2020188427ED163488B
:10405000C66800BF002141F66450015120686061CC
:1040600000BF09226AA15E4800680830FCF7E4FD41
:104070005A490868FCF7DCF81FFA80F857484246AE
:104080000168574800680830FCF7D6FD0222AFF2FD
:10409000D821534800680830FCF7CEFD4F494868E6
:1040A000FDF7D2F803225DA14D4800680830FCF707
:1040B000C3FD4A498868FDF7C7F80122AFF2043111
:1040C000474800680830FCF7B7FD86B3022254A1C8
:1040D000434800680830FCF7AFFD06273A200090FF
:1040E00018E016F8011B01A8FDF756FE01A8FCF721
:1040F0009FF81FFA80F8424601A939480068083045
:10410000FCF79AFD37B1012269463548006808304E
:10411000FCF792FD381EA7F10101CFB2E1D10122D7
:10412000AFF268312E4800680830FCF785FD0222A6
:10413000AFF2E8712A4800680830FCF77DFD0022E4
:1041400042F20201204601F09BF900E089E000BF45
:1041500040F23140288000BF41F66450005D00F01D
:10416000010038B941F66450005DC0F3400008B961
:1041700000207FE400BF41F66450005D00F00100C4
:1041800080F001002076207E38BB00BF0020A08197
:1041900000BF14490880144908801449088000BFF2
:1041A00041F64C50005D00F0010040B941F64C5022
:1041B000005D20F00200801C41F64C5108551C2186
:1041C0000648FCF71EF800BF00BFA08908B92068A8
:1041D000606142F20310A081F4E323E0B0240020E8
:1041E0005C000020600000206200002064000020CD
:1041F00041542B43574C41504F50543D312C313298
:104200003700000041542B43574C41500000000040
:1042100041542B43574A41505F000000222C22009A
:104220002C22000000BF0020A08100BFFD490880B3
:10423000FD490880FD49088000BF41F64C50005DF3
:1042400000F0010040B941F64C50005D20F0020042
:10425000801C41F64C5108551C21F548FBF7D1FF55
:10426000B0E3A08942F20501884257D100BF002186
:1042700041F6645001512068606100BF0822EDA141
:10428000EF4800680830FCF7D7FC0222AFF6441173
:10429000EB4800680830FCF7CFFC002242F2050131
:1042A000204601F0EDF800BF40F24140288000BFF9
:1042B00041F66450005D00F0010038B941F66450E9
:1042C000005DC0F3400008B9002078E400BF41F66B
:1042D0006450005D00F0010080F00100207600BF16
:1042E0000020A08100BFCF490880CF490880CF4976
:1042F000088000BF41F64C50005D00F0010040B95D
:1043000041F64C50005D20F00200801C41F64C51FB
:1043100008551C21C648FBF774FF53E3A08942F2FD
:104320000811884257D100BF002141F66450015165
:104330002068606100BF0D22C2A1C148006808303A
:10434000FCF77AFC0222AFF6FC11BD480068083089
:10435000FCF772FC002242F20201204601F090F8C4
:1043600000BF40F24D40288000BF41F66450005D20
:1043700000F0010038B941F66450005DC0F3400020
:1043800008B900201BE400BF41F66450005D00F056
:10439000010080F00100207600BF0020A08100BF56
:1043A000A0490880A0490880A049088000BF41F6C4
:1043B0004C50005D00F0010040B941F64C50005DEA
:1043C00020F00200801C41F64C5108551C219848F1
:1043D000FBF717FFF6E2A08942F20A01884270D18A
:1043E00000BF002141F6645001512068606100BFA8
:1043F0000E2298A1924800680830FCF71DFC8C49F9
:10440000896909B197A100E097A10846FBF710FF61
:104410001FFA80F88648806908B192A000E092A057
:1044200001464246864800680830FCF705FC022237
:10443000AFF6E821824800680830FCF7FDFB002257
:1044400042F20A01204601F01BF800BF40F25A4038
:10445000288000BF41F66450005D00F0010038B9CB
:1044600041F66450005DC0F3400008B9002051E4FB
:1044700000BF41F66450005D00F0010080F00100D3
:10448000207600BF0020A08100BF664908806649F1
:1044900008806649088000BF41F64C50005D00F07E
:1044A000010040B941F64C50005D20F00200801C34
:1044B00041F64C5108551C215D48FBF7A2FE81E2F4
:1044C000FFE7A08942F20701884257D100BF0021CF
:1044D00041F6645001512068606100BF082263A169
:1044E000574800680830FCF7A7FB0222AFF6A4315A
:1044F000534800680830FCF79FFB002242F2070196
:10450000204600F0BDFF00BF40F26640288000BF9B
:1045100041F66450005D00F0010038B941F6645086
:10452000005DC0F3400008B90020C1E400BF41F6BF
:104530006450005D00F0010080F00100207600BFB3
:104540000020A08100BF37490880374908803749DB
:10455000088000BF41F64C50005D00F0010040B9FA
:1045600041F64C50005D20F00200801C41F64C5199
:1045700008551C212E48FBF744FE23E2A08942F295
:10458000091188424DD100BF002141F6645001510C
:104590002068606100BF0D2237A1294800680830FB
:1045A000FCF74AFB0222AFF65C4125480068083060
:1045B000FCF742FB002242F20601204600F060FFB9
:1045C00000BF40F27340288000BF41F66450005D98
:1045D00000F0010038B941F66450005DC0F34000BE
:1045E00008B9002064E400BF41F66450005D00F0AB
:1045F000010080F00100207600BF0020A08100BFF4
:1046000008490880084908800849088000BF41F629
:104610004C50005D00F00100B0BB41F64C50005D15
:1046200033E03DE0600000206200002064000020D4
:10463000B024002041542B4357514150000000004A
:104640005C00002041542B43574A41505F43555270
:104650003F00000041542B43574155544F434F4EA8
:104660004E3D0000310000003000000041542B435B
:10467000574C49460000000041542B4357534150CA
:104680005F4355523F00000005E020F00200801C0F
:1046900041F64C5108551C21CD48FBF7B2FD91E184
:1046A000A08942F20A1188427ED100BF002141F662
:1046B000645001512068606100BF0922C5A1C8484B
:1046C00000680830FCF7B8FAC1490868FBF7B0FD8C
:1046D0001FFA80F8BE4842460168C14800680830A9
:1046E000FCF7AAFA0222AFF63011BD480068083084
:1046F000FCF7A2FAB6494868FCF7A6FD0322AFF220
:10470000E441B74800680830FCF796FAB0494968B8
:1047100001F11400FCF798FD0222B2A1B048006834
:104720000830FCF789FAAA48406890F8291001A8D7
:10473000FDF764FC01A8FBF77BFD1FFA80F84246F9
:1047400001A9A74800680830FCF776FA0122A6A163
:10475000A34800680830FCF76FFA9D48406890F85D
:10476000281001A8FDF74AFC01A8FBF761FD1FFA1C
:1047700080F8424601A99A4800680830FCF75CFAC4
:10478000012299A1964800680830FCF755FA904834
:10479000406890F82A1001A8FDF730FC01A8FBF74B
:1047A00047FD1FFA80F800E093E0424601A98C48DB
:1047B00000680830FCF740FA01228BA188480068A5
:1047C0000830FCF739FA8248406890F82B1001A8AD
:1047D000FDF714FC01A8FBF72BFD1FFA80F84246F9
:1047E00001A97F4800680830FCF726FA0222AFF6DC
:1047F000A4617B4800680830FCF71EFA002242F2F0
:104800000601204600F03CFE00BF40F291402880A7
:1048100000BF41F66450005D00F0010038B941F678
:104820006450005DC0F3400008B90020A1E400BF5F
:1048300041F66450005D00F0010080F00100207638
:10484000207EF0B100BF0020A08100BF6749088032
:10485000674908806749088000BF41F64C50005DF9
:1048600000F0010040B941F64C50005D20F002001C
:10487000801C41F64C5108551C215548FBF7C1FCE2
:10488000A0E000BF0020A08100BF5849088058491F
:1048900008805849088000BF41F64C50005D00F088
:1048A000010040B941F64C50005D20F00200801C30
:1048B00041F64C5108551C214548FBF7A2FC00BFAE
:1048C00000BFA08908B92068606142F20910A08188
:1048D00078E0A08942F21301884273D100BF002121
:1048E00041F6645001512068606100BF072242A177
:1048F0003B4800680830FCF79FF93549896911B1D8
:10490000AFF2A02101E0AFF2A0210846FBF790FC36
:104910001FFA80F82E48806910B1AFF2B82001E08C
:10492000AFF2BC20014642462D4800680830FCF733
:1049300083F90222AFF6EC71294800680830FCF7D1
:104940007BF9002242F21301204600F099FD00BFDE
:1049500040F2A240288000BF41F66450005D00F0A4
:10496000010038B941F66450005DC0F3400008B959
:104970000020AAE400BF41F66450005D00F0010091
:1049800080F00100207600BF0020A08100BF174901
:104990000880174908801749088000BF41F64C502D
:1049A000005D00F0010040B941F64C50005D20F080
:1049B0000200801C41F64C5108551C210448FBF7AD
:1049C00020FC00BF00BF00BF0020288003207CE443
:1049D000B024002041542B43575341505F00000046
:1049E0005C000020222C00002C0000006000002051
:1049F000620000206400002041542B5750533D00BA
:104A0000F8B507460C46154600E0641C207810B146
:104A100020782228F9D1207800B9F8BD641C00263E
:104A200005E014F8012B3046711CCEB22A542078D0
:104A300040B120782228F4D160782C28F1D1A078D8
:104A40002228EED100223046711CCEB22A54E41C3A
:104A5000002305F115022146384600F05BF91334B6
:104A60006946204600F06FF9E8769DF80000401C8A
:104A700004446946204600F066F900B2A88300BFEE
:104A8000CBE7F8B506460C4615462078282800D115
:104A9000641C22212846FBF7B4FB6946204600F03F
:104AA00052F928709DF80000401C04442078222808
:104AB00000D1641C0020009015E02078222803D14A
:104AC00060782C2800D111E09DF80000142804D251
:104AD0002178681C9DF8002081549DF80000401C3E
:104AE000C0B20090641C20780028E6D100BFA41C4E
:104AF0006946204600F027F900B2E8829DF80000E0
:104B0000401C04442078222800D1641C002305F1B5
:104B100018022146304600F0FDF81334694620465D
:104B200000F011F9A8779DF80000401C0444694684
:104B3000204600F008F940B2E8779DF80000401CDC
:104B400004446946204600F0FEF885F820009DF8F0
:104B50000000401C0444F8BDF8B506460C46154656
:104B60006B462A462146304600F08FF89DF800003B
:104B7000401C04446B462A1D2146304600F0CAF80A
:104B8000F8BDF8B507460C4615462C212846FBF71C
:104B900038FB002605E014F8012B3046711CCEB21C
:104BA0002A54207840B120782228F4D160782C282B
:104BB000F1D1A0782228EED100223046711CCEB26D
:104BC0002A54E41C002607E014F8012B3046711C1F
:104BD000CEB205F114010A54207828B12078222899
:104BE000F2D160782C28EFD100223046711CCEB271
:104BF00005F114010A54A41C6946204600F0A3F8EC
:104C0000283568709DF80000401C04446946204621
:104C100000F099F828709DF80000401C0444694693
:104C2000204600F090F8A8709DF80000401C044455
:104C30006946204600F087F8E870283DF8BD2DE968
:104C4000F04104460D460026002707E03601207893
:104C5000FDF786F80644641C781CC7B2207830281B
:104C600002DB20783928F1DD2078612802DB20780A
:104C70006628EBDD2078412802DB20784628E5DD38
:104C800005B12F703046BDE8F0812DE9F84380462C
:104C90000D4616461C4604270020009004B12070E3
:104CA00013E06946284600F04EF806F8010B9DF81F
:104CB0000000401C054444B120789DF800100844D1
:104CC000207017B12078401C2070381EA7F1010118
:104CD000CFB2E6D1BDE8F883F8B506460D461446D6
:104CE000002020606060A0606946284600F02BF834
:104CF00040F2E121484306F1740101EB400060609D
:104D00009DF80000401C05446946284600F01BF849
:104D10002081F8BD2DE9F04180460C4615461E461F
:104D2000062706E000212046FFF789FF05F8010B62
:104D3000E41C381EA7F10101CFB2F3D10EB111204E
:104D40003070BDE8F08170B50246002500240023D4
:104D500010782D2803D10125521C601CC4B207E035
:104D6000107830380A2603FB0603521C601CC4B2BC
:104D70001078302802DB10783928F1DD01B10C7091
:104D80000DB1584270BD1846FCE700002DE9F04710
:104D90000446884608F101050026002728780D28DA
:104DA00004D168780A2801D1BDE8F087F8A1284627
:104DB000FBF745FA00B90026F5A12846FBF73FFAB4
:104DC00008B9012000E00020064696B9F2A1284665
:104DD000FBF735FA08B9012000E00020074647B983
:104DE000EFA12846FBF72BFA08B9012000E00020CC
:104DF000074676B96FB9EDA12846FBF720FA40B90E
:104E000041F66450005D20F00800083041F664511E
:104E10000855A08941F20301884241D128784128F0
:104E200002D0287861280FD1E248006860B105F10E
:104E30000B00FBF7FDF9A0F10209DE494A460868BC
:104E400005F10B01FBF7E8F92878532802D0287800
:104E500073280FD1D748406860B105F10C00FBF70B
:104E6000E7F9A0F10209D3494A46486805F10C0167
:104E7000FBF7D2F92878432802D0287863280FD18D
:104E8000CC48806860B105F10D00FBF7D1F9A0F1C5
:104E90000209C8494A46886805F10D01FBF7BCF9CB
:104EA000A08942F20B01884219D128782B2816D10B
:104EB0000A22C1A12846FBF7D0F980B9002304F1EA
:104EC000300205F110012046FFF724FFB948C06801
:104ED00028B1B848C068216B0160A18E8180A0898B
:104EE00042F20C0188421BD128782B2818D10922C4
:104EF000B4A12846FBF7B1F990B9002304F14202AE
:104F000005F10F012046FFF705FFAA48C06838B138
:104F1000A848C068D4F842100160B4F846108180F7
:104F2000A08942F20D01884232D128782B282FD156
:104F30000822A7A12846FBF790F948BB287B6928DF
:104F40000FD1002304F1240205F110012046FFF7E0
:104F50009CFE9848C068D8B19648C068616A0160F4
:104F600016E0287B672808D1002304F1280205F108
:104F700015012046FFF789FE0AE0287B6E2807D13D
:104F8000002304F12C0205F115012046FFF77DFEF8
:104F9000A08942F20E01884232D128782B282FD1E5
:104FA00007228EA12846FBF758F948BBE87A692802
:104FB0000FD1002304F1360205F10F012046FFF75F
:104FC00064FE7C48C068D8B17A48C068616A0160F4
:104FD00016E0E87A672808D1002304F13A0205F1C7
:104FE00014012046FFF751FE0AE0E87A6E2807D147
:104FF000002304F13E0205F114012046FFF745FEAF
:10500000A08942F2070188421DD1287830281ADB96
:105010002878392817DC674800690088654989695C
:10502000884210D263482946C2682046FFF794FDA3
:105030006048C0680A305F49C86008460069008857
:10504000401C0969088028782B2822D1A08942F2C7
:10505000040188421DD1062262A12846FBF7FDF813
:10506000B8B954480069008852498969884210D209
:105070005048E91DC2682046FFF703FD4D48C0684F
:1050800022304C49C860084600690088401C096904
:105090000860A08942F2060188420BD1062253A182
:1050A0002846FBF7DAF828B904F14802E91D204642
:1050B000FFF767FDA08942F20201884213D14DA19A
:1050C0002846FBF7BCF808B901270CE00A224BA1DF
:1050D0002846FBF7C2F830B9364805F10A01C26824
:1050E0002046FFF78DFCA08943F2120188420FD1C0
:1050F00028782B280CD16878302809DB6878392883
:1051000006DC0021681CFFF71EFE2A49C9680860FA
:105110003DA12846FBF793F8C8B9A08942F20201E5
:1051200088420AD141F664502044407820F00400BF
:10513000001D41F664512144487041F65050005D15
:1051400020F00100401C41F6505108558EE033A17B
:105150002846FBF774F8C8B9A08942F202018842D8
:105160000AD141F664502044407820F0080008300D
:1051700041F664512144487041F65050005D20F0E2
:105180000200801C41F6505108556FE050E00000CD
:105190004F4B0D0A000000004552524F520D0A00BD
:1051A0006275737920702E2E2E0D0A00726561646F
:1051B000790D0A00B02400202B4349505354414D2F
:1051C000414300002B43495041504D4143000000F2
:1051D0002B4349505354415F000000002B4349507A
:1051E00041505F002B43574C415000002B43575315
:1051F000415000004641494C0D0A00002B43574ADC
:1052000041505F43555200005749464920434F4E95
:105210004E45435445440D0A000000005749464995
:1052200020444953434F4E4E45435445440D0A00D4
:1052300065A12846FBF703F8C0B9A08942F2020134
:1052400088420AD141F664502044407820F0100092
:10525000103041F664512144487041F65050005DD1
:1052600020F00400001D41F65051085508225AA1B3
:10527000681CFAF7F2FFD8B92978303940F2E122F8
:1052800011FB02F204F1740101EB4200297830397C
:10529000017090F8C01521F00101491C80F8C0157B
:1052A00090F8C11521F00101491C80F8C1151CE0DE
:1052B00007224CA1681CFAF7D0FFB0B92978303921
:1052C00040F2E12211FB02F204F1740101EB420011
:1052D00090F8C11521F00201891C80F8C11500BFAA
:1052E000002180F8C01500BF00BFA08943F205016E
:1052F000884222D107223DA12846FAF7AEFF58B9CD
:1053000041F664502044407820F00100401C41F6F2
:1053100064512144487010E0092236A12846FAF76A
:105320009CFF50B941F664502044407820F00200C0
:10533000801C41F6645121444870A08943F2020167
:1053400088420DD10A222EA12846FAF786FF38B9E5
:105350002E48002305F10B01C2682046FFF795FC9B
:1053600004222BA12846FAF778FF48B904F5EA523F
:10537000691D2046FFF7B0FC01214FF4EA500155AA
:1053800086B141F66450005D20F00100401C41F6FA
:10539000645108550846005D20F0020141F6645052
:1053A00001550FE077B141F66450005D20F0010136
:1053B00041F664500155005D20F00200801C41F66A
:1053C0006451085500BFEFE45749464920474F5400
:1053D0002049500D0A0000002C434F4E4E454354C7
:1053E000000000002C434C4F5345440053454E44AD
:1053F000204F4B0053454E44204641494C0000008D
:105400002B434950444F4D41494E0000B0240020E9
:105410002B4950440000000010B50446A089B0F5A7
:10542000805F07DBA089B0F5005F03DA21461148F1
:10543000FCF7F0FDA089B0F5005F07DBA089B0F5AF
:10544000405F03DA21460C48FEF72AF8A089B0F540
:10545000405F07DBA089B0F5804F03DA214607489B
:10546000FDF7E2F82046FBF703FC00BF00202071A7
:1054700010BD0000600000206200002064000020D9
:10548000034699811A6118685861002018767047A0
:1054900010B5FBF703FF10BD1448006840F470001E
:1054A000124908601248006840F001001049086085
:1054B00000200F49083108600D4800680D49084078
:1054C0000B4908600C48091D0860081F006820F49B
:1054D0008020091F0860002005490C3108604FF04A
:1054E00000600249803908607047000088ED00E0E4
:1054F00000380240FFFFF6FE1030002470B503466E
:1055000000240BB9002070BD58881D88A84201DB1B
:10551000002058801BE05D889888401E854206D098
:10552000988828B95D881888401E854200D113E00C
:1055300011F8015B5E88701C588098688555601C66
:10554000C4B258881D88A84201DB00205880101E74
:10555000A2F10105AAB2DED100BF2046D3E70000C8
:1055600010B501210148FBF753FE10BD5801002082
:105570000F48006820F080700D4A106010460068E7
:1055800040F0807010600B48006820F00100094A6C
:1055900010601046006840F001001060002050606C
:1055A0001046416800BF00BF02484068401A70477B
:1055B000FCED00E0001000E01CB5002001210346D6
:1055C0000246CDE900104903014800F02FF91CBD47
:1055D0000008024009480068C0F3403080F0010034
:1055E00030B10748007830B901200549087070478C
:1055F0000020034908700020F9E70000100802406D
:10560000080000201CB5032000210B460122CDE933
:1056100000102021034800F009F94FF4001001495F
:1056200088611CBD0000024030B502460B460E4C9E
:10563000A24207D20D490D4C0834141B1825B4FBA7
:10564000F5F006E008490839074C141B1825B4FB8F
:10565000F5F0042801D3091D001F03F03D04044D9B
:105660002D5CAC400C6030BD10640240086002400C
:10567000386600087047704770B502460C46002136
:10568000002300200E4DAA4207D20E4B0D4D1035BF
:10569000551B1826B5FBF6F106E0094B103B084DEB
:1056A000551B1826B5FBF6F1042901D31B1D091F54
:1056B0001868054D6D5CE84000F03D0070BD0000CD
:1056C000106402400060024038660008704770B500
:1056D00004463D212046FFF7CFFF85B23D212046FD
:1056E000FFF7A2FF05F0200030B1206800F01000A5
:1056F00010B1204600F029F805F0100030B1206804
:1057000000F0080010B12046FFF7E0FF05F00800A8
:1057100030B1206800F0040010B1204600F016F807
:1057200005F0040030B1206800F0020010B12046FE
:10573000FFF7A0FF05F0010030B1606900F08000C4
:1057400010B12046FFF797FF70BD704770470146C4
:105750004FF40030081AC0F38F20704700B502469E
:105760001046FFF7F4FF012101FA00F00249096831
:1057700008430149086000BD303802402DE9F0437C
:1057800004460E461546DDE907892046FFF7DFFF90
:10579000C7B2002243E001209040304000B93CE015
:1057A000214830F817000121914008431E4921F893
:1057B0001700E0684FEA420C032101FA0CF188431C
:1057C000510008FA01F10843E06020684FEA420CFA
:1057D000032101FA0CF18843510005FA01F1084355
:1057E0002060012D01D0022D16D16168012090406A
:1057F00080B221EA000003FA02F189B20843606036
:10580000A0684FEA420C032101FA0CF188435100D1
:1058100009FA01F10843A06000BF501CC2B2102A6F
:10582000B9DBBDE8F0830000840000202DE9FC43D3
:1058300005460C4616461F46DDE909890CB9BDE848
:10584000FC832846FFF78AFF3B463246214628461E
:10585000CDE90089FFF792FF00BFF0E72DE9FC4793
:1058600005460E4617469846DDE90A9A0EB9BDE888
:10587000FC872846FFF772FF00241AE00120A040B1
:10588000304000B914E0E10805F1200050F8210093
:105890006107CA0E0F21914088436107C90E0AFAB9
:1058A00001F10843E20805F1200141F8220000BFA0
:1058B000641C102CE2D33B46022231462846CDE937
:1058C0000089FFF75BFF00BFD1E7000000B593B090
:1058D00000BF2648006840F0805024490860084610
:1058E000006800F08050019000BF00BF00BF20485A
:1058F000006840F440401E4908600846006800F413
:105900004040019000BF00BF0120029003900020A2
:1059100005904FF4800109910220089008210A9116
:105920004FF4C8710B9104210C9107210D9102A82D
:10593000FBF7C0FF10B1012013B000BD02200F9093
:105940000020109007200E900E9840F008000E9056
:105950004FF4805011900020129006210EA8FBF702
:10596000AFFD08B10120E7E70020E5E7403802403D
:10597000007000401CB504464CB9072003210123E8
:105980000022CDE9001049020A48FFF767FF012C09
:1059900009D10720032101230022CDE90010C021F5
:1059A0000548FFF75BFF032C03D10721034800F0F4
:1059B00089F91CBD000002400004024000100140B3
:1059C00001B501216846FAF71BFE08BD1CB5044667
:1059D0004CB90720032101230022CDE900100C213E
:1059E0000A48FFF73BFF012C09D1072003210123BF
:1059F0000022CDE9001060210548FFF72FFF032C9E
:105A000003D10721034800F05DF91CBD00000240EE
:105A1000000C0240004400401CB504464CB908206C
:105A2000032101230022CDE90010C0210448FFF723
:105A300015FF032C03D10821024800F043F91CBDD7
:105A4000000802400014014038B505460C461E48C7
:105A5000056000BF0068006800901B48006840684F
:105A6000009000BF00BF00BF1748006800680090AA
:105A7000154800684068009000BF00BF00BF124892
:105A8000006800680090104800684068009000BFFF
:105A900000BF00BF0C480068006800900A4800681A
:105AA0004068009000BF00BF00BF07480068006862
:105AB0000090054800684068009000BF00BF204685
:105AC000FBF782FC38BD0000180100200146064AA1
:105AD000914200D10020054A914200D10120044AA0
